{
	"data": {
		"bytecode": {
			"linkReferences": {},
			"object": "6080604052670de0b6b3a764000060025534801561001b575f80fd5b506040516200456738038062004567833981810160405281019061003f91906100e3565b8060015f6101000a81548173ffffffffffffffffffffffffffffffffffffffff021916908373ffffffffffffffffffffffffffffffffffffffff1602179055505061010e565b5f80fd5b5f73ffffffffffffffffffffffffffffffffffffffff82169050919050565b5f6100b282610089565b9050919050565b6100c2816100a8565b81146100cc575f80fd5b50565b5f815190506100dd816100b9565b92915050565b5f602082840312156100f8576100f7610085565b5b5f610105848285016100cf565b91505092915050565b61444b806200011c5f395ff3fe6080604052600436106200005b575f3560e01c806329575f6a146200005f5780635b4b6fe5146200008e5780637a0625f714620000bb578063a8cd347414620000e8578063cd1e3ae71462000117578063d58e42ff1462000137575b5f80fd5b3480156200006b575f80fd5b50620000766200017a565b604051620000859190620006fd565b60405180910390f35b3480156200009a575f80fd5b50620000b96004803603810190620000b3919062000754565b6200019f565b005b348015620000c7575f80fd5b50620000e66004803603810190620000e09190620007b3565b62000274565b005b348015620000f4575f80fd5b50620000ff6200038c565b6040516200010e9190620007f4565b60405180910390f35b6200013560048036038101906200012f91906200080f565b62000397565b005b34801562000143575f80fd5b506200016260048036038101906200015c919062000754565b62000671565b604051620001719190620008bb565b60405180910390f35b60015f9054906101000a900473ffffffffffffffffffffffffffffffffffffffff1681565b60015f9054906101000a900473ffffffffffffffffffffffffffffffffffffffff1673ffffffffffffffffffffffffffffffffffffffff163373ffffffffffffffffffffffffffffffffffffffff161462000231576040517f08c379a0000000000000000000000000000000000000000000000000000000008152600401620002289062000934565b60405180910390fd5b806002819055507f7d459089b30566139cb7604d0d9b3eb3383dfe48425cfcfeb6eb51c21098a21681604051620002699190620007f4565b60405180910390a150565b60015f9054906101000a900473ffffffffffffffffffffffffffffffffffffffff1673ffffffffffffffffffffffffffffffffffffffff163373ffffffffffffffffffffffffffffffffffffffff161462000306576040517f08c379a0000000000000000000000000000000000000000000000000000000008152600401620002fd9062000934565b60405180910390fd5b8060015f6101000a81548173ffffffffffffffffffffffffffffffffffffffff021916908373ffffffffffffffffffffffffffffffffffffffff1602179055508073ffffffffffffffffffffffffffffffffffffffff167f037f604e729cde8e324b3ce659fe08f8c5560d9effcefb9727d8f4fb75c34bd060405160405180910390a250565b5f8080549050905090565b60015f9054906101000a900473ffffffffffffffffffffffffffffffffffffffff1673ffffffffffffffffffffffffffffffffffffffff163373ffffffffffffffffffffffffffffffffffffffff160362000429576040517f08c379a00000000000000000000000000000000000000000000000000000000081526004016200042090620009a2565b60405180910390fd5b5f338360015f9054906101000a900473ffffffffffffffffffffffffffffffffffffffff16846040516200045d90620006ac565b6200046c9493929190620009c2565b604051809103905ff08015801562000486573d5f803e3d5ffd5b5090505f81908060018154018082558091505060019003905f5260205f20015f9091909190916101000a81548173ffffffffffffffffffffffffffffffffffffffff021916908373ffffffffffffffffffffffffffffffffffffffff16021790555060015f9054906101000a900473ffffffffffffffffffffffffffffffffffffffff1673ffffffffffffffffffffffffffffffffffffffff163373ffffffffffffffffffffffffffffffffffffffff168273ffffffffffffffffffffffffffffffffffffffff167fbc68d65c9d3b42a45d575b86e76983264bfa19d95009e67e5b2eb08eb3ef24bc426040516200057f9190620007f4565b60405180910390a46002543414620005ce576040517f08c379a0000000000000000000000000000000000000000000000000000000008152600401620005c59062000a5b565b60405180910390fd5b5f60015f9054906101000a900473ffffffffffffffffffffffffffffffffffffffff1673ffffffffffffffffffffffffffffffffffffffff166108fc60025490811502906040515f60405180830381858888f193505050509050806200066b576040517f08c379a0000000000000000000000000000000000000000000000000000000008152600401620006629062000aef565b60405180910390fd5b50505050565b5f818154811062000680575f80fd5b905f5260205f20015f915054906101000a900473ffffffffffffffffffffffffffffffffffffffff1681565b6139068062000b1083390190565b5f73ffffffffffffffffffffffffffffffffffffffff82169050919050565b5f620006e582620006ba565b9050919050565b620006f781620006d9565b82525050565b5f602082019050620007125f830184620006ec565b92915050565b5f80fd5b5f819050919050565b62000730816200071c565b81146200073b575f80fd5b50565b5f813590506200074e8162000725565b92915050565b5f602082840312156200076c576200076b62000718565b5b5f6200077b848285016200073e565b91505092915050565b6200078f81620006d9565b81146200079a575f80fd5b50565b5f81359050620007ad8162000784565b92915050565b5f60208284031215620007cb57620007ca62000718565b5b5f620007da848285016200079d565b91505092915050565b620007ee816200071c565b82525050565b5f602082019050620008095f830184620007e3565b92915050565b5f806040838503121562000828576200082762000718565b5b5f62000837858286016200073e565b92505060206200084a858286016200073e565b9150509250929050565b5f819050919050565b5f6200087d620008776200087184620006ba565b62000854565b620006ba565b9050919050565b5f62000890826200085d565b9050919050565b5f620008a38262000884565b9050919050565b620008b58162000897565b82525050565b5f602082019050620008d05f830184620008aa565b92915050565b5f82825260208201905092915050565b7f4d757374206265206120737570657241646d696e0000000000000000000000005f82015250565b5f6200091c601483620008d6565b91506200092982620008e6565b602082019050919050565b5f6020820190508181035f8301526200094d816200090e565b9050919050565b7f43616e6e6f7420626520612053757065722041646d696e0000000000000000005f82015250565b5f6200098a601783620008d6565b9150620009978262000954565b602082019050919050565b5f6020820190508181035f830152620009bb816200097c565b9050919050565b5f608082019050620009d75f830187620006ec565b620009e66020830186620007e3565b620009f56040830185620006ec565b62000a046060830184620007e3565b95945050505050565b7f496e73756666696369656e7420666565000000000000000000000000000000005f82015250565b5f62000a43601083620008d6565b915062000a508262000a0d565b602082019050919050565b5f6020820190508181035f83015262000a748162000a35565b9050919050565b7f54786e206661696c656420666f72207468652053757065722041646d696e206f5f8201527f6e20636f6e7472616374206372656174696f6e00000000000000000000000000602082015250565b5f62000ad7603383620008d6565b915062000ae48262000a7b565b604082019050919050565b5f6020820190508181035f83015262000b088162000ac9565b905091905056fe6080604052600a60055534801562000015575f80fd5b50604051620039063803806200390683398181016040528101906200003b919062000363565b600180819055508160025f6101000a81548173ffffffffffffffffffffffffffffffffffffffff021916908373ffffffffffffffffffffffffffffffffffffffff1602179055508360035f6101000a81548173ffffffffffffffffffffffffffffffffffffffff021916908373ffffffffffffffffffffffffffffffffffffffff1602179055508260068190555080600781905550620001237fa49807205ce4d355092ef5a8a18f56e8913cf4a201fbe287825b095693c2177560035f9054906101000a900473ffffffffffffffffffffffffffffffffffffffff166200016160201b60201c565b50620001567fd980155b32cf66e6af51e0972d64b9d5efe0e6f237dfaa4bdc83f990dd79e9c8836200016160201b60201c565b5050505050620003d2565b5f6200017483836200025c60201b60201c565b620002525760015f808581526020019081526020015f205f015f8473ffffffffffffffffffffffffffffffffffffffff1673ffffffffffffffffffffffffffffffffffffffff1681526020019081526020015f205f6101000a81548160ff021916908315150217905550620001ee620002bf60201b60201c565b73ffffffffffffffffffffffffffffffffffffffff168273ffffffffffffffffffffffffffffffffffffffff16847f2f8788117e7eff1d82e926ec794901d17c78024a50270940304540a733656f0d60405160405180910390a46001905062000256565b5f90505b92915050565b5f805f8481526020019081526020015f205f015f8373ffffffffffffffffffffffffffffffffffffffff1673ffffffffffffffffffffffffffffffffffffffff1681526020019081526020015f205f9054906101000a900460ff16905092915050565b5f33905090565b5f80fd5b5f73ffffffffffffffffffffffffffffffffffffffff82169050919050565b5f620002f582620002ca565b9050919050565b6200030781620002e9565b811462000312575f80fd5b50565b5f815190506200032581620002fc565b92915050565b5f819050919050565b6200033f816200032b565b81146200034a575f80fd5b50565b5f815190506200035d8162000334565b92915050565b5f805f80608085870312156200037e576200037d620002c6565b5b5f6200038d8782880162000315565b9450506020620003a0878288016200034d565b9350506040620003b38782880162000315565b9250506060620003c6878288016200034d565b91505092959194509250565b61352680620003e05f395ff3fe6080604052600436106101f1575f3560e01c80637c7c7c3c1161010c578063a217fddf1161009f578063d18d944b1161006e578063d18d944b146106f7578063d547741f1461071f578063d7bb99ba14610747578063e43252d714610751578063fb86a4041461077957610231565b8063a217fddf14610651578063aaffadf31461067b578063b8e0d08d146106a5578063c5c4744c146106cd57610231565b80638d070e75116100db5780638d070e75146105a55780638d3d6576146105af57806391d14854146105d95780639b19251a1461061557610231565b80637c7c7c3c146105015780637ce3489b1461052b5780637fd6f15c146105535780638ab1d6811461057d57610231565b806336568abe116101845780636d66d2ce116101535780636d66d2ce1461046d5780636f9fb98a14610483578063708dee5e146104ad57806375b238fc146104d757610231565b806336568abe146103b75780633e0498d2146103df57806342e94c9014610409578063473b0d461461044557610231565b80631e2f73b1116101c05780631e2f73b1146102ff578063248a9ca31461032957806329575f6a146103655780632f2ff15d1461038f57610231565b806301ffc9a71461023557806303ed9d21146102715780630b9f2c4a146102995780631e206f15146102d557610231565b36610231576040517f08c379a0000000000000000000000000000000000000000000000000000000008152600401610228906126d2565b60405180910390fd5b5f80fd5b348015610240575f80fd5b5061025b60048036038101906102569190612749565b6107a3565b604051610268919061278e565b60405180910390f35b34801561027c575f80fd5b50610297600480360381019061029291906127da565b61081c565b005b3480156102a4575f80fd5b506102bf60048036038101906102ba91906127da565b6108e7565b6040516102cc9190612844565b60405180910390f35b3480156102e0575f80fd5b506102e9610922565b6040516102f6919061286c565b60405180910390f35b34801561030a575f80fd5b50610313610928565b6040516103209190612844565b60405180910390f35b348015610334575f80fd5b5061034f600480360381019061034a91906128b8565b61094d565b60405161035c91906128f2565b60405180910390f35b348015610370575f80fd5b50610379610969565b6040516103869190612844565b60405180910390f35b34801561039a575f80fd5b506103b560048036038101906103b09190612935565b61098e565b005b3480156103c2575f80fd5b506103dd60048036038101906103d89190612935565b6109b0565b005b3480156103ea575f80fd5b506103f3610a2b565b604051610400919061278e565b60405180910390f35b348015610414575f80fd5b5061042f600480360381019061042a9190612973565b610a3e565b60405161043c919061286c565b60405180910390f35b348015610450575f80fd5b5061046b600480360381019061046691906127da565b610a53565b005b348015610478575f80fd5b50610481610b1e565b005b34801561048e575f80fd5b50610497610c3f565b6040516104a4919061286c565b60405180910390f35b3480156104b8575f80fd5b506104c1610c46565b6040516104ce919061278e565b60405180910390f35b3480156104e2575f80fd5b506104eb610c58565b6040516104f891906128f2565b60405180910390f35b34801561050c575f80fd5b50610515610c7c565b60405161052291906128f2565b60405180910390f35b348015610536575f80fd5b50610551600480360381019061054c91906127da565b610ca0565b005b34801561055e575f80fd5b50610567610d34565b604051610574919061286c565b60405180910390f35b348015610588575f80fd5b506105a3600480360381019061059e9190612973565b610d3a565b005b6105ad610e54565b005b3480156105ba575f80fd5b506105c3611a19565b6040516105d0919061286c565b60405180910390f35b3480156105e4575f80fd5b506105ff60048036038101906105fa9190612935565b611a1f565b60405161060c919061278e565b60405180910390f35b348015610620575f80fd5b5061063b60048036038101906106369190612973565b611a82565b604051610648919061278e565b60405180910390f35b34801561065c575f80fd5b50610665611a9f565b60405161067291906128f2565b60405180910390f35b348015610686575f80fd5b5061068f611aa5565b60405161069c919061286c565b60405180910390f35b3480156106b0575f80fd5b506106cb60048036038101906106c691906127da565b611aab565b005b3480156106d8575f80fd5b506106e1611b76565b6040516106ee919061286c565b60405180910390f35b348015610702575f80fd5b5061071d600480360381019061071891906127da565b611b7c565b005b34801561072a575f80fd5b5061074560048036038101906107409190612935565b611c10565b005b61074f611c32565b005b34801561075c575f80fd5b5061077760048036038101906107729190612973565b611e7d565b005b348015610784575f80fd5b5061078d611f99565b60405161079a919061286c565b60405180910390f35b5f7f7965db0b000000000000000000000000000000000000000000000000000000007bffffffffffffffffffffffffffffffffffffffffffffffffffffffff1916827bffffffffffffffffffffffffffffffffffffffffffffffffffffffff19161480610815575061081482611f9f565b5b9050919050565b6108677fa49807205ce4d355092ef5a8a18f56e8913cf4a201fbe287825b095693c2177560035f9054906101000a900473ffffffffffffffffffffffffffffffffffffffff16611a1f565b6108a6576040517f08c379a000000000000000000000000000000000000000000000000000000000815260040161089d906129e8565b60405180910390fd5b806008819055507f8645f88287b79f16d91266da1d35b7adc817d75a89a9577504b01fbc37ed5a6f816040516108dc919061286c565b60405180910390a150565b600b81815481106108f6575f80fd5b905f5260205f20015f915054906101000a900473ffffffffffffffffffffffffffffffffffffffff1681565b600a5481565b60035f9054906101000a900473ffffffffffffffffffffffffffffffffffffffff1681565b5f805f8381526020019081526020015f20600101549050919050565b60025f9054906101000a900473ffffffffffffffffffffffffffffffffffffffff1681565b6109978261094d565b6109a081612008565b6109aa838361201c565b50505050565b6109b8612105565b73ffffffffffffffffffffffffffffffffffffffff168173ffffffffffffffffffffffffffffffffffffffff1614610a1c576040517f6697b23200000000000000000000000000000000000000000000000000000000815260040160405180910390fd5b610a26828261210c565b505050565b600960019054906101000a900460ff1681565b600c602052805f5260405f205f915090505481565b610a9e7fa49807205ce4d355092ef5a8a18f56e8913cf4a201fbe287825b095693c2177560035f9054906101000a900473ffffffffffffffffffffffffffffffffffffffff16611a1f565b610add576040517f08c379a0000000000000000000000000000000000000000000000000000000008152600401610ad4906129e8565b60405180910390fd5b806007819055507f9e87cf72973cdb82f6a3c58fa8ef538fd3088801e3f3033afd06fa390ca4876c81604051610b13919061286c565b60405180910390a150565b610b697fa49807205ce4d355092ef5a8a18f56e8913cf4a201fbe287825b095693c2177560035f9054906101000a900473ffffffffffffffffffffffffffffffffffffffff16611a1f565b610ba8576040517f08c379a0000000000000000000000000000000000000000000000000000000008152600401610b9f906129e8565b60405180910390fd5b60095f9054906101000a900460ff1615610bf7576040517f08c379a0000000000000000000000000000000000000000000000000000000008152600401610bee90612a50565b60405180910390fd5b600160095f6101000a81548160ff0219169083151502179055507f8cf55e5373cd35327ecd6e48f19a6101684947fd385c07fb95117b3695ec2e9b60405160405180910390a1565b5f47905090565b60095f9054906101000a900460ff1681565b7fa49807205ce4d355092ef5a8a18f56e8913cf4a201fbe287825b095693c2177581565b7fd980155b32cf66e6af51e0972d64b9d5efe0e6f237dfaa4bdc83f990dd79e9c881565b610ceb7fa49807205ce4d355092ef5a8a18f56e8913cf4a201fbe287825b095693c2177560035f9054906101000a900473ffffffffffffffffffffffffffffffffffffffff16611a1f565b610d2a576040517f08c379a0000000000000000000000000000000000000000000000000000000008152600401610d21906129e8565b60405180910390fd5b8060058190555050565b60055481565b610d857fa49807205ce4d355092ef5a8a18f56e8913cf4a201fbe287825b095693c2177560035f9054906101000a900473ffffffffffffffffffffffffffffffffffffffff16611a1f565b610dc4576040517f08c379a0000000000000000000000000000000000000000000000000000000008152600401610dbb906129e8565b60405180910390fd5b5f600d5f8373ffffffffffffffffffffffffffffffffffffffff1673ffffffffffffffffffffffffffffffffffffffff1681526020019081526020015f205f6101000a81548160ff0219169083151502179055507ff93f9a76c1bf3444d22400a00cb9fe990e6abe9dbb333fda48859cfee864543d815f604051610e49929190612a6e565b60405180910390a150565b610e9f7fa49807205ce4d355092ef5a8a18f56e8913cf4a201fbe287825b095693c2177560035f9054906101000a900473ffffffffffffffffffffffffffffffffffffffff16611a1f565b80610ef15750610ef07fd980155b32cf66e6af51e0972d64b9d5efe0e6f237dfaa4bdc83f990dd79e9c860025f9054906101000a900473ffffffffffffffffffffffffffffffffffffffff16611a1f565b5b610f30576040517f08c379a0000000000000000000000000000000000000000000000000000000008152600401610f2790612adf565b60405180910390fd5b610f386121f5565b610f40612244565b6001600960016101000a81548160ff0219169083151502179055610f99576040517f08c379a0000000000000000000000000000000000000000000000000000000008152600401610f9090612b47565b60405180910390fd5b5f60045411610fdd576040517f08c379a0000000000000000000000000000000000000000000000000000000008152600401610fd490612baf565b60405180910390fd5b5f806006546004541015611228576110296040518060400160405280601a81526020017f5768656e20746f74616c526173696564203c20686172644361700000000000008152506122dd565b61106a6040518060400160405280600b81526020017f546f74616c526169736564000000000000000000000000000000000000000000815250600454612376565b611094606461108660055460045461241290919063ffffffff16565b61242790919063ffffffff16565b91506110ab8260045461243c90919063ffffffff16565b90506110cf6040518060600160405280602a8152602001613452602a913983612376565b6110f16040518060600160405280602781526020016133d86027913982612376565b5f60035f9054906101000a900473ffffffffffffffffffffffffffffffffffffffff1673ffffffffffffffffffffffffffffffffffffffff166108fc8390811502906040515f60405180830381858888f19350505050905080611189576040517f08c379a000000000000000000000000000000000000000000000000000000000815260040161118090612c3d565b60405180910390fd5b5f60025f9054906101000a900473ffffffffffffffffffffffffffffffffffffffff1673ffffffffffffffffffffffffffffffffffffffff166108fc8590811502906040515f60405180830381858888f19350505050905080611221576040517f08c379a000000000000000000000000000000000000000000000000000000000815260040161121890612ccb565b60405180910390fd5b50506119cb565b6006546004541115611785576112726040518060400160405280601a81526020017f5768656e20746f74616c526173696564203e20686172644361700000000000008152506122dd565b6112b36040518060400160405280600b81526020017f546f74616c526169736564000000000000000000000000000000000000000000815250600454612376565b6112dd60646112cf60055460065461241290919063ffffffff16565b61242790919063ffffffff16565b91506112f48260065461243c90919063ffffffff16565b90506113186040518060600160405280602a81526020016134a0602a913983612376565b61133a6040518060600160405280602781526020016134ca6027913982612376565b5f60035f9054906101000a900473ffffffffffffffffffffffffffffffffffffffff1673ffffffffffffffffffffffffffffffffffffffff166108fc8390811502906040515f60405180830381858888f193505050509050806113d2576040517f08c379a00000000000000000000000000000000000000000000000000000000081526004016113c990612d59565b60405180910390fd5b5f60025f9054906101000a900473ffffffffffffffffffffffffffffffffffffffff1673ffffffffffffffffffffffffffffffffffffffff166108fc8590811502906040515f60405180830381858888f1935050505090508061146a576040517f08c379a000000000000000000000000000000000000000000000000000000000815260040161146190612d59565b60405180910390fd5b5f611496600a5461148860065460045461243c90919063ffffffff16565b61242790919063ffffffff16565b90506114d76040518060400160405280601a81526020017f726566756e64416d6f756e74506572436f6e7472696275746f7200000000000081525082612376565b6115156040518060400160405280601a81526020017f436865636b696e6720657665727920636f6e7472696275746f720000000000008152506122dd565b5f5b600a5481101561177c575f600b828154811061153657611535612d77565b5b905f5260205f20015f9054906101000a900473ffffffffffffffffffffffffffffffffffffffff16905061159f6040518060400160405280601081526020017f636f6e7472696275746f72206c6973740000000000000000000000000000000081525082612451565b5f600c5f8373ffffffffffffffffffffffffffffffffffffffff1673ffffffffffffffffffffffffffffffffffffffff1681526020019081526020015f2054905083811115611728575f73ffffffffffffffffffffffffffffffffffffffff168273ffffffffffffffffffffffffffffffffffffffff1614158061164f57505f73ffffffffffffffffffffffffffffffffffffffff168273ffffffffffffffffffffffffffffffffffffffff1614155b61168e576040517f08c379a000000000000000000000000000000000000000000000000000000000815260040161168590612dee565b60405180910390fd5b6116af60405180606001604052806024815260200161347c602491396122dd565b5f8273ffffffffffffffffffffffffffffffffffffffff166108fc8690811502906040515f60405180830381858888f19350505050905080611726576040517f08c379a000000000000000000000000000000000000000000000000000000000815260040161171d90612e7c565b60405180910390fd5b505b6117676040518060400160405280600d81526020017f72657475726e20416d6f756e740000000000000000000000000000000000000081525085612376565b5050808061177490612ec7565b915050611517565b505050506119ca565b600654600454036119c9576117ce6040518060400160405280601b81526020017f5768656e20746f74616c526173696564203d3d206861726443617000000000008152506122dd565b61180f6040518060400160405280600b81526020017f546f74616c526169736564000000000000000000000000000000000000000000815250600454612376565b611839606461182b60055460065461241290919063ffffffff16565b61242790919063ffffffff16565b91506118508260065461243c90919063ffffffff16565b90506118746040518060600160405280602b8152602001613427602b913983612376565b6118966040518060600160405280602881526020016133ff6028913982612376565b5f60035f9054906101000a900473ffffffffffffffffffffffffffffffffffffffff1673ffffffffffffffffffffffffffffffffffffffff166108fc8390811502906040515f60405180830381858888f1935050505090508061192e576040517f08c379a000000000000000000000000000000000000000000000000000000000815260040161192590612f7e565b60405180910390fd5b5f60025f9054906101000a900473ffffffffffffffffffffffffffffffffffffffff1673ffffffffffffffffffffffffffffffffffffffff166108fc8590811502906040515f60405180830381858888f193505050509050806119c6576040517f08c379a00000000000000000000000000000000000000000000000000000000081526004016119bd90612f7e565b60405180910390fd5b50505b5b5b5f6004819055505f600a819055505f60095f6101000a81548160ff0219169083151502179055506001600960016101000a81548160ff0219169083151502179055505050611a176124ed565b565b60085481565b5f805f8481526020019081526020015f205f015f8373ffffffffffffffffffffffffffffffffffffffff1673ffffffffffffffffffffffffffffffffffffffff1681526020019081526020015f205f9054906101000a900460ff16905092915050565b600d602052805f5260405f205f915054906101000a900460ff1681565b5f801b81565b60075481565b611af67fa49807205ce4d355092ef5a8a18f56e8913cf4a201fbe287825b095693c2177560035f9054906101000a900473ffffffffffffffffffffffffffffffffffffffff16611a1f565b611b35576040517f08c379a0000000000000000000000000000000000000000000000000000000008152600401611b2c906129e8565b60405180910390fd5b806006819055507fe65e8475ae8eba2b732012a0734794875a0fdbdccfed8398fff4da0c8e0fa00e81604051611b6b919061286c565b60405180910390a150565b60045481565b611bc77fa49807205ce4d355092ef5a8a18f56e8913cf4a201fbe287825b095693c2177560035f9054906101000a900473ffffffffffffffffffffffffffffffffffffffff16611a1f565b611c06576040517f08c379a0000000000000000000000000000000000000000000000000000000008152600401611bfd906129e8565b60405180910390fd5b8060068190555050565b611c198261094d565b611c2281612008565b611c2c838361210c565b50505050565b611c3a6121f5565b60095f9054906101000a900460ff168015611c625750600960019054906101000a900460ff16155b611ca1576040517f08c379a0000000000000000000000000000000000000000000000000000000008152600401611c9890612fe6565b60405180910390fd5b6007543410158015611cb357505f3414155b611cf2576040517f08c379a0000000000000000000000000000000000000000000000000000000008152600401611ce990613074565b60405180910390fd5b611d4234600c5f3373ffffffffffffffffffffffffffffffffffffffff1673ffffffffffffffffffffffffffffffffffffffff1681526020019081526020015f20546124f690919063ffffffff16565b600c5f3373ffffffffffffffffffffffffffffffffffffffff1673ffffffffffffffffffffffffffffffffffffffff1681526020019081526020015f2081905550611d98346004546124f690919063ffffffff16565b600481905550600a5f815480929190611db090612ec7565b9190505550611dbe3361250b565b611e2357600b33908060018154018082558091505060019003905f5260205f20015f9091909190916101000a81548173ffffffffffffffffffffffffffffffffffffffff021916908373ffffffffffffffffffffffffffffffffffffffff1602179055505b3373ffffffffffffffffffffffffffffffffffffffff167f1d5d67670fd52e22078bbab523a5ead8206c7991225dd63095e3d3d6b5be3baf3442604051611e6b929190613092565b60405180910390a2611e7b6124ed565b565b611ec87fa49807205ce4d355092ef5a8a18f56e8913cf4a201fbe287825b095693c2177560035f9054906101000a900473ffffffffffffffffffffffffffffffffffffffff16611a1f565b611f07576040517f08c379a0000000000000000000000000000000000000000000000000000000008152600401611efe906129e8565b60405180910390fd5b6001600d5f8373ffffffffffffffffffffffffffffffffffffffff1673ffffffffffffffffffffffffffffffffffffffff1681526020019081526020015f205f6101000a81548160ff0219169083151502179055507ff93f9a76c1bf3444d22400a00cb9fe990e6abe9dbb333fda48859cfee864543d816001604051611f8e929190612a6e565b60405180910390a150565b60065481565b5f7f01ffc9a7000000000000000000000000000000000000000000000000000000007bffffffffffffffffffffffffffffffffffffffffffffffffffffffff1916827bffffffffffffffffffffffffffffffffffffffffffffffffffffffff1916149050919050565b61201981612014612105565b6125b3565b50565b5f6120278383611a1f565b6120fb5760015f808581526020019081526020015f205f015f8473ffffffffffffffffffffffffffffffffffffffff1673ffffffffffffffffffffffffffffffffffffffff1681526020019081526020015f205f6101000a81548160ff021916908315150217905550612098612105565b73ffffffffffffffffffffffffffffffffffffffff168273ffffffffffffffffffffffffffffffffffffffff16847f2f8788117e7eff1d82e926ec794901d17c78024a50270940304540a733656f0d60405160405180910390a4600190506120ff565b5f90505b92915050565b5f33905090565b5f6121178383611a1f565b156121eb575f805f8581526020019081526020015f205f015f8473ffffffffffffffffffffffffffffffffffffffff1673ffffffffffffffffffffffffffffffffffffffff1681526020019081526020015f205f6101000a81548160ff021916908315150217905550612188612105565b73ffffffffffffffffffffffffffffffffffffffff168273ffffffffffffffffffffffffffffffffffffffff16847ff6391f5c32d9c69d2a47ea670b442974b53935d1edc7fd64eb21e047a839171b60405160405180910390a4600190506121ef565b5f90505b92915050565b60026001540361223a576040517f08c379a000000000000000000000000000000000000000000000000000000000815260040161223190613103565b60405180910390fd5b6002600181905550565b600960019054906101000a900460ff1615612294576040517f08c379a000000000000000000000000000000000000000000000000000000000815260040161228b9061316b565b60405180910390fd5b6001600960016101000a81548160ff0219169083151502179055507f5b2ae23cd3ac75c4244afecde24848a0616ca7390c4c330a40a86d7e896d946260405160405180910390a1565b612373816040516024016122f19190613203565b6040516020818303038152906040527f41304fac000000000000000000000000000000000000000000000000000000007bffffffffffffffffffffffffffffffffffffffffffffffffffffffff19166020820180517bffffffffffffffffffffffffffffffffffffffffffffffffffffffff8381831617835250505050612604565b50565b61240e828260405160240161238c929190613223565b6040516020818303038152906040527fb60e72cc000000000000000000000000000000000000000000000000000000007bffffffffffffffffffffffffffffffffffffffffffffffffffffffff19166020820180517bffffffffffffffffffffffffffffffffffffffffffffffffffffffff8381831617835250505050612604565b5050565b5f818361241f9190613251565b905092915050565b5f818361243491906132bf565b905092915050565b5f818361244991906132ef565b905092915050565b6124e98282604051602401612467929190613322565b6040516020818303038152906040527f319af333000000000000000000000000000000000000000000000000000000007bffffffffffffffffffffffffffffffffffffffffffffffffffffffff19166020820180517bffffffffffffffffffffffffffffffffffffffffffffffffffffffff8381831617835250505050612604565b5050565b60018081905550565b5f81836125039190613350565b905092915050565b5f805f90505b600b805490508110156125a9578273ffffffffffffffffffffffffffffffffffffffff16600b828154811061254957612548612d77565b5b905f5260205f20015f9054906101000a900473ffffffffffffffffffffffffffffffffffffffff1673ffffffffffffffffffffffffffffffffffffffff16036125965760019150506125ae565b80806125a190612ec7565b915050612511565b505f90505b919050565b6125bd8282611a1f565b6126005780826040517fe2517d3f0000000000000000000000000000000000000000000000000000000081526004016125f7929190613383565b60405180910390fd5b5050565b61261b8161261361261e61263d565b63ffffffff16565b50565b5f6a636f6e736f6c652e6c6f6790505f80835160208501845afa505050565b612648819050919050565b6126506133aa565b565b5f82825260208201905092915050565b7f436f6e747261637420646f6573206e6f742061636365707420646972656374205f8201527f7061796d656e7473000000000000000000000000000000000000000000000000602082015250565b5f6126bc602883612652565b91506126c782612662565b604082019050919050565b5f6020820190508181035f8301526126e9816126b0565b9050919050565b5f80fd5b5f7fffffffff0000000000000000000000000000000000000000000000000000000082169050919050565b612728816126f4565b8114612732575f80fd5b50565b5f813590506127438161271f565b92915050565b5f6020828403121561275e5761275d6126f0565b5b5f61276b84828501612735565b91505092915050565b5f8115159050919050565b61278881612774565b82525050565b5f6020820190506127a15f83018461277f565b92915050565b5f819050919050565b6127b9816127a7565b81146127c3575f80fd5b50565b5f813590506127d4816127b0565b92915050565b5f602082840312156127ef576127ee6126f0565b5b5f6127fc848285016127c6565b91505092915050565b5f73ffffffffffffffffffffffffffffffffffffffff82169050919050565b5f61282e82612805565b9050919050565b61283e81612824565b82525050565b5f6020820190506128575f830184612835565b92915050565b612866816127a7565b82525050565b5f60208201905061287f5f83018461285d565b92915050565b5f819050919050565b61289781612885565b81146128a1575f80fd5b50565b5f813590506128b28161288e565b92915050565b5f602082840312156128cd576128cc6126f0565b5b5f6128da848285016128a4565b91505092915050565b6128ec81612885565b82525050565b5f6020820190506129055f8301846128e3565b92915050565b61291481612824565b811461291e575f80fd5b50565b5f8135905061292f8161290b565b92915050565b5f806040838503121561294b5761294a6126f0565b5b5f612958858286016128a4565b925050602061296985828601612921565b9150509250929050565b5f60208284031215612988576129876126f0565b5b5f61299584828501612921565b91505092915050565b7f4e6f74207468652061646d696e000000000000000000000000000000000000005f82015250565b5f6129d2600d83612652565b91506129dd8261299e565b602082019050919050565b5f6020820190508181035f8301526129ff816129c6565b9050919050565b7f526169736520616c7265616479207374617274656400000000000000000000005f82015250565b5f612a3a601583612652565b9150612a4582612a06565b602082019050919050565b5f6020820190508181035f830152612a6781612a2e565b9050919050565b5f604082019050612a815f830185612835565b612a8e602083018461277f565b9392505050565b7f4d757374206861766520646566696e656420526f6c65730000000000000000005f82015250565b5f612ac9601783612652565b9150612ad482612a95565b602082019050919050565b5f6020820190508181035f830152612af681612abd565b9050919050565b7f5261697365206e6f7420656e64656400000000000000000000000000000000005f82015250565b5f612b31600f83612652565b9150612b3c82612afd565b602082019050919050565b5f6020820190508181035f830152612b5e81612b25565b9050919050565b7f526173696564416d6f75742073686f756c64206e6f74206265207a65726f00005f82015250565b5f612b99601e83612652565b9150612ba482612b65565b602082019050919050565b5f6020820190508181035f830152612bc681612b8d565b9050919050565b7f54786e206661696c656420666f72207468652061646d696e207768656e20746f5f8201527f74616c20726173696564203c2068617264636170000000000000000000000000602082015250565b5f612c27603483612652565b9150612c3282612bcd565b604082019050919050565b5f6020820190508181035f830152612c5481612c1b565b9050919050565b7f54786e206661696c656420666f72207468652053757065722041646d696e20775f8201527f68656e20746f74616c20726173696564203c2068617264636170000000000000602082015250565b5f612cb5603a83612652565b9150612cc082612c5b565b604082019050919050565b5f6020820190508181035f830152612ce281612ca9565b9050919050565b7f54786e206661696c656420666f72207468652061646d696e207768656e20746f5f8201527f74616c20726173696564203e2068617264636170000000000000000000000000602082015250565b5f612d43603483612652565b9150612d4e82612ce9565b604082019050919050565b5f6020820190508181035f830152612d7081612d37565b9050919050565b7f4e487b71000000000000000000000000000000000000000000000000000000005f52603260045260245ffd5b7f4e6f7420612076616c69642061646472657373000000000000000000000000005f82015250565b5f612dd8601383612652565b9150612de382612da4565b602082019050919050565b5f6020820190508181035f830152612e0581612dcc565b9050919050565b7f54786e206661696c656420666f722074686520636f6e7472696275746f7253655f8201527f6e64000000000000000000000000000000000000000000000000000000000000602082015250565b5f612e66602283612652565b9150612e7182612e0c565b604082019050919050565b5f6020820190508181035f830152612e9381612e5a565b9050919050565b7f4e487b71000000000000000000000000000000000000000000000000000000005f52601160045260245ffd5b5f612ed1826127a7565b91507fffffffffffffffffffffffffffffffffffffffffffffffffffffffffffffffff8203612f0357612f02612e9a565b5b600182019050919050565b7f54786e206661696c656420666f72207468652061646d696e207768656e20746f5f8201527f74616c20726173696564203d3d20686172646361700000000000000000000000602082015250565b5f612f68603583612652565b9150612f7382612f0e565b604082019050919050565b5f6020820190508181035f830152612f9581612f5c565b9050919050565b7f5261736965206d757374206265206f6e676f696e6700000000000000000000005f82015250565b5f612fd0601583612652565b9150612fdb82612f9c565b602082019050919050565b5f6020820190508181035f830152612ffd81612fc4565b9050919050565b7f436f6e747269627574696f6e2073686f756c64206265206772656174657220745f8201527f68616e206d696e696d756d20436f6e747269627574696f6e0000000000000000602082015250565b5f61305e603883612652565b915061306982613004565b604082019050919050565b5f6020820190508181035f83015261308b81613052565b9050919050565b5f6040820190506130a55f83018561285d565b6130b2602083018461285d565b9392505050565b7f5265656e7472616e637947756172643a207265656e7472616e742063616c6c005f82015250565b5f6130ed601f83612652565b91506130f8826130b9565b602082019050919050565b5f6020820190508181035f83015261311a816130e1565b9050919050565b7f526169736520616c726561647920656e646564000000000000000000000000005f82015250565b5f613155601383612652565b915061316082613121565b602082019050919050565b5f6020820190508181035f83015261318281613149565b9050919050565b5f81519050919050565b5f5b838110156131b0578082015181840152602081019050613195565b5f8484015250505050565b5f601f19601f8301169050919050565b5f6131d582613189565b6131df8185612652565b93506131ef818560208601613193565b6131f8816131bb565b840191505092915050565b5f6020820190508181035f83015261321b81846131cb565b905092915050565b5f6040820190508181035f83015261323b81856131cb565b905061324a602083018461285d565b9392505050565b5f61325b826127a7565b9150613266836127a7565b9250828202613274816127a7565b9150828204841483151761328b5761328a612e9a565b5b5092915050565b7f4e487b71000000000000000000000000000000000000000000000000000000005f52601260045260245ffd5b5f6132c9826127a7565b91506132d4836127a7565b9250826132e4576132e3613292565b5b828204905092915050565b5f6132f9826127a7565b9150613304836127a7565b925082820390508181111561331c5761331b612e9a565b5b92915050565b5f6040820190508181035f83015261333a81856131cb565b90506133496020830184612835565b9392505050565b5f61335a826127a7565b9150613365836127a7565b925082820190508082111561337d5761337c612e9a565b5b92915050565b5f6040820190506133965f830185612835565b6133a360208301846128e3565b9392505050565b7f4e487b71000000000000000000000000000000000000000000000000000000005f52605160045260245ffdfe61646d696e416d6f756e74205768656e20746f74616c20726173696564203c206861726463617061646d696e416d6f756e74205768656e20746f74616c20726173696564203d3d2068617264636170737570657241646d696e416d74205768656e20746f74616c20726173696564203d3d206861726463617020737570657241646d696e416d74205768656e20746f74616c20726173696564203c206861726463617020417265207765207265616c6c7920726566756e64696e6720746f20746865207573657273737570657241646d696e416d74205768656e20746f74616c20726173696564203e20686172646361702061646d696e416d6f756e74205768656e20746f74616c20726173696564203e2068617264636170a2646970667358221220afc2658727a91bc99a4c709577264c6efac135867467c78594717c1eb8e3bf1064736f6c63430008140033a2646970667358221220da5369deecf26d3e69bcde17e52ba937ae2b0f98e836685a1aeb86f5fbc4b3cf64736f6c63430008140033",
			"opcodes": "PUSH1 0x80 PUSH1 0x40 MSTORE PUSH8 0xDE0B6B3A7640000 PUSH1 0x2 SSTORE CALLVALUE DUP1 ISZERO PUSH2 0x1B JUMPI PUSH0 DUP1 REVERT JUMPDEST POP PUSH1 0x40 MLOAD PUSH3 0x4567 CODESIZE SUB DUP1 PUSH3 0x4567 DUP4 CODECOPY DUP2 DUP2 ADD PUSH1 0x40 MSTORE DUP2 ADD SWAP1 PUSH2 0x3F SWAP2 SWAP1 PUSH2 0xE3 JUMP JUMPDEST DUP1 PUSH1 0x1 PUSH0 PUSH2 0x100 EXP DUP2 SLOAD DUP2 PUSH20 0xFFFFFFFFFFFFFFFFFFFFFFFFFFFFFFFFFFFFFFFF MUL NOT AND SWAP1 DUP4 PUSH20 0xFFFFFFFFFFFFFFFFFFFFFFFFFFFFFFFFFFFFFFFF AND MUL OR SWAP1 SSTORE POP POP PUSH2 0x10E JUMP JUMPDEST PUSH0 DUP1 REVERT JUMPDEST PUSH0 PUSH20 0xFFFFFFFFFFFFFFFFFFFFFFFFFFFFFFFFFFFFFFFF DUP3 AND SWAP1 POP SWAP2 SWAP1 POP JUMP JUMPDEST PUSH0 PUSH2 0xB2 DUP3 PUSH2 0x89 JUMP JUMPDEST SWAP1 POP SWAP2 SWAP1 POP JUMP JUMPDEST PUSH2 0xC2 DUP2 PUSH2 0xA8 JUMP JUMPDEST DUP2 EQ PUSH2 0xCC JUMPI PUSH0 DUP1 REVERT JUMPDEST POP JUMP JUMPDEST PUSH0 DUP2 MLOAD SWAP1 POP PUSH2 0xDD DUP2 PUSH2 0xB9 JUMP JUMPDEST SWAP3 SWAP2 POP POP JUMP JUMPDEST PUSH0 PUSH1 0x20 DUP3 DUP5 SUB SLT ISZERO PUSH2 0xF8 JUMPI PUSH2 0xF7 PUSH2 0x85 JUMP JUMPDEST JUMPDEST PUSH0 PUSH2 0x105 DUP5 DUP3 DUP6 ADD PUSH2 0xCF JUMP JUMPDEST SWAP2 POP POP SWAP3 SWAP2 POP POP JUMP JUMPDEST PUSH2 0x444B DUP1 PUSH3 0x11C PUSH0 CODECOPY PUSH0 RETURN INVALID PUSH1 0x80 PUSH1 0x40 MSTORE PUSH1 0x4 CALLDATASIZE LT PUSH3 0x5B JUMPI PUSH0 CALLDATALOAD PUSH1 0xE0 SHR DUP1 PUSH4 0x29575F6A EQ PUSH3 0x5F JUMPI DUP1 PUSH4 0x5B4B6FE5 EQ PUSH3 0x8E JUMPI DUP1 PUSH4 0x7A0625F7 EQ PUSH3 0xBB JUMPI DUP1 PUSH4 0xA8CD3474 EQ PUSH3 0xE8 JUMPI DUP1 PUSH4 0xCD1E3AE7 EQ PUSH3 0x117 JUMPI DUP1 PUSH4 0xD58E42FF EQ PUSH3 0x137 JUMPI JUMPDEST PUSH0 DUP1 REVERT JUMPDEST CALLVALUE DUP1 ISZERO PUSH3 0x6B JUMPI PUSH0 DUP1 REVERT JUMPDEST POP PUSH3 0x76 PUSH3 0x17A JUMP JUMPDEST PUSH1 0x40 MLOAD PUSH3 0x85 SWAP2 SWAP1 PUSH3 0x6FD JUMP JUMPDEST PUSH1 0x40 MLOAD DUP1 SWAP2 SUB SWAP1 RETURN JUMPDEST CALLVALUE DUP1 ISZERO PUSH3 0x9A JUMPI PUSH0 DUP1 REVERT JUMPDEST POP PUSH3 0xB9 PUSH1 0x4 DUP1 CALLDATASIZE SUB DUP2 ADD SWAP1 PUSH3 0xB3 SWAP2 SWAP1 PUSH3 0x754 JUMP JUMPDEST PUSH3 0x19F JUMP JUMPDEST STOP JUMPDEST CALLVALUE DUP1 ISZERO PUSH3 0xC7 JUMPI PUSH0 DUP1 REVERT JUMPDEST POP PUSH3 0xE6 PUSH1 0x4 DUP1 CALLDATASIZE SUB DUP2 ADD SWAP1 PUSH3 0xE0 SWAP2 SWAP1 PUSH3 0x7B3 JUMP JUMPDEST PUSH3 0x274 JUMP JUMPDEST STOP JUMPDEST CALLVALUE DUP1 ISZERO PUSH3 0xF4 JUMPI PUSH0 DUP1 REVERT JUMPDEST POP PUSH3 0xFF PUSH3 0x38C JUMP JUMPDEST PUSH1 0x40 MLOAD PUSH3 0x10E SWAP2 SWAP1 PUSH3 0x7F4 JUMP JUMPDEST PUSH1 0x40 MLOAD DUP1 SWAP2 SUB SWAP1 RETURN JUMPDEST PUSH3 0x135 PUSH1 0x4 DUP1 CALLDATASIZE SUB DUP2 ADD SWAP1 PUSH3 0x12F SWAP2 SWAP1 PUSH3 0x80F JUMP JUMPDEST PUSH3 0x397 JUMP JUMPDEST STOP JUMPDEST CALLVALUE DUP1 ISZERO PUSH3 0x143 JUMPI PUSH0 DUP1 REVERT JUMPDEST POP PUSH3 0x162 PUSH1 0x4 DUP1 CALLDATASIZE SUB DUP2 ADD SWAP1 PUSH3 0x15C SWAP2 SWAP1 PUSH3 0x754 JUMP JUMPDEST PUSH3 0x671 JUMP JUMPDEST PUSH1 0x40 MLOAD PUSH3 0x171 SWAP2 SWAP1 PUSH3 0x8BB JUMP JUMPDEST PUSH1 0x40 MLOAD DUP1 SWAP2 SUB SWAP1 RETURN JUMPDEST PUSH1 0x1 PUSH0 SWAP1 SLOAD SWAP1 PUSH2 0x100 EXP SWAP1 DIV PUSH20 0xFFFFFFFFFFFFFFFFFFFFFFFFFFFFFFFFFFFFFFFF AND DUP2 JUMP JUMPDEST PUSH1 0x1 PUSH0 SWAP1 SLOAD SWAP1 PUSH2 0x100 EXP SWAP1 DIV PUSH20 0xFFFFFFFFFFFFFFFFFFFFFFFFFFFFFFFFFFFFFFFF AND PUSH20 0xFFFFFFFFFFFFFFFFFFFFFFFFFFFFFFFFFFFFFFFF AND CALLER PUSH20 0xFFFFFFFFFFFFFFFFFFFFFFFFFFFFFFFFFFFFFFFF AND EQ PUSH3 0x231 JUMPI PUSH1 0x40 MLOAD PUSH32 0x8C379A000000000000000000000000000000000000000000000000000000000 DUP2 MSTORE PUSH1 0x4 ADD PUSH3 0x228 SWAP1 PUSH3 0x934 JUMP JUMPDEST PUSH1 0x40 MLOAD DUP1 SWAP2 SUB SWAP1 REVERT JUMPDEST DUP1 PUSH1 0x2 DUP2 SWAP1 SSTORE POP PUSH32 0x7D459089B30566139CB7604D0D9B3EB3383DFE48425CFCFEB6EB51C21098A216 DUP2 PUSH1 0x40 MLOAD PUSH3 0x269 SWAP2 SWAP1 PUSH3 0x7F4 JUMP JUMPDEST PUSH1 0x40 MLOAD DUP1 SWAP2 SUB SWAP1 LOG1 POP JUMP JUMPDEST PUSH1 0x1 PUSH0 SWAP1 SLOAD SWAP1 PUSH2 0x100 EXP SWAP1 DIV PUSH20 0xFFFFFFFFFFFFFFFFFFFFFFFFFFFFFFFFFFFFFFFF AND PUSH20 0xFFFFFFFFFFFFFFFFFFFFFFFFFFFFFFFFFFFFFFFF AND CALLER PUSH20 0xFFFFFFFFFFFFFFFFFFFFFFFFFFFFFFFFFFFFFFFF AND EQ PUSH3 0x306 JUMPI PUSH1 0x40 MLOAD PUSH32 0x8C379A000000000000000000000000000000000000000000000000000000000 DUP2 MSTORE PUSH1 0x4 ADD PUSH3 0x2FD SWAP1 PUSH3 0x934 JUMP JUMPDEST PUSH1 0x40 MLOAD DUP1 SWAP2 SUB SWAP1 REVERT JUMPDEST DUP1 PUSH1 0x1 PUSH0 PUSH2 0x100 EXP DUP2 SLOAD DUP2 PUSH20 0xFFFFFFFFFFFFFFFFFFFFFFFFFFFFFFFFFFFFFFFF MUL NOT AND SWAP1 DUP4 PUSH20 0xFFFFFFFFFFFFFFFFFFFFFFFFFFFFFFFFFFFFFFFF AND MUL OR SWAP1 SSTORE POP DUP1 PUSH20 0xFFFFFFFFFFFFFFFFFFFFFFFFFFFFFFFFFFFFFFFF AND PUSH32 0x37F604E729CDE8E324B3CE659FE08F8C5560D9EFFCEFB9727D8F4FB75C34BD0 PUSH1 0x40 MLOAD PUSH1 0x40 MLOAD DUP1 SWAP2 SUB SWAP1 LOG2 POP JUMP JUMPDEST PUSH0 DUP1 DUP1 SLOAD SWAP1 POP SWAP1 POP SWAP1 JUMP JUMPDEST PUSH1 0x1 PUSH0 SWAP1 SLOAD SWAP1 PUSH2 0x100 EXP SWAP1 DIV PUSH20 0xFFFFFFFFFFFFFFFFFFFFFFFFFFFFFFFFFFFFFFFF AND PUSH20 0xFFFFFFFFFFFFFFFFFFFFFFFFFFFFFFFFFFFFFFFF AND CALLER PUSH20 0xFFFFFFFFFFFFFFFFFFFFFFFFFFFFFFFFFFFFFFFF AND SUB PUSH3 0x429 JUMPI PUSH1 0x40 MLOAD PUSH32 0x8C379A000000000000000000000000000000000000000000000000000000000 DUP2 MSTORE PUSH1 0x4 ADD PUSH3 0x420 SWAP1 PUSH3 0x9A2 JUMP JUMPDEST PUSH1 0x40 MLOAD DUP1 SWAP2 SUB SWAP1 REVERT JUMPDEST PUSH0 CALLER DUP4 PUSH1 0x1 PUSH0 SWAP1 SLOAD SWAP1 PUSH2 0x100 EXP SWAP1 DIV PUSH20 0xFFFFFFFFFFFFFFFFFFFFFFFFFFFFFFFFFFFFFFFF AND DUP5 PUSH1 0x40 MLOAD PUSH3 0x45D SWAP1 PUSH3 0x6AC JUMP JUMPDEST PUSH3 0x46C SWAP5 SWAP4 SWAP3 SWAP2 SWAP1 PUSH3 0x9C2 JUMP JUMPDEST PUSH1 0x40 MLOAD DUP1 SWAP2 SUB SWAP1 PUSH0 CREATE DUP1 ISZERO DUP1 ISZERO PUSH3 0x486 JUMPI RETURNDATASIZE PUSH0 DUP1 RETURNDATACOPY RETURNDATASIZE PUSH0 REVERT JUMPDEST POP SWAP1 POP PUSH0 DUP2 SWAP1 DUP1 PUSH1 0x1 DUP2 SLOAD ADD DUP1 DUP3 SSTORE DUP1 SWAP2 POP POP PUSH1 0x1 SWAP1 SUB SWAP1 PUSH0 MSTORE PUSH1 0x20 PUSH0 KECCAK256 ADD PUSH0 SWAP1 SWAP2 SWAP1 SWAP2 SWAP1 SWAP2 PUSH2 0x100 EXP DUP2 SLOAD DUP2 PUSH20 0xFFFFFFFFFFFFFFFFFFFFFFFFFFFFFFFFFFFFFFFF MUL NOT AND SWAP1 DUP4 PUSH20 0xFFFFFFFFFFFFFFFFFFFFFFFFFFFFFFFFFFFFFFFF AND MUL OR SWAP1 SSTORE POP PUSH1 0x1 PUSH0 SWAP1 SLOAD SWAP1 PUSH2 0x100 EXP SWAP1 DIV PUSH20 0xFFFFFFFFFFFFFFFFFFFFFFFFFFFFFFFFFFFFFFFF AND PUSH20 0xFFFFFFFFFFFFFFFFFFFFFFFFFFFFFFFFFFFFFFFF AND CALLER PUSH20 0xFFFFFFFFFFFFFFFFFFFFFFFFFFFFFFFFFFFFFFFF AND DUP3 PUSH20 0xFFFFFFFFFFFFFFFFFFFFFFFFFFFFFFFFFFFFFFFF AND PUSH32 0xBC68D65C9D3B42A45D575B86E76983264BFA19D95009E67E5B2EB08EB3EF24BC TIMESTAMP PUSH1 0x40 MLOAD PUSH3 0x57F SWAP2 SWAP1 PUSH3 0x7F4 JUMP JUMPDEST PUSH1 0x40 MLOAD DUP1 SWAP2 SUB SWAP1 LOG4 PUSH1 0x2 SLOAD CALLVALUE EQ PUSH3 0x5CE JUMPI PUSH1 0x40 MLOAD PUSH32 0x8C379A000000000000000000000000000000000000000000000000000000000 DUP2 MSTORE PUSH1 0x4 ADD PUSH3 0x5C5 SWAP1 PUSH3 0xA5B JUMP JUMPDEST PUSH1 0x40 MLOAD DUP1 SWAP2 SUB SWAP1 REVERT JUMPDEST PUSH0 PUSH1 0x1 PUSH0 SWAP1 SLOAD SWAP1 PUSH2 0x100 EXP SWAP1 DIV PUSH20 0xFFFFFFFFFFFFFFFFFFFFFFFFFFFFFFFFFFFFFFFF AND PUSH20 0xFFFFFFFFFFFFFFFFFFFFFFFFFFFFFFFFFFFFFFFF AND PUSH2 0x8FC PUSH1 0x2 SLOAD SWAP1 DUP2 ISZERO MUL SWAP1 PUSH1 0x40 MLOAD PUSH0 PUSH1 0x40 MLOAD DUP1 DUP4 SUB DUP2 DUP6 DUP9 DUP9 CALL SWAP4 POP POP POP POP SWAP1 POP DUP1 PUSH3 0x66B JUMPI PUSH1 0x40 MLOAD PUSH32 0x8C379A000000000000000000000000000000000000000000000000000000000 DUP2 MSTORE PUSH1 0x4 ADD PUSH3 0x662 SWAP1 PUSH3 0xAEF JUMP JUMPDEST PUSH1 0x40 MLOAD DUP1 SWAP2 SUB SWAP1 REVERT JUMPDEST POP POP POP POP JUMP JUMPDEST PUSH0 DUP2 DUP2 SLOAD DUP2 LT PUSH3 0x680 JUMPI PUSH0 DUP1 REVERT JUMPDEST SWAP1 PUSH0 MSTORE PUSH1 0x20 PUSH0 KECCAK256 ADD PUSH0 SWAP2 POP SLOAD SWAP1 PUSH2 0x100 EXP SWAP1 DIV PUSH20 0xFFFFFFFFFFFFFFFFFFFFFFFFFFFFFFFFFFFFFFFF AND DUP2 JUMP JUMPDEST PUSH2 0x3906 DUP1 PUSH3 0xB10 DUP4 CODECOPY ADD SWAP1 JUMP JUMPDEST PUSH0 PUSH20 0xFFFFFFFFFFFFFFFFFFFFFFFFFFFFFFFFFFFFFFFF DUP3 AND SWAP1 POP SWAP2 SWAP1 POP JUMP JUMPDEST PUSH0 PUSH3 0x6E5 DUP3 PUSH3 0x6BA JUMP JUMPDEST SWAP1 POP SWAP2 SWAP1 POP JUMP JUMPDEST PUSH3 0x6F7 DUP2 PUSH3 0x6D9 JUMP JUMPDEST DUP3 MSTORE POP POP JUMP JUMPDEST PUSH0 PUSH1 0x20 DUP3 ADD SWAP1 POP PUSH3 0x712 PUSH0 DUP4 ADD DUP5 PUSH3 0x6EC JUMP JUMPDEST SWAP3 SWAP2 POP POP JUMP JUMPDEST PUSH0 DUP1 REVERT JUMPDEST PUSH0 DUP2 SWAP1 POP SWAP2 SWAP1 POP JUMP JUMPDEST PUSH3 0x730 DUP2 PUSH3 0x71C JUMP JUMPDEST DUP2 EQ PUSH3 0x73B JUMPI PUSH0 DUP1 REVERT JUMPDEST POP JUMP JUMPDEST PUSH0 DUP2 CALLDATALOAD SWAP1 POP PUSH3 0x74E DUP2 PUSH3 0x725 JUMP JUMPDEST SWAP3 SWAP2 POP POP JUMP JUMPDEST PUSH0 PUSH1 0x20 DUP3 DUP5 SUB SLT ISZERO PUSH3 0x76C JUMPI PUSH3 0x76B PUSH3 0x718 JUMP JUMPDEST JUMPDEST PUSH0 PUSH3 0x77B DUP5 DUP3 DUP6 ADD PUSH3 0x73E JUMP JUMPDEST SWAP2 POP POP SWAP3 SWAP2 POP POP JUMP JUMPDEST PUSH3 0x78F DUP2 PUSH3 0x6D9 JUMP JUMPDEST DUP2 EQ PUSH3 0x79A JUMPI PUSH0 DUP1 REVERT JUMPDEST POP JUMP JUMPDEST PUSH0 DUP2 CALLDATALOAD SWAP1 POP PUSH3 0x7AD DUP2 PUSH3 0x784 JUMP JUMPDEST SWAP3 SWAP2 POP POP JUMP JUMPDEST PUSH0 PUSH1 0x20 DUP3 DUP5 SUB SLT ISZERO PUSH3 0x7CB JUMPI PUSH3 0x7CA PUSH3 0x718 JUMP JUMPDEST JUMPDEST PUSH0 PUSH3 0x7DA DUP5 DUP3 DUP6 ADD PUSH3 0x79D JUMP JUMPDEST SWAP2 POP POP SWAP3 SWAP2 POP POP JUMP JUMPDEST PUSH3 0x7EE DUP2 PUSH3 0x71C JUMP JUMPDEST DUP3 MSTORE POP POP JUMP JUMPDEST PUSH0 PUSH1 0x20 DUP3 ADD SWAP1 POP PUSH3 0x809 PUSH0 DUP4 ADD DUP5 PUSH3 0x7E3 JUMP JUMPDEST SWAP3 SWAP2 POP POP JUMP JUMPDEST PUSH0 DUP1 PUSH1 0x40 DUP4 DUP6 SUB SLT ISZERO PUSH3 0x828 JUMPI PUSH3 0x827 PUSH3 0x718 JUMP JUMPDEST JUMPDEST PUSH0 PUSH3 0x837 DUP6 DUP3 DUP7 ADD PUSH3 0x73E JUMP JUMPDEST SWAP3 POP POP PUSH1 0x20 PUSH3 0x84A DUP6 DUP3 DUP7 ADD PUSH3 0x73E JUMP JUMPDEST SWAP2 POP POP SWAP3 POP SWAP3 SWAP1 POP JUMP JUMPDEST PUSH0 DUP2 SWAP1 POP SWAP2 SWAP1 POP JUMP JUMPDEST PUSH0 PUSH3 0x87D PUSH3 0x877 PUSH3 0x871 DUP5 PUSH3 0x6BA JUMP JUMPDEST PUSH3 0x854 JUMP JUMPDEST PUSH3 0x6BA JUMP JUMPDEST SWAP1 POP SWAP2 SWAP1 POP JUMP JUMPDEST PUSH0 PUSH3 0x890 DUP3 PUSH3 0x85D JUMP JUMPDEST SWAP1 POP SWAP2 SWAP1 POP JUMP JUMPDEST PUSH0 PUSH3 0x8A3 DUP3 PUSH3 0x884 JUMP JUMPDEST SWAP1 POP SWAP2 SWAP1 POP JUMP JUMPDEST PUSH3 0x8B5 DUP2 PUSH3 0x897 JUMP JUMPDEST DUP3 MSTORE POP POP JUMP JUMPDEST PUSH0 PUSH1 0x20 DUP3 ADD SWAP1 POP PUSH3 0x8D0 PUSH0 DUP4 ADD DUP5 PUSH3 0x8AA JUMP JUMPDEST SWAP3 SWAP2 POP POP JUMP JUMPDEST PUSH0 DUP3 DUP3 MSTORE PUSH1 0x20 DUP3 ADD SWAP1 POP SWAP3 SWAP2 POP POP JUMP JUMPDEST PUSH32 0x4D757374206265206120737570657241646D696E000000000000000000000000 PUSH0 DUP3 ADD MSTORE POP JUMP JUMPDEST PUSH0 PUSH3 0x91C PUSH1 0x14 DUP4 PUSH3 0x8D6 JUMP JUMPDEST SWAP2 POP PUSH3 0x929 DUP3 PUSH3 0x8E6 JUMP JUMPDEST PUSH1 0x20 DUP3 ADD SWAP1 POP SWAP2 SWAP1 POP JUMP JUMPDEST PUSH0 PUSH1 0x20 DUP3 ADD SWAP1 POP DUP2 DUP2 SUB PUSH0 DUP4 ADD MSTORE PUSH3 0x94D DUP2 PUSH3 0x90E JUMP JUMPDEST SWAP1 POP SWAP2 SWAP1 POP JUMP JUMPDEST PUSH32 0x43616E6E6F7420626520612053757065722041646D696E000000000000000000 PUSH0 DUP3 ADD MSTORE POP JUMP JUMPDEST PUSH0 PUSH3 0x98A PUSH1 0x17 DUP4 PUSH3 0x8D6 JUMP JUMPDEST SWAP2 POP PUSH3 0x997 DUP3 PUSH3 0x954 JUMP JUMPDEST PUSH1 0x20 DUP3 ADD SWAP1 POP SWAP2 SWAP1 POP JUMP JUMPDEST PUSH0 PUSH1 0x20 DUP3 ADD SWAP1 POP DUP2 DUP2 SUB PUSH0 DUP4 ADD MSTORE PUSH3 0x9BB DUP2 PUSH3 0x97C JUMP JUMPDEST SWAP1 POP SWAP2 SWAP1 POP JUMP JUMPDEST PUSH0 PUSH1 0x80 DUP3 ADD SWAP1 POP PUSH3 0x9D7 PUSH0 DUP4 ADD DUP8 PUSH3 0x6EC JUMP JUMPDEST PUSH3 0x9E6 PUSH1 0x20 DUP4 ADD DUP7 PUSH3 0x7E3 JUMP JUMPDEST PUSH3 0x9F5 PUSH1 0x40 DUP4 ADD DUP6 PUSH3 0x6EC JUMP JUMPDEST PUSH3 0xA04 PUSH1 0x60 DUP4 ADD DUP5 PUSH3 0x7E3 JUMP JUMPDEST SWAP6 SWAP5 POP POP POP POP POP JUMP JUMPDEST PUSH32 0x496E73756666696369656E742066656500000000000000000000000000000000 PUSH0 DUP3 ADD MSTORE POP JUMP JUMPDEST PUSH0 PUSH3 0xA43 PUSH1 0x10 DUP4 PUSH3 0x8D6 JUMP JUMPDEST SWAP2 POP PUSH3 0xA50 DUP3 PUSH3 0xA0D JUMP JUMPDEST PUSH1 0x20 DUP3 ADD SWAP1 POP SWAP2 SWAP1 POP JUMP JUMPDEST PUSH0 PUSH1 0x20 DUP3 ADD SWAP1 POP DUP2 DUP2 SUB PUSH0 DUP4 ADD MSTORE PUSH3 0xA74 DUP2 PUSH3 0xA35 JUMP JUMPDEST SWAP1 POP SWAP2 SWAP1 POP JUMP JUMPDEST PUSH32 0x54786E206661696C656420666F72207468652053757065722041646D696E206F PUSH0 DUP3 ADD MSTORE PUSH32 0x6E20636F6E7472616374206372656174696F6E00000000000000000000000000 PUSH1 0x20 DUP3 ADD MSTORE POP JUMP JUMPDEST PUSH0 PUSH3 0xAD7 PUSH1 0x33 DUP4 PUSH3 0x8D6 JUMP JUMPDEST SWAP2 POP PUSH3 0xAE4 DUP3 PUSH3 0xA7B JUMP JUMPDEST PUSH1 0x40 DUP3 ADD SWAP1 POP SWAP2 SWAP1 POP JUMP JUMPDEST PUSH0 PUSH1 0x20 DUP3 ADD SWAP1 POP DUP2 DUP2 SUB PUSH0 DUP4 ADD MSTORE PUSH3 0xB08 DUP2 PUSH3 0xAC9 JUMP JUMPDEST SWAP1 POP SWAP2 SWAP1 POP JUMP INVALID PUSH1 0x80 PUSH1 0x40 MSTORE PUSH1 0xA PUSH1 0x5 SSTORE CALLVALUE DUP1 ISZERO PUSH3 0x15 JUMPI PUSH0 DUP1 REVERT JUMPDEST POP PUSH1 0x40 MLOAD PUSH3 0x3906 CODESIZE SUB DUP1 PUSH3 0x3906 DUP4 CODECOPY DUP2 DUP2 ADD PUSH1 0x40 MSTORE DUP2 ADD SWAP1 PUSH3 0x3B SWAP2 SWAP1 PUSH3 0x363 JUMP JUMPDEST PUSH1 0x1 DUP1 DUP2 SWAP1 SSTORE POP DUP2 PUSH1 0x2 PUSH0 PUSH2 0x100 EXP DUP2 SLOAD DUP2 PUSH20 0xFFFFFFFFFFFFFFFFFFFFFFFFFFFFFFFFFFFFFFFF MUL NOT AND SWAP1 DUP4 PUSH20 0xFFFFFFFFFFFFFFFFFFFFFFFFFFFFFFFFFFFFFFFF AND MUL OR SWAP1 SSTORE POP DUP4 PUSH1 0x3 PUSH0 PUSH2 0x100 EXP DUP2 SLOAD DUP2 PUSH20 0xFFFFFFFFFFFFFFFFFFFFFFFFFFFFFFFFFFFFFFFF MUL NOT AND SWAP1 DUP4 PUSH20 0xFFFFFFFFFFFFFFFFFFFFFFFFFFFFFFFFFFFFFFFF AND MUL OR SWAP1 SSTORE POP DUP3 PUSH1 0x6 DUP2 SWAP1 SSTORE POP DUP1 PUSH1 0x7 DUP2 SWAP1 SSTORE POP PUSH3 0x123 PUSH32 0xA49807205CE4D355092EF5A8A18F56E8913CF4A201FBE287825B095693C21775 PUSH1 0x3 PUSH0 SWAP1 SLOAD SWAP1 PUSH2 0x100 EXP SWAP1 DIV PUSH20 0xFFFFFFFFFFFFFFFFFFFFFFFFFFFFFFFFFFFFFFFF AND PUSH3 0x161 PUSH1 0x20 SHL PUSH1 0x20 SHR JUMP JUMPDEST POP PUSH3 0x156 PUSH32 0xD980155B32CF66E6AF51E0972D64B9D5EFE0E6F237DFAA4BDC83F990DD79E9C8 DUP4 PUSH3 0x161 PUSH1 0x20 SHL PUSH1 0x20 SHR JUMP JUMPDEST POP POP POP POP POP PUSH3 0x3D2 JUMP JUMPDEST PUSH0 PUSH3 0x174 DUP4 DUP4 PUSH3 0x25C PUSH1 0x20 SHL PUSH1 0x20 SHR JUMP JUMPDEST PUSH3 0x252 JUMPI PUSH1 0x1 PUSH0 DUP1 DUP6 DUP2 MSTORE PUSH1 0x20 ADD SWAP1 DUP2 MSTORE PUSH1 0x20 ADD PUSH0 KECCAK256 PUSH0 ADD PUSH0 DUP5 PUSH20 0xFFFFFFFFFFFFFFFFFFFFFFFFFFFFFFFFFFFFFFFF AND PUSH20 0xFFFFFFFFFFFFFFFFFFFFFFFFFFFFFFFFFFFFFFFF AND DUP2 MSTORE PUSH1 0x20 ADD SWAP1 DUP2 MSTORE PUSH1 0x20 ADD PUSH0 KECCAK256 PUSH0 PUSH2 0x100 EXP DUP2 SLOAD DUP2 PUSH1 0xFF MUL NOT AND SWAP1 DUP4 ISZERO ISZERO MUL OR SWAP1 SSTORE POP PUSH3 0x1EE PUSH3 0x2BF PUSH1 0x20 SHL PUSH1 0x20 SHR JUMP JUMPDEST PUSH20 0xFFFFFFFFFFFFFFFFFFFFFFFFFFFFFFFFFFFFFFFF AND DUP3 PUSH20 0xFFFFFFFFFFFFFFFFFFFFFFFFFFFFFFFFFFFFFFFF AND DUP5 PUSH32 0x2F8788117E7EFF1D82E926EC794901D17C78024A50270940304540A733656F0D PUSH1 0x40 MLOAD PUSH1 0x40 MLOAD DUP1 SWAP2 SUB SWAP1 LOG4 PUSH1 0x1 SWAP1 POP PUSH3 0x256 JUMP JUMPDEST PUSH0 SWAP1 POP JUMPDEST SWAP3 SWAP2 POP POP JUMP JUMPDEST PUSH0 DUP1 PUSH0 DUP5 DUP2 MSTORE PUSH1 0x20 ADD SWAP1 DUP2 MSTORE PUSH1 0x20 ADD PUSH0 KECCAK256 PUSH0 ADD PUSH0 DUP4 PUSH20 0xFFFFFFFFFFFFFFFFFFFFFFFFFFFFFFFFFFFFFFFF AND PUSH20 0xFFFFFFFFFFFFFFFFFFFFFFFFFFFFFFFFFFFFFFFF AND DUP2 MSTORE PUSH1 0x20 ADD SWAP1 DUP2 MSTORE PUSH1 0x20 ADD PUSH0 KECCAK256 PUSH0 SWAP1 SLOAD SWAP1 PUSH2 0x100 EXP SWAP1 DIV PUSH1 0xFF AND SWAP1 POP SWAP3 SWAP2 POP POP JUMP JUMPDEST PUSH0 CALLER SWAP1 POP SWAP1 JUMP JUMPDEST PUSH0 DUP1 REVERT JUMPDEST PUSH0 PUSH20 0xFFFFFFFFFFFFFFFFFFFFFFFFFFFFFFFFFFFFFFFF DUP3 AND SWAP1 POP SWAP2 SWAP1 POP JUMP JUMPDEST PUSH0 PUSH3 0x2F5 DUP3 PUSH3 0x2CA JUMP JUMPDEST SWAP1 POP SWAP2 SWAP1 POP JUMP JUMPDEST PUSH3 0x307 DUP2 PUSH3 0x2E9 JUMP JUMPDEST DUP2 EQ PUSH3 0x312 JUMPI PUSH0 DUP1 REVERT JUMPDEST POP JUMP JUMPDEST PUSH0 DUP2 MLOAD SWAP1 POP PUSH3 0x325 DUP2 PUSH3 0x2FC JUMP JUMPDEST SWAP3 SWAP2 POP POP JUMP JUMPDEST PUSH0 DUP2 SWAP1 POP SWAP2 SWAP1 POP JUMP JUMPDEST PUSH3 0x33F DUP2 PUSH3 0x32B JUMP JUMPDEST DUP2 EQ PUSH3 0x34A JUMPI PUSH0 DUP1 REVERT JUMPDEST POP JUMP JUMPDEST PUSH0 DUP2 MLOAD SWAP1 POP PUSH3 0x35D DUP2 PUSH3 0x334 JUMP JUMPDEST SWAP3 SWAP2 POP POP JUMP JUMPDEST PUSH0 DUP1 PUSH0 DUP1 PUSH1 0x80 DUP6 DUP8 SUB SLT ISZERO PUSH3 0x37E JUMPI PUSH3 0x37D PUSH3 0x2C6 JUMP JUMPDEST JUMPDEST PUSH0 PUSH3 0x38D DUP8 DUP3 DUP9 ADD PUSH3 0x315 JUMP JUMPDEST SWAP5 POP POP PUSH1 0x20 PUSH3 0x3A0 DUP8 DUP3 DUP9 ADD PUSH3 0x34D JUMP JUMPDEST SWAP4 POP POP PUSH1 0x40 PUSH3 0x3B3 DUP8 DUP3 DUP9 ADD PUSH3 0x315 JUMP JUMPDEST SWAP3 POP POP PUSH1 0x60 PUSH3 0x3C6 DUP8 DUP3 DUP9 ADD PUSH3 0x34D JUMP JUMPDEST SWAP2 POP POP SWAP3 SWAP6 SWAP2 SWAP5 POP SWAP3 POP JUMP JUMPDEST PUSH2 0x3526 DUP1 PUSH3 0x3E0 PUSH0 CODECOPY PUSH0 RETURN INVALID PUSH1 0x80 PUSH1 0x40 MSTORE PUSH1 0x4 CALLDATASIZE LT PUSH2 0x1F1 JUMPI PUSH0 CALLDATALOAD PUSH1 0xE0 SHR DUP1 PUSH4 0x7C7C7C3C GT PUSH2 0x10C JUMPI DUP1 PUSH4 0xA217FDDF GT PUSH2 0x9F JUMPI DUP1 PUSH4 0xD18D944B GT PUSH2 0x6E JUMPI DUP1 PUSH4 0xD18D944B EQ PUSH2 0x6F7 JUMPI DUP1 PUSH4 0xD547741F EQ PUSH2 0x71F JUMPI DUP1 PUSH4 0xD7BB99BA EQ PUSH2 0x747 JUMPI DUP1 PUSH4 0xE43252D7 EQ PUSH2 0x751 JUMPI DUP1 PUSH4 0xFB86A404 EQ PUSH2 0x779 JUMPI PUSH2 0x231 JUMP JUMPDEST DUP1 PUSH4 0xA217FDDF EQ PUSH2 0x651 JUMPI DUP1 PUSH4 0xAAFFADF3 EQ PUSH2 0x67B JUMPI DUP1 PUSH4 0xB8E0D08D EQ PUSH2 0x6A5 JUMPI DUP1 PUSH4 0xC5C4744C EQ PUSH2 0x6CD JUMPI PUSH2 0x231 JUMP JUMPDEST DUP1 PUSH4 0x8D070E75 GT PUSH2 0xDB JUMPI DUP1 PUSH4 0x8D070E75 EQ PUSH2 0x5A5 JUMPI DUP1 PUSH4 0x8D3D6576 EQ PUSH2 0x5AF JUMPI DUP1 PUSH4 0x91D14854 EQ PUSH2 0x5D9 JUMPI DUP1 PUSH4 0x9B19251A EQ PUSH2 0x615 JUMPI PUSH2 0x231 JUMP JUMPDEST DUP1 PUSH4 0x7C7C7C3C EQ PUSH2 0x501 JUMPI DUP1 PUSH4 0x7CE3489B EQ PUSH2 0x52B JUMPI DUP1 PUSH4 0x7FD6F15C EQ PUSH2 0x553 JUMPI DUP1 PUSH4 0x8AB1D681 EQ PUSH2 0x57D JUMPI PUSH2 0x231 JUMP JUMPDEST DUP1 PUSH4 0x36568ABE GT PUSH2 0x184 JUMPI DUP1 PUSH4 0x6D66D2CE GT PUSH2 0x153 JUMPI DUP1 PUSH4 0x6D66D2CE EQ PUSH2 0x46D JUMPI DUP1 PUSH4 0x6F9FB98A EQ PUSH2 0x483 JUMPI DUP1 PUSH4 0x708DEE5E EQ PUSH2 0x4AD JUMPI DUP1 PUSH4 0x75B238FC EQ PUSH2 0x4D7 JUMPI PUSH2 0x231 JUMP JUMPDEST DUP1 PUSH4 0x36568ABE EQ PUSH2 0x3B7 JUMPI DUP1 PUSH4 0x3E0498D2 EQ PUSH2 0x3DF JUMPI DUP1 PUSH4 0x42E94C90 EQ PUSH2 0x409 JUMPI DUP1 PUSH4 0x473B0D46 EQ PUSH2 0x445 JUMPI PUSH2 0x231 JUMP JUMPDEST DUP1 PUSH4 0x1E2F73B1 GT PUSH2 0x1C0 JUMPI DUP1 PUSH4 0x1E2F73B1 EQ PUSH2 0x2FF JUMPI DUP1 PUSH4 0x248A9CA3 EQ PUSH2 0x329 JUMPI DUP1 PUSH4 0x29575F6A EQ PUSH2 0x365 JUMPI DUP1 PUSH4 0x2F2FF15D EQ PUSH2 0x38F JUMPI PUSH2 0x231 JUMP JUMPDEST DUP1 PUSH4 0x1FFC9A7 EQ PUSH2 0x235 JUMPI DUP1 PUSH4 0x3ED9D21 EQ PUSH2 0x271 JUMPI DUP1 PUSH4 0xB9F2C4A EQ PUSH2 0x299 JUMPI DUP1 PUSH4 0x1E206F15 EQ PUSH2 0x2D5 JUMPI PUSH2 0x231 JUMP JUMPDEST CALLDATASIZE PUSH2 0x231 JUMPI PUSH1 0x40 MLOAD PUSH32 0x8C379A000000000000000000000000000000000000000000000000000000000 DUP2 MSTORE PUSH1 0x4 ADD PUSH2 0x228 SWAP1 PUSH2 0x26D2 JUMP JUMPDEST PUSH1 0x40 MLOAD DUP1 SWAP2 SUB SWAP1 REVERT JUMPDEST PUSH0 DUP1 REVERT JUMPDEST CALLVALUE DUP1 ISZERO PUSH2 0x240 JUMPI PUSH0 DUP1 REVERT JUMPDEST POP PUSH2 0x25B PUSH1 0x4 DUP1 CALLDATASIZE SUB DUP2 ADD SWAP1 PUSH2 0x256 SWAP2 SWAP1 PUSH2 0x2749 JUMP JUMPDEST PUSH2 0x7A3 JUMP JUMPDEST PUSH1 0x40 MLOAD PUSH2 0x268 SWAP2 SWAP1 PUSH2 0x278E JUMP JUMPDEST PUSH1 0x40 MLOAD DUP1 SWAP2 SUB SWAP1 RETURN JUMPDEST CALLVALUE DUP1 ISZERO PUSH2 0x27C JUMPI PUSH0 DUP1 REVERT JUMPDEST POP PUSH2 0x297 PUSH1 0x4 DUP1 CALLDATASIZE SUB DUP2 ADD SWAP1 PUSH2 0x292 SWAP2 SWAP1 PUSH2 0x27DA JUMP JUMPDEST PUSH2 0x81C JUMP JUMPDEST STOP JUMPDEST CALLVALUE DUP1 ISZERO PUSH2 0x2A4 JUMPI PUSH0 DUP1 REVERT JUMPDEST POP PUSH2 0x2BF PUSH1 0x4 DUP1 CALLDATASIZE SUB DUP2 ADD SWAP1 PUSH2 0x2BA SWAP2 SWAP1 PUSH2 0x27DA JUMP JUMPDEST PUSH2 0x8E7 JUMP JUMPDEST PUSH1 0x40 MLOAD PUSH2 0x2CC SWAP2 SWAP1 PUSH2 0x2844 JUMP JUMPDEST PUSH1 0x40 MLOAD DUP1 SWAP2 SUB SWAP1 RETURN JUMPDEST CALLVALUE DUP1 ISZERO PUSH2 0x2E0 JUMPI PUSH0 DUP1 REVERT JUMPDEST POP PUSH2 0x2E9 PUSH2 0x922 JUMP JUMPDEST PUSH1 0x40 MLOAD PUSH2 0x2F6 SWAP2 SWAP1 PUSH2 0x286C JUMP JUMPDEST PUSH1 0x40 MLOAD DUP1 SWAP2 SUB SWAP1 RETURN JUMPDEST CALLVALUE DUP1 ISZERO PUSH2 0x30A JUMPI PUSH0 DUP1 REVERT JUMPDEST POP PUSH2 0x313 PUSH2 0x928 JUMP JUMPDEST PUSH1 0x40 MLOAD PUSH2 0x320 SWAP2 SWAP1 PUSH2 0x2844 JUMP JUMPDEST PUSH1 0x40 MLOAD DUP1 SWAP2 SUB SWAP1 RETURN JUMPDEST CALLVALUE DUP1 ISZERO PUSH2 0x334 JUMPI PUSH0 DUP1 REVERT JUMPDEST POP PUSH2 0x34F PUSH1 0x4 DUP1 CALLDATASIZE SUB DUP2 ADD SWAP1 PUSH2 0x34A SWAP2 SWAP1 PUSH2 0x28B8 JUMP JUMPDEST PUSH2 0x94D JUMP JUMPDEST PUSH1 0x40 MLOAD PUSH2 0x35C SWAP2 SWAP1 PUSH2 0x28F2 JUMP JUMPDEST PUSH1 0x40 MLOAD DUP1 SWAP2 SUB SWAP1 RETURN JUMPDEST CALLVALUE DUP1 ISZERO PUSH2 0x370 JUMPI PUSH0 DUP1 REVERT JUMPDEST POP PUSH2 0x379 PUSH2 0x969 JUMP JUMPDEST PUSH1 0x40 MLOAD PUSH2 0x386 SWAP2 SWAP1 PUSH2 0x2844 JUMP JUMPDEST PUSH1 0x40 MLOAD DUP1 SWAP2 SUB SWAP1 RETURN JUMPDEST CALLVALUE DUP1 ISZERO PUSH2 0x39A JUMPI PUSH0 DUP1 REVERT JUMPDEST POP PUSH2 0x3B5 PUSH1 0x4 DUP1 CALLDATASIZE SUB DUP2 ADD SWAP1 PUSH2 0x3B0 SWAP2 SWAP1 PUSH2 0x2935 JUMP JUMPDEST PUSH2 0x98E JUMP JUMPDEST STOP JUMPDEST CALLVALUE DUP1 ISZERO PUSH2 0x3C2 JUMPI PUSH0 DUP1 REVERT JUMPDEST POP PUSH2 0x3DD PUSH1 0x4 DUP1 CALLDATASIZE SUB DUP2 ADD SWAP1 PUSH2 0x3D8 SWAP2 SWAP1 PUSH2 0x2935 JUMP JUMPDEST PUSH2 0x9B0 JUMP JUMPDEST STOP JUMPDEST CALLVALUE DUP1 ISZERO PUSH2 0x3EA JUMPI PUSH0 DUP1 REVERT JUMPDEST POP PUSH2 0x3F3 PUSH2 0xA2B JUMP JUMPDEST PUSH1 0x40 MLOAD PUSH2 0x400 SWAP2 SWAP1 PUSH2 0x278E JUMP JUMPDEST PUSH1 0x40 MLOAD DUP1 SWAP2 SUB SWAP1 RETURN JUMPDEST CALLVALUE DUP1 ISZERO PUSH2 0x414 JUMPI PUSH0 DUP1 REVERT JUMPDEST POP PUSH2 0x42F PUSH1 0x4 DUP1 CALLDATASIZE SUB DUP2 ADD SWAP1 PUSH2 0x42A SWAP2 SWAP1 PUSH2 0x2973 JUMP JUMPDEST PUSH2 0xA3E JUMP JUMPDEST PUSH1 0x40 MLOAD PUSH2 0x43C SWAP2 SWAP1 PUSH2 0x286C JUMP JUMPDEST PUSH1 0x40 MLOAD DUP1 SWAP2 SUB SWAP1 RETURN JUMPDEST CALLVALUE DUP1 ISZERO PUSH2 0x450 JUMPI PUSH0 DUP1 REVERT JUMPDEST POP PUSH2 0x46B PUSH1 0x4 DUP1 CALLDATASIZE SUB DUP2 ADD SWAP1 PUSH2 0x466 SWAP2 SWAP1 PUSH2 0x27DA JUMP JUMPDEST PUSH2 0xA53 JUMP JUMPDEST STOP JUMPDEST CALLVALUE DUP1 ISZERO PUSH2 0x478 JUMPI PUSH0 DUP1 REVERT JUMPDEST POP PUSH2 0x481 PUSH2 0xB1E JUMP JUMPDEST STOP JUMPDEST CALLVALUE DUP1 ISZERO PUSH2 0x48E JUMPI PUSH0 DUP1 REVERT JUMPDEST POP PUSH2 0x497 PUSH2 0xC3F JUMP JUMPDEST PUSH1 0x40 MLOAD PUSH2 0x4A4 SWAP2 SWAP1 PUSH2 0x286C JUMP JUMPDEST PUSH1 0x40 MLOAD DUP1 SWAP2 SUB SWAP1 RETURN JUMPDEST CALLVALUE DUP1 ISZERO PUSH2 0x4B8 JUMPI PUSH0 DUP1 REVERT JUMPDEST POP PUSH2 0x4C1 PUSH2 0xC46 JUMP JUMPDEST PUSH1 0x40 MLOAD PUSH2 0x4CE SWAP2 SWAP1 PUSH2 0x278E JUMP JUMPDEST PUSH1 0x40 MLOAD DUP1 SWAP2 SUB SWAP1 RETURN JUMPDEST CALLVALUE DUP1 ISZERO PUSH2 0x4E2 JUMPI PUSH0 DUP1 REVERT JUMPDEST POP PUSH2 0x4EB PUSH2 0xC58 JUMP JUMPDEST PUSH1 0x40 MLOAD PUSH2 0x4F8 SWAP2 SWAP1 PUSH2 0x28F2 JUMP JUMPDEST PUSH1 0x40 MLOAD DUP1 SWAP2 SUB SWAP1 RETURN JUMPDEST CALLVALUE DUP1 ISZERO PUSH2 0x50C JUMPI PUSH0 DUP1 REVERT JUMPDEST POP PUSH2 0x515 PUSH2 0xC7C JUMP JUMPDEST PUSH1 0x40 MLOAD PUSH2 0x522 SWAP2 SWAP1 PUSH2 0x28F2 JUMP JUMPDEST PUSH1 0x40 MLOAD DUP1 SWAP2 SUB SWAP1 RETURN JUMPDEST CALLVALUE DUP1 ISZERO PUSH2 0x536 JUMPI PUSH0 DUP1 REVERT JUMPDEST POP PUSH2 0x551 PUSH1 0x4 DUP1 CALLDATASIZE SUB DUP2 ADD SWAP1 PUSH2 0x54C SWAP2 SWAP1 PUSH2 0x27DA JUMP JUMPDEST PUSH2 0xCA0 JUMP JUMPDEST STOP JUMPDEST CALLVALUE DUP1 ISZERO PUSH2 0x55E JUMPI PUSH0 DUP1 REVERT JUMPDEST POP PUSH2 0x567 PUSH2 0xD34 JUMP JUMPDEST PUSH1 0x40 MLOAD PUSH2 0x574 SWAP2 SWAP1 PUSH2 0x286C JUMP JUMPDEST PUSH1 0x40 MLOAD DUP1 SWAP2 SUB SWAP1 RETURN JUMPDEST CALLVALUE DUP1 ISZERO PUSH2 0x588 JUMPI PUSH0 DUP1 REVERT JUMPDEST POP PUSH2 0x5A3 PUSH1 0x4 DUP1 CALLDATASIZE SUB DUP2 ADD SWAP1 PUSH2 0x59E SWAP2 SWAP1 PUSH2 0x2973 JUMP JUMPDEST PUSH2 0xD3A JUMP JUMPDEST STOP JUMPDEST PUSH2 0x5AD PUSH2 0xE54 JUMP JUMPDEST STOP JUMPDEST CALLVALUE DUP1 ISZERO PUSH2 0x5BA JUMPI PUSH0 DUP1 REVERT JUMPDEST POP PUSH2 0x5C3 PUSH2 0x1A19 JUMP JUMPDEST PUSH1 0x40 MLOAD PUSH2 0x5D0 SWAP2 SWAP1 PUSH2 0x286C JUMP JUMPDEST PUSH1 0x40 MLOAD DUP1 SWAP2 SUB SWAP1 RETURN JUMPDEST CALLVALUE DUP1 ISZERO PUSH2 0x5E4 JUMPI PUSH0 DUP1 REVERT JUMPDEST POP PUSH2 0x5FF PUSH1 0x4 DUP1 CALLDATASIZE SUB DUP2 ADD SWAP1 PUSH2 0x5FA SWAP2 SWAP1 PUSH2 0x2935 JUMP JUMPDEST PUSH2 0x1A1F JUMP JUMPDEST PUSH1 0x40 MLOAD PUSH2 0x60C SWAP2 SWAP1 PUSH2 0x278E JUMP JUMPDEST PUSH1 0x40 MLOAD DUP1 SWAP2 SUB SWAP1 RETURN JUMPDEST CALLVALUE DUP1 ISZERO PUSH2 0x620 JUMPI PUSH0 DUP1 REVERT JUMPDEST POP PUSH2 0x63B PUSH1 0x4 DUP1 CALLDATASIZE SUB DUP2 ADD SWAP1 PUSH2 0x636 SWAP2 SWAP1 PUSH2 0x2973 JUMP JUMPDEST PUSH2 0x1A82 JUMP JUMPDEST PUSH1 0x40 MLOAD PUSH2 0x648 SWAP2 SWAP1 PUSH2 0x278E JUMP JUMPDEST PUSH1 0x40 MLOAD DUP1 SWAP2 SUB SWAP1 RETURN JUMPDEST CALLVALUE DUP1 ISZERO PUSH2 0x65C JUMPI PUSH0 DUP1 REVERT JUMPDEST POP PUSH2 0x665 PUSH2 0x1A9F JUMP JUMPDEST PUSH1 0x40 MLOAD PUSH2 0x672 SWAP2 SWAP1 PUSH2 0x28F2 JUMP JUMPDEST PUSH1 0x40 MLOAD DUP1 SWAP2 SUB SWAP1 RETURN JUMPDEST CALLVALUE DUP1 ISZERO PUSH2 0x686 JUMPI PUSH0 DUP1 REVERT JUMPDEST POP PUSH2 0x68F PUSH2 0x1AA5 JUMP JUMPDEST PUSH1 0x40 MLOAD PUSH2 0x69C SWAP2 SWAP1 PUSH2 0x286C JUMP JUMPDEST PUSH1 0x40 MLOAD DUP1 SWAP2 SUB SWAP1 RETURN JUMPDEST CALLVALUE DUP1 ISZERO PUSH2 0x6B0 JUMPI PUSH0 DUP1 REVERT JUMPDEST POP PUSH2 0x6CB PUSH1 0x4 DUP1 CALLDATASIZE SUB DUP2 ADD SWAP1 PUSH2 0x6C6 SWAP2 SWAP1 PUSH2 0x27DA JUMP JUMPDEST PUSH2 0x1AAB JUMP JUMPDEST STOP JUMPDEST CALLVALUE DUP1 ISZERO PUSH2 0x6D8 JUMPI PUSH0 DUP1 REVERT JUMPDEST POP PUSH2 0x6E1 PUSH2 0x1B76 JUMP JUMPDEST PUSH1 0x40 MLOAD PUSH2 0x6EE SWAP2 SWAP1 PUSH2 0x286C JUMP JUMPDEST PUSH1 0x40 MLOAD DUP1 SWAP2 SUB SWAP1 RETURN JUMPDEST CALLVALUE DUP1 ISZERO PUSH2 0x702 JUMPI PUSH0 DUP1 REVERT JUMPDEST POP PUSH2 0x71D PUSH1 0x4 DUP1 CALLDATASIZE SUB DUP2 ADD SWAP1 PUSH2 0x718 SWAP2 SWAP1 PUSH2 0x27DA JUMP JUMPDEST PUSH2 0x1B7C JUMP JUMPDEST STOP JUMPDEST CALLVALUE DUP1 ISZERO PUSH2 0x72A JUMPI PUSH0 DUP1 REVERT JUMPDEST POP PUSH2 0x745 PUSH1 0x4 DUP1 CALLDATASIZE SUB DUP2 ADD SWAP1 PUSH2 0x740 SWAP2 SWAP1 PUSH2 0x2935 JUMP JUMPDEST PUSH2 0x1C10 JUMP JUMPDEST STOP JUMPDEST PUSH2 0x74F PUSH2 0x1C32 JUMP JUMPDEST STOP JUMPDEST CALLVALUE DUP1 ISZERO PUSH2 0x75C JUMPI PUSH0 DUP1 REVERT JUMPDEST POP PUSH2 0x777 PUSH1 0x4 DUP1 CALLDATASIZE SUB DUP2 ADD SWAP1 PUSH2 0x772 SWAP2 SWAP1 PUSH2 0x2973 JUMP JUMPDEST PUSH2 0x1E7D JUMP JUMPDEST STOP JUMPDEST CALLVALUE DUP1 ISZERO PUSH2 0x784 JUMPI PUSH0 DUP1 REVERT JUMPDEST POP PUSH2 0x78D PUSH2 0x1F99 JUMP JUMPDEST PUSH1 0x40 MLOAD PUSH2 0x79A SWAP2 SWAP1 PUSH2 0x286C JUMP JUMPDEST PUSH1 0x40 MLOAD DUP1 SWAP2 SUB SWAP1 RETURN JUMPDEST PUSH0 PUSH32 0x7965DB0B00000000000000000000000000000000000000000000000000000000 PUSH28 0xFFFFFFFFFFFFFFFFFFFFFFFFFFFFFFFFFFFFFFFFFFFFFFFFFFFFFFFF NOT AND DUP3 PUSH28 0xFFFFFFFFFFFFFFFFFFFFFFFFFFFFFFFFFFFFFFFFFFFFFFFFFFFFFFFF NOT AND EQ DUP1 PUSH2 0x815 JUMPI POP PUSH2 0x814 DUP3 PUSH2 0x1F9F JUMP JUMPDEST JUMPDEST SWAP1 POP SWAP2 SWAP1 POP JUMP JUMPDEST PUSH2 0x867 PUSH32 0xA49807205CE4D355092EF5A8A18F56E8913CF4A201FBE287825B095693C21775 PUSH1 0x3 PUSH0 SWAP1 SLOAD SWAP1 PUSH2 0x100 EXP SWAP1 DIV PUSH20 0xFFFFFFFFFFFFFFFFFFFFFFFFFFFFFFFFFFFFFFFF AND PUSH2 0x1A1F JUMP JUMPDEST PUSH2 0x8A6 JUMPI PUSH1 0x40 MLOAD PUSH32 0x8C379A000000000000000000000000000000000000000000000000000000000 DUP2 MSTORE PUSH1 0x4 ADD PUSH2 0x89D SWAP1 PUSH2 0x29E8 JUMP JUMPDEST PUSH1 0x40 MLOAD DUP1 SWAP2 SUB SWAP1 REVERT JUMPDEST DUP1 PUSH1 0x8 DUP2 SWAP1 SSTORE POP PUSH32 0x8645F88287B79F16D91266DA1D35B7ADC817D75A89A9577504B01FBC37ED5A6F DUP2 PUSH1 0x40 MLOAD PUSH2 0x8DC SWAP2 SWAP1 PUSH2 0x286C JUMP JUMPDEST PUSH1 0x40 MLOAD DUP1 SWAP2 SUB SWAP1 LOG1 POP JUMP JUMPDEST PUSH1 0xB DUP2 DUP2 SLOAD DUP2 LT PUSH2 0x8F6 JUMPI PUSH0 DUP1 REVERT JUMPDEST SWAP1 PUSH0 MSTORE PUSH1 0x20 PUSH0 KECCAK256 ADD PUSH0 SWAP2 POP SLOAD SWAP1 PUSH2 0x100 EXP SWAP1 DIV PUSH20 0xFFFFFFFFFFFFFFFFFFFFFFFFFFFFFFFFFFFFFFFF AND DUP2 JUMP JUMPDEST PUSH1 0xA SLOAD DUP2 JUMP JUMPDEST PUSH1 0x3 PUSH0 SWAP1 SLOAD SWAP1 PUSH2 0x100 EXP SWAP1 DIV PUSH20 0xFFFFFFFFFFFFFFFFFFFFFFFFFFFFFFFFFFFFFFFF AND DUP2 JUMP JUMPDEST PUSH0 DUP1 PUSH0 DUP4 DUP2 MSTORE PUSH1 0x20 ADD SWAP1 DUP2 MSTORE PUSH1 0x20 ADD PUSH0 KECCAK256 PUSH1 0x1 ADD SLOAD SWAP1 POP SWAP2 SWAP1 POP JUMP JUMPDEST PUSH1 0x2 PUSH0 SWAP1 SLOAD SWAP1 PUSH2 0x100 EXP SWAP1 DIV PUSH20 0xFFFFFFFFFFFFFFFFFFFFFFFFFFFFFFFFFFFFFFFF AND DUP2 JUMP JUMPDEST PUSH2 0x997 DUP3 PUSH2 0x94D JUMP JUMPDEST PUSH2 0x9A0 DUP2 PUSH2 0x2008 JUMP JUMPDEST PUSH2 0x9AA DUP4 DUP4 PUSH2 0x201C JUMP JUMPDEST POP POP POP POP JUMP JUMPDEST PUSH2 0x9B8 PUSH2 0x2105 JUMP JUMPDEST PUSH20 0xFFFFFFFFFFFFFFFFFFFFFFFFFFFFFFFFFFFFFFFF AND DUP2 PUSH20 0xFFFFFFFFFFFFFFFFFFFFFFFFFFFFFFFFFFFFFFFF AND EQ PUSH2 0xA1C JUMPI PUSH1 0x40 MLOAD PUSH32 0x6697B23200000000000000000000000000000000000000000000000000000000 DUP2 MSTORE PUSH1 0x4 ADD PUSH1 0x40 MLOAD DUP1 SWAP2 SUB SWAP1 REVERT JUMPDEST PUSH2 0xA26 DUP3 DUP3 PUSH2 0x210C JUMP JUMPDEST POP POP POP JUMP JUMPDEST PUSH1 0x9 PUSH1 0x1 SWAP1 SLOAD SWAP1 PUSH2 0x100 EXP SWAP1 DIV PUSH1 0xFF AND DUP2 JUMP JUMPDEST PUSH1 0xC PUSH1 0x20 MSTORE DUP1 PUSH0 MSTORE PUSH1 0x40 PUSH0 KECCAK256 PUSH0 SWAP2 POP SWAP1 POP SLOAD DUP2 JUMP JUMPDEST PUSH2 0xA9E PUSH32 0xA49807205CE4D355092EF5A8A18F56E8913CF4A201FBE287825B095693C21775 PUSH1 0x3 PUSH0 SWAP1 SLOAD SWAP1 PUSH2 0x100 EXP SWAP1 DIV PUSH20 0xFFFFFFFFFFFFFFFFFFFFFFFFFFFFFFFFFFFFFFFF AND PUSH2 0x1A1F JUMP JUMPDEST PUSH2 0xADD JUMPI PUSH1 0x40 MLOAD PUSH32 0x8C379A000000000000000000000000000000000000000000000000000000000 DUP2 MSTORE PUSH1 0x4 ADD PUSH2 0xAD4 SWAP1 PUSH2 0x29E8 JUMP JUMPDEST PUSH1 0x40 MLOAD DUP1 SWAP2 SUB SWAP1 REVERT JUMPDEST DUP1 PUSH1 0x7 DUP2 SWAP1 SSTORE POP PUSH32 0x9E87CF72973CDB82F6A3C58FA8EF538FD3088801E3F3033AFD06FA390CA4876C DUP2 PUSH1 0x40 MLOAD PUSH2 0xB13 SWAP2 SWAP1 PUSH2 0x286C JUMP JUMPDEST PUSH1 0x40 MLOAD DUP1 SWAP2 SUB SWAP1 LOG1 POP JUMP JUMPDEST PUSH2 0xB69 PUSH32 0xA49807205CE4D355092EF5A8A18F56E8913CF4A201FBE287825B095693C21775 PUSH1 0x3 PUSH0 SWAP1 SLOAD SWAP1 PUSH2 0x100 EXP SWAP1 DIV PUSH20 0xFFFFFFFFFFFFFFFFFFFFFFFFFFFFFFFFFFFFFFFF AND PUSH2 0x1A1F JUMP JUMPDEST PUSH2 0xBA8 JUMPI PUSH1 0x40 MLOAD PUSH32 0x8C379A000000000000000000000000000000000000000000000000000000000 DUP2 MSTORE PUSH1 0x4 ADD PUSH2 0xB9F SWAP1 PUSH2 0x29E8 JUMP JUMPDEST PUSH1 0x40 MLOAD DUP1 SWAP2 SUB SWAP1 REVERT JUMPDEST PUSH1 0x9 PUSH0 SWAP1 SLOAD SWAP1 PUSH2 0x100 EXP SWAP1 DIV PUSH1 0xFF AND ISZERO PUSH2 0xBF7 JUMPI PUSH1 0x40 MLOAD PUSH32 0x8C379A000000000000000000000000000000000000000000000000000000000 DUP2 MSTORE PUSH1 0x4 ADD PUSH2 0xBEE SWAP1 PUSH2 0x2A50 JUMP JUMPDEST PUSH1 0x40 MLOAD DUP1 SWAP2 SUB SWAP1 REVERT JUMPDEST PUSH1 0x1 PUSH1 0x9 PUSH0 PUSH2 0x100 EXP DUP2 SLOAD DUP2 PUSH1 0xFF MUL NOT AND SWAP1 DUP4 ISZERO ISZERO MUL OR SWAP1 SSTORE POP PUSH32 0x8CF55E5373CD35327ECD6E48F19A6101684947FD385C07FB95117B3695EC2E9B PUSH1 0x40 MLOAD PUSH1 0x40 MLOAD DUP1 SWAP2 SUB SWAP1 LOG1 JUMP JUMPDEST PUSH0 SELFBALANCE SWAP1 POP SWAP1 JUMP JUMPDEST PUSH1 0x9 PUSH0 SWAP1 SLOAD SWAP1 PUSH2 0x100 EXP SWAP1 DIV PUSH1 0xFF AND DUP2 JUMP JUMPDEST PUSH32 0xA49807205CE4D355092EF5A8A18F56E8913CF4A201FBE287825B095693C21775 DUP2 JUMP JUMPDEST PUSH32 0xD980155B32CF66E6AF51E0972D64B9D5EFE0E6F237DFAA4BDC83F990DD79E9C8 DUP2 JUMP JUMPDEST PUSH2 0xCEB PUSH32 0xA49807205CE4D355092EF5A8A18F56E8913CF4A201FBE287825B095693C21775 PUSH1 0x3 PUSH0 SWAP1 SLOAD SWAP1 PUSH2 0x100 EXP SWAP1 DIV PUSH20 0xFFFFFFFFFFFFFFFFFFFFFFFFFFFFFFFFFFFFFFFF AND PUSH2 0x1A1F JUMP JUMPDEST PUSH2 0xD2A JUMPI PUSH1 0x40 MLOAD PUSH32 0x8C379A000000000000000000000000000000000000000000000000000000000 DUP2 MSTORE PUSH1 0x4 ADD PUSH2 0xD21 SWAP1 PUSH2 0x29E8 JUMP JUMPDEST PUSH1 0x40 MLOAD DUP1 SWAP2 SUB SWAP1 REVERT JUMPDEST DUP1 PUSH1 0x5 DUP2 SWAP1 SSTORE POP POP JUMP JUMPDEST PUSH1 0x5 SLOAD DUP2 JUMP JUMPDEST PUSH2 0xD85 PUSH32 0xA49807205CE4D355092EF5A8A18F56E8913CF4A201FBE287825B095693C21775 PUSH1 0x3 PUSH0 SWAP1 SLOAD SWAP1 PUSH2 0x100 EXP SWAP1 DIV PUSH20 0xFFFFFFFFFFFFFFFFFFFFFFFFFFFFFFFFFFFFFFFF AND PUSH2 0x1A1F JUMP JUMPDEST PUSH2 0xDC4 JUMPI PUSH1 0x40 MLOAD PUSH32 0x8C379A000000000000000000000000000000000000000000000000000000000 DUP2 MSTORE PUSH1 0x4 ADD PUSH2 0xDBB SWAP1 PUSH2 0x29E8 JUMP JUMPDEST PUSH1 0x40 MLOAD DUP1 SWAP2 SUB SWAP1 REVERT JUMPDEST PUSH0 PUSH1 0xD PUSH0 DUP4 PUSH20 0xFFFFFFFFFFFFFFFFFFFFFFFFFFFFFFFFFFFFFFFF AND PUSH20 0xFFFFFFFFFFFFFFFFFFFFFFFFFFFFFFFFFFFFFFFF AND DUP2 MSTORE PUSH1 0x20 ADD SWAP1 DUP2 MSTORE PUSH1 0x20 ADD PUSH0 KECCAK256 PUSH0 PUSH2 0x100 EXP DUP2 SLOAD DUP2 PUSH1 0xFF MUL NOT AND SWAP1 DUP4 ISZERO ISZERO MUL OR SWAP1 SSTORE POP PUSH32 0xF93F9A76C1BF3444D22400A00CB9FE990E6ABE9DBB333FDA48859CFEE864543D DUP2 PUSH0 PUSH1 0x40 MLOAD PUSH2 0xE49 SWAP3 SWAP2 SWAP1 PUSH2 0x2A6E JUMP JUMPDEST PUSH1 0x40 MLOAD DUP1 SWAP2 SUB SWAP1 LOG1 POP JUMP JUMPDEST PUSH2 0xE9F PUSH32 0xA49807205CE4D355092EF5A8A18F56E8913CF4A201FBE287825B095693C21775 PUSH1 0x3 PUSH0 SWAP1 SLOAD SWAP1 PUSH2 0x100 EXP SWAP1 DIV PUSH20 0xFFFFFFFFFFFFFFFFFFFFFFFFFFFFFFFFFFFFFFFF AND PUSH2 0x1A1F JUMP JUMPDEST DUP1 PUSH2 0xEF1 JUMPI POP PUSH2 0xEF0 PUSH32 0xD980155B32CF66E6AF51E0972D64B9D5EFE0E6F237DFAA4BDC83F990DD79E9C8 PUSH1 0x2 PUSH0 SWAP1 SLOAD SWAP1 PUSH2 0x100 EXP SWAP1 DIV PUSH20 0xFFFFFFFFFFFFFFFFFFFFFFFFFFFFFFFFFFFFFFFF AND PUSH2 0x1A1F JUMP JUMPDEST JUMPDEST PUSH2 0xF30 JUMPI PUSH1 0x40 MLOAD PUSH32 0x8C379A000000000000000000000000000000000000000000000000000000000 DUP2 MSTORE PUSH1 0x4 ADD PUSH2 0xF27 SWAP1 PUSH2 0x2ADF JUMP JUMPDEST PUSH1 0x40 MLOAD DUP1 SWAP2 SUB SWAP1 REVERT JUMPDEST PUSH2 0xF38 PUSH2 0x21F5 JUMP JUMPDEST PUSH2 0xF40 PUSH2 0x2244 JUMP JUMPDEST PUSH1 0x1 PUSH1 0x9 PUSH1 0x1 PUSH2 0x100 EXP DUP2 SLOAD DUP2 PUSH1 0xFF MUL NOT AND SWAP1 DUP4 ISZERO ISZERO MUL OR SWAP1 SSTORE PUSH2 0xF99 JUMPI PUSH1 0x40 MLOAD PUSH32 0x8C379A000000000000000000000000000000000000000000000000000000000 DUP2 MSTORE PUSH1 0x4 ADD PUSH2 0xF90 SWAP1 PUSH2 0x2B47 JUMP JUMPDEST PUSH1 0x40 MLOAD DUP1 SWAP2 SUB SWAP1 REVERT JUMPDEST PUSH0 PUSH1 0x4 SLOAD GT PUSH2 0xFDD JUMPI PUSH1 0x40 MLOAD PUSH32 0x8C379A000000000000000000000000000000000000000000000000000000000 DUP2 MSTORE PUSH1 0x4 ADD PUSH2 0xFD4 SWAP1 PUSH2 0x2BAF JUMP JUMPDEST PUSH1 0x40 MLOAD DUP1 SWAP2 SUB SWAP1 REVERT JUMPDEST PUSH0 DUP1 PUSH1 0x6 SLOAD PUSH1 0x4 SLOAD LT ISZERO PUSH2 0x1228 JUMPI PUSH2 0x1029 PUSH1 0x40 MLOAD DUP1 PUSH1 0x40 ADD PUSH1 0x40 MSTORE DUP1 PUSH1 0x1A DUP2 MSTORE PUSH1 0x20 ADD PUSH32 0x5768656E20746F74616C526173696564203C2068617264436170000000000000 DUP2 MSTORE POP PUSH2 0x22DD JUMP JUMPDEST PUSH2 0x106A PUSH1 0x40 MLOAD DUP1 PUSH1 0x40 ADD PUSH1 0x40 MSTORE DUP1 PUSH1 0xB DUP2 MSTORE PUSH1 0x20 ADD PUSH32 0x546F74616C526169736564000000000000000000000000000000000000000000 DUP2 MSTORE POP PUSH1 0x4 SLOAD PUSH2 0x2376 JUMP JUMPDEST PUSH2 0x1094 PUSH1 0x64 PUSH2 0x1086 PUSH1 0x5 SLOAD PUSH1 0x4 SLOAD PUSH2 0x2412 SWAP1 SWAP2 SWAP1 PUSH4 0xFFFFFFFF AND JUMP JUMPDEST PUSH2 0x2427 SWAP1 SWAP2 SWAP1 PUSH4 0xFFFFFFFF AND JUMP JUMPDEST SWAP2 POP PUSH2 0x10AB DUP3 PUSH1 0x4 SLOAD PUSH2 0x243C SWAP1 SWAP2 SWAP1 PUSH4 0xFFFFFFFF AND JUMP JUMPDEST SWAP1 POP PUSH2 0x10CF PUSH1 0x40 MLOAD DUP1 PUSH1 0x60 ADD PUSH1 0x40 MSTORE DUP1 PUSH1 0x2A DUP2 MSTORE PUSH1 0x20 ADD PUSH2 0x3452 PUSH1 0x2A SWAP2 CODECOPY DUP4 PUSH2 0x2376 JUMP JUMPDEST PUSH2 0x10F1 PUSH1 0x40 MLOAD DUP1 PUSH1 0x60 ADD PUSH1 0x40 MSTORE DUP1 PUSH1 0x27 DUP2 MSTORE PUSH1 0x20 ADD PUSH2 0x33D8 PUSH1 0x27 SWAP2 CODECOPY DUP3 PUSH2 0x2376 JUMP JUMPDEST PUSH0 PUSH1 0x3 PUSH0 SWAP1 SLOAD SWAP1 PUSH2 0x100 EXP SWAP1 DIV PUSH20 0xFFFFFFFFFFFFFFFFFFFFFFFFFFFFFFFFFFFFFFFF AND PUSH20 0xFFFFFFFFFFFFFFFFFFFFFFFFFFFFFFFFFFFFFFFF AND PUSH2 0x8FC DUP4 SWAP1 DUP2 ISZERO MUL SWAP1 PUSH1 0x40 MLOAD PUSH0 PUSH1 0x40 MLOAD DUP1 DUP4 SUB DUP2 DUP6 DUP9 DUP9 CALL SWAP4 POP POP POP POP SWAP1 POP DUP1 PUSH2 0x1189 JUMPI PUSH1 0x40 MLOAD PUSH32 0x8C379A000000000000000000000000000000000000000000000000000000000 DUP2 MSTORE PUSH1 0x4 ADD PUSH2 0x1180 SWAP1 PUSH2 0x2C3D JUMP JUMPDEST PUSH1 0x40 MLOAD DUP1 SWAP2 SUB SWAP1 REVERT JUMPDEST PUSH0 PUSH1 0x2 PUSH0 SWAP1 SLOAD SWAP1 PUSH2 0x100 EXP SWAP1 DIV PUSH20 0xFFFFFFFFFFFFFFFFFFFFFFFFFFFFFFFFFFFFFFFF AND PUSH20 0xFFFFFFFFFFFFFFFFFFFFFFFFFFFFFFFFFFFFFFFF AND PUSH2 0x8FC DUP6 SWAP1 DUP2 ISZERO MUL SWAP1 PUSH1 0x40 MLOAD PUSH0 PUSH1 0x40 MLOAD DUP1 DUP4 SUB DUP2 DUP6 DUP9 DUP9 CALL SWAP4 POP POP POP POP SWAP1 POP DUP1 PUSH2 0x1221 JUMPI PUSH1 0x40 MLOAD PUSH32 0x8C379A000000000000000000000000000000000000000000000000000000000 DUP2 MSTORE PUSH1 0x4 ADD PUSH2 0x1218 SWAP1 PUSH2 0x2CCB JUMP JUMPDEST PUSH1 0x40 MLOAD DUP1 SWAP2 SUB SWAP1 REVERT JUMPDEST POP POP PUSH2 0x19CB JUMP JUMPDEST PUSH1 0x6 SLOAD PUSH1 0x4 SLOAD GT ISZERO PUSH2 0x1785 JUMPI PUSH2 0x1272 PUSH1 0x40 MLOAD DUP1 PUSH1 0x40 ADD PUSH1 0x40 MSTORE DUP1 PUSH1 0x1A DUP2 MSTORE PUSH1 0x20 ADD PUSH32 0x5768656E20746F74616C526173696564203E2068617264436170000000000000 DUP2 MSTORE POP PUSH2 0x22DD JUMP JUMPDEST PUSH2 0x12B3 PUSH1 0x40 MLOAD DUP1 PUSH1 0x40 ADD PUSH1 0x40 MSTORE DUP1 PUSH1 0xB DUP2 MSTORE PUSH1 0x20 ADD PUSH32 0x546F74616C526169736564000000000000000000000000000000000000000000 DUP2 MSTORE POP PUSH1 0x4 SLOAD PUSH2 0x2376 JUMP JUMPDEST PUSH2 0x12DD PUSH1 0x64 PUSH2 0x12CF PUSH1 0x5 SLOAD PUSH1 0x6 SLOAD PUSH2 0x2412 SWAP1 SWAP2 SWAP1 PUSH4 0xFFFFFFFF AND JUMP JUMPDEST PUSH2 0x2427 SWAP1 SWAP2 SWAP1 PUSH4 0xFFFFFFFF AND JUMP JUMPDEST SWAP2 POP PUSH2 0x12F4 DUP3 PUSH1 0x6 SLOAD PUSH2 0x243C SWAP1 SWAP2 SWAP1 PUSH4 0xFFFFFFFF AND JUMP JUMPDEST SWAP1 POP PUSH2 0x1318 PUSH1 0x40 MLOAD DUP1 PUSH1 0x60 ADD PUSH1 0x40 MSTORE DUP1 PUSH1 0x2A DUP2 MSTORE PUSH1 0x20 ADD PUSH2 0x34A0 PUSH1 0x2A SWAP2 CODECOPY DUP4 PUSH2 0x2376 JUMP JUMPDEST PUSH2 0x133A PUSH1 0x40 MLOAD DUP1 PUSH1 0x60 ADD PUSH1 0x40 MSTORE DUP1 PUSH1 0x27 DUP2 MSTORE PUSH1 0x20 ADD PUSH2 0x34CA PUSH1 0x27 SWAP2 CODECOPY DUP3 PUSH2 0x2376 JUMP JUMPDEST PUSH0 PUSH1 0x3 PUSH0 SWAP1 SLOAD SWAP1 PUSH2 0x100 EXP SWAP1 DIV PUSH20 0xFFFFFFFFFFFFFFFFFFFFFFFFFFFFFFFFFFFFFFFF AND PUSH20 0xFFFFFFFFFFFFFFFFFFFFFFFFFFFFFFFFFFFFFFFF AND PUSH2 0x8FC DUP4 SWAP1 DUP2 ISZERO MUL SWAP1 PUSH1 0x40 MLOAD PUSH0 PUSH1 0x40 MLOAD DUP1 DUP4 SUB DUP2 DUP6 DUP9 DUP9 CALL SWAP4 POP POP POP POP SWAP1 POP DUP1 PUSH2 0x13D2 JUMPI PUSH1 0x40 MLOAD PUSH32 0x8C379A000000000000000000000000000000000000000000000000000000000 DUP2 MSTORE PUSH1 0x4 ADD PUSH2 0x13C9 SWAP1 PUSH2 0x2D59 JUMP JUMPDEST PUSH1 0x40 MLOAD DUP1 SWAP2 SUB SWAP1 REVERT JUMPDEST PUSH0 PUSH1 0x2 PUSH0 SWAP1 SLOAD SWAP1 PUSH2 0x100 EXP SWAP1 DIV PUSH20 0xFFFFFFFFFFFFFFFFFFFFFFFFFFFFFFFFFFFFFFFF AND PUSH20 0xFFFFFFFFFFFFFFFFFFFFFFFFFFFFFFFFFFFFFFFF AND PUSH2 0x8FC DUP6 SWAP1 DUP2 ISZERO MUL SWAP1 PUSH1 0x40 MLOAD PUSH0 PUSH1 0x40 MLOAD DUP1 DUP4 SUB DUP2 DUP6 DUP9 DUP9 CALL SWAP4 POP POP POP POP SWAP1 POP DUP1 PUSH2 0x146A JUMPI PUSH1 0x40 MLOAD PUSH32 0x8C379A000000000000000000000000000000000000000000000000000000000 DUP2 MSTORE PUSH1 0x4 ADD PUSH2 0x1461 SWAP1 PUSH2 0x2D59 JUMP JUMPDEST PUSH1 0x40 MLOAD DUP1 SWAP2 SUB SWAP1 REVERT JUMPDEST PUSH0 PUSH2 0x1496 PUSH1 0xA SLOAD PUSH2 0x1488 PUSH1 0x6 SLOAD PUSH1 0x4 SLOAD PUSH2 0x243C SWAP1 SWAP2 SWAP1 PUSH4 0xFFFFFFFF AND JUMP JUMPDEST PUSH2 0x2427 SWAP1 SWAP2 SWAP1 PUSH4 0xFFFFFFFF AND JUMP JUMPDEST SWAP1 POP PUSH2 0x14D7 PUSH1 0x40 MLOAD DUP1 PUSH1 0x40 ADD PUSH1 0x40 MSTORE DUP1 PUSH1 0x1A DUP2 MSTORE PUSH1 0x20 ADD PUSH32 0x726566756E64416D6F756E74506572436F6E7472696275746F72000000000000 DUP2 MSTORE POP DUP3 PUSH2 0x2376 JUMP JUMPDEST PUSH2 0x1515 PUSH1 0x40 MLOAD DUP1 PUSH1 0x40 ADD PUSH1 0x40 MSTORE DUP1 PUSH1 0x1A DUP2 MSTORE PUSH1 0x20 ADD PUSH32 0x436865636B696E6720657665727920636F6E7472696275746F72000000000000 DUP2 MSTORE POP PUSH2 0x22DD JUMP JUMPDEST PUSH0 JUMPDEST PUSH1 0xA SLOAD DUP2 LT ISZERO PUSH2 0x177C JUMPI PUSH0 PUSH1 0xB DUP3 DUP2 SLOAD DUP2 LT PUSH2 0x1536 JUMPI PUSH2 0x1535 PUSH2 0x2D77 JUMP JUMPDEST JUMPDEST SWAP1 PUSH0 MSTORE PUSH1 0x20 PUSH0 KECCAK256 ADD PUSH0 SWAP1 SLOAD SWAP1 PUSH2 0x100 EXP SWAP1 DIV PUSH20 0xFFFFFFFFFFFFFFFFFFFFFFFFFFFFFFFFFFFFFFFF AND SWAP1 POP PUSH2 0x159F PUSH1 0x40 MLOAD DUP1 PUSH1 0x40 ADD PUSH1 0x40 MSTORE DUP1 PUSH1 0x10 DUP2 MSTORE PUSH1 0x20 ADD PUSH32 0x636F6E7472696275746F72206C69737400000000000000000000000000000000 DUP2 MSTORE POP DUP3 PUSH2 0x2451 JUMP JUMPDEST PUSH0 PUSH1 0xC PUSH0 DUP4 PUSH20 0xFFFFFFFFFFFFFFFFFFFFFFFFFFFFFFFFFFFFFFFF AND PUSH20 0xFFFFFFFFFFFFFFFFFFFFFFFFFFFFFFFFFFFFFFFF AND DUP2 MSTORE PUSH1 0x20 ADD SWAP1 DUP2 MSTORE PUSH1 0x20 ADD PUSH0 KECCAK256 SLOAD SWAP1 POP DUP4 DUP2 GT ISZERO PUSH2 0x1728 JUMPI PUSH0 PUSH20 0xFFFFFFFFFFFFFFFFFFFFFFFFFFFFFFFFFFFFFFFF AND DUP3 PUSH20 0xFFFFFFFFFFFFFFFFFFFFFFFFFFFFFFFFFFFFFFFF AND EQ ISZERO DUP1 PUSH2 0x164F JUMPI POP PUSH0 PUSH20 0xFFFFFFFFFFFFFFFFFFFFFFFFFFFFFFFFFFFFFFFF AND DUP3 PUSH20 0xFFFFFFFFFFFFFFFFFFFFFFFFFFFFFFFFFFFFFFFF AND EQ ISZERO JUMPDEST PUSH2 0x168E JUMPI PUSH1 0x40 MLOAD PUSH32 0x8C379A000000000000000000000000000000000000000000000000000000000 DUP2 MSTORE PUSH1 0x4 ADD PUSH2 0x1685 SWAP1 PUSH2 0x2DEE JUMP JUMPDEST PUSH1 0x40 MLOAD DUP1 SWAP2 SUB SWAP1 REVERT JUMPDEST PUSH2 0x16AF PUSH1 0x40 MLOAD DUP1 PUSH1 0x60 ADD PUSH1 0x40 MSTORE DUP1 PUSH1 0x24 DUP2 MSTORE PUSH1 0x20 ADD PUSH2 0x347C PUSH1 0x24 SWAP2 CODECOPY PUSH2 0x22DD JUMP JUMPDEST PUSH0 DUP3 PUSH20 0xFFFFFFFFFFFFFFFFFFFFFFFFFFFFFFFFFFFFFFFF AND PUSH2 0x8FC DUP7 SWAP1 DUP2 ISZERO MUL SWAP1 PUSH1 0x40 MLOAD PUSH0 PUSH1 0x40 MLOAD DUP1 DUP4 SUB DUP2 DUP6 DUP9 DUP9 CALL SWAP4 POP POP POP POP SWAP1 POP DUP1 PUSH2 0x1726 JUMPI PUSH1 0x40 MLOAD PUSH32 0x8C379A000000000000000000000000000000000000000000000000000000000 DUP2 MSTORE PUSH1 0x4 ADD PUSH2 0x171D SWAP1 PUSH2 0x2E7C JUMP JUMPDEST PUSH1 0x40 MLOAD DUP1 SWAP2 SUB SWAP1 REVERT JUMPDEST POP JUMPDEST PUSH2 0x1767 PUSH1 0x40 MLOAD DUP1 PUSH1 0x40 ADD PUSH1 0x40 MSTORE DUP1 PUSH1 0xD DUP2 MSTORE PUSH1 0x20 ADD PUSH32 0x72657475726E20416D6F756E7400000000000000000000000000000000000000 DUP2 MSTORE POP DUP6 PUSH2 0x2376 JUMP JUMPDEST POP POP DUP1 DUP1 PUSH2 0x1774 SWAP1 PUSH2 0x2EC7 JUMP JUMPDEST SWAP2 POP POP PUSH2 0x1517 JUMP JUMPDEST POP POP POP POP PUSH2 0x19CA JUMP JUMPDEST PUSH1 0x6 SLOAD PUSH1 0x4 SLOAD SUB PUSH2 0x19C9 JUMPI PUSH2 0x17CE PUSH1 0x40 MLOAD DUP1 PUSH1 0x40 ADD PUSH1 0x40 MSTORE DUP1 PUSH1 0x1B DUP2 MSTORE PUSH1 0x20 ADD PUSH32 0x5768656E20746F74616C526173696564203D3D20686172644361700000000000 DUP2 MSTORE POP PUSH2 0x22DD JUMP JUMPDEST PUSH2 0x180F PUSH1 0x40 MLOAD DUP1 PUSH1 0x40 ADD PUSH1 0x40 MSTORE DUP1 PUSH1 0xB DUP2 MSTORE PUSH1 0x20 ADD PUSH32 0x546F74616C526169736564000000000000000000000000000000000000000000 DUP2 MSTORE POP PUSH1 0x4 SLOAD PUSH2 0x2376 JUMP JUMPDEST PUSH2 0x1839 PUSH1 0x64 PUSH2 0x182B PUSH1 0x5 SLOAD PUSH1 0x6 SLOAD PUSH2 0x2412 SWAP1 SWAP2 SWAP1 PUSH4 0xFFFFFFFF AND JUMP JUMPDEST PUSH2 0x2427 SWAP1 SWAP2 SWAP1 PUSH4 0xFFFFFFFF AND JUMP JUMPDEST SWAP2 POP PUSH2 0x1850 DUP3 PUSH1 0x6 SLOAD PUSH2 0x243C SWAP1 SWAP2 SWAP1 PUSH4 0xFFFFFFFF AND JUMP JUMPDEST SWAP1 POP PUSH2 0x1874 PUSH1 0x40 MLOAD DUP1 PUSH1 0x60 ADD PUSH1 0x40 MSTORE DUP1 PUSH1 0x2B DUP2 MSTORE PUSH1 0x20 ADD PUSH2 0x3427 PUSH1 0x2B SWAP2 CODECOPY DUP4 PUSH2 0x2376 JUMP JUMPDEST PUSH2 0x1896 PUSH1 0x40 MLOAD DUP1 PUSH1 0x60 ADD PUSH1 0x40 MSTORE DUP1 PUSH1 0x28 DUP2 MSTORE PUSH1 0x20 ADD PUSH2 0x33FF PUSH1 0x28 SWAP2 CODECOPY DUP3 PUSH2 0x2376 JUMP JUMPDEST PUSH0 PUSH1 0x3 PUSH0 SWAP1 SLOAD SWAP1 PUSH2 0x100 EXP SWAP1 DIV PUSH20 0xFFFFFFFFFFFFFFFFFFFFFFFFFFFFFFFFFFFFFFFF AND PUSH20 0xFFFFFFFFFFFFFFFFFFFFFFFFFFFFFFFFFFFFFFFF AND PUSH2 0x8FC DUP4 SWAP1 DUP2 ISZERO MUL SWAP1 PUSH1 0x40 MLOAD PUSH0 PUSH1 0x40 MLOAD DUP1 DUP4 SUB DUP2 DUP6 DUP9 DUP9 CALL SWAP4 POP POP POP POP SWAP1 POP DUP1 PUSH2 0x192E JUMPI PUSH1 0x40 MLOAD PUSH32 0x8C379A000000000000000000000000000000000000000000000000000000000 DUP2 MSTORE PUSH1 0x4 ADD PUSH2 0x1925 SWAP1 PUSH2 0x2F7E JUMP JUMPDEST PUSH1 0x40 MLOAD DUP1 SWAP2 SUB SWAP1 REVERT JUMPDEST PUSH0 PUSH1 0x2 PUSH0 SWAP1 SLOAD SWAP1 PUSH2 0x100 EXP SWAP1 DIV PUSH20 0xFFFFFFFFFFFFFFFFFFFFFFFFFFFFFFFFFFFFFFFF AND PUSH20 0xFFFFFFFFFFFFFFFFFFFFFFFFFFFFFFFFFFFFFFFF AND PUSH2 0x8FC DUP6 SWAP1 DUP2 ISZERO MUL SWAP1 PUSH1 0x40 MLOAD PUSH0 PUSH1 0x40 MLOAD DUP1 DUP4 SUB DUP2 DUP6 DUP9 DUP9 CALL SWAP4 POP POP POP POP SWAP1 POP DUP1 PUSH2 0x19C6 JUMPI PUSH1 0x40 MLOAD PUSH32 0x8C379A000000000000000000000000000000000000000000000000000000000 DUP2 MSTORE PUSH1 0x4 ADD PUSH2 0x19BD SWAP1 PUSH2 0x2F7E JUMP JUMPDEST PUSH1 0x40 MLOAD DUP1 SWAP2 SUB SWAP1 REVERT JUMPDEST POP POP JUMPDEST JUMPDEST JUMPDEST PUSH0 PUSH1 0x4 DUP2 SWAP1 SSTORE POP PUSH0 PUSH1 0xA DUP2 SWAP1 SSTORE POP PUSH0 PUSH1 0x9 PUSH0 PUSH2 0x100 EXP DUP2 SLOAD DUP2 PUSH1 0xFF MUL NOT AND SWAP1 DUP4 ISZERO ISZERO MUL OR SWAP1 SSTORE POP PUSH1 0x1 PUSH1 0x9 PUSH1 0x1 PUSH2 0x100 EXP DUP2 SLOAD DUP2 PUSH1 0xFF MUL NOT AND SWAP1 DUP4 ISZERO ISZERO MUL OR SWAP1 SSTORE POP POP POP PUSH2 0x1A17 PUSH2 0x24ED JUMP JUMPDEST JUMP JUMPDEST PUSH1 0x8 SLOAD DUP2 JUMP JUMPDEST PUSH0 DUP1 PUSH0 DUP5 DUP2 MSTORE PUSH1 0x20 ADD SWAP1 DUP2 MSTORE PUSH1 0x20 ADD PUSH0 KECCAK256 PUSH0 ADD PUSH0 DUP4 PUSH20 0xFFFFFFFFFFFFFFFFFFFFFFFFFFFFFFFFFFFFFFFF AND PUSH20 0xFFFFFFFFFFFFFFFFFFFFFFFFFFFFFFFFFFFFFFFF AND DUP2 MSTORE PUSH1 0x20 ADD SWAP1 DUP2 MSTORE PUSH1 0x20 ADD PUSH0 KECCAK256 PUSH0 SWAP1 SLOAD SWAP1 PUSH2 0x100 EXP SWAP1 DIV PUSH1 0xFF AND SWAP1 POP SWAP3 SWAP2 POP POP JUMP JUMPDEST PUSH1 0xD PUSH1 0x20 MSTORE DUP1 PUSH0 MSTORE PUSH1 0x40 PUSH0 KECCAK256 PUSH0 SWAP2 POP SLOAD SWAP1 PUSH2 0x100 EXP SWAP1 DIV PUSH1 0xFF AND DUP2 JUMP JUMPDEST PUSH0 DUP1 SHL DUP2 JUMP JUMPDEST PUSH1 0x7 SLOAD DUP2 JUMP JUMPDEST PUSH2 0x1AF6 PUSH32 0xA49807205CE4D355092EF5A8A18F56E8913CF4A201FBE287825B095693C21775 PUSH1 0x3 PUSH0 SWAP1 SLOAD SWAP1 PUSH2 0x100 EXP SWAP1 DIV PUSH20 0xFFFFFFFFFFFFFFFFFFFFFFFFFFFFFFFFFFFFFFFF AND PUSH2 0x1A1F JUMP JUMPDEST PUSH2 0x1B35 JUMPI PUSH1 0x40 MLOAD PUSH32 0x8C379A000000000000000000000000000000000000000000000000000000000 DUP2 MSTORE PUSH1 0x4 ADD PUSH2 0x1B2C SWAP1 PUSH2 0x29E8 JUMP JUMPDEST PUSH1 0x40 MLOAD DUP1 SWAP2 SUB SWAP1 REVERT JUMPDEST DUP1 PUSH1 0x6 DUP2 SWAP1 SSTORE POP PUSH32 0xE65E8475AE8EBA2B732012A0734794875A0FDBDCCFED8398FFF4DA0C8E0FA00E DUP2 PUSH1 0x40 MLOAD PUSH2 0x1B6B SWAP2 SWAP1 PUSH2 0x286C JUMP JUMPDEST PUSH1 0x40 MLOAD DUP1 SWAP2 SUB SWAP1 LOG1 POP JUMP JUMPDEST PUSH1 0x4 SLOAD DUP2 JUMP JUMPDEST PUSH2 0x1BC7 PUSH32 0xA49807205CE4D355092EF5A8A18F56E8913CF4A201FBE287825B095693C21775 PUSH1 0x3 PUSH0 SWAP1 SLOAD SWAP1 PUSH2 0x100 EXP SWAP1 DIV PUSH20 0xFFFFFFFFFFFFFFFFFFFFFFFFFFFFFFFFFFFFFFFF AND PUSH2 0x1A1F JUMP JUMPDEST PUSH2 0x1C06 JUMPI PUSH1 0x40 MLOAD PUSH32 0x8C379A000000000000000000000000000000000000000000000000000000000 DUP2 MSTORE PUSH1 0x4 ADD PUSH2 0x1BFD SWAP1 PUSH2 0x29E8 JUMP JUMPDEST PUSH1 0x40 MLOAD DUP1 SWAP2 SUB SWAP1 REVERT JUMPDEST DUP1 PUSH1 0x6 DUP2 SWAP1 SSTORE POP POP JUMP JUMPDEST PUSH2 0x1C19 DUP3 PUSH2 0x94D JUMP JUMPDEST PUSH2 0x1C22 DUP2 PUSH2 0x2008 JUMP JUMPDEST PUSH2 0x1C2C DUP4 DUP4 PUSH2 0x210C JUMP JUMPDEST POP POP POP POP JUMP JUMPDEST PUSH2 0x1C3A PUSH2 0x21F5 JUMP JUMPDEST PUSH1 0x9 PUSH0 SWAP1 SLOAD SWAP1 PUSH2 0x100 EXP SWAP1 DIV PUSH1 0xFF AND DUP1 ISZERO PUSH2 0x1C62 JUMPI POP PUSH1 0x9 PUSH1 0x1 SWAP1 SLOAD SWAP1 PUSH2 0x100 EXP SWAP1 DIV PUSH1 0xFF AND ISZERO JUMPDEST PUSH2 0x1CA1 JUMPI PUSH1 0x40 MLOAD PUSH32 0x8C379A000000000000000000000000000000000000000000000000000000000 DUP2 MSTORE PUSH1 0x4 ADD PUSH2 0x1C98 SWAP1 PUSH2 0x2FE6 JUMP JUMPDEST PUSH1 0x40 MLOAD DUP1 SWAP2 SUB SWAP1 REVERT JUMPDEST PUSH1 0x7 SLOAD CALLVALUE LT ISZERO DUP1 ISZERO PUSH2 0x1CB3 JUMPI POP PUSH0 CALLVALUE EQ ISZERO JUMPDEST PUSH2 0x1CF2 JUMPI PUSH1 0x40 MLOAD PUSH32 0x8C379A000000000000000000000000000000000000000000000000000000000 DUP2 MSTORE PUSH1 0x4 ADD PUSH2 0x1CE9 SWAP1 PUSH2 0x3074 JUMP JUMPDEST PUSH1 0x40 MLOAD DUP1 SWAP2 SUB SWAP1 REVERT JUMPDEST PUSH2 0x1D42 CALLVALUE PUSH1 0xC PUSH0 CALLER PUSH20 0xFFFFFFFFFFFFFFFFFFFFFFFFFFFFFFFFFFFFFFFF AND PUSH20 0xFFFFFFFFFFFFFFFFFFFFFFFFFFFFFFFFFFFFFFFF AND DUP2 MSTORE PUSH1 0x20 ADD SWAP1 DUP2 MSTORE PUSH1 0x20 ADD PUSH0 KECCAK256 SLOAD PUSH2 0x24F6 SWAP1 SWAP2 SWAP1 PUSH4 0xFFFFFFFF AND JUMP JUMPDEST PUSH1 0xC PUSH0 CALLER PUSH20 0xFFFFFFFFFFFFFFFFFFFFFFFFFFFFFFFFFFFFFFFF AND PUSH20 0xFFFFFFFFFFFFFFFFFFFFFFFFFFFFFFFFFFFFFFFF AND DUP2 MSTORE PUSH1 0x20 ADD SWAP1 DUP2 MSTORE PUSH1 0x20 ADD PUSH0 KECCAK256 DUP2 SWAP1 SSTORE POP PUSH2 0x1D98 CALLVALUE PUSH1 0x4 SLOAD PUSH2 0x24F6 SWAP1 SWAP2 SWAP1 PUSH4 0xFFFFFFFF AND JUMP JUMPDEST PUSH1 0x4 DUP2 SWAP1 SSTORE POP PUSH1 0xA PUSH0 DUP2 SLOAD DUP1 SWAP3 SWAP2 SWAP1 PUSH2 0x1DB0 SWAP1 PUSH2 0x2EC7 JUMP JUMPDEST SWAP2 SWAP1 POP SSTORE POP PUSH2 0x1DBE CALLER PUSH2 0x250B JUMP JUMPDEST PUSH2 0x1E23 JUMPI PUSH1 0xB CALLER SWAP1 DUP1 PUSH1 0x1 DUP2 SLOAD ADD DUP1 DUP3 SSTORE DUP1 SWAP2 POP POP PUSH1 0x1 SWAP1 SUB SWAP1 PUSH0 MSTORE PUSH1 0x20 PUSH0 KECCAK256 ADD PUSH0 SWAP1 SWAP2 SWAP1 SWAP2 SWAP1 SWAP2 PUSH2 0x100 EXP DUP2 SLOAD DUP2 PUSH20 0xFFFFFFFFFFFFFFFFFFFFFFFFFFFFFFFFFFFFFFFF MUL NOT AND SWAP1 DUP4 PUSH20 0xFFFFFFFFFFFFFFFFFFFFFFFFFFFFFFFFFFFFFFFF AND MUL OR SWAP1 SSTORE POP JUMPDEST CALLER PUSH20 0xFFFFFFFFFFFFFFFFFFFFFFFFFFFFFFFFFFFFFFFF AND PUSH32 0x1D5D67670FD52E22078BBAB523A5EAD8206C7991225DD63095E3D3D6B5BE3BAF CALLVALUE TIMESTAMP PUSH1 0x40 MLOAD PUSH2 0x1E6B SWAP3 SWAP2 SWAP1 PUSH2 0x3092 JUMP JUMPDEST PUSH1 0x40 MLOAD DUP1 SWAP2 SUB SWAP1 LOG2 PUSH2 0x1E7B PUSH2 0x24ED JUMP JUMPDEST JUMP JUMPDEST PUSH2 0x1EC8 PUSH32 0xA49807205CE4D355092EF5A8A18F56E8913CF4A201FBE287825B095693C21775 PUSH1 0x3 PUSH0 SWAP1 SLOAD SWAP1 PUSH2 0x100 EXP SWAP1 DIV PUSH20 0xFFFFFFFFFFFFFFFFFFFFFFFFFFFFFFFFFFFFFFFF AND PUSH2 0x1A1F JUMP JUMPDEST PUSH2 0x1F07 JUMPI PUSH1 0x40 MLOAD PUSH32 0x8C379A000000000000000000000000000000000000000000000000000000000 DUP2 MSTORE PUSH1 0x4 ADD PUSH2 0x1EFE SWAP1 PUSH2 0x29E8 JUMP JUMPDEST PUSH1 0x40 MLOAD DUP1 SWAP2 SUB SWAP1 REVERT JUMPDEST PUSH1 0x1 PUSH1 0xD PUSH0 DUP4 PUSH20 0xFFFFFFFFFFFFFFFFFFFFFFFFFFFFFFFFFFFFFFFF AND PUSH20 0xFFFFFFFFFFFFFFFFFFFFFFFFFFFFFFFFFFFFFFFF AND DUP2 MSTORE PUSH1 0x20 ADD SWAP1 DUP2 MSTORE PUSH1 0x20 ADD PUSH0 KECCAK256 PUSH0 PUSH2 0x100 EXP DUP2 SLOAD DUP2 PUSH1 0xFF MUL NOT AND SWAP1 DUP4 ISZERO ISZERO MUL OR SWAP1 SSTORE POP PUSH32 0xF93F9A76C1BF3444D22400A00CB9FE990E6ABE9DBB333FDA48859CFEE864543D DUP2 PUSH1 0x1 PUSH1 0x40 MLOAD PUSH2 0x1F8E SWAP3 SWAP2 SWAP1 PUSH2 0x2A6E JUMP JUMPDEST PUSH1 0x40 MLOAD DUP1 SWAP2 SUB SWAP1 LOG1 POP JUMP JUMPDEST PUSH1 0x6 SLOAD DUP2 JUMP JUMPDEST PUSH0 PUSH32 0x1FFC9A700000000000000000000000000000000000000000000000000000000 PUSH28 0xFFFFFFFFFFFFFFFFFFFFFFFFFFFFFFFFFFFFFFFFFFFFFFFFFFFFFFFF NOT AND DUP3 PUSH28 0xFFFFFFFFFFFFFFFFFFFFFFFFFFFFFFFFFFFFFFFFFFFFFFFFFFFFFFFF NOT AND EQ SWAP1 POP SWAP2 SWAP1 POP JUMP JUMPDEST PUSH2 0x2019 DUP2 PUSH2 0x2014 PUSH2 0x2105 JUMP JUMPDEST PUSH2 0x25B3 JUMP JUMPDEST POP JUMP JUMPDEST PUSH0 PUSH2 0x2027 DUP4 DUP4 PUSH2 0x1A1F JUMP JUMPDEST PUSH2 0x20FB JUMPI PUSH1 0x1 PUSH0 DUP1 DUP6 DUP2 MSTORE PUSH1 0x20 ADD SWAP1 DUP2 MSTORE PUSH1 0x20 ADD PUSH0 KECCAK256 PUSH0 ADD PUSH0 DUP5 PUSH20 0xFFFFFFFFFFFFFFFFFFFFFFFFFFFFFFFFFFFFFFFF AND PUSH20 0xFFFFFFFFFFFFFFFFFFFFFFFFFFFFFFFFFFFFFFFF AND DUP2 MSTORE PUSH1 0x20 ADD SWAP1 DUP2 MSTORE PUSH1 0x20 ADD PUSH0 KECCAK256 PUSH0 PUSH2 0x100 EXP DUP2 SLOAD DUP2 PUSH1 0xFF MUL NOT AND SWAP1 DUP4 ISZERO ISZERO MUL OR SWAP1 SSTORE POP PUSH2 0x2098 PUSH2 0x2105 JUMP JUMPDEST PUSH20 0xFFFFFFFFFFFFFFFFFFFFFFFFFFFFFFFFFFFFFFFF AND DUP3 PUSH20 0xFFFFFFFFFFFFFFFFFFFFFFFFFFFFFFFFFFFFFFFF AND DUP5 PUSH32 0x2F8788117E7EFF1D82E926EC794901D17C78024A50270940304540A733656F0D PUSH1 0x40 MLOAD PUSH1 0x40 MLOAD DUP1 SWAP2 SUB SWAP1 LOG4 PUSH1 0x1 SWAP1 POP PUSH2 0x20FF JUMP JUMPDEST PUSH0 SWAP1 POP JUMPDEST SWAP3 SWAP2 POP POP JUMP JUMPDEST PUSH0 CALLER SWAP1 POP SWAP1 JUMP JUMPDEST PUSH0 PUSH2 0x2117 DUP4 DUP4 PUSH2 0x1A1F JUMP JUMPDEST ISZERO PUSH2 0x21EB JUMPI PUSH0 DUP1 PUSH0 DUP6 DUP2 MSTORE PUSH1 0x20 ADD SWAP1 DUP2 MSTORE PUSH1 0x20 ADD PUSH0 KECCAK256 PUSH0 ADD PUSH0 DUP5 PUSH20 0xFFFFFFFFFFFFFFFFFFFFFFFFFFFFFFFFFFFFFFFF AND PUSH20 0xFFFFFFFFFFFFFFFFFFFFFFFFFFFFFFFFFFFFFFFF AND DUP2 MSTORE PUSH1 0x20 ADD SWAP1 DUP2 MSTORE PUSH1 0x20 ADD PUSH0 KECCAK256 PUSH0 PUSH2 0x100 EXP DUP2 SLOAD DUP2 PUSH1 0xFF MUL NOT AND SWAP1 DUP4 ISZERO ISZERO MUL OR SWAP1 SSTORE POP PUSH2 0x2188 PUSH2 0x2105 JUMP JUMPDEST PUSH20 0xFFFFFFFFFFFFFFFFFFFFFFFFFFFFFFFFFFFFFFFF AND DUP3 PUSH20 0xFFFFFFFFFFFFFFFFFFFFFFFFFFFFFFFFFFFFFFFF AND DUP5 PUSH32 0xF6391F5C32D9C69D2A47EA670B442974B53935D1EDC7FD64EB21E047A839171B PUSH1 0x40 MLOAD PUSH1 0x40 MLOAD DUP1 SWAP2 SUB SWAP1 LOG4 PUSH1 0x1 SWAP1 POP PUSH2 0x21EF JUMP JUMPDEST PUSH0 SWAP1 POP JUMPDEST SWAP3 SWAP2 POP POP JUMP JUMPDEST PUSH1 0x2 PUSH1 0x1 SLOAD SUB PUSH2 0x223A JUMPI PUSH1 0x40 MLOAD PUSH32 0x8C379A000000000000000000000000000000000000000000000000000000000 DUP2 MSTORE PUSH1 0x4 ADD PUSH2 0x2231 SWAP1 PUSH2 0x3103 JUMP JUMPDEST PUSH1 0x40 MLOAD DUP1 SWAP2 SUB SWAP1 REVERT JUMPDEST PUSH1 0x2 PUSH1 0x1 DUP2 SWAP1 SSTORE POP JUMP JUMPDEST PUSH1 0x9 PUSH1 0x1 SWAP1 SLOAD SWAP1 PUSH2 0x100 EXP SWAP1 DIV PUSH1 0xFF AND ISZERO PUSH2 0x2294 JUMPI PUSH1 0x40 MLOAD PUSH32 0x8C379A000000000000000000000000000000000000000000000000000000000 DUP2 MSTORE PUSH1 0x4 ADD PUSH2 0x228B SWAP1 PUSH2 0x316B JUMP JUMPDEST PUSH1 0x40 MLOAD DUP1 SWAP2 SUB SWAP1 REVERT JUMPDEST PUSH1 0x1 PUSH1 0x9 PUSH1 0x1 PUSH2 0x100 EXP DUP2 SLOAD DUP2 PUSH1 0xFF MUL NOT AND SWAP1 DUP4 ISZERO ISZERO MUL OR SWAP1 SSTORE POP PUSH32 0x5B2AE23CD3AC75C4244AFECDE24848A0616CA7390C4C330A40A86D7E896D9462 PUSH1 0x40 MLOAD PUSH1 0x40 MLOAD DUP1 SWAP2 SUB SWAP1 LOG1 JUMP JUMPDEST PUSH2 0x2373 DUP2 PUSH1 0x40 MLOAD PUSH1 0x24 ADD PUSH2 0x22F1 SWAP2 SWAP1 PUSH2 0x3203 JUMP JUMPDEST PUSH1 0x40 MLOAD PUSH1 0x20 DUP2 DUP4 SUB SUB DUP2 MSTORE SWAP1 PUSH1 0x40 MSTORE PUSH32 0x41304FAC00000000000000000000000000000000000000000000000000000000 PUSH28 0xFFFFFFFFFFFFFFFFFFFFFFFFFFFFFFFFFFFFFFFFFFFFFFFFFFFFFFFF NOT AND PUSH1 0x20 DUP3 ADD DUP1 MLOAD PUSH28 0xFFFFFFFFFFFFFFFFFFFFFFFFFFFFFFFFFFFFFFFFFFFFFFFFFFFFFFFF DUP4 DUP2 DUP4 AND OR DUP4 MSTORE POP POP POP POP PUSH2 0x2604 JUMP JUMPDEST POP JUMP JUMPDEST PUSH2 0x240E DUP3 DUP3 PUSH1 0x40 MLOAD PUSH1 0x24 ADD PUSH2 0x238C SWAP3 SWAP2 SWAP1 PUSH2 0x3223 JUMP JUMPDEST PUSH1 0x40 MLOAD PUSH1 0x20 DUP2 DUP4 SUB SUB DUP2 MSTORE SWAP1 PUSH1 0x40 MSTORE PUSH32 0xB60E72CC00000000000000000000000000000000000000000000000000000000 PUSH28 0xFFFFFFFFFFFFFFFFFFFFFFFFFFFFFFFFFFFFFFFFFFFFFFFFFFFFFFFF NOT AND PUSH1 0x20 DUP3 ADD DUP1 MLOAD PUSH28 0xFFFFFFFFFFFFFFFFFFFFFFFFFFFFFFFFFFFFFFFFFFFFFFFFFFFFFFFF DUP4 DUP2 DUP4 AND OR DUP4 MSTORE POP POP POP POP PUSH2 0x2604 JUMP JUMPDEST POP POP JUMP JUMPDEST PUSH0 DUP2 DUP4 PUSH2 0x241F SWAP2 SWAP1 PUSH2 0x3251 JUMP JUMPDEST SWAP1 POP SWAP3 SWAP2 POP POP JUMP JUMPDEST PUSH0 DUP2 DUP4 PUSH2 0x2434 SWAP2 SWAP1 PUSH2 0x32BF JUMP JUMPDEST SWAP1 POP SWAP3 SWAP2 POP POP JUMP JUMPDEST PUSH0 DUP2 DUP4 PUSH2 0x2449 SWAP2 SWAP1 PUSH2 0x32EF JUMP JUMPDEST SWAP1 POP SWAP3 SWAP2 POP POP JUMP JUMPDEST PUSH2 0x24E9 DUP3 DUP3 PUSH1 0x40 MLOAD PUSH1 0x24 ADD PUSH2 0x2467 SWAP3 SWAP2 SWAP1 PUSH2 0x3322 JUMP JUMPDEST PUSH1 0x40 MLOAD PUSH1 0x20 DUP2 DUP4 SUB SUB DUP2 MSTORE SWAP1 PUSH1 0x40 MSTORE PUSH32 0x319AF33300000000000000000000000000000000000000000000000000000000 PUSH28 0xFFFFFFFFFFFFFFFFFFFFFFFFFFFFFFFFFFFFFFFFFFFFFFFFFFFFFFFF NOT AND PUSH1 0x20 DUP3 ADD DUP1 MLOAD PUSH28 0xFFFFFFFFFFFFFFFFFFFFFFFFFFFFFFFFFFFFFFFFFFFFFFFFFFFFFFFF DUP4 DUP2 DUP4 AND OR DUP4 MSTORE POP POP POP POP PUSH2 0x2604 JUMP JUMPDEST POP POP JUMP JUMPDEST PUSH1 0x1 DUP1 DUP2 SWAP1 SSTORE POP JUMP JUMPDEST PUSH0 DUP2 DUP4 PUSH2 0x2503 SWAP2 SWAP1 PUSH2 0x3350 JUMP JUMPDEST SWAP1 POP SWAP3 SWAP2 POP POP JUMP JUMPDEST PUSH0 DUP1 PUSH0 SWAP1 POP JUMPDEST PUSH1 0xB DUP1 SLOAD SWAP1 POP DUP2 LT ISZERO PUSH2 0x25A9 JUMPI DUP3 PUSH20 0xFFFFFFFFFFFFFFFFFFFFFFFFFFFFFFFFFFFFFFFF AND PUSH1 0xB DUP3 DUP2 SLOAD DUP2 LT PUSH2 0x2549 JUMPI PUSH2 0x2548 PUSH2 0x2D77 JUMP JUMPDEST JUMPDEST SWAP1 PUSH0 MSTORE PUSH1 0x20 PUSH0 KECCAK256 ADD PUSH0 SWAP1 SLOAD SWAP1 PUSH2 0x100 EXP SWAP1 DIV PUSH20 0xFFFFFFFFFFFFFFFFFFFFFFFFFFFFFFFFFFFFFFFF AND PUSH20 0xFFFFFFFFFFFFFFFFFFFFFFFFFFFFFFFFFFFFFFFF AND SUB PUSH2 0x2596 JUMPI PUSH1 0x1 SWAP2 POP POP PUSH2 0x25AE JUMP JUMPDEST DUP1 DUP1 PUSH2 0x25A1 SWAP1 PUSH2 0x2EC7 JUMP JUMPDEST SWAP2 POP POP PUSH2 0x2511 JUMP JUMPDEST POP PUSH0 SWAP1 POP JUMPDEST SWAP2 SWAP1 POP JUMP JUMPDEST PUSH2 0x25BD DUP3 DUP3 PUSH2 0x1A1F JUMP JUMPDEST PUSH2 0x2600 JUMPI DUP1 DUP3 PUSH1 0x40 MLOAD PUSH32 0xE2517D3F00000000000000000000000000000000000000000000000000000000 DUP2 MSTORE PUSH1 0x4 ADD PUSH2 0x25F7 SWAP3 SWAP2 SWAP1 PUSH2 0x3383 JUMP JUMPDEST PUSH1 0x40 MLOAD DUP1 SWAP2 SUB SWAP1 REVERT JUMPDEST POP POP JUMP JUMPDEST PUSH2 0x261B DUP2 PUSH2 0x2613 PUSH2 0x261E PUSH2 0x263D JUMP JUMPDEST PUSH4 0xFFFFFFFF AND JUMP JUMPDEST POP JUMP JUMPDEST PUSH0 PUSH11 0x636F6E736F6C652E6C6F67 SWAP1 POP PUSH0 DUP1 DUP4 MLOAD PUSH1 0x20 DUP6 ADD DUP5 GAS STATICCALL POP POP POP JUMP JUMPDEST PUSH2 0x2648 DUP2 SWAP1 POP SWAP2 SWAP1 POP JUMP JUMPDEST PUSH2 0x2650 PUSH2 0x33AA JUMP JUMPDEST JUMP JUMPDEST PUSH0 DUP3 DUP3 MSTORE PUSH1 0x20 DUP3 ADD SWAP1 POP SWAP3 SWAP2 POP POP JUMP JUMPDEST PUSH32 0x436F6E747261637420646F6573206E6F74206163636570742064697265637420 PUSH0 DUP3 ADD MSTORE PUSH32 0x7061796D656E7473000000000000000000000000000000000000000000000000 PUSH1 0x20 DUP3 ADD MSTORE POP JUMP JUMPDEST PUSH0 PUSH2 0x26BC PUSH1 0x28 DUP4 PUSH2 0x2652 JUMP JUMPDEST SWAP2 POP PUSH2 0x26C7 DUP3 PUSH2 0x2662 JUMP JUMPDEST PUSH1 0x40 DUP3 ADD SWAP1 POP SWAP2 SWAP1 POP JUMP JUMPDEST PUSH0 PUSH1 0x20 DUP3 ADD SWAP1 POP DUP2 DUP2 SUB PUSH0 DUP4 ADD MSTORE PUSH2 0x26E9 DUP2 PUSH2 0x26B0 JUMP JUMPDEST SWAP1 POP SWAP2 SWAP1 POP JUMP JUMPDEST PUSH0 DUP1 REVERT JUMPDEST PUSH0 PUSH32 0xFFFFFFFF00000000000000000000000000000000000000000000000000000000 DUP3 AND SWAP1 POP SWAP2 SWAP1 POP JUMP JUMPDEST PUSH2 0x2728 DUP2 PUSH2 0x26F4 JUMP JUMPDEST DUP2 EQ PUSH2 0x2732 JUMPI PUSH0 DUP1 REVERT JUMPDEST POP JUMP JUMPDEST PUSH0 DUP2 CALLDATALOAD SWAP1 POP PUSH2 0x2743 DUP2 PUSH2 0x271F JUMP JUMPDEST SWAP3 SWAP2 POP POP JUMP JUMPDEST PUSH0 PUSH1 0x20 DUP3 DUP5 SUB SLT ISZERO PUSH2 0x275E JUMPI PUSH2 0x275D PUSH2 0x26F0 JUMP JUMPDEST JUMPDEST PUSH0 PUSH2 0x276B DUP5 DUP3 DUP6 ADD PUSH2 0x2735 JUMP JUMPDEST SWAP2 POP POP SWAP3 SWAP2 POP POP JUMP JUMPDEST PUSH0 DUP2 ISZERO ISZERO SWAP1 POP SWAP2 SWAP1 POP JUMP JUMPDEST PUSH2 0x2788 DUP2 PUSH2 0x2774 JUMP JUMPDEST DUP3 MSTORE POP POP JUMP JUMPDEST PUSH0 PUSH1 0x20 DUP3 ADD SWAP1 POP PUSH2 0x27A1 PUSH0 DUP4 ADD DUP5 PUSH2 0x277F JUMP JUMPDEST SWAP3 SWAP2 POP POP JUMP JUMPDEST PUSH0 DUP2 SWAP1 POP SWAP2 SWAP1 POP JUMP JUMPDEST PUSH2 0x27B9 DUP2 PUSH2 0x27A7 JUMP JUMPDEST DUP2 EQ PUSH2 0x27C3 JUMPI PUSH0 DUP1 REVERT JUMPDEST POP JUMP JUMPDEST PUSH0 DUP2 CALLDATALOAD SWAP1 POP PUSH2 0x27D4 DUP2 PUSH2 0x27B0 JUMP JUMPDEST SWAP3 SWAP2 POP POP JUMP JUMPDEST PUSH0 PUSH1 0x20 DUP3 DUP5 SUB SLT ISZERO PUSH2 0x27EF JUMPI PUSH2 0x27EE PUSH2 0x26F0 JUMP JUMPDEST JUMPDEST PUSH0 PUSH2 0x27FC DUP5 DUP3 DUP6 ADD PUSH2 0x27C6 JUMP JUMPDEST SWAP2 POP POP SWAP3 SWAP2 POP POP JUMP JUMPDEST PUSH0 PUSH20 0xFFFFFFFFFFFFFFFFFFFFFFFFFFFFFFFFFFFFFFFF DUP3 AND SWAP1 POP SWAP2 SWAP1 POP JUMP JUMPDEST PUSH0 PUSH2 0x282E DUP3 PUSH2 0x2805 JUMP JUMPDEST SWAP1 POP SWAP2 SWAP1 POP JUMP JUMPDEST PUSH2 0x283E DUP2 PUSH2 0x2824 JUMP JUMPDEST DUP3 MSTORE POP POP JUMP JUMPDEST PUSH0 PUSH1 0x20 DUP3 ADD SWAP1 POP PUSH2 0x2857 PUSH0 DUP4 ADD DUP5 PUSH2 0x2835 JUMP JUMPDEST SWAP3 SWAP2 POP POP JUMP JUMPDEST PUSH2 0x2866 DUP2 PUSH2 0x27A7 JUMP JUMPDEST DUP3 MSTORE POP POP JUMP JUMPDEST PUSH0 PUSH1 0x20 DUP3 ADD SWAP1 POP PUSH2 0x287F PUSH0 DUP4 ADD DUP5 PUSH2 0x285D JUMP JUMPDEST SWAP3 SWAP2 POP POP JUMP JUMPDEST PUSH0 DUP2 SWAP1 POP SWAP2 SWAP1 POP JUMP JUMPDEST PUSH2 0x2897 DUP2 PUSH2 0x2885 JUMP JUMPDEST DUP2 EQ PUSH2 0x28A1 JUMPI PUSH0 DUP1 REVERT JUMPDEST POP JUMP JUMPDEST PUSH0 DUP2 CALLDATALOAD SWAP1 POP PUSH2 0x28B2 DUP2 PUSH2 0x288E JUMP JUMPDEST SWAP3 SWAP2 POP POP JUMP JUMPDEST PUSH0 PUSH1 0x20 DUP3 DUP5 SUB SLT ISZERO PUSH2 0x28CD JUMPI PUSH2 0x28CC PUSH2 0x26F0 JUMP JUMPDEST JUMPDEST PUSH0 PUSH2 0x28DA DUP5 DUP3 DUP6 ADD PUSH2 0x28A4 JUMP JUMPDEST SWAP2 POP POP SWAP3 SWAP2 POP POP JUMP JUMPDEST PUSH2 0x28EC DUP2 PUSH2 0x2885 JUMP JUMPDEST DUP3 MSTORE POP POP JUMP JUMPDEST PUSH0 PUSH1 0x20 DUP3 ADD SWAP1 POP PUSH2 0x2905 PUSH0 DUP4 ADD DUP5 PUSH2 0x28E3 JUMP JUMPDEST SWAP3 SWAP2 POP POP JUMP JUMPDEST PUSH2 0x2914 DUP2 PUSH2 0x2824 JUMP JUMPDEST DUP2 EQ PUSH2 0x291E JUMPI PUSH0 DUP1 REVERT JUMPDEST POP JUMP JUMPDEST PUSH0 DUP2 CALLDATALOAD SWAP1 POP PUSH2 0x292F DUP2 PUSH2 0x290B JUMP JUMPDEST SWAP3 SWAP2 POP POP JUMP JUMPDEST PUSH0 DUP1 PUSH1 0x40 DUP4 DUP6 SUB SLT ISZERO PUSH2 0x294B JUMPI PUSH2 0x294A PUSH2 0x26F0 JUMP JUMPDEST JUMPDEST PUSH0 PUSH2 0x2958 DUP6 DUP3 DUP7 ADD PUSH2 0x28A4 JUMP JUMPDEST SWAP3 POP POP PUSH1 0x20 PUSH2 0x2969 DUP6 DUP3 DUP7 ADD PUSH2 0x2921 JUMP JUMPDEST SWAP2 POP POP SWAP3 POP SWAP3 SWAP1 POP JUMP JUMPDEST PUSH0 PUSH1 0x20 DUP3 DUP5 SUB SLT ISZERO PUSH2 0x2988 JUMPI PUSH2 0x2987 PUSH2 0x26F0 JUMP JUMPDEST JUMPDEST PUSH0 PUSH2 0x2995 DUP5 DUP3 DUP6 ADD PUSH2 0x2921 JUMP JUMPDEST SWAP2 POP POP SWAP3 SWAP2 POP POP JUMP JUMPDEST PUSH32 0x4E6F74207468652061646D696E00000000000000000000000000000000000000 PUSH0 DUP3 ADD MSTORE POP JUMP JUMPDEST PUSH0 PUSH2 0x29D2 PUSH1 0xD DUP4 PUSH2 0x2652 JUMP JUMPDEST SWAP2 POP PUSH2 0x29DD DUP3 PUSH2 0x299E JUMP JUMPDEST PUSH1 0x20 DUP3 ADD SWAP1 POP SWAP2 SWAP1 POP JUMP JUMPDEST PUSH0 PUSH1 0x20 DUP3 ADD SWAP1 POP DUP2 DUP2 SUB PUSH0 DUP4 ADD MSTORE PUSH2 0x29FF DUP2 PUSH2 0x29C6 JUMP JUMPDEST SWAP1 POP SWAP2 SWAP1 POP JUMP JUMPDEST PUSH32 0x526169736520616C726561647920737461727465640000000000000000000000 PUSH0 DUP3 ADD MSTORE POP JUMP JUMPDEST PUSH0 PUSH2 0x2A3A PUSH1 0x15 DUP4 PUSH2 0x2652 JUMP JUMPDEST SWAP2 POP PUSH2 0x2A45 DUP3 PUSH2 0x2A06 JUMP JUMPDEST PUSH1 0x20 DUP3 ADD SWAP1 POP SWAP2 SWAP1 POP JUMP JUMPDEST PUSH0 PUSH1 0x20 DUP3 ADD SWAP1 POP DUP2 DUP2 SUB PUSH0 DUP4 ADD MSTORE PUSH2 0x2A67 DUP2 PUSH2 0x2A2E JUMP JUMPDEST SWAP1 POP SWAP2 SWAP1 POP JUMP JUMPDEST PUSH0 PUSH1 0x40 DUP3 ADD SWAP1 POP PUSH2 0x2A81 PUSH0 DUP4 ADD DUP6 PUSH2 0x2835 JUMP JUMPDEST PUSH2 0x2A8E PUSH1 0x20 DUP4 ADD DUP5 PUSH2 0x277F JUMP JUMPDEST SWAP4 SWAP3 POP POP POP JUMP JUMPDEST PUSH32 0x4D757374206861766520646566696E656420526F6C6573000000000000000000 PUSH0 DUP3 ADD MSTORE POP JUMP JUMPDEST PUSH0 PUSH2 0x2AC9 PUSH1 0x17 DUP4 PUSH2 0x2652 JUMP JUMPDEST SWAP2 POP PUSH2 0x2AD4 DUP3 PUSH2 0x2A95 JUMP JUMPDEST PUSH1 0x20 DUP3 ADD SWAP1 POP SWAP2 SWAP1 POP JUMP JUMPDEST PUSH0 PUSH1 0x20 DUP3 ADD SWAP1 POP DUP2 DUP2 SUB PUSH0 DUP4 ADD MSTORE PUSH2 0x2AF6 DUP2 PUSH2 0x2ABD JUMP JUMPDEST SWAP1 POP SWAP2 SWAP1 POP JUMP JUMPDEST PUSH32 0x5261697365206E6F7420656E6465640000000000000000000000000000000000 PUSH0 DUP3 ADD MSTORE POP JUMP JUMPDEST PUSH0 PUSH2 0x2B31 PUSH1 0xF DUP4 PUSH2 0x2652 JUMP JUMPDEST SWAP2 POP PUSH2 0x2B3C DUP3 PUSH2 0x2AFD JUMP JUMPDEST PUSH1 0x20 DUP3 ADD SWAP1 POP SWAP2 SWAP1 POP JUMP JUMPDEST PUSH0 PUSH1 0x20 DUP3 ADD SWAP1 POP DUP2 DUP2 SUB PUSH0 DUP4 ADD MSTORE PUSH2 0x2B5E DUP2 PUSH2 0x2B25 JUMP JUMPDEST SWAP1 POP SWAP2 SWAP1 POP JUMP JUMPDEST PUSH32 0x526173696564416D6F75742073686F756C64206E6F74206265207A65726F0000 PUSH0 DUP3 ADD MSTORE POP JUMP JUMPDEST PUSH0 PUSH2 0x2B99 PUSH1 0x1E DUP4 PUSH2 0x2652 JUMP JUMPDEST SWAP2 POP PUSH2 0x2BA4 DUP3 PUSH2 0x2B65 JUMP JUMPDEST PUSH1 0x20 DUP3 ADD SWAP1 POP SWAP2 SWAP1 POP JUMP JUMPDEST PUSH0 PUSH1 0x20 DUP3 ADD SWAP1 POP DUP2 DUP2 SUB PUSH0 DUP4 ADD MSTORE PUSH2 0x2BC6 DUP2 PUSH2 0x2B8D JUMP JUMPDEST SWAP1 POP SWAP2 SWAP1 POP JUMP JUMPDEST PUSH32 0x54786E206661696C656420666F72207468652061646D696E207768656E20746F PUSH0 DUP3 ADD MSTORE PUSH32 0x74616C20726173696564203C2068617264636170000000000000000000000000 PUSH1 0x20 DUP3 ADD MSTORE POP JUMP JUMPDEST PUSH0 PUSH2 0x2C27 PUSH1 0x34 DUP4 PUSH2 0x2652 JUMP JUMPDEST SWAP2 POP PUSH2 0x2C32 DUP3 PUSH2 0x2BCD JUMP JUMPDEST PUSH1 0x40 DUP3 ADD SWAP1 POP SWAP2 SWAP1 POP JUMP JUMPDEST PUSH0 PUSH1 0x20 DUP3 ADD SWAP1 POP DUP2 DUP2 SUB PUSH0 DUP4 ADD MSTORE PUSH2 0x2C54 DUP2 PUSH2 0x2C1B JUMP JUMPDEST SWAP1 POP SWAP2 SWAP1 POP JUMP JUMPDEST PUSH32 0x54786E206661696C656420666F72207468652053757065722041646D696E2077 PUSH0 DUP3 ADD MSTORE PUSH32 0x68656E20746F74616C20726173696564203C2068617264636170000000000000 PUSH1 0x20 DUP3 ADD MSTORE POP JUMP JUMPDEST PUSH0 PUSH2 0x2CB5 PUSH1 0x3A DUP4 PUSH2 0x2652 JUMP JUMPDEST SWAP2 POP PUSH2 0x2CC0 DUP3 PUSH2 0x2C5B JUMP JUMPDEST PUSH1 0x40 DUP3 ADD SWAP1 POP SWAP2 SWAP1 POP JUMP JUMPDEST PUSH0 PUSH1 0x20 DUP3 ADD SWAP1 POP DUP2 DUP2 SUB PUSH0 DUP4 ADD MSTORE PUSH2 0x2CE2 DUP2 PUSH2 0x2CA9 JUMP JUMPDEST SWAP1 POP SWAP2 SWAP1 POP JUMP JUMPDEST PUSH32 0x54786E206661696C656420666F72207468652061646D696E207768656E20746F PUSH0 DUP3 ADD MSTORE PUSH32 0x74616C20726173696564203E2068617264636170000000000000000000000000 PUSH1 0x20 DUP3 ADD MSTORE POP JUMP JUMPDEST PUSH0 PUSH2 0x2D43 PUSH1 0x34 DUP4 PUSH2 0x2652 JUMP JUMPDEST SWAP2 POP PUSH2 0x2D4E DUP3 PUSH2 0x2CE9 JUMP JUMPDEST PUSH1 0x40 DUP3 ADD SWAP1 POP SWAP2 SWAP1 POP JUMP JUMPDEST PUSH0 PUSH1 0x20 DUP3 ADD SWAP1 POP DUP2 DUP2 SUB PUSH0 DUP4 ADD MSTORE PUSH2 0x2D70 DUP2 PUSH2 0x2D37 JUMP JUMPDEST SWAP1 POP SWAP2 SWAP1 POP JUMP JUMPDEST PUSH32 0x4E487B7100000000000000000000000000000000000000000000000000000000 PUSH0 MSTORE PUSH1 0x32 PUSH1 0x4 MSTORE PUSH1 0x24 PUSH0 REVERT JUMPDEST PUSH32 0x4E6F7420612076616C6964206164647265737300000000000000000000000000 PUSH0 DUP3 ADD MSTORE POP JUMP JUMPDEST PUSH0 PUSH2 0x2DD8 PUSH1 0x13 DUP4 PUSH2 0x2652 JUMP JUMPDEST SWAP2 POP PUSH2 0x2DE3 DUP3 PUSH2 0x2DA4 JUMP JUMPDEST PUSH1 0x20 DUP3 ADD SWAP1 POP SWAP2 SWAP1 POP JUMP JUMPDEST PUSH0 PUSH1 0x20 DUP3 ADD SWAP1 POP DUP2 DUP2 SUB PUSH0 DUP4 ADD MSTORE PUSH2 0x2E05 DUP2 PUSH2 0x2DCC JUMP JUMPDEST SWAP1 POP SWAP2 SWAP1 POP JUMP JUMPDEST PUSH32 0x54786E206661696C656420666F722074686520636F6E7472696275746F725365 PUSH0 DUP3 ADD MSTORE PUSH32 0x6E64000000000000000000000000000000000000000000000000000000000000 PUSH1 0x20 DUP3 ADD MSTORE POP JUMP JUMPDEST PUSH0 PUSH2 0x2E66 PUSH1 0x22 DUP4 PUSH2 0x2652 JUMP JUMPDEST SWAP2 POP PUSH2 0x2E71 DUP3 PUSH2 0x2E0C JUMP JUMPDEST PUSH1 0x40 DUP3 ADD SWAP1 POP SWAP2 SWAP1 POP JUMP JUMPDEST PUSH0 PUSH1 0x20 DUP3 ADD SWAP1 POP DUP2 DUP2 SUB PUSH0 DUP4 ADD MSTORE PUSH2 0x2E93 DUP2 PUSH2 0x2E5A JUMP JUMPDEST SWAP1 POP SWAP2 SWAP1 POP JUMP JUMPDEST PUSH32 0x4E487B7100000000000000000000000000000000000000000000000000000000 PUSH0 MSTORE PUSH1 0x11 PUSH1 0x4 MSTORE PUSH1 0x24 PUSH0 REVERT JUMPDEST PUSH0 PUSH2 0x2ED1 DUP3 PUSH2 0x27A7 JUMP JUMPDEST SWAP2 POP PUSH32 0xFFFFFFFFFFFFFFFFFFFFFFFFFFFFFFFFFFFFFFFFFFFFFFFFFFFFFFFFFFFFFFFF DUP3 SUB PUSH2 0x2F03 JUMPI PUSH2 0x2F02 PUSH2 0x2E9A JUMP JUMPDEST JUMPDEST PUSH1 0x1 DUP3 ADD SWAP1 POP SWAP2 SWAP1 POP JUMP JUMPDEST PUSH32 0x54786E206661696C656420666F72207468652061646D696E207768656E20746F PUSH0 DUP3 ADD MSTORE PUSH32 0x74616C20726173696564203D3D20686172646361700000000000000000000000 PUSH1 0x20 DUP3 ADD MSTORE POP JUMP JUMPDEST PUSH0 PUSH2 0x2F68 PUSH1 0x35 DUP4 PUSH2 0x2652 JUMP JUMPDEST SWAP2 POP PUSH2 0x2F73 DUP3 PUSH2 0x2F0E JUMP JUMPDEST PUSH1 0x40 DUP3 ADD SWAP1 POP SWAP2 SWAP1 POP JUMP JUMPDEST PUSH0 PUSH1 0x20 DUP3 ADD SWAP1 POP DUP2 DUP2 SUB PUSH0 DUP4 ADD MSTORE PUSH2 0x2F95 DUP2 PUSH2 0x2F5C JUMP JUMPDEST SWAP1 POP SWAP2 SWAP1 POP JUMP JUMPDEST PUSH32 0x5261736965206D757374206265206F6E676F696E670000000000000000000000 PUSH0 DUP3 ADD MSTORE POP JUMP JUMPDEST PUSH0 PUSH2 0x2FD0 PUSH1 0x15 DUP4 PUSH2 0x2652 JUMP JUMPDEST SWAP2 POP PUSH2 0x2FDB DUP3 PUSH2 0x2F9C JUMP JUMPDEST PUSH1 0x20 DUP3 ADD SWAP1 POP SWAP2 SWAP1 POP JUMP JUMPDEST PUSH0 PUSH1 0x20 DUP3 ADD SWAP1 POP DUP2 DUP2 SUB PUSH0 DUP4 ADD MSTORE PUSH2 0x2FFD DUP2 PUSH2 0x2FC4 JUMP JUMPDEST SWAP1 POP SWAP2 SWAP1 POP JUMP JUMPDEST PUSH32 0x436F6E747269627574696F6E2073686F756C6420626520677265617465722074 PUSH0 DUP3 ADD MSTORE PUSH32 0x68616E206D696E696D756D20436F6E747269627574696F6E0000000000000000 PUSH1 0x20 DUP3 ADD MSTORE POP JUMP JUMPDEST PUSH0 PUSH2 0x305E PUSH1 0x38 DUP4 PUSH2 0x2652 JUMP JUMPDEST SWAP2 POP PUSH2 0x3069 DUP3 PUSH2 0x3004 JUMP JUMPDEST PUSH1 0x40 DUP3 ADD SWAP1 POP SWAP2 SWAP1 POP JUMP JUMPDEST PUSH0 PUSH1 0x20 DUP3 ADD SWAP1 POP DUP2 DUP2 SUB PUSH0 DUP4 ADD MSTORE PUSH2 0x308B DUP2 PUSH2 0x3052 JUMP JUMPDEST SWAP1 POP SWAP2 SWAP1 POP JUMP JUMPDEST PUSH0 PUSH1 0x40 DUP3 ADD SWAP1 POP PUSH2 0x30A5 PUSH0 DUP4 ADD DUP6 PUSH2 0x285D JUMP JUMPDEST PUSH2 0x30B2 PUSH1 0x20 DUP4 ADD DUP5 PUSH2 0x285D JUMP JUMPDEST SWAP4 SWAP3 POP POP POP JUMP JUMPDEST PUSH32 0x5265656E7472616E637947756172643A207265656E7472616E742063616C6C00 PUSH0 DUP3 ADD MSTORE POP JUMP JUMPDEST PUSH0 PUSH2 0x30ED PUSH1 0x1F DUP4 PUSH2 0x2652 JUMP JUMPDEST SWAP2 POP PUSH2 0x30F8 DUP3 PUSH2 0x30B9 JUMP JUMPDEST PUSH1 0x20 DUP3 ADD SWAP1 POP SWAP2 SWAP1 POP JUMP JUMPDEST PUSH0 PUSH1 0x20 DUP3 ADD SWAP1 POP DUP2 DUP2 SUB PUSH0 DUP4 ADD MSTORE PUSH2 0x311A DUP2 PUSH2 0x30E1 JUMP JUMPDEST SWAP1 POP SWAP2 SWAP1 POP JUMP JUMPDEST PUSH32 0x526169736520616C726561647920656E64656400000000000000000000000000 PUSH0 DUP3 ADD MSTORE POP JUMP JUMPDEST PUSH0 PUSH2 0x3155 PUSH1 0x13 DUP4 PUSH2 0x2652 JUMP JUMPDEST SWAP2 POP PUSH2 0x3160 DUP3 PUSH2 0x3121 JUMP JUMPDEST PUSH1 0x20 DUP3 ADD SWAP1 POP SWAP2 SWAP1 POP JUMP JUMPDEST PUSH0 PUSH1 0x20 DUP3 ADD SWAP1 POP DUP2 DUP2 SUB PUSH0 DUP4 ADD MSTORE PUSH2 0x3182 DUP2 PUSH2 0x3149 JUMP JUMPDEST SWAP1 POP SWAP2 SWAP1 POP JUMP JUMPDEST PUSH0 DUP2 MLOAD SWAP1 POP SWAP2 SWAP1 POP JUMP JUMPDEST PUSH0 JUMPDEST DUP4 DUP2 LT ISZERO PUSH2 0x31B0 JUMPI DUP1 DUP3 ADD MLOAD DUP2 DUP5 ADD MSTORE PUSH1 0x20 DUP2 ADD SWAP1 POP PUSH2 0x3195 JUMP JUMPDEST PUSH0 DUP5 DUP5 ADD MSTORE POP POP POP POP JUMP JUMPDEST PUSH0 PUSH1 0x1F NOT PUSH1 0x1F DUP4 ADD AND SWAP1 POP SWAP2 SWAP1 POP JUMP JUMPDEST PUSH0 PUSH2 0x31D5 DUP3 PUSH2 0x3189 JUMP JUMPDEST PUSH2 0x31DF DUP2 DUP6 PUSH2 0x2652 JUMP JUMPDEST SWAP4 POP PUSH2 0x31EF DUP2 DUP6 PUSH1 0x20 DUP7 ADD PUSH2 0x3193 JUMP JUMPDEST PUSH2 0x31F8 DUP2 PUSH2 0x31BB JUMP JUMPDEST DUP5 ADD SWAP2 POP POP SWAP3 SWAP2 POP POP JUMP JUMPDEST PUSH0 PUSH1 0x20 DUP3 ADD SWAP1 POP DUP2 DUP2 SUB PUSH0 DUP4 ADD MSTORE PUSH2 0x321B DUP2 DUP5 PUSH2 0x31CB JUMP JUMPDEST SWAP1 POP SWAP3 SWAP2 POP POP JUMP JUMPDEST PUSH0 PUSH1 0x40 DUP3 ADD SWAP1 POP DUP2 DUP2 SUB PUSH0 DUP4 ADD MSTORE PUSH2 0x323B DUP2 DUP6 PUSH2 0x31CB JUMP JUMPDEST SWAP1 POP PUSH2 0x324A PUSH1 0x20 DUP4 ADD DUP5 PUSH2 0x285D JUMP JUMPDEST SWAP4 SWAP3 POP POP POP JUMP JUMPDEST PUSH0 PUSH2 0x325B DUP3 PUSH2 0x27A7 JUMP JUMPDEST SWAP2 POP PUSH2 0x3266 DUP4 PUSH2 0x27A7 JUMP JUMPDEST SWAP3 POP DUP3 DUP3 MUL PUSH2 0x3274 DUP2 PUSH2 0x27A7 JUMP JUMPDEST SWAP2 POP DUP3 DUP3 DIV DUP5 EQ DUP4 ISZERO OR PUSH2 0x328B JUMPI PUSH2 0x328A PUSH2 0x2E9A JUMP JUMPDEST JUMPDEST POP SWAP3 SWAP2 POP POP JUMP JUMPDEST PUSH32 0x4E487B7100000000000000000000000000000000000000000000000000000000 PUSH0 MSTORE PUSH1 0x12 PUSH1 0x4 MSTORE PUSH1 0x24 PUSH0 REVERT JUMPDEST PUSH0 PUSH2 0x32C9 DUP3 PUSH2 0x27A7 JUMP JUMPDEST SWAP2 POP PUSH2 0x32D4 DUP4 PUSH2 0x27A7 JUMP JUMPDEST SWAP3 POP DUP3 PUSH2 0x32E4 JUMPI PUSH2 0x32E3 PUSH2 0x3292 JUMP JUMPDEST JUMPDEST DUP3 DUP3 DIV SWAP1 POP SWAP3 SWAP2 POP POP JUMP JUMPDEST PUSH0 PUSH2 0x32F9 DUP3 PUSH2 0x27A7 JUMP JUMPDEST SWAP2 POP PUSH2 0x3304 DUP4 PUSH2 0x27A7 JUMP JUMPDEST SWAP3 POP DUP3 DUP3 SUB SWAP1 POP DUP2 DUP2 GT ISZERO PUSH2 0x331C JUMPI PUSH2 0x331B PUSH2 0x2E9A JUMP JUMPDEST JUMPDEST SWAP3 SWAP2 POP POP JUMP JUMPDEST PUSH0 PUSH1 0x40 DUP3 ADD SWAP1 POP DUP2 DUP2 SUB PUSH0 DUP4 ADD MSTORE PUSH2 0x333A DUP2 DUP6 PUSH2 0x31CB JUMP JUMPDEST SWAP1 POP PUSH2 0x3349 PUSH1 0x20 DUP4 ADD DUP5 PUSH2 0x2835 JUMP JUMPDEST SWAP4 SWAP3 POP POP POP JUMP JUMPDEST PUSH0 PUSH2 0x335A DUP3 PUSH2 0x27A7 JUMP JUMPDEST SWAP2 POP PUSH2 0x3365 DUP4 PUSH2 0x27A7 JUMP JUMPDEST SWAP3 POP DUP3 DUP3 ADD SWAP1 POP DUP1 DUP3 GT ISZERO PUSH2 0x337D JUMPI PUSH2 0x337C PUSH2 0x2E9A JUMP JUMPDEST JUMPDEST SWAP3 SWAP2 POP POP JUMP JUMPDEST PUSH0 PUSH1 0x40 DUP3 ADD SWAP1 POP PUSH2 0x3396 PUSH0 DUP4 ADD DUP6 PUSH2 0x2835 JUMP JUMPDEST PUSH2 0x33A3 PUSH1 0x20 DUP4 ADD DUP5 PUSH2 0x28E3 JUMP JUMPDEST SWAP4 SWAP3 POP POP POP JUMP JUMPDEST PUSH32 0x4E487B7100000000000000000000000000000000000000000000000000000000 PUSH0 MSTORE PUSH1 0x51 PUSH1 0x4 MSTORE PUSH1 0x24 PUSH0 REVERT INVALID PUSH2 0x646D PUSH10 0x6E416D6F756E74205768 PUSH6 0x6E20746F7461 PUSH13 0x20726173696564203C20686172 PUSH5 0x6361706164 PUSH14 0x696E416D6F756E74205768656E20 PUSH21 0x6F74616C20726173696564203D3D20686172646361 PUSH17 0x737570657241646D696E416D7420576865 PUSH15 0x20746F74616C20726173696564203D RETURNDATASIZE KECCAK256 PUSH9 0x617264636170207375 PUSH17 0x657241646D696E416D74205768656E2074 PUSH16 0x74616C20726173696564203C20686172 PUSH5 0x6361702041 PUSH19 0x65207765207265616C6C7920726566756E6469 PUSH15 0x6720746F2074686520757365727373 PUSH22 0x70657241646D696E416D74205768656E20746F74616C KECCAK256 PUSH19 0x6173696564203E20686172646361702061646D PUSH10 0x6E416D6F756E74205768 PUSH6 0x6E20746F7461 PUSH13 0x20726173696564203E20686172 PUSH5 0x636170A264 PUSH10 0x70667358221220AFC265 DUP8 0x27 0xA9 SHL 0xC9 SWAP11 0x4C PUSH17 0x9577264C6EFAC135867467C78594717C1E 0xB8 0xE3 0xBF LT PUSH5 0x736F6C6343 STOP ADDMOD EQ STOP CALLER LOG2 PUSH5 0x6970667358 0x22 SLT KECCAK256 0xDA MSTORE8 PUSH10 0xDEECF26D3E69BCDE17E5 0x2B 0xA9 CALLDATACOPY 0xAE 0x2B 0xF SWAP9 0xE8 CALLDATASIZE PUSH9 0x5A1AEB86F5FBC4B3CF PUSH5 0x736F6C6343 STOP ADDMOD EQ STOP CALLER "
		},
		"gasEstimates": {
			"creation": {
				"codeDepositCost": "3496600",
				"executionCost": "infinite",
				"totalCost": "infinite"
			},
			"external": {
				"changingSuperAdmin(address)": "28067",
				"createRaisingContract(uint256,uint256)": "infinite",
				"getRaisingContractsCount()": "2484",
				"preSaleCharges(uint256)": "infinite",
				"raisingContracts(uint256)": "infinite",
				"superAdmin()": "2486"
			}
		},
		"methodIdentifiers": {
			"changingSuperAdmin(address)": "7a0625f7",
			"createRaisingContract(uint256,uint256)": "cd1e3ae7",
			"getRaisingContractsCount()": "a8cd3474",
			"preSaleCharges(uint256)": "5b4b6fe5",
			"raisingContracts(uint256)": "d58e42ff",
			"superAdmin()": "29575f6a"
		}
	},
	"abi": [
		{
			"inputs": [
				{
					"internalType": "address",
					"name": "_superAdmin",
					"type": "address"
				}
			],
			"stateMutability": "nonpayable",
			"type": "constructor"
		},
		{
			"anonymous": false,
			"inputs": [
				{
					"indexed": true,
					"internalType": "address",
					"name": "raisingContractAddress",
					"type": "address"
				},
				{
					"indexed": true,
					"internalType": "address",
					"name": "creator",
					"type": "address"
				},
				{
					"indexed": true,
					"internalType": "address",
					"name": "_superAdmin",
					"type": "address"
				},
				{
					"indexed": false,
					"internalType": "uint256",
					"name": "_time",
					"type": "uint256"
				}
			],
			"name": "RaisingContractCreated",
			"type": "event"
		},
		{
			"anonymous": false,
			"inputs": [
				{
					"indexed": false,
					"internalType": "uint256",
					"name": "_fee",
					"type": "uint256"
				}
			],
			"name": "preSaleChargesEvent",
			"type": "event"
		},
		{
			"anonymous": false,
			"inputs": [
				{
					"indexed": true,
					"internalType": "address",
					"name": "_superAdmin",
					"type": "address"
				}
			],
			"name": "superAdminChanged",
			"type": "event"
		},
		{
			"inputs": [
				{
					"internalType": "address",
					"name": "_superAdmin",
					"type": "address"
				}
			],
			"name": "changingSuperAdmin",
			"outputs": [],
			"stateMutability": "nonpayable",
			"type": "function"
		},
		{
			"inputs": [
				{
					"internalType": "uint256",
					"name": "_hardCap",
					"type": "uint256"
				},
				{
					"internalType": "uint256",
					"name": "_minContribution",
					"type": "uint256"
				}
			],
			"name": "createRaisingContract",
			"outputs": [],
			"stateMutability": "payable",
			"type": "function"
		},
		{
			"inputs": [],
			"name": "getRaisingContractsCount",
			"outputs": [
				{
					"internalType": "uint256",
					"name": "",
					"type": "uint256"
				}
			],
			"stateMutability": "view",
			"type": "function"
		},
		{
			"inputs": [
				{
					"internalType": "uint256",
					"name": "_fee",
					"type": "uint256"
				}
			],
			"name": "preSaleCharges",
			"outputs": [],
			"stateMutability": "nonpayable",
			"type": "function"
		},
		{
			"inputs": [
				{
					"internalType": "uint256",
					"name": "",
					"type": "uint256"
				}
			],
			"name": "raisingContracts",
			"outputs": [
				{
					"internalType": "contract raisingContract",
					"name": "",
					"type": "address"
				}
			],
			"stateMutability": "view",
			"type": "function"
		},
		{
			"inputs": [],
			"name": "superAdmin",
			"outputs": [
				{
					"internalType": "address",
					"name": "",
					"type": "address"
				}
			],
			"stateMutability": "view",
			"type": "function"
		}
	]
}