{
	"data": {
		"bytecode": {
			"linkReferences": {},
			"object": "6080604052600a60055534801562000015575f80fd5b506040516200397a3803806200397a83398181016040528101906200003b919062000363565b600180819055508160025f6101000a81548173ffffffffffffffffffffffffffffffffffffffff021916908373ffffffffffffffffffffffffffffffffffffffff1602179055508360035f6101000a81548173ffffffffffffffffffffffffffffffffffffffff021916908373ffffffffffffffffffffffffffffffffffffffff1602179055508260068190555080600781905550620001237fa49807205ce4d355092ef5a8a18f56e8913cf4a201fbe287825b095693c2177560035f9054906101000a900473ffffffffffffffffffffffffffffffffffffffff166200016160201b60201c565b50620001567fd980155b32cf66e6af51e0972d64b9d5efe0e6f237dfaa4bdc83f990dd79e9c8836200016160201b60201c565b5050505050620003d2565b5f6200017483836200025c60201b60201c565b620002525760015f808581526020019081526020015f205f015f8473ffffffffffffffffffffffffffffffffffffffff1673ffffffffffffffffffffffffffffffffffffffff1681526020019081526020015f205f6101000a81548160ff021916908315150217905550620001ee620002bf60201b60201c565b73ffffffffffffffffffffffffffffffffffffffff168273ffffffffffffffffffffffffffffffffffffffff16847f2f8788117e7eff1d82e926ec794901d17c78024a50270940304540a733656f0d60405160405180910390a46001905062000256565b5f90505b92915050565b5f805f8481526020019081526020015f205f015f8373ffffffffffffffffffffffffffffffffffffffff1673ffffffffffffffffffffffffffffffffffffffff1681526020019081526020015f205f9054906101000a900460ff16905092915050565b5f33905090565b5f80fd5b5f73ffffffffffffffffffffffffffffffffffffffff82169050919050565b5f620002f582620002ca565b9050919050565b6200030781620002e9565b811462000312575f80fd5b50565b5f815190506200032581620002fc565b92915050565b5f819050919050565b6200033f816200032b565b81146200034a575f80fd5b50565b5f815190506200035d8162000334565b92915050565b5f805f80608085870312156200037e576200037d620002c6565b5b5f6200038d8782880162000315565b9450506020620003a0878288016200034d565b9350506040620003b38782880162000315565b9250506060620003c6878288016200034d565b91505092959194509250565b61359a80620003e05f395ff3fe6080604052600436106101fc575f3560e01c80637c7c7c3c1161010c578063a217fddf1161009f578063d18d944b1161006e578063d18d944b14610718578063d547741f14610740578063d7bb99ba14610768578063e43252d714610772578063fb86a4041461079a5761023c565b8063a217fddf14610672578063aaffadf31461069c578063b8e0d08d146106c6578063c5c4744c146106ee5761023c565b80638d070e75116100db5780638d070e75146105c65780638d3d6576146105d057806391d14854146105fa5780639b19251a146106365761023c565b80637c7c7c3c146105225780637ce3489b1461054c5780637fd6f15c146105745780638ab1d6811461059e5761023c565b80632f2ff15d1161018f578063473b0d461161015e578063473b0d46146104665780636d66d2ce1461048e5780636f9fb98a146104a4578063708dee5e146104ce57806375b238fc146104f85761023c565b80632f2ff15d146103b057806336568abe146103d85780633e0498d21461040057806342e94c901461042a5761023c565b80631e2f73b1116101cb5780631e2f73b11461030a578063248a9ca31461033457806329575f6a146103705780632b67b6711461039a5761023c565b806301ffc9a71461024057806303ed9d211461027c5780630b9f2c4a146102a45780631e206f15146102e05761023c565b3661023c576040517f08c379a000000000000000000000000000000000000000000000000000000000815260040161023390612746565b60405180910390fd5b5f80fd5b34801561024b575f80fd5b50610266600480360381019061026191906127bd565b6107c4565b6040516102739190612802565b60405180910390f35b348015610287575f80fd5b506102a2600480360381019061029d919061284e565b61083d565b005b3480156102af575f80fd5b506102ca60048036038101906102c5919061284e565b610908565b6040516102d791906128b8565b60405180910390f35b3480156102eb575f80fd5b506102f4610943565b60405161030191906128e0565b60405180910390f35b348015610315575f80fd5b5061031e610949565b60405161032b91906128b8565b60405180910390f35b34801561033f575f80fd5b5061035a6004803603810190610355919061292c565b61096e565b6040516103679190612966565b60405180910390f35b34801561037b575f80fd5b5061038461098a565b60405161039191906128b8565b60405180910390f35b3480156103a5575f80fd5b506103ae6109af565b005b3480156103bb575f80fd5b506103d660048036038101906103d191906129a9565b610aa3565b005b3480156103e3575f80fd5b506103fe60048036038101906103f991906129a9565b610ac5565b005b34801561040b575f80fd5b50610414610b40565b6040516104219190612802565b60405180910390f35b348015610435575f80fd5b50610450600480360381019061044b91906129e7565b610b53565b60405161045d91906128e0565b60405180910390f35b348015610471575f80fd5b5061048c6004803603810190610487919061284e565b610b68565b005b348015610499575f80fd5b506104a2610c33565b005b3480156104af575f80fd5b506104b8610d54565b6040516104c591906128e0565b60405180910390f35b3480156104d9575f80fd5b506104e2610d5b565b6040516104ef9190612802565b60405180910390f35b348015610503575f80fd5b5061050c610d6d565b6040516105199190612966565b60405180910390f35b34801561052d575f80fd5b50610536610d91565b6040516105439190612966565b60405180910390f35b348015610557575f80fd5b50610572600480360381019061056d919061284e565b610db5565b005b34801561057f575f80fd5b50610588610e49565b60405161059591906128e0565b60405180910390f35b3480156105a9575f80fd5b506105c460048036038101906105bf91906129e7565b610e4f565b005b6105ce610f69565b005b3480156105db575f80fd5b506105e4611b26565b6040516105f191906128e0565b60405180910390f35b348015610605575f80fd5b50610620600480360381019061061b91906129a9565b611b2c565b60405161062d9190612802565b60405180910390f35b348015610641575f80fd5b5061065c600480360381019061065791906129e7565b611b8f565b6040516106699190612802565b60405180910390f35b34801561067d575f80fd5b50610686611bac565b6040516106939190612966565b60405180910390f35b3480156106a7575f80fd5b506106b0611bb2565b6040516106bd91906128e0565b60405180910390f35b3480156106d1575f80fd5b506106ec60048036038101906106e7919061284e565b611bb8565b005b3480156106f9575f80fd5b50610702611c83565b60405161070f91906128e0565b60405180910390f35b348015610723575f80fd5b5061073e6004803603810190610739919061284e565b611c89565b005b34801561074b575f80fd5b50610766600480360381019061076191906129a9565b611d1d565b005b610770611d3f565b005b34801561077d575f80fd5b50610798600480360381019061079391906129e7565b611f8a565b005b3480156107a5575f80fd5b506107ae6120a6565b6040516107bb91906128e0565b60405180910390f35b5f7f7965db0b000000000000000000000000000000000000000000000000000000007bffffffffffffffffffffffffffffffffffffffffffffffffffffffff1916827bffffffffffffffffffffffffffffffffffffffffffffffffffffffff191614806108365750610835826120ac565b5b9050919050565b6108887fa49807205ce4d355092ef5a8a18f56e8913cf4a201fbe287825b095693c2177560035f9054906101000a900473ffffffffffffffffffffffffffffffffffffffff16611b2c565b6108c7576040517f08c379a00000000000000000000000000000000000000000000000000000000081526004016108be90612a5c565b60405180910390fd5b806008819055507f8645f88287b79f16d91266da1d35b7adc817d75a89a9577504b01fbc37ed5a6f816040516108fd91906128e0565b60405180910390a150565b600b8181548110610917575f80fd5b905f5260205f20015f915054906101000a900473ffffffffffffffffffffffffffffffffffffffff1681565b600a5481565b60035f9054906101000a900473ffffffffffffffffffffffffffffffffffffffff1681565b5f805f8381526020019081526020015f20600101549050919050565b60025f9054906101000a900473ffffffffffffffffffffffffffffffffffffffff1681565b600960019054906101000a900460ff16156109ff576040517f08c379a00000000000000000000000000000000000000000000000000000000081526004016109f690612ac4565b60405180910390fd5b6001600960016101000a81548160ff0219169083151502179055503073ffffffffffffffffffffffffffffffffffffffff16638d070e756040518163ffffffff1660e01b81526004015f604051808303815f87803b158015610a5f575f80fd5b505af1158015610a71573d5f803e3d5ffd5b505050507f5b2ae23cd3ac75c4244afecde24848a0616ca7390c4c330a40a86d7e896d946260405160405180910390a1565b610aac8261096e565b610ab581612115565b610abf8383612129565b50505050565b610acd612212565b73ffffffffffffffffffffffffffffffffffffffff168173ffffffffffffffffffffffffffffffffffffffff1614610b31576040517f6697b23200000000000000000000000000000000000000000000000000000000815260040160405180910390fd5b610b3b8282612219565b505050565b600960019054906101000a900460ff1681565b600c602052805f5260405f205f915090505481565b610bb37fa49807205ce4d355092ef5a8a18f56e8913cf4a201fbe287825b095693c2177560035f9054906101000a900473ffffffffffffffffffffffffffffffffffffffff16611b2c565b610bf2576040517f08c379a0000000000000000000000000000000000000000000000000000000008152600401610be990612a5c565b60405180910390fd5b806007819055507f9e87cf72973cdb82f6a3c58fa8ef538fd3088801e3f3033afd06fa390ca4876c81604051610c2891906128e0565b60405180910390a150565b610c7e7fa49807205ce4d355092ef5a8a18f56e8913cf4a201fbe287825b095693c2177560035f9054906101000a900473ffffffffffffffffffffffffffffffffffffffff16611b2c565b610cbd576040517f08c379a0000000000000000000000000000000000000000000000000000000008152600401610cb490612a5c565b60405180910390fd5b60095f9054906101000a900460ff1615610d0c576040517f08c379a0000000000000000000000000000000000000000000000000000000008152600401610d0390612b2c565b60405180910390fd5b600160095f6101000a81548160ff0219169083151502179055507f8cf55e5373cd35327ecd6e48f19a6101684947fd385c07fb95117b3695ec2e9b60405160405180910390a1565b5f47905090565b60095f9054906101000a900460ff1681565b7fa49807205ce4d355092ef5a8a18f56e8913cf4a201fbe287825b095693c2177581565b7fd980155b32cf66e6af51e0972d64b9d5efe0e6f237dfaa4bdc83f990dd79e9c881565b610e007fa49807205ce4d355092ef5a8a18f56e8913cf4a201fbe287825b095693c2177560035f9054906101000a900473ffffffffffffffffffffffffffffffffffffffff16611b2c565b610e3f576040517f08c379a0000000000000000000000000000000000000000000000000000000008152600401610e3690612a5c565b60405180910390fd5b8060058190555050565b60055481565b610e9a7fa49807205ce4d355092ef5a8a18f56e8913cf4a201fbe287825b095693c2177560035f9054906101000a900473ffffffffffffffffffffffffffffffffffffffff16611b2c565b610ed9576040517f08c379a0000000000000000000000000000000000000000000000000000000008152600401610ed090612a5c565b60405180910390fd5b5f600d5f8373ffffffffffffffffffffffffffffffffffffffff1673ffffffffffffffffffffffffffffffffffffffff1681526020019081526020015f205f6101000a81548160ff0219169083151502179055507ff93f9a76c1bf3444d22400a00cb9fe990e6abe9dbb333fda48859cfee864543d815f604051610f5e929190612b4a565b60405180910390a150565b610fb47fa49807205ce4d355092ef5a8a18f56e8913cf4a201fbe287825b095693c2177560035f9054906101000a900473ffffffffffffffffffffffffffffffffffffffff16611b2c565b8061100657506110057fd980155b32cf66e6af51e0972d64b9d5efe0e6f237dfaa4bdc83f990dd79e9c860025f9054906101000a900473ffffffffffffffffffffffffffffffffffffffff16611b2c565b5b611045576040517f08c379a000000000000000000000000000000000000000000000000000000000815260040161103c90612bbb565b60405180910390fd5b61104d612302565b6001600960016101000a81548160ff02191690831515021790556110a6576040517f08c379a000000000000000000000000000000000000000000000000000000000815260040161109d90612c23565b60405180910390fd5b5f600454116110ea576040517f08c379a00000000000000000000000000000000000000000000000000000000081526004016110e190612c8b565b60405180910390fd5b5f806006546004541015611335576111366040518060400160405280601a81526020017f5768656e20746f74616c526173696564203c2068617264436170000000000000815250612351565b6111776040518060400160405280600b81526020017f546f74616c5261697365640000000000000000000000000000000000000000008152506004546123ea565b6111a1606461119360055460045461248690919063ffffffff16565b61249b90919063ffffffff16565b91506111b8826004546124b090919063ffffffff16565b90506111dc6040518060600160405280602a81526020016134c6602a9139836123ea565b6111fe60405180606001604052806027815260200161344c60279139826123ea565b5f60035f9054906101000a900473ffffffffffffffffffffffffffffffffffffffff1673ffffffffffffffffffffffffffffffffffffffff166108fc8390811502906040515f60405180830381858888f19350505050905080611296576040517f08c379a000000000000000000000000000000000000000000000000000000000815260040161128d90612d19565b60405180910390fd5b5f60025f9054906101000a900473ffffffffffffffffffffffffffffffffffffffff1673ffffffffffffffffffffffffffffffffffffffff166108fc8590811502906040515f60405180830381858888f1935050505090508061132e576040517f08c379a000000000000000000000000000000000000000000000000000000000815260040161132590612da7565b60405180910390fd5b5050611ad8565b60065460045411156118925761137f6040518060400160405280601a81526020017f5768656e20746f74616c526173696564203e2068617264436170000000000000815250612351565b6113c06040518060400160405280600b81526020017f546f74616c5261697365640000000000000000000000000000000000000000008152506004546123ea565b6113ea60646113dc60055460065461248690919063ffffffff16565b61249b90919063ffffffff16565b9150611401826006546124b090919063ffffffff16565b90506114256040518060600160405280602a8152602001613514602a9139836123ea565b61144760405180606001604052806027815260200161353e60279139826123ea565b5f60035f9054906101000a900473ffffffffffffffffffffffffffffffffffffffff1673ffffffffffffffffffffffffffffffffffffffff166108fc8390811502906040515f60405180830381858888f193505050509050806114df576040517f08c379a00000000000000000000000000000000000000000000000000000000081526004016114d690612e35565b60405180910390fd5b5f60025f9054906101000a900473ffffffffffffffffffffffffffffffffffffffff1673ffffffffffffffffffffffffffffffffffffffff166108fc8590811502906040515f60405180830381858888f19350505050905080611577576040517f08c379a000000000000000000000000000000000000000000000000000000000815260040161156e90612e35565b60405180910390fd5b5f6115a3600a546115956006546004546124b090919063ffffffff16565b61249b90919063ffffffff16565b90506115e46040518060400160405280601a81526020017f726566756e64416d6f756e74506572436f6e7472696275746f72000000000000815250826123ea565b6116226040518060400160405280601a81526020017f436865636b696e6720657665727920636f6e7472696275746f72000000000000815250612351565b5f5b600a54811015611889575f600b828154811061164357611642612e53565b5b905f5260205f20015f9054906101000a900473ffffffffffffffffffffffffffffffffffffffff1690506116ac6040518060400160405280601081526020017f636f6e7472696275746f72206c69737400000000000000000000000000000000815250826124c5565b5f600c5f8373ffffffffffffffffffffffffffffffffffffffff1673ffffffffffffffffffffffffffffffffffffffff1681526020019081526020015f2054905083811115611835575f73ffffffffffffffffffffffffffffffffffffffff168273ffffffffffffffffffffffffffffffffffffffff1614158061175c57505f73ffffffffffffffffffffffffffffffffffffffff168273ffffffffffffffffffffffffffffffffffffffff1614155b61179b576040517f08c379a000000000000000000000000000000000000000000000000000000000815260040161179290612eca565b60405180910390fd5b6117bc6040518060600160405280602481526020016134f060249139612351565b5f8273ffffffffffffffffffffffffffffffffffffffff166108fc8690811502906040515f60405180830381858888f19350505050905080611833576040517f08c379a000000000000000000000000000000000000000000000000000000000815260040161182a90612f58565b60405180910390fd5b505b6118746040518060400160405280600d81526020017f72657475726e20416d6f756e7400000000000000000000000000000000000000815250856123ea565b5050808061188190612fa3565b915050611624565b50505050611ad7565b60065460045403611ad6576118db6040518060400160405280601b81526020017f5768656e20746f74616c526173696564203d3d20686172644361700000000000815250612351565b61191c6040518060400160405280600b81526020017f546f74616c5261697365640000000000000000000000000000000000000000008152506004546123ea565b611946606461193860055460065461248690919063ffffffff16565b61249b90919063ffffffff16565b915061195d826006546124b090919063ffffffff16565b90506119816040518060600160405280602b815260200161349b602b9139836123ea565b6119a360405180606001604052806028815260200161347360289139826123ea565b5f60035f9054906101000a900473ffffffffffffffffffffffffffffffffffffffff1673ffffffffffffffffffffffffffffffffffffffff166108fc8390811502906040515f60405180830381858888f19350505050905080611a3b576040517f08c379a0000000000000000000000000000000000000000000000000000000008152600401611a329061305a565b60405180910390fd5b5f60025f9054906101000a900473ffffffffffffffffffffffffffffffffffffffff1673ffffffffffffffffffffffffffffffffffffffff166108fc8590811502906040515f60405180830381858888f19350505050905080611ad3576040517f08c379a0000000000000000000000000000000000000000000000000000000008152600401611aca9061305a565b60405180910390fd5b50505b5b5b5f6004819055505f600a819055505f60095f6101000a81548160ff0219169083151502179055506001600960016101000a81548160ff0219169083151502179055505050611b24612561565b565b60085481565b5f805f8481526020019081526020015f205f015f8373ffffffffffffffffffffffffffffffffffffffff1673ffffffffffffffffffffffffffffffffffffffff1681526020019081526020015f205f9054906101000a900460ff16905092915050565b600d602052805f5260405f205f915054906101000a900460ff1681565b5f801b81565b60075481565b611c037fa49807205ce4d355092ef5a8a18f56e8913cf4a201fbe287825b095693c2177560035f9054906101000a900473ffffffffffffffffffffffffffffffffffffffff16611b2c565b611c42576040517f08c379a0000000000000000000000000000000000000000000000000000000008152600401611c3990612a5c565b60405180910390fd5b806006819055507fe65e8475ae8eba2b732012a0734794875a0fdbdccfed8398fff4da0c8e0fa00e81604051611c7891906128e0565b60405180910390a150565b60045481565b611cd47fa49807205ce4d355092ef5a8a18f56e8913cf4a201fbe287825b095693c2177560035f9054906101000a900473ffffffffffffffffffffffffffffffffffffffff16611b2c565b611d13576040517f08c379a0000000000000000000000000000000000000000000000000000000008152600401611d0a90612a5c565b60405180910390fd5b8060068190555050565b611d268261096e565b611d2f81612115565b611d398383612219565b50505050565b611d47612302565b60095f9054906101000a900460ff168015611d6f5750600960019054906101000a900460ff16155b611dae576040517f08c379a0000000000000000000000000000000000000000000000000000000008152600401611da5906130c2565b60405180910390fd5b6007543410158015611dc057505f3414155b611dff576040517f08c379a0000000000000000000000000000000000000000000000000000000008152600401611df690613150565b60405180910390fd5b611e4f34600c5f3373ffffffffffffffffffffffffffffffffffffffff1673ffffffffffffffffffffffffffffffffffffffff1681526020019081526020015f205461256a90919063ffffffff16565b600c5f3373ffffffffffffffffffffffffffffffffffffffff1673ffffffffffffffffffffffffffffffffffffffff1681526020019081526020015f2081905550611ea53460045461256a90919063ffffffff16565b600481905550600a5f815480929190611ebd90612fa3565b9190505550611ecb3361257f565b611f3057600b33908060018154018082558091505060019003905f5260205f20015f9091909190916101000a81548173ffffffffffffffffffffffffffffffffffffffff021916908373ffffffffffffffffffffffffffffffffffffffff1602179055505b3373ffffffffffffffffffffffffffffffffffffffff167f1d5d67670fd52e22078bbab523a5ead8206c7991225dd63095e3d3d6b5be3baf3442604051611f7892919061316e565b60405180910390a2611f88612561565b565b611fd57fa49807205ce4d355092ef5a8a18f56e8913cf4a201fbe287825b095693c2177560035f9054906101000a900473ffffffffffffffffffffffffffffffffffffffff16611b2c565b612014576040517f08c379a000000000000000000000000000000000000000000000000000000000815260040161200b90612a5c565b60405180910390fd5b6001600d5f8373ffffffffffffffffffffffffffffffffffffffff1673ffffffffffffffffffffffffffffffffffffffff1681526020019081526020015f205f6101000a81548160ff0219169083151502179055507ff93f9a76c1bf3444d22400a00cb9fe990e6abe9dbb333fda48859cfee864543d81600160405161209b929190612b4a565b60405180910390a150565b60065481565b5f7f01ffc9a7000000000000000000000000000000000000000000000000000000007bffffffffffffffffffffffffffffffffffffffffffffffffffffffff1916827bffffffffffffffffffffffffffffffffffffffffffffffffffffffff1916149050919050565b61212681612121612212565b612627565b50565b5f6121348383611b2c565b6122085760015f808581526020019081526020015f205f015f8473ffffffffffffffffffffffffffffffffffffffff1673ffffffffffffffffffffffffffffffffffffffff1681526020019081526020015f205f6101000a81548160ff0219169083151502179055506121a5612212565b73ffffffffffffffffffffffffffffffffffffffff168273ffffffffffffffffffffffffffffffffffffffff16847f2f8788117e7eff1d82e926ec794901d17c78024a50270940304540a733656f0d60405160405180910390a46001905061220c565b5f90505b92915050565b5f33905090565b5f6122248383611b2c565b156122f8575f805f8581526020019081526020015f205f015f8473ffffffffffffffffffffffffffffffffffffffff1673ffffffffffffffffffffffffffffffffffffffff1681526020019081526020015f205f6101000a81548160ff021916908315150217905550612295612212565b73ffffffffffffffffffffffffffffffffffffffff168273ffffffffffffffffffffffffffffffffffffffff16847ff6391f5c32d9c69d2a47ea670b442974b53935d1edc7fd64eb21e047a839171b60405160405180910390a4600190506122fc565b5f90505b92915050565b600260015403612347576040517f08c379a000000000000000000000000000000000000000000000000000000000815260040161233e906131df565b60405180910390fd5b6002600181905550565b6123e7816040516024016123659190613277565b6040516020818303038152906040527f41304fac000000000000000000000000000000000000000000000000000000007bffffffffffffffffffffffffffffffffffffffffffffffffffffffff19166020820180517bffffffffffffffffffffffffffffffffffffffffffffffffffffffff8381831617835250505050612678565b50565b6124828282604051602401612400929190613297565b6040516020818303038152906040527fb60e72cc000000000000000000000000000000000000000000000000000000007bffffffffffffffffffffffffffffffffffffffffffffffffffffffff19166020820180517bffffffffffffffffffffffffffffffffffffffffffffffffffffffff8381831617835250505050612678565b5050565b5f818361249391906132c5565b905092915050565b5f81836124a89190613333565b905092915050565b5f81836124bd9190613363565b905092915050565b61255d82826040516024016124db929190613396565b6040516020818303038152906040527f319af333000000000000000000000000000000000000000000000000000000007bffffffffffffffffffffffffffffffffffffffffffffffffffffffff19166020820180517bffffffffffffffffffffffffffffffffffffffffffffffffffffffff8381831617835250505050612678565b5050565b60018081905550565b5f818361257791906133c4565b905092915050565b5f805f90505b600b8054905081101561261d578273ffffffffffffffffffffffffffffffffffffffff16600b82815481106125bd576125bc612e53565b5b905f5260205f20015f9054906101000a900473ffffffffffffffffffffffffffffffffffffffff1673ffffffffffffffffffffffffffffffffffffffff160361260a576001915050612622565b808061261590612fa3565b915050612585565b505f90505b919050565b6126318282611b2c565b6126745780826040517fe2517d3f00000000000000000000000000000000000000000000000000000000815260040161266b9291906133f7565b60405180910390fd5b5050565b61268f816126876126926126b1565b63ffffffff16565b50565b5f6a636f6e736f6c652e6c6f6790505f80835160208501845afa505050565b6126bc819050919050565b6126c461341e565b565b5f82825260208201905092915050565b7f436f6e747261637420646f6573206e6f742061636365707420646972656374205f8201527f7061796d656e7473000000000000000000000000000000000000000000000000602082015250565b5f6127306028836126c6565b915061273b826126d6565b604082019050919050565b5f6020820190508181035f83015261275d81612724565b9050919050565b5f80fd5b5f7fffffffff0000000000000000000000000000000000000000000000000000000082169050919050565b61279c81612768565b81146127a6575f80fd5b50565b5f813590506127b781612793565b92915050565b5f602082840312156127d2576127d1612764565b5b5f6127df848285016127a9565b91505092915050565b5f8115159050919050565b6127fc816127e8565b82525050565b5f6020820190506128155f8301846127f3565b92915050565b5f819050919050565b61282d8161281b565b8114612837575f80fd5b50565b5f8135905061284881612824565b92915050565b5f6020828403121561286357612862612764565b5b5f6128708482850161283a565b91505092915050565b5f73ffffffffffffffffffffffffffffffffffffffff82169050919050565b5f6128a282612879565b9050919050565b6128b281612898565b82525050565b5f6020820190506128cb5f8301846128a9565b92915050565b6128da8161281b565b82525050565b5f6020820190506128f35f8301846128d1565b92915050565b5f819050919050565b61290b816128f9565b8114612915575f80fd5b50565b5f8135905061292681612902565b92915050565b5f6020828403121561294157612940612764565b5b5f61294e84828501612918565b91505092915050565b612960816128f9565b82525050565b5f6020820190506129795f830184612957565b92915050565b61298881612898565b8114612992575f80fd5b50565b5f813590506129a38161297f565b92915050565b5f80604083850312156129bf576129be612764565b5b5f6129cc85828601612918565b92505060206129dd85828601612995565b9150509250929050565b5f602082840312156129fc576129fb612764565b5b5f612a0984828501612995565b91505092915050565b7f4e6f74207468652061646d696e000000000000000000000000000000000000005f82015250565b5f612a46600d836126c6565b9150612a5182612a12565b602082019050919050565b5f6020820190508181035f830152612a7381612a3a565b9050919050565b7f526169736520616c726561647920656e646564000000000000000000000000005f82015250565b5f612aae6013836126c6565b9150612ab982612a7a565b602082019050919050565b5f6020820190508181035f830152612adb81612aa2565b9050919050565b7f526169736520616c7265616479207374617274656400000000000000000000005f82015250565b5f612b166015836126c6565b9150612b2182612ae2565b602082019050919050565b5f6020820190508181035f830152612b4381612b0a565b9050919050565b5f604082019050612b5d5f8301856128a9565b612b6a60208301846127f3565b9392505050565b7f4d757374206861766520646566696e656420526f6c65730000000000000000005f82015250565b5f612ba56017836126c6565b9150612bb082612b71565b602082019050919050565b5f6020820190508181035f830152612bd281612b99565b9050919050565b7f5261697365206e6f7420656e64656400000000000000000000000000000000005f82015250565b5f612c0d600f836126c6565b9150612c1882612bd9565b602082019050919050565b5f6020820190508181035f830152612c3a81612c01565b9050919050565b7f526173696564416d6f75742073686f756c64206e6f74206265207a65726f00005f82015250565b5f612c75601e836126c6565b9150612c8082612c41565b602082019050919050565b5f6020820190508181035f830152612ca281612c69565b9050919050565b7f54786e206661696c656420666f72207468652061646d696e207768656e20746f5f8201527f74616c20726173696564203c2068617264636170000000000000000000000000602082015250565b5f612d036034836126c6565b9150612d0e82612ca9565b604082019050919050565b5f6020820190508181035f830152612d3081612cf7565b9050919050565b7f54786e206661696c656420666f72207468652053757065722041646d696e20775f8201527f68656e20746f74616c20726173696564203c2068617264636170000000000000602082015250565b5f612d91603a836126c6565b9150612d9c82612d37565b604082019050919050565b5f6020820190508181035f830152612dbe81612d85565b9050919050565b7f54786e206661696c656420666f72207468652061646d696e207768656e20746f5f8201527f74616c20726173696564203e2068617264636170000000000000000000000000602082015250565b5f612e1f6034836126c6565b9150612e2a82612dc5565b604082019050919050565b5f6020820190508181035f830152612e4c81612e13565b9050919050565b7f4e487b71000000000000000000000000000000000000000000000000000000005f52603260045260245ffd5b7f4e6f7420612076616c69642061646472657373000000000000000000000000005f82015250565b5f612eb46013836126c6565b9150612ebf82612e80565b602082019050919050565b5f6020820190508181035f830152612ee181612ea8565b9050919050565b7f54786e206661696c656420666f722074686520636f6e7472696275746f7253655f8201527f6e64000000000000000000000000000000000000000000000000000000000000602082015250565b5f612f426022836126c6565b9150612f4d82612ee8565b604082019050919050565b5f6020820190508181035f830152612f6f81612f36565b9050919050565b7f4e487b71000000000000000000000000000000000000000000000000000000005f52601160045260245ffd5b5f612fad8261281b565b91507fffffffffffffffffffffffffffffffffffffffffffffffffffffffffffffffff8203612fdf57612fde612f76565b5b600182019050919050565b7f54786e206661696c656420666f72207468652061646d696e207768656e20746f5f8201527f74616c20726173696564203d3d20686172646361700000000000000000000000602082015250565b5f6130446035836126c6565b915061304f82612fea565b604082019050919050565b5f6020820190508181035f83015261307181613038565b9050919050565b7f5261736965206d757374206265206f6e676f696e6700000000000000000000005f82015250565b5f6130ac6015836126c6565b91506130b782613078565b602082019050919050565b5f6020820190508181035f8301526130d9816130a0565b9050919050565b7f436f6e747269627574696f6e2073686f756c64206265206772656174657220745f8201527f68616e206d696e696d756d20436f6e747269627574696f6e0000000000000000602082015250565b5f61313a6038836126c6565b9150613145826130e0565b604082019050919050565b5f6020820190508181035f8301526131678161312e565b9050919050565b5f6040820190506131815f8301856128d1565b61318e60208301846128d1565b9392505050565b7f5265656e7472616e637947756172643a207265656e7472616e742063616c6c005f82015250565b5f6131c9601f836126c6565b91506131d482613195565b602082019050919050565b5f6020820190508181035f8301526131f6816131bd565b9050919050565b5f81519050919050565b5f5b83811015613224578082015181840152602081019050613209565b5f8484015250505050565b5f601f19601f8301169050919050565b5f613249826131fd565b61325381856126c6565b9350613263818560208601613207565b61326c8161322f565b840191505092915050565b5f6020820190508181035f83015261328f818461323f565b905092915050565b5f6040820190508181035f8301526132af818561323f565b90506132be60208301846128d1565b9392505050565b5f6132cf8261281b565b91506132da8361281b565b92508282026132e88161281b565b915082820484148315176132ff576132fe612f76565b5b5092915050565b7f4e487b71000000000000000000000000000000000000000000000000000000005f52601260045260245ffd5b5f61333d8261281b565b91506133488361281b565b92508261335857613357613306565b5b828204905092915050565b5f61336d8261281b565b91506133788361281b565b92508282039050818111156133905761338f612f76565b5b92915050565b5f6040820190508181035f8301526133ae818561323f565b90506133bd60208301846128a9565b9392505050565b5f6133ce8261281b565b91506133d98361281b565b92508282019050808211156133f1576133f0612f76565b5b92915050565b5f60408201905061340a5f8301856128a9565b6134176020830184612957565b9392505050565b7f4e487b71000000000000000000000000000000000000000000000000000000005f52605160045260245ffdfe61646d696e416d6f756e74205768656e20746f74616c20726173696564203c206861726463617061646d696e416d6f756e74205768656e20746f74616c20726173696564203d3d2068617264636170737570657241646d696e416d74205768656e20746f74616c20726173696564203d3d206861726463617020737570657241646d696e416d74205768656e20746f74616c20726173696564203c206861726463617020417265207765207265616c6c7920726566756e64696e6720746f20746865207573657273737570657241646d696e416d74205768656e20746f74616c20726173696564203e20686172646361702061646d696e416d6f756e74205768656e20746f74616c20726173696564203e2068617264636170a264697066735822122047331bf18a82bcf2da590a230dac88012971c29e45ab507a01a9b0692406d40264736f6c63430008140033",
			"opcodes": "PUSH1 0x80 PUSH1 0x40 MSTORE PUSH1 0xA PUSH1 0x5 SSTORE CALLVALUE DUP1 ISZERO PUSH3 0x15 JUMPI PUSH0 DUP1 REVERT JUMPDEST POP PUSH1 0x40 MLOAD PUSH3 0x397A CODESIZE SUB DUP1 PUSH3 0x397A DUP4 CODECOPY DUP2 DUP2 ADD PUSH1 0x40 MSTORE DUP2 ADD SWAP1 PUSH3 0x3B SWAP2 SWAP1 PUSH3 0x363 JUMP JUMPDEST PUSH1 0x1 DUP1 DUP2 SWAP1 SSTORE POP DUP2 PUSH1 0x2 PUSH0 PUSH2 0x100 EXP DUP2 SLOAD DUP2 PUSH20 0xFFFFFFFFFFFFFFFFFFFFFFFFFFFFFFFFFFFFFFFF MUL NOT AND SWAP1 DUP4 PUSH20 0xFFFFFFFFFFFFFFFFFFFFFFFFFFFFFFFFFFFFFFFF AND MUL OR SWAP1 SSTORE POP DUP4 PUSH1 0x3 PUSH0 PUSH2 0x100 EXP DUP2 SLOAD DUP2 PUSH20 0xFFFFFFFFFFFFFFFFFFFFFFFFFFFFFFFFFFFFFFFF MUL NOT AND SWAP1 DUP4 PUSH20 0xFFFFFFFFFFFFFFFFFFFFFFFFFFFFFFFFFFFFFFFF AND MUL OR SWAP1 SSTORE POP DUP3 PUSH1 0x6 DUP2 SWAP1 SSTORE POP DUP1 PUSH1 0x7 DUP2 SWAP1 SSTORE POP PUSH3 0x123 PUSH32 0xA49807205CE4D355092EF5A8A18F56E8913CF4A201FBE287825B095693C21775 PUSH1 0x3 PUSH0 SWAP1 SLOAD SWAP1 PUSH2 0x100 EXP SWAP1 DIV PUSH20 0xFFFFFFFFFFFFFFFFFFFFFFFFFFFFFFFFFFFFFFFF AND PUSH3 0x161 PUSH1 0x20 SHL PUSH1 0x20 SHR JUMP JUMPDEST POP PUSH3 0x156 PUSH32 0xD980155B32CF66E6AF51E0972D64B9D5EFE0E6F237DFAA4BDC83F990DD79E9C8 DUP4 PUSH3 0x161 PUSH1 0x20 SHL PUSH1 0x20 SHR JUMP JUMPDEST POP POP POP POP POP PUSH3 0x3D2 JUMP JUMPDEST PUSH0 PUSH3 0x174 DUP4 DUP4 PUSH3 0x25C PUSH1 0x20 SHL PUSH1 0x20 SHR JUMP JUMPDEST PUSH3 0x252 JUMPI PUSH1 0x1 PUSH0 DUP1 DUP6 DUP2 MSTORE PUSH1 0x20 ADD SWAP1 DUP2 MSTORE PUSH1 0x20 ADD PUSH0 KECCAK256 PUSH0 ADD PUSH0 DUP5 PUSH20 0xFFFFFFFFFFFFFFFFFFFFFFFFFFFFFFFFFFFFFFFF AND PUSH20 0xFFFFFFFFFFFFFFFFFFFFFFFFFFFFFFFFFFFFFFFF AND DUP2 MSTORE PUSH1 0x20 ADD SWAP1 DUP2 MSTORE PUSH1 0x20 ADD PUSH0 KECCAK256 PUSH0 PUSH2 0x100 EXP DUP2 SLOAD DUP2 PUSH1 0xFF MUL NOT AND SWAP1 DUP4 ISZERO ISZERO MUL OR SWAP1 SSTORE POP PUSH3 0x1EE PUSH3 0x2BF PUSH1 0x20 SHL PUSH1 0x20 SHR JUMP JUMPDEST PUSH20 0xFFFFFFFFFFFFFFFFFFFFFFFFFFFFFFFFFFFFFFFF AND DUP3 PUSH20 0xFFFFFFFFFFFFFFFFFFFFFFFFFFFFFFFFFFFFFFFF AND DUP5 PUSH32 0x2F8788117E7EFF1D82E926EC794901D17C78024A50270940304540A733656F0D PUSH1 0x40 MLOAD PUSH1 0x40 MLOAD DUP1 SWAP2 SUB SWAP1 LOG4 PUSH1 0x1 SWAP1 POP PUSH3 0x256 JUMP JUMPDEST PUSH0 SWAP1 POP JUMPDEST SWAP3 SWAP2 POP POP JUMP JUMPDEST PUSH0 DUP1 PUSH0 DUP5 DUP2 MSTORE PUSH1 0x20 ADD SWAP1 DUP2 MSTORE PUSH1 0x20 ADD PUSH0 KECCAK256 PUSH0 ADD PUSH0 DUP4 PUSH20 0xFFFFFFFFFFFFFFFFFFFFFFFFFFFFFFFFFFFFFFFF AND PUSH20 0xFFFFFFFFFFFFFFFFFFFFFFFFFFFFFFFFFFFFFFFF AND DUP2 MSTORE PUSH1 0x20 ADD SWAP1 DUP2 MSTORE PUSH1 0x20 ADD PUSH0 KECCAK256 PUSH0 SWAP1 SLOAD SWAP1 PUSH2 0x100 EXP SWAP1 DIV PUSH1 0xFF AND SWAP1 POP SWAP3 SWAP2 POP POP JUMP JUMPDEST PUSH0 CALLER SWAP1 POP SWAP1 JUMP JUMPDEST PUSH0 DUP1 REVERT JUMPDEST PUSH0 PUSH20 0xFFFFFFFFFFFFFFFFFFFFFFFFFFFFFFFFFFFFFFFF DUP3 AND SWAP1 POP SWAP2 SWAP1 POP JUMP JUMPDEST PUSH0 PUSH3 0x2F5 DUP3 PUSH3 0x2CA JUMP JUMPDEST SWAP1 POP SWAP2 SWAP1 POP JUMP JUMPDEST PUSH3 0x307 DUP2 PUSH3 0x2E9 JUMP JUMPDEST DUP2 EQ PUSH3 0x312 JUMPI PUSH0 DUP1 REVERT JUMPDEST POP JUMP JUMPDEST PUSH0 DUP2 MLOAD SWAP1 POP PUSH3 0x325 DUP2 PUSH3 0x2FC JUMP JUMPDEST SWAP3 SWAP2 POP POP JUMP JUMPDEST PUSH0 DUP2 SWAP1 POP SWAP2 SWAP1 POP JUMP JUMPDEST PUSH3 0x33F DUP2 PUSH3 0x32B JUMP JUMPDEST DUP2 EQ PUSH3 0x34A JUMPI PUSH0 DUP1 REVERT JUMPDEST POP JUMP JUMPDEST PUSH0 DUP2 MLOAD SWAP1 POP PUSH3 0x35D DUP2 PUSH3 0x334 JUMP JUMPDEST SWAP3 SWAP2 POP POP JUMP JUMPDEST PUSH0 DUP1 PUSH0 DUP1 PUSH1 0x80 DUP6 DUP8 SUB SLT ISZERO PUSH3 0x37E JUMPI PUSH3 0x37D PUSH3 0x2C6 JUMP JUMPDEST JUMPDEST PUSH0 PUSH3 0x38D DUP8 DUP3 DUP9 ADD PUSH3 0x315 JUMP JUMPDEST SWAP5 POP POP PUSH1 0x20 PUSH3 0x3A0 DUP8 DUP3 DUP9 ADD PUSH3 0x34D JUMP JUMPDEST SWAP4 POP POP PUSH1 0x40 PUSH3 0x3B3 DUP8 DUP3 DUP9 ADD PUSH3 0x315 JUMP JUMPDEST SWAP3 POP POP PUSH1 0x60 PUSH3 0x3C6 DUP8 DUP3 DUP9 ADD PUSH3 0x34D JUMP JUMPDEST SWAP2 POP POP SWAP3 SWAP6 SWAP2 SWAP5 POP SWAP3 POP JUMP JUMPDEST PUSH2 0x359A DUP1 PUSH3 0x3E0 PUSH0 CODECOPY PUSH0 RETURN INVALID PUSH1 0x80 PUSH1 0x40 MSTORE PUSH1 0x4 CALLDATASIZE LT PUSH2 0x1FC JUMPI PUSH0 CALLDATALOAD PUSH1 0xE0 SHR DUP1 PUSH4 0x7C7C7C3C GT PUSH2 0x10C JUMPI DUP1 PUSH4 0xA217FDDF GT PUSH2 0x9F JUMPI DUP1 PUSH4 0xD18D944B GT PUSH2 0x6E JUMPI DUP1 PUSH4 0xD18D944B EQ PUSH2 0x718 JUMPI DUP1 PUSH4 0xD547741F EQ PUSH2 0x740 JUMPI DUP1 PUSH4 0xD7BB99BA EQ PUSH2 0x768 JUMPI DUP1 PUSH4 0xE43252D7 EQ PUSH2 0x772 JUMPI DUP1 PUSH4 0xFB86A404 EQ PUSH2 0x79A JUMPI PUSH2 0x23C JUMP JUMPDEST DUP1 PUSH4 0xA217FDDF EQ PUSH2 0x672 JUMPI DUP1 PUSH4 0xAAFFADF3 EQ PUSH2 0x69C JUMPI DUP1 PUSH4 0xB8E0D08D EQ PUSH2 0x6C6 JUMPI DUP1 PUSH4 0xC5C4744C EQ PUSH2 0x6EE JUMPI PUSH2 0x23C JUMP JUMPDEST DUP1 PUSH4 0x8D070E75 GT PUSH2 0xDB JUMPI DUP1 PUSH4 0x8D070E75 EQ PUSH2 0x5C6 JUMPI DUP1 PUSH4 0x8D3D6576 EQ PUSH2 0x5D0 JUMPI DUP1 PUSH4 0x91D14854 EQ PUSH2 0x5FA JUMPI DUP1 PUSH4 0x9B19251A EQ PUSH2 0x636 JUMPI PUSH2 0x23C JUMP JUMPDEST DUP1 PUSH4 0x7C7C7C3C EQ PUSH2 0x522 JUMPI DUP1 PUSH4 0x7CE3489B EQ PUSH2 0x54C JUMPI DUP1 PUSH4 0x7FD6F15C EQ PUSH2 0x574 JUMPI DUP1 PUSH4 0x8AB1D681 EQ PUSH2 0x59E JUMPI PUSH2 0x23C JUMP JUMPDEST DUP1 PUSH4 0x2F2FF15D GT PUSH2 0x18F JUMPI DUP1 PUSH4 0x473B0D46 GT PUSH2 0x15E JUMPI DUP1 PUSH4 0x473B0D46 EQ PUSH2 0x466 JUMPI DUP1 PUSH4 0x6D66D2CE EQ PUSH2 0x48E JUMPI DUP1 PUSH4 0x6F9FB98A EQ PUSH2 0x4A4 JUMPI DUP1 PUSH4 0x708DEE5E EQ PUSH2 0x4CE JUMPI DUP1 PUSH4 0x75B238FC EQ PUSH2 0x4F8 JUMPI PUSH2 0x23C JUMP JUMPDEST DUP1 PUSH4 0x2F2FF15D EQ PUSH2 0x3B0 JUMPI DUP1 PUSH4 0x36568ABE EQ PUSH2 0x3D8 JUMPI DUP1 PUSH4 0x3E0498D2 EQ PUSH2 0x400 JUMPI DUP1 PUSH4 0x42E94C90 EQ PUSH2 0x42A JUMPI PUSH2 0x23C JUMP JUMPDEST DUP1 PUSH4 0x1E2F73B1 GT PUSH2 0x1CB JUMPI DUP1 PUSH4 0x1E2F73B1 EQ PUSH2 0x30A JUMPI DUP1 PUSH4 0x248A9CA3 EQ PUSH2 0x334 JUMPI DUP1 PUSH4 0x29575F6A EQ PUSH2 0x370 JUMPI DUP1 PUSH4 0x2B67B671 EQ PUSH2 0x39A JUMPI PUSH2 0x23C JUMP JUMPDEST DUP1 PUSH4 0x1FFC9A7 EQ PUSH2 0x240 JUMPI DUP1 PUSH4 0x3ED9D21 EQ PUSH2 0x27C JUMPI DUP1 PUSH4 0xB9F2C4A EQ PUSH2 0x2A4 JUMPI DUP1 PUSH4 0x1E206F15 EQ PUSH2 0x2E0 JUMPI PUSH2 0x23C JUMP JUMPDEST CALLDATASIZE PUSH2 0x23C JUMPI PUSH1 0x40 MLOAD PUSH32 0x8C379A000000000000000000000000000000000000000000000000000000000 DUP2 MSTORE PUSH1 0x4 ADD PUSH2 0x233 SWAP1 PUSH2 0x2746 JUMP JUMPDEST PUSH1 0x40 MLOAD DUP1 SWAP2 SUB SWAP1 REVERT JUMPDEST PUSH0 DUP1 REVERT JUMPDEST CALLVALUE DUP1 ISZERO PUSH2 0x24B JUMPI PUSH0 DUP1 REVERT JUMPDEST POP PUSH2 0x266 PUSH1 0x4 DUP1 CALLDATASIZE SUB DUP2 ADD SWAP1 PUSH2 0x261 SWAP2 SWAP1 PUSH2 0x27BD JUMP JUMPDEST PUSH2 0x7C4 JUMP JUMPDEST PUSH1 0x40 MLOAD PUSH2 0x273 SWAP2 SWAP1 PUSH2 0x2802 JUMP JUMPDEST PUSH1 0x40 MLOAD DUP1 SWAP2 SUB SWAP1 RETURN JUMPDEST CALLVALUE DUP1 ISZERO PUSH2 0x287 JUMPI PUSH0 DUP1 REVERT JUMPDEST POP PUSH2 0x2A2 PUSH1 0x4 DUP1 CALLDATASIZE SUB DUP2 ADD SWAP1 PUSH2 0x29D SWAP2 SWAP1 PUSH2 0x284E JUMP JUMPDEST PUSH2 0x83D JUMP JUMPDEST STOP JUMPDEST CALLVALUE DUP1 ISZERO PUSH2 0x2AF JUMPI PUSH0 DUP1 REVERT JUMPDEST POP PUSH2 0x2CA PUSH1 0x4 DUP1 CALLDATASIZE SUB DUP2 ADD SWAP1 PUSH2 0x2C5 SWAP2 SWAP1 PUSH2 0x284E JUMP JUMPDEST PUSH2 0x908 JUMP JUMPDEST PUSH1 0x40 MLOAD PUSH2 0x2D7 SWAP2 SWAP1 PUSH2 0x28B8 JUMP JUMPDEST PUSH1 0x40 MLOAD DUP1 SWAP2 SUB SWAP1 RETURN JUMPDEST CALLVALUE DUP1 ISZERO PUSH2 0x2EB JUMPI PUSH0 DUP1 REVERT JUMPDEST POP PUSH2 0x2F4 PUSH2 0x943 JUMP JUMPDEST PUSH1 0x40 MLOAD PUSH2 0x301 SWAP2 SWAP1 PUSH2 0x28E0 JUMP JUMPDEST PUSH1 0x40 MLOAD DUP1 SWAP2 SUB SWAP1 RETURN JUMPDEST CALLVALUE DUP1 ISZERO PUSH2 0x315 JUMPI PUSH0 DUP1 REVERT JUMPDEST POP PUSH2 0x31E PUSH2 0x949 JUMP JUMPDEST PUSH1 0x40 MLOAD PUSH2 0x32B SWAP2 SWAP1 PUSH2 0x28B8 JUMP JUMPDEST PUSH1 0x40 MLOAD DUP1 SWAP2 SUB SWAP1 RETURN JUMPDEST CALLVALUE DUP1 ISZERO PUSH2 0x33F JUMPI PUSH0 DUP1 REVERT JUMPDEST POP PUSH2 0x35A PUSH1 0x4 DUP1 CALLDATASIZE SUB DUP2 ADD SWAP1 PUSH2 0x355 SWAP2 SWAP1 PUSH2 0x292C JUMP JUMPDEST PUSH2 0x96E JUMP JUMPDEST PUSH1 0x40 MLOAD PUSH2 0x367 SWAP2 SWAP1 PUSH2 0x2966 JUMP JUMPDEST PUSH1 0x40 MLOAD DUP1 SWAP2 SUB SWAP1 RETURN JUMPDEST CALLVALUE DUP1 ISZERO PUSH2 0x37B JUMPI PUSH0 DUP1 REVERT JUMPDEST POP PUSH2 0x384 PUSH2 0x98A JUMP JUMPDEST PUSH1 0x40 MLOAD PUSH2 0x391 SWAP2 SWAP1 PUSH2 0x28B8 JUMP JUMPDEST PUSH1 0x40 MLOAD DUP1 SWAP2 SUB SWAP1 RETURN JUMPDEST CALLVALUE DUP1 ISZERO PUSH2 0x3A5 JUMPI PUSH0 DUP1 REVERT JUMPDEST POP PUSH2 0x3AE PUSH2 0x9AF JUMP JUMPDEST STOP JUMPDEST CALLVALUE DUP1 ISZERO PUSH2 0x3BB JUMPI PUSH0 DUP1 REVERT JUMPDEST POP PUSH2 0x3D6 PUSH1 0x4 DUP1 CALLDATASIZE SUB DUP2 ADD SWAP1 PUSH2 0x3D1 SWAP2 SWAP1 PUSH2 0x29A9 JUMP JUMPDEST PUSH2 0xAA3 JUMP JUMPDEST STOP JUMPDEST CALLVALUE DUP1 ISZERO PUSH2 0x3E3 JUMPI PUSH0 DUP1 REVERT JUMPDEST POP PUSH2 0x3FE PUSH1 0x4 DUP1 CALLDATASIZE SUB DUP2 ADD SWAP1 PUSH2 0x3F9 SWAP2 SWAP1 PUSH2 0x29A9 JUMP JUMPDEST PUSH2 0xAC5 JUMP JUMPDEST STOP JUMPDEST CALLVALUE DUP1 ISZERO PUSH2 0x40B JUMPI PUSH0 DUP1 REVERT JUMPDEST POP PUSH2 0x414 PUSH2 0xB40 JUMP JUMPDEST PUSH1 0x40 MLOAD PUSH2 0x421 SWAP2 SWAP1 PUSH2 0x2802 JUMP JUMPDEST PUSH1 0x40 MLOAD DUP1 SWAP2 SUB SWAP1 RETURN JUMPDEST CALLVALUE DUP1 ISZERO PUSH2 0x435 JUMPI PUSH0 DUP1 REVERT JUMPDEST POP PUSH2 0x450 PUSH1 0x4 DUP1 CALLDATASIZE SUB DUP2 ADD SWAP1 PUSH2 0x44B SWAP2 SWAP1 PUSH2 0x29E7 JUMP JUMPDEST PUSH2 0xB53 JUMP JUMPDEST PUSH1 0x40 MLOAD PUSH2 0x45D SWAP2 SWAP1 PUSH2 0x28E0 JUMP JUMPDEST PUSH1 0x40 MLOAD DUP1 SWAP2 SUB SWAP1 RETURN JUMPDEST CALLVALUE DUP1 ISZERO PUSH2 0x471 JUMPI PUSH0 DUP1 REVERT JUMPDEST POP PUSH2 0x48C PUSH1 0x4 DUP1 CALLDATASIZE SUB DUP2 ADD SWAP1 PUSH2 0x487 SWAP2 SWAP1 PUSH2 0x284E JUMP JUMPDEST PUSH2 0xB68 JUMP JUMPDEST STOP JUMPDEST CALLVALUE DUP1 ISZERO PUSH2 0x499 JUMPI PUSH0 DUP1 REVERT JUMPDEST POP PUSH2 0x4A2 PUSH2 0xC33 JUMP JUMPDEST STOP JUMPDEST CALLVALUE DUP1 ISZERO PUSH2 0x4AF JUMPI PUSH0 DUP1 REVERT JUMPDEST POP PUSH2 0x4B8 PUSH2 0xD54 JUMP JUMPDEST PUSH1 0x40 MLOAD PUSH2 0x4C5 SWAP2 SWAP1 PUSH2 0x28E0 JUMP JUMPDEST PUSH1 0x40 MLOAD DUP1 SWAP2 SUB SWAP1 RETURN JUMPDEST CALLVALUE DUP1 ISZERO PUSH2 0x4D9 JUMPI PUSH0 DUP1 REVERT JUMPDEST POP PUSH2 0x4E2 PUSH2 0xD5B JUMP JUMPDEST PUSH1 0x40 MLOAD PUSH2 0x4EF SWAP2 SWAP1 PUSH2 0x2802 JUMP JUMPDEST PUSH1 0x40 MLOAD DUP1 SWAP2 SUB SWAP1 RETURN JUMPDEST CALLVALUE DUP1 ISZERO PUSH2 0x503 JUMPI PUSH0 DUP1 REVERT JUMPDEST POP PUSH2 0x50C PUSH2 0xD6D JUMP JUMPDEST PUSH1 0x40 MLOAD PUSH2 0x519 SWAP2 SWAP1 PUSH2 0x2966 JUMP JUMPDEST PUSH1 0x40 MLOAD DUP1 SWAP2 SUB SWAP1 RETURN JUMPDEST CALLVALUE DUP1 ISZERO PUSH2 0x52D JUMPI PUSH0 DUP1 REVERT JUMPDEST POP PUSH2 0x536 PUSH2 0xD91 JUMP JUMPDEST PUSH1 0x40 MLOAD PUSH2 0x543 SWAP2 SWAP1 PUSH2 0x2966 JUMP JUMPDEST PUSH1 0x40 MLOAD DUP1 SWAP2 SUB SWAP1 RETURN JUMPDEST CALLVALUE DUP1 ISZERO PUSH2 0x557 JUMPI PUSH0 DUP1 REVERT JUMPDEST POP PUSH2 0x572 PUSH1 0x4 DUP1 CALLDATASIZE SUB DUP2 ADD SWAP1 PUSH2 0x56D SWAP2 SWAP1 PUSH2 0x284E JUMP JUMPDEST PUSH2 0xDB5 JUMP JUMPDEST STOP JUMPDEST CALLVALUE DUP1 ISZERO PUSH2 0x57F JUMPI PUSH0 DUP1 REVERT JUMPDEST POP PUSH2 0x588 PUSH2 0xE49 JUMP JUMPDEST PUSH1 0x40 MLOAD PUSH2 0x595 SWAP2 SWAP1 PUSH2 0x28E0 JUMP JUMPDEST PUSH1 0x40 MLOAD DUP1 SWAP2 SUB SWAP1 RETURN JUMPDEST CALLVALUE DUP1 ISZERO PUSH2 0x5A9 JUMPI PUSH0 DUP1 REVERT JUMPDEST POP PUSH2 0x5C4 PUSH1 0x4 DUP1 CALLDATASIZE SUB DUP2 ADD SWAP1 PUSH2 0x5BF SWAP2 SWAP1 PUSH2 0x29E7 JUMP JUMPDEST PUSH2 0xE4F JUMP JUMPDEST STOP JUMPDEST PUSH2 0x5CE PUSH2 0xF69 JUMP JUMPDEST STOP JUMPDEST CALLVALUE DUP1 ISZERO PUSH2 0x5DB JUMPI PUSH0 DUP1 REVERT JUMPDEST POP PUSH2 0x5E4 PUSH2 0x1B26 JUMP JUMPDEST PUSH1 0x40 MLOAD PUSH2 0x5F1 SWAP2 SWAP1 PUSH2 0x28E0 JUMP JUMPDEST PUSH1 0x40 MLOAD DUP1 SWAP2 SUB SWAP1 RETURN JUMPDEST CALLVALUE DUP1 ISZERO PUSH2 0x605 JUMPI PUSH0 DUP1 REVERT JUMPDEST POP PUSH2 0x620 PUSH1 0x4 DUP1 CALLDATASIZE SUB DUP2 ADD SWAP1 PUSH2 0x61B SWAP2 SWAP1 PUSH2 0x29A9 JUMP JUMPDEST PUSH2 0x1B2C JUMP JUMPDEST PUSH1 0x40 MLOAD PUSH2 0x62D SWAP2 SWAP1 PUSH2 0x2802 JUMP JUMPDEST PUSH1 0x40 MLOAD DUP1 SWAP2 SUB SWAP1 RETURN JUMPDEST CALLVALUE DUP1 ISZERO PUSH2 0x641 JUMPI PUSH0 DUP1 REVERT JUMPDEST POP PUSH2 0x65C PUSH1 0x4 DUP1 CALLDATASIZE SUB DUP2 ADD SWAP1 PUSH2 0x657 SWAP2 SWAP1 PUSH2 0x29E7 JUMP JUMPDEST PUSH2 0x1B8F JUMP JUMPDEST PUSH1 0x40 MLOAD PUSH2 0x669 SWAP2 SWAP1 PUSH2 0x2802 JUMP JUMPDEST PUSH1 0x40 MLOAD DUP1 SWAP2 SUB SWAP1 RETURN JUMPDEST CALLVALUE DUP1 ISZERO PUSH2 0x67D JUMPI PUSH0 DUP1 REVERT JUMPDEST POP PUSH2 0x686 PUSH2 0x1BAC JUMP JUMPDEST PUSH1 0x40 MLOAD PUSH2 0x693 SWAP2 SWAP1 PUSH2 0x2966 JUMP JUMPDEST PUSH1 0x40 MLOAD DUP1 SWAP2 SUB SWAP1 RETURN JUMPDEST CALLVALUE DUP1 ISZERO PUSH2 0x6A7 JUMPI PUSH0 DUP1 REVERT JUMPDEST POP PUSH2 0x6B0 PUSH2 0x1BB2 JUMP JUMPDEST PUSH1 0x40 MLOAD PUSH2 0x6BD SWAP2 SWAP1 PUSH2 0x28E0 JUMP JUMPDEST PUSH1 0x40 MLOAD DUP1 SWAP2 SUB SWAP1 RETURN JUMPDEST CALLVALUE DUP1 ISZERO PUSH2 0x6D1 JUMPI PUSH0 DUP1 REVERT JUMPDEST POP PUSH2 0x6EC PUSH1 0x4 DUP1 CALLDATASIZE SUB DUP2 ADD SWAP1 PUSH2 0x6E7 SWAP2 SWAP1 PUSH2 0x284E JUMP JUMPDEST PUSH2 0x1BB8 JUMP JUMPDEST STOP JUMPDEST CALLVALUE DUP1 ISZERO PUSH2 0x6F9 JUMPI PUSH0 DUP1 REVERT JUMPDEST POP PUSH2 0x702 PUSH2 0x1C83 JUMP JUMPDEST PUSH1 0x40 MLOAD PUSH2 0x70F SWAP2 SWAP1 PUSH2 0x28E0 JUMP JUMPDEST PUSH1 0x40 MLOAD DUP1 SWAP2 SUB SWAP1 RETURN JUMPDEST CALLVALUE DUP1 ISZERO PUSH2 0x723 JUMPI PUSH0 DUP1 REVERT JUMPDEST POP PUSH2 0x73E PUSH1 0x4 DUP1 CALLDATASIZE SUB DUP2 ADD SWAP1 PUSH2 0x739 SWAP2 SWAP1 PUSH2 0x284E JUMP JUMPDEST PUSH2 0x1C89 JUMP JUMPDEST STOP JUMPDEST CALLVALUE DUP1 ISZERO PUSH2 0x74B JUMPI PUSH0 DUP1 REVERT JUMPDEST POP PUSH2 0x766 PUSH1 0x4 DUP1 CALLDATASIZE SUB DUP2 ADD SWAP1 PUSH2 0x761 SWAP2 SWAP1 PUSH2 0x29A9 JUMP JUMPDEST PUSH2 0x1D1D JUMP JUMPDEST STOP JUMPDEST PUSH2 0x770 PUSH2 0x1D3F JUMP JUMPDEST STOP JUMPDEST CALLVALUE DUP1 ISZERO PUSH2 0x77D JUMPI PUSH0 DUP1 REVERT JUMPDEST POP PUSH2 0x798 PUSH1 0x4 DUP1 CALLDATASIZE SUB DUP2 ADD SWAP1 PUSH2 0x793 SWAP2 SWAP1 PUSH2 0x29E7 JUMP JUMPDEST PUSH2 0x1F8A JUMP JUMPDEST STOP JUMPDEST CALLVALUE DUP1 ISZERO PUSH2 0x7A5 JUMPI PUSH0 DUP1 REVERT JUMPDEST POP PUSH2 0x7AE PUSH2 0x20A6 JUMP JUMPDEST PUSH1 0x40 MLOAD PUSH2 0x7BB SWAP2 SWAP1 PUSH2 0x28E0 JUMP JUMPDEST PUSH1 0x40 MLOAD DUP1 SWAP2 SUB SWAP1 RETURN JUMPDEST PUSH0 PUSH32 0x7965DB0B00000000000000000000000000000000000000000000000000000000 PUSH28 0xFFFFFFFFFFFFFFFFFFFFFFFFFFFFFFFFFFFFFFFFFFFFFFFFFFFFFFFF NOT AND DUP3 PUSH28 0xFFFFFFFFFFFFFFFFFFFFFFFFFFFFFFFFFFFFFFFFFFFFFFFFFFFFFFFF NOT AND EQ DUP1 PUSH2 0x836 JUMPI POP PUSH2 0x835 DUP3 PUSH2 0x20AC JUMP JUMPDEST JUMPDEST SWAP1 POP SWAP2 SWAP1 POP JUMP JUMPDEST PUSH2 0x888 PUSH32 0xA49807205CE4D355092EF5A8A18F56E8913CF4A201FBE287825B095693C21775 PUSH1 0x3 PUSH0 SWAP1 SLOAD SWAP1 PUSH2 0x100 EXP SWAP1 DIV PUSH20 0xFFFFFFFFFFFFFFFFFFFFFFFFFFFFFFFFFFFFFFFF AND PUSH2 0x1B2C JUMP JUMPDEST PUSH2 0x8C7 JUMPI PUSH1 0x40 MLOAD PUSH32 0x8C379A000000000000000000000000000000000000000000000000000000000 DUP2 MSTORE PUSH1 0x4 ADD PUSH2 0x8BE SWAP1 PUSH2 0x2A5C JUMP JUMPDEST PUSH1 0x40 MLOAD DUP1 SWAP2 SUB SWAP1 REVERT JUMPDEST DUP1 PUSH1 0x8 DUP2 SWAP1 SSTORE POP PUSH32 0x8645F88287B79F16D91266DA1D35B7ADC817D75A89A9577504B01FBC37ED5A6F DUP2 PUSH1 0x40 MLOAD PUSH2 0x8FD SWAP2 SWAP1 PUSH2 0x28E0 JUMP JUMPDEST PUSH1 0x40 MLOAD DUP1 SWAP2 SUB SWAP1 LOG1 POP JUMP JUMPDEST PUSH1 0xB DUP2 DUP2 SLOAD DUP2 LT PUSH2 0x917 JUMPI PUSH0 DUP1 REVERT JUMPDEST SWAP1 PUSH0 MSTORE PUSH1 0x20 PUSH0 KECCAK256 ADD PUSH0 SWAP2 POP SLOAD SWAP1 PUSH2 0x100 EXP SWAP1 DIV PUSH20 0xFFFFFFFFFFFFFFFFFFFFFFFFFFFFFFFFFFFFFFFF AND DUP2 JUMP JUMPDEST PUSH1 0xA SLOAD DUP2 JUMP JUMPDEST PUSH1 0x3 PUSH0 SWAP1 SLOAD SWAP1 PUSH2 0x100 EXP SWAP1 DIV PUSH20 0xFFFFFFFFFFFFFFFFFFFFFFFFFFFFFFFFFFFFFFFF AND DUP2 JUMP JUMPDEST PUSH0 DUP1 PUSH0 DUP4 DUP2 MSTORE PUSH1 0x20 ADD SWAP1 DUP2 MSTORE PUSH1 0x20 ADD PUSH0 KECCAK256 PUSH1 0x1 ADD SLOAD SWAP1 POP SWAP2 SWAP1 POP JUMP JUMPDEST PUSH1 0x2 PUSH0 SWAP1 SLOAD SWAP1 PUSH2 0x100 EXP SWAP1 DIV PUSH20 0xFFFFFFFFFFFFFFFFFFFFFFFFFFFFFFFFFFFFFFFF AND DUP2 JUMP JUMPDEST PUSH1 0x9 PUSH1 0x1 SWAP1 SLOAD SWAP1 PUSH2 0x100 EXP SWAP1 DIV PUSH1 0xFF AND ISZERO PUSH2 0x9FF JUMPI PUSH1 0x40 MLOAD PUSH32 0x8C379A000000000000000000000000000000000000000000000000000000000 DUP2 MSTORE PUSH1 0x4 ADD PUSH2 0x9F6 SWAP1 PUSH2 0x2AC4 JUMP JUMPDEST PUSH1 0x40 MLOAD DUP1 SWAP2 SUB SWAP1 REVERT JUMPDEST PUSH1 0x1 PUSH1 0x9 PUSH1 0x1 PUSH2 0x100 EXP DUP2 SLOAD DUP2 PUSH1 0xFF MUL NOT AND SWAP1 DUP4 ISZERO ISZERO MUL OR SWAP1 SSTORE POP ADDRESS PUSH20 0xFFFFFFFFFFFFFFFFFFFFFFFFFFFFFFFFFFFFFFFF AND PUSH4 0x8D070E75 PUSH1 0x40 MLOAD DUP2 PUSH4 0xFFFFFFFF AND PUSH1 0xE0 SHL DUP2 MSTORE PUSH1 0x4 ADD PUSH0 PUSH1 0x40 MLOAD DUP1 DUP4 SUB DUP2 PUSH0 DUP8 DUP1 EXTCODESIZE ISZERO DUP1 ISZERO PUSH2 0xA5F JUMPI PUSH0 DUP1 REVERT JUMPDEST POP GAS CALL ISZERO DUP1 ISZERO PUSH2 0xA71 JUMPI RETURNDATASIZE PUSH0 DUP1 RETURNDATACOPY RETURNDATASIZE PUSH0 REVERT JUMPDEST POP POP POP POP PUSH32 0x5B2AE23CD3AC75C4244AFECDE24848A0616CA7390C4C330A40A86D7E896D9462 PUSH1 0x40 MLOAD PUSH1 0x40 MLOAD DUP1 SWAP2 SUB SWAP1 LOG1 JUMP JUMPDEST PUSH2 0xAAC DUP3 PUSH2 0x96E JUMP JUMPDEST PUSH2 0xAB5 DUP2 PUSH2 0x2115 JUMP JUMPDEST PUSH2 0xABF DUP4 DUP4 PUSH2 0x2129 JUMP JUMPDEST POP POP POP POP JUMP JUMPDEST PUSH2 0xACD PUSH2 0x2212 JUMP JUMPDEST PUSH20 0xFFFFFFFFFFFFFFFFFFFFFFFFFFFFFFFFFFFFFFFF AND DUP2 PUSH20 0xFFFFFFFFFFFFFFFFFFFFFFFFFFFFFFFFFFFFFFFF AND EQ PUSH2 0xB31 JUMPI PUSH1 0x40 MLOAD PUSH32 0x6697B23200000000000000000000000000000000000000000000000000000000 DUP2 MSTORE PUSH1 0x4 ADD PUSH1 0x40 MLOAD DUP1 SWAP2 SUB SWAP1 REVERT JUMPDEST PUSH2 0xB3B DUP3 DUP3 PUSH2 0x2219 JUMP JUMPDEST POP POP POP JUMP JUMPDEST PUSH1 0x9 PUSH1 0x1 SWAP1 SLOAD SWAP1 PUSH2 0x100 EXP SWAP1 DIV PUSH1 0xFF AND DUP2 JUMP JUMPDEST PUSH1 0xC PUSH1 0x20 MSTORE DUP1 PUSH0 MSTORE PUSH1 0x40 PUSH0 KECCAK256 PUSH0 SWAP2 POP SWAP1 POP SLOAD DUP2 JUMP JUMPDEST PUSH2 0xBB3 PUSH32 0xA49807205CE4D355092EF5A8A18F56E8913CF4A201FBE287825B095693C21775 PUSH1 0x3 PUSH0 SWAP1 SLOAD SWAP1 PUSH2 0x100 EXP SWAP1 DIV PUSH20 0xFFFFFFFFFFFFFFFFFFFFFFFFFFFFFFFFFFFFFFFF AND PUSH2 0x1B2C JUMP JUMPDEST PUSH2 0xBF2 JUMPI PUSH1 0x40 MLOAD PUSH32 0x8C379A000000000000000000000000000000000000000000000000000000000 DUP2 MSTORE PUSH1 0x4 ADD PUSH2 0xBE9 SWAP1 PUSH2 0x2A5C JUMP JUMPDEST PUSH1 0x40 MLOAD DUP1 SWAP2 SUB SWAP1 REVERT JUMPDEST DUP1 PUSH1 0x7 DUP2 SWAP1 SSTORE POP PUSH32 0x9E87CF72973CDB82F6A3C58FA8EF538FD3088801E3F3033AFD06FA390CA4876C DUP2 PUSH1 0x40 MLOAD PUSH2 0xC28 SWAP2 SWAP1 PUSH2 0x28E0 JUMP JUMPDEST PUSH1 0x40 MLOAD DUP1 SWAP2 SUB SWAP1 LOG1 POP JUMP JUMPDEST PUSH2 0xC7E PUSH32 0xA49807205CE4D355092EF5A8A18F56E8913CF4A201FBE287825B095693C21775 PUSH1 0x3 PUSH0 SWAP1 SLOAD SWAP1 PUSH2 0x100 EXP SWAP1 DIV PUSH20 0xFFFFFFFFFFFFFFFFFFFFFFFFFFFFFFFFFFFFFFFF AND PUSH2 0x1B2C JUMP JUMPDEST PUSH2 0xCBD JUMPI PUSH1 0x40 MLOAD PUSH32 0x8C379A000000000000000000000000000000000000000000000000000000000 DUP2 MSTORE PUSH1 0x4 ADD PUSH2 0xCB4 SWAP1 PUSH2 0x2A5C JUMP JUMPDEST PUSH1 0x40 MLOAD DUP1 SWAP2 SUB SWAP1 REVERT JUMPDEST PUSH1 0x9 PUSH0 SWAP1 SLOAD SWAP1 PUSH2 0x100 EXP SWAP1 DIV PUSH1 0xFF AND ISZERO PUSH2 0xD0C JUMPI PUSH1 0x40 MLOAD PUSH32 0x8C379A000000000000000000000000000000000000000000000000000000000 DUP2 MSTORE PUSH1 0x4 ADD PUSH2 0xD03 SWAP1 PUSH2 0x2B2C JUMP JUMPDEST PUSH1 0x40 MLOAD DUP1 SWAP2 SUB SWAP1 REVERT JUMPDEST PUSH1 0x1 PUSH1 0x9 PUSH0 PUSH2 0x100 EXP DUP2 SLOAD DUP2 PUSH1 0xFF MUL NOT AND SWAP1 DUP4 ISZERO ISZERO MUL OR SWAP1 SSTORE POP PUSH32 0x8CF55E5373CD35327ECD6E48F19A6101684947FD385C07FB95117B3695EC2E9B PUSH1 0x40 MLOAD PUSH1 0x40 MLOAD DUP1 SWAP2 SUB SWAP1 LOG1 JUMP JUMPDEST PUSH0 SELFBALANCE SWAP1 POP SWAP1 JUMP JUMPDEST PUSH1 0x9 PUSH0 SWAP1 SLOAD SWAP1 PUSH2 0x100 EXP SWAP1 DIV PUSH1 0xFF AND DUP2 JUMP JUMPDEST PUSH32 0xA49807205CE4D355092EF5A8A18F56E8913CF4A201FBE287825B095693C21775 DUP2 JUMP JUMPDEST PUSH32 0xD980155B32CF66E6AF51E0972D64B9D5EFE0E6F237DFAA4BDC83F990DD79E9C8 DUP2 JUMP JUMPDEST PUSH2 0xE00 PUSH32 0xA49807205CE4D355092EF5A8A18F56E8913CF4A201FBE287825B095693C21775 PUSH1 0x3 PUSH0 SWAP1 SLOAD SWAP1 PUSH2 0x100 EXP SWAP1 DIV PUSH20 0xFFFFFFFFFFFFFFFFFFFFFFFFFFFFFFFFFFFFFFFF AND PUSH2 0x1B2C JUMP JUMPDEST PUSH2 0xE3F JUMPI PUSH1 0x40 MLOAD PUSH32 0x8C379A000000000000000000000000000000000000000000000000000000000 DUP2 MSTORE PUSH1 0x4 ADD PUSH2 0xE36 SWAP1 PUSH2 0x2A5C JUMP JUMPDEST PUSH1 0x40 MLOAD DUP1 SWAP2 SUB SWAP1 REVERT JUMPDEST DUP1 PUSH1 0x5 DUP2 SWAP1 SSTORE POP POP JUMP JUMPDEST PUSH1 0x5 SLOAD DUP2 JUMP JUMPDEST PUSH2 0xE9A PUSH32 0xA49807205CE4D355092EF5A8A18F56E8913CF4A201FBE287825B095693C21775 PUSH1 0x3 PUSH0 SWAP1 SLOAD SWAP1 PUSH2 0x100 EXP SWAP1 DIV PUSH20 0xFFFFFFFFFFFFFFFFFFFFFFFFFFFFFFFFFFFFFFFF AND PUSH2 0x1B2C JUMP JUMPDEST PUSH2 0xED9 JUMPI PUSH1 0x40 MLOAD PUSH32 0x8C379A000000000000000000000000000000000000000000000000000000000 DUP2 MSTORE PUSH1 0x4 ADD PUSH2 0xED0 SWAP1 PUSH2 0x2A5C JUMP JUMPDEST PUSH1 0x40 MLOAD DUP1 SWAP2 SUB SWAP1 REVERT JUMPDEST PUSH0 PUSH1 0xD PUSH0 DUP4 PUSH20 0xFFFFFFFFFFFFFFFFFFFFFFFFFFFFFFFFFFFFFFFF AND PUSH20 0xFFFFFFFFFFFFFFFFFFFFFFFFFFFFFFFFFFFFFFFF AND DUP2 MSTORE PUSH1 0x20 ADD SWAP1 DUP2 MSTORE PUSH1 0x20 ADD PUSH0 KECCAK256 PUSH0 PUSH2 0x100 EXP DUP2 SLOAD DUP2 PUSH1 0xFF MUL NOT AND SWAP1 DUP4 ISZERO ISZERO MUL OR SWAP1 SSTORE POP PUSH32 0xF93F9A76C1BF3444D22400A00CB9FE990E6ABE9DBB333FDA48859CFEE864543D DUP2 PUSH0 PUSH1 0x40 MLOAD PUSH2 0xF5E SWAP3 SWAP2 SWAP1 PUSH2 0x2B4A JUMP JUMPDEST PUSH1 0x40 MLOAD DUP1 SWAP2 SUB SWAP1 LOG1 POP JUMP JUMPDEST PUSH2 0xFB4 PUSH32 0xA49807205CE4D355092EF5A8A18F56E8913CF4A201FBE287825B095693C21775 PUSH1 0x3 PUSH0 SWAP1 SLOAD SWAP1 PUSH2 0x100 EXP SWAP1 DIV PUSH20 0xFFFFFFFFFFFFFFFFFFFFFFFFFFFFFFFFFFFFFFFF AND PUSH2 0x1B2C JUMP JUMPDEST DUP1 PUSH2 0x1006 JUMPI POP PUSH2 0x1005 PUSH32 0xD980155B32CF66E6AF51E0972D64B9D5EFE0E6F237DFAA4BDC83F990DD79E9C8 PUSH1 0x2 PUSH0 SWAP1 SLOAD SWAP1 PUSH2 0x100 EXP SWAP1 DIV PUSH20 0xFFFFFFFFFFFFFFFFFFFFFFFFFFFFFFFFFFFFFFFF AND PUSH2 0x1B2C JUMP JUMPDEST JUMPDEST PUSH2 0x1045 JUMPI PUSH1 0x40 MLOAD PUSH32 0x8C379A000000000000000000000000000000000000000000000000000000000 DUP2 MSTORE PUSH1 0x4 ADD PUSH2 0x103C SWAP1 PUSH2 0x2BBB JUMP JUMPDEST PUSH1 0x40 MLOAD DUP1 SWAP2 SUB SWAP1 REVERT JUMPDEST PUSH2 0x104D PUSH2 0x2302 JUMP JUMPDEST PUSH1 0x1 PUSH1 0x9 PUSH1 0x1 PUSH2 0x100 EXP DUP2 SLOAD DUP2 PUSH1 0xFF MUL NOT AND SWAP1 DUP4 ISZERO ISZERO MUL OR SWAP1 SSTORE PUSH2 0x10A6 JUMPI PUSH1 0x40 MLOAD PUSH32 0x8C379A000000000000000000000000000000000000000000000000000000000 DUP2 MSTORE PUSH1 0x4 ADD PUSH2 0x109D SWAP1 PUSH2 0x2C23 JUMP JUMPDEST PUSH1 0x40 MLOAD DUP1 SWAP2 SUB SWAP1 REVERT JUMPDEST PUSH0 PUSH1 0x4 SLOAD GT PUSH2 0x10EA JUMPI PUSH1 0x40 MLOAD PUSH32 0x8C379A000000000000000000000000000000000000000000000000000000000 DUP2 MSTORE PUSH1 0x4 ADD PUSH2 0x10E1 SWAP1 PUSH2 0x2C8B JUMP JUMPDEST PUSH1 0x40 MLOAD DUP1 SWAP2 SUB SWAP1 REVERT JUMPDEST PUSH0 DUP1 PUSH1 0x6 SLOAD PUSH1 0x4 SLOAD LT ISZERO PUSH2 0x1335 JUMPI PUSH2 0x1136 PUSH1 0x40 MLOAD DUP1 PUSH1 0x40 ADD PUSH1 0x40 MSTORE DUP1 PUSH1 0x1A DUP2 MSTORE PUSH1 0x20 ADD PUSH32 0x5768656E20746F74616C526173696564203C2068617264436170000000000000 DUP2 MSTORE POP PUSH2 0x2351 JUMP JUMPDEST PUSH2 0x1177 PUSH1 0x40 MLOAD DUP1 PUSH1 0x40 ADD PUSH1 0x40 MSTORE DUP1 PUSH1 0xB DUP2 MSTORE PUSH1 0x20 ADD PUSH32 0x546F74616C526169736564000000000000000000000000000000000000000000 DUP2 MSTORE POP PUSH1 0x4 SLOAD PUSH2 0x23EA JUMP JUMPDEST PUSH2 0x11A1 PUSH1 0x64 PUSH2 0x1193 PUSH1 0x5 SLOAD PUSH1 0x4 SLOAD PUSH2 0x2486 SWAP1 SWAP2 SWAP1 PUSH4 0xFFFFFFFF AND JUMP JUMPDEST PUSH2 0x249B SWAP1 SWAP2 SWAP1 PUSH4 0xFFFFFFFF AND JUMP JUMPDEST SWAP2 POP PUSH2 0x11B8 DUP3 PUSH1 0x4 SLOAD PUSH2 0x24B0 SWAP1 SWAP2 SWAP1 PUSH4 0xFFFFFFFF AND JUMP JUMPDEST SWAP1 POP PUSH2 0x11DC PUSH1 0x40 MLOAD DUP1 PUSH1 0x60 ADD PUSH1 0x40 MSTORE DUP1 PUSH1 0x2A DUP2 MSTORE PUSH1 0x20 ADD PUSH2 0x34C6 PUSH1 0x2A SWAP2 CODECOPY DUP4 PUSH2 0x23EA JUMP JUMPDEST PUSH2 0x11FE PUSH1 0x40 MLOAD DUP1 PUSH1 0x60 ADD PUSH1 0x40 MSTORE DUP1 PUSH1 0x27 DUP2 MSTORE PUSH1 0x20 ADD PUSH2 0x344C PUSH1 0x27 SWAP2 CODECOPY DUP3 PUSH2 0x23EA JUMP JUMPDEST PUSH0 PUSH1 0x3 PUSH0 SWAP1 SLOAD SWAP1 PUSH2 0x100 EXP SWAP1 DIV PUSH20 0xFFFFFFFFFFFFFFFFFFFFFFFFFFFFFFFFFFFFFFFF AND PUSH20 0xFFFFFFFFFFFFFFFFFFFFFFFFFFFFFFFFFFFFFFFF AND PUSH2 0x8FC DUP4 SWAP1 DUP2 ISZERO MUL SWAP1 PUSH1 0x40 MLOAD PUSH0 PUSH1 0x40 MLOAD DUP1 DUP4 SUB DUP2 DUP6 DUP9 DUP9 CALL SWAP4 POP POP POP POP SWAP1 POP DUP1 PUSH2 0x1296 JUMPI PUSH1 0x40 MLOAD PUSH32 0x8C379A000000000000000000000000000000000000000000000000000000000 DUP2 MSTORE PUSH1 0x4 ADD PUSH2 0x128D SWAP1 PUSH2 0x2D19 JUMP JUMPDEST PUSH1 0x40 MLOAD DUP1 SWAP2 SUB SWAP1 REVERT JUMPDEST PUSH0 PUSH1 0x2 PUSH0 SWAP1 SLOAD SWAP1 PUSH2 0x100 EXP SWAP1 DIV PUSH20 0xFFFFFFFFFFFFFFFFFFFFFFFFFFFFFFFFFFFFFFFF AND PUSH20 0xFFFFFFFFFFFFFFFFFFFFFFFFFFFFFFFFFFFFFFFF AND PUSH2 0x8FC DUP6 SWAP1 DUP2 ISZERO MUL SWAP1 PUSH1 0x40 MLOAD PUSH0 PUSH1 0x40 MLOAD DUP1 DUP4 SUB DUP2 DUP6 DUP9 DUP9 CALL SWAP4 POP POP POP POP SWAP1 POP DUP1 PUSH2 0x132E JUMPI PUSH1 0x40 MLOAD PUSH32 0x8C379A000000000000000000000000000000000000000000000000000000000 DUP2 MSTORE PUSH1 0x4 ADD PUSH2 0x1325 SWAP1 PUSH2 0x2DA7 JUMP JUMPDEST PUSH1 0x40 MLOAD DUP1 SWAP2 SUB SWAP1 REVERT JUMPDEST POP POP PUSH2 0x1AD8 JUMP JUMPDEST PUSH1 0x6 SLOAD PUSH1 0x4 SLOAD GT ISZERO PUSH2 0x1892 JUMPI PUSH2 0x137F PUSH1 0x40 MLOAD DUP1 PUSH1 0x40 ADD PUSH1 0x40 MSTORE DUP1 PUSH1 0x1A DUP2 MSTORE PUSH1 0x20 ADD PUSH32 0x5768656E20746F74616C526173696564203E2068617264436170000000000000 DUP2 MSTORE POP PUSH2 0x2351 JUMP JUMPDEST PUSH2 0x13C0 PUSH1 0x40 MLOAD DUP1 PUSH1 0x40 ADD PUSH1 0x40 MSTORE DUP1 PUSH1 0xB DUP2 MSTORE PUSH1 0x20 ADD PUSH32 0x546F74616C526169736564000000000000000000000000000000000000000000 DUP2 MSTORE POP PUSH1 0x4 SLOAD PUSH2 0x23EA JUMP JUMPDEST PUSH2 0x13EA PUSH1 0x64 PUSH2 0x13DC PUSH1 0x5 SLOAD PUSH1 0x6 SLOAD PUSH2 0x2486 SWAP1 SWAP2 SWAP1 PUSH4 0xFFFFFFFF AND JUMP JUMPDEST PUSH2 0x249B SWAP1 SWAP2 SWAP1 PUSH4 0xFFFFFFFF AND JUMP JUMPDEST SWAP2 POP PUSH2 0x1401 DUP3 PUSH1 0x6 SLOAD PUSH2 0x24B0 SWAP1 SWAP2 SWAP1 PUSH4 0xFFFFFFFF AND JUMP JUMPDEST SWAP1 POP PUSH2 0x1425 PUSH1 0x40 MLOAD DUP1 PUSH1 0x60 ADD PUSH1 0x40 MSTORE DUP1 PUSH1 0x2A DUP2 MSTORE PUSH1 0x20 ADD PUSH2 0x3514 PUSH1 0x2A SWAP2 CODECOPY DUP4 PUSH2 0x23EA JUMP JUMPDEST PUSH2 0x1447 PUSH1 0x40 MLOAD DUP1 PUSH1 0x60 ADD PUSH1 0x40 MSTORE DUP1 PUSH1 0x27 DUP2 MSTORE PUSH1 0x20 ADD PUSH2 0x353E PUSH1 0x27 SWAP2 CODECOPY DUP3 PUSH2 0x23EA JUMP JUMPDEST PUSH0 PUSH1 0x3 PUSH0 SWAP1 SLOAD SWAP1 PUSH2 0x100 EXP SWAP1 DIV PUSH20 0xFFFFFFFFFFFFFFFFFFFFFFFFFFFFFFFFFFFFFFFF AND PUSH20 0xFFFFFFFFFFFFFFFFFFFFFFFFFFFFFFFFFFFFFFFF AND PUSH2 0x8FC DUP4 SWAP1 DUP2 ISZERO MUL SWAP1 PUSH1 0x40 MLOAD PUSH0 PUSH1 0x40 MLOAD DUP1 DUP4 SUB DUP2 DUP6 DUP9 DUP9 CALL SWAP4 POP POP POP POP SWAP1 POP DUP1 PUSH2 0x14DF JUMPI PUSH1 0x40 MLOAD PUSH32 0x8C379A000000000000000000000000000000000000000000000000000000000 DUP2 MSTORE PUSH1 0x4 ADD PUSH2 0x14D6 SWAP1 PUSH2 0x2E35 JUMP JUMPDEST PUSH1 0x40 MLOAD DUP1 SWAP2 SUB SWAP1 REVERT JUMPDEST PUSH0 PUSH1 0x2 PUSH0 SWAP1 SLOAD SWAP1 PUSH2 0x100 EXP SWAP1 DIV PUSH20 0xFFFFFFFFFFFFFFFFFFFFFFFFFFFFFFFFFFFFFFFF AND PUSH20 0xFFFFFFFFFFFFFFFFFFFFFFFFFFFFFFFFFFFFFFFF AND PUSH2 0x8FC DUP6 SWAP1 DUP2 ISZERO MUL SWAP1 PUSH1 0x40 MLOAD PUSH0 PUSH1 0x40 MLOAD DUP1 DUP4 SUB DUP2 DUP6 DUP9 DUP9 CALL SWAP4 POP POP POP POP SWAP1 POP DUP1 PUSH2 0x1577 JUMPI PUSH1 0x40 MLOAD PUSH32 0x8C379A000000000000000000000000000000000000000000000000000000000 DUP2 MSTORE PUSH1 0x4 ADD PUSH2 0x156E SWAP1 PUSH2 0x2E35 JUMP JUMPDEST PUSH1 0x40 MLOAD DUP1 SWAP2 SUB SWAP1 REVERT JUMPDEST PUSH0 PUSH2 0x15A3 PUSH1 0xA SLOAD PUSH2 0x1595 PUSH1 0x6 SLOAD PUSH1 0x4 SLOAD PUSH2 0x24B0 SWAP1 SWAP2 SWAP1 PUSH4 0xFFFFFFFF AND JUMP JUMPDEST PUSH2 0x249B SWAP1 SWAP2 SWAP1 PUSH4 0xFFFFFFFF AND JUMP JUMPDEST SWAP1 POP PUSH2 0x15E4 PUSH1 0x40 MLOAD DUP1 PUSH1 0x40 ADD PUSH1 0x40 MSTORE DUP1 PUSH1 0x1A DUP2 MSTORE PUSH1 0x20 ADD PUSH32 0x726566756E64416D6F756E74506572436F6E7472696275746F72000000000000 DUP2 MSTORE POP DUP3 PUSH2 0x23EA JUMP JUMPDEST PUSH2 0x1622 PUSH1 0x40 MLOAD DUP1 PUSH1 0x40 ADD PUSH1 0x40 MSTORE DUP1 PUSH1 0x1A DUP2 MSTORE PUSH1 0x20 ADD PUSH32 0x436865636B696E6720657665727920636F6E7472696275746F72000000000000 DUP2 MSTORE POP PUSH2 0x2351 JUMP JUMPDEST PUSH0 JUMPDEST PUSH1 0xA SLOAD DUP2 LT ISZERO PUSH2 0x1889 JUMPI PUSH0 PUSH1 0xB DUP3 DUP2 SLOAD DUP2 LT PUSH2 0x1643 JUMPI PUSH2 0x1642 PUSH2 0x2E53 JUMP JUMPDEST JUMPDEST SWAP1 PUSH0 MSTORE PUSH1 0x20 PUSH0 KECCAK256 ADD PUSH0 SWAP1 SLOAD SWAP1 PUSH2 0x100 EXP SWAP1 DIV PUSH20 0xFFFFFFFFFFFFFFFFFFFFFFFFFFFFFFFFFFFFFFFF AND SWAP1 POP PUSH2 0x16AC PUSH1 0x40 MLOAD DUP1 PUSH1 0x40 ADD PUSH1 0x40 MSTORE DUP1 PUSH1 0x10 DUP2 MSTORE PUSH1 0x20 ADD PUSH32 0x636F6E7472696275746F72206C69737400000000000000000000000000000000 DUP2 MSTORE POP DUP3 PUSH2 0x24C5 JUMP JUMPDEST PUSH0 PUSH1 0xC PUSH0 DUP4 PUSH20 0xFFFFFFFFFFFFFFFFFFFFFFFFFFFFFFFFFFFFFFFF AND PUSH20 0xFFFFFFFFFFFFFFFFFFFFFFFFFFFFFFFFFFFFFFFF AND DUP2 MSTORE PUSH1 0x20 ADD SWAP1 DUP2 MSTORE PUSH1 0x20 ADD PUSH0 KECCAK256 SLOAD SWAP1 POP DUP4 DUP2 GT ISZERO PUSH2 0x1835 JUMPI PUSH0 PUSH20 0xFFFFFFFFFFFFFFFFFFFFFFFFFFFFFFFFFFFFFFFF AND DUP3 PUSH20 0xFFFFFFFFFFFFFFFFFFFFFFFFFFFFFFFFFFFFFFFF AND EQ ISZERO DUP1 PUSH2 0x175C JUMPI POP PUSH0 PUSH20 0xFFFFFFFFFFFFFFFFFFFFFFFFFFFFFFFFFFFFFFFF AND DUP3 PUSH20 0xFFFFFFFFFFFFFFFFFFFFFFFFFFFFFFFFFFFFFFFF AND EQ ISZERO JUMPDEST PUSH2 0x179B JUMPI PUSH1 0x40 MLOAD PUSH32 0x8C379A000000000000000000000000000000000000000000000000000000000 DUP2 MSTORE PUSH1 0x4 ADD PUSH2 0x1792 SWAP1 PUSH2 0x2ECA JUMP JUMPDEST PUSH1 0x40 MLOAD DUP1 SWAP2 SUB SWAP1 REVERT JUMPDEST PUSH2 0x17BC PUSH1 0x40 MLOAD DUP1 PUSH1 0x60 ADD PUSH1 0x40 MSTORE DUP1 PUSH1 0x24 DUP2 MSTORE PUSH1 0x20 ADD PUSH2 0x34F0 PUSH1 0x24 SWAP2 CODECOPY PUSH2 0x2351 JUMP JUMPDEST PUSH0 DUP3 PUSH20 0xFFFFFFFFFFFFFFFFFFFFFFFFFFFFFFFFFFFFFFFF AND PUSH2 0x8FC DUP7 SWAP1 DUP2 ISZERO MUL SWAP1 PUSH1 0x40 MLOAD PUSH0 PUSH1 0x40 MLOAD DUP1 DUP4 SUB DUP2 DUP6 DUP9 DUP9 CALL SWAP4 POP POP POP POP SWAP1 POP DUP1 PUSH2 0x1833 JUMPI PUSH1 0x40 MLOAD PUSH32 0x8C379A000000000000000000000000000000000000000000000000000000000 DUP2 MSTORE PUSH1 0x4 ADD PUSH2 0x182A SWAP1 PUSH2 0x2F58 JUMP JUMPDEST PUSH1 0x40 MLOAD DUP1 SWAP2 SUB SWAP1 REVERT JUMPDEST POP JUMPDEST PUSH2 0x1874 PUSH1 0x40 MLOAD DUP1 PUSH1 0x40 ADD PUSH1 0x40 MSTORE DUP1 PUSH1 0xD DUP2 MSTORE PUSH1 0x20 ADD PUSH32 0x72657475726E20416D6F756E7400000000000000000000000000000000000000 DUP2 MSTORE POP DUP6 PUSH2 0x23EA JUMP JUMPDEST POP POP DUP1 DUP1 PUSH2 0x1881 SWAP1 PUSH2 0x2FA3 JUMP JUMPDEST SWAP2 POP POP PUSH2 0x1624 JUMP JUMPDEST POP POP POP POP PUSH2 0x1AD7 JUMP JUMPDEST PUSH1 0x6 SLOAD PUSH1 0x4 SLOAD SUB PUSH2 0x1AD6 JUMPI PUSH2 0x18DB PUSH1 0x40 MLOAD DUP1 PUSH1 0x40 ADD PUSH1 0x40 MSTORE DUP1 PUSH1 0x1B DUP2 MSTORE PUSH1 0x20 ADD PUSH32 0x5768656E20746F74616C526173696564203D3D20686172644361700000000000 DUP2 MSTORE POP PUSH2 0x2351 JUMP JUMPDEST PUSH2 0x191C PUSH1 0x40 MLOAD DUP1 PUSH1 0x40 ADD PUSH1 0x40 MSTORE DUP1 PUSH1 0xB DUP2 MSTORE PUSH1 0x20 ADD PUSH32 0x546F74616C526169736564000000000000000000000000000000000000000000 DUP2 MSTORE POP PUSH1 0x4 SLOAD PUSH2 0x23EA JUMP JUMPDEST PUSH2 0x1946 PUSH1 0x64 PUSH2 0x1938 PUSH1 0x5 SLOAD PUSH1 0x6 SLOAD PUSH2 0x2486 SWAP1 SWAP2 SWAP1 PUSH4 0xFFFFFFFF AND JUMP JUMPDEST PUSH2 0x249B SWAP1 SWAP2 SWAP1 PUSH4 0xFFFFFFFF AND JUMP JUMPDEST SWAP2 POP PUSH2 0x195D DUP3 PUSH1 0x6 SLOAD PUSH2 0x24B0 SWAP1 SWAP2 SWAP1 PUSH4 0xFFFFFFFF AND JUMP JUMPDEST SWAP1 POP PUSH2 0x1981 PUSH1 0x40 MLOAD DUP1 PUSH1 0x60 ADD PUSH1 0x40 MSTORE DUP1 PUSH1 0x2B DUP2 MSTORE PUSH1 0x20 ADD PUSH2 0x349B PUSH1 0x2B SWAP2 CODECOPY DUP4 PUSH2 0x23EA JUMP JUMPDEST PUSH2 0x19A3 PUSH1 0x40 MLOAD DUP1 PUSH1 0x60 ADD PUSH1 0x40 MSTORE DUP1 PUSH1 0x28 DUP2 MSTORE PUSH1 0x20 ADD PUSH2 0x3473 PUSH1 0x28 SWAP2 CODECOPY DUP3 PUSH2 0x23EA JUMP JUMPDEST PUSH0 PUSH1 0x3 PUSH0 SWAP1 SLOAD SWAP1 PUSH2 0x100 EXP SWAP1 DIV PUSH20 0xFFFFFFFFFFFFFFFFFFFFFFFFFFFFFFFFFFFFFFFF AND PUSH20 0xFFFFFFFFFFFFFFFFFFFFFFFFFFFFFFFFFFFFFFFF AND PUSH2 0x8FC DUP4 SWAP1 DUP2 ISZERO MUL SWAP1 PUSH1 0x40 MLOAD PUSH0 PUSH1 0x40 MLOAD DUP1 DUP4 SUB DUP2 DUP6 DUP9 DUP9 CALL SWAP4 POP POP POP POP SWAP1 POP DUP1 PUSH2 0x1A3B JUMPI PUSH1 0x40 MLOAD PUSH32 0x8C379A000000000000000000000000000000000000000000000000000000000 DUP2 MSTORE PUSH1 0x4 ADD PUSH2 0x1A32 SWAP1 PUSH2 0x305A JUMP JUMPDEST PUSH1 0x40 MLOAD DUP1 SWAP2 SUB SWAP1 REVERT JUMPDEST PUSH0 PUSH1 0x2 PUSH0 SWAP1 SLOAD SWAP1 PUSH2 0x100 EXP SWAP1 DIV PUSH20 0xFFFFFFFFFFFFFFFFFFFFFFFFFFFFFFFFFFFFFFFF AND PUSH20 0xFFFFFFFFFFFFFFFFFFFFFFFFFFFFFFFFFFFFFFFF AND PUSH2 0x8FC DUP6 SWAP1 DUP2 ISZERO MUL SWAP1 PUSH1 0x40 MLOAD PUSH0 PUSH1 0x40 MLOAD DUP1 DUP4 SUB DUP2 DUP6 DUP9 DUP9 CALL SWAP4 POP POP POP POP SWAP1 POP DUP1 PUSH2 0x1AD3 JUMPI PUSH1 0x40 MLOAD PUSH32 0x8C379A000000000000000000000000000000000000000000000000000000000 DUP2 MSTORE PUSH1 0x4 ADD PUSH2 0x1ACA SWAP1 PUSH2 0x305A JUMP JUMPDEST PUSH1 0x40 MLOAD DUP1 SWAP2 SUB SWAP1 REVERT JUMPDEST POP POP JUMPDEST JUMPDEST JUMPDEST PUSH0 PUSH1 0x4 DUP2 SWAP1 SSTORE POP PUSH0 PUSH1 0xA DUP2 SWAP1 SSTORE POP PUSH0 PUSH1 0x9 PUSH0 PUSH2 0x100 EXP DUP2 SLOAD DUP2 PUSH1 0xFF MUL NOT AND SWAP1 DUP4 ISZERO ISZERO MUL OR SWAP1 SSTORE POP PUSH1 0x1 PUSH1 0x9 PUSH1 0x1 PUSH2 0x100 EXP DUP2 SLOAD DUP2 PUSH1 0xFF MUL NOT AND SWAP1 DUP4 ISZERO ISZERO MUL OR SWAP1 SSTORE POP POP POP PUSH2 0x1B24 PUSH2 0x2561 JUMP JUMPDEST JUMP JUMPDEST PUSH1 0x8 SLOAD DUP2 JUMP JUMPDEST PUSH0 DUP1 PUSH0 DUP5 DUP2 MSTORE PUSH1 0x20 ADD SWAP1 DUP2 MSTORE PUSH1 0x20 ADD PUSH0 KECCAK256 PUSH0 ADD PUSH0 DUP4 PUSH20 0xFFFFFFFFFFFFFFFFFFFFFFFFFFFFFFFFFFFFFFFF AND PUSH20 0xFFFFFFFFFFFFFFFFFFFFFFFFFFFFFFFFFFFFFFFF AND DUP2 MSTORE PUSH1 0x20 ADD SWAP1 DUP2 MSTORE PUSH1 0x20 ADD PUSH0 KECCAK256 PUSH0 SWAP1 SLOAD SWAP1 PUSH2 0x100 EXP SWAP1 DIV PUSH1 0xFF AND SWAP1 POP SWAP3 SWAP2 POP POP JUMP JUMPDEST PUSH1 0xD PUSH1 0x20 MSTORE DUP1 PUSH0 MSTORE PUSH1 0x40 PUSH0 KECCAK256 PUSH0 SWAP2 POP SLOAD SWAP1 PUSH2 0x100 EXP SWAP1 DIV PUSH1 0xFF AND DUP2 JUMP JUMPDEST PUSH0 DUP1 SHL DUP2 JUMP JUMPDEST PUSH1 0x7 SLOAD DUP2 JUMP JUMPDEST PUSH2 0x1C03 PUSH32 0xA49807205CE4D355092EF5A8A18F56E8913CF4A201FBE287825B095693C21775 PUSH1 0x3 PUSH0 SWAP1 SLOAD SWAP1 PUSH2 0x100 EXP SWAP1 DIV PUSH20 0xFFFFFFFFFFFFFFFFFFFFFFFFFFFFFFFFFFFFFFFF AND PUSH2 0x1B2C JUMP JUMPDEST PUSH2 0x1C42 JUMPI PUSH1 0x40 MLOAD PUSH32 0x8C379A000000000000000000000000000000000000000000000000000000000 DUP2 MSTORE PUSH1 0x4 ADD PUSH2 0x1C39 SWAP1 PUSH2 0x2A5C JUMP JUMPDEST PUSH1 0x40 MLOAD DUP1 SWAP2 SUB SWAP1 REVERT JUMPDEST DUP1 PUSH1 0x6 DUP2 SWAP1 SSTORE POP PUSH32 0xE65E8475AE8EBA2B732012A0734794875A0FDBDCCFED8398FFF4DA0C8E0FA00E DUP2 PUSH1 0x40 MLOAD PUSH2 0x1C78 SWAP2 SWAP1 PUSH2 0x28E0 JUMP JUMPDEST PUSH1 0x40 MLOAD DUP1 SWAP2 SUB SWAP1 LOG1 POP JUMP JUMPDEST PUSH1 0x4 SLOAD DUP2 JUMP JUMPDEST PUSH2 0x1CD4 PUSH32 0xA49807205CE4D355092EF5A8A18F56E8913CF4A201FBE287825B095693C21775 PUSH1 0x3 PUSH0 SWAP1 SLOAD SWAP1 PUSH2 0x100 EXP SWAP1 DIV PUSH20 0xFFFFFFFFFFFFFFFFFFFFFFFFFFFFFFFFFFFFFFFF AND PUSH2 0x1B2C JUMP JUMPDEST PUSH2 0x1D13 JUMPI PUSH1 0x40 MLOAD PUSH32 0x8C379A000000000000000000000000000000000000000000000000000000000 DUP2 MSTORE PUSH1 0x4 ADD PUSH2 0x1D0A SWAP1 PUSH2 0x2A5C JUMP JUMPDEST PUSH1 0x40 MLOAD DUP1 SWAP2 SUB SWAP1 REVERT JUMPDEST DUP1 PUSH1 0x6 DUP2 SWAP1 SSTORE POP POP JUMP JUMPDEST PUSH2 0x1D26 DUP3 PUSH2 0x96E JUMP JUMPDEST PUSH2 0x1D2F DUP2 PUSH2 0x2115 JUMP JUMPDEST PUSH2 0x1D39 DUP4 DUP4 PUSH2 0x2219 JUMP JUMPDEST POP POP POP POP JUMP JUMPDEST PUSH2 0x1D47 PUSH2 0x2302 JUMP JUMPDEST PUSH1 0x9 PUSH0 SWAP1 SLOAD SWAP1 PUSH2 0x100 EXP SWAP1 DIV PUSH1 0xFF AND DUP1 ISZERO PUSH2 0x1D6F JUMPI POP PUSH1 0x9 PUSH1 0x1 SWAP1 SLOAD SWAP1 PUSH2 0x100 EXP SWAP1 DIV PUSH1 0xFF AND ISZERO JUMPDEST PUSH2 0x1DAE JUMPI PUSH1 0x40 MLOAD PUSH32 0x8C379A000000000000000000000000000000000000000000000000000000000 DUP2 MSTORE PUSH1 0x4 ADD PUSH2 0x1DA5 SWAP1 PUSH2 0x30C2 JUMP JUMPDEST PUSH1 0x40 MLOAD DUP1 SWAP2 SUB SWAP1 REVERT JUMPDEST PUSH1 0x7 SLOAD CALLVALUE LT ISZERO DUP1 ISZERO PUSH2 0x1DC0 JUMPI POP PUSH0 CALLVALUE EQ ISZERO JUMPDEST PUSH2 0x1DFF JUMPI PUSH1 0x40 MLOAD PUSH32 0x8C379A000000000000000000000000000000000000000000000000000000000 DUP2 MSTORE PUSH1 0x4 ADD PUSH2 0x1DF6 SWAP1 PUSH2 0x3150 JUMP JUMPDEST PUSH1 0x40 MLOAD DUP1 SWAP2 SUB SWAP1 REVERT JUMPDEST PUSH2 0x1E4F CALLVALUE PUSH1 0xC PUSH0 CALLER PUSH20 0xFFFFFFFFFFFFFFFFFFFFFFFFFFFFFFFFFFFFFFFF AND PUSH20 0xFFFFFFFFFFFFFFFFFFFFFFFFFFFFFFFFFFFFFFFF AND DUP2 MSTORE PUSH1 0x20 ADD SWAP1 DUP2 MSTORE PUSH1 0x20 ADD PUSH0 KECCAK256 SLOAD PUSH2 0x256A SWAP1 SWAP2 SWAP1 PUSH4 0xFFFFFFFF AND JUMP JUMPDEST PUSH1 0xC PUSH0 CALLER PUSH20 0xFFFFFFFFFFFFFFFFFFFFFFFFFFFFFFFFFFFFFFFF AND PUSH20 0xFFFFFFFFFFFFFFFFFFFFFFFFFFFFFFFFFFFFFFFF AND DUP2 MSTORE PUSH1 0x20 ADD SWAP1 DUP2 MSTORE PUSH1 0x20 ADD PUSH0 KECCAK256 DUP2 SWAP1 SSTORE POP PUSH2 0x1EA5 CALLVALUE PUSH1 0x4 SLOAD PUSH2 0x256A SWAP1 SWAP2 SWAP1 PUSH4 0xFFFFFFFF AND JUMP JUMPDEST PUSH1 0x4 DUP2 SWAP1 SSTORE POP PUSH1 0xA PUSH0 DUP2 SLOAD DUP1 SWAP3 SWAP2 SWAP1 PUSH2 0x1EBD SWAP1 PUSH2 0x2FA3 JUMP JUMPDEST SWAP2 SWAP1 POP SSTORE POP PUSH2 0x1ECB CALLER PUSH2 0x257F JUMP JUMPDEST PUSH2 0x1F30 JUMPI PUSH1 0xB CALLER SWAP1 DUP1 PUSH1 0x1 DUP2 SLOAD ADD DUP1 DUP3 SSTORE DUP1 SWAP2 POP POP PUSH1 0x1 SWAP1 SUB SWAP1 PUSH0 MSTORE PUSH1 0x20 PUSH0 KECCAK256 ADD PUSH0 SWAP1 SWAP2 SWAP1 SWAP2 SWAP1 SWAP2 PUSH2 0x100 EXP DUP2 SLOAD DUP2 PUSH20 0xFFFFFFFFFFFFFFFFFFFFFFFFFFFFFFFFFFFFFFFF MUL NOT AND SWAP1 DUP4 PUSH20 0xFFFFFFFFFFFFFFFFFFFFFFFFFFFFFFFFFFFFFFFF AND MUL OR SWAP1 SSTORE POP JUMPDEST CALLER PUSH20 0xFFFFFFFFFFFFFFFFFFFFFFFFFFFFFFFFFFFFFFFF AND PUSH32 0x1D5D67670FD52E22078BBAB523A5EAD8206C7991225DD63095E3D3D6B5BE3BAF CALLVALUE TIMESTAMP PUSH1 0x40 MLOAD PUSH2 0x1F78 SWAP3 SWAP2 SWAP1 PUSH2 0x316E JUMP JUMPDEST PUSH1 0x40 MLOAD DUP1 SWAP2 SUB SWAP1 LOG2 PUSH2 0x1F88 PUSH2 0x2561 JUMP JUMPDEST JUMP JUMPDEST PUSH2 0x1FD5 PUSH32 0xA49807205CE4D355092EF5A8A18F56E8913CF4A201FBE287825B095693C21775 PUSH1 0x3 PUSH0 SWAP1 SLOAD SWAP1 PUSH2 0x100 EXP SWAP1 DIV PUSH20 0xFFFFFFFFFFFFFFFFFFFFFFFFFFFFFFFFFFFFFFFF AND PUSH2 0x1B2C JUMP JUMPDEST PUSH2 0x2014 JUMPI PUSH1 0x40 MLOAD PUSH32 0x8C379A000000000000000000000000000000000000000000000000000000000 DUP2 MSTORE PUSH1 0x4 ADD PUSH2 0x200B SWAP1 PUSH2 0x2A5C JUMP JUMPDEST PUSH1 0x40 MLOAD DUP1 SWAP2 SUB SWAP1 REVERT JUMPDEST PUSH1 0x1 PUSH1 0xD PUSH0 DUP4 PUSH20 0xFFFFFFFFFFFFFFFFFFFFFFFFFFFFFFFFFFFFFFFF AND PUSH20 0xFFFFFFFFFFFFFFFFFFFFFFFFFFFFFFFFFFFFFFFF AND DUP2 MSTORE PUSH1 0x20 ADD SWAP1 DUP2 MSTORE PUSH1 0x20 ADD PUSH0 KECCAK256 PUSH0 PUSH2 0x100 EXP DUP2 SLOAD DUP2 PUSH1 0xFF MUL NOT AND SWAP1 DUP4 ISZERO ISZERO MUL OR SWAP1 SSTORE POP PUSH32 0xF93F9A76C1BF3444D22400A00CB9FE990E6ABE9DBB333FDA48859CFEE864543D DUP2 PUSH1 0x1 PUSH1 0x40 MLOAD PUSH2 0x209B SWAP3 SWAP2 SWAP1 PUSH2 0x2B4A JUMP JUMPDEST PUSH1 0x40 MLOAD DUP1 SWAP2 SUB SWAP1 LOG1 POP JUMP JUMPDEST PUSH1 0x6 SLOAD DUP2 JUMP JUMPDEST PUSH0 PUSH32 0x1FFC9A700000000000000000000000000000000000000000000000000000000 PUSH28 0xFFFFFFFFFFFFFFFFFFFFFFFFFFFFFFFFFFFFFFFFFFFFFFFFFFFFFFFF NOT AND DUP3 PUSH28 0xFFFFFFFFFFFFFFFFFFFFFFFFFFFFFFFFFFFFFFFFFFFFFFFFFFFFFFFF NOT AND EQ SWAP1 POP SWAP2 SWAP1 POP JUMP JUMPDEST PUSH2 0x2126 DUP2 PUSH2 0x2121 PUSH2 0x2212 JUMP JUMPDEST PUSH2 0x2627 JUMP JUMPDEST POP JUMP JUMPDEST PUSH0 PUSH2 0x2134 DUP4 DUP4 PUSH2 0x1B2C JUMP JUMPDEST PUSH2 0x2208 JUMPI PUSH1 0x1 PUSH0 DUP1 DUP6 DUP2 MSTORE PUSH1 0x20 ADD SWAP1 DUP2 MSTORE PUSH1 0x20 ADD PUSH0 KECCAK256 PUSH0 ADD PUSH0 DUP5 PUSH20 0xFFFFFFFFFFFFFFFFFFFFFFFFFFFFFFFFFFFFFFFF AND PUSH20 0xFFFFFFFFFFFFFFFFFFFFFFFFFFFFFFFFFFFFFFFF AND DUP2 MSTORE PUSH1 0x20 ADD SWAP1 DUP2 MSTORE PUSH1 0x20 ADD PUSH0 KECCAK256 PUSH0 PUSH2 0x100 EXP DUP2 SLOAD DUP2 PUSH1 0xFF MUL NOT AND SWAP1 DUP4 ISZERO ISZERO MUL OR SWAP1 SSTORE POP PUSH2 0x21A5 PUSH2 0x2212 JUMP JUMPDEST PUSH20 0xFFFFFFFFFFFFFFFFFFFFFFFFFFFFFFFFFFFFFFFF AND DUP3 PUSH20 0xFFFFFFFFFFFFFFFFFFFFFFFFFFFFFFFFFFFFFFFF AND DUP5 PUSH32 0x2F8788117E7EFF1D82E926EC794901D17C78024A50270940304540A733656F0D PUSH1 0x40 MLOAD PUSH1 0x40 MLOAD DUP1 SWAP2 SUB SWAP1 LOG4 PUSH1 0x1 SWAP1 POP PUSH2 0x220C JUMP JUMPDEST PUSH0 SWAP1 POP JUMPDEST SWAP3 SWAP2 POP POP JUMP JUMPDEST PUSH0 CALLER SWAP1 POP SWAP1 JUMP JUMPDEST PUSH0 PUSH2 0x2224 DUP4 DUP4 PUSH2 0x1B2C JUMP JUMPDEST ISZERO PUSH2 0x22F8 JUMPI PUSH0 DUP1 PUSH0 DUP6 DUP2 MSTORE PUSH1 0x20 ADD SWAP1 DUP2 MSTORE PUSH1 0x20 ADD PUSH0 KECCAK256 PUSH0 ADD PUSH0 DUP5 PUSH20 0xFFFFFFFFFFFFFFFFFFFFFFFFFFFFFFFFFFFFFFFF AND PUSH20 0xFFFFFFFFFFFFFFFFFFFFFFFFFFFFFFFFFFFFFFFF AND DUP2 MSTORE PUSH1 0x20 ADD SWAP1 DUP2 MSTORE PUSH1 0x20 ADD PUSH0 KECCAK256 PUSH0 PUSH2 0x100 EXP DUP2 SLOAD DUP2 PUSH1 0xFF MUL NOT AND SWAP1 DUP4 ISZERO ISZERO MUL OR SWAP1 SSTORE POP PUSH2 0x2295 PUSH2 0x2212 JUMP JUMPDEST PUSH20 0xFFFFFFFFFFFFFFFFFFFFFFFFFFFFFFFFFFFFFFFF AND DUP3 PUSH20 0xFFFFFFFFFFFFFFFFFFFFFFFFFFFFFFFFFFFFFFFF AND DUP5 PUSH32 0xF6391F5C32D9C69D2A47EA670B442974B53935D1EDC7FD64EB21E047A839171B PUSH1 0x40 MLOAD PUSH1 0x40 MLOAD DUP1 SWAP2 SUB SWAP1 LOG4 PUSH1 0x1 SWAP1 POP PUSH2 0x22FC JUMP JUMPDEST PUSH0 SWAP1 POP JUMPDEST SWAP3 SWAP2 POP POP JUMP JUMPDEST PUSH1 0x2 PUSH1 0x1 SLOAD SUB PUSH2 0x2347 JUMPI PUSH1 0x40 MLOAD PUSH32 0x8C379A000000000000000000000000000000000000000000000000000000000 DUP2 MSTORE PUSH1 0x4 ADD PUSH2 0x233E SWAP1 PUSH2 0x31DF JUMP JUMPDEST PUSH1 0x40 MLOAD DUP1 SWAP2 SUB SWAP1 REVERT JUMPDEST PUSH1 0x2 PUSH1 0x1 DUP2 SWAP1 SSTORE POP JUMP JUMPDEST PUSH2 0x23E7 DUP2 PUSH1 0x40 MLOAD PUSH1 0x24 ADD PUSH2 0x2365 SWAP2 SWAP1 PUSH2 0x3277 JUMP JUMPDEST PUSH1 0x40 MLOAD PUSH1 0x20 DUP2 DUP4 SUB SUB DUP2 MSTORE SWAP1 PUSH1 0x40 MSTORE PUSH32 0x41304FAC00000000000000000000000000000000000000000000000000000000 PUSH28 0xFFFFFFFFFFFFFFFFFFFFFFFFFFFFFFFFFFFFFFFFFFFFFFFFFFFFFFFF NOT AND PUSH1 0x20 DUP3 ADD DUP1 MLOAD PUSH28 0xFFFFFFFFFFFFFFFFFFFFFFFFFFFFFFFFFFFFFFFFFFFFFFFFFFFFFFFF DUP4 DUP2 DUP4 AND OR DUP4 MSTORE POP POP POP POP PUSH2 0x2678 JUMP JUMPDEST POP JUMP JUMPDEST PUSH2 0x2482 DUP3 DUP3 PUSH1 0x40 MLOAD PUSH1 0x24 ADD PUSH2 0x2400 SWAP3 SWAP2 SWAP1 PUSH2 0x3297 JUMP JUMPDEST PUSH1 0x40 MLOAD PUSH1 0x20 DUP2 DUP4 SUB SUB DUP2 MSTORE SWAP1 PUSH1 0x40 MSTORE PUSH32 0xB60E72CC00000000000000000000000000000000000000000000000000000000 PUSH28 0xFFFFFFFFFFFFFFFFFFFFFFFFFFFFFFFFFFFFFFFFFFFFFFFFFFFFFFFF NOT AND PUSH1 0x20 DUP3 ADD DUP1 MLOAD PUSH28 0xFFFFFFFFFFFFFFFFFFFFFFFFFFFFFFFFFFFFFFFFFFFFFFFFFFFFFFFF DUP4 DUP2 DUP4 AND OR DUP4 MSTORE POP POP POP POP PUSH2 0x2678 JUMP JUMPDEST POP POP JUMP JUMPDEST PUSH0 DUP2 DUP4 PUSH2 0x2493 SWAP2 SWAP1 PUSH2 0x32C5 JUMP JUMPDEST SWAP1 POP SWAP3 SWAP2 POP POP JUMP JUMPDEST PUSH0 DUP2 DUP4 PUSH2 0x24A8 SWAP2 SWAP1 PUSH2 0x3333 JUMP JUMPDEST SWAP1 POP SWAP3 SWAP2 POP POP JUMP JUMPDEST PUSH0 DUP2 DUP4 PUSH2 0x24BD SWAP2 SWAP1 PUSH2 0x3363 JUMP JUMPDEST SWAP1 POP SWAP3 SWAP2 POP POP JUMP JUMPDEST PUSH2 0x255D DUP3 DUP3 PUSH1 0x40 MLOAD PUSH1 0x24 ADD PUSH2 0x24DB SWAP3 SWAP2 SWAP1 PUSH2 0x3396 JUMP JUMPDEST PUSH1 0x40 MLOAD PUSH1 0x20 DUP2 DUP4 SUB SUB DUP2 MSTORE SWAP1 PUSH1 0x40 MSTORE PUSH32 0x319AF33300000000000000000000000000000000000000000000000000000000 PUSH28 0xFFFFFFFFFFFFFFFFFFFFFFFFFFFFFFFFFFFFFFFFFFFFFFFFFFFFFFFF NOT AND PUSH1 0x20 DUP3 ADD DUP1 MLOAD PUSH28 0xFFFFFFFFFFFFFFFFFFFFFFFFFFFFFFFFFFFFFFFFFFFFFFFFFFFFFFFF DUP4 DUP2 DUP4 AND OR DUP4 MSTORE POP POP POP POP PUSH2 0x2678 JUMP JUMPDEST POP POP JUMP JUMPDEST PUSH1 0x1 DUP1 DUP2 SWAP1 SSTORE POP JUMP JUMPDEST PUSH0 DUP2 DUP4 PUSH2 0x2577 SWAP2 SWAP1 PUSH2 0x33C4 JUMP JUMPDEST SWAP1 POP SWAP3 SWAP2 POP POP JUMP JUMPDEST PUSH0 DUP1 PUSH0 SWAP1 POP JUMPDEST PUSH1 0xB DUP1 SLOAD SWAP1 POP DUP2 LT ISZERO PUSH2 0x261D JUMPI DUP3 PUSH20 0xFFFFFFFFFFFFFFFFFFFFFFFFFFFFFFFFFFFFFFFF AND PUSH1 0xB DUP3 DUP2 SLOAD DUP2 LT PUSH2 0x25BD JUMPI PUSH2 0x25BC PUSH2 0x2E53 JUMP JUMPDEST JUMPDEST SWAP1 PUSH0 MSTORE PUSH1 0x20 PUSH0 KECCAK256 ADD PUSH0 SWAP1 SLOAD SWAP1 PUSH2 0x100 EXP SWAP1 DIV PUSH20 0xFFFFFFFFFFFFFFFFFFFFFFFFFFFFFFFFFFFFFFFF AND PUSH20 0xFFFFFFFFFFFFFFFFFFFFFFFFFFFFFFFFFFFFFFFF AND SUB PUSH2 0x260A JUMPI PUSH1 0x1 SWAP2 POP POP PUSH2 0x2622 JUMP JUMPDEST DUP1 DUP1 PUSH2 0x2615 SWAP1 PUSH2 0x2FA3 JUMP JUMPDEST SWAP2 POP POP PUSH2 0x2585 JUMP JUMPDEST POP PUSH0 SWAP1 POP JUMPDEST SWAP2 SWAP1 POP JUMP JUMPDEST PUSH2 0x2631 DUP3 DUP3 PUSH2 0x1B2C JUMP JUMPDEST PUSH2 0x2674 JUMPI DUP1 DUP3 PUSH1 0x40 MLOAD PUSH32 0xE2517D3F00000000000000000000000000000000000000000000000000000000 DUP2 MSTORE PUSH1 0x4 ADD PUSH2 0x266B SWAP3 SWAP2 SWAP1 PUSH2 0x33F7 JUMP JUMPDEST PUSH1 0x40 MLOAD DUP1 SWAP2 SUB SWAP1 REVERT JUMPDEST POP POP JUMP JUMPDEST PUSH2 0x268F DUP2 PUSH2 0x2687 PUSH2 0x2692 PUSH2 0x26B1 JUMP JUMPDEST PUSH4 0xFFFFFFFF AND JUMP JUMPDEST POP JUMP JUMPDEST PUSH0 PUSH11 0x636F6E736F6C652E6C6F67 SWAP1 POP PUSH0 DUP1 DUP4 MLOAD PUSH1 0x20 DUP6 ADD DUP5 GAS STATICCALL POP POP POP JUMP JUMPDEST PUSH2 0x26BC DUP2 SWAP1 POP SWAP2 SWAP1 POP JUMP JUMPDEST PUSH2 0x26C4 PUSH2 0x341E JUMP JUMPDEST JUMP JUMPDEST PUSH0 DUP3 DUP3 MSTORE PUSH1 0x20 DUP3 ADD SWAP1 POP SWAP3 SWAP2 POP POP JUMP JUMPDEST PUSH32 0x436F6E747261637420646F6573206E6F74206163636570742064697265637420 PUSH0 DUP3 ADD MSTORE PUSH32 0x7061796D656E7473000000000000000000000000000000000000000000000000 PUSH1 0x20 DUP3 ADD MSTORE POP JUMP JUMPDEST PUSH0 PUSH2 0x2730 PUSH1 0x28 DUP4 PUSH2 0x26C6 JUMP JUMPDEST SWAP2 POP PUSH2 0x273B DUP3 PUSH2 0x26D6 JUMP JUMPDEST PUSH1 0x40 DUP3 ADD SWAP1 POP SWAP2 SWAP1 POP JUMP JUMPDEST PUSH0 PUSH1 0x20 DUP3 ADD SWAP1 POP DUP2 DUP2 SUB PUSH0 DUP4 ADD MSTORE PUSH2 0x275D DUP2 PUSH2 0x2724 JUMP JUMPDEST SWAP1 POP SWAP2 SWAP1 POP JUMP JUMPDEST PUSH0 DUP1 REVERT JUMPDEST PUSH0 PUSH32 0xFFFFFFFF00000000000000000000000000000000000000000000000000000000 DUP3 AND SWAP1 POP SWAP2 SWAP1 POP JUMP JUMPDEST PUSH2 0x279C DUP2 PUSH2 0x2768 JUMP JUMPDEST DUP2 EQ PUSH2 0x27A6 JUMPI PUSH0 DUP1 REVERT JUMPDEST POP JUMP JUMPDEST PUSH0 DUP2 CALLDATALOAD SWAP1 POP PUSH2 0x27B7 DUP2 PUSH2 0x2793 JUMP JUMPDEST SWAP3 SWAP2 POP POP JUMP JUMPDEST PUSH0 PUSH1 0x20 DUP3 DUP5 SUB SLT ISZERO PUSH2 0x27D2 JUMPI PUSH2 0x27D1 PUSH2 0x2764 JUMP JUMPDEST JUMPDEST PUSH0 PUSH2 0x27DF DUP5 DUP3 DUP6 ADD PUSH2 0x27A9 JUMP JUMPDEST SWAP2 POP POP SWAP3 SWAP2 POP POP JUMP JUMPDEST PUSH0 DUP2 ISZERO ISZERO SWAP1 POP SWAP2 SWAP1 POP JUMP JUMPDEST PUSH2 0x27FC DUP2 PUSH2 0x27E8 JUMP JUMPDEST DUP3 MSTORE POP POP JUMP JUMPDEST PUSH0 PUSH1 0x20 DUP3 ADD SWAP1 POP PUSH2 0x2815 PUSH0 DUP4 ADD DUP5 PUSH2 0x27F3 JUMP JUMPDEST SWAP3 SWAP2 POP POP JUMP JUMPDEST PUSH0 DUP2 SWAP1 POP SWAP2 SWAP1 POP JUMP JUMPDEST PUSH2 0x282D DUP2 PUSH2 0x281B JUMP JUMPDEST DUP2 EQ PUSH2 0x2837 JUMPI PUSH0 DUP1 REVERT JUMPDEST POP JUMP JUMPDEST PUSH0 DUP2 CALLDATALOAD SWAP1 POP PUSH2 0x2848 DUP2 PUSH2 0x2824 JUMP JUMPDEST SWAP3 SWAP2 POP POP JUMP JUMPDEST PUSH0 PUSH1 0x20 DUP3 DUP5 SUB SLT ISZERO PUSH2 0x2863 JUMPI PUSH2 0x2862 PUSH2 0x2764 JUMP JUMPDEST JUMPDEST PUSH0 PUSH2 0x2870 DUP5 DUP3 DUP6 ADD PUSH2 0x283A JUMP JUMPDEST SWAP2 POP POP SWAP3 SWAP2 POP POP JUMP JUMPDEST PUSH0 PUSH20 0xFFFFFFFFFFFFFFFFFFFFFFFFFFFFFFFFFFFFFFFF DUP3 AND SWAP1 POP SWAP2 SWAP1 POP JUMP JUMPDEST PUSH0 PUSH2 0x28A2 DUP3 PUSH2 0x2879 JUMP JUMPDEST SWAP1 POP SWAP2 SWAP1 POP JUMP JUMPDEST PUSH2 0x28B2 DUP2 PUSH2 0x2898 JUMP JUMPDEST DUP3 MSTORE POP POP JUMP JUMPDEST PUSH0 PUSH1 0x20 DUP3 ADD SWAP1 POP PUSH2 0x28CB PUSH0 DUP4 ADD DUP5 PUSH2 0x28A9 JUMP JUMPDEST SWAP3 SWAP2 POP POP JUMP JUMPDEST PUSH2 0x28DA DUP2 PUSH2 0x281B JUMP JUMPDEST DUP3 MSTORE POP POP JUMP JUMPDEST PUSH0 PUSH1 0x20 DUP3 ADD SWAP1 POP PUSH2 0x28F3 PUSH0 DUP4 ADD DUP5 PUSH2 0x28D1 JUMP JUMPDEST SWAP3 SWAP2 POP POP JUMP JUMPDEST PUSH0 DUP2 SWAP1 POP SWAP2 SWAP1 POP JUMP JUMPDEST PUSH2 0x290B DUP2 PUSH2 0x28F9 JUMP JUMPDEST DUP2 EQ PUSH2 0x2915 JUMPI PUSH0 DUP1 REVERT JUMPDEST POP JUMP JUMPDEST PUSH0 DUP2 CALLDATALOAD SWAP1 POP PUSH2 0x2926 DUP2 PUSH2 0x2902 JUMP JUMPDEST SWAP3 SWAP2 POP POP JUMP JUMPDEST PUSH0 PUSH1 0x20 DUP3 DUP5 SUB SLT ISZERO PUSH2 0x2941 JUMPI PUSH2 0x2940 PUSH2 0x2764 JUMP JUMPDEST JUMPDEST PUSH0 PUSH2 0x294E DUP5 DUP3 DUP6 ADD PUSH2 0x2918 JUMP JUMPDEST SWAP2 POP POP SWAP3 SWAP2 POP POP JUMP JUMPDEST PUSH2 0x2960 DUP2 PUSH2 0x28F9 JUMP JUMPDEST DUP3 MSTORE POP POP JUMP JUMPDEST PUSH0 PUSH1 0x20 DUP3 ADD SWAP1 POP PUSH2 0x2979 PUSH0 DUP4 ADD DUP5 PUSH2 0x2957 JUMP JUMPDEST SWAP3 SWAP2 POP POP JUMP JUMPDEST PUSH2 0x2988 DUP2 PUSH2 0x2898 JUMP JUMPDEST DUP2 EQ PUSH2 0x2992 JUMPI PUSH0 DUP1 REVERT JUMPDEST POP JUMP JUMPDEST PUSH0 DUP2 CALLDATALOAD SWAP1 POP PUSH2 0x29A3 DUP2 PUSH2 0x297F JUMP JUMPDEST SWAP3 SWAP2 POP POP JUMP JUMPDEST PUSH0 DUP1 PUSH1 0x40 DUP4 DUP6 SUB SLT ISZERO PUSH2 0x29BF JUMPI PUSH2 0x29BE PUSH2 0x2764 JUMP JUMPDEST JUMPDEST PUSH0 PUSH2 0x29CC DUP6 DUP3 DUP7 ADD PUSH2 0x2918 JUMP JUMPDEST SWAP3 POP POP PUSH1 0x20 PUSH2 0x29DD DUP6 DUP3 DUP7 ADD PUSH2 0x2995 JUMP JUMPDEST SWAP2 POP POP SWAP3 POP SWAP3 SWAP1 POP JUMP JUMPDEST PUSH0 PUSH1 0x20 DUP3 DUP5 SUB SLT ISZERO PUSH2 0x29FC JUMPI PUSH2 0x29FB PUSH2 0x2764 JUMP JUMPDEST JUMPDEST PUSH0 PUSH2 0x2A09 DUP5 DUP3 DUP6 ADD PUSH2 0x2995 JUMP JUMPDEST SWAP2 POP POP SWAP3 SWAP2 POP POP JUMP JUMPDEST PUSH32 0x4E6F74207468652061646D696E00000000000000000000000000000000000000 PUSH0 DUP3 ADD MSTORE POP JUMP JUMPDEST PUSH0 PUSH2 0x2A46 PUSH1 0xD DUP4 PUSH2 0x26C6 JUMP JUMPDEST SWAP2 POP PUSH2 0x2A51 DUP3 PUSH2 0x2A12 JUMP JUMPDEST PUSH1 0x20 DUP3 ADD SWAP1 POP SWAP2 SWAP1 POP JUMP JUMPDEST PUSH0 PUSH1 0x20 DUP3 ADD SWAP1 POP DUP2 DUP2 SUB PUSH0 DUP4 ADD MSTORE PUSH2 0x2A73 DUP2 PUSH2 0x2A3A JUMP JUMPDEST SWAP1 POP SWAP2 SWAP1 POP JUMP JUMPDEST PUSH32 0x526169736520616C726561647920656E64656400000000000000000000000000 PUSH0 DUP3 ADD MSTORE POP JUMP JUMPDEST PUSH0 PUSH2 0x2AAE PUSH1 0x13 DUP4 PUSH2 0x26C6 JUMP JUMPDEST SWAP2 POP PUSH2 0x2AB9 DUP3 PUSH2 0x2A7A JUMP JUMPDEST PUSH1 0x20 DUP3 ADD SWAP1 POP SWAP2 SWAP1 POP JUMP JUMPDEST PUSH0 PUSH1 0x20 DUP3 ADD SWAP1 POP DUP2 DUP2 SUB PUSH0 DUP4 ADD MSTORE PUSH2 0x2ADB DUP2 PUSH2 0x2AA2 JUMP JUMPDEST SWAP1 POP SWAP2 SWAP1 POP JUMP JUMPDEST PUSH32 0x526169736520616C726561647920737461727465640000000000000000000000 PUSH0 DUP3 ADD MSTORE POP JUMP JUMPDEST PUSH0 PUSH2 0x2B16 PUSH1 0x15 DUP4 PUSH2 0x26C6 JUMP JUMPDEST SWAP2 POP PUSH2 0x2B21 DUP3 PUSH2 0x2AE2 JUMP JUMPDEST PUSH1 0x20 DUP3 ADD SWAP1 POP SWAP2 SWAP1 POP JUMP JUMPDEST PUSH0 PUSH1 0x20 DUP3 ADD SWAP1 POP DUP2 DUP2 SUB PUSH0 DUP4 ADD MSTORE PUSH2 0x2B43 DUP2 PUSH2 0x2B0A JUMP JUMPDEST SWAP1 POP SWAP2 SWAP1 POP JUMP JUMPDEST PUSH0 PUSH1 0x40 DUP3 ADD SWAP1 POP PUSH2 0x2B5D PUSH0 DUP4 ADD DUP6 PUSH2 0x28A9 JUMP JUMPDEST PUSH2 0x2B6A PUSH1 0x20 DUP4 ADD DUP5 PUSH2 0x27F3 JUMP JUMPDEST SWAP4 SWAP3 POP POP POP JUMP JUMPDEST PUSH32 0x4D757374206861766520646566696E656420526F6C6573000000000000000000 PUSH0 DUP3 ADD MSTORE POP JUMP JUMPDEST PUSH0 PUSH2 0x2BA5 PUSH1 0x17 DUP4 PUSH2 0x26C6 JUMP JUMPDEST SWAP2 POP PUSH2 0x2BB0 DUP3 PUSH2 0x2B71 JUMP JUMPDEST PUSH1 0x20 DUP3 ADD SWAP1 POP SWAP2 SWAP1 POP JUMP JUMPDEST PUSH0 PUSH1 0x20 DUP3 ADD SWAP1 POP DUP2 DUP2 SUB PUSH0 DUP4 ADD MSTORE PUSH2 0x2BD2 DUP2 PUSH2 0x2B99 JUMP JUMPDEST SWAP1 POP SWAP2 SWAP1 POP JUMP JUMPDEST PUSH32 0x5261697365206E6F7420656E6465640000000000000000000000000000000000 PUSH0 DUP3 ADD MSTORE POP JUMP JUMPDEST PUSH0 PUSH2 0x2C0D PUSH1 0xF DUP4 PUSH2 0x26C6 JUMP JUMPDEST SWAP2 POP PUSH2 0x2C18 DUP3 PUSH2 0x2BD9 JUMP JUMPDEST PUSH1 0x20 DUP3 ADD SWAP1 POP SWAP2 SWAP1 POP JUMP JUMPDEST PUSH0 PUSH1 0x20 DUP3 ADD SWAP1 POP DUP2 DUP2 SUB PUSH0 DUP4 ADD MSTORE PUSH2 0x2C3A DUP2 PUSH2 0x2C01 JUMP JUMPDEST SWAP1 POP SWAP2 SWAP1 POP JUMP JUMPDEST PUSH32 0x526173696564416D6F75742073686F756C64206E6F74206265207A65726F0000 PUSH0 DUP3 ADD MSTORE POP JUMP JUMPDEST PUSH0 PUSH2 0x2C75 PUSH1 0x1E DUP4 PUSH2 0x26C6 JUMP JUMPDEST SWAP2 POP PUSH2 0x2C80 DUP3 PUSH2 0x2C41 JUMP JUMPDEST PUSH1 0x20 DUP3 ADD SWAP1 POP SWAP2 SWAP1 POP JUMP JUMPDEST PUSH0 PUSH1 0x20 DUP3 ADD SWAP1 POP DUP2 DUP2 SUB PUSH0 DUP4 ADD MSTORE PUSH2 0x2CA2 DUP2 PUSH2 0x2C69 JUMP JUMPDEST SWAP1 POP SWAP2 SWAP1 POP JUMP JUMPDEST PUSH32 0x54786E206661696C656420666F72207468652061646D696E207768656E20746F PUSH0 DUP3 ADD MSTORE PUSH32 0x74616C20726173696564203C2068617264636170000000000000000000000000 PUSH1 0x20 DUP3 ADD MSTORE POP JUMP JUMPDEST PUSH0 PUSH2 0x2D03 PUSH1 0x34 DUP4 PUSH2 0x26C6 JUMP JUMPDEST SWAP2 POP PUSH2 0x2D0E DUP3 PUSH2 0x2CA9 JUMP JUMPDEST PUSH1 0x40 DUP3 ADD SWAP1 POP SWAP2 SWAP1 POP JUMP JUMPDEST PUSH0 PUSH1 0x20 DUP3 ADD SWAP1 POP DUP2 DUP2 SUB PUSH0 DUP4 ADD MSTORE PUSH2 0x2D30 DUP2 PUSH2 0x2CF7 JUMP JUMPDEST SWAP1 POP SWAP2 SWAP1 POP JUMP JUMPDEST PUSH32 0x54786E206661696C656420666F72207468652053757065722041646D696E2077 PUSH0 DUP3 ADD MSTORE PUSH32 0x68656E20746F74616C20726173696564203C2068617264636170000000000000 PUSH1 0x20 DUP3 ADD MSTORE POP JUMP JUMPDEST PUSH0 PUSH2 0x2D91 PUSH1 0x3A DUP4 PUSH2 0x26C6 JUMP JUMPDEST SWAP2 POP PUSH2 0x2D9C DUP3 PUSH2 0x2D37 JUMP JUMPDEST PUSH1 0x40 DUP3 ADD SWAP1 POP SWAP2 SWAP1 POP JUMP JUMPDEST PUSH0 PUSH1 0x20 DUP3 ADD SWAP1 POP DUP2 DUP2 SUB PUSH0 DUP4 ADD MSTORE PUSH2 0x2DBE DUP2 PUSH2 0x2D85 JUMP JUMPDEST SWAP1 POP SWAP2 SWAP1 POP JUMP JUMPDEST PUSH32 0x54786E206661696C656420666F72207468652061646D696E207768656E20746F PUSH0 DUP3 ADD MSTORE PUSH32 0x74616C20726173696564203E2068617264636170000000000000000000000000 PUSH1 0x20 DUP3 ADD MSTORE POP JUMP JUMPDEST PUSH0 PUSH2 0x2E1F PUSH1 0x34 DUP4 PUSH2 0x26C6 JUMP JUMPDEST SWAP2 POP PUSH2 0x2E2A DUP3 PUSH2 0x2DC5 JUMP JUMPDEST PUSH1 0x40 DUP3 ADD SWAP1 POP SWAP2 SWAP1 POP JUMP JUMPDEST PUSH0 PUSH1 0x20 DUP3 ADD SWAP1 POP DUP2 DUP2 SUB PUSH0 DUP4 ADD MSTORE PUSH2 0x2E4C DUP2 PUSH2 0x2E13 JUMP JUMPDEST SWAP1 POP SWAP2 SWAP1 POP JUMP JUMPDEST PUSH32 0x4E487B7100000000000000000000000000000000000000000000000000000000 PUSH0 MSTORE PUSH1 0x32 PUSH1 0x4 MSTORE PUSH1 0x24 PUSH0 REVERT JUMPDEST PUSH32 0x4E6F7420612076616C6964206164647265737300000000000000000000000000 PUSH0 DUP3 ADD MSTORE POP JUMP JUMPDEST PUSH0 PUSH2 0x2EB4 PUSH1 0x13 DUP4 PUSH2 0x26C6 JUMP JUMPDEST SWAP2 POP PUSH2 0x2EBF DUP3 PUSH2 0x2E80 JUMP JUMPDEST PUSH1 0x20 DUP3 ADD SWAP1 POP SWAP2 SWAP1 POP JUMP JUMPDEST PUSH0 PUSH1 0x20 DUP3 ADD SWAP1 POP DUP2 DUP2 SUB PUSH0 DUP4 ADD MSTORE PUSH2 0x2EE1 DUP2 PUSH2 0x2EA8 JUMP JUMPDEST SWAP1 POP SWAP2 SWAP1 POP JUMP JUMPDEST PUSH32 0x54786E206661696C656420666F722074686520636F6E7472696275746F725365 PUSH0 DUP3 ADD MSTORE PUSH32 0x6E64000000000000000000000000000000000000000000000000000000000000 PUSH1 0x20 DUP3 ADD MSTORE POP JUMP JUMPDEST PUSH0 PUSH2 0x2F42 PUSH1 0x22 DUP4 PUSH2 0x26C6 JUMP JUMPDEST SWAP2 POP PUSH2 0x2F4D DUP3 PUSH2 0x2EE8 JUMP JUMPDEST PUSH1 0x40 DUP3 ADD SWAP1 POP SWAP2 SWAP1 POP JUMP JUMPDEST PUSH0 PUSH1 0x20 DUP3 ADD SWAP1 POP DUP2 DUP2 SUB PUSH0 DUP4 ADD MSTORE PUSH2 0x2F6F DUP2 PUSH2 0x2F36 JUMP JUMPDEST SWAP1 POP SWAP2 SWAP1 POP JUMP JUMPDEST PUSH32 0x4E487B7100000000000000000000000000000000000000000000000000000000 PUSH0 MSTORE PUSH1 0x11 PUSH1 0x4 MSTORE PUSH1 0x24 PUSH0 REVERT JUMPDEST PUSH0 PUSH2 0x2FAD DUP3 PUSH2 0x281B JUMP JUMPDEST SWAP2 POP PUSH32 0xFFFFFFFFFFFFFFFFFFFFFFFFFFFFFFFFFFFFFFFFFFFFFFFFFFFFFFFFFFFFFFFF DUP3 SUB PUSH2 0x2FDF JUMPI PUSH2 0x2FDE PUSH2 0x2F76 JUMP JUMPDEST JUMPDEST PUSH1 0x1 DUP3 ADD SWAP1 POP SWAP2 SWAP1 POP JUMP JUMPDEST PUSH32 0x54786E206661696C656420666F72207468652061646D696E207768656E20746F PUSH0 DUP3 ADD MSTORE PUSH32 0x74616C20726173696564203D3D20686172646361700000000000000000000000 PUSH1 0x20 DUP3 ADD MSTORE POP JUMP JUMPDEST PUSH0 PUSH2 0x3044 PUSH1 0x35 DUP4 PUSH2 0x26C6 JUMP JUMPDEST SWAP2 POP PUSH2 0x304F DUP3 PUSH2 0x2FEA JUMP JUMPDEST PUSH1 0x40 DUP3 ADD SWAP1 POP SWAP2 SWAP1 POP JUMP JUMPDEST PUSH0 PUSH1 0x20 DUP3 ADD SWAP1 POP DUP2 DUP2 SUB PUSH0 DUP4 ADD MSTORE PUSH2 0x3071 DUP2 PUSH2 0x3038 JUMP JUMPDEST SWAP1 POP SWAP2 SWAP1 POP JUMP JUMPDEST PUSH32 0x5261736965206D757374206265206F6E676F696E670000000000000000000000 PUSH0 DUP3 ADD MSTORE POP JUMP JUMPDEST PUSH0 PUSH2 0x30AC PUSH1 0x15 DUP4 PUSH2 0x26C6 JUMP JUMPDEST SWAP2 POP PUSH2 0x30B7 DUP3 PUSH2 0x3078 JUMP JUMPDEST PUSH1 0x20 DUP3 ADD SWAP1 POP SWAP2 SWAP1 POP JUMP JUMPDEST PUSH0 PUSH1 0x20 DUP3 ADD SWAP1 POP DUP2 DUP2 SUB PUSH0 DUP4 ADD MSTORE PUSH2 0x30D9 DUP2 PUSH2 0x30A0 JUMP JUMPDEST SWAP1 POP SWAP2 SWAP1 POP JUMP JUMPDEST PUSH32 0x436F6E747269627574696F6E2073686F756C6420626520677265617465722074 PUSH0 DUP3 ADD MSTORE PUSH32 0x68616E206D696E696D756D20436F6E747269627574696F6E0000000000000000 PUSH1 0x20 DUP3 ADD MSTORE POP JUMP JUMPDEST PUSH0 PUSH2 0x313A PUSH1 0x38 DUP4 PUSH2 0x26C6 JUMP JUMPDEST SWAP2 POP PUSH2 0x3145 DUP3 PUSH2 0x30E0 JUMP JUMPDEST PUSH1 0x40 DUP3 ADD SWAP1 POP SWAP2 SWAP1 POP JUMP JUMPDEST PUSH0 PUSH1 0x20 DUP3 ADD SWAP1 POP DUP2 DUP2 SUB PUSH0 DUP4 ADD MSTORE PUSH2 0x3167 DUP2 PUSH2 0x312E JUMP JUMPDEST SWAP1 POP SWAP2 SWAP1 POP JUMP JUMPDEST PUSH0 PUSH1 0x40 DUP3 ADD SWAP1 POP PUSH2 0x3181 PUSH0 DUP4 ADD DUP6 PUSH2 0x28D1 JUMP JUMPDEST PUSH2 0x318E PUSH1 0x20 DUP4 ADD DUP5 PUSH2 0x28D1 JUMP JUMPDEST SWAP4 SWAP3 POP POP POP JUMP JUMPDEST PUSH32 0x5265656E7472616E637947756172643A207265656E7472616E742063616C6C00 PUSH0 DUP3 ADD MSTORE POP JUMP JUMPDEST PUSH0 PUSH2 0x31C9 PUSH1 0x1F DUP4 PUSH2 0x26C6 JUMP JUMPDEST SWAP2 POP PUSH2 0x31D4 DUP3 PUSH2 0x3195 JUMP JUMPDEST PUSH1 0x20 DUP3 ADD SWAP1 POP SWAP2 SWAP1 POP JUMP JUMPDEST PUSH0 PUSH1 0x20 DUP3 ADD SWAP1 POP DUP2 DUP2 SUB PUSH0 DUP4 ADD MSTORE PUSH2 0x31F6 DUP2 PUSH2 0x31BD JUMP JUMPDEST SWAP1 POP SWAP2 SWAP1 POP JUMP JUMPDEST PUSH0 DUP2 MLOAD SWAP1 POP SWAP2 SWAP1 POP JUMP JUMPDEST PUSH0 JUMPDEST DUP4 DUP2 LT ISZERO PUSH2 0x3224 JUMPI DUP1 DUP3 ADD MLOAD DUP2 DUP5 ADD MSTORE PUSH1 0x20 DUP2 ADD SWAP1 POP PUSH2 0x3209 JUMP JUMPDEST PUSH0 DUP5 DUP5 ADD MSTORE POP POP POP POP JUMP JUMPDEST PUSH0 PUSH1 0x1F NOT PUSH1 0x1F DUP4 ADD AND SWAP1 POP SWAP2 SWAP1 POP JUMP JUMPDEST PUSH0 PUSH2 0x3249 DUP3 PUSH2 0x31FD JUMP JUMPDEST PUSH2 0x3253 DUP2 DUP6 PUSH2 0x26C6 JUMP JUMPDEST SWAP4 POP PUSH2 0x3263 DUP2 DUP6 PUSH1 0x20 DUP7 ADD PUSH2 0x3207 JUMP JUMPDEST PUSH2 0x326C DUP2 PUSH2 0x322F JUMP JUMPDEST DUP5 ADD SWAP2 POP POP SWAP3 SWAP2 POP POP JUMP JUMPDEST PUSH0 PUSH1 0x20 DUP3 ADD SWAP1 POP DUP2 DUP2 SUB PUSH0 DUP4 ADD MSTORE PUSH2 0x328F DUP2 DUP5 PUSH2 0x323F JUMP JUMPDEST SWAP1 POP SWAP3 SWAP2 POP POP JUMP JUMPDEST PUSH0 PUSH1 0x40 DUP3 ADD SWAP1 POP DUP2 DUP2 SUB PUSH0 DUP4 ADD MSTORE PUSH2 0x32AF DUP2 DUP6 PUSH2 0x323F JUMP JUMPDEST SWAP1 POP PUSH2 0x32BE PUSH1 0x20 DUP4 ADD DUP5 PUSH2 0x28D1 JUMP JUMPDEST SWAP4 SWAP3 POP POP POP JUMP JUMPDEST PUSH0 PUSH2 0x32CF DUP3 PUSH2 0x281B JUMP JUMPDEST SWAP2 POP PUSH2 0x32DA DUP4 PUSH2 0x281B JUMP JUMPDEST SWAP3 POP DUP3 DUP3 MUL PUSH2 0x32E8 DUP2 PUSH2 0x281B JUMP JUMPDEST SWAP2 POP DUP3 DUP3 DIV DUP5 EQ DUP4 ISZERO OR PUSH2 0x32FF JUMPI PUSH2 0x32FE PUSH2 0x2F76 JUMP JUMPDEST JUMPDEST POP SWAP3 SWAP2 POP POP JUMP JUMPDEST PUSH32 0x4E487B7100000000000000000000000000000000000000000000000000000000 PUSH0 MSTORE PUSH1 0x12 PUSH1 0x4 MSTORE PUSH1 0x24 PUSH0 REVERT JUMPDEST PUSH0 PUSH2 0x333D DUP3 PUSH2 0x281B JUMP JUMPDEST SWAP2 POP PUSH2 0x3348 DUP4 PUSH2 0x281B JUMP JUMPDEST SWAP3 POP DUP3 PUSH2 0x3358 JUMPI PUSH2 0x3357 PUSH2 0x3306 JUMP JUMPDEST JUMPDEST DUP3 DUP3 DIV SWAP1 POP SWAP3 SWAP2 POP POP JUMP JUMPDEST PUSH0 PUSH2 0x336D DUP3 PUSH2 0x281B JUMP JUMPDEST SWAP2 POP PUSH2 0x3378 DUP4 PUSH2 0x281B JUMP JUMPDEST SWAP3 POP DUP3 DUP3 SUB SWAP1 POP DUP2 DUP2 GT ISZERO PUSH2 0x3390 JUMPI PUSH2 0x338F PUSH2 0x2F76 JUMP JUMPDEST JUMPDEST SWAP3 SWAP2 POP POP JUMP JUMPDEST PUSH0 PUSH1 0x40 DUP3 ADD SWAP1 POP DUP2 DUP2 SUB PUSH0 DUP4 ADD MSTORE PUSH2 0x33AE DUP2 DUP6 PUSH2 0x323F JUMP JUMPDEST SWAP1 POP PUSH2 0x33BD PUSH1 0x20 DUP4 ADD DUP5 PUSH2 0x28A9 JUMP JUMPDEST SWAP4 SWAP3 POP POP POP JUMP JUMPDEST PUSH0 PUSH2 0x33CE DUP3 PUSH2 0x281B JUMP JUMPDEST SWAP2 POP PUSH2 0x33D9 DUP4 PUSH2 0x281B JUMP JUMPDEST SWAP3 POP DUP3 DUP3 ADD SWAP1 POP DUP1 DUP3 GT ISZERO PUSH2 0x33F1 JUMPI PUSH2 0x33F0 PUSH2 0x2F76 JUMP JUMPDEST JUMPDEST SWAP3 SWAP2 POP POP JUMP JUMPDEST PUSH0 PUSH1 0x40 DUP3 ADD SWAP1 POP PUSH2 0x340A PUSH0 DUP4 ADD DUP6 PUSH2 0x28A9 JUMP JUMPDEST PUSH2 0x3417 PUSH1 0x20 DUP4 ADD DUP5 PUSH2 0x2957 JUMP JUMPDEST SWAP4 SWAP3 POP POP POP JUMP JUMPDEST PUSH32 0x4E487B7100000000000000000000000000000000000000000000000000000000 PUSH0 MSTORE PUSH1 0x51 PUSH1 0x4 MSTORE PUSH1 0x24 PUSH0 REVERT INVALID PUSH2 0x646D PUSH10 0x6E416D6F756E74205768 PUSH6 0x6E20746F7461 PUSH13 0x20726173696564203C20686172 PUSH5 0x6361706164 PUSH14 0x696E416D6F756E74205768656E20 PUSH21 0x6F74616C20726173696564203D3D20686172646361 PUSH17 0x737570657241646D696E416D7420576865 PUSH15 0x20746F74616C20726173696564203D RETURNDATASIZE KECCAK256 PUSH9 0x617264636170207375 PUSH17 0x657241646D696E416D74205768656E2074 PUSH16 0x74616C20726173696564203C20686172 PUSH5 0x6361702041 PUSH19 0x65207765207265616C6C7920726566756E6469 PUSH15 0x6720746F2074686520757365727373 PUSH22 0x70657241646D696E416D74205768656E20746F74616C KECCAK256 PUSH19 0x6173696564203E20686172646361702061646D PUSH10 0x6E416D6F756E74205768 PUSH6 0x6E20746F7461 PUSH13 0x20726173696564203E20686172 PUSH5 0x636170A264 PUSH10 0x7066735822122047331B CALL DUP11 DUP3 0xBC CALLCODE 0xDA MSIZE EXP 0x23 0xD 0xAC DUP9 ADD 0x29 PUSH18 0xC29E45AB507A01A9B0692406D40264736F6C PUSH4 0x43000814 STOP CALLER "
		},
		"gasEstimates": {
			"creation": {
				"codeDepositCost": "2744400",
				"executionCost": "infinite",
				"totalCost": "infinite"
			},
			"external": {
				"ADMIN_ROLE()": "458",
				"DEFAULT_ADMIN_ROLE()": "375",
				"SUPER_ADMIN()": "371",
				"addToWhitelist(address)": "infinite",
				"contractCreator()": "2554",
				"contribute()": "infinite",
				"contributions(address)": "2914",
				"contributorsList(uint256)": "5035",
				"endRaise()": "infinite",
				"feePercent()": "2515",
				"finaliseRaise()": "infinite",
				"getContractBalance()": "423",
				"getRoleAdmin(bytes32)": "infinite",
				"grantRole(bytes32,address)": "infinite",
				"hardCap()": "2557",
				"hasRole(bytes32,address)": "3211",
				"increaseHardCap(uint256)": "infinite",
				"maxContribution()": "2492",
				"minContribution()": "2492",
				"numOfContributors()": "2538",
				"raiseEnded()": "2607",
				"raiseStarted()": "2577",
				"removeFromWhitelist(address)": "infinite",
				"renounceRole(bytes32,address)": "infinite",
				"revokeRole(bytes32,address)": "infinite",
				"setFeePercent(uint256)": "27086",
				"setHardCap(uint256)": "27062",
				"setMaxContribution(uint256)": "infinite",
				"setMinContribution(uint256)": "infinite",
				"startRaise()": "31911",
				"superAdmin()": "2598",
				"supportsInterface(bytes4)": "764",
				"totalRaised()": "2536",
				"whitelist(address)": "2944"
			},
			"internal": {
				"isContributor(address)": "infinite"
			}
		},
		"methodIdentifiers": {
			"ADMIN_ROLE()": "75b238fc",
			"DEFAULT_ADMIN_ROLE()": "a217fddf",
			"SUPER_ADMIN()": "7c7c7c3c",
			"addToWhitelist(address)": "e43252d7",
			"contractCreator()": "1e2f73b1",
			"contribute()": "d7bb99ba",
			"contributions(address)": "42e94c90",
			"contributorsList(uint256)": "0b9f2c4a",
			"endRaise()": "2b67b671",
			"feePercent()": "7fd6f15c",
			"finaliseRaise()": "8d070e75",
			"getContractBalance()": "6f9fb98a",
			"getRoleAdmin(bytes32)": "248a9ca3",
			"grantRole(bytes32,address)": "2f2ff15d",
			"hardCap()": "fb86a404",
			"hasRole(bytes32,address)": "91d14854",
			"increaseHardCap(uint256)": "b8e0d08d",
			"maxContribution()": "8d3d6576",
			"minContribution()": "aaffadf3",
			"numOfContributors()": "1e206f15",
			"raiseEnded()": "3e0498d2",
			"raiseStarted()": "708dee5e",
			"removeFromWhitelist(address)": "8ab1d681",
			"renounceRole(bytes32,address)": "36568abe",
			"revokeRole(bytes32,address)": "d547741f",
			"setFeePercent(uint256)": "7ce3489b",
			"setHardCap(uint256)": "d18d944b",
			"setMaxContribution(uint256)": "03ed9d21",
			"setMinContribution(uint256)": "473b0d46",
			"startRaise()": "6d66d2ce",
			"superAdmin()": "29575f6a",
			"supportsInterface(bytes4)": "01ffc9a7",
			"totalRaised()": "c5c4744c",
			"whitelist(address)": "9b19251a"
		}
	},
	"abi": [
		{
			"inputs": [
				{
					"internalType": "address",
					"name": "_admin",
					"type": "address"
				},
				{
					"internalType": "uint256",
					"name": "_hardcap",
					"type": "uint256"
				},
				{
					"internalType": "address",
					"name": "_superAdmin",
					"type": "address"
				},
				{
					"internalType": "uint256",
					"name": "_minContribution",
					"type": "uint256"
				}
			],
			"stateMutability": "nonpayable",
			"type": "constructor"
		},
		{
			"inputs": [],
			"name": "AccessControlBadConfirmation",
			"type": "error"
		},
		{
			"inputs": [
				{
					"internalType": "address",
					"name": "account",
					"type": "address"
				},
				{
					"internalType": "bytes32",
					"name": "neededRole",
					"type": "bytes32"
				}
			],
			"name": "AccessControlUnauthorizedAccount",
			"type": "error"
		},
		{
			"anonymous": false,
			"inputs": [
				{
					"indexed": false,
					"internalType": "uint256",
					"name": "_newHardCap",
					"type": "uint256"
				}
			],
			"name": "HardCapIncreased",
			"type": "event"
		},
		{
			"anonymous": false,
			"inputs": [
				{
					"indexed": false,
					"internalType": "uint256",
					"name": "_max",
					"type": "uint256"
				}
			],
			"name": "MaxContributionSet",
			"type": "event"
		},
		{
			"anonymous": false,
			"inputs": [
				{
					"indexed": false,
					"internalType": "uint256",
					"name": "_min",
					"type": "uint256"
				}
			],
			"name": "MinContributionSet",
			"type": "event"
		},
		{
			"anonymous": false,
			"inputs": [
				{
					"indexed": true,
					"internalType": "bytes32",
					"name": "role",
					"type": "bytes32"
				},
				{
					"indexed": true,
					"internalType": "bytes32",
					"name": "previousAdminRole",
					"type": "bytes32"
				},
				{
					"indexed": true,
					"internalType": "bytes32",
					"name": "newAdminRole",
					"type": "bytes32"
				}
			],
			"name": "RoleAdminChanged",
			"type": "event"
		},
		{
			"anonymous": false,
			"inputs": [
				{
					"indexed": true,
					"internalType": "bytes32",
					"name": "role",
					"type": "bytes32"
				},
				{
					"indexed": true,
					"internalType": "address",
					"name": "account",
					"type": "address"
				},
				{
					"indexed": true,
					"internalType": "address",
					"name": "sender",
					"type": "address"
				}
			],
			"name": "RoleGranted",
			"type": "event"
		},
		{
			"anonymous": false,
			"inputs": [
				{
					"indexed": true,
					"internalType": "bytes32",
					"name": "role",
					"type": "bytes32"
				},
				{
					"indexed": true,
					"internalType": "address",
					"name": "account",
					"type": "address"
				},
				{
					"indexed": true,
					"internalType": "address",
					"name": "sender",
					"type": "address"
				}
			],
			"name": "RoleRevoked",
			"type": "event"
		},
		{
			"anonymous": false,
			"inputs": [
				{
					"indexed": false,
					"internalType": "address",
					"name": "_account",
					"type": "address"
				},
				{
					"indexed": false,
					"internalType": "bool",
					"name": "_value",
					"type": "bool"
				}
			],
			"name": "WhitelistUpdated",
			"type": "event"
		},
		{
			"anonymous": false,
			"inputs": [],
			"name": "raiseEndedEvent",
			"type": "event"
		},
		{
			"anonymous": false,
			"inputs": [],
			"name": "raiseStartedEvent",
			"type": "event"
		},
		{
			"anonymous": false,
			"inputs": [
				{
					"indexed": true,
					"internalType": "address",
					"name": "_user",
					"type": "address"
				},
				{
					"indexed": false,
					"internalType": "uint256",
					"name": "_value",
					"type": "uint256"
				},
				{
					"indexed": false,
					"internalType": "uint256",
					"name": "_time",
					"type": "uint256"
				}
			],
			"name": "totalContributed",
			"type": "event"
		},
		{
			"inputs": [],
			"name": "ADMIN_ROLE",
			"outputs": [
				{
					"internalType": "bytes32",
					"name": "",
					"type": "bytes32"
				}
			],
			"stateMutability": "view",
			"type": "function"
		},
		{
			"inputs": [],
			"name": "DEFAULT_ADMIN_ROLE",
			"outputs": [
				{
					"internalType": "bytes32",
					"name": "",
					"type": "bytes32"
				}
			],
			"stateMutability": "view",
			"type": "function"
		},
		{
			"inputs": [],
			"name": "SUPER_ADMIN",
			"outputs": [
				{
					"internalType": "bytes32",
					"name": "",
					"type": "bytes32"
				}
			],
			"stateMutability": "view",
			"type": "function"
		},
		{
			"inputs": [
				{
					"internalType": "address",
					"name": "_account",
					"type": "address"
				}
			],
			"name": "addToWhitelist",
			"outputs": [],
			"stateMutability": "nonpayable",
			"type": "function"
		},
		{
			"inputs": [],
			"name": "contractCreator",
			"outputs": [
				{
					"internalType": "address",
					"name": "",
					"type": "address"
				}
			],
			"stateMutability": "view",
			"type": "function"
		},
		{
			"inputs": [],
			"name": "contribute",
			"outputs": [],
			"stateMutability": "payable",
			"type": "function"
		},
		{
			"inputs": [
				{
					"internalType": "address",
					"name": "",
					"type": "address"
				}
			],
			"name": "contributions",
			"outputs": [
				{
					"internalType": "uint256",
					"name": "",
					"type": "uint256"
				}
			],
			"stateMutability": "view",
			"type": "function"
		},
		{
			"inputs": [
				{
					"internalType": "uint256",
					"name": "",
					"type": "uint256"
				}
			],
			"name": "contributorsList",
			"outputs": [
				{
					"internalType": "address",
					"name": "",
					"type": "address"
				}
			],
			"stateMutability": "view",
			"type": "function"
		},
		{
			"inputs": [],
			"name": "endRaise",
			"outputs": [],
			"stateMutability": "nonpayable",
			"type": "function"
		},
		{
			"inputs": [],
			"name": "feePercent",
			"outputs": [
				{
					"internalType": "uint256",
					"name": "",
					"type": "uint256"
				}
			],
			"stateMutability": "view",
			"type": "function"
		},
		{
			"inputs": [],
			"name": "finaliseRaise",
			"outputs": [],
			"stateMutability": "payable",
			"type": "function"
		},
		{
			"inputs": [],
			"name": "getContractBalance",
			"outputs": [
				{
					"internalType": "uint256",
					"name": "",
					"type": "uint256"
				}
			],
			"stateMutability": "view",
			"type": "function"
		},
		{
			"inputs": [
				{
					"internalType": "bytes32",
					"name": "role",
					"type": "bytes32"
				}
			],
			"name": "getRoleAdmin",
			"outputs": [
				{
					"internalType": "bytes32",
					"name": "",
					"type": "bytes32"
				}
			],
			"stateMutability": "view",
			"type": "function"
		},
		{
			"inputs": [
				{
					"internalType": "bytes32",
					"name": "role",
					"type": "bytes32"
				},
				{
					"internalType": "address",
					"name": "account",
					"type": "address"
				}
			],
			"name": "grantRole",
			"outputs": [],
			"stateMutability": "nonpayable",
			"type": "function"
		},
		{
			"inputs": [],
			"name": "hardCap",
			"outputs": [
				{
					"internalType": "uint256",
					"name": "",
					"type": "uint256"
				}
			],
			"stateMutability": "view",
			"type": "function"
		},
		{
			"inputs": [
				{
					"internalType": "bytes32",
					"name": "role",
					"type": "bytes32"
				},
				{
					"internalType": "address",
					"name": "account",
					"type": "address"
				}
			],
			"name": "hasRole",
			"outputs": [
				{
					"internalType": "bool",
					"name": "",
					"type": "bool"
				}
			],
			"stateMutability": "view",
			"type": "function"
		},
		{
			"inputs": [
				{
					"internalType": "uint256",
					"name": "_newHardCap",
					"type": "uint256"
				}
			],
			"name": "increaseHardCap",
			"outputs": [],
			"stateMutability": "nonpayable",
			"type": "function"
		},
		{
			"inputs": [],
			"name": "maxContribution",
			"outputs": [
				{
					"internalType": "uint256",
					"name": "",
					"type": "uint256"
				}
			],
			"stateMutability": "view",
			"type": "function"
		},
		{
			"inputs": [],
			"name": "minContribution",
			"outputs": [
				{
					"internalType": "uint256",
					"name": "",
					"type": "uint256"
				}
			],
			"stateMutability": "view",
			"type": "function"
		},
		{
			"inputs": [],
			"name": "numOfContributors",
			"outputs": [
				{
					"internalType": "uint256",
					"name": "",
					"type": "uint256"
				}
			],
			"stateMutability": "view",
			"type": "function"
		},
		{
			"inputs": [],
			"name": "raiseEnded",
			"outputs": [
				{
					"internalType": "bool",
					"name": "",
					"type": "bool"
				}
			],
			"stateMutability": "view",
			"type": "function"
		},
		{
			"inputs": [],
			"name": "raiseStarted",
			"outputs": [
				{
					"internalType": "bool",
					"name": "",
					"type": "bool"
				}
			],
			"stateMutability": "view",
			"type": "function"
		},
		{
			"inputs": [
				{
					"internalType": "address",
					"name": "_account",
					"type": "address"
				}
			],
			"name": "removeFromWhitelist",
			"outputs": [],
			"stateMutability": "nonpayable",
			"type": "function"
		},
		{
			"inputs": [
				{
					"internalType": "bytes32",
					"name": "role",
					"type": "bytes32"
				},
				{
					"internalType": "address",
					"name": "callerConfirmation",
					"type": "address"
				}
			],
			"name": "renounceRole",
			"outputs": [],
			"stateMutability": "nonpayable",
			"type": "function"
		},
		{
			"inputs": [
				{
					"internalType": "bytes32",
					"name": "role",
					"type": "bytes32"
				},
				{
					"internalType": "address",
					"name": "account",
					"type": "address"
				}
			],
			"name": "revokeRole",
			"outputs": [],
			"stateMutability": "nonpayable",
			"type": "function"
		},
		{
			"inputs": [
				{
					"internalType": "uint256",
					"name": "_feePercent",
					"type": "uint256"
				}
			],
			"name": "setFeePercent",
			"outputs": [],
			"stateMutability": "nonpayable",
			"type": "function"
		},
		{
			"inputs": [
				{
					"internalType": "uint256",
					"name": "_hardCap",
					"type": "uint256"
				}
			],
			"name": "setHardCap",
			"outputs": [],
			"stateMutability": "nonpayable",
			"type": "function"
		},
		{
			"inputs": [
				{
					"internalType": "uint256",
					"name": "_max",
					"type": "uint256"
				}
			],
			"name": "setMaxContribution",
			"outputs": [],
			"stateMutability": "nonpayable",
			"type": "function"
		},
		{
			"inputs": [
				{
					"internalType": "uint256",
					"name": "_min",
					"type": "uint256"
				}
			],
			"name": "setMinContribution",
			"outputs": [],
			"stateMutability": "nonpayable",
			"type": "function"
		},
		{
			"inputs": [],
			"name": "startRaise",
			"outputs": [],
			"stateMutability": "nonpayable",
			"type": "function"
		},
		{
			"inputs": [],
			"name": "superAdmin",
			"outputs": [
				{
					"internalType": "address",
					"name": "",
					"type": "address"
				}
			],
			"stateMutability": "view",
			"type": "function"
		},
		{
			"inputs": [
				{
					"internalType": "bytes4",
					"name": "interfaceId",
					"type": "bytes4"
				}
			],
			"name": "supportsInterface",
			"outputs": [
				{
					"internalType": "bool",
					"name": "",
					"type": "bool"
				}
			],
			"stateMutability": "view",
			"type": "function"
		},
		{
			"inputs": [],
			"name": "totalRaised",
			"outputs": [
				{
					"internalType": "uint256",
					"name": "",
					"type": "uint256"
				}
			],
			"stateMutability": "view",
			"type": "function"
		},
		{
			"inputs": [
				{
					"internalType": "address",
					"name": "",
					"type": "address"
				}
			],
			"name": "whitelist",
			"outputs": [
				{
					"internalType": "bool",
					"name": "",
					"type": "bool"
				}
			],
			"stateMutability": "view",
			"type": "function"
		},
		{
			"stateMutability": "payable",
			"type": "receive"
		}
	]
}