{
	"data": {
		"bytecode": {
			"linkReferences": {},
			"object": "6080604052600a600555348015610014575f80fd5b5060405161440d38038061440d8339818101604052810190610036919061034a565b600180819055508260025f6101000a81548173ffffffffffffffffffffffffffffffffffffffff021916908373ffffffffffffffffffffffffffffffffffffffff1602179055508360035f6101000a81548173ffffffffffffffffffffffffffffffffffffffff021916908373ffffffffffffffffffffffffffffffffffffffff160217905550806007819055508160088190555061011c7fa49807205ce4d355092ef5a8a18f56e8913cf4a201fbe287825b095693c2177560035f9054906101000a900473ffffffffffffffffffffffffffffffffffffffff1661015a60201b60201c565b506101505f801b60025f9054906101000a900473ffffffffffffffffffffffffffffffffffffffff1661015a60201b60201c565b50505050506103ae565b5f61016b838361024f60201b60201c565b6102455760015f808581526020019081526020015f205f015f8473ffffffffffffffffffffffffffffffffffffffff1673ffffffffffffffffffffffffffffffffffffffff1681526020019081526020015f205f6101000a81548160ff0219169083151502179055506101e26102b260201b60201c565b73ffffffffffffffffffffffffffffffffffffffff168273ffffffffffffffffffffffffffffffffffffffff16847f2f8788117e7eff1d82e926ec794901d17c78024a50270940304540a733656f0d60405160405180910390a460019050610249565b5f90505b92915050565b5f805f8481526020019081526020015f205f015f8373ffffffffffffffffffffffffffffffffffffffff1673ffffffffffffffffffffffffffffffffffffffff1681526020019081526020015f205f9054906101000a900460ff16905092915050565b5f33905090565b5f80fd5b5f73ffffffffffffffffffffffffffffffffffffffff82169050919050565b5f6102e6826102bd565b9050919050565b6102f6816102dc565b8114610300575f80fd5b50565b5f81519050610311816102ed565b92915050565b5f819050919050565b61032981610317565b8114610333575f80fd5b50565b5f8151905061034481610320565b92915050565b5f805f8060808587031215610362576103616102b9565b5b5f61036f87828801610303565b945050602061038087828801610303565b935050604061039187828801610336565b92505060606103a287828801610336565b91505092959194509250565b614052806103bb5f395ff3fe608060405260043610610212575f3560e01c806375b238fc11610117578063a217fddf1161009f578063d18d944b1161006e578063d18d944b14610780578063d547741f146107a8578063d7bb99ba146107d0578063e43252d7146107da578063fb86a4041461080257610252565b8063a217fddf146106da578063aaffadf314610704578063b8e0d08d1461072e578063c5c4744c1461075657610252565b80638ab1d681116100e65780638ab1d681146106065780638d070e751461062e5780638d3d65761461063857806391d14854146106625780639b19251a1461069e57610252565b806375b238fc1461056057806378e979251461058a5780637ce3489b146105b45780637fd6f15c146105dc57610252565b80632f2ff15d1161019a57806342e94c901161016957806342e94c9014610492578063473b0d46146104ce57806351fb012d146104f65780636d66d2ce14610520578063708dee5e1461053657610252565b80632f2ff15d146103ee5780633197cbb61461041657806336568abe146104405780633e0498d21461046857610252565b80631e206f15116101e15780631e206f151461031e5780631e2f73b114610348578063248a9ca31461037257806329575f6a146103ae5780632b67b671146103d857610252565b806301ffc9a71461025657806303ed9d21146102925780630b9f2c4a146102ba5780630d77c7df146102f657610252565b36610252576040517f08c379a0000000000000000000000000000000000000000000000000000000008152600401610249906130c6565b60405180910390fd5b5f80fd5b348015610261575f80fd5b5061027c6004803603810190610277919061313d565b61082c565b6040516102899190613182565b60405180910390f35b34801561029d575f80fd5b506102b860048036038101906102b391906131ce565b6108a5565b005b3480156102c5575f80fd5b506102e060048036038101906102db91906131ce565b610911565b6040516102ed9190613238565b60405180910390f35b348015610301575f80fd5b5061031c600480360381019061031791906131ce565b61094c565b005b348015610329575f80fd5b50610332610b0b565b60405161033f9190613260565b60405180910390f35b348015610353575f80fd5b5061035c610b11565b6040516103699190613238565b60405180910390f35b34801561037d575f80fd5b50610398600480360381019061039391906132ac565b610b36565b6040516103a591906132e6565b60405180910390f35b3480156103b9575f80fd5b506103c2610b52565b6040516103cf9190613238565b60405180910390f35b3480156103e3575f80fd5b506103ec610b77565b005b3480156103f9575f80fd5b50610414600480360381019061040f9190613329565b610da7565b005b348015610421575f80fd5b5061042a610dc9565b6040516104379190613260565b60405180910390f35b34801561044b575f80fd5b5061046660048036038101906104619190613329565b610dcf565b005b348015610473575f80fd5b5061047c610e4a565b6040516104899190613182565b60405180910390f35b34801561049d575f80fd5b506104b860048036038101906104b39190613367565b610e5d565b6040516104c59190613260565b60405180910390f35b3480156104d9575f80fd5b506104f460048036038101906104ef91906131ce565b610e72565b005b348015610501575f80fd5b5061050a610ede565b6040516105179190613182565b60405180910390f35b34801561052b575f80fd5b50610534610ef0565b005b348015610541575f80fd5b5061054a6110c3565b6040516105579190613182565b60405180910390f35b34801561056b575f80fd5b506105746110d5565b60405161058191906132e6565b60405180910390f35b348015610595575f80fd5b5061059e6110f9565b6040516105ab9190613260565b60405180910390f35b3480156105bf575f80fd5b506105da60048036038101906105d591906131ce565b6110ff565b005b3480156105e7575f80fd5b506105f0611134565b6040516105fd9190613260565b60405180910390f35b348015610611575f80fd5b5061062c60048036038101906106279190613367565b61113a565b005b6106366111f5565b005b348015610643575f80fd5b5061064c6123cc565b6040516106599190613260565b60405180910390f35b34801561066d575f80fd5b5061068860048036038101906106839190613329565b6123d2565b6040516106959190613182565b60405180910390f35b3480156106a9575f80fd5b506106c460048036038101906106bf9190613367565b612435565b6040516106d19190613182565b60405180910390f35b3480156106e5575f80fd5b506106ee612452565b6040516106fb91906132e6565b60405180910390f35b34801561070f575f80fd5b50610718612458565b6040516107259190613260565b60405180910390f35b348015610739575f80fd5b50610754600480360381019061074f91906131ce565b61245e565b005b348015610761575f80fd5b5061076a6124ca565b6040516107779190613260565b60405180910390f35b34801561078b575f80fd5b506107a660048036038101906107a191906131ce565b6124d0565b005b3480156107b3575f80fd5b506107ce60048036038101906107c99190613329565b612505565b005b6107d8612527565b005b3480156107e5575f80fd5b5061080060048036038101906107fb9190613367565b61296f565b005b34801561080d575f80fd5b50610816612a2c565b6040516108239190613260565b60405180910390f35b5f7f7965db0b000000000000000000000000000000000000000000000000000000007bffffffffffffffffffffffffffffffffffffffffffffffffffffffff1916827bffffffffffffffffffffffffffffffffffffffffffffffffffffffff1916148061089e575061089d82612a32565b5b9050919050565b7fa49807205ce4d355092ef5a8a18f56e8913cf4a201fbe287825b095693c217756108cf81612a9b565b816008819055507f8645f88287b79f16d91266da1d35b7adc817d75a89a9577504b01fbc37ed5a6f826040516109059190613260565b60405180910390a15050565b600d8181548110610920575f80fd5b905f5260205f20015f915054906101000a900473ffffffffffffffffffffffffffffffffffffffff1681565b6109ac6040518060400160405280601081526020017f436f6e74726163742043726561746f720000000000000000000000000000000081525060035f9054906101000a900473ffffffffffffffffffffffffffffffffffffffff16612aaf565b610a0c6040518060400160405280600a81526020017f537570657241646d696e0000000000000000000000000000000000000000000081525060025f9054906101000a900473ffffffffffffffffffffffffffffffffffffffff16612aaf565b610a367fa49807205ce4d355092ef5a8a18f56e8913cf4a201fbe287825b095693c21775336123d2565b80610a495750610a485f801b336123d2565b5b610a88576040517f08c379a0000000000000000000000000000000000000000000000000000000008152600401610a7f906133dc565b60405180910390fd5b600160105f6101000a81548160ff0219169083151502179055503073ffffffffffffffffffffffffffffffffffffffff1663d18d944b826040518263ffffffff1660e01b8152600401610adb9190613260565b5f604051808303815f87803b158015610af2575f80fd5b505af1158015610b04573d5f803e3d5ffd5b5050505050565b600c5481565b60035f9054906101000a900473ffffffffffffffffffffffffffffffffffffffff1681565b5f805f8381526020019081526020015f20600101549050919050565b60025f9054906101000a900473ffffffffffffffffffffffffffffffffffffffff1681565b610bd76040518060400160405280601081526020017f436f6e74726163742043726561746f720000000000000000000000000000000081525060035f9054906101000a900473ffffffffffffffffffffffffffffffffffffffff16612aaf565b610c376040518060400160405280600a81526020017f537570657241646d696e0000000000000000000000000000000000000000000081525060025f9054906101000a900473ffffffffffffffffffffffffffffffffffffffff16612aaf565b610c617fa49807205ce4d355092ef5a8a18f56e8913cf4a201fbe287825b095693c21775336123d2565b80610c745750610c735f801b336123d2565b5b610cb3576040517f08c379a0000000000000000000000000000000000000000000000000000000008152600401610caa906133dc565b60405180910390fd5b600960019054906101000a900460ff1615610d03576040517f08c379a0000000000000000000000000000000000000000000000000000000008152600401610cfa90613444565b60405180910390fd5b6001600960016101000a81548160ff0219169083151502179055503073ffffffffffffffffffffffffffffffffffffffff16638d070e756040518163ffffffff1660e01b81526004015f604051808303815f87803b158015610d63575f80fd5b505af1158015610d75573d5f803e3d5ffd5b505050507f5b2ae23cd3ac75c4244afecde24848a0616ca7390c4c330a40a86d7e896d946260405160405180910390a1565b610db082610b36565b610db981612a9b565b610dc38383612b4b565b50505050565b600b5481565b610dd7612c34565b73ffffffffffffffffffffffffffffffffffffffff168173ffffffffffffffffffffffffffffffffffffffff1614610e3b576040517f6697b23200000000000000000000000000000000000000000000000000000000815260040160405180910390fd5b610e458282612c3b565b505050565b600960019054906101000a900460ff1681565b600e602052805f5260405f205f915090505481565b7fa49807205ce4d355092ef5a8a18f56e8913cf4a201fbe287825b095693c21775610e9c81612a9b565b816007819055507f9e87cf72973cdb82f6a3c58fa8ef538fd3088801e3f3033afd06fa390ca4876c82604051610ed29190613260565b60405180910390a15050565b60105f9054906101000a900460ff1681565b610f506040518060400160405280601081526020017f436f6e74726163742043726561746f720000000000000000000000000000000081525060035f9054906101000a900473ffffffffffffffffffffffffffffffffffffffff16612aaf565b610fb06040518060400160405280600a81526020017f537570657241646d696e0000000000000000000000000000000000000000000081525060025f9054906101000a900473ffffffffffffffffffffffffffffffffffffffff16612aaf565b610fda7fa49807205ce4d355092ef5a8a18f56e8913cf4a201fbe287825b095693c21775336123d2565b80610fed5750610fec5f801b336123d2565b5b61102c576040517f08c379a0000000000000000000000000000000000000000000000000000000008152600401611023906133dc565b60405180910390fd5b60095f9054906101000a900460ff161561107b576040517f08c379a0000000000000000000000000000000000000000000000000000000008152600401611072906134ac565b60405180910390fd5b600160095f6101000a81548160ff0219169083151502179055507f8cf55e5373cd35327ecd6e48f19a6101684947fd385c07fb95117b3695ec2e9b60405160405180910390a1565b60095f9054906101000a900460ff1681565b7fa49807205ce4d355092ef5a8a18f56e8913cf4a201fbe287825b095693c2177581565b600a5481565b7fa49807205ce4d355092ef5a8a18f56e8913cf4a201fbe287825b095693c2177561112981612a9b565b816005819055505050565b60055481565b7fa49807205ce4d355092ef5a8a18f56e8913cf4a201fbe287825b095693c2177561116481612a9b565b5f600f5f8473ffffffffffffffffffffffffffffffffffffffff1673ffffffffffffffffffffffffffffffffffffffff1681526020019081526020015f205f6101000a81548160ff0219169083151502179055507ff93f9a76c1bf3444d22400a00cb9fe990e6abe9dbb333fda48859cfee864543d825f6040516111e99291906134ca565b60405180910390a15050565b6111fd612d24565b61125d6040518060400160405280601081526020017f436f6e74726163742043726561746f720000000000000000000000000000000081525060035f9054906101000a900473ffffffffffffffffffffffffffffffffffffffff16612aaf565b6112bd6040518060400160405280600a81526020017f537570657241646d696e0000000000000000000000000000000000000000000081525060025f9054906101000a900473ffffffffffffffffffffffffffffffffffffffff16612aaf565b6112e77fa49807205ce4d355092ef5a8a18f56e8913cf4a201fbe287825b095693c21775336123d2565b806112fa57506112f95f801b336123d2565b5b611339576040517f08c379a0000000000000000000000000000000000000000000000000000000008152600401611330906133dc565b60405180910390fd5b6001600960016101000a81548160ff02191690831515021790555060011515600960019054906101000a900460ff161515146113aa576040517f08c379a00000000000000000000000000000000000000000000000000000000081526004016113a19061353b565b60405180910390fd5b5f6004541180156113bc57505f600c54115b6113fb576040517f08c379a00000000000000000000000000000000000000000000000000000000081526004016113f2906135c9565b60405180910390fd5b5f8060105f9054906101000a900460ff16801561141957505f600654115b1561212e57600654600454101561174d576114686040518060400160405280601a81526020017f5768656e20746f74616c526173696564203c2068617264436170000000000000815250612d73565b6114a96040518060400160405280600b81526020017f546f74616c526169736564000000000000000000000000000000000000000000815250600454612e0c565b6114d360646114c5600554600454612ea890919063ffffffff16565b612ebd90919063ffffffff16565b91506114ea82600454612ed290919063ffffffff16565b905061150e6040518060600160405280602a8152602001613e36602a913983612e0c565b611530604051806060016040528060278152602001613ccd6027913982612e0c565b5f60035f9054906101000a900473ffffffffffffffffffffffffffffffffffffffff1673ffffffffffffffffffffffffffffffffffffffff168260405161157690613614565b5f6040518083038185875af1925050503d805f81146115b0576040519150601f19603f3d011682016040523d82523d5f602084013e6115b5565b606091505b505090505f604051806060016040528060378152602001613fe66037913990508181836040516020016115e99291906136bf565b60405160208183030381529060405290611639576040517f08c379a0000000000000000000000000000000000000000000000000000000008152600401611630919061372e565b60405180910390fd5b505f60025f9054906101000a900473ffffffffffffffffffffffffffffffffffffffff1673ffffffffffffffffffffffffffffffffffffffff168560405161168090613614565b5f6040518083038185875af1925050503d805f81146116ba576040519150601f19603f3d011682016040523d82523d5f602084013e6116bf565b606091505b505090505f6040518060600160405280603d8152602001613cf4603d913990508181836040516020016116f39291906136bf565b60405160208183030381529060405290611743576040517f08c379a000000000000000000000000000000000000000000000000000000000815260040161173a919061372e565b60405180910390fd5b5050505050612129565b6006546004541115611dfd576117976040518060400160405280601a81526020017f5768656e20746f74616c526173696564203e2068617264436170000000000000815250612d73565b6117d86040518060400160405280600b81526020017f546f74616c526169736564000000000000000000000000000000000000000000815250600454612e0c565b61180260646117f4600554600654612ea890919063ffffffff16565b612ebd90919063ffffffff16565b915061181982600654612ed290919063ffffffff16565b905061183d6040518060600160405280602a8152602001613eec602a913983612e0c565b61185f604051806060016040528060278152602001613f5f6027913982612e0c565b5f60035f9054906101000a900473ffffffffffffffffffffffffffffffffffffffff1673ffffffffffffffffffffffffffffffffffffffff16826040516118a590613614565b5f6040518083038185875af1925050503d805f81146118df576040519150601f19603f3d011682016040523d82523d5f602084013e6118e4565b606091505b505090505f604051806060016040528060378152602001613dd46037913990508181836040516020016119189291906136bf565b60405160208183030381529060405290611968576040517f08c379a000000000000000000000000000000000000000000000000000000000815260040161195f919061372e565b60405180910390fd5b505f60025f9054906101000a900473ffffffffffffffffffffffffffffffffffffffff1673ffffffffffffffffffffffffffffffffffffffff16856040516119af90613614565b5f6040518083038185875af1925050503d805f81146119e9576040519150601f19603f3d011682016040523d82523d5f602084013e6119ee565b606091505b505090505f6040518060600160405280603d8152602001613d59603d91399050818183604051602001611a229291906136bf565b60405160208183030381529060405290611a72576040517f08c379a0000000000000000000000000000000000000000000000000000000008152600401611a69919061372e565b60405180910390fd5b505f611a9f600c54611a91600654600454612ed290919063ffffffff16565b612ebd90919063ffffffff16565b9050611ae06040518060400160405280601a81526020017f726566756e64416d6f756e74506572436f6e7472696275746f7200000000000081525082612e0c565b611b1e6040518060400160405280601a81526020017f436865636b696e6720657665727920636f6e7472696275746f72000000000000815250612d73565b5f5b600c54811015611df2575f600d8281548110611b3f57611b3e61374e565b5b905f5260205f20015f9054906101000a900473ffffffffffffffffffffffffffffffffffffffff169050611ba86040518060400160405280601081526020017f636f6e7472696275746f72206c6973740000000000000000000000000000000081525082612aaf565b5f600e5f8373ffffffffffffffffffffffffffffffffffffffff1673ffffffffffffffffffffffffffffffffffffffff1681526020019081526020015f2054905083811115611da4575f73ffffffffffffffffffffffffffffffffffffffff168273ffffffffffffffffffffffffffffffffffffffff16141580611c5857505f73ffffffffffffffffffffffffffffffffffffffff168273ffffffffffffffffffffffffffffffffffffffff1614155b611c97576040517f08c379a0000000000000000000000000000000000000000000000000000000008152600401611c8e906137c5565b60405180910390fd5b611cb8604051806060016040528060248152602001613ec860249139612d73565b5f8273ffffffffffffffffffffffffffffffffffffffff1685604051611cdd90613614565b5f6040518083038185875af1925050503d805f8114611d17576040519150601f19603f3d011682016040523d82523d5f602084013e611d1c565b606091505b505090505f604051806080016040528060498152602001613f16604991399050818185604051602001611d50929190613828565b60405160208183030381529060405290611da0576040517f08c379a0000000000000000000000000000000000000000000000000000000008152600401611d97919061372e565b60405180910390fd5b5050505b611de36040518060400160405280600d81526020017f72657475726e20416d6f756e740000000000000000000000000000000000000081525085612e0c565b50508080600101915050611b20565b505050505050612128565b6006546004540361212757611e466040518060400160405280601b81526020017f5768656e20746f74616c526173696564203d3d20686172644361700000000000815250612d73565b611e876040518060400160405280600b81526020017f546f74616c526169736564000000000000000000000000000000000000000000815250600454612e0c565b611eb16064611ea3600554600654612ea890919063ffffffff16565b612ebd90919063ffffffff16565b9150611ec882600654612ed290919063ffffffff16565b9050611eec6040518060600160405280602b8152602001613e0b602b913983612e0c565b611f0e604051806060016040528060288152602001613d316028913982612e0c565b5f60035f9054906101000a900473ffffffffffffffffffffffffffffffffffffffff1673ffffffffffffffffffffffffffffffffffffffff1682604051611f5490613614565b5f6040518083038185875af1925050503d805f8114611f8e576040519150601f19603f3d011682016040523d82523d5f602084013e611f93565b606091505b505090505f604051806060016040528060388152602001613f86603891399050818183604051602001611fc79291906136bf565b60405160208183030381529060405290612017576040517f08c379a000000000000000000000000000000000000000000000000000000000815260040161200e919061372e565b60405180910390fd5b505f60025f9054906101000a900473ffffffffffffffffffffffffffffffffffffffff1673ffffffffffffffffffffffffffffffffffffffff168560405161205e90613614565b5f6040518083038185875af1925050503d805f8114612098576040519150601f19603f3d011682016040523d82523d5f602084013e61209d565b606091505b505090505f6040518060600160405280603e8152602001613d96603e913990508181836040516020016120d19291906136bf565b60405160208183030381529060405290612121576040517f08c379a0000000000000000000000000000000000000000000000000000000008152600401612118919061372e565b60405180910390fd5b50505050505b5b5b61237e565b60105f9054906101000a900460ff1615801561214b57505f600654145b1561237d5761217a606461216c600554600454612ea890919063ffffffff16565b612ebd90919063ffffffff16565b915061219182600454612ed290919063ffffffff16565b90506121b56040518060600160405280602a8152602001613e9e602a913983612e0c565b6121d7604051806060016040528060288152602001613fbe6028913982612e0c565b5f60035f9054906101000a900473ffffffffffffffffffffffffffffffffffffffff1673ffffffffffffffffffffffffffffffffffffffff166108fc8390811502906040515f60405180830381858888f1935050505090508061226f576040517f08c379a000000000000000000000000000000000000000000000000000000000815260040161226690613899565b60405180910390fd5b5f60025f9054906101000a900473ffffffffffffffffffffffffffffffffffffffff1673ffffffffffffffffffffffffffffffffffffffff16846040516122b590613614565b5f6040518083038185875af1925050503d805f81146122ef576040519150601f19603f3d011682016040523d82523d5f602084013e6122f4565b606091505b505090505f6040518060600160405280603e8152602001613e60603e913990508181836040516020016123289291906136bf565b60405160208183030381529060405290612378576040517f08c379a000000000000000000000000000000000000000000000000000000000815260040161236f919061372e565b60405180910390fd5b505050505b5b5f6004819055505f600c819055505f60095f6101000a81548160ff0219169083151502179055506001600960016101000a81548160ff02191690831515021790555050506123ca612ee7565b565b60085481565b5f805f8481526020019081526020015f205f015f8373ffffffffffffffffffffffffffffffffffffffff1673ffffffffffffffffffffffffffffffffffffffff1681526020019081526020015f205f9054906101000a900460ff16905092915050565b600f602052805f5260405f205f915054906101000a900460ff1681565b5f801b81565b60075481565b7fa49807205ce4d355092ef5a8a18f56e8913cf4a201fbe287825b095693c2177561248881612a9b565b816006819055507fe65e8475ae8eba2b732012a0734794875a0fdbdccfed8398fff4da0c8e0fa00e826040516124be9190613260565b60405180910390a15050565b60045481565b7fa49807205ce4d355092ef5a8a18f56e8913cf4a201fbe287825b095693c217756124fa81612a9b565b816006819055505050565b61250e82610b36565b61251781612a9b565b6125218383612c3b565b50505050565b61252f612d24565b60095f9054906101000a900460ff1680156125575750600960019054906101000a900460ff16155b612596576040517f08c379a000000000000000000000000000000000000000000000000000000000815260040161258d90613901565b60405180910390fd5b60075434101580156125a857505f3414155b80156125b657506008543411155b6125f5576040517f08c379a00000000000000000000000000000000000000000000000000000000081526004016125ec9061398f565b60405180910390fd5b60105f9054906101000a900460ff16156127cf5760011515600f5f3373ffffffffffffffffffffffffffffffffffffffff1673ffffffffffffffffffffffffffffffffffffffff1681526020019081526020015f205f9054906101000a900460ff16151514612699576040517f08c379a0000000000000000000000000000000000000000000000000000000008152600401612690906139f7565b60405180910390fd5b6126e934600e5f3373ffffffffffffffffffffffffffffffffffffffff1673ffffffffffffffffffffffffffffffffffffffff1681526020019081526020015f2054612ef090919063ffffffff16565b600e5f3373ffffffffffffffffffffffffffffffffffffffff1673ffffffffffffffffffffffffffffffffffffffff1681526020019081526020015f208190555061273f34600454612ef090919063ffffffff16565b600481905550600c5f81548092919061275790613a42565b919050555061276533612f05565b6127ca57600d33908060018154018082558091505060019003905f5260205f20015f9091909190916101000a81548173ffffffffffffffffffffffffffffffffffffffff021916908373ffffffffffffffffffffffffffffffffffffffff1602179055505b612915565b60105f9054906101000a900460ff166129145761283234600e5f3373ffffffffffffffffffffffffffffffffffffffff1673ffffffffffffffffffffffffffffffffffffffff1681526020019081526020015f2054612ef090919063ffffffff16565b600e5f3373ffffffffffffffffffffffffffffffffffffffff1673ffffffffffffffffffffffffffffffffffffffff1681526020019081526020015f208190555061288834600454612ef090919063ffffffff16565b600481905550600c5f8154809291906128a090613a42565b91905055506128ae33612f05565b61291357600d33908060018154018082558091505060019003905f5260205f20015f9091909190916101000a81548173ffffffffffffffffffffffffffffffffffffffff021916908373ffffffffffffffffffffffffffffffffffffffff1602179055505b5b5b3373ffffffffffffffffffffffffffffffffffffffff167f1d5d67670fd52e22078bbab523a5ead8206c7991225dd63095e3d3d6b5be3baf344260405161295d929190613a89565b60405180910390a261296d612ee7565b565b7fa49807205ce4d355092ef5a8a18f56e8913cf4a201fbe287825b095693c2177561299981612a9b565b6001600f5f8473ffffffffffffffffffffffffffffffffffffffff1673ffffffffffffffffffffffffffffffffffffffff1681526020019081526020015f205f6101000a81548160ff0219169083151502179055507ff93f9a76c1bf3444d22400a00cb9fe990e6abe9dbb333fda48859cfee864543d826001604051612a209291906134ca565b60405180910390a15050565b60065481565b5f7f01ffc9a7000000000000000000000000000000000000000000000000000000007bffffffffffffffffffffffffffffffffffffffffffffffffffffffff1916827bffffffffffffffffffffffffffffffffffffffffffffffffffffffff1916149050919050565b612aac81612aa7612c34565b612fa7565b50565b612b478282604051602401612ac5929190613ab0565b6040516020818303038152906040527f319af333000000000000000000000000000000000000000000000000000000007bffffffffffffffffffffffffffffffffffffffffffffffffffffffff19166020820180517bffffffffffffffffffffffffffffffffffffffffffffffffffffffff8381831617835250505050612ff8565b5050565b5f612b5683836123d2565b612c2a5760015f808581526020019081526020015f205f015f8473ffffffffffffffffffffffffffffffffffffffff1673ffffffffffffffffffffffffffffffffffffffff1681526020019081526020015f205f6101000a81548160ff021916908315150217905550612bc7612c34565b73ffffffffffffffffffffffffffffffffffffffff168273ffffffffffffffffffffffffffffffffffffffff16847f2f8788117e7eff1d82e926ec794901d17c78024a50270940304540a733656f0d60405160405180910390a460019050612c2e565b5f90505b92915050565b5f33905090565b5f612c4683836123d2565b15612d1a575f805f8581526020019081526020015f205f015f8473ffffffffffffffffffffffffffffffffffffffff1673ffffffffffffffffffffffffffffffffffffffff1681526020019081526020015f205f6101000a81548160ff021916908315150217905550612cb7612c34565b73ffffffffffffffffffffffffffffffffffffffff168273ffffffffffffffffffffffffffffffffffffffff16847ff6391f5c32d9c69d2a47ea670b442974b53935d1edc7fd64eb21e047a839171b60405160405180910390a460019050612d1e565b5f90505b92915050565b600260015403612d69576040517f08c379a0000000000000000000000000000000000000000000000000000000008152600401612d6090613b28565b60405180910390fd5b6002600181905550565b612e0981604051602401612d87919061372e565b6040516020818303038152906040527f41304fac000000000000000000000000000000000000000000000000000000007bffffffffffffffffffffffffffffffffffffffffffffffffffffffff19166020820180517bffffffffffffffffffffffffffffffffffffffffffffffffffffffff8381831617835250505050612ff8565b50565b612ea48282604051602401612e22929190613b46565b6040516020818303038152906040527fb60e72cc000000000000000000000000000000000000000000000000000000007bffffffffffffffffffffffffffffffffffffffffffffffffffffffff19166020820180517bffffffffffffffffffffffffffffffffffffffffffffffffffffffff8381831617835250505050612ff8565b5050565b5f8183612eb59190613b74565b905092915050565b5f8183612eca9190613be2565b905092915050565b5f8183612edf9190613c12565b905092915050565b60018081905550565b5f8183612efd9190613c45565b905092915050565b5f805f90505b600d80549050811015612f9d578273ffffffffffffffffffffffffffffffffffffffff16600d8281548110612f4357612f4261374e565b5b905f5260205f20015f9054906101000a900473ffffffffffffffffffffffffffffffffffffffff1673ffffffffffffffffffffffffffffffffffffffff1603612f90576001915050612fa2565b8080600101915050612f0b565b505f90505b919050565b612fb182826123d2565b612ff45780826040517fe2517d3f000000000000000000000000000000000000000000000000000000008152600401612feb929190613c78565b60405180910390fd5b5050565b61300f81613007613012613031565b63ffffffff16565b50565b5f6a636f6e736f6c652e6c6f6790505f80835160208501845afa505050565b61303c819050919050565b613044613c9f565b565b5f82825260208201905092915050565b7f436f6e747261637420646f6573206e6f742061636365707420646972656374205f8201527f7061796d656e7473000000000000000000000000000000000000000000000000602082015250565b5f6130b0602883613046565b91506130bb82613056565b604082019050919050565b5f6020820190508181035f8301526130dd816130a4565b9050919050565b5f80fd5b5f7fffffffff0000000000000000000000000000000000000000000000000000000082169050919050565b61311c816130e8565b8114613126575f80fd5b50565b5f8135905061313781613113565b92915050565b5f60208284031215613152576131516130e4565b5b5f61315f84828501613129565b91505092915050565b5f8115159050919050565b61317c81613168565b82525050565b5f6020820190506131955f830184613173565b92915050565b5f819050919050565b6131ad8161319b565b81146131b7575f80fd5b50565b5f813590506131c8816131a4565b92915050565b5f602082840312156131e3576131e26130e4565b5b5f6131f0848285016131ba565b91505092915050565b5f73ffffffffffffffffffffffffffffffffffffffff82169050919050565b5f613222826131f9565b9050919050565b61323281613218565b82525050565b5f60208201905061324b5f830184613229565b92915050565b61325a8161319b565b82525050565b5f6020820190506132735f830184613251565b92915050565b5f819050919050565b61328b81613279565b8114613295575f80fd5b50565b5f813590506132a681613282565b92915050565b5f602082840312156132c1576132c06130e4565b5b5f6132ce84828501613298565b91505092915050565b6132e081613279565b82525050565b5f6020820190506132f95f8301846132d7565b92915050565b61330881613218565b8114613312575f80fd5b50565b5f81359050613323816132ff565b92915050565b5f806040838503121561333f5761333e6130e4565b5b5f61334c85828601613298565b925050602061335d85828601613315565b9150509250929050565b5f6020828403121561337c5761337b6130e4565b5b5f61338984828501613315565b91505092915050565b7f4d757374206861766520646566696e656420526f6c65730000000000000000005f82015250565b5f6133c6601783613046565b91506133d182613392565b602082019050919050565b5f6020820190508181035f8301526133f3816133ba565b9050919050565b7f526169736520616c726561647920656e646564000000000000000000000000005f82015250565b5f61342e601383613046565b9150613439826133fa565b602082019050919050565b5f6020820190508181035f83015261345b81613422565b9050919050565b7f5261697365206e6f7420737461727465642079657400000000000000000000005f82015250565b5f613496601583613046565b91506134a182613462565b602082019050919050565b5f6020820190508181035f8301526134c38161348a565b9050919050565b5f6040820190506134dd5f830185613229565b6134ea6020830184613173565b9392505050565b7f5261697365206e6f7420656e64656400000000000000000000000000000000005f82015250565b5f613525600f83613046565b9150613530826134f1565b602082019050919050565b5f6020820190508181035f83015261355281613519565b9050919050565b7f526173696564416d6f757420616e64204e6f206f6620436f6e7472696275746f5f8201527f72732073686f756c64206265203e203000000000000000000000000000000000602082015250565b5f6135b3603083613046565b91506135be82613559565b604082019050919050565b5f6020820190508181035f8301526135e0816135a7565b9050919050565b5f81905092915050565b50565b5f6135ff5f836135e7565b915061360a826135f1565b5f82019050919050565b5f61361e826135f4565b9150819050919050565b5f81519050919050565b5f81905092915050565b8281835e5f83830152505050565b5f61365482613628565b61365e8185613632565b935061366e81856020860161363c565b80840191505092915050565b5f8160f81b9050919050565b5f6136908261367a565b9050919050565b5f6136a182613686565b9050919050565b6136b96136b482613168565b613697565b82525050565b5f6136ca828561364a565b91506136d682846136a8565b6001820191508190509392505050565b5f601f19601f8301169050919050565b5f61370082613628565b61370a8185613046565b935061371a81856020860161363c565b613723816136e6565b840191505092915050565b5f6020820190508181035f83015261374681846136f6565b905092915050565b7f4e487b71000000000000000000000000000000000000000000000000000000005f52603260045260245ffd5b7f4e6f7420612076616c69642061646472657373000000000000000000000000005f82015250565b5f6137af601383613046565b91506137ba8261377b565b602082019050919050565b5f6020820190508181035f8301526137dc816137a3565b9050919050565b5f8160601b9050919050565b5f6137f9826137e3565b9050919050565b5f61380a826137ef565b9050919050565b61382261381d82613218565b613800565b82525050565b5f613833828561364a565b915061383f8284613811565b6014820191508190509392505050565b7f4661696c656420746f2073656e642045746865720000000000000000000000005f82015250565b5f613883601483613046565b915061388e8261384f565b602082019050919050565b5f6020820190508181035f8301526138b081613877565b9050919050565b7f5261697365206d757374206265206f6e676f696e6700000000000000000000005f82015250565b5f6138eb601583613046565b91506138f6826138b7565b602082019050919050565b5f6020820190508181035f830152613918816138df565b9050919050565b7f436f6e747269627574696f6e2073686f756c6420626520696e206265747765655f8201527f6e206d696e20616e64206d617800000000000000000000000000000000000000602082015250565b5f613979602d83613046565b91506139848261391f565b604082019050919050565b5f6020820190508181035f8301526139a68161396d565b9050919050565b7f4e6f7420612077686974654c69737420557365720000000000000000000000005f82015250565b5f6139e1601483613046565b91506139ec826139ad565b602082019050919050565b5f6020820190508181035f830152613a0e816139d5565b9050919050565b7f4e487b71000000000000000000000000000000000000000000000000000000005f52601160045260245ffd5b5f613a4c8261319b565b91507fffffffffffffffffffffffffffffffffffffffffffffffffffffffffffffffff8203613a7e57613a7d613a15565b5b600182019050919050565b5f604082019050613a9c5f830185613251565b613aa96020830184613251565b9392505050565b5f6040820190508181035f830152613ac881856136f6565b9050613ad76020830184613229565b9392505050565b7f5265656e7472616e637947756172643a207265656e7472616e742063616c6c005f82015250565b5f613b12601f83613046565b9150613b1d82613ade565b602082019050919050565b5f6020820190508181035f830152613b3f81613b06565b9050919050565b5f6040820190508181035f830152613b5e81856136f6565b9050613b6d6020830184613251565b9392505050565b5f613b7e8261319b565b9150613b898361319b565b9250828202613b978161319b565b91508282048414831517613bae57613bad613a15565b5b5092915050565b7f4e487b71000000000000000000000000000000000000000000000000000000005f52601260045260245ffd5b5f613bec8261319b565b9150613bf78361319b565b925082613c0757613c06613bb5565b5b828204905092915050565b5f613c1c8261319b565b9150613c278361319b565b9250828203905081811115613c3f57613c3e613a15565b5b92915050565b5f613c4f8261319b565b9150613c5a8361319b565b9250828201905080821115613c7257613c71613a15565b5b92915050565b5f604082019050613c8b5f830185613229565b613c9860208301846132d7565b9392505050565b7f4e487b71000000000000000000000000000000000000000000000000000000005f52605160045260245ffdfe61646d696e416d6f756e74205768656e20746f74616c20726173696564203c206861726463617054786e206661696c656420666f72207468652053757065722041646d696e207768656e20746f74616c20726173696564203c2068617264636170203a2061646d696e416d6f756e74205768656e20746f74616c20726173696564203d3d206861726463617054786e206661696c656420666f72207468652053757065722041646d696e207768656e20746f74616c20726173696564203e2068617264636170203a2054786e206661696c656420666f72207468652053757065722041646d696e207768656e20746f74616c20726173696564203d3d2068617264636170203a2054786e206661696c656420666f72207468652041646d696e207768656e20746f74616c20726173696564203e2068617264636170203a20737570657241646d696e416d74205768656e20746f74616c20726173696564203d3d206861726463617020737570657241646d696e416d74205768656e20746f74616c20726173696564203c20686172646361702054786e206661696c656420666f72207468652053757065722041646d696e207768656e207468657265206973206e6f206861726463617020736574203a20737570657241646d696e416d74207768656e207468657265206973206e6f206861726463617020736574417265207765207265616c6c7920726566756e64696e6720746f20746865207573657273737570657241646d696e416d74205768656e20746f74616c20726173696564203e20686172646361702054786e206661696c656420666f72207468652077686974656c697374656420636f6e7472696275746f72207768656e20746f74616c20726173696564203e2068617264636170203a2061646d696e416d6f756e74205768656e20746f74616c20726173696564203e206861726463617054786e206661696c656420666f72207468652041646d696e207768656e20746f74616c20726173696564203d3d2068617264636170203a2061646d696e416d6f756e74207768656e207468657265206973206e6f20686172646361702073657454786e206661696c656420666f72207468652041646d696e207768656e20746f74616c20726173696564203c2068617264636170203a20a26469706673582212202e291f7addb125d2ccf2a260bb1d7e60aab0cf9386acb76ae45e63e28d6a115d64736f6c63430008190033",
			"opcodes": "PUSH1 0x80 PUSH1 0x40 MSTORE PUSH1 0xA PUSH1 0x5 SSTORE CALLVALUE DUP1 ISZERO PUSH2 0x14 JUMPI PUSH0 DUP1 REVERT JUMPDEST POP PUSH1 0x40 MLOAD PUSH2 0x440D CODESIZE SUB DUP1 PUSH2 0x440D DUP4 CODECOPY DUP2 DUP2 ADD PUSH1 0x40 MSTORE DUP2 ADD SWAP1 PUSH2 0x36 SWAP2 SWAP1 PUSH2 0x34A JUMP JUMPDEST PUSH1 0x1 DUP1 DUP2 SWAP1 SSTORE POP DUP3 PUSH1 0x2 PUSH0 PUSH2 0x100 EXP DUP2 SLOAD DUP2 PUSH20 0xFFFFFFFFFFFFFFFFFFFFFFFFFFFFFFFFFFFFFFFF MUL NOT AND SWAP1 DUP4 PUSH20 0xFFFFFFFFFFFFFFFFFFFFFFFFFFFFFFFFFFFFFFFF AND MUL OR SWAP1 SSTORE POP DUP4 PUSH1 0x3 PUSH0 PUSH2 0x100 EXP DUP2 SLOAD DUP2 PUSH20 0xFFFFFFFFFFFFFFFFFFFFFFFFFFFFFFFFFFFFFFFF MUL NOT AND SWAP1 DUP4 PUSH20 0xFFFFFFFFFFFFFFFFFFFFFFFFFFFFFFFFFFFFFFFF AND MUL OR SWAP1 SSTORE POP DUP1 PUSH1 0x7 DUP2 SWAP1 SSTORE POP DUP2 PUSH1 0x8 DUP2 SWAP1 SSTORE POP PUSH2 0x11C PUSH32 0xA49807205CE4D355092EF5A8A18F56E8913CF4A201FBE287825B095693C21775 PUSH1 0x3 PUSH0 SWAP1 SLOAD SWAP1 PUSH2 0x100 EXP SWAP1 DIV PUSH20 0xFFFFFFFFFFFFFFFFFFFFFFFFFFFFFFFFFFFFFFFF AND PUSH2 0x15A PUSH1 0x20 SHL PUSH1 0x20 SHR JUMP JUMPDEST POP PUSH2 0x150 PUSH0 DUP1 SHL PUSH1 0x2 PUSH0 SWAP1 SLOAD SWAP1 PUSH2 0x100 EXP SWAP1 DIV PUSH20 0xFFFFFFFFFFFFFFFFFFFFFFFFFFFFFFFFFFFFFFFF AND PUSH2 0x15A PUSH1 0x20 SHL PUSH1 0x20 SHR JUMP JUMPDEST POP POP POP POP POP PUSH2 0x3AE JUMP JUMPDEST PUSH0 PUSH2 0x16B DUP4 DUP4 PUSH2 0x24F PUSH1 0x20 SHL PUSH1 0x20 SHR JUMP JUMPDEST PUSH2 0x245 JUMPI PUSH1 0x1 PUSH0 DUP1 DUP6 DUP2 MSTORE PUSH1 0x20 ADD SWAP1 DUP2 MSTORE PUSH1 0x20 ADD PUSH0 KECCAK256 PUSH0 ADD PUSH0 DUP5 PUSH20 0xFFFFFFFFFFFFFFFFFFFFFFFFFFFFFFFFFFFFFFFF AND PUSH20 0xFFFFFFFFFFFFFFFFFFFFFFFFFFFFFFFFFFFFFFFF AND DUP2 MSTORE PUSH1 0x20 ADD SWAP1 DUP2 MSTORE PUSH1 0x20 ADD PUSH0 KECCAK256 PUSH0 PUSH2 0x100 EXP DUP2 SLOAD DUP2 PUSH1 0xFF MUL NOT AND SWAP1 DUP4 ISZERO ISZERO MUL OR SWAP1 SSTORE POP PUSH2 0x1E2 PUSH2 0x2B2 PUSH1 0x20 SHL PUSH1 0x20 SHR JUMP JUMPDEST PUSH20 0xFFFFFFFFFFFFFFFFFFFFFFFFFFFFFFFFFFFFFFFF AND DUP3 PUSH20 0xFFFFFFFFFFFFFFFFFFFFFFFFFFFFFFFFFFFFFFFF AND DUP5 PUSH32 0x2F8788117E7EFF1D82E926EC794901D17C78024A50270940304540A733656F0D PUSH1 0x40 MLOAD PUSH1 0x40 MLOAD DUP1 SWAP2 SUB SWAP1 LOG4 PUSH1 0x1 SWAP1 POP PUSH2 0x249 JUMP JUMPDEST PUSH0 SWAP1 POP JUMPDEST SWAP3 SWAP2 POP POP JUMP JUMPDEST PUSH0 DUP1 PUSH0 DUP5 DUP2 MSTORE PUSH1 0x20 ADD SWAP1 DUP2 MSTORE PUSH1 0x20 ADD PUSH0 KECCAK256 PUSH0 ADD PUSH0 DUP4 PUSH20 0xFFFFFFFFFFFFFFFFFFFFFFFFFFFFFFFFFFFFFFFF AND PUSH20 0xFFFFFFFFFFFFFFFFFFFFFFFFFFFFFFFFFFFFFFFF AND DUP2 MSTORE PUSH1 0x20 ADD SWAP1 DUP2 MSTORE PUSH1 0x20 ADD PUSH0 KECCAK256 PUSH0 SWAP1 SLOAD SWAP1 PUSH2 0x100 EXP SWAP1 DIV PUSH1 0xFF AND SWAP1 POP SWAP3 SWAP2 POP POP JUMP JUMPDEST PUSH0 CALLER SWAP1 POP SWAP1 JUMP JUMPDEST PUSH0 DUP1 REVERT JUMPDEST PUSH0 PUSH20 0xFFFFFFFFFFFFFFFFFFFFFFFFFFFFFFFFFFFFFFFF DUP3 AND SWAP1 POP SWAP2 SWAP1 POP JUMP JUMPDEST PUSH0 PUSH2 0x2E6 DUP3 PUSH2 0x2BD JUMP JUMPDEST SWAP1 POP SWAP2 SWAP1 POP JUMP JUMPDEST PUSH2 0x2F6 DUP2 PUSH2 0x2DC JUMP JUMPDEST DUP2 EQ PUSH2 0x300 JUMPI PUSH0 DUP1 REVERT JUMPDEST POP JUMP JUMPDEST PUSH0 DUP2 MLOAD SWAP1 POP PUSH2 0x311 DUP2 PUSH2 0x2ED JUMP JUMPDEST SWAP3 SWAP2 POP POP JUMP JUMPDEST PUSH0 DUP2 SWAP1 POP SWAP2 SWAP1 POP JUMP JUMPDEST PUSH2 0x329 DUP2 PUSH2 0x317 JUMP JUMPDEST DUP2 EQ PUSH2 0x333 JUMPI PUSH0 DUP1 REVERT JUMPDEST POP JUMP JUMPDEST PUSH0 DUP2 MLOAD SWAP1 POP PUSH2 0x344 DUP2 PUSH2 0x320 JUMP JUMPDEST SWAP3 SWAP2 POP POP JUMP JUMPDEST PUSH0 DUP1 PUSH0 DUP1 PUSH1 0x80 DUP6 DUP8 SUB SLT ISZERO PUSH2 0x362 JUMPI PUSH2 0x361 PUSH2 0x2B9 JUMP JUMPDEST JUMPDEST PUSH0 PUSH2 0x36F DUP8 DUP3 DUP9 ADD PUSH2 0x303 JUMP JUMPDEST SWAP5 POP POP PUSH1 0x20 PUSH2 0x380 DUP8 DUP3 DUP9 ADD PUSH2 0x303 JUMP JUMPDEST SWAP4 POP POP PUSH1 0x40 PUSH2 0x391 DUP8 DUP3 DUP9 ADD PUSH2 0x336 JUMP JUMPDEST SWAP3 POP POP PUSH1 0x60 PUSH2 0x3A2 DUP8 DUP3 DUP9 ADD PUSH2 0x336 JUMP JUMPDEST SWAP2 POP POP SWAP3 SWAP6 SWAP2 SWAP5 POP SWAP3 POP JUMP JUMPDEST PUSH2 0x4052 DUP1 PUSH2 0x3BB PUSH0 CODECOPY PUSH0 RETURN INVALID PUSH1 0x80 PUSH1 0x40 MSTORE PUSH1 0x4 CALLDATASIZE LT PUSH2 0x212 JUMPI PUSH0 CALLDATALOAD PUSH1 0xE0 SHR DUP1 PUSH4 0x75B238FC GT PUSH2 0x117 JUMPI DUP1 PUSH4 0xA217FDDF GT PUSH2 0x9F JUMPI DUP1 PUSH4 0xD18D944B GT PUSH2 0x6E JUMPI DUP1 PUSH4 0xD18D944B EQ PUSH2 0x780 JUMPI DUP1 PUSH4 0xD547741F EQ PUSH2 0x7A8 JUMPI DUP1 PUSH4 0xD7BB99BA EQ PUSH2 0x7D0 JUMPI DUP1 PUSH4 0xE43252D7 EQ PUSH2 0x7DA JUMPI DUP1 PUSH4 0xFB86A404 EQ PUSH2 0x802 JUMPI PUSH2 0x252 JUMP JUMPDEST DUP1 PUSH4 0xA217FDDF EQ PUSH2 0x6DA JUMPI DUP1 PUSH4 0xAAFFADF3 EQ PUSH2 0x704 JUMPI DUP1 PUSH4 0xB8E0D08D EQ PUSH2 0x72E JUMPI DUP1 PUSH4 0xC5C4744C EQ PUSH2 0x756 JUMPI PUSH2 0x252 JUMP JUMPDEST DUP1 PUSH4 0x8AB1D681 GT PUSH2 0xE6 JUMPI DUP1 PUSH4 0x8AB1D681 EQ PUSH2 0x606 JUMPI DUP1 PUSH4 0x8D070E75 EQ PUSH2 0x62E JUMPI DUP1 PUSH4 0x8D3D6576 EQ PUSH2 0x638 JUMPI DUP1 PUSH4 0x91D14854 EQ PUSH2 0x662 JUMPI DUP1 PUSH4 0x9B19251A EQ PUSH2 0x69E JUMPI PUSH2 0x252 JUMP JUMPDEST DUP1 PUSH4 0x75B238FC EQ PUSH2 0x560 JUMPI DUP1 PUSH4 0x78E97925 EQ PUSH2 0x58A JUMPI DUP1 PUSH4 0x7CE3489B EQ PUSH2 0x5B4 JUMPI DUP1 PUSH4 0x7FD6F15C EQ PUSH2 0x5DC JUMPI PUSH2 0x252 JUMP JUMPDEST DUP1 PUSH4 0x2F2FF15D GT PUSH2 0x19A JUMPI DUP1 PUSH4 0x42E94C90 GT PUSH2 0x169 JUMPI DUP1 PUSH4 0x42E94C90 EQ PUSH2 0x492 JUMPI DUP1 PUSH4 0x473B0D46 EQ PUSH2 0x4CE JUMPI DUP1 PUSH4 0x51FB012D EQ PUSH2 0x4F6 JUMPI DUP1 PUSH4 0x6D66D2CE EQ PUSH2 0x520 JUMPI DUP1 PUSH4 0x708DEE5E EQ PUSH2 0x536 JUMPI PUSH2 0x252 JUMP JUMPDEST DUP1 PUSH4 0x2F2FF15D EQ PUSH2 0x3EE JUMPI DUP1 PUSH4 0x3197CBB6 EQ PUSH2 0x416 JUMPI DUP1 PUSH4 0x36568ABE EQ PUSH2 0x440 JUMPI DUP1 PUSH4 0x3E0498D2 EQ PUSH2 0x468 JUMPI PUSH2 0x252 JUMP JUMPDEST DUP1 PUSH4 0x1E206F15 GT PUSH2 0x1E1 JUMPI DUP1 PUSH4 0x1E206F15 EQ PUSH2 0x31E JUMPI DUP1 PUSH4 0x1E2F73B1 EQ PUSH2 0x348 JUMPI DUP1 PUSH4 0x248A9CA3 EQ PUSH2 0x372 JUMPI DUP1 PUSH4 0x29575F6A EQ PUSH2 0x3AE JUMPI DUP1 PUSH4 0x2B67B671 EQ PUSH2 0x3D8 JUMPI PUSH2 0x252 JUMP JUMPDEST DUP1 PUSH4 0x1FFC9A7 EQ PUSH2 0x256 JUMPI DUP1 PUSH4 0x3ED9D21 EQ PUSH2 0x292 JUMPI DUP1 PUSH4 0xB9F2C4A EQ PUSH2 0x2BA JUMPI DUP1 PUSH4 0xD77C7DF EQ PUSH2 0x2F6 JUMPI PUSH2 0x252 JUMP JUMPDEST CALLDATASIZE PUSH2 0x252 JUMPI PUSH1 0x40 MLOAD PUSH32 0x8C379A000000000000000000000000000000000000000000000000000000000 DUP2 MSTORE PUSH1 0x4 ADD PUSH2 0x249 SWAP1 PUSH2 0x30C6 JUMP JUMPDEST PUSH1 0x40 MLOAD DUP1 SWAP2 SUB SWAP1 REVERT JUMPDEST PUSH0 DUP1 REVERT JUMPDEST CALLVALUE DUP1 ISZERO PUSH2 0x261 JUMPI PUSH0 DUP1 REVERT JUMPDEST POP PUSH2 0x27C PUSH1 0x4 DUP1 CALLDATASIZE SUB DUP2 ADD SWAP1 PUSH2 0x277 SWAP2 SWAP1 PUSH2 0x313D JUMP JUMPDEST PUSH2 0x82C JUMP JUMPDEST PUSH1 0x40 MLOAD PUSH2 0x289 SWAP2 SWAP1 PUSH2 0x3182 JUMP JUMPDEST PUSH1 0x40 MLOAD DUP1 SWAP2 SUB SWAP1 RETURN JUMPDEST CALLVALUE DUP1 ISZERO PUSH2 0x29D JUMPI PUSH0 DUP1 REVERT JUMPDEST POP PUSH2 0x2B8 PUSH1 0x4 DUP1 CALLDATASIZE SUB DUP2 ADD SWAP1 PUSH2 0x2B3 SWAP2 SWAP1 PUSH2 0x31CE JUMP JUMPDEST PUSH2 0x8A5 JUMP JUMPDEST STOP JUMPDEST CALLVALUE DUP1 ISZERO PUSH2 0x2C5 JUMPI PUSH0 DUP1 REVERT JUMPDEST POP PUSH2 0x2E0 PUSH1 0x4 DUP1 CALLDATASIZE SUB DUP2 ADD SWAP1 PUSH2 0x2DB SWAP2 SWAP1 PUSH2 0x31CE JUMP JUMPDEST PUSH2 0x911 JUMP JUMPDEST PUSH1 0x40 MLOAD PUSH2 0x2ED SWAP2 SWAP1 PUSH2 0x3238 JUMP JUMPDEST PUSH1 0x40 MLOAD DUP1 SWAP2 SUB SWAP1 RETURN JUMPDEST CALLVALUE DUP1 ISZERO PUSH2 0x301 JUMPI PUSH0 DUP1 REVERT JUMPDEST POP PUSH2 0x31C PUSH1 0x4 DUP1 CALLDATASIZE SUB DUP2 ADD SWAP1 PUSH2 0x317 SWAP2 SWAP1 PUSH2 0x31CE JUMP JUMPDEST PUSH2 0x94C JUMP JUMPDEST STOP JUMPDEST CALLVALUE DUP1 ISZERO PUSH2 0x329 JUMPI PUSH0 DUP1 REVERT JUMPDEST POP PUSH2 0x332 PUSH2 0xB0B JUMP JUMPDEST PUSH1 0x40 MLOAD PUSH2 0x33F SWAP2 SWAP1 PUSH2 0x3260 JUMP JUMPDEST PUSH1 0x40 MLOAD DUP1 SWAP2 SUB SWAP1 RETURN JUMPDEST CALLVALUE DUP1 ISZERO PUSH2 0x353 JUMPI PUSH0 DUP1 REVERT JUMPDEST POP PUSH2 0x35C PUSH2 0xB11 JUMP JUMPDEST PUSH1 0x40 MLOAD PUSH2 0x369 SWAP2 SWAP1 PUSH2 0x3238 JUMP JUMPDEST PUSH1 0x40 MLOAD DUP1 SWAP2 SUB SWAP1 RETURN JUMPDEST CALLVALUE DUP1 ISZERO PUSH2 0x37D JUMPI PUSH0 DUP1 REVERT JUMPDEST POP PUSH2 0x398 PUSH1 0x4 DUP1 CALLDATASIZE SUB DUP2 ADD SWAP1 PUSH2 0x393 SWAP2 SWAP1 PUSH2 0x32AC JUMP JUMPDEST PUSH2 0xB36 JUMP JUMPDEST PUSH1 0x40 MLOAD PUSH2 0x3A5 SWAP2 SWAP1 PUSH2 0x32E6 JUMP JUMPDEST PUSH1 0x40 MLOAD DUP1 SWAP2 SUB SWAP1 RETURN JUMPDEST CALLVALUE DUP1 ISZERO PUSH2 0x3B9 JUMPI PUSH0 DUP1 REVERT JUMPDEST POP PUSH2 0x3C2 PUSH2 0xB52 JUMP JUMPDEST PUSH1 0x40 MLOAD PUSH2 0x3CF SWAP2 SWAP1 PUSH2 0x3238 JUMP JUMPDEST PUSH1 0x40 MLOAD DUP1 SWAP2 SUB SWAP1 RETURN JUMPDEST CALLVALUE DUP1 ISZERO PUSH2 0x3E3 JUMPI PUSH0 DUP1 REVERT JUMPDEST POP PUSH2 0x3EC PUSH2 0xB77 JUMP JUMPDEST STOP JUMPDEST CALLVALUE DUP1 ISZERO PUSH2 0x3F9 JUMPI PUSH0 DUP1 REVERT JUMPDEST POP PUSH2 0x414 PUSH1 0x4 DUP1 CALLDATASIZE SUB DUP2 ADD SWAP1 PUSH2 0x40F SWAP2 SWAP1 PUSH2 0x3329 JUMP JUMPDEST PUSH2 0xDA7 JUMP JUMPDEST STOP JUMPDEST CALLVALUE DUP1 ISZERO PUSH2 0x421 JUMPI PUSH0 DUP1 REVERT JUMPDEST POP PUSH2 0x42A PUSH2 0xDC9 JUMP JUMPDEST PUSH1 0x40 MLOAD PUSH2 0x437 SWAP2 SWAP1 PUSH2 0x3260 JUMP JUMPDEST PUSH1 0x40 MLOAD DUP1 SWAP2 SUB SWAP1 RETURN JUMPDEST CALLVALUE DUP1 ISZERO PUSH2 0x44B JUMPI PUSH0 DUP1 REVERT JUMPDEST POP PUSH2 0x466 PUSH1 0x4 DUP1 CALLDATASIZE SUB DUP2 ADD SWAP1 PUSH2 0x461 SWAP2 SWAP1 PUSH2 0x3329 JUMP JUMPDEST PUSH2 0xDCF JUMP JUMPDEST STOP JUMPDEST CALLVALUE DUP1 ISZERO PUSH2 0x473 JUMPI PUSH0 DUP1 REVERT JUMPDEST POP PUSH2 0x47C PUSH2 0xE4A JUMP JUMPDEST PUSH1 0x40 MLOAD PUSH2 0x489 SWAP2 SWAP1 PUSH2 0x3182 JUMP JUMPDEST PUSH1 0x40 MLOAD DUP1 SWAP2 SUB SWAP1 RETURN JUMPDEST CALLVALUE DUP1 ISZERO PUSH2 0x49D JUMPI PUSH0 DUP1 REVERT JUMPDEST POP PUSH2 0x4B8 PUSH1 0x4 DUP1 CALLDATASIZE SUB DUP2 ADD SWAP1 PUSH2 0x4B3 SWAP2 SWAP1 PUSH2 0x3367 JUMP JUMPDEST PUSH2 0xE5D JUMP JUMPDEST PUSH1 0x40 MLOAD PUSH2 0x4C5 SWAP2 SWAP1 PUSH2 0x3260 JUMP JUMPDEST PUSH1 0x40 MLOAD DUP1 SWAP2 SUB SWAP1 RETURN JUMPDEST CALLVALUE DUP1 ISZERO PUSH2 0x4D9 JUMPI PUSH0 DUP1 REVERT JUMPDEST POP PUSH2 0x4F4 PUSH1 0x4 DUP1 CALLDATASIZE SUB DUP2 ADD SWAP1 PUSH2 0x4EF SWAP2 SWAP1 PUSH2 0x31CE JUMP JUMPDEST PUSH2 0xE72 JUMP JUMPDEST STOP JUMPDEST CALLVALUE DUP1 ISZERO PUSH2 0x501 JUMPI PUSH0 DUP1 REVERT JUMPDEST POP PUSH2 0x50A PUSH2 0xEDE JUMP JUMPDEST PUSH1 0x40 MLOAD PUSH2 0x517 SWAP2 SWAP1 PUSH2 0x3182 JUMP JUMPDEST PUSH1 0x40 MLOAD DUP1 SWAP2 SUB SWAP1 RETURN JUMPDEST CALLVALUE DUP1 ISZERO PUSH2 0x52B JUMPI PUSH0 DUP1 REVERT JUMPDEST POP PUSH2 0x534 PUSH2 0xEF0 JUMP JUMPDEST STOP JUMPDEST CALLVALUE DUP1 ISZERO PUSH2 0x541 JUMPI PUSH0 DUP1 REVERT JUMPDEST POP PUSH2 0x54A PUSH2 0x10C3 JUMP JUMPDEST PUSH1 0x40 MLOAD PUSH2 0x557 SWAP2 SWAP1 PUSH2 0x3182 JUMP JUMPDEST PUSH1 0x40 MLOAD DUP1 SWAP2 SUB SWAP1 RETURN JUMPDEST CALLVALUE DUP1 ISZERO PUSH2 0x56B JUMPI PUSH0 DUP1 REVERT JUMPDEST POP PUSH2 0x574 PUSH2 0x10D5 JUMP JUMPDEST PUSH1 0x40 MLOAD PUSH2 0x581 SWAP2 SWAP1 PUSH2 0x32E6 JUMP JUMPDEST PUSH1 0x40 MLOAD DUP1 SWAP2 SUB SWAP1 RETURN JUMPDEST CALLVALUE DUP1 ISZERO PUSH2 0x595 JUMPI PUSH0 DUP1 REVERT JUMPDEST POP PUSH2 0x59E PUSH2 0x10F9 JUMP JUMPDEST PUSH1 0x40 MLOAD PUSH2 0x5AB SWAP2 SWAP1 PUSH2 0x3260 JUMP JUMPDEST PUSH1 0x40 MLOAD DUP1 SWAP2 SUB SWAP1 RETURN JUMPDEST CALLVALUE DUP1 ISZERO PUSH2 0x5BF JUMPI PUSH0 DUP1 REVERT JUMPDEST POP PUSH2 0x5DA PUSH1 0x4 DUP1 CALLDATASIZE SUB DUP2 ADD SWAP1 PUSH2 0x5D5 SWAP2 SWAP1 PUSH2 0x31CE JUMP JUMPDEST PUSH2 0x10FF JUMP JUMPDEST STOP JUMPDEST CALLVALUE DUP1 ISZERO PUSH2 0x5E7 JUMPI PUSH0 DUP1 REVERT JUMPDEST POP PUSH2 0x5F0 PUSH2 0x1134 JUMP JUMPDEST PUSH1 0x40 MLOAD PUSH2 0x5FD SWAP2 SWAP1 PUSH2 0x3260 JUMP JUMPDEST PUSH1 0x40 MLOAD DUP1 SWAP2 SUB SWAP1 RETURN JUMPDEST CALLVALUE DUP1 ISZERO PUSH2 0x611 JUMPI PUSH0 DUP1 REVERT JUMPDEST POP PUSH2 0x62C PUSH1 0x4 DUP1 CALLDATASIZE SUB DUP2 ADD SWAP1 PUSH2 0x627 SWAP2 SWAP1 PUSH2 0x3367 JUMP JUMPDEST PUSH2 0x113A JUMP JUMPDEST STOP JUMPDEST PUSH2 0x636 PUSH2 0x11F5 JUMP JUMPDEST STOP JUMPDEST CALLVALUE DUP1 ISZERO PUSH2 0x643 JUMPI PUSH0 DUP1 REVERT JUMPDEST POP PUSH2 0x64C PUSH2 0x23CC JUMP JUMPDEST PUSH1 0x40 MLOAD PUSH2 0x659 SWAP2 SWAP1 PUSH2 0x3260 JUMP JUMPDEST PUSH1 0x40 MLOAD DUP1 SWAP2 SUB SWAP1 RETURN JUMPDEST CALLVALUE DUP1 ISZERO PUSH2 0x66D JUMPI PUSH0 DUP1 REVERT JUMPDEST POP PUSH2 0x688 PUSH1 0x4 DUP1 CALLDATASIZE SUB DUP2 ADD SWAP1 PUSH2 0x683 SWAP2 SWAP1 PUSH2 0x3329 JUMP JUMPDEST PUSH2 0x23D2 JUMP JUMPDEST PUSH1 0x40 MLOAD PUSH2 0x695 SWAP2 SWAP1 PUSH2 0x3182 JUMP JUMPDEST PUSH1 0x40 MLOAD DUP1 SWAP2 SUB SWAP1 RETURN JUMPDEST CALLVALUE DUP1 ISZERO PUSH2 0x6A9 JUMPI PUSH0 DUP1 REVERT JUMPDEST POP PUSH2 0x6C4 PUSH1 0x4 DUP1 CALLDATASIZE SUB DUP2 ADD SWAP1 PUSH2 0x6BF SWAP2 SWAP1 PUSH2 0x3367 JUMP JUMPDEST PUSH2 0x2435 JUMP JUMPDEST PUSH1 0x40 MLOAD PUSH2 0x6D1 SWAP2 SWAP1 PUSH2 0x3182 JUMP JUMPDEST PUSH1 0x40 MLOAD DUP1 SWAP2 SUB SWAP1 RETURN JUMPDEST CALLVALUE DUP1 ISZERO PUSH2 0x6E5 JUMPI PUSH0 DUP1 REVERT JUMPDEST POP PUSH2 0x6EE PUSH2 0x2452 JUMP JUMPDEST PUSH1 0x40 MLOAD PUSH2 0x6FB SWAP2 SWAP1 PUSH2 0x32E6 JUMP JUMPDEST PUSH1 0x40 MLOAD DUP1 SWAP2 SUB SWAP1 RETURN JUMPDEST CALLVALUE DUP1 ISZERO PUSH2 0x70F JUMPI PUSH0 DUP1 REVERT JUMPDEST POP PUSH2 0x718 PUSH2 0x2458 JUMP JUMPDEST PUSH1 0x40 MLOAD PUSH2 0x725 SWAP2 SWAP1 PUSH2 0x3260 JUMP JUMPDEST PUSH1 0x40 MLOAD DUP1 SWAP2 SUB SWAP1 RETURN JUMPDEST CALLVALUE DUP1 ISZERO PUSH2 0x739 JUMPI PUSH0 DUP1 REVERT JUMPDEST POP PUSH2 0x754 PUSH1 0x4 DUP1 CALLDATASIZE SUB DUP2 ADD SWAP1 PUSH2 0x74F SWAP2 SWAP1 PUSH2 0x31CE JUMP JUMPDEST PUSH2 0x245E JUMP JUMPDEST STOP JUMPDEST CALLVALUE DUP1 ISZERO PUSH2 0x761 JUMPI PUSH0 DUP1 REVERT JUMPDEST POP PUSH2 0x76A PUSH2 0x24CA JUMP JUMPDEST PUSH1 0x40 MLOAD PUSH2 0x777 SWAP2 SWAP1 PUSH2 0x3260 JUMP JUMPDEST PUSH1 0x40 MLOAD DUP1 SWAP2 SUB SWAP1 RETURN JUMPDEST CALLVALUE DUP1 ISZERO PUSH2 0x78B JUMPI PUSH0 DUP1 REVERT JUMPDEST POP PUSH2 0x7A6 PUSH1 0x4 DUP1 CALLDATASIZE SUB DUP2 ADD SWAP1 PUSH2 0x7A1 SWAP2 SWAP1 PUSH2 0x31CE JUMP JUMPDEST PUSH2 0x24D0 JUMP JUMPDEST STOP JUMPDEST CALLVALUE DUP1 ISZERO PUSH2 0x7B3 JUMPI PUSH0 DUP1 REVERT JUMPDEST POP PUSH2 0x7CE PUSH1 0x4 DUP1 CALLDATASIZE SUB DUP2 ADD SWAP1 PUSH2 0x7C9 SWAP2 SWAP1 PUSH2 0x3329 JUMP JUMPDEST PUSH2 0x2505 JUMP JUMPDEST STOP JUMPDEST PUSH2 0x7D8 PUSH2 0x2527 JUMP JUMPDEST STOP JUMPDEST CALLVALUE DUP1 ISZERO PUSH2 0x7E5 JUMPI PUSH0 DUP1 REVERT JUMPDEST POP PUSH2 0x800 PUSH1 0x4 DUP1 CALLDATASIZE SUB DUP2 ADD SWAP1 PUSH2 0x7FB SWAP2 SWAP1 PUSH2 0x3367 JUMP JUMPDEST PUSH2 0x296F JUMP JUMPDEST STOP JUMPDEST CALLVALUE DUP1 ISZERO PUSH2 0x80D JUMPI PUSH0 DUP1 REVERT JUMPDEST POP PUSH2 0x816 PUSH2 0x2A2C JUMP JUMPDEST PUSH1 0x40 MLOAD PUSH2 0x823 SWAP2 SWAP1 PUSH2 0x3260 JUMP JUMPDEST PUSH1 0x40 MLOAD DUP1 SWAP2 SUB SWAP1 RETURN JUMPDEST PUSH0 PUSH32 0x7965DB0B00000000000000000000000000000000000000000000000000000000 PUSH28 0xFFFFFFFFFFFFFFFFFFFFFFFFFFFFFFFFFFFFFFFFFFFFFFFFFFFFFFFF NOT AND DUP3 PUSH28 0xFFFFFFFFFFFFFFFFFFFFFFFFFFFFFFFFFFFFFFFFFFFFFFFFFFFFFFFF NOT AND EQ DUP1 PUSH2 0x89E JUMPI POP PUSH2 0x89D DUP3 PUSH2 0x2A32 JUMP JUMPDEST JUMPDEST SWAP1 POP SWAP2 SWAP1 POP JUMP JUMPDEST PUSH32 0xA49807205CE4D355092EF5A8A18F56E8913CF4A201FBE287825B095693C21775 PUSH2 0x8CF DUP2 PUSH2 0x2A9B JUMP JUMPDEST DUP2 PUSH1 0x8 DUP2 SWAP1 SSTORE POP PUSH32 0x8645F88287B79F16D91266DA1D35B7ADC817D75A89A9577504B01FBC37ED5A6F DUP3 PUSH1 0x40 MLOAD PUSH2 0x905 SWAP2 SWAP1 PUSH2 0x3260 JUMP JUMPDEST PUSH1 0x40 MLOAD DUP1 SWAP2 SUB SWAP1 LOG1 POP POP JUMP JUMPDEST PUSH1 0xD DUP2 DUP2 SLOAD DUP2 LT PUSH2 0x920 JUMPI PUSH0 DUP1 REVERT JUMPDEST SWAP1 PUSH0 MSTORE PUSH1 0x20 PUSH0 KECCAK256 ADD PUSH0 SWAP2 POP SLOAD SWAP1 PUSH2 0x100 EXP SWAP1 DIV PUSH20 0xFFFFFFFFFFFFFFFFFFFFFFFFFFFFFFFFFFFFFFFF AND DUP2 JUMP JUMPDEST PUSH2 0x9AC PUSH1 0x40 MLOAD DUP1 PUSH1 0x40 ADD PUSH1 0x40 MSTORE DUP1 PUSH1 0x10 DUP2 MSTORE PUSH1 0x20 ADD PUSH32 0x436F6E74726163742043726561746F7200000000000000000000000000000000 DUP2 MSTORE POP PUSH1 0x3 PUSH0 SWAP1 SLOAD SWAP1 PUSH2 0x100 EXP SWAP1 DIV PUSH20 0xFFFFFFFFFFFFFFFFFFFFFFFFFFFFFFFFFFFFFFFF AND PUSH2 0x2AAF JUMP JUMPDEST PUSH2 0xA0C PUSH1 0x40 MLOAD DUP1 PUSH1 0x40 ADD PUSH1 0x40 MSTORE DUP1 PUSH1 0xA DUP2 MSTORE PUSH1 0x20 ADD PUSH32 0x537570657241646D696E00000000000000000000000000000000000000000000 DUP2 MSTORE POP PUSH1 0x2 PUSH0 SWAP1 SLOAD SWAP1 PUSH2 0x100 EXP SWAP1 DIV PUSH20 0xFFFFFFFFFFFFFFFFFFFFFFFFFFFFFFFFFFFFFFFF AND PUSH2 0x2AAF JUMP JUMPDEST PUSH2 0xA36 PUSH32 0xA49807205CE4D355092EF5A8A18F56E8913CF4A201FBE287825B095693C21775 CALLER PUSH2 0x23D2 JUMP JUMPDEST DUP1 PUSH2 0xA49 JUMPI POP PUSH2 0xA48 PUSH0 DUP1 SHL CALLER PUSH2 0x23D2 JUMP JUMPDEST JUMPDEST PUSH2 0xA88 JUMPI PUSH1 0x40 MLOAD PUSH32 0x8C379A000000000000000000000000000000000000000000000000000000000 DUP2 MSTORE PUSH1 0x4 ADD PUSH2 0xA7F SWAP1 PUSH2 0x33DC JUMP JUMPDEST PUSH1 0x40 MLOAD DUP1 SWAP2 SUB SWAP1 REVERT JUMPDEST PUSH1 0x1 PUSH1 0x10 PUSH0 PUSH2 0x100 EXP DUP2 SLOAD DUP2 PUSH1 0xFF MUL NOT AND SWAP1 DUP4 ISZERO ISZERO MUL OR SWAP1 SSTORE POP ADDRESS PUSH20 0xFFFFFFFFFFFFFFFFFFFFFFFFFFFFFFFFFFFFFFFF AND PUSH4 0xD18D944B DUP3 PUSH1 0x40 MLOAD DUP3 PUSH4 0xFFFFFFFF AND PUSH1 0xE0 SHL DUP2 MSTORE PUSH1 0x4 ADD PUSH2 0xADB SWAP2 SWAP1 PUSH2 0x3260 JUMP JUMPDEST PUSH0 PUSH1 0x40 MLOAD DUP1 DUP4 SUB DUP2 PUSH0 DUP8 DUP1 EXTCODESIZE ISZERO DUP1 ISZERO PUSH2 0xAF2 JUMPI PUSH0 DUP1 REVERT JUMPDEST POP GAS CALL ISZERO DUP1 ISZERO PUSH2 0xB04 JUMPI RETURNDATASIZE PUSH0 DUP1 RETURNDATACOPY RETURNDATASIZE PUSH0 REVERT JUMPDEST POP POP POP POP POP JUMP JUMPDEST PUSH1 0xC SLOAD DUP2 JUMP JUMPDEST PUSH1 0x3 PUSH0 SWAP1 SLOAD SWAP1 PUSH2 0x100 EXP SWAP1 DIV PUSH20 0xFFFFFFFFFFFFFFFFFFFFFFFFFFFFFFFFFFFFFFFF AND DUP2 JUMP JUMPDEST PUSH0 DUP1 PUSH0 DUP4 DUP2 MSTORE PUSH1 0x20 ADD SWAP1 DUP2 MSTORE PUSH1 0x20 ADD PUSH0 KECCAK256 PUSH1 0x1 ADD SLOAD SWAP1 POP SWAP2 SWAP1 POP JUMP JUMPDEST PUSH1 0x2 PUSH0 SWAP1 SLOAD SWAP1 PUSH2 0x100 EXP SWAP1 DIV PUSH20 0xFFFFFFFFFFFFFFFFFFFFFFFFFFFFFFFFFFFFFFFF AND DUP2 JUMP JUMPDEST PUSH2 0xBD7 PUSH1 0x40 MLOAD DUP1 PUSH1 0x40 ADD PUSH1 0x40 MSTORE DUP1 PUSH1 0x10 DUP2 MSTORE PUSH1 0x20 ADD PUSH32 0x436F6E74726163742043726561746F7200000000000000000000000000000000 DUP2 MSTORE POP PUSH1 0x3 PUSH0 SWAP1 SLOAD SWAP1 PUSH2 0x100 EXP SWAP1 DIV PUSH20 0xFFFFFFFFFFFFFFFFFFFFFFFFFFFFFFFFFFFFFFFF AND PUSH2 0x2AAF JUMP JUMPDEST PUSH2 0xC37 PUSH1 0x40 MLOAD DUP1 PUSH1 0x40 ADD PUSH1 0x40 MSTORE DUP1 PUSH1 0xA DUP2 MSTORE PUSH1 0x20 ADD PUSH32 0x537570657241646D696E00000000000000000000000000000000000000000000 DUP2 MSTORE POP PUSH1 0x2 PUSH0 SWAP1 SLOAD SWAP1 PUSH2 0x100 EXP SWAP1 DIV PUSH20 0xFFFFFFFFFFFFFFFFFFFFFFFFFFFFFFFFFFFFFFFF AND PUSH2 0x2AAF JUMP JUMPDEST PUSH2 0xC61 PUSH32 0xA49807205CE4D355092EF5A8A18F56E8913CF4A201FBE287825B095693C21775 CALLER PUSH2 0x23D2 JUMP JUMPDEST DUP1 PUSH2 0xC74 JUMPI POP PUSH2 0xC73 PUSH0 DUP1 SHL CALLER PUSH2 0x23D2 JUMP JUMPDEST JUMPDEST PUSH2 0xCB3 JUMPI PUSH1 0x40 MLOAD PUSH32 0x8C379A000000000000000000000000000000000000000000000000000000000 DUP2 MSTORE PUSH1 0x4 ADD PUSH2 0xCAA SWAP1 PUSH2 0x33DC JUMP JUMPDEST PUSH1 0x40 MLOAD DUP1 SWAP2 SUB SWAP1 REVERT JUMPDEST PUSH1 0x9 PUSH1 0x1 SWAP1 SLOAD SWAP1 PUSH2 0x100 EXP SWAP1 DIV PUSH1 0xFF AND ISZERO PUSH2 0xD03 JUMPI PUSH1 0x40 MLOAD PUSH32 0x8C379A000000000000000000000000000000000000000000000000000000000 DUP2 MSTORE PUSH1 0x4 ADD PUSH2 0xCFA SWAP1 PUSH2 0x3444 JUMP JUMPDEST PUSH1 0x40 MLOAD DUP1 SWAP2 SUB SWAP1 REVERT JUMPDEST PUSH1 0x1 PUSH1 0x9 PUSH1 0x1 PUSH2 0x100 EXP DUP2 SLOAD DUP2 PUSH1 0xFF MUL NOT AND SWAP1 DUP4 ISZERO ISZERO MUL OR SWAP1 SSTORE POP ADDRESS PUSH20 0xFFFFFFFFFFFFFFFFFFFFFFFFFFFFFFFFFFFFFFFF AND PUSH4 0x8D070E75 PUSH1 0x40 MLOAD DUP2 PUSH4 0xFFFFFFFF AND PUSH1 0xE0 SHL DUP2 MSTORE PUSH1 0x4 ADD PUSH0 PUSH1 0x40 MLOAD DUP1 DUP4 SUB DUP2 PUSH0 DUP8 DUP1 EXTCODESIZE ISZERO DUP1 ISZERO PUSH2 0xD63 JUMPI PUSH0 DUP1 REVERT JUMPDEST POP GAS CALL ISZERO DUP1 ISZERO PUSH2 0xD75 JUMPI RETURNDATASIZE PUSH0 DUP1 RETURNDATACOPY RETURNDATASIZE PUSH0 REVERT JUMPDEST POP POP POP POP PUSH32 0x5B2AE23CD3AC75C4244AFECDE24848A0616CA7390C4C330A40A86D7E896D9462 PUSH1 0x40 MLOAD PUSH1 0x40 MLOAD DUP1 SWAP2 SUB SWAP1 LOG1 JUMP JUMPDEST PUSH2 0xDB0 DUP3 PUSH2 0xB36 JUMP JUMPDEST PUSH2 0xDB9 DUP2 PUSH2 0x2A9B JUMP JUMPDEST PUSH2 0xDC3 DUP4 DUP4 PUSH2 0x2B4B JUMP JUMPDEST POP POP POP POP JUMP JUMPDEST PUSH1 0xB SLOAD DUP2 JUMP JUMPDEST PUSH2 0xDD7 PUSH2 0x2C34 JUMP JUMPDEST PUSH20 0xFFFFFFFFFFFFFFFFFFFFFFFFFFFFFFFFFFFFFFFF AND DUP2 PUSH20 0xFFFFFFFFFFFFFFFFFFFFFFFFFFFFFFFFFFFFFFFF AND EQ PUSH2 0xE3B JUMPI PUSH1 0x40 MLOAD PUSH32 0x6697B23200000000000000000000000000000000000000000000000000000000 DUP2 MSTORE PUSH1 0x4 ADD PUSH1 0x40 MLOAD DUP1 SWAP2 SUB SWAP1 REVERT JUMPDEST PUSH2 0xE45 DUP3 DUP3 PUSH2 0x2C3B JUMP JUMPDEST POP POP POP JUMP JUMPDEST PUSH1 0x9 PUSH1 0x1 SWAP1 SLOAD SWAP1 PUSH2 0x100 EXP SWAP1 DIV PUSH1 0xFF AND DUP2 JUMP JUMPDEST PUSH1 0xE PUSH1 0x20 MSTORE DUP1 PUSH0 MSTORE PUSH1 0x40 PUSH0 KECCAK256 PUSH0 SWAP2 POP SWAP1 POP SLOAD DUP2 JUMP JUMPDEST PUSH32 0xA49807205CE4D355092EF5A8A18F56E8913CF4A201FBE287825B095693C21775 PUSH2 0xE9C DUP2 PUSH2 0x2A9B JUMP JUMPDEST DUP2 PUSH1 0x7 DUP2 SWAP1 SSTORE POP PUSH32 0x9E87CF72973CDB82F6A3C58FA8EF538FD3088801E3F3033AFD06FA390CA4876C DUP3 PUSH1 0x40 MLOAD PUSH2 0xED2 SWAP2 SWAP1 PUSH2 0x3260 JUMP JUMPDEST PUSH1 0x40 MLOAD DUP1 SWAP2 SUB SWAP1 LOG1 POP POP JUMP JUMPDEST PUSH1 0x10 PUSH0 SWAP1 SLOAD SWAP1 PUSH2 0x100 EXP SWAP1 DIV PUSH1 0xFF AND DUP2 JUMP JUMPDEST PUSH2 0xF50 PUSH1 0x40 MLOAD DUP1 PUSH1 0x40 ADD PUSH1 0x40 MSTORE DUP1 PUSH1 0x10 DUP2 MSTORE PUSH1 0x20 ADD PUSH32 0x436F6E74726163742043726561746F7200000000000000000000000000000000 DUP2 MSTORE POP PUSH1 0x3 PUSH0 SWAP1 SLOAD SWAP1 PUSH2 0x100 EXP SWAP1 DIV PUSH20 0xFFFFFFFFFFFFFFFFFFFFFFFFFFFFFFFFFFFFFFFF AND PUSH2 0x2AAF JUMP JUMPDEST PUSH2 0xFB0 PUSH1 0x40 MLOAD DUP1 PUSH1 0x40 ADD PUSH1 0x40 MSTORE DUP1 PUSH1 0xA DUP2 MSTORE PUSH1 0x20 ADD PUSH32 0x537570657241646D696E00000000000000000000000000000000000000000000 DUP2 MSTORE POP PUSH1 0x2 PUSH0 SWAP1 SLOAD SWAP1 PUSH2 0x100 EXP SWAP1 DIV PUSH20 0xFFFFFFFFFFFFFFFFFFFFFFFFFFFFFFFFFFFFFFFF AND PUSH2 0x2AAF JUMP JUMPDEST PUSH2 0xFDA PUSH32 0xA49807205CE4D355092EF5A8A18F56E8913CF4A201FBE287825B095693C21775 CALLER PUSH2 0x23D2 JUMP JUMPDEST DUP1 PUSH2 0xFED JUMPI POP PUSH2 0xFEC PUSH0 DUP1 SHL CALLER PUSH2 0x23D2 JUMP JUMPDEST JUMPDEST PUSH2 0x102C JUMPI PUSH1 0x40 MLOAD PUSH32 0x8C379A000000000000000000000000000000000000000000000000000000000 DUP2 MSTORE PUSH1 0x4 ADD PUSH2 0x1023 SWAP1 PUSH2 0x33DC JUMP JUMPDEST PUSH1 0x40 MLOAD DUP1 SWAP2 SUB SWAP1 REVERT JUMPDEST PUSH1 0x9 PUSH0 SWAP1 SLOAD SWAP1 PUSH2 0x100 EXP SWAP1 DIV PUSH1 0xFF AND ISZERO PUSH2 0x107B JUMPI PUSH1 0x40 MLOAD PUSH32 0x8C379A000000000000000000000000000000000000000000000000000000000 DUP2 MSTORE PUSH1 0x4 ADD PUSH2 0x1072 SWAP1 PUSH2 0x34AC JUMP JUMPDEST PUSH1 0x40 MLOAD DUP1 SWAP2 SUB SWAP1 REVERT JUMPDEST PUSH1 0x1 PUSH1 0x9 PUSH0 PUSH2 0x100 EXP DUP2 SLOAD DUP2 PUSH1 0xFF MUL NOT AND SWAP1 DUP4 ISZERO ISZERO MUL OR SWAP1 SSTORE POP PUSH32 0x8CF55E5373CD35327ECD6E48F19A6101684947FD385C07FB95117B3695EC2E9B PUSH1 0x40 MLOAD PUSH1 0x40 MLOAD DUP1 SWAP2 SUB SWAP1 LOG1 JUMP JUMPDEST PUSH1 0x9 PUSH0 SWAP1 SLOAD SWAP1 PUSH2 0x100 EXP SWAP1 DIV PUSH1 0xFF AND DUP2 JUMP JUMPDEST PUSH32 0xA49807205CE4D355092EF5A8A18F56E8913CF4A201FBE287825B095693C21775 DUP2 JUMP JUMPDEST PUSH1 0xA SLOAD DUP2 JUMP JUMPDEST PUSH32 0xA49807205CE4D355092EF5A8A18F56E8913CF4A201FBE287825B095693C21775 PUSH2 0x1129 DUP2 PUSH2 0x2A9B JUMP JUMPDEST DUP2 PUSH1 0x5 DUP2 SWAP1 SSTORE POP POP POP JUMP JUMPDEST PUSH1 0x5 SLOAD DUP2 JUMP JUMPDEST PUSH32 0xA49807205CE4D355092EF5A8A18F56E8913CF4A201FBE287825B095693C21775 PUSH2 0x1164 DUP2 PUSH2 0x2A9B JUMP JUMPDEST PUSH0 PUSH1 0xF PUSH0 DUP5 PUSH20 0xFFFFFFFFFFFFFFFFFFFFFFFFFFFFFFFFFFFFFFFF AND PUSH20 0xFFFFFFFFFFFFFFFFFFFFFFFFFFFFFFFFFFFFFFFF AND DUP2 MSTORE PUSH1 0x20 ADD SWAP1 DUP2 MSTORE PUSH1 0x20 ADD PUSH0 KECCAK256 PUSH0 PUSH2 0x100 EXP DUP2 SLOAD DUP2 PUSH1 0xFF MUL NOT AND SWAP1 DUP4 ISZERO ISZERO MUL OR SWAP1 SSTORE POP PUSH32 0xF93F9A76C1BF3444D22400A00CB9FE990E6ABE9DBB333FDA48859CFEE864543D DUP3 PUSH0 PUSH1 0x40 MLOAD PUSH2 0x11E9 SWAP3 SWAP2 SWAP1 PUSH2 0x34CA JUMP JUMPDEST PUSH1 0x40 MLOAD DUP1 SWAP2 SUB SWAP1 LOG1 POP POP JUMP JUMPDEST PUSH2 0x11FD PUSH2 0x2D24 JUMP JUMPDEST PUSH2 0x125D PUSH1 0x40 MLOAD DUP1 PUSH1 0x40 ADD PUSH1 0x40 MSTORE DUP1 PUSH1 0x10 DUP2 MSTORE PUSH1 0x20 ADD PUSH32 0x436F6E74726163742043726561746F7200000000000000000000000000000000 DUP2 MSTORE POP PUSH1 0x3 PUSH0 SWAP1 SLOAD SWAP1 PUSH2 0x100 EXP SWAP1 DIV PUSH20 0xFFFFFFFFFFFFFFFFFFFFFFFFFFFFFFFFFFFFFFFF AND PUSH2 0x2AAF JUMP JUMPDEST PUSH2 0x12BD PUSH1 0x40 MLOAD DUP1 PUSH1 0x40 ADD PUSH1 0x40 MSTORE DUP1 PUSH1 0xA DUP2 MSTORE PUSH1 0x20 ADD PUSH32 0x537570657241646D696E00000000000000000000000000000000000000000000 DUP2 MSTORE POP PUSH1 0x2 PUSH0 SWAP1 SLOAD SWAP1 PUSH2 0x100 EXP SWAP1 DIV PUSH20 0xFFFFFFFFFFFFFFFFFFFFFFFFFFFFFFFFFFFFFFFF AND PUSH2 0x2AAF JUMP JUMPDEST PUSH2 0x12E7 PUSH32 0xA49807205CE4D355092EF5A8A18F56E8913CF4A201FBE287825B095693C21775 CALLER PUSH2 0x23D2 JUMP JUMPDEST DUP1 PUSH2 0x12FA JUMPI POP PUSH2 0x12F9 PUSH0 DUP1 SHL CALLER PUSH2 0x23D2 JUMP JUMPDEST JUMPDEST PUSH2 0x1339 JUMPI PUSH1 0x40 MLOAD PUSH32 0x8C379A000000000000000000000000000000000000000000000000000000000 DUP2 MSTORE PUSH1 0x4 ADD PUSH2 0x1330 SWAP1 PUSH2 0x33DC JUMP JUMPDEST PUSH1 0x40 MLOAD DUP1 SWAP2 SUB SWAP1 REVERT JUMPDEST PUSH1 0x1 PUSH1 0x9 PUSH1 0x1 PUSH2 0x100 EXP DUP2 SLOAD DUP2 PUSH1 0xFF MUL NOT AND SWAP1 DUP4 ISZERO ISZERO MUL OR SWAP1 SSTORE POP PUSH1 0x1 ISZERO ISZERO PUSH1 0x9 PUSH1 0x1 SWAP1 SLOAD SWAP1 PUSH2 0x100 EXP SWAP1 DIV PUSH1 0xFF AND ISZERO ISZERO EQ PUSH2 0x13AA JUMPI PUSH1 0x40 MLOAD PUSH32 0x8C379A000000000000000000000000000000000000000000000000000000000 DUP2 MSTORE PUSH1 0x4 ADD PUSH2 0x13A1 SWAP1 PUSH2 0x353B JUMP JUMPDEST PUSH1 0x40 MLOAD DUP1 SWAP2 SUB SWAP1 REVERT JUMPDEST PUSH0 PUSH1 0x4 SLOAD GT DUP1 ISZERO PUSH2 0x13BC JUMPI POP PUSH0 PUSH1 0xC SLOAD GT JUMPDEST PUSH2 0x13FB JUMPI PUSH1 0x40 MLOAD PUSH32 0x8C379A000000000000000000000000000000000000000000000000000000000 DUP2 MSTORE PUSH1 0x4 ADD PUSH2 0x13F2 SWAP1 PUSH2 0x35C9 JUMP JUMPDEST PUSH1 0x40 MLOAD DUP1 SWAP2 SUB SWAP1 REVERT JUMPDEST PUSH0 DUP1 PUSH1 0x10 PUSH0 SWAP1 SLOAD SWAP1 PUSH2 0x100 EXP SWAP1 DIV PUSH1 0xFF AND DUP1 ISZERO PUSH2 0x1419 JUMPI POP PUSH0 PUSH1 0x6 SLOAD GT JUMPDEST ISZERO PUSH2 0x212E JUMPI PUSH1 0x6 SLOAD PUSH1 0x4 SLOAD LT ISZERO PUSH2 0x174D JUMPI PUSH2 0x1468 PUSH1 0x40 MLOAD DUP1 PUSH1 0x40 ADD PUSH1 0x40 MSTORE DUP1 PUSH1 0x1A DUP2 MSTORE PUSH1 0x20 ADD PUSH32 0x5768656E20746F74616C526173696564203C2068617264436170000000000000 DUP2 MSTORE POP PUSH2 0x2D73 JUMP JUMPDEST PUSH2 0x14A9 PUSH1 0x40 MLOAD DUP1 PUSH1 0x40 ADD PUSH1 0x40 MSTORE DUP1 PUSH1 0xB DUP2 MSTORE PUSH1 0x20 ADD PUSH32 0x546F74616C526169736564000000000000000000000000000000000000000000 DUP2 MSTORE POP PUSH1 0x4 SLOAD PUSH2 0x2E0C JUMP JUMPDEST PUSH2 0x14D3 PUSH1 0x64 PUSH2 0x14C5 PUSH1 0x5 SLOAD PUSH1 0x4 SLOAD PUSH2 0x2EA8 SWAP1 SWAP2 SWAP1 PUSH4 0xFFFFFFFF AND JUMP JUMPDEST PUSH2 0x2EBD SWAP1 SWAP2 SWAP1 PUSH4 0xFFFFFFFF AND JUMP JUMPDEST SWAP2 POP PUSH2 0x14EA DUP3 PUSH1 0x4 SLOAD PUSH2 0x2ED2 SWAP1 SWAP2 SWAP1 PUSH4 0xFFFFFFFF AND JUMP JUMPDEST SWAP1 POP PUSH2 0x150E PUSH1 0x40 MLOAD DUP1 PUSH1 0x60 ADD PUSH1 0x40 MSTORE DUP1 PUSH1 0x2A DUP2 MSTORE PUSH1 0x20 ADD PUSH2 0x3E36 PUSH1 0x2A SWAP2 CODECOPY DUP4 PUSH2 0x2E0C JUMP JUMPDEST PUSH2 0x1530 PUSH1 0x40 MLOAD DUP1 PUSH1 0x60 ADD PUSH1 0x40 MSTORE DUP1 PUSH1 0x27 DUP2 MSTORE PUSH1 0x20 ADD PUSH2 0x3CCD PUSH1 0x27 SWAP2 CODECOPY DUP3 PUSH2 0x2E0C JUMP JUMPDEST PUSH0 PUSH1 0x3 PUSH0 SWAP1 SLOAD SWAP1 PUSH2 0x100 EXP SWAP1 DIV PUSH20 0xFFFFFFFFFFFFFFFFFFFFFFFFFFFFFFFFFFFFFFFF AND PUSH20 0xFFFFFFFFFFFFFFFFFFFFFFFFFFFFFFFFFFFFFFFF AND DUP3 PUSH1 0x40 MLOAD PUSH2 0x1576 SWAP1 PUSH2 0x3614 JUMP JUMPDEST PUSH0 PUSH1 0x40 MLOAD DUP1 DUP4 SUB DUP2 DUP6 DUP8 GAS CALL SWAP3 POP POP POP RETURNDATASIZE DUP1 PUSH0 DUP2 EQ PUSH2 0x15B0 JUMPI PUSH1 0x40 MLOAD SWAP2 POP PUSH1 0x1F NOT PUSH1 0x3F RETURNDATASIZE ADD AND DUP3 ADD PUSH1 0x40 MSTORE RETURNDATASIZE DUP3 MSTORE RETURNDATASIZE PUSH0 PUSH1 0x20 DUP5 ADD RETURNDATACOPY PUSH2 0x15B5 JUMP JUMPDEST PUSH1 0x60 SWAP2 POP JUMPDEST POP POP SWAP1 POP PUSH0 PUSH1 0x40 MLOAD DUP1 PUSH1 0x60 ADD PUSH1 0x40 MSTORE DUP1 PUSH1 0x37 DUP2 MSTORE PUSH1 0x20 ADD PUSH2 0x3FE6 PUSH1 0x37 SWAP2 CODECOPY SWAP1 POP DUP2 DUP2 DUP4 PUSH1 0x40 MLOAD PUSH1 0x20 ADD PUSH2 0x15E9 SWAP3 SWAP2 SWAP1 PUSH2 0x36BF JUMP JUMPDEST PUSH1 0x40 MLOAD PUSH1 0x20 DUP2 DUP4 SUB SUB DUP2 MSTORE SWAP1 PUSH1 0x40 MSTORE SWAP1 PUSH2 0x1639 JUMPI PUSH1 0x40 MLOAD PUSH32 0x8C379A000000000000000000000000000000000000000000000000000000000 DUP2 MSTORE PUSH1 0x4 ADD PUSH2 0x1630 SWAP2 SWAP1 PUSH2 0x372E JUMP JUMPDEST PUSH1 0x40 MLOAD DUP1 SWAP2 SUB SWAP1 REVERT JUMPDEST POP PUSH0 PUSH1 0x2 PUSH0 SWAP1 SLOAD SWAP1 PUSH2 0x100 EXP SWAP1 DIV PUSH20 0xFFFFFFFFFFFFFFFFFFFFFFFFFFFFFFFFFFFFFFFF AND PUSH20 0xFFFFFFFFFFFFFFFFFFFFFFFFFFFFFFFFFFFFFFFF AND DUP6 PUSH1 0x40 MLOAD PUSH2 0x1680 SWAP1 PUSH2 0x3614 JUMP JUMPDEST PUSH0 PUSH1 0x40 MLOAD DUP1 DUP4 SUB DUP2 DUP6 DUP8 GAS CALL SWAP3 POP POP POP RETURNDATASIZE DUP1 PUSH0 DUP2 EQ PUSH2 0x16BA JUMPI PUSH1 0x40 MLOAD SWAP2 POP PUSH1 0x1F NOT PUSH1 0x3F RETURNDATASIZE ADD AND DUP3 ADD PUSH1 0x40 MSTORE RETURNDATASIZE DUP3 MSTORE RETURNDATASIZE PUSH0 PUSH1 0x20 DUP5 ADD RETURNDATACOPY PUSH2 0x16BF JUMP JUMPDEST PUSH1 0x60 SWAP2 POP JUMPDEST POP POP SWAP1 POP PUSH0 PUSH1 0x40 MLOAD DUP1 PUSH1 0x60 ADD PUSH1 0x40 MSTORE DUP1 PUSH1 0x3D DUP2 MSTORE PUSH1 0x20 ADD PUSH2 0x3CF4 PUSH1 0x3D SWAP2 CODECOPY SWAP1 POP DUP2 DUP2 DUP4 PUSH1 0x40 MLOAD PUSH1 0x20 ADD PUSH2 0x16F3 SWAP3 SWAP2 SWAP1 PUSH2 0x36BF JUMP JUMPDEST PUSH1 0x40 MLOAD PUSH1 0x20 DUP2 DUP4 SUB SUB DUP2 MSTORE SWAP1 PUSH1 0x40 MSTORE SWAP1 PUSH2 0x1743 JUMPI PUSH1 0x40 MLOAD PUSH32 0x8C379A000000000000000000000000000000000000000000000000000000000 DUP2 MSTORE PUSH1 0x4 ADD PUSH2 0x173A SWAP2 SWAP1 PUSH2 0x372E JUMP JUMPDEST PUSH1 0x40 MLOAD DUP1 SWAP2 SUB SWAP1 REVERT JUMPDEST POP POP POP POP POP PUSH2 0x2129 JUMP JUMPDEST PUSH1 0x6 SLOAD PUSH1 0x4 SLOAD GT ISZERO PUSH2 0x1DFD JUMPI PUSH2 0x1797 PUSH1 0x40 MLOAD DUP1 PUSH1 0x40 ADD PUSH1 0x40 MSTORE DUP1 PUSH1 0x1A DUP2 MSTORE PUSH1 0x20 ADD PUSH32 0x5768656E20746F74616C526173696564203E2068617264436170000000000000 DUP2 MSTORE POP PUSH2 0x2D73 JUMP JUMPDEST PUSH2 0x17D8 PUSH1 0x40 MLOAD DUP1 PUSH1 0x40 ADD PUSH1 0x40 MSTORE DUP1 PUSH1 0xB DUP2 MSTORE PUSH1 0x20 ADD PUSH32 0x546F74616C526169736564000000000000000000000000000000000000000000 DUP2 MSTORE POP PUSH1 0x4 SLOAD PUSH2 0x2E0C JUMP JUMPDEST PUSH2 0x1802 PUSH1 0x64 PUSH2 0x17F4 PUSH1 0x5 SLOAD PUSH1 0x6 SLOAD PUSH2 0x2EA8 SWAP1 SWAP2 SWAP1 PUSH4 0xFFFFFFFF AND JUMP JUMPDEST PUSH2 0x2EBD SWAP1 SWAP2 SWAP1 PUSH4 0xFFFFFFFF AND JUMP JUMPDEST SWAP2 POP PUSH2 0x1819 DUP3 PUSH1 0x6 SLOAD PUSH2 0x2ED2 SWAP1 SWAP2 SWAP1 PUSH4 0xFFFFFFFF AND JUMP JUMPDEST SWAP1 POP PUSH2 0x183D PUSH1 0x40 MLOAD DUP1 PUSH1 0x60 ADD PUSH1 0x40 MSTORE DUP1 PUSH1 0x2A DUP2 MSTORE PUSH1 0x20 ADD PUSH2 0x3EEC PUSH1 0x2A SWAP2 CODECOPY DUP4 PUSH2 0x2E0C JUMP JUMPDEST PUSH2 0x185F PUSH1 0x40 MLOAD DUP1 PUSH1 0x60 ADD PUSH1 0x40 MSTORE DUP1 PUSH1 0x27 DUP2 MSTORE PUSH1 0x20 ADD PUSH2 0x3F5F PUSH1 0x27 SWAP2 CODECOPY DUP3 PUSH2 0x2E0C JUMP JUMPDEST PUSH0 PUSH1 0x3 PUSH0 SWAP1 SLOAD SWAP1 PUSH2 0x100 EXP SWAP1 DIV PUSH20 0xFFFFFFFFFFFFFFFFFFFFFFFFFFFFFFFFFFFFFFFF AND PUSH20 0xFFFFFFFFFFFFFFFFFFFFFFFFFFFFFFFFFFFFFFFF AND DUP3 PUSH1 0x40 MLOAD PUSH2 0x18A5 SWAP1 PUSH2 0x3614 JUMP JUMPDEST PUSH0 PUSH1 0x40 MLOAD DUP1 DUP4 SUB DUP2 DUP6 DUP8 GAS CALL SWAP3 POP POP POP RETURNDATASIZE DUP1 PUSH0 DUP2 EQ PUSH2 0x18DF JUMPI PUSH1 0x40 MLOAD SWAP2 POP PUSH1 0x1F NOT PUSH1 0x3F RETURNDATASIZE ADD AND DUP3 ADD PUSH1 0x40 MSTORE RETURNDATASIZE DUP3 MSTORE RETURNDATASIZE PUSH0 PUSH1 0x20 DUP5 ADD RETURNDATACOPY PUSH2 0x18E4 JUMP JUMPDEST PUSH1 0x60 SWAP2 POP JUMPDEST POP POP SWAP1 POP PUSH0 PUSH1 0x40 MLOAD DUP1 PUSH1 0x60 ADD PUSH1 0x40 MSTORE DUP1 PUSH1 0x37 DUP2 MSTORE PUSH1 0x20 ADD PUSH2 0x3DD4 PUSH1 0x37 SWAP2 CODECOPY SWAP1 POP DUP2 DUP2 DUP4 PUSH1 0x40 MLOAD PUSH1 0x20 ADD PUSH2 0x1918 SWAP3 SWAP2 SWAP1 PUSH2 0x36BF JUMP JUMPDEST PUSH1 0x40 MLOAD PUSH1 0x20 DUP2 DUP4 SUB SUB DUP2 MSTORE SWAP1 PUSH1 0x40 MSTORE SWAP1 PUSH2 0x1968 JUMPI PUSH1 0x40 MLOAD PUSH32 0x8C379A000000000000000000000000000000000000000000000000000000000 DUP2 MSTORE PUSH1 0x4 ADD PUSH2 0x195F SWAP2 SWAP1 PUSH2 0x372E JUMP JUMPDEST PUSH1 0x40 MLOAD DUP1 SWAP2 SUB SWAP1 REVERT JUMPDEST POP PUSH0 PUSH1 0x2 PUSH0 SWAP1 SLOAD SWAP1 PUSH2 0x100 EXP SWAP1 DIV PUSH20 0xFFFFFFFFFFFFFFFFFFFFFFFFFFFFFFFFFFFFFFFF AND PUSH20 0xFFFFFFFFFFFFFFFFFFFFFFFFFFFFFFFFFFFFFFFF AND DUP6 PUSH1 0x40 MLOAD PUSH2 0x19AF SWAP1 PUSH2 0x3614 JUMP JUMPDEST PUSH0 PUSH1 0x40 MLOAD DUP1 DUP4 SUB DUP2 DUP6 DUP8 GAS CALL SWAP3 POP POP POP RETURNDATASIZE DUP1 PUSH0 DUP2 EQ PUSH2 0x19E9 JUMPI PUSH1 0x40 MLOAD SWAP2 POP PUSH1 0x1F NOT PUSH1 0x3F RETURNDATASIZE ADD AND DUP3 ADD PUSH1 0x40 MSTORE RETURNDATASIZE DUP3 MSTORE RETURNDATASIZE PUSH0 PUSH1 0x20 DUP5 ADD RETURNDATACOPY PUSH2 0x19EE JUMP JUMPDEST PUSH1 0x60 SWAP2 POP JUMPDEST POP POP SWAP1 POP PUSH0 PUSH1 0x40 MLOAD DUP1 PUSH1 0x60 ADD PUSH1 0x40 MSTORE DUP1 PUSH1 0x3D DUP2 MSTORE PUSH1 0x20 ADD PUSH2 0x3D59 PUSH1 0x3D SWAP2 CODECOPY SWAP1 POP DUP2 DUP2 DUP4 PUSH1 0x40 MLOAD PUSH1 0x20 ADD PUSH2 0x1A22 SWAP3 SWAP2 SWAP1 PUSH2 0x36BF JUMP JUMPDEST PUSH1 0x40 MLOAD PUSH1 0x20 DUP2 DUP4 SUB SUB DUP2 MSTORE SWAP1 PUSH1 0x40 MSTORE SWAP1 PUSH2 0x1A72 JUMPI PUSH1 0x40 MLOAD PUSH32 0x8C379A000000000000000000000000000000000000000000000000000000000 DUP2 MSTORE PUSH1 0x4 ADD PUSH2 0x1A69 SWAP2 SWAP1 PUSH2 0x372E JUMP JUMPDEST PUSH1 0x40 MLOAD DUP1 SWAP2 SUB SWAP1 REVERT JUMPDEST POP PUSH0 PUSH2 0x1A9F PUSH1 0xC SLOAD PUSH2 0x1A91 PUSH1 0x6 SLOAD PUSH1 0x4 SLOAD PUSH2 0x2ED2 SWAP1 SWAP2 SWAP1 PUSH4 0xFFFFFFFF AND JUMP JUMPDEST PUSH2 0x2EBD SWAP1 SWAP2 SWAP1 PUSH4 0xFFFFFFFF AND JUMP JUMPDEST SWAP1 POP PUSH2 0x1AE0 PUSH1 0x40 MLOAD DUP1 PUSH1 0x40 ADD PUSH1 0x40 MSTORE DUP1 PUSH1 0x1A DUP2 MSTORE PUSH1 0x20 ADD PUSH32 0x726566756E64416D6F756E74506572436F6E7472696275746F72000000000000 DUP2 MSTORE POP DUP3 PUSH2 0x2E0C JUMP JUMPDEST PUSH2 0x1B1E PUSH1 0x40 MLOAD DUP1 PUSH1 0x40 ADD PUSH1 0x40 MSTORE DUP1 PUSH1 0x1A DUP2 MSTORE PUSH1 0x20 ADD PUSH32 0x436865636B696E6720657665727920636F6E7472696275746F72000000000000 DUP2 MSTORE POP PUSH2 0x2D73 JUMP JUMPDEST PUSH0 JUMPDEST PUSH1 0xC SLOAD DUP2 LT ISZERO PUSH2 0x1DF2 JUMPI PUSH0 PUSH1 0xD DUP3 DUP2 SLOAD DUP2 LT PUSH2 0x1B3F JUMPI PUSH2 0x1B3E PUSH2 0x374E JUMP JUMPDEST JUMPDEST SWAP1 PUSH0 MSTORE PUSH1 0x20 PUSH0 KECCAK256 ADD PUSH0 SWAP1 SLOAD SWAP1 PUSH2 0x100 EXP SWAP1 DIV PUSH20 0xFFFFFFFFFFFFFFFFFFFFFFFFFFFFFFFFFFFFFFFF AND SWAP1 POP PUSH2 0x1BA8 PUSH1 0x40 MLOAD DUP1 PUSH1 0x40 ADD PUSH1 0x40 MSTORE DUP1 PUSH1 0x10 DUP2 MSTORE PUSH1 0x20 ADD PUSH32 0x636F6E7472696275746F72206C69737400000000000000000000000000000000 DUP2 MSTORE POP DUP3 PUSH2 0x2AAF JUMP JUMPDEST PUSH0 PUSH1 0xE PUSH0 DUP4 PUSH20 0xFFFFFFFFFFFFFFFFFFFFFFFFFFFFFFFFFFFFFFFF AND PUSH20 0xFFFFFFFFFFFFFFFFFFFFFFFFFFFFFFFFFFFFFFFF AND DUP2 MSTORE PUSH1 0x20 ADD SWAP1 DUP2 MSTORE PUSH1 0x20 ADD PUSH0 KECCAK256 SLOAD SWAP1 POP DUP4 DUP2 GT ISZERO PUSH2 0x1DA4 JUMPI PUSH0 PUSH20 0xFFFFFFFFFFFFFFFFFFFFFFFFFFFFFFFFFFFFFFFF AND DUP3 PUSH20 0xFFFFFFFFFFFFFFFFFFFFFFFFFFFFFFFFFFFFFFFF AND EQ ISZERO DUP1 PUSH2 0x1C58 JUMPI POP PUSH0 PUSH20 0xFFFFFFFFFFFFFFFFFFFFFFFFFFFFFFFFFFFFFFFF AND DUP3 PUSH20 0xFFFFFFFFFFFFFFFFFFFFFFFFFFFFFFFFFFFFFFFF AND EQ ISZERO JUMPDEST PUSH2 0x1C97 JUMPI PUSH1 0x40 MLOAD PUSH32 0x8C379A000000000000000000000000000000000000000000000000000000000 DUP2 MSTORE PUSH1 0x4 ADD PUSH2 0x1C8E SWAP1 PUSH2 0x37C5 JUMP JUMPDEST PUSH1 0x40 MLOAD DUP1 SWAP2 SUB SWAP1 REVERT JUMPDEST PUSH2 0x1CB8 PUSH1 0x40 MLOAD DUP1 PUSH1 0x60 ADD PUSH1 0x40 MSTORE DUP1 PUSH1 0x24 DUP2 MSTORE PUSH1 0x20 ADD PUSH2 0x3EC8 PUSH1 0x24 SWAP2 CODECOPY PUSH2 0x2D73 JUMP JUMPDEST PUSH0 DUP3 PUSH20 0xFFFFFFFFFFFFFFFFFFFFFFFFFFFFFFFFFFFFFFFF AND DUP6 PUSH1 0x40 MLOAD PUSH2 0x1CDD SWAP1 PUSH2 0x3614 JUMP JUMPDEST PUSH0 PUSH1 0x40 MLOAD DUP1 DUP4 SUB DUP2 DUP6 DUP8 GAS CALL SWAP3 POP POP POP RETURNDATASIZE DUP1 PUSH0 DUP2 EQ PUSH2 0x1D17 JUMPI PUSH1 0x40 MLOAD SWAP2 POP PUSH1 0x1F NOT PUSH1 0x3F RETURNDATASIZE ADD AND DUP3 ADD PUSH1 0x40 MSTORE RETURNDATASIZE DUP3 MSTORE RETURNDATASIZE PUSH0 PUSH1 0x20 DUP5 ADD RETURNDATACOPY PUSH2 0x1D1C JUMP JUMPDEST PUSH1 0x60 SWAP2 POP JUMPDEST POP POP SWAP1 POP PUSH0 PUSH1 0x40 MLOAD DUP1 PUSH1 0x80 ADD PUSH1 0x40 MSTORE DUP1 PUSH1 0x49 DUP2 MSTORE PUSH1 0x20 ADD PUSH2 0x3F16 PUSH1 0x49 SWAP2 CODECOPY SWAP1 POP DUP2 DUP2 DUP6 PUSH1 0x40 MLOAD PUSH1 0x20 ADD PUSH2 0x1D50 SWAP3 SWAP2 SWAP1 PUSH2 0x3828 JUMP JUMPDEST PUSH1 0x40 MLOAD PUSH1 0x20 DUP2 DUP4 SUB SUB DUP2 MSTORE SWAP1 PUSH1 0x40 MSTORE SWAP1 PUSH2 0x1DA0 JUMPI PUSH1 0x40 MLOAD PUSH32 0x8C379A000000000000000000000000000000000000000000000000000000000 DUP2 MSTORE PUSH1 0x4 ADD PUSH2 0x1D97 SWAP2 SWAP1 PUSH2 0x372E JUMP JUMPDEST PUSH1 0x40 MLOAD DUP1 SWAP2 SUB SWAP1 REVERT JUMPDEST POP POP POP JUMPDEST PUSH2 0x1DE3 PUSH1 0x40 MLOAD DUP1 PUSH1 0x40 ADD PUSH1 0x40 MSTORE DUP1 PUSH1 0xD DUP2 MSTORE PUSH1 0x20 ADD PUSH32 0x72657475726E20416D6F756E7400000000000000000000000000000000000000 DUP2 MSTORE POP DUP6 PUSH2 0x2E0C JUMP JUMPDEST POP POP DUP1 DUP1 PUSH1 0x1 ADD SWAP2 POP POP PUSH2 0x1B20 JUMP JUMPDEST POP POP POP POP POP POP PUSH2 0x2128 JUMP JUMPDEST PUSH1 0x6 SLOAD PUSH1 0x4 SLOAD SUB PUSH2 0x2127 JUMPI PUSH2 0x1E46 PUSH1 0x40 MLOAD DUP1 PUSH1 0x40 ADD PUSH1 0x40 MSTORE DUP1 PUSH1 0x1B DUP2 MSTORE PUSH1 0x20 ADD PUSH32 0x5768656E20746F74616C526173696564203D3D20686172644361700000000000 DUP2 MSTORE POP PUSH2 0x2D73 JUMP JUMPDEST PUSH2 0x1E87 PUSH1 0x40 MLOAD DUP1 PUSH1 0x40 ADD PUSH1 0x40 MSTORE DUP1 PUSH1 0xB DUP2 MSTORE PUSH1 0x20 ADD PUSH32 0x546F74616C526169736564000000000000000000000000000000000000000000 DUP2 MSTORE POP PUSH1 0x4 SLOAD PUSH2 0x2E0C JUMP JUMPDEST PUSH2 0x1EB1 PUSH1 0x64 PUSH2 0x1EA3 PUSH1 0x5 SLOAD PUSH1 0x6 SLOAD PUSH2 0x2EA8 SWAP1 SWAP2 SWAP1 PUSH4 0xFFFFFFFF AND JUMP JUMPDEST PUSH2 0x2EBD SWAP1 SWAP2 SWAP1 PUSH4 0xFFFFFFFF AND JUMP JUMPDEST SWAP2 POP PUSH2 0x1EC8 DUP3 PUSH1 0x6 SLOAD PUSH2 0x2ED2 SWAP1 SWAP2 SWAP1 PUSH4 0xFFFFFFFF AND JUMP JUMPDEST SWAP1 POP PUSH2 0x1EEC PUSH1 0x40 MLOAD DUP1 PUSH1 0x60 ADD PUSH1 0x40 MSTORE DUP1 PUSH1 0x2B DUP2 MSTORE PUSH1 0x20 ADD PUSH2 0x3E0B PUSH1 0x2B SWAP2 CODECOPY DUP4 PUSH2 0x2E0C JUMP JUMPDEST PUSH2 0x1F0E PUSH1 0x40 MLOAD DUP1 PUSH1 0x60 ADD PUSH1 0x40 MSTORE DUP1 PUSH1 0x28 DUP2 MSTORE PUSH1 0x20 ADD PUSH2 0x3D31 PUSH1 0x28 SWAP2 CODECOPY DUP3 PUSH2 0x2E0C JUMP JUMPDEST PUSH0 PUSH1 0x3 PUSH0 SWAP1 SLOAD SWAP1 PUSH2 0x100 EXP SWAP1 DIV PUSH20 0xFFFFFFFFFFFFFFFFFFFFFFFFFFFFFFFFFFFFFFFF AND PUSH20 0xFFFFFFFFFFFFFFFFFFFFFFFFFFFFFFFFFFFFFFFF AND DUP3 PUSH1 0x40 MLOAD PUSH2 0x1F54 SWAP1 PUSH2 0x3614 JUMP JUMPDEST PUSH0 PUSH1 0x40 MLOAD DUP1 DUP4 SUB DUP2 DUP6 DUP8 GAS CALL SWAP3 POP POP POP RETURNDATASIZE DUP1 PUSH0 DUP2 EQ PUSH2 0x1F8E JUMPI PUSH1 0x40 MLOAD SWAP2 POP PUSH1 0x1F NOT PUSH1 0x3F RETURNDATASIZE ADD AND DUP3 ADD PUSH1 0x40 MSTORE RETURNDATASIZE DUP3 MSTORE RETURNDATASIZE PUSH0 PUSH1 0x20 DUP5 ADD RETURNDATACOPY PUSH2 0x1F93 JUMP JUMPDEST PUSH1 0x60 SWAP2 POP JUMPDEST POP POP SWAP1 POP PUSH0 PUSH1 0x40 MLOAD DUP1 PUSH1 0x60 ADD PUSH1 0x40 MSTORE DUP1 PUSH1 0x38 DUP2 MSTORE PUSH1 0x20 ADD PUSH2 0x3F86 PUSH1 0x38 SWAP2 CODECOPY SWAP1 POP DUP2 DUP2 DUP4 PUSH1 0x40 MLOAD PUSH1 0x20 ADD PUSH2 0x1FC7 SWAP3 SWAP2 SWAP1 PUSH2 0x36BF JUMP JUMPDEST PUSH1 0x40 MLOAD PUSH1 0x20 DUP2 DUP4 SUB SUB DUP2 MSTORE SWAP1 PUSH1 0x40 MSTORE SWAP1 PUSH2 0x2017 JUMPI PUSH1 0x40 MLOAD PUSH32 0x8C379A000000000000000000000000000000000000000000000000000000000 DUP2 MSTORE PUSH1 0x4 ADD PUSH2 0x200E SWAP2 SWAP1 PUSH2 0x372E JUMP JUMPDEST PUSH1 0x40 MLOAD DUP1 SWAP2 SUB SWAP1 REVERT JUMPDEST POP PUSH0 PUSH1 0x2 PUSH0 SWAP1 SLOAD SWAP1 PUSH2 0x100 EXP SWAP1 DIV PUSH20 0xFFFFFFFFFFFFFFFFFFFFFFFFFFFFFFFFFFFFFFFF AND PUSH20 0xFFFFFFFFFFFFFFFFFFFFFFFFFFFFFFFFFFFFFFFF AND DUP6 PUSH1 0x40 MLOAD PUSH2 0x205E SWAP1 PUSH2 0x3614 JUMP JUMPDEST PUSH0 PUSH1 0x40 MLOAD DUP1 DUP4 SUB DUP2 DUP6 DUP8 GAS CALL SWAP3 POP POP POP RETURNDATASIZE DUP1 PUSH0 DUP2 EQ PUSH2 0x2098 JUMPI PUSH1 0x40 MLOAD SWAP2 POP PUSH1 0x1F NOT PUSH1 0x3F RETURNDATASIZE ADD AND DUP3 ADD PUSH1 0x40 MSTORE RETURNDATASIZE DUP3 MSTORE RETURNDATASIZE PUSH0 PUSH1 0x20 DUP5 ADD RETURNDATACOPY PUSH2 0x209D JUMP JUMPDEST PUSH1 0x60 SWAP2 POP JUMPDEST POP POP SWAP1 POP PUSH0 PUSH1 0x40 MLOAD DUP1 PUSH1 0x60 ADD PUSH1 0x40 MSTORE DUP1 PUSH1 0x3E DUP2 MSTORE PUSH1 0x20 ADD PUSH2 0x3D96 PUSH1 0x3E SWAP2 CODECOPY SWAP1 POP DUP2 DUP2 DUP4 PUSH1 0x40 MLOAD PUSH1 0x20 ADD PUSH2 0x20D1 SWAP3 SWAP2 SWAP1 PUSH2 0x36BF JUMP JUMPDEST PUSH1 0x40 MLOAD PUSH1 0x20 DUP2 DUP4 SUB SUB DUP2 MSTORE SWAP1 PUSH1 0x40 MSTORE SWAP1 PUSH2 0x2121 JUMPI PUSH1 0x40 MLOAD PUSH32 0x8C379A000000000000000000000000000000000000000000000000000000000 DUP2 MSTORE PUSH1 0x4 ADD PUSH2 0x2118 SWAP2 SWAP1 PUSH2 0x372E JUMP JUMPDEST PUSH1 0x40 MLOAD DUP1 SWAP2 SUB SWAP1 REVERT JUMPDEST POP POP POP POP POP JUMPDEST JUMPDEST JUMPDEST PUSH2 0x237E JUMP JUMPDEST PUSH1 0x10 PUSH0 SWAP1 SLOAD SWAP1 PUSH2 0x100 EXP SWAP1 DIV PUSH1 0xFF AND ISZERO DUP1 ISZERO PUSH2 0x214B JUMPI POP PUSH0 PUSH1 0x6 SLOAD EQ JUMPDEST ISZERO PUSH2 0x237D JUMPI PUSH2 0x217A PUSH1 0x64 PUSH2 0x216C PUSH1 0x5 SLOAD PUSH1 0x4 SLOAD PUSH2 0x2EA8 SWAP1 SWAP2 SWAP1 PUSH4 0xFFFFFFFF AND JUMP JUMPDEST PUSH2 0x2EBD SWAP1 SWAP2 SWAP1 PUSH4 0xFFFFFFFF AND JUMP JUMPDEST SWAP2 POP PUSH2 0x2191 DUP3 PUSH1 0x4 SLOAD PUSH2 0x2ED2 SWAP1 SWAP2 SWAP1 PUSH4 0xFFFFFFFF AND JUMP JUMPDEST SWAP1 POP PUSH2 0x21B5 PUSH1 0x40 MLOAD DUP1 PUSH1 0x60 ADD PUSH1 0x40 MSTORE DUP1 PUSH1 0x2A DUP2 MSTORE PUSH1 0x20 ADD PUSH2 0x3E9E PUSH1 0x2A SWAP2 CODECOPY DUP4 PUSH2 0x2E0C JUMP JUMPDEST PUSH2 0x21D7 PUSH1 0x40 MLOAD DUP1 PUSH1 0x60 ADD PUSH1 0x40 MSTORE DUP1 PUSH1 0x28 DUP2 MSTORE PUSH1 0x20 ADD PUSH2 0x3FBE PUSH1 0x28 SWAP2 CODECOPY DUP3 PUSH2 0x2E0C JUMP JUMPDEST PUSH0 PUSH1 0x3 PUSH0 SWAP1 SLOAD SWAP1 PUSH2 0x100 EXP SWAP1 DIV PUSH20 0xFFFFFFFFFFFFFFFFFFFFFFFFFFFFFFFFFFFFFFFF AND PUSH20 0xFFFFFFFFFFFFFFFFFFFFFFFFFFFFFFFFFFFFFFFF AND PUSH2 0x8FC DUP4 SWAP1 DUP2 ISZERO MUL SWAP1 PUSH1 0x40 MLOAD PUSH0 PUSH1 0x40 MLOAD DUP1 DUP4 SUB DUP2 DUP6 DUP9 DUP9 CALL SWAP4 POP POP POP POP SWAP1 POP DUP1 PUSH2 0x226F JUMPI PUSH1 0x40 MLOAD PUSH32 0x8C379A000000000000000000000000000000000000000000000000000000000 DUP2 MSTORE PUSH1 0x4 ADD PUSH2 0x2266 SWAP1 PUSH2 0x3899 JUMP JUMPDEST PUSH1 0x40 MLOAD DUP1 SWAP2 SUB SWAP1 REVERT JUMPDEST PUSH0 PUSH1 0x2 PUSH0 SWAP1 SLOAD SWAP1 PUSH2 0x100 EXP SWAP1 DIV PUSH20 0xFFFFFFFFFFFFFFFFFFFFFFFFFFFFFFFFFFFFFFFF AND PUSH20 0xFFFFFFFFFFFFFFFFFFFFFFFFFFFFFFFFFFFFFFFF AND DUP5 PUSH1 0x40 MLOAD PUSH2 0x22B5 SWAP1 PUSH2 0x3614 JUMP JUMPDEST PUSH0 PUSH1 0x40 MLOAD DUP1 DUP4 SUB DUP2 DUP6 DUP8 GAS CALL SWAP3 POP POP POP RETURNDATASIZE DUP1 PUSH0 DUP2 EQ PUSH2 0x22EF JUMPI PUSH1 0x40 MLOAD SWAP2 POP PUSH1 0x1F NOT PUSH1 0x3F RETURNDATASIZE ADD AND DUP3 ADD PUSH1 0x40 MSTORE RETURNDATASIZE DUP3 MSTORE RETURNDATASIZE PUSH0 PUSH1 0x20 DUP5 ADD RETURNDATACOPY PUSH2 0x22F4 JUMP JUMPDEST PUSH1 0x60 SWAP2 POP JUMPDEST POP POP SWAP1 POP PUSH0 PUSH1 0x40 MLOAD DUP1 PUSH1 0x60 ADD PUSH1 0x40 MSTORE DUP1 PUSH1 0x3E DUP2 MSTORE PUSH1 0x20 ADD PUSH2 0x3E60 PUSH1 0x3E SWAP2 CODECOPY SWAP1 POP DUP2 DUP2 DUP4 PUSH1 0x40 MLOAD PUSH1 0x20 ADD PUSH2 0x2328 SWAP3 SWAP2 SWAP1 PUSH2 0x36BF JUMP JUMPDEST PUSH1 0x40 MLOAD PUSH1 0x20 DUP2 DUP4 SUB SUB DUP2 MSTORE SWAP1 PUSH1 0x40 MSTORE SWAP1 PUSH2 0x2378 JUMPI PUSH1 0x40 MLOAD PUSH32 0x8C379A000000000000000000000000000000000000000000000000000000000 DUP2 MSTORE PUSH1 0x4 ADD PUSH2 0x236F SWAP2 SWAP1 PUSH2 0x372E JUMP JUMPDEST PUSH1 0x40 MLOAD DUP1 SWAP2 SUB SWAP1 REVERT JUMPDEST POP POP POP POP JUMPDEST JUMPDEST PUSH0 PUSH1 0x4 DUP2 SWAP1 SSTORE POP PUSH0 PUSH1 0xC DUP2 SWAP1 SSTORE POP PUSH0 PUSH1 0x9 PUSH0 PUSH2 0x100 EXP DUP2 SLOAD DUP2 PUSH1 0xFF MUL NOT AND SWAP1 DUP4 ISZERO ISZERO MUL OR SWAP1 SSTORE POP PUSH1 0x1 PUSH1 0x9 PUSH1 0x1 PUSH2 0x100 EXP DUP2 SLOAD DUP2 PUSH1 0xFF MUL NOT AND SWAP1 DUP4 ISZERO ISZERO MUL OR SWAP1 SSTORE POP POP POP PUSH2 0x23CA PUSH2 0x2EE7 JUMP JUMPDEST JUMP JUMPDEST PUSH1 0x8 SLOAD DUP2 JUMP JUMPDEST PUSH0 DUP1 PUSH0 DUP5 DUP2 MSTORE PUSH1 0x20 ADD SWAP1 DUP2 MSTORE PUSH1 0x20 ADD PUSH0 KECCAK256 PUSH0 ADD PUSH0 DUP4 PUSH20 0xFFFFFFFFFFFFFFFFFFFFFFFFFFFFFFFFFFFFFFFF AND PUSH20 0xFFFFFFFFFFFFFFFFFFFFFFFFFFFFFFFFFFFFFFFF AND DUP2 MSTORE PUSH1 0x20 ADD SWAP1 DUP2 MSTORE PUSH1 0x20 ADD PUSH0 KECCAK256 PUSH0 SWAP1 SLOAD SWAP1 PUSH2 0x100 EXP SWAP1 DIV PUSH1 0xFF AND SWAP1 POP SWAP3 SWAP2 POP POP JUMP JUMPDEST PUSH1 0xF PUSH1 0x20 MSTORE DUP1 PUSH0 MSTORE PUSH1 0x40 PUSH0 KECCAK256 PUSH0 SWAP2 POP SLOAD SWAP1 PUSH2 0x100 EXP SWAP1 DIV PUSH1 0xFF AND DUP2 JUMP JUMPDEST PUSH0 DUP1 SHL DUP2 JUMP JUMPDEST PUSH1 0x7 SLOAD DUP2 JUMP JUMPDEST PUSH32 0xA49807205CE4D355092EF5A8A18F56E8913CF4A201FBE287825B095693C21775 PUSH2 0x2488 DUP2 PUSH2 0x2A9B JUMP JUMPDEST DUP2 PUSH1 0x6 DUP2 SWAP1 SSTORE POP PUSH32 0xE65E8475AE8EBA2B732012A0734794875A0FDBDCCFED8398FFF4DA0C8E0FA00E DUP3 PUSH1 0x40 MLOAD PUSH2 0x24BE SWAP2 SWAP1 PUSH2 0x3260 JUMP JUMPDEST PUSH1 0x40 MLOAD DUP1 SWAP2 SUB SWAP1 LOG1 POP POP JUMP JUMPDEST PUSH1 0x4 SLOAD DUP2 JUMP JUMPDEST PUSH32 0xA49807205CE4D355092EF5A8A18F56E8913CF4A201FBE287825B095693C21775 PUSH2 0x24FA DUP2 PUSH2 0x2A9B JUMP JUMPDEST DUP2 PUSH1 0x6 DUP2 SWAP1 SSTORE POP POP POP JUMP JUMPDEST PUSH2 0x250E DUP3 PUSH2 0xB36 JUMP JUMPDEST PUSH2 0x2517 DUP2 PUSH2 0x2A9B JUMP JUMPDEST PUSH2 0x2521 DUP4 DUP4 PUSH2 0x2C3B JUMP JUMPDEST POP POP POP POP JUMP JUMPDEST PUSH2 0x252F PUSH2 0x2D24 JUMP JUMPDEST PUSH1 0x9 PUSH0 SWAP1 SLOAD SWAP1 PUSH2 0x100 EXP SWAP1 DIV PUSH1 0xFF AND DUP1 ISZERO PUSH2 0x2557 JUMPI POP PUSH1 0x9 PUSH1 0x1 SWAP1 SLOAD SWAP1 PUSH2 0x100 EXP SWAP1 DIV PUSH1 0xFF AND ISZERO JUMPDEST PUSH2 0x2596 JUMPI PUSH1 0x40 MLOAD PUSH32 0x8C379A000000000000000000000000000000000000000000000000000000000 DUP2 MSTORE PUSH1 0x4 ADD PUSH2 0x258D SWAP1 PUSH2 0x3901 JUMP JUMPDEST PUSH1 0x40 MLOAD DUP1 SWAP2 SUB SWAP1 REVERT JUMPDEST PUSH1 0x7 SLOAD CALLVALUE LT ISZERO DUP1 ISZERO PUSH2 0x25A8 JUMPI POP PUSH0 CALLVALUE EQ ISZERO JUMPDEST DUP1 ISZERO PUSH2 0x25B6 JUMPI POP PUSH1 0x8 SLOAD CALLVALUE GT ISZERO JUMPDEST PUSH2 0x25F5 JUMPI PUSH1 0x40 MLOAD PUSH32 0x8C379A000000000000000000000000000000000000000000000000000000000 DUP2 MSTORE PUSH1 0x4 ADD PUSH2 0x25EC SWAP1 PUSH2 0x398F JUMP JUMPDEST PUSH1 0x40 MLOAD DUP1 SWAP2 SUB SWAP1 REVERT JUMPDEST PUSH1 0x10 PUSH0 SWAP1 SLOAD SWAP1 PUSH2 0x100 EXP SWAP1 DIV PUSH1 0xFF AND ISZERO PUSH2 0x27CF JUMPI PUSH1 0x1 ISZERO ISZERO PUSH1 0xF PUSH0 CALLER PUSH20 0xFFFFFFFFFFFFFFFFFFFFFFFFFFFFFFFFFFFFFFFF AND PUSH20 0xFFFFFFFFFFFFFFFFFFFFFFFFFFFFFFFFFFFFFFFF AND DUP2 MSTORE PUSH1 0x20 ADD SWAP1 DUP2 MSTORE PUSH1 0x20 ADD PUSH0 KECCAK256 PUSH0 SWAP1 SLOAD SWAP1 PUSH2 0x100 EXP SWAP1 DIV PUSH1 0xFF AND ISZERO ISZERO EQ PUSH2 0x2699 JUMPI PUSH1 0x40 MLOAD PUSH32 0x8C379A000000000000000000000000000000000000000000000000000000000 DUP2 MSTORE PUSH1 0x4 ADD PUSH2 0x2690 SWAP1 PUSH2 0x39F7 JUMP JUMPDEST PUSH1 0x40 MLOAD DUP1 SWAP2 SUB SWAP1 REVERT JUMPDEST PUSH2 0x26E9 CALLVALUE PUSH1 0xE PUSH0 CALLER PUSH20 0xFFFFFFFFFFFFFFFFFFFFFFFFFFFFFFFFFFFFFFFF AND PUSH20 0xFFFFFFFFFFFFFFFFFFFFFFFFFFFFFFFFFFFFFFFF AND DUP2 MSTORE PUSH1 0x20 ADD SWAP1 DUP2 MSTORE PUSH1 0x20 ADD PUSH0 KECCAK256 SLOAD PUSH2 0x2EF0 SWAP1 SWAP2 SWAP1 PUSH4 0xFFFFFFFF AND JUMP JUMPDEST PUSH1 0xE PUSH0 CALLER PUSH20 0xFFFFFFFFFFFFFFFFFFFFFFFFFFFFFFFFFFFFFFFF AND PUSH20 0xFFFFFFFFFFFFFFFFFFFFFFFFFFFFFFFFFFFFFFFF AND DUP2 MSTORE PUSH1 0x20 ADD SWAP1 DUP2 MSTORE PUSH1 0x20 ADD PUSH0 KECCAK256 DUP2 SWAP1 SSTORE POP PUSH2 0x273F CALLVALUE PUSH1 0x4 SLOAD PUSH2 0x2EF0 SWAP1 SWAP2 SWAP1 PUSH4 0xFFFFFFFF AND JUMP JUMPDEST PUSH1 0x4 DUP2 SWAP1 SSTORE POP PUSH1 0xC PUSH0 DUP2 SLOAD DUP1 SWAP3 SWAP2 SWAP1 PUSH2 0x2757 SWAP1 PUSH2 0x3A42 JUMP JUMPDEST SWAP2 SWAP1 POP SSTORE POP PUSH2 0x2765 CALLER PUSH2 0x2F05 JUMP JUMPDEST PUSH2 0x27CA JUMPI PUSH1 0xD CALLER SWAP1 DUP1 PUSH1 0x1 DUP2 SLOAD ADD DUP1 DUP3 SSTORE DUP1 SWAP2 POP POP PUSH1 0x1 SWAP1 SUB SWAP1 PUSH0 MSTORE PUSH1 0x20 PUSH0 KECCAK256 ADD PUSH0 SWAP1 SWAP2 SWAP1 SWAP2 SWAP1 SWAP2 PUSH2 0x100 EXP DUP2 SLOAD DUP2 PUSH20 0xFFFFFFFFFFFFFFFFFFFFFFFFFFFFFFFFFFFFFFFF MUL NOT AND SWAP1 DUP4 PUSH20 0xFFFFFFFFFFFFFFFFFFFFFFFFFFFFFFFFFFFFFFFF AND MUL OR SWAP1 SSTORE POP JUMPDEST PUSH2 0x2915 JUMP JUMPDEST PUSH1 0x10 PUSH0 SWAP1 SLOAD SWAP1 PUSH2 0x100 EXP SWAP1 DIV PUSH1 0xFF AND PUSH2 0x2914 JUMPI PUSH2 0x2832 CALLVALUE PUSH1 0xE PUSH0 CALLER PUSH20 0xFFFFFFFFFFFFFFFFFFFFFFFFFFFFFFFFFFFFFFFF AND PUSH20 0xFFFFFFFFFFFFFFFFFFFFFFFFFFFFFFFFFFFFFFFF AND DUP2 MSTORE PUSH1 0x20 ADD SWAP1 DUP2 MSTORE PUSH1 0x20 ADD PUSH0 KECCAK256 SLOAD PUSH2 0x2EF0 SWAP1 SWAP2 SWAP1 PUSH4 0xFFFFFFFF AND JUMP JUMPDEST PUSH1 0xE PUSH0 CALLER PUSH20 0xFFFFFFFFFFFFFFFFFFFFFFFFFFFFFFFFFFFFFFFF AND PUSH20 0xFFFFFFFFFFFFFFFFFFFFFFFFFFFFFFFFFFFFFFFF AND DUP2 MSTORE PUSH1 0x20 ADD SWAP1 DUP2 MSTORE PUSH1 0x20 ADD PUSH0 KECCAK256 DUP2 SWAP1 SSTORE POP PUSH2 0x2888 CALLVALUE PUSH1 0x4 SLOAD PUSH2 0x2EF0 SWAP1 SWAP2 SWAP1 PUSH4 0xFFFFFFFF AND JUMP JUMPDEST PUSH1 0x4 DUP2 SWAP1 SSTORE POP PUSH1 0xC PUSH0 DUP2 SLOAD DUP1 SWAP3 SWAP2 SWAP1 PUSH2 0x28A0 SWAP1 PUSH2 0x3A42 JUMP JUMPDEST SWAP2 SWAP1 POP SSTORE POP PUSH2 0x28AE CALLER PUSH2 0x2F05 JUMP JUMPDEST PUSH2 0x2913 JUMPI PUSH1 0xD CALLER SWAP1 DUP1 PUSH1 0x1 DUP2 SLOAD ADD DUP1 DUP3 SSTORE DUP1 SWAP2 POP POP PUSH1 0x1 SWAP1 SUB SWAP1 PUSH0 MSTORE PUSH1 0x20 PUSH0 KECCAK256 ADD PUSH0 SWAP1 SWAP2 SWAP1 SWAP2 SWAP1 SWAP2 PUSH2 0x100 EXP DUP2 SLOAD DUP2 PUSH20 0xFFFFFFFFFFFFFFFFFFFFFFFFFFFFFFFFFFFFFFFF MUL NOT AND SWAP1 DUP4 PUSH20 0xFFFFFFFFFFFFFFFFFFFFFFFFFFFFFFFFFFFFFFFF AND MUL OR SWAP1 SSTORE POP JUMPDEST JUMPDEST JUMPDEST CALLER PUSH20 0xFFFFFFFFFFFFFFFFFFFFFFFFFFFFFFFFFFFFFFFF AND PUSH32 0x1D5D67670FD52E22078BBAB523A5EAD8206C7991225DD63095E3D3D6B5BE3BAF CALLVALUE TIMESTAMP PUSH1 0x40 MLOAD PUSH2 0x295D SWAP3 SWAP2 SWAP1 PUSH2 0x3A89 JUMP JUMPDEST PUSH1 0x40 MLOAD DUP1 SWAP2 SUB SWAP1 LOG2 PUSH2 0x296D PUSH2 0x2EE7 JUMP JUMPDEST JUMP JUMPDEST PUSH32 0xA49807205CE4D355092EF5A8A18F56E8913CF4A201FBE287825B095693C21775 PUSH2 0x2999 DUP2 PUSH2 0x2A9B JUMP JUMPDEST PUSH1 0x1 PUSH1 0xF PUSH0 DUP5 PUSH20 0xFFFFFFFFFFFFFFFFFFFFFFFFFFFFFFFFFFFFFFFF AND PUSH20 0xFFFFFFFFFFFFFFFFFFFFFFFFFFFFFFFFFFFFFFFF AND DUP2 MSTORE PUSH1 0x20 ADD SWAP1 DUP2 MSTORE PUSH1 0x20 ADD PUSH0 KECCAK256 PUSH0 PUSH2 0x100 EXP DUP2 SLOAD DUP2 PUSH1 0xFF MUL NOT AND SWAP1 DUP4 ISZERO ISZERO MUL OR SWAP1 SSTORE POP PUSH32 0xF93F9A76C1BF3444D22400A00CB9FE990E6ABE9DBB333FDA48859CFEE864543D DUP3 PUSH1 0x1 PUSH1 0x40 MLOAD PUSH2 0x2A20 SWAP3 SWAP2 SWAP1 PUSH2 0x34CA JUMP JUMPDEST PUSH1 0x40 MLOAD DUP1 SWAP2 SUB SWAP1 LOG1 POP POP JUMP JUMPDEST PUSH1 0x6 SLOAD DUP2 JUMP JUMPDEST PUSH0 PUSH32 0x1FFC9A700000000000000000000000000000000000000000000000000000000 PUSH28 0xFFFFFFFFFFFFFFFFFFFFFFFFFFFFFFFFFFFFFFFFFFFFFFFFFFFFFFFF NOT AND DUP3 PUSH28 0xFFFFFFFFFFFFFFFFFFFFFFFFFFFFFFFFFFFFFFFFFFFFFFFFFFFFFFFF NOT AND EQ SWAP1 POP SWAP2 SWAP1 POP JUMP JUMPDEST PUSH2 0x2AAC DUP2 PUSH2 0x2AA7 PUSH2 0x2C34 JUMP JUMPDEST PUSH2 0x2FA7 JUMP JUMPDEST POP JUMP JUMPDEST PUSH2 0x2B47 DUP3 DUP3 PUSH1 0x40 MLOAD PUSH1 0x24 ADD PUSH2 0x2AC5 SWAP3 SWAP2 SWAP1 PUSH2 0x3AB0 JUMP JUMPDEST PUSH1 0x40 MLOAD PUSH1 0x20 DUP2 DUP4 SUB SUB DUP2 MSTORE SWAP1 PUSH1 0x40 MSTORE PUSH32 0x319AF33300000000000000000000000000000000000000000000000000000000 PUSH28 0xFFFFFFFFFFFFFFFFFFFFFFFFFFFFFFFFFFFFFFFFFFFFFFFFFFFFFFFF NOT AND PUSH1 0x20 DUP3 ADD DUP1 MLOAD PUSH28 0xFFFFFFFFFFFFFFFFFFFFFFFFFFFFFFFFFFFFFFFFFFFFFFFFFFFFFFFF DUP4 DUP2 DUP4 AND OR DUP4 MSTORE POP POP POP POP PUSH2 0x2FF8 JUMP JUMPDEST POP POP JUMP JUMPDEST PUSH0 PUSH2 0x2B56 DUP4 DUP4 PUSH2 0x23D2 JUMP JUMPDEST PUSH2 0x2C2A JUMPI PUSH1 0x1 PUSH0 DUP1 DUP6 DUP2 MSTORE PUSH1 0x20 ADD SWAP1 DUP2 MSTORE PUSH1 0x20 ADD PUSH0 KECCAK256 PUSH0 ADD PUSH0 DUP5 PUSH20 0xFFFFFFFFFFFFFFFFFFFFFFFFFFFFFFFFFFFFFFFF AND PUSH20 0xFFFFFFFFFFFFFFFFFFFFFFFFFFFFFFFFFFFFFFFF AND DUP2 MSTORE PUSH1 0x20 ADD SWAP1 DUP2 MSTORE PUSH1 0x20 ADD PUSH0 KECCAK256 PUSH0 PUSH2 0x100 EXP DUP2 SLOAD DUP2 PUSH1 0xFF MUL NOT AND SWAP1 DUP4 ISZERO ISZERO MUL OR SWAP1 SSTORE POP PUSH2 0x2BC7 PUSH2 0x2C34 JUMP JUMPDEST PUSH20 0xFFFFFFFFFFFFFFFFFFFFFFFFFFFFFFFFFFFFFFFF AND DUP3 PUSH20 0xFFFFFFFFFFFFFFFFFFFFFFFFFFFFFFFFFFFFFFFF AND DUP5 PUSH32 0x2F8788117E7EFF1D82E926EC794901D17C78024A50270940304540A733656F0D PUSH1 0x40 MLOAD PUSH1 0x40 MLOAD DUP1 SWAP2 SUB SWAP1 LOG4 PUSH1 0x1 SWAP1 POP PUSH2 0x2C2E JUMP JUMPDEST PUSH0 SWAP1 POP JUMPDEST SWAP3 SWAP2 POP POP JUMP JUMPDEST PUSH0 CALLER SWAP1 POP SWAP1 JUMP JUMPDEST PUSH0 PUSH2 0x2C46 DUP4 DUP4 PUSH2 0x23D2 JUMP JUMPDEST ISZERO PUSH2 0x2D1A JUMPI PUSH0 DUP1 PUSH0 DUP6 DUP2 MSTORE PUSH1 0x20 ADD SWAP1 DUP2 MSTORE PUSH1 0x20 ADD PUSH0 KECCAK256 PUSH0 ADD PUSH0 DUP5 PUSH20 0xFFFFFFFFFFFFFFFFFFFFFFFFFFFFFFFFFFFFFFFF AND PUSH20 0xFFFFFFFFFFFFFFFFFFFFFFFFFFFFFFFFFFFFFFFF AND DUP2 MSTORE PUSH1 0x20 ADD SWAP1 DUP2 MSTORE PUSH1 0x20 ADD PUSH0 KECCAK256 PUSH0 PUSH2 0x100 EXP DUP2 SLOAD DUP2 PUSH1 0xFF MUL NOT AND SWAP1 DUP4 ISZERO ISZERO MUL OR SWAP1 SSTORE POP PUSH2 0x2CB7 PUSH2 0x2C34 JUMP JUMPDEST PUSH20 0xFFFFFFFFFFFFFFFFFFFFFFFFFFFFFFFFFFFFFFFF AND DUP3 PUSH20 0xFFFFFFFFFFFFFFFFFFFFFFFFFFFFFFFFFFFFFFFF AND DUP5 PUSH32 0xF6391F5C32D9C69D2A47EA670B442974B53935D1EDC7FD64EB21E047A839171B PUSH1 0x40 MLOAD PUSH1 0x40 MLOAD DUP1 SWAP2 SUB SWAP1 LOG4 PUSH1 0x1 SWAP1 POP PUSH2 0x2D1E JUMP JUMPDEST PUSH0 SWAP1 POP JUMPDEST SWAP3 SWAP2 POP POP JUMP JUMPDEST PUSH1 0x2 PUSH1 0x1 SLOAD SUB PUSH2 0x2D69 JUMPI PUSH1 0x40 MLOAD PUSH32 0x8C379A000000000000000000000000000000000000000000000000000000000 DUP2 MSTORE PUSH1 0x4 ADD PUSH2 0x2D60 SWAP1 PUSH2 0x3B28 JUMP JUMPDEST PUSH1 0x40 MLOAD DUP1 SWAP2 SUB SWAP1 REVERT JUMPDEST PUSH1 0x2 PUSH1 0x1 DUP2 SWAP1 SSTORE POP JUMP JUMPDEST PUSH2 0x2E09 DUP2 PUSH1 0x40 MLOAD PUSH1 0x24 ADD PUSH2 0x2D87 SWAP2 SWAP1 PUSH2 0x372E JUMP JUMPDEST PUSH1 0x40 MLOAD PUSH1 0x20 DUP2 DUP4 SUB SUB DUP2 MSTORE SWAP1 PUSH1 0x40 MSTORE PUSH32 0x41304FAC00000000000000000000000000000000000000000000000000000000 PUSH28 0xFFFFFFFFFFFFFFFFFFFFFFFFFFFFFFFFFFFFFFFFFFFFFFFFFFFFFFFF NOT AND PUSH1 0x20 DUP3 ADD DUP1 MLOAD PUSH28 0xFFFFFFFFFFFFFFFFFFFFFFFFFFFFFFFFFFFFFFFFFFFFFFFFFFFFFFFF DUP4 DUP2 DUP4 AND OR DUP4 MSTORE POP POP POP POP PUSH2 0x2FF8 JUMP JUMPDEST POP JUMP JUMPDEST PUSH2 0x2EA4 DUP3 DUP3 PUSH1 0x40 MLOAD PUSH1 0x24 ADD PUSH2 0x2E22 SWAP3 SWAP2 SWAP1 PUSH2 0x3B46 JUMP JUMPDEST PUSH1 0x40 MLOAD PUSH1 0x20 DUP2 DUP4 SUB SUB DUP2 MSTORE SWAP1 PUSH1 0x40 MSTORE PUSH32 0xB60E72CC00000000000000000000000000000000000000000000000000000000 PUSH28 0xFFFFFFFFFFFFFFFFFFFFFFFFFFFFFFFFFFFFFFFFFFFFFFFFFFFFFFFF NOT AND PUSH1 0x20 DUP3 ADD DUP1 MLOAD PUSH28 0xFFFFFFFFFFFFFFFFFFFFFFFFFFFFFFFFFFFFFFFFFFFFFFFFFFFFFFFF DUP4 DUP2 DUP4 AND OR DUP4 MSTORE POP POP POP POP PUSH2 0x2FF8 JUMP JUMPDEST POP POP JUMP JUMPDEST PUSH0 DUP2 DUP4 PUSH2 0x2EB5 SWAP2 SWAP1 PUSH2 0x3B74 JUMP JUMPDEST SWAP1 POP SWAP3 SWAP2 POP POP JUMP JUMPDEST PUSH0 DUP2 DUP4 PUSH2 0x2ECA SWAP2 SWAP1 PUSH2 0x3BE2 JUMP JUMPDEST SWAP1 POP SWAP3 SWAP2 POP POP JUMP JUMPDEST PUSH0 DUP2 DUP4 PUSH2 0x2EDF SWAP2 SWAP1 PUSH2 0x3C12 JUMP JUMPDEST SWAP1 POP SWAP3 SWAP2 POP POP JUMP JUMPDEST PUSH1 0x1 DUP1 DUP2 SWAP1 SSTORE POP JUMP JUMPDEST PUSH0 DUP2 DUP4 PUSH2 0x2EFD SWAP2 SWAP1 PUSH2 0x3C45 JUMP JUMPDEST SWAP1 POP SWAP3 SWAP2 POP POP JUMP JUMPDEST PUSH0 DUP1 PUSH0 SWAP1 POP JUMPDEST PUSH1 0xD DUP1 SLOAD SWAP1 POP DUP2 LT ISZERO PUSH2 0x2F9D JUMPI DUP3 PUSH20 0xFFFFFFFFFFFFFFFFFFFFFFFFFFFFFFFFFFFFFFFF AND PUSH1 0xD DUP3 DUP2 SLOAD DUP2 LT PUSH2 0x2F43 JUMPI PUSH2 0x2F42 PUSH2 0x374E JUMP JUMPDEST JUMPDEST SWAP1 PUSH0 MSTORE PUSH1 0x20 PUSH0 KECCAK256 ADD PUSH0 SWAP1 SLOAD SWAP1 PUSH2 0x100 EXP SWAP1 DIV PUSH20 0xFFFFFFFFFFFFFFFFFFFFFFFFFFFFFFFFFFFFFFFF AND PUSH20 0xFFFFFFFFFFFFFFFFFFFFFFFFFFFFFFFFFFFFFFFF AND SUB PUSH2 0x2F90 JUMPI PUSH1 0x1 SWAP2 POP POP PUSH2 0x2FA2 JUMP JUMPDEST DUP1 DUP1 PUSH1 0x1 ADD SWAP2 POP POP PUSH2 0x2F0B JUMP JUMPDEST POP PUSH0 SWAP1 POP JUMPDEST SWAP2 SWAP1 POP JUMP JUMPDEST PUSH2 0x2FB1 DUP3 DUP3 PUSH2 0x23D2 JUMP JUMPDEST PUSH2 0x2FF4 JUMPI DUP1 DUP3 PUSH1 0x40 MLOAD PUSH32 0xE2517D3F00000000000000000000000000000000000000000000000000000000 DUP2 MSTORE PUSH1 0x4 ADD PUSH2 0x2FEB SWAP3 SWAP2 SWAP1 PUSH2 0x3C78 JUMP JUMPDEST PUSH1 0x40 MLOAD DUP1 SWAP2 SUB SWAP1 REVERT JUMPDEST POP POP JUMP JUMPDEST PUSH2 0x300F DUP2 PUSH2 0x3007 PUSH2 0x3012 PUSH2 0x3031 JUMP JUMPDEST PUSH4 0xFFFFFFFF AND JUMP JUMPDEST POP JUMP JUMPDEST PUSH0 PUSH11 0x636F6E736F6C652E6C6F67 SWAP1 POP PUSH0 DUP1 DUP4 MLOAD PUSH1 0x20 DUP6 ADD DUP5 GAS STATICCALL POP POP POP JUMP JUMPDEST PUSH2 0x303C DUP2 SWAP1 POP SWAP2 SWAP1 POP JUMP JUMPDEST PUSH2 0x3044 PUSH2 0x3C9F JUMP JUMPDEST JUMP JUMPDEST PUSH0 DUP3 DUP3 MSTORE PUSH1 0x20 DUP3 ADD SWAP1 POP SWAP3 SWAP2 POP POP JUMP JUMPDEST PUSH32 0x436F6E747261637420646F6573206E6F74206163636570742064697265637420 PUSH0 DUP3 ADD MSTORE PUSH32 0x7061796D656E7473000000000000000000000000000000000000000000000000 PUSH1 0x20 DUP3 ADD MSTORE POP JUMP JUMPDEST PUSH0 PUSH2 0x30B0 PUSH1 0x28 DUP4 PUSH2 0x3046 JUMP JUMPDEST SWAP2 POP PUSH2 0x30BB DUP3 PUSH2 0x3056 JUMP JUMPDEST PUSH1 0x40 DUP3 ADD SWAP1 POP SWAP2 SWAP1 POP JUMP JUMPDEST PUSH0 PUSH1 0x20 DUP3 ADD SWAP1 POP DUP2 DUP2 SUB PUSH0 DUP4 ADD MSTORE PUSH2 0x30DD DUP2 PUSH2 0x30A4 JUMP JUMPDEST SWAP1 POP SWAP2 SWAP1 POP JUMP JUMPDEST PUSH0 DUP1 REVERT JUMPDEST PUSH0 PUSH32 0xFFFFFFFF00000000000000000000000000000000000000000000000000000000 DUP3 AND SWAP1 POP SWAP2 SWAP1 POP JUMP JUMPDEST PUSH2 0x311C DUP2 PUSH2 0x30E8 JUMP JUMPDEST DUP2 EQ PUSH2 0x3126 JUMPI PUSH0 DUP1 REVERT JUMPDEST POP JUMP JUMPDEST PUSH0 DUP2 CALLDATALOAD SWAP1 POP PUSH2 0x3137 DUP2 PUSH2 0x3113 JUMP JUMPDEST SWAP3 SWAP2 POP POP JUMP JUMPDEST PUSH0 PUSH1 0x20 DUP3 DUP5 SUB SLT ISZERO PUSH2 0x3152 JUMPI PUSH2 0x3151 PUSH2 0x30E4 JUMP JUMPDEST JUMPDEST PUSH0 PUSH2 0x315F DUP5 DUP3 DUP6 ADD PUSH2 0x3129 JUMP JUMPDEST SWAP2 POP POP SWAP3 SWAP2 POP POP JUMP JUMPDEST PUSH0 DUP2 ISZERO ISZERO SWAP1 POP SWAP2 SWAP1 POP JUMP JUMPDEST PUSH2 0x317C DUP2 PUSH2 0x3168 JUMP JUMPDEST DUP3 MSTORE POP POP JUMP JUMPDEST PUSH0 PUSH1 0x20 DUP3 ADD SWAP1 POP PUSH2 0x3195 PUSH0 DUP4 ADD DUP5 PUSH2 0x3173 JUMP JUMPDEST SWAP3 SWAP2 POP POP JUMP JUMPDEST PUSH0 DUP2 SWAP1 POP SWAP2 SWAP1 POP JUMP JUMPDEST PUSH2 0x31AD DUP2 PUSH2 0x319B JUMP JUMPDEST DUP2 EQ PUSH2 0x31B7 JUMPI PUSH0 DUP1 REVERT JUMPDEST POP JUMP JUMPDEST PUSH0 DUP2 CALLDATALOAD SWAP1 POP PUSH2 0x31C8 DUP2 PUSH2 0x31A4 JUMP JUMPDEST SWAP3 SWAP2 POP POP JUMP JUMPDEST PUSH0 PUSH1 0x20 DUP3 DUP5 SUB SLT ISZERO PUSH2 0x31E3 JUMPI PUSH2 0x31E2 PUSH2 0x30E4 JUMP JUMPDEST JUMPDEST PUSH0 PUSH2 0x31F0 DUP5 DUP3 DUP6 ADD PUSH2 0x31BA JUMP JUMPDEST SWAP2 POP POP SWAP3 SWAP2 POP POP JUMP JUMPDEST PUSH0 PUSH20 0xFFFFFFFFFFFFFFFFFFFFFFFFFFFFFFFFFFFFFFFF DUP3 AND SWAP1 POP SWAP2 SWAP1 POP JUMP JUMPDEST PUSH0 PUSH2 0x3222 DUP3 PUSH2 0x31F9 JUMP JUMPDEST SWAP1 POP SWAP2 SWAP1 POP JUMP JUMPDEST PUSH2 0x3232 DUP2 PUSH2 0x3218 JUMP JUMPDEST DUP3 MSTORE POP POP JUMP JUMPDEST PUSH0 PUSH1 0x20 DUP3 ADD SWAP1 POP PUSH2 0x324B PUSH0 DUP4 ADD DUP5 PUSH2 0x3229 JUMP JUMPDEST SWAP3 SWAP2 POP POP JUMP JUMPDEST PUSH2 0x325A DUP2 PUSH2 0x319B JUMP JUMPDEST DUP3 MSTORE POP POP JUMP JUMPDEST PUSH0 PUSH1 0x20 DUP3 ADD SWAP1 POP PUSH2 0x3273 PUSH0 DUP4 ADD DUP5 PUSH2 0x3251 JUMP JUMPDEST SWAP3 SWAP2 POP POP JUMP JUMPDEST PUSH0 DUP2 SWAP1 POP SWAP2 SWAP1 POP JUMP JUMPDEST PUSH2 0x328B DUP2 PUSH2 0x3279 JUMP JUMPDEST DUP2 EQ PUSH2 0x3295 JUMPI PUSH0 DUP1 REVERT JUMPDEST POP JUMP JUMPDEST PUSH0 DUP2 CALLDATALOAD SWAP1 POP PUSH2 0x32A6 DUP2 PUSH2 0x3282 JUMP JUMPDEST SWAP3 SWAP2 POP POP JUMP JUMPDEST PUSH0 PUSH1 0x20 DUP3 DUP5 SUB SLT ISZERO PUSH2 0x32C1 JUMPI PUSH2 0x32C0 PUSH2 0x30E4 JUMP JUMPDEST JUMPDEST PUSH0 PUSH2 0x32CE DUP5 DUP3 DUP6 ADD PUSH2 0x3298 JUMP JUMPDEST SWAP2 POP POP SWAP3 SWAP2 POP POP JUMP JUMPDEST PUSH2 0x32E0 DUP2 PUSH2 0x3279 JUMP JUMPDEST DUP3 MSTORE POP POP JUMP JUMPDEST PUSH0 PUSH1 0x20 DUP3 ADD SWAP1 POP PUSH2 0x32F9 PUSH0 DUP4 ADD DUP5 PUSH2 0x32D7 JUMP JUMPDEST SWAP3 SWAP2 POP POP JUMP JUMPDEST PUSH2 0x3308 DUP2 PUSH2 0x3218 JUMP JUMPDEST DUP2 EQ PUSH2 0x3312 JUMPI PUSH0 DUP1 REVERT JUMPDEST POP JUMP JUMPDEST PUSH0 DUP2 CALLDATALOAD SWAP1 POP PUSH2 0x3323 DUP2 PUSH2 0x32FF JUMP JUMPDEST SWAP3 SWAP2 POP POP JUMP JUMPDEST PUSH0 DUP1 PUSH1 0x40 DUP4 DUP6 SUB SLT ISZERO PUSH2 0x333F JUMPI PUSH2 0x333E PUSH2 0x30E4 JUMP JUMPDEST JUMPDEST PUSH0 PUSH2 0x334C DUP6 DUP3 DUP7 ADD PUSH2 0x3298 JUMP JUMPDEST SWAP3 POP POP PUSH1 0x20 PUSH2 0x335D DUP6 DUP3 DUP7 ADD PUSH2 0x3315 JUMP JUMPDEST SWAP2 POP POP SWAP3 POP SWAP3 SWAP1 POP JUMP JUMPDEST PUSH0 PUSH1 0x20 DUP3 DUP5 SUB SLT ISZERO PUSH2 0x337C JUMPI PUSH2 0x337B PUSH2 0x30E4 JUMP JUMPDEST JUMPDEST PUSH0 PUSH2 0x3389 DUP5 DUP3 DUP6 ADD PUSH2 0x3315 JUMP JUMPDEST SWAP2 POP POP SWAP3 SWAP2 POP POP JUMP JUMPDEST PUSH32 0x4D757374206861766520646566696E656420526F6C6573000000000000000000 PUSH0 DUP3 ADD MSTORE POP JUMP JUMPDEST PUSH0 PUSH2 0x33C6 PUSH1 0x17 DUP4 PUSH2 0x3046 JUMP JUMPDEST SWAP2 POP PUSH2 0x33D1 DUP3 PUSH2 0x3392 JUMP JUMPDEST PUSH1 0x20 DUP3 ADD SWAP1 POP SWAP2 SWAP1 POP JUMP JUMPDEST PUSH0 PUSH1 0x20 DUP3 ADD SWAP1 POP DUP2 DUP2 SUB PUSH0 DUP4 ADD MSTORE PUSH2 0x33F3 DUP2 PUSH2 0x33BA JUMP JUMPDEST SWAP1 POP SWAP2 SWAP1 POP JUMP JUMPDEST PUSH32 0x526169736520616C726561647920656E64656400000000000000000000000000 PUSH0 DUP3 ADD MSTORE POP JUMP JUMPDEST PUSH0 PUSH2 0x342E PUSH1 0x13 DUP4 PUSH2 0x3046 JUMP JUMPDEST SWAP2 POP PUSH2 0x3439 DUP3 PUSH2 0x33FA JUMP JUMPDEST PUSH1 0x20 DUP3 ADD SWAP1 POP SWAP2 SWAP1 POP JUMP JUMPDEST PUSH0 PUSH1 0x20 DUP3 ADD SWAP1 POP DUP2 DUP2 SUB PUSH0 DUP4 ADD MSTORE PUSH2 0x345B DUP2 PUSH2 0x3422 JUMP JUMPDEST SWAP1 POP SWAP2 SWAP1 POP JUMP JUMPDEST PUSH32 0x5261697365206E6F742073746172746564207965740000000000000000000000 PUSH0 DUP3 ADD MSTORE POP JUMP JUMPDEST PUSH0 PUSH2 0x3496 PUSH1 0x15 DUP4 PUSH2 0x3046 JUMP JUMPDEST SWAP2 POP PUSH2 0x34A1 DUP3 PUSH2 0x3462 JUMP JUMPDEST PUSH1 0x20 DUP3 ADD SWAP1 POP SWAP2 SWAP1 POP JUMP JUMPDEST PUSH0 PUSH1 0x20 DUP3 ADD SWAP1 POP DUP2 DUP2 SUB PUSH0 DUP4 ADD MSTORE PUSH2 0x34C3 DUP2 PUSH2 0x348A JUMP JUMPDEST SWAP1 POP SWAP2 SWAP1 POP JUMP JUMPDEST PUSH0 PUSH1 0x40 DUP3 ADD SWAP1 POP PUSH2 0x34DD PUSH0 DUP4 ADD DUP6 PUSH2 0x3229 JUMP JUMPDEST PUSH2 0x34EA PUSH1 0x20 DUP4 ADD DUP5 PUSH2 0x3173 JUMP JUMPDEST SWAP4 SWAP3 POP POP POP JUMP JUMPDEST PUSH32 0x5261697365206E6F7420656E6465640000000000000000000000000000000000 PUSH0 DUP3 ADD MSTORE POP JUMP JUMPDEST PUSH0 PUSH2 0x3525 PUSH1 0xF DUP4 PUSH2 0x3046 JUMP JUMPDEST SWAP2 POP PUSH2 0x3530 DUP3 PUSH2 0x34F1 JUMP JUMPDEST PUSH1 0x20 DUP3 ADD SWAP1 POP SWAP2 SWAP1 POP JUMP JUMPDEST PUSH0 PUSH1 0x20 DUP3 ADD SWAP1 POP DUP2 DUP2 SUB PUSH0 DUP4 ADD MSTORE PUSH2 0x3552 DUP2 PUSH2 0x3519 JUMP JUMPDEST SWAP1 POP SWAP2 SWAP1 POP JUMP JUMPDEST PUSH32 0x526173696564416D6F757420616E64204E6F206F6620436F6E7472696275746F PUSH0 DUP3 ADD MSTORE PUSH32 0x72732073686F756C64206265203E203000000000000000000000000000000000 PUSH1 0x20 DUP3 ADD MSTORE POP JUMP JUMPDEST PUSH0 PUSH2 0x35B3 PUSH1 0x30 DUP4 PUSH2 0x3046 JUMP JUMPDEST SWAP2 POP PUSH2 0x35BE DUP3 PUSH2 0x3559 JUMP JUMPDEST PUSH1 0x40 DUP3 ADD SWAP1 POP SWAP2 SWAP1 POP JUMP JUMPDEST PUSH0 PUSH1 0x20 DUP3 ADD SWAP1 POP DUP2 DUP2 SUB PUSH0 DUP4 ADD MSTORE PUSH2 0x35E0 DUP2 PUSH2 0x35A7 JUMP JUMPDEST SWAP1 POP SWAP2 SWAP1 POP JUMP JUMPDEST PUSH0 DUP2 SWAP1 POP SWAP3 SWAP2 POP POP JUMP JUMPDEST POP JUMP JUMPDEST PUSH0 PUSH2 0x35FF PUSH0 DUP4 PUSH2 0x35E7 JUMP JUMPDEST SWAP2 POP PUSH2 0x360A DUP3 PUSH2 0x35F1 JUMP JUMPDEST PUSH0 DUP3 ADD SWAP1 POP SWAP2 SWAP1 POP JUMP JUMPDEST PUSH0 PUSH2 0x361E DUP3 PUSH2 0x35F4 JUMP JUMPDEST SWAP2 POP DUP2 SWAP1 POP SWAP2 SWAP1 POP JUMP JUMPDEST PUSH0 DUP2 MLOAD SWAP1 POP SWAP2 SWAP1 POP JUMP JUMPDEST PUSH0 DUP2 SWAP1 POP SWAP3 SWAP2 POP POP JUMP JUMPDEST DUP3 DUP2 DUP4 MCOPY PUSH0 DUP4 DUP4 ADD MSTORE POP POP POP JUMP JUMPDEST PUSH0 PUSH2 0x3654 DUP3 PUSH2 0x3628 JUMP JUMPDEST PUSH2 0x365E DUP2 DUP6 PUSH2 0x3632 JUMP JUMPDEST SWAP4 POP PUSH2 0x366E DUP2 DUP6 PUSH1 0x20 DUP7 ADD PUSH2 0x363C JUMP JUMPDEST DUP1 DUP5 ADD SWAP2 POP POP SWAP3 SWAP2 POP POP JUMP JUMPDEST PUSH0 DUP2 PUSH1 0xF8 SHL SWAP1 POP SWAP2 SWAP1 POP JUMP JUMPDEST PUSH0 PUSH2 0x3690 DUP3 PUSH2 0x367A JUMP JUMPDEST SWAP1 POP SWAP2 SWAP1 POP JUMP JUMPDEST PUSH0 PUSH2 0x36A1 DUP3 PUSH2 0x3686 JUMP JUMPDEST SWAP1 POP SWAP2 SWAP1 POP JUMP JUMPDEST PUSH2 0x36B9 PUSH2 0x36B4 DUP3 PUSH2 0x3168 JUMP JUMPDEST PUSH2 0x3697 JUMP JUMPDEST DUP3 MSTORE POP POP JUMP JUMPDEST PUSH0 PUSH2 0x36CA DUP3 DUP6 PUSH2 0x364A JUMP JUMPDEST SWAP2 POP PUSH2 0x36D6 DUP3 DUP5 PUSH2 0x36A8 JUMP JUMPDEST PUSH1 0x1 DUP3 ADD SWAP2 POP DUP2 SWAP1 POP SWAP4 SWAP3 POP POP POP JUMP JUMPDEST PUSH0 PUSH1 0x1F NOT PUSH1 0x1F DUP4 ADD AND SWAP1 POP SWAP2 SWAP1 POP JUMP JUMPDEST PUSH0 PUSH2 0x3700 DUP3 PUSH2 0x3628 JUMP JUMPDEST PUSH2 0x370A DUP2 DUP6 PUSH2 0x3046 JUMP JUMPDEST SWAP4 POP PUSH2 0x371A DUP2 DUP6 PUSH1 0x20 DUP7 ADD PUSH2 0x363C JUMP JUMPDEST PUSH2 0x3723 DUP2 PUSH2 0x36E6 JUMP JUMPDEST DUP5 ADD SWAP2 POP POP SWAP3 SWAP2 POP POP JUMP JUMPDEST PUSH0 PUSH1 0x20 DUP3 ADD SWAP1 POP DUP2 DUP2 SUB PUSH0 DUP4 ADD MSTORE PUSH2 0x3746 DUP2 DUP5 PUSH2 0x36F6 JUMP JUMPDEST SWAP1 POP SWAP3 SWAP2 POP POP JUMP JUMPDEST PUSH32 0x4E487B7100000000000000000000000000000000000000000000000000000000 PUSH0 MSTORE PUSH1 0x32 PUSH1 0x4 MSTORE PUSH1 0x24 PUSH0 REVERT JUMPDEST PUSH32 0x4E6F7420612076616C6964206164647265737300000000000000000000000000 PUSH0 DUP3 ADD MSTORE POP JUMP JUMPDEST PUSH0 PUSH2 0x37AF PUSH1 0x13 DUP4 PUSH2 0x3046 JUMP JUMPDEST SWAP2 POP PUSH2 0x37BA DUP3 PUSH2 0x377B JUMP JUMPDEST PUSH1 0x20 DUP3 ADD SWAP1 POP SWAP2 SWAP1 POP JUMP JUMPDEST PUSH0 PUSH1 0x20 DUP3 ADD SWAP1 POP DUP2 DUP2 SUB PUSH0 DUP4 ADD MSTORE PUSH2 0x37DC DUP2 PUSH2 0x37A3 JUMP JUMPDEST SWAP1 POP SWAP2 SWAP1 POP JUMP JUMPDEST PUSH0 DUP2 PUSH1 0x60 SHL SWAP1 POP SWAP2 SWAP1 POP JUMP JUMPDEST PUSH0 PUSH2 0x37F9 DUP3 PUSH2 0x37E3 JUMP JUMPDEST SWAP1 POP SWAP2 SWAP1 POP JUMP JUMPDEST PUSH0 PUSH2 0x380A DUP3 PUSH2 0x37EF JUMP JUMPDEST SWAP1 POP SWAP2 SWAP1 POP JUMP JUMPDEST PUSH2 0x3822 PUSH2 0x381D DUP3 PUSH2 0x3218 JUMP JUMPDEST PUSH2 0x3800 JUMP JUMPDEST DUP3 MSTORE POP POP JUMP JUMPDEST PUSH0 PUSH2 0x3833 DUP3 DUP6 PUSH2 0x364A JUMP JUMPDEST SWAP2 POP PUSH2 0x383F DUP3 DUP5 PUSH2 0x3811 JUMP JUMPDEST PUSH1 0x14 DUP3 ADD SWAP2 POP DUP2 SWAP1 POP SWAP4 SWAP3 POP POP POP JUMP JUMPDEST PUSH32 0x4661696C656420746F2073656E64204574686572000000000000000000000000 PUSH0 DUP3 ADD MSTORE POP JUMP JUMPDEST PUSH0 PUSH2 0x3883 PUSH1 0x14 DUP4 PUSH2 0x3046 JUMP JUMPDEST SWAP2 POP PUSH2 0x388E DUP3 PUSH2 0x384F JUMP JUMPDEST PUSH1 0x20 DUP3 ADD SWAP1 POP SWAP2 SWAP1 POP JUMP JUMPDEST PUSH0 PUSH1 0x20 DUP3 ADD SWAP1 POP DUP2 DUP2 SUB PUSH0 DUP4 ADD MSTORE PUSH2 0x38B0 DUP2 PUSH2 0x3877 JUMP JUMPDEST SWAP1 POP SWAP2 SWAP1 POP JUMP JUMPDEST PUSH32 0x5261697365206D757374206265206F6E676F696E670000000000000000000000 PUSH0 DUP3 ADD MSTORE POP JUMP JUMPDEST PUSH0 PUSH2 0x38EB PUSH1 0x15 DUP4 PUSH2 0x3046 JUMP JUMPDEST SWAP2 POP PUSH2 0x38F6 DUP3 PUSH2 0x38B7 JUMP JUMPDEST PUSH1 0x20 DUP3 ADD SWAP1 POP SWAP2 SWAP1 POP JUMP JUMPDEST PUSH0 PUSH1 0x20 DUP3 ADD SWAP1 POP DUP2 DUP2 SUB PUSH0 DUP4 ADD MSTORE PUSH2 0x3918 DUP2 PUSH2 0x38DF JUMP JUMPDEST SWAP1 POP SWAP2 SWAP1 POP JUMP JUMPDEST PUSH32 0x436F6E747269627574696F6E2073686F756C6420626520696E20626574776565 PUSH0 DUP3 ADD MSTORE PUSH32 0x6E206D696E20616E64206D617800000000000000000000000000000000000000 PUSH1 0x20 DUP3 ADD MSTORE POP JUMP JUMPDEST PUSH0 PUSH2 0x3979 PUSH1 0x2D DUP4 PUSH2 0x3046 JUMP JUMPDEST SWAP2 POP PUSH2 0x3984 DUP3 PUSH2 0x391F JUMP JUMPDEST PUSH1 0x40 DUP3 ADD SWAP1 POP SWAP2 SWAP1 POP JUMP JUMPDEST PUSH0 PUSH1 0x20 DUP3 ADD SWAP1 POP DUP2 DUP2 SUB PUSH0 DUP4 ADD MSTORE PUSH2 0x39A6 DUP2 PUSH2 0x396D JUMP JUMPDEST SWAP1 POP SWAP2 SWAP1 POP JUMP JUMPDEST PUSH32 0x4E6F7420612077686974654C6973742055736572000000000000000000000000 PUSH0 DUP3 ADD MSTORE POP JUMP JUMPDEST PUSH0 PUSH2 0x39E1 PUSH1 0x14 DUP4 PUSH2 0x3046 JUMP JUMPDEST SWAP2 POP PUSH2 0x39EC DUP3 PUSH2 0x39AD JUMP JUMPDEST PUSH1 0x20 DUP3 ADD SWAP1 POP SWAP2 SWAP1 POP JUMP JUMPDEST PUSH0 PUSH1 0x20 DUP3 ADD SWAP1 POP DUP2 DUP2 SUB PUSH0 DUP4 ADD MSTORE PUSH2 0x3A0E DUP2 PUSH2 0x39D5 JUMP JUMPDEST SWAP1 POP SWAP2 SWAP1 POP JUMP JUMPDEST PUSH32 0x4E487B7100000000000000000000000000000000000000000000000000000000 PUSH0 MSTORE PUSH1 0x11 PUSH1 0x4 MSTORE PUSH1 0x24 PUSH0 REVERT JUMPDEST PUSH0 PUSH2 0x3A4C DUP3 PUSH2 0x319B JUMP JUMPDEST SWAP2 POP PUSH32 0xFFFFFFFFFFFFFFFFFFFFFFFFFFFFFFFFFFFFFFFFFFFFFFFFFFFFFFFFFFFFFFFF DUP3 SUB PUSH2 0x3A7E JUMPI PUSH2 0x3A7D PUSH2 0x3A15 JUMP JUMPDEST JUMPDEST PUSH1 0x1 DUP3 ADD SWAP1 POP SWAP2 SWAP1 POP JUMP JUMPDEST PUSH0 PUSH1 0x40 DUP3 ADD SWAP1 POP PUSH2 0x3A9C PUSH0 DUP4 ADD DUP6 PUSH2 0x3251 JUMP JUMPDEST PUSH2 0x3AA9 PUSH1 0x20 DUP4 ADD DUP5 PUSH2 0x3251 JUMP JUMPDEST SWAP4 SWAP3 POP POP POP JUMP JUMPDEST PUSH0 PUSH1 0x40 DUP3 ADD SWAP1 POP DUP2 DUP2 SUB PUSH0 DUP4 ADD MSTORE PUSH2 0x3AC8 DUP2 DUP6 PUSH2 0x36F6 JUMP JUMPDEST SWAP1 POP PUSH2 0x3AD7 PUSH1 0x20 DUP4 ADD DUP5 PUSH2 0x3229 JUMP JUMPDEST SWAP4 SWAP3 POP POP POP JUMP JUMPDEST PUSH32 0x5265656E7472616E637947756172643A207265656E7472616E742063616C6C00 PUSH0 DUP3 ADD MSTORE POP JUMP JUMPDEST PUSH0 PUSH2 0x3B12 PUSH1 0x1F DUP4 PUSH2 0x3046 JUMP JUMPDEST SWAP2 POP PUSH2 0x3B1D DUP3 PUSH2 0x3ADE JUMP JUMPDEST PUSH1 0x20 DUP3 ADD SWAP1 POP SWAP2 SWAP1 POP JUMP JUMPDEST PUSH0 PUSH1 0x20 DUP3 ADD SWAP1 POP DUP2 DUP2 SUB PUSH0 DUP4 ADD MSTORE PUSH2 0x3B3F DUP2 PUSH2 0x3B06 JUMP JUMPDEST SWAP1 POP SWAP2 SWAP1 POP JUMP JUMPDEST PUSH0 PUSH1 0x40 DUP3 ADD SWAP1 POP DUP2 DUP2 SUB PUSH0 DUP4 ADD MSTORE PUSH2 0x3B5E DUP2 DUP6 PUSH2 0x36F6 JUMP JUMPDEST SWAP1 POP PUSH2 0x3B6D PUSH1 0x20 DUP4 ADD DUP5 PUSH2 0x3251 JUMP JUMPDEST SWAP4 SWAP3 POP POP POP JUMP JUMPDEST PUSH0 PUSH2 0x3B7E DUP3 PUSH2 0x319B JUMP JUMPDEST SWAP2 POP PUSH2 0x3B89 DUP4 PUSH2 0x319B JUMP JUMPDEST SWAP3 POP DUP3 DUP3 MUL PUSH2 0x3B97 DUP2 PUSH2 0x319B JUMP JUMPDEST SWAP2 POP DUP3 DUP3 DIV DUP5 EQ DUP4 ISZERO OR PUSH2 0x3BAE JUMPI PUSH2 0x3BAD PUSH2 0x3A15 JUMP JUMPDEST JUMPDEST POP SWAP3 SWAP2 POP POP JUMP JUMPDEST PUSH32 0x4E487B7100000000000000000000000000000000000000000000000000000000 PUSH0 MSTORE PUSH1 0x12 PUSH1 0x4 MSTORE PUSH1 0x24 PUSH0 REVERT JUMPDEST PUSH0 PUSH2 0x3BEC DUP3 PUSH2 0x319B JUMP JUMPDEST SWAP2 POP PUSH2 0x3BF7 DUP4 PUSH2 0x319B JUMP JUMPDEST SWAP3 POP DUP3 PUSH2 0x3C07 JUMPI PUSH2 0x3C06 PUSH2 0x3BB5 JUMP JUMPDEST JUMPDEST DUP3 DUP3 DIV SWAP1 POP SWAP3 SWAP2 POP POP JUMP JUMPDEST PUSH0 PUSH2 0x3C1C DUP3 PUSH2 0x319B JUMP JUMPDEST SWAP2 POP PUSH2 0x3C27 DUP4 PUSH2 0x319B JUMP JUMPDEST SWAP3 POP DUP3 DUP3 SUB SWAP1 POP DUP2 DUP2 GT ISZERO PUSH2 0x3C3F JUMPI PUSH2 0x3C3E PUSH2 0x3A15 JUMP JUMPDEST JUMPDEST SWAP3 SWAP2 POP POP JUMP JUMPDEST PUSH0 PUSH2 0x3C4F DUP3 PUSH2 0x319B JUMP JUMPDEST SWAP2 POP PUSH2 0x3C5A DUP4 PUSH2 0x319B JUMP JUMPDEST SWAP3 POP DUP3 DUP3 ADD SWAP1 POP DUP1 DUP3 GT ISZERO PUSH2 0x3C72 JUMPI PUSH2 0x3C71 PUSH2 0x3A15 JUMP JUMPDEST JUMPDEST SWAP3 SWAP2 POP POP JUMP JUMPDEST PUSH0 PUSH1 0x40 DUP3 ADD SWAP1 POP PUSH2 0x3C8B PUSH0 DUP4 ADD DUP6 PUSH2 0x3229 JUMP JUMPDEST PUSH2 0x3C98 PUSH1 0x20 DUP4 ADD DUP5 PUSH2 0x32D7 JUMP JUMPDEST SWAP4 SWAP3 POP POP POP JUMP JUMPDEST PUSH32 0x4E487B7100000000000000000000000000000000000000000000000000000000 PUSH0 MSTORE PUSH1 0x51 PUSH1 0x4 MSTORE PUSH1 0x24 PUSH0 REVERT INVALID PUSH2 0x646D PUSH10 0x6E416D6F756E74205768 PUSH6 0x6E20746F7461 PUSH13 0x20726173696564203C20686172 PUSH5 0x6361705478 PUSH15 0x206661696C656420666F7220746865 KECCAK256 MSTORE8 PUSH22 0x7065722041646D696E207768656E20746F74616C2072 PUSH2 0x7369 PUSH6 0x64203C206861 PUSH19 0x64636170203A2061646D696E416D6F756E7420 JUMPI PUSH9 0x656E20746F74616C20 PUSH19 0x6173696564203D3D206861726463617054786E KECCAK256 PUSH7 0x61696C65642066 PUSH16 0x72207468652053757065722041646D69 PUSH15 0x207768656E20746F74616C20726173 PUSH10 0x6564203E206861726463 PUSH2 0x7020 GASPRICE KECCAK256 SLOAD PUSH25 0x6E206661696C656420666F7220746865205375706572204164 PUSH14 0x696E207768656E20746F74616C20 PUSH19 0x6173696564203D3D2068617264636170203A20 SLOAD PUSH25 0x6E206661696C656420666F72207468652041646D696E207768 PUSH6 0x6E20746F7461 PUSH13 0x20726173696564203E20686172 PUSH5 0x636170203A KECCAK256 PUSH20 0x7570657241646D696E416D74205768656E20746F PUSH21 0x616C20726173696564203D3D206861726463617020 PUSH20 0x7570657241646D696E416D74205768656E20746F PUSH21 0x616C20726173696564203C20686172646361702054 PUSH25 0x6E206661696C656420666F7220746865205375706572204164 PUSH14 0x696E207768656E20746865726520 PUSH10 0x73206E6F206861726463 PUSH2 0x7020 PUSH20 0x6574203A20737570657241646D696E416D742077 PUSH9 0x656E20746865726520 PUSH10 0x73206E6F206861726463 PUSH2 0x7020 PUSH20 0x6574417265207765207265616C6C792072656675 PUSH15 0x64696E6720746F2074686520757365 PUSH19 0x73737570657241646D696E416D74205768656E KECCAK256 PUSH21 0x6F74616C20726173696564203E2068617264636170 KECCAK256 SLOAD PUSH25 0x6E206661696C656420666F72207468652077686974656C6973 PUSH21 0x656420636F6E7472696275746F72207768656E2074 PUSH16 0x74616C20726173696564203E20686172 PUSH5 0x636170203A KECCAK256 PUSH2 0x646D PUSH10 0x6E416D6F756E74205768 PUSH6 0x6E20746F7461 PUSH13 0x20726173696564203E20686172 PUSH5 0x6361705478 PUSH15 0x206661696C656420666F7220746865 KECCAK256 COINBASE PUSH5 0x6D696E2077 PUSH9 0x656E20746F74616C20 PUSH19 0x6173696564203D3D2068617264636170203A20 PUSH2 0x646D PUSH10 0x6E416D6F756E74207768 PUSH6 0x6E2074686572 PUSH6 0x206973206E6F KECCAK256 PUSH9 0x617264636170207365 PUSH21 0x54786E206661696C656420666F7220746865204164 PUSH14 0x696E207768656E20746F74616C20 PUSH19 0x6173696564203C2068617264636170203A20A2 PUSH5 0x6970667358 0x22 SLT KECCAK256 0x2E 0x29 0x1F PUSH27 0xDDB125D2CCF2A260BB1D7E60AAB0CF9386ACB76AE45E63E28D6A11 TSTORE PUSH5 0x736F6C6343 STOP ADDMOD NOT STOP CALLER "
		},
		"gasEstimates": {
			"creation": {
				"codeDepositCost": "3293200",
				"executionCost": "infinite",
				"totalCost": "infinite"
			},
			"external": {
				"ADMIN_ROLE()": "371",
				"DEFAULT_ADMIN_ROLE()": "375",
				"addToWhitelist(address)": "infinite",
				"contractCreator()": "2576",
				"contribute()": "infinite",
				"contributions(address)": "2847",
				"contributorsList(uint256)": "5035",
				"enableWhitelist(uint256)": "infinite",
				"endRaise()": "infinite",
				"endTime()": "2493",
				"feePercent()": "2537",
				"finaliseRaise()": "infinite",
				"getRoleAdmin(bytes32)": "infinite",
				"grantRole(bytes32,address)": "infinite",
				"hardCap()": "2557",
				"hasRole(bytes32,address)": "3233",
				"increaseHardCap(uint256)": "infinite",
				"maxContribution()": "2514",
				"minContribution()": "2492",
				"numOfContributors()": "2471",
				"raiseEnded()": "2629",
				"raiseStarted()": "2599",
				"removeFromWhitelist(address)": "infinite",
				"renounceRole(bytes32,address)": "infinite",
				"revokeRole(bytes32,address)": "infinite",
				"setFeePercent(uint256)": "25074",
				"setHardCap(uint256)": "25028",
				"setMaxContribution(uint256)": "infinite",
				"setMinContribution(uint256)": "infinite",
				"startRaise()": "infinite",
				"startTime()": "2493",
				"superAdmin()": "2620",
				"supportsInterface(bytes4)": "764",
				"totalRaised()": "2536",
				"whitelist(address)": "2966",
				"whitelistEnabled()": "2555"
			},
			"internal": {
				"isContributor(address)": "infinite"
			}
		},
		"methodIdentifiers": {
			"ADMIN_ROLE()": "75b238fc",
			"DEFAULT_ADMIN_ROLE()": "a217fddf",
			"addToWhitelist(address)": "e43252d7",
			"contractCreator()": "1e2f73b1",
			"contribute()": "d7bb99ba",
			"contributions(address)": "42e94c90",
			"contributorsList(uint256)": "0b9f2c4a",
			"enableWhitelist(uint256)": "0d77c7df",
			"endRaise()": "2b67b671",
			"endTime()": "3197cbb6",
			"feePercent()": "7fd6f15c",
			"finaliseRaise()": "8d070e75",
			"getRoleAdmin(bytes32)": "248a9ca3",
			"grantRole(bytes32,address)": "2f2ff15d",
			"hardCap()": "fb86a404",
			"hasRole(bytes32,address)": "91d14854",
			"increaseHardCap(uint256)": "b8e0d08d",
			"maxContribution()": "8d3d6576",
			"minContribution()": "aaffadf3",
			"numOfContributors()": "1e206f15",
			"raiseEnded()": "3e0498d2",
			"raiseStarted()": "708dee5e",
			"removeFromWhitelist(address)": "8ab1d681",
			"renounceRole(bytes32,address)": "36568abe",
			"revokeRole(bytes32,address)": "d547741f",
			"setFeePercent(uint256)": "7ce3489b",
			"setHardCap(uint256)": "d18d944b",
			"setMaxContribution(uint256)": "03ed9d21",
			"setMinContribution(uint256)": "473b0d46",
			"startRaise()": "6d66d2ce",
			"startTime()": "78e97925",
			"superAdmin()": "29575f6a",
			"supportsInterface(bytes4)": "01ffc9a7",
			"totalRaised()": "c5c4744c",
			"whitelist(address)": "9b19251a",
			"whitelistEnabled()": "51fb012d"
		}
	},
	"abi": [
		{
			"inputs": [
				{
					"internalType": "address",
					"name": "_admin",
					"type": "address"
				},
				{
					"internalType": "address",
					"name": "_superAdmin",
					"type": "address"
				},
				{
					"internalType": "uint256",
					"name": "_maxContribution",
					"type": "uint256"
				},
				{
					"internalType": "uint256",
					"name": "_minContribution",
					"type": "uint256"
				}
			],
			"stateMutability": "nonpayable",
			"type": "constructor"
		},
		{
			"inputs": [],
			"name": "AccessControlBadConfirmation",
			"type": "error"
		},
		{
			"inputs": [
				{
					"internalType": "address",
					"name": "account",
					"type": "address"
				},
				{
					"internalType": "bytes32",
					"name": "neededRole",
					"type": "bytes32"
				}
			],
			"name": "AccessControlUnauthorizedAccount",
			"type": "error"
		},
		{
			"anonymous": false,
			"inputs": [
				{
					"indexed": false,
					"internalType": "uint256",
					"name": "_newHardCap",
					"type": "uint256"
				}
			],
			"name": "HardCapIncreased",
			"type": "event"
		},
		{
			"anonymous": false,
			"inputs": [
				{
					"indexed": false,
					"internalType": "uint256",
					"name": "_max",
					"type": "uint256"
				}
			],
			"name": "MaxContributionSet",
			"type": "event"
		},
		{
			"anonymous": false,
			"inputs": [
				{
					"indexed": false,
					"internalType": "uint256",
					"name": "_min",
					"type": "uint256"
				}
			],
			"name": "MinContributionSet",
			"type": "event"
		},
		{
			"anonymous": false,
			"inputs": [
				{
					"indexed": true,
					"internalType": "bytes32",
					"name": "role",
					"type": "bytes32"
				},
				{
					"indexed": true,
					"internalType": "bytes32",
					"name": "previousAdminRole",
					"type": "bytes32"
				},
				{
					"indexed": true,
					"internalType": "bytes32",
					"name": "newAdminRole",
					"type": "bytes32"
				}
			],
			"name": "RoleAdminChanged",
			"type": "event"
		},
		{
			"anonymous": false,
			"inputs": [
				{
					"indexed": true,
					"internalType": "bytes32",
					"name": "role",
					"type": "bytes32"
				},
				{
					"indexed": true,
					"internalType": "address",
					"name": "account",
					"type": "address"
				},
				{
					"indexed": true,
					"internalType": "address",
					"name": "sender",
					"type": "address"
				}
			],
			"name": "RoleGranted",
			"type": "event"
		},
		{
			"anonymous": false,
			"inputs": [
				{
					"indexed": true,
					"internalType": "bytes32",
					"name": "role",
					"type": "bytes32"
				},
				{
					"indexed": true,
					"internalType": "address",
					"name": "account",
					"type": "address"
				},
				{
					"indexed": true,
					"internalType": "address",
					"name": "sender",
					"type": "address"
				}
			],
			"name": "RoleRevoked",
			"type": "event"
		},
		{
			"anonymous": false,
			"inputs": [
				{
					"indexed": false,
					"internalType": "address",
					"name": "_account",
					"type": "address"
				},
				{
					"indexed": false,
					"internalType": "bool",
					"name": "_value",
					"type": "bool"
				}
			],
			"name": "WhitelistUpdated",
			"type": "event"
		},
		{
			"anonymous": false,
			"inputs": [],
			"name": "raiseEndedEvent",
			"type": "event"
		},
		{
			"anonymous": false,
			"inputs": [],
			"name": "raiseStartedEvent",
			"type": "event"
		},
		{
			"anonymous": false,
			"inputs": [
				{
					"indexed": true,
					"internalType": "address",
					"name": "_user",
					"type": "address"
				},
				{
					"indexed": false,
					"internalType": "uint256",
					"name": "_value",
					"type": "uint256"
				},
				{
					"indexed": false,
					"internalType": "uint256",
					"name": "_time",
					"type": "uint256"
				}
			],
			"name": "totalContributed",
			"type": "event"
		},
		{
			"inputs": [],
			"name": "ADMIN_ROLE",
			"outputs": [
				{
					"internalType": "bytes32",
					"name": "",
					"type": "bytes32"
				}
			],
			"stateMutability": "view",
			"type": "function"
		},
		{
			"inputs": [],
			"name": "DEFAULT_ADMIN_ROLE",
			"outputs": [
				{
					"internalType": "bytes32",
					"name": "",
					"type": "bytes32"
				}
			],
			"stateMutability": "view",
			"type": "function"
		},
		{
			"inputs": [
				{
					"internalType": "address",
					"name": "_account",
					"type": "address"
				}
			],
			"name": "addToWhitelist",
			"outputs": [],
			"stateMutability": "nonpayable",
			"type": "function"
		},
		{
			"inputs": [],
			"name": "contractCreator",
			"outputs": [
				{
					"internalType": "address",
					"name": "",
					"type": "address"
				}
			],
			"stateMutability": "view",
			"type": "function"
		},
		{
			"inputs": [],
			"name": "contribute",
			"outputs": [],
			"stateMutability": "payable",
			"type": "function"
		},
		{
			"inputs": [
				{
					"internalType": "address",
					"name": "",
					"type": "address"
				}
			],
			"name": "contributions",
			"outputs": [
				{
					"internalType": "uint256",
					"name": "",
					"type": "uint256"
				}
			],
			"stateMutability": "view",
			"type": "function"
		},
		{
			"inputs": [
				{
					"internalType": "uint256",
					"name": "",
					"type": "uint256"
				}
			],
			"name": "contributorsList",
			"outputs": [
				{
					"internalType": "address",
					"name": "",
					"type": "address"
				}
			],
			"stateMutability": "view",
			"type": "function"
		},
		{
			"inputs": [
				{
					"internalType": "uint256",
					"name": "_setHardCap",
					"type": "uint256"
				}
			],
			"name": "enableWhitelist",
			"outputs": [],
			"stateMutability": "nonpayable",
			"type": "function"
		},
		{
			"inputs": [],
			"name": "endRaise",
			"outputs": [],
			"stateMutability": "nonpayable",
			"type": "function"
		},
		{
			"inputs": [],
			"name": "endTime",
			"outputs": [
				{
					"internalType": "uint256",
					"name": "",
					"type": "uint256"
				}
			],
			"stateMutability": "view",
			"type": "function"
		},
		{
			"inputs": [],
			"name": "feePercent",
			"outputs": [
				{
					"internalType": "uint256",
					"name": "",
					"type": "uint256"
				}
			],
			"stateMutability": "view",
			"type": "function"
		},
		{
			"inputs": [],
			"name": "finaliseRaise",
			"outputs": [],
			"stateMutability": "payable",
			"type": "function"
		},
		{
			"inputs": [
				{
					"internalType": "bytes32",
					"name": "role",
					"type": "bytes32"
				}
			],
			"name": "getRoleAdmin",
			"outputs": [
				{
					"internalType": "bytes32",
					"name": "",
					"type": "bytes32"
				}
			],
			"stateMutability": "view",
			"type": "function"
		},
		{
			"inputs": [
				{
					"internalType": "bytes32",
					"name": "role",
					"type": "bytes32"
				},
				{
					"internalType": "address",
					"name": "account",
					"type": "address"
				}
			],
			"name": "grantRole",
			"outputs": [],
			"stateMutability": "nonpayable",
			"type": "function"
		},
		{
			"inputs": [],
			"name": "hardCap",
			"outputs": [
				{
					"internalType": "uint256",
					"name": "",
					"type": "uint256"
				}
			],
			"stateMutability": "view",
			"type": "function"
		},
		{
			"inputs": [
				{
					"internalType": "bytes32",
					"name": "role",
					"type": "bytes32"
				},
				{
					"internalType": "address",
					"name": "account",
					"type": "address"
				}
			],
			"name": "hasRole",
			"outputs": [
				{
					"internalType": "bool",
					"name": "",
					"type": "bool"
				}
			],
			"stateMutability": "view",
			"type": "function"
		},
		{
			"inputs": [
				{
					"internalType": "uint256",
					"name": "_newHardCap",
					"type": "uint256"
				}
			],
			"name": "increaseHardCap",
			"outputs": [],
			"stateMutability": "nonpayable",
			"type": "function"
		},
		{
			"inputs": [],
			"name": "maxContribution",
			"outputs": [
				{
					"internalType": "uint256",
					"name": "",
					"type": "uint256"
				}
			],
			"stateMutability": "view",
			"type": "function"
		},
		{
			"inputs": [],
			"name": "minContribution",
			"outputs": [
				{
					"internalType": "uint256",
					"name": "",
					"type": "uint256"
				}
			],
			"stateMutability": "view",
			"type": "function"
		},
		{
			"inputs": [],
			"name": "numOfContributors",
			"outputs": [
				{
					"internalType": "uint256",
					"name": "",
					"type": "uint256"
				}
			],
			"stateMutability": "view",
			"type": "function"
		},
		{
			"inputs": [],
			"name": "raiseEnded",
			"outputs": [
				{
					"internalType": "bool",
					"name": "",
					"type": "bool"
				}
			],
			"stateMutability": "view",
			"type": "function"
		},
		{
			"inputs": [],
			"name": "raiseStarted",
			"outputs": [
				{
					"internalType": "bool",
					"name": "",
					"type": "bool"
				}
			],
			"stateMutability": "view",
			"type": "function"
		},
		{
			"inputs": [
				{
					"internalType": "address",
					"name": "_account",
					"type": "address"
				}
			],
			"name": "removeFromWhitelist",
			"outputs": [],
			"stateMutability": "nonpayable",
			"type": "function"
		},
		{
			"inputs": [
				{
					"internalType": "bytes32",
					"name": "role",
					"type": "bytes32"
				},
				{
					"internalType": "address",
					"name": "callerConfirmation",
					"type": "address"
				}
			],
			"name": "renounceRole",
			"outputs": [],
			"stateMutability": "nonpayable",
			"type": "function"
		},
		{
			"inputs": [
				{
					"internalType": "bytes32",
					"name": "role",
					"type": "bytes32"
				},
				{
					"internalType": "address",
					"name": "account",
					"type": "address"
				}
			],
			"name": "revokeRole",
			"outputs": [],
			"stateMutability": "nonpayable",
			"type": "function"
		},
		{
			"inputs": [
				{
					"internalType": "uint256",
					"name": "_feePercent",
					"type": "uint256"
				}
			],
			"name": "setFeePercent",
			"outputs": [],
			"stateMutability": "nonpayable",
			"type": "function"
		},
		{
			"inputs": [
				{
					"internalType": "uint256",
					"name": "_hardCap",
					"type": "uint256"
				}
			],
			"name": "setHardCap",
			"outputs": [],
			"stateMutability": "nonpayable",
			"type": "function"
		},
		{
			"inputs": [
				{
					"internalType": "uint256",
					"name": "_max",
					"type": "uint256"
				}
			],
			"name": "setMaxContribution",
			"outputs": [],
			"stateMutability": "nonpayable",
			"type": "function"
		},
		{
			"inputs": [
				{
					"internalType": "uint256",
					"name": "_min",
					"type": "uint256"
				}
			],
			"name": "setMinContribution",
			"outputs": [],
			"stateMutability": "nonpayable",
			"type": "function"
		},
		{
			"inputs": [],
			"name": "startRaise",
			"outputs": [],
			"stateMutability": "nonpayable",
			"type": "function"
		},
		{
			"inputs": [],
			"name": "startTime",
			"outputs": [
				{
					"internalType": "uint256",
					"name": "",
					"type": "uint256"
				}
			],
			"stateMutability": "view",
			"type": "function"
		},
		{
			"inputs": [],
			"name": "superAdmin",
			"outputs": [
				{
					"internalType": "address",
					"name": "",
					"type": "address"
				}
			],
			"stateMutability": "view",
			"type": "function"
		},
		{
			"inputs": [
				{
					"internalType": "bytes4",
					"name": "interfaceId",
					"type": "bytes4"
				}
			],
			"name": "supportsInterface",
			"outputs": [
				{
					"internalType": "bool",
					"name": "",
					"type": "bool"
				}
			],
			"stateMutability": "view",
			"type": "function"
		},
		{
			"inputs": [],
			"name": "totalRaised",
			"outputs": [
				{
					"internalType": "uint256",
					"name": "",
					"type": "uint256"
				}
			],
			"stateMutability": "view",
			"type": "function"
		},
		{
			"inputs": [
				{
					"internalType": "address",
					"name": "",
					"type": "address"
				}
			],
			"name": "whitelist",
			"outputs": [
				{
					"internalType": "bool",
					"name": "",
					"type": "bool"
				}
			],
			"stateMutability": "view",
			"type": "function"
		},
		{
			"inputs": [],
			"name": "whitelistEnabled",
			"outputs": [
				{
					"internalType": "bool",
					"name": "",
					"type": "bool"
				}
			],
			"stateMutability": "view",
			"type": "function"
		},
		{
			"stateMutability": "payable",
			"type": "receive"
		}
	]
}