{
	"data": {
		"bytecode": {
			"linkReferences": {},
			"object": "6080604052600a60055534801562000015575f80fd5b506040516200384f3803806200384f83398181016040528101906200003b919062000363565b600180819055508160025f6101000a81548173ffffffffffffffffffffffffffffffffffffffff021916908373ffffffffffffffffffffffffffffffffffffffff1602179055508360035f6101000a81548173ffffffffffffffffffffffffffffffffffffffff021916908373ffffffffffffffffffffffffffffffffffffffff1602179055508260068190555080600781905550620001237fa49807205ce4d355092ef5a8a18f56e8913cf4a201fbe287825b095693c2177560035f9054906101000a900473ffffffffffffffffffffffffffffffffffffffff166200016160201b60201c565b50620001567fd980155b32cf66e6af51e0972d64b9d5efe0e6f237dfaa4bdc83f990dd79e9c8836200016160201b60201c565b5050505050620003d2565b5f6200017483836200025c60201b60201c565b620002525760015f808581526020019081526020015f205f015f8473ffffffffffffffffffffffffffffffffffffffff1673ffffffffffffffffffffffffffffffffffffffff1681526020019081526020015f205f6101000a81548160ff021916908315150217905550620001ee620002bf60201b60201c565b73ffffffffffffffffffffffffffffffffffffffff168273ffffffffffffffffffffffffffffffffffffffff16847f2f8788117e7eff1d82e926ec794901d17c78024a50270940304540a733656f0d60405160405180910390a46001905062000256565b5f90505b92915050565b5f805f8481526020019081526020015f205f015f8373ffffffffffffffffffffffffffffffffffffffff1673ffffffffffffffffffffffffffffffffffffffff1681526020019081526020015f205f9054906101000a900460ff16905092915050565b5f33905090565b5f80fd5b5f73ffffffffffffffffffffffffffffffffffffffff82169050919050565b5f620002f582620002ca565b9050919050565b6200030781620002e9565b811462000312575f80fd5b50565b5f815190506200032581620002fc565b92915050565b5f819050919050565b6200033f816200032b565b81146200034a575f80fd5b50565b5f815190506200035d8162000334565b92915050565b5f805f80608085870312156200037e576200037d620002c6565b5b5f6200038d8782880162000315565b9450506020620003a0878288016200034d565b9350506040620003b38782880162000315565b9250506060620003c6878288016200034d565b91505092959194509250565b61346f80620003e05f395ff3fe6080604052600436106101f1575f3560e01c80637c7c7c3c1161010c578063a217fddf1161009f578063d18d944b1161006e578063d18d944b146106f7578063d547741f1461071f578063d7bb99ba14610747578063e43252d714610751578063fb86a4041461077957610231565b8063a217fddf14610651578063aaffadf31461067b578063b8e0d08d146106a5578063c5c4744c146106cd57610231565b80638d070e75116100db5780638d070e75146105a55780638d3d6576146105af57806391d14854146105d95780639b19251a1461061557610231565b80637c7c7c3c146105015780637ce3489b1461052b5780637fd6f15c146105535780638ab1d6811461057d57610231565b806336568abe116101845780636d66d2ce116101535780636d66d2ce1461046d5780636f9fb98a14610483578063708dee5e146104ad57806375b238fc146104d757610231565b806336568abe146103b75780633e0498d2146103df57806342e94c9014610409578063473b0d461461044557610231565b80631e2f73b1116101c05780631e2f73b1146102ff578063248a9ca31461032957806329575f6a146103655780632f2ff15d1461038f57610231565b806301ffc9a71461023557806303ed9d21146102715780630b9f2c4a146102995780631e206f15146102d557610231565b36610231576040517f08c379a00000000000000000000000000000000000000000000000000000000081526004016102289061261b565b60405180910390fd5b5f80fd5b348015610240575f80fd5b5061025b60048036038101906102569190612692565b6107a3565b60405161026891906126d7565b60405180910390f35b34801561027c575f80fd5b5061029760048036038101906102929190612723565b61081c565b005b3480156102a4575f80fd5b506102bf60048036038101906102ba9190612723565b6108e7565b6040516102cc919061278d565b60405180910390f35b3480156102e0575f80fd5b506102e9610922565b6040516102f691906127b5565b60405180910390f35b34801561030a575f80fd5b50610313610928565b604051610320919061278d565b60405180910390f35b348015610334575f80fd5b5061034f600480360381019061034a9190612801565b61094d565b60405161035c919061283b565b60405180910390f35b348015610370575f80fd5b50610379610969565b604051610386919061278d565b60405180910390f35b34801561039a575f80fd5b506103b560048036038101906103b0919061287e565b61098e565b005b3480156103c2575f80fd5b506103dd60048036038101906103d8919061287e565b6109b0565b005b3480156103ea575f80fd5b506103f3610a2b565b60405161040091906126d7565b60405180910390f35b348015610414575f80fd5b5061042f600480360381019061042a91906128bc565b610a3e565b60405161043c91906127b5565b60405180910390f35b348015610450575f80fd5b5061046b60048036038101906104669190612723565b610a53565b005b348015610478575f80fd5b50610481610b1e565b005b34801561048e575f80fd5b50610497610c3f565b6040516104a491906127b5565b60405180910390f35b3480156104b8575f80fd5b506104c1610c46565b6040516104ce91906126d7565b60405180910390f35b3480156104e2575f80fd5b506104eb610c58565b6040516104f8919061283b565b60405180910390f35b34801561050c575f80fd5b50610515610c7c565b604051610522919061283b565b60405180910390f35b348015610536575f80fd5b50610551600480360381019061054c9190612723565b610ca0565b005b34801561055e575f80fd5b50610567610d34565b60405161057491906127b5565b60405180910390f35b348015610588575f80fd5b506105a3600480360381019061059e91906128bc565b610d3a565b005b6105ad610e54565b005b3480156105ba575f80fd5b506105c3611962565b6040516105d091906127b5565b60405180910390f35b3480156105e4575f80fd5b506105ff60048036038101906105fa919061287e565b611968565b60405161060c91906126d7565b60405180910390f35b348015610620575f80fd5b5061063b600480360381019061063691906128bc565b6119cb565b60405161064891906126d7565b60405180910390f35b34801561065c575f80fd5b506106656119e8565b604051610672919061283b565b60405180910390f35b348015610686575f80fd5b5061068f6119ee565b60405161069c91906127b5565b60405180910390f35b3480156106b0575f80fd5b506106cb60048036038101906106c69190612723565b6119f4565b005b3480156106d8575f80fd5b506106e1611abf565b6040516106ee91906127b5565b60405180910390f35b348015610702575f80fd5b5061071d60048036038101906107189190612723565b611ac5565b005b34801561072a575f80fd5b506107456004803603810190610740919061287e565b611b59565b005b61074f611b7b565b005b34801561075c575f80fd5b50610777600480360381019061077291906128bc565b611dc6565b005b348015610784575f80fd5b5061078d611ee2565b60405161079a91906127b5565b60405180910390f35b5f7f7965db0b000000000000000000000000000000000000000000000000000000007bffffffffffffffffffffffffffffffffffffffffffffffffffffffff1916827bffffffffffffffffffffffffffffffffffffffffffffffffffffffff19161480610815575061081482611ee8565b5b9050919050565b6108677fa49807205ce4d355092ef5a8a18f56e8913cf4a201fbe287825b095693c2177560035f9054906101000a900473ffffffffffffffffffffffffffffffffffffffff16611968565b6108a6576040517f08c379a000000000000000000000000000000000000000000000000000000000815260040161089d90612931565b60405180910390fd5b806008819055507f8645f88287b79f16d91266da1d35b7adc817d75a89a9577504b01fbc37ed5a6f816040516108dc91906127b5565b60405180910390a150565b600b81815481106108f6575f80fd5b905f5260205f20015f915054906101000a900473ffffffffffffffffffffffffffffffffffffffff1681565b600a5481565b60035f9054906101000a900473ffffffffffffffffffffffffffffffffffffffff1681565b5f805f8381526020019081526020015f20600101549050919050565b60025f9054906101000a900473ffffffffffffffffffffffffffffffffffffffff1681565b6109978261094d565b6109a081611f51565b6109aa8383611f65565b50505050565b6109b861204e565b73ffffffffffffffffffffffffffffffffffffffff168173ffffffffffffffffffffffffffffffffffffffff1614610a1c576040517f6697b23200000000000000000000000000000000000000000000000000000000815260040160405180910390fd5b610a268282612055565b505050565b600960019054906101000a900460ff1681565b600c602052805f5260405f205f915090505481565b610a9e7fa49807205ce4d355092ef5a8a18f56e8913cf4a201fbe287825b095693c2177560035f9054906101000a900473ffffffffffffffffffffffffffffffffffffffff16611968565b610add576040517f08c379a0000000000000000000000000000000000000000000000000000000008152600401610ad490612931565b60405180910390fd5b806007819055507f9e87cf72973cdb82f6a3c58fa8ef538fd3088801e3f3033afd06fa390ca4876c81604051610b1391906127b5565b60405180910390a150565b610b697fa49807205ce4d355092ef5a8a18f56e8913cf4a201fbe287825b095693c2177560035f9054906101000a900473ffffffffffffffffffffffffffffffffffffffff16611968565b610ba8576040517f08c379a0000000000000000000000000000000000000000000000000000000008152600401610b9f90612931565b60405180910390fd5b60095f9054906101000a900460ff1615610bf7576040517f08c379a0000000000000000000000000000000000000000000000000000000008152600401610bee90612999565b60405180910390fd5b600160095f6101000a81548160ff0219169083151502179055507f8cf55e5373cd35327ecd6e48f19a6101684947fd385c07fb95117b3695ec2e9b60405160405180910390a1565b5f47905090565b60095f9054906101000a900460ff1681565b7fa49807205ce4d355092ef5a8a18f56e8913cf4a201fbe287825b095693c2177581565b7fd980155b32cf66e6af51e0972d64b9d5efe0e6f237dfaa4bdc83f990dd79e9c881565b610ceb7fa49807205ce4d355092ef5a8a18f56e8913cf4a201fbe287825b095693c2177560035f9054906101000a900473ffffffffffffffffffffffffffffffffffffffff16611968565b610d2a576040517f08c379a0000000000000000000000000000000000000000000000000000000008152600401610d2190612931565b60405180910390fd5b8060058190555050565b60055481565b610d857fa49807205ce4d355092ef5a8a18f56e8913cf4a201fbe287825b095693c2177560035f9054906101000a900473ffffffffffffffffffffffffffffffffffffffff16611968565b610dc4576040517f08c379a0000000000000000000000000000000000000000000000000000000008152600401610dbb90612931565b60405180910390fd5b5f600d5f8373ffffffffffffffffffffffffffffffffffffffff1673ffffffffffffffffffffffffffffffffffffffff1681526020019081526020015f205f6101000a81548160ff0219169083151502179055507ff93f9a76c1bf3444d22400a00cb9fe990e6abe9dbb333fda48859cfee864543d815f604051610e499291906129b7565b60405180910390a150565b610e9f7fa49807205ce4d355092ef5a8a18f56e8913cf4a201fbe287825b095693c2177560035f9054906101000a900473ffffffffffffffffffffffffffffffffffffffff16611968565b80610ef15750610ef07fd980155b32cf66e6af51e0972d64b9d5efe0e6f237dfaa4bdc83f990dd79e9c860025f9054906101000a900473ffffffffffffffffffffffffffffffffffffffff16611968565b5b610f30576040517f08c379a0000000000000000000000000000000000000000000000000000000008152600401610f2790612a28565b60405180910390fd5b610f3861213e565b610f4061218d565b6001600960016101000a81548160ff0219169083151502179055610f99576040517f08c379a0000000000000000000000000000000000000000000000000000000008152600401610f9090612a90565b60405180910390fd5b5f60045411610fdd576040517f08c379a0000000000000000000000000000000000000000000000000000000008152600401610fd490612af8565b60405180910390fd5b5f8060065460045410156111ea5761102c6040518060400160405280600b81526020017f546f74616c526169736564000000000000000000000000000000000000000000815250600454612226565b61105660646110486005546004546122c290919063ffffffff16565b6122d790919063ffffffff16565b915061106d826004546122ec90919063ffffffff16565b90506110916040518060600160405280602a815260200161339b602a913983612226565b6110b36040518060600160405280602781526020016133216027913982612226565b5f60035f9054906101000a900473ffffffffffffffffffffffffffffffffffffffff1673ffffffffffffffffffffffffffffffffffffffff166108fc8390811502906040515f60405180830381858888f1935050505090508061114b576040517f08c379a000000000000000000000000000000000000000000000000000000000815260040161114290612b86565b60405180910390fd5b5f60025f9054906101000a900473ffffffffffffffffffffffffffffffffffffffff1673ffffffffffffffffffffffffffffffffffffffff166108fc8590811502906040515f60405180830381858888f193505050509050806111e3576040517f08c379a00000000000000000000000000000000000000000000000000000000081526004016111da90612c14565b60405180910390fd5b5050611914565b600654600454111561170c576112376040518060400160405280600b81526020017f546f74616c526169736564000000000000000000000000000000000000000000815250600454612226565b61126160646112536005546006546122c290919063ffffffff16565b6122d790919063ffffffff16565b9150611278826006546122ec90919063ffffffff16565b905061129c6040518060600160405280602a81526020016133e9602a913983612226565b6112be6040518060600160405280602781526020016134136027913982612226565b5f60035f9054906101000a900473ffffffffffffffffffffffffffffffffffffffff1673ffffffffffffffffffffffffffffffffffffffff166108fc8390811502906040515f60405180830381858888f19350505050905080611356576040517f08c379a000000000000000000000000000000000000000000000000000000000815260040161134d90612ca2565b60405180910390fd5b5f60025f9054906101000a900473ffffffffffffffffffffffffffffffffffffffff1673ffffffffffffffffffffffffffffffffffffffff166108fc8590811502906040515f60405180830381858888f193505050509050806113ee576040517f08c379a00000000000000000000000000000000000000000000000000000000081526004016113e590612ca2565b60405180910390fd5b5f61141a600a5461140c6006546004546122ec90919063ffffffff16565b6122d790919063ffffffff16565b905061145b6040518060400160405280601a81526020017f726566756e64416d6f756e74506572436f6e7472696275746f7200000000000081525082612226565b6114996040518060400160405280601a81526020017f436865636b696e6720657665727920636f6e7472696275746f72000000000000815250612301565b5f5b600a54811015611703575f8190506114e86040518060400160405280601081526020017f636f6e7472696275746f72206c697374000000000000000000000000000000008152508261239a565b5f600c5f8373ffffffffffffffffffffffffffffffffffffffff1673ffffffffffffffffffffffffffffffffffffffff1681526020019081526020015f205490506115676040518060400160405280601681526020017f48656c6c6f20686920686f7720646f20796f7520646f00000000000000000000815250612301565b838111156116af575f73ffffffffffffffffffffffffffffffffffffffff168273ffffffffffffffffffffffffffffffffffffffff161415806115d657505f73ffffffffffffffffffffffffffffffffffffffff168273ffffffffffffffffffffffffffffffffffffffff1614155b611615576040517f08c379a000000000000000000000000000000000000000000000000000000000815260040161160c90612d0a565b60405180910390fd5b6116366040518060600160405280602481526020016133c560249139612301565b5f8273ffffffffffffffffffffffffffffffffffffffff166108fc8690811502906040515f60405180830381858888f193505050509050806116ad576040517f08c379a00000000000000000000000000000000000000000000000000000000081526004016116a490612d98565b60405180910390fd5b505b6116ee6040518060400160405280600d81526020017f72657475726e20416d6f756e740000000000000000000000000000000000000081525085612226565b505080806116fb90612de3565b91505061149b565b50505050611913565b60065460045403611912576117586040518060400160405280600b81526020017f546f74616c526169736564000000000000000000000000000000000000000000815250600454612226565b61178260646117746005546006546122c290919063ffffffff16565b6122d790919063ffffffff16565b9150611799826006546122ec90919063ffffffff16565b90506117bd6040518060600160405280602b8152602001613370602b913983612226565b6117df6040518060600160405280602881526020016133486028913982612226565b5f60035f9054906101000a900473ffffffffffffffffffffffffffffffffffffffff1673ffffffffffffffffffffffffffffffffffffffff166108fc8390811502906040515f60405180830381858888f19350505050905080611877576040517f08c379a000000000000000000000000000000000000000000000000000000000815260040161186e90612e9a565b60405180910390fd5b5f60025f9054906101000a900473ffffffffffffffffffffffffffffffffffffffff1673ffffffffffffffffffffffffffffffffffffffff166108fc8590811502906040515f60405180830381858888f1935050505090508061190f576040517f08c379a000000000000000000000000000000000000000000000000000000000815260040161190690612e9a565b60405180910390fd5b50505b5b5b5f6004819055505f600a819055505f60095f6101000a81548160ff0219169083151502179055506001600960016101000a81548160ff0219169083151502179055505050611960612436565b565b60085481565b5f805f8481526020019081526020015f205f015f8373ffffffffffffffffffffffffffffffffffffffff1673ffffffffffffffffffffffffffffffffffffffff1681526020019081526020015f205f9054906101000a900460ff16905092915050565b600d602052805f5260405f205f915054906101000a900460ff1681565b5f801b81565b60075481565b611a3f7fa49807205ce4d355092ef5a8a18f56e8913cf4a201fbe287825b095693c2177560035f9054906101000a900473ffffffffffffffffffffffffffffffffffffffff16611968565b611a7e576040517f08c379a0000000000000000000000000000000000000000000000000000000008152600401611a7590612931565b60405180910390fd5b806006819055507fe65e8475ae8eba2b732012a0734794875a0fdbdccfed8398fff4da0c8e0fa00e81604051611ab491906127b5565b60405180910390a150565b60045481565b611b107fa49807205ce4d355092ef5a8a18f56e8913cf4a201fbe287825b095693c2177560035f9054906101000a900473ffffffffffffffffffffffffffffffffffffffff16611968565b611b4f576040517f08c379a0000000000000000000000000000000000000000000000000000000008152600401611b4690612931565b60405180910390fd5b8060068190555050565b611b628261094d565b611b6b81611f51565b611b758383612055565b50505050565b611b8361213e565b60095f9054906101000a900460ff168015611bab5750600960019054906101000a900460ff16155b611bea576040517f08c379a0000000000000000000000000000000000000000000000000000000008152600401611be190612f02565b60405180910390fd5b6007543410158015611bfc57505f3414155b611c3b576040517f08c379a0000000000000000000000000000000000000000000000000000000008152600401611c3290612f90565b60405180910390fd5b611c8b34600c5f3373ffffffffffffffffffffffffffffffffffffffff1673ffffffffffffffffffffffffffffffffffffffff1681526020019081526020015f205461243f90919063ffffffff16565b600c5f3373ffffffffffffffffffffffffffffffffffffffff1673ffffffffffffffffffffffffffffffffffffffff1681526020019081526020015f2081905550611ce13460045461243f90919063ffffffff16565b600481905550600a5f815480929190611cf990612de3565b9190505550611d0733612454565b611d6c57600b33908060018154018082558091505060019003905f5260205f20015f9091909190916101000a81548173ffffffffffffffffffffffffffffffffffffffff021916908373ffffffffffffffffffffffffffffffffffffffff1602179055505b3373ffffffffffffffffffffffffffffffffffffffff167f1d5d67670fd52e22078bbab523a5ead8206c7991225dd63095e3d3d6b5be3baf3442604051611db4929190612fae565b60405180910390a2611dc4612436565b565b611e117fa49807205ce4d355092ef5a8a18f56e8913cf4a201fbe287825b095693c2177560035f9054906101000a900473ffffffffffffffffffffffffffffffffffffffff16611968565b611e50576040517f08c379a0000000000000000000000000000000000000000000000000000000008152600401611e4790612931565b60405180910390fd5b6001600d5f8373ffffffffffffffffffffffffffffffffffffffff1673ffffffffffffffffffffffffffffffffffffffff1681526020019081526020015f205f6101000a81548160ff0219169083151502179055507ff93f9a76c1bf3444d22400a00cb9fe990e6abe9dbb333fda48859cfee864543d816001604051611ed79291906129b7565b60405180910390a150565b60065481565b5f7f01ffc9a7000000000000000000000000000000000000000000000000000000007bffffffffffffffffffffffffffffffffffffffffffffffffffffffff1916827bffffffffffffffffffffffffffffffffffffffffffffffffffffffff1916149050919050565b611f6281611f5d61204e565b6124fc565b50565b5f611f708383611968565b6120445760015f808581526020019081526020015f205f015f8473ffffffffffffffffffffffffffffffffffffffff1673ffffffffffffffffffffffffffffffffffffffff1681526020019081526020015f205f6101000a81548160ff021916908315150217905550611fe161204e565b73ffffffffffffffffffffffffffffffffffffffff168273ffffffffffffffffffffffffffffffffffffffff16847f2f8788117e7eff1d82e926ec794901d17c78024a50270940304540a733656f0d60405160405180910390a460019050612048565b5f90505b92915050565b5f33905090565b5f6120608383611968565b15612134575f805f8581526020019081526020015f205f015f8473ffffffffffffffffffffffffffffffffffffffff1673ffffffffffffffffffffffffffffffffffffffff1681526020019081526020015f205f6101000a81548160ff0219169083151502179055506120d161204e565b73ffffffffffffffffffffffffffffffffffffffff168273ffffffffffffffffffffffffffffffffffffffff16847ff6391f5c32d9c69d2a47ea670b442974b53935d1edc7fd64eb21e047a839171b60405160405180910390a460019050612138565b5f90505b92915050565b600260015403612183576040517f08c379a000000000000000000000000000000000000000000000000000000000815260040161217a9061301f565b60405180910390fd5b6002600181905550565b600960019054906101000a900460ff16156121dd576040517f08c379a00000000000000000000000000000000000000000000000000000000081526004016121d490613087565b60405180910390fd5b6001600960016101000a81548160ff0219169083151502179055507f5b2ae23cd3ac75c4244afecde24848a0616ca7390c4c330a40a86d7e896d946260405160405180910390a1565b6122be828260405160240161223c92919061311f565b6040516020818303038152906040527fb60e72cc000000000000000000000000000000000000000000000000000000007bffffffffffffffffffffffffffffffffffffffffffffffffffffffff19166020820180517bffffffffffffffffffffffffffffffffffffffffffffffffffffffff838183161783525050505061254d565b5050565b5f81836122cf919061314d565b905092915050565b5f81836122e491906131bb565b905092915050565b5f81836122f991906131eb565b905092915050565b61239781604051602401612315919061321e565b6040516020818303038152906040527f41304fac000000000000000000000000000000000000000000000000000000007bffffffffffffffffffffffffffffffffffffffffffffffffffffffff19166020820180517bffffffffffffffffffffffffffffffffffffffffffffffffffffffff838183161783525050505061254d565b50565b61243282826040516024016123b092919061323e565b6040516020818303038152906040527f319af333000000000000000000000000000000000000000000000000000000007bffffffffffffffffffffffffffffffffffffffffffffffffffffffff19166020820180517bffffffffffffffffffffffffffffffffffffffffffffffffffffffff838183161783525050505061254d565b5050565b60018081905550565b5f818361244c919061326c565b905092915050565b5f805f90505b600b805490508110156124f2578273ffffffffffffffffffffffffffffffffffffffff16600b82815481106124925761249161329f565b5b905f5260205f20015f9054906101000a900473ffffffffffffffffffffffffffffffffffffffff1673ffffffffffffffffffffffffffffffffffffffff16036124df5760019150506124f7565b80806124ea90612de3565b91505061245a565b505f90505b919050565b6125068282611968565b6125495780826040517fe2517d3f0000000000000000000000000000000000000000000000000000000081526004016125409291906132cc565b60405180910390fd5b5050565b6125648161255c612567612586565b63ffffffff16565b50565b5f6a636f6e736f6c652e6c6f6790505f80835160208501845afa505050565b612591819050919050565b6125996132f3565b565b5f82825260208201905092915050565b7f436f6e747261637420646f6573206e6f742061636365707420646972656374205f8201527f7061796d656e7473000000000000000000000000000000000000000000000000602082015250565b5f61260560288361259b565b9150612610826125ab565b604082019050919050565b5f6020820190508181035f830152612632816125f9565b9050919050565b5f80fd5b5f7fffffffff0000000000000000000000000000000000000000000000000000000082169050919050565b6126718161263d565b811461267b575f80fd5b50565b5f8135905061268c81612668565b92915050565b5f602082840312156126a7576126a6612639565b5b5f6126b48482850161267e565b91505092915050565b5f8115159050919050565b6126d1816126bd565b82525050565b5f6020820190506126ea5f8301846126c8565b92915050565b5f819050919050565b612702816126f0565b811461270c575f80fd5b50565b5f8135905061271d816126f9565b92915050565b5f6020828403121561273857612737612639565b5b5f6127458482850161270f565b91505092915050565b5f73ffffffffffffffffffffffffffffffffffffffff82169050919050565b5f6127778261274e565b9050919050565b6127878161276d565b82525050565b5f6020820190506127a05f83018461277e565b92915050565b6127af816126f0565b82525050565b5f6020820190506127c85f8301846127a6565b92915050565b5f819050919050565b6127e0816127ce565b81146127ea575f80fd5b50565b5f813590506127fb816127d7565b92915050565b5f6020828403121561281657612815612639565b5b5f612823848285016127ed565b91505092915050565b612835816127ce565b82525050565b5f60208201905061284e5f83018461282c565b92915050565b61285d8161276d565b8114612867575f80fd5b50565b5f8135905061287881612854565b92915050565b5f806040838503121561289457612893612639565b5b5f6128a1858286016127ed565b92505060206128b28582860161286a565b9150509250929050565b5f602082840312156128d1576128d0612639565b5b5f6128de8482850161286a565b91505092915050565b7f4e6f74207468652061646d696e000000000000000000000000000000000000005f82015250565b5f61291b600d8361259b565b9150612926826128e7565b602082019050919050565b5f6020820190508181035f8301526129488161290f565b9050919050565b7f526169736520616c7265616479207374617274656400000000000000000000005f82015250565b5f61298360158361259b565b915061298e8261294f565b602082019050919050565b5f6020820190508181035f8301526129b081612977565b9050919050565b5f6040820190506129ca5f83018561277e565b6129d760208301846126c8565b9392505050565b7f4d757374206861766520646566696e656420526f6c65730000000000000000005f82015250565b5f612a1260178361259b565b9150612a1d826129de565b602082019050919050565b5f6020820190508181035f830152612a3f81612a06565b9050919050565b7f5261697365206e6f7420656e64656400000000000000000000000000000000005f82015250565b5f612a7a600f8361259b565b9150612a8582612a46565b602082019050919050565b5f6020820190508181035f830152612aa781612a6e565b9050919050565b7f526173696564416d6f75742073686f756c64206e6f74206265207a65726f00005f82015250565b5f612ae2601e8361259b565b9150612aed82612aae565b602082019050919050565b5f6020820190508181035f830152612b0f81612ad6565b9050919050565b7f54786e206661696c656420666f72207468652061646d696e207768656e20746f5f8201527f74616c20726173696564203c2068617264636170000000000000000000000000602082015250565b5f612b7060348361259b565b9150612b7b82612b16565b604082019050919050565b5f6020820190508181035f830152612b9d81612b64565b9050919050565b7f54786e206661696c656420666f72207468652053757065722041646d696e20775f8201527f68656e20746f74616c20726173696564203c2068617264636170000000000000602082015250565b5f612bfe603a8361259b565b9150612c0982612ba4565b604082019050919050565b5f6020820190508181035f830152612c2b81612bf2565b9050919050565b7f54786e206661696c656420666f72207468652061646d696e207768656e20746f5f8201527f74616c20726173696564203e2068617264636170000000000000000000000000602082015250565b5f612c8c60348361259b565b9150612c9782612c32565b604082019050919050565b5f6020820190508181035f830152612cb981612c80565b9050919050565b7f4e6f7420612076616c69642061646472657373000000000000000000000000005f82015250565b5f612cf460138361259b565b9150612cff82612cc0565b602082019050919050565b5f6020820190508181035f830152612d2181612ce8565b9050919050565b7f54786e206661696c656420666f722074686520636f6e7472696275746f7253655f8201527f6e64000000000000000000000000000000000000000000000000000000000000602082015250565b5f612d8260228361259b565b9150612d8d82612d28565b604082019050919050565b5f6020820190508181035f830152612daf81612d76565b9050919050565b7f4e487b71000000000000000000000000000000000000000000000000000000005f52601160045260245ffd5b5f612ded826126f0565b91507fffffffffffffffffffffffffffffffffffffffffffffffffffffffffffffffff8203612e1f57612e1e612db6565b5b600182019050919050565b7f54786e206661696c656420666f72207468652061646d696e207768656e20746f5f8201527f74616c20726173696564203d3d20686172646361700000000000000000000000602082015250565b5f612e8460358361259b565b9150612e8f82612e2a565b604082019050919050565b5f6020820190508181035f830152612eb181612e78565b9050919050565b7f5261736965206d757374206265206f6e676f696e6700000000000000000000005f82015250565b5f612eec60158361259b565b9150612ef782612eb8565b602082019050919050565b5f6020820190508181035f830152612f1981612ee0565b9050919050565b7f436f6e747269627574696f6e2073686f756c64206265206772656174657220745f8201527f68616e206d696e696d756d20436f6e747269627574696f6e0000000000000000602082015250565b5f612f7a60388361259b565b9150612f8582612f20565b604082019050919050565b5f6020820190508181035f830152612fa781612f6e565b9050919050565b5f604082019050612fc15f8301856127a6565b612fce60208301846127a6565b9392505050565b7f5265656e7472616e637947756172643a207265656e7472616e742063616c6c005f82015250565b5f613009601f8361259b565b915061301482612fd5565b602082019050919050565b5f6020820190508181035f83015261303681612ffd565b9050919050565b7f526169736520616c726561647920656e646564000000000000000000000000005f82015250565b5f61307160138361259b565b915061307c8261303d565b602082019050919050565b5f6020820190508181035f83015261309e81613065565b9050919050565b5f81519050919050565b5f5b838110156130cc5780820151818401526020810190506130b1565b5f8484015250505050565b5f601f19601f8301169050919050565b5f6130f1826130a5565b6130fb818561259b565b935061310b8185602086016130af565b613114816130d7565b840191505092915050565b5f6040820190508181035f83015261313781856130e7565b905061314660208301846127a6565b9392505050565b5f613157826126f0565b9150613162836126f0565b9250828202613170816126f0565b9150828204841483151761318757613186612db6565b5b5092915050565b7f4e487b71000000000000000000000000000000000000000000000000000000005f52601260045260245ffd5b5f6131c5826126f0565b91506131d0836126f0565b9250826131e0576131df61318e565b5b828204905092915050565b5f6131f5826126f0565b9150613200836126f0565b925082820390508181111561321857613217612db6565b5b92915050565b5f6020820190508181035f83015261323681846130e7565b905092915050565b5f6040820190508181035f83015261325681856130e7565b9050613265602083018461277e565b9392505050565b5f613276826126f0565b9150613281836126f0565b925082820190508082111561329957613298612db6565b5b92915050565b7f4e487b71000000000000000000000000000000000000000000000000000000005f52603260045260245ffd5b5f6040820190506132df5f83018561277e565b6132ec602083018461282c565b9392505050565b7f4e487b71000000000000000000000000000000000000000000000000000000005f52605160045260245ffdfe61646d696e416d6f756e74205768656e20746f74616c20726173696564203c206861726463617061646d696e416d6f756e74205768656e20746f74616c20726173696564203d3d2068617264636170737570657241646d696e416d74205768656e20746f74616c20726173696564203d3d206861726463617020737570657241646d696e416d74205768656e20746f74616c20726173696564203c206861726463617020417265207765207265616c6c7920726566756e64696e6720746f20746865207573657273737570657241646d696e416d74205768656e20746f74616c20726173696564203e20686172646361702061646d696e416d6f756e74205768656e20746f74616c20726173696564203e2068617264636170a2646970667358221220f4cbe5d9729fcbac92b720452eb956bc4c8a43d4b3057c028a9873c6519a053064736f6c63430008140033",
			"opcodes": "PUSH1 0x80 PUSH1 0x40 MSTORE PUSH1 0xA PUSH1 0x5 SSTORE CALLVALUE DUP1 ISZERO PUSH3 0x15 JUMPI PUSH0 DUP1 REVERT JUMPDEST POP PUSH1 0x40 MLOAD PUSH3 0x384F CODESIZE SUB DUP1 PUSH3 0x384F DUP4 CODECOPY DUP2 DUP2 ADD PUSH1 0x40 MSTORE DUP2 ADD SWAP1 PUSH3 0x3B SWAP2 SWAP1 PUSH3 0x363 JUMP JUMPDEST PUSH1 0x1 DUP1 DUP2 SWAP1 SSTORE POP DUP2 PUSH1 0x2 PUSH0 PUSH2 0x100 EXP DUP2 SLOAD DUP2 PUSH20 0xFFFFFFFFFFFFFFFFFFFFFFFFFFFFFFFFFFFFFFFF MUL NOT AND SWAP1 DUP4 PUSH20 0xFFFFFFFFFFFFFFFFFFFFFFFFFFFFFFFFFFFFFFFF AND MUL OR SWAP1 SSTORE POP DUP4 PUSH1 0x3 PUSH0 PUSH2 0x100 EXP DUP2 SLOAD DUP2 PUSH20 0xFFFFFFFFFFFFFFFFFFFFFFFFFFFFFFFFFFFFFFFF MUL NOT AND SWAP1 DUP4 PUSH20 0xFFFFFFFFFFFFFFFFFFFFFFFFFFFFFFFFFFFFFFFF AND MUL OR SWAP1 SSTORE POP DUP3 PUSH1 0x6 DUP2 SWAP1 SSTORE POP DUP1 PUSH1 0x7 DUP2 SWAP1 SSTORE POP PUSH3 0x123 PUSH32 0xA49807205CE4D355092EF5A8A18F56E8913CF4A201FBE287825B095693C21775 PUSH1 0x3 PUSH0 SWAP1 SLOAD SWAP1 PUSH2 0x100 EXP SWAP1 DIV PUSH20 0xFFFFFFFFFFFFFFFFFFFFFFFFFFFFFFFFFFFFFFFF AND PUSH3 0x161 PUSH1 0x20 SHL PUSH1 0x20 SHR JUMP JUMPDEST POP PUSH3 0x156 PUSH32 0xD980155B32CF66E6AF51E0972D64B9D5EFE0E6F237DFAA4BDC83F990DD79E9C8 DUP4 PUSH3 0x161 PUSH1 0x20 SHL PUSH1 0x20 SHR JUMP JUMPDEST POP POP POP POP POP PUSH3 0x3D2 JUMP JUMPDEST PUSH0 PUSH3 0x174 DUP4 DUP4 PUSH3 0x25C PUSH1 0x20 SHL PUSH1 0x20 SHR JUMP JUMPDEST PUSH3 0x252 JUMPI PUSH1 0x1 PUSH0 DUP1 DUP6 DUP2 MSTORE PUSH1 0x20 ADD SWAP1 DUP2 MSTORE PUSH1 0x20 ADD PUSH0 KECCAK256 PUSH0 ADD PUSH0 DUP5 PUSH20 0xFFFFFFFFFFFFFFFFFFFFFFFFFFFFFFFFFFFFFFFF AND PUSH20 0xFFFFFFFFFFFFFFFFFFFFFFFFFFFFFFFFFFFFFFFF AND DUP2 MSTORE PUSH1 0x20 ADD SWAP1 DUP2 MSTORE PUSH1 0x20 ADD PUSH0 KECCAK256 PUSH0 PUSH2 0x100 EXP DUP2 SLOAD DUP2 PUSH1 0xFF MUL NOT AND SWAP1 DUP4 ISZERO ISZERO MUL OR SWAP1 SSTORE POP PUSH3 0x1EE PUSH3 0x2BF PUSH1 0x20 SHL PUSH1 0x20 SHR JUMP JUMPDEST PUSH20 0xFFFFFFFFFFFFFFFFFFFFFFFFFFFFFFFFFFFFFFFF AND DUP3 PUSH20 0xFFFFFFFFFFFFFFFFFFFFFFFFFFFFFFFFFFFFFFFF AND DUP5 PUSH32 0x2F8788117E7EFF1D82E926EC794901D17C78024A50270940304540A733656F0D PUSH1 0x40 MLOAD PUSH1 0x40 MLOAD DUP1 SWAP2 SUB SWAP1 LOG4 PUSH1 0x1 SWAP1 POP PUSH3 0x256 JUMP JUMPDEST PUSH0 SWAP1 POP JUMPDEST SWAP3 SWAP2 POP POP JUMP JUMPDEST PUSH0 DUP1 PUSH0 DUP5 DUP2 MSTORE PUSH1 0x20 ADD SWAP1 DUP2 MSTORE PUSH1 0x20 ADD PUSH0 KECCAK256 PUSH0 ADD PUSH0 DUP4 PUSH20 0xFFFFFFFFFFFFFFFFFFFFFFFFFFFFFFFFFFFFFFFF AND PUSH20 0xFFFFFFFFFFFFFFFFFFFFFFFFFFFFFFFFFFFFFFFF AND DUP2 MSTORE PUSH1 0x20 ADD SWAP1 DUP2 MSTORE PUSH1 0x20 ADD PUSH0 KECCAK256 PUSH0 SWAP1 SLOAD SWAP1 PUSH2 0x100 EXP SWAP1 DIV PUSH1 0xFF AND SWAP1 POP SWAP3 SWAP2 POP POP JUMP JUMPDEST PUSH0 CALLER SWAP1 POP SWAP1 JUMP JUMPDEST PUSH0 DUP1 REVERT JUMPDEST PUSH0 PUSH20 0xFFFFFFFFFFFFFFFFFFFFFFFFFFFFFFFFFFFFFFFF DUP3 AND SWAP1 POP SWAP2 SWAP1 POP JUMP JUMPDEST PUSH0 PUSH3 0x2F5 DUP3 PUSH3 0x2CA JUMP JUMPDEST SWAP1 POP SWAP2 SWAP1 POP JUMP JUMPDEST PUSH3 0x307 DUP2 PUSH3 0x2E9 JUMP JUMPDEST DUP2 EQ PUSH3 0x312 JUMPI PUSH0 DUP1 REVERT JUMPDEST POP JUMP JUMPDEST PUSH0 DUP2 MLOAD SWAP1 POP PUSH3 0x325 DUP2 PUSH3 0x2FC JUMP JUMPDEST SWAP3 SWAP2 POP POP JUMP JUMPDEST PUSH0 DUP2 SWAP1 POP SWAP2 SWAP1 POP JUMP JUMPDEST PUSH3 0x33F DUP2 PUSH3 0x32B JUMP JUMPDEST DUP2 EQ PUSH3 0x34A JUMPI PUSH0 DUP1 REVERT JUMPDEST POP JUMP JUMPDEST PUSH0 DUP2 MLOAD SWAP1 POP PUSH3 0x35D DUP2 PUSH3 0x334 JUMP JUMPDEST SWAP3 SWAP2 POP POP JUMP JUMPDEST PUSH0 DUP1 PUSH0 DUP1 PUSH1 0x80 DUP6 DUP8 SUB SLT ISZERO PUSH3 0x37E JUMPI PUSH3 0x37D PUSH3 0x2C6 JUMP JUMPDEST JUMPDEST PUSH0 PUSH3 0x38D DUP8 DUP3 DUP9 ADD PUSH3 0x315 JUMP JUMPDEST SWAP5 POP POP PUSH1 0x20 PUSH3 0x3A0 DUP8 DUP3 DUP9 ADD PUSH3 0x34D JUMP JUMPDEST SWAP4 POP POP PUSH1 0x40 PUSH3 0x3B3 DUP8 DUP3 DUP9 ADD PUSH3 0x315 JUMP JUMPDEST SWAP3 POP POP PUSH1 0x60 PUSH3 0x3C6 DUP8 DUP3 DUP9 ADD PUSH3 0x34D JUMP JUMPDEST SWAP2 POP POP SWAP3 SWAP6 SWAP2 SWAP5 POP SWAP3 POP JUMP JUMPDEST PUSH2 0x346F DUP1 PUSH3 0x3E0 PUSH0 CODECOPY PUSH0 RETURN INVALID PUSH1 0x80 PUSH1 0x40 MSTORE PUSH1 0x4 CALLDATASIZE LT PUSH2 0x1F1 JUMPI PUSH0 CALLDATALOAD PUSH1 0xE0 SHR DUP1 PUSH4 0x7C7C7C3C GT PUSH2 0x10C JUMPI DUP1 PUSH4 0xA217FDDF GT PUSH2 0x9F JUMPI DUP1 PUSH4 0xD18D944B GT PUSH2 0x6E JUMPI DUP1 PUSH4 0xD18D944B EQ PUSH2 0x6F7 JUMPI DUP1 PUSH4 0xD547741F EQ PUSH2 0x71F JUMPI DUP1 PUSH4 0xD7BB99BA EQ PUSH2 0x747 JUMPI DUP1 PUSH4 0xE43252D7 EQ PUSH2 0x751 JUMPI DUP1 PUSH4 0xFB86A404 EQ PUSH2 0x779 JUMPI PUSH2 0x231 JUMP JUMPDEST DUP1 PUSH4 0xA217FDDF EQ PUSH2 0x651 JUMPI DUP1 PUSH4 0xAAFFADF3 EQ PUSH2 0x67B JUMPI DUP1 PUSH4 0xB8E0D08D EQ PUSH2 0x6A5 JUMPI DUP1 PUSH4 0xC5C4744C EQ PUSH2 0x6CD JUMPI PUSH2 0x231 JUMP JUMPDEST DUP1 PUSH4 0x8D070E75 GT PUSH2 0xDB JUMPI DUP1 PUSH4 0x8D070E75 EQ PUSH2 0x5A5 JUMPI DUP1 PUSH4 0x8D3D6576 EQ PUSH2 0x5AF JUMPI DUP1 PUSH4 0x91D14854 EQ PUSH2 0x5D9 JUMPI DUP1 PUSH4 0x9B19251A EQ PUSH2 0x615 JUMPI PUSH2 0x231 JUMP JUMPDEST DUP1 PUSH4 0x7C7C7C3C EQ PUSH2 0x501 JUMPI DUP1 PUSH4 0x7CE3489B EQ PUSH2 0x52B JUMPI DUP1 PUSH4 0x7FD6F15C EQ PUSH2 0x553 JUMPI DUP1 PUSH4 0x8AB1D681 EQ PUSH2 0x57D JUMPI PUSH2 0x231 JUMP JUMPDEST DUP1 PUSH4 0x36568ABE GT PUSH2 0x184 JUMPI DUP1 PUSH4 0x6D66D2CE GT PUSH2 0x153 JUMPI DUP1 PUSH4 0x6D66D2CE EQ PUSH2 0x46D JUMPI DUP1 PUSH4 0x6F9FB98A EQ PUSH2 0x483 JUMPI DUP1 PUSH4 0x708DEE5E EQ PUSH2 0x4AD JUMPI DUP1 PUSH4 0x75B238FC EQ PUSH2 0x4D7 JUMPI PUSH2 0x231 JUMP JUMPDEST DUP1 PUSH4 0x36568ABE EQ PUSH2 0x3B7 JUMPI DUP1 PUSH4 0x3E0498D2 EQ PUSH2 0x3DF JUMPI DUP1 PUSH4 0x42E94C90 EQ PUSH2 0x409 JUMPI DUP1 PUSH4 0x473B0D46 EQ PUSH2 0x445 JUMPI PUSH2 0x231 JUMP JUMPDEST DUP1 PUSH4 0x1E2F73B1 GT PUSH2 0x1C0 JUMPI DUP1 PUSH4 0x1E2F73B1 EQ PUSH2 0x2FF JUMPI DUP1 PUSH4 0x248A9CA3 EQ PUSH2 0x329 JUMPI DUP1 PUSH4 0x29575F6A EQ PUSH2 0x365 JUMPI DUP1 PUSH4 0x2F2FF15D EQ PUSH2 0x38F JUMPI PUSH2 0x231 JUMP JUMPDEST DUP1 PUSH4 0x1FFC9A7 EQ PUSH2 0x235 JUMPI DUP1 PUSH4 0x3ED9D21 EQ PUSH2 0x271 JUMPI DUP1 PUSH4 0xB9F2C4A EQ PUSH2 0x299 JUMPI DUP1 PUSH4 0x1E206F15 EQ PUSH2 0x2D5 JUMPI PUSH2 0x231 JUMP JUMPDEST CALLDATASIZE PUSH2 0x231 JUMPI PUSH1 0x40 MLOAD PUSH32 0x8C379A000000000000000000000000000000000000000000000000000000000 DUP2 MSTORE PUSH1 0x4 ADD PUSH2 0x228 SWAP1 PUSH2 0x261B JUMP JUMPDEST PUSH1 0x40 MLOAD DUP1 SWAP2 SUB SWAP1 REVERT JUMPDEST PUSH0 DUP1 REVERT JUMPDEST CALLVALUE DUP1 ISZERO PUSH2 0x240 JUMPI PUSH0 DUP1 REVERT JUMPDEST POP PUSH2 0x25B PUSH1 0x4 DUP1 CALLDATASIZE SUB DUP2 ADD SWAP1 PUSH2 0x256 SWAP2 SWAP1 PUSH2 0x2692 JUMP JUMPDEST PUSH2 0x7A3 JUMP JUMPDEST PUSH1 0x40 MLOAD PUSH2 0x268 SWAP2 SWAP1 PUSH2 0x26D7 JUMP JUMPDEST PUSH1 0x40 MLOAD DUP1 SWAP2 SUB SWAP1 RETURN JUMPDEST CALLVALUE DUP1 ISZERO PUSH2 0x27C JUMPI PUSH0 DUP1 REVERT JUMPDEST POP PUSH2 0x297 PUSH1 0x4 DUP1 CALLDATASIZE SUB DUP2 ADD SWAP1 PUSH2 0x292 SWAP2 SWAP1 PUSH2 0x2723 JUMP JUMPDEST PUSH2 0x81C JUMP JUMPDEST STOP JUMPDEST CALLVALUE DUP1 ISZERO PUSH2 0x2A4 JUMPI PUSH0 DUP1 REVERT JUMPDEST POP PUSH2 0x2BF PUSH1 0x4 DUP1 CALLDATASIZE SUB DUP2 ADD SWAP1 PUSH2 0x2BA SWAP2 SWAP1 PUSH2 0x2723 JUMP JUMPDEST PUSH2 0x8E7 JUMP JUMPDEST PUSH1 0x40 MLOAD PUSH2 0x2CC SWAP2 SWAP1 PUSH2 0x278D JUMP JUMPDEST PUSH1 0x40 MLOAD DUP1 SWAP2 SUB SWAP1 RETURN JUMPDEST CALLVALUE DUP1 ISZERO PUSH2 0x2E0 JUMPI PUSH0 DUP1 REVERT JUMPDEST POP PUSH2 0x2E9 PUSH2 0x922 JUMP JUMPDEST PUSH1 0x40 MLOAD PUSH2 0x2F6 SWAP2 SWAP1 PUSH2 0x27B5 JUMP JUMPDEST PUSH1 0x40 MLOAD DUP1 SWAP2 SUB SWAP1 RETURN JUMPDEST CALLVALUE DUP1 ISZERO PUSH2 0x30A JUMPI PUSH0 DUP1 REVERT JUMPDEST POP PUSH2 0x313 PUSH2 0x928 JUMP JUMPDEST PUSH1 0x40 MLOAD PUSH2 0x320 SWAP2 SWAP1 PUSH2 0x278D JUMP JUMPDEST PUSH1 0x40 MLOAD DUP1 SWAP2 SUB SWAP1 RETURN JUMPDEST CALLVALUE DUP1 ISZERO PUSH2 0x334 JUMPI PUSH0 DUP1 REVERT JUMPDEST POP PUSH2 0x34F PUSH1 0x4 DUP1 CALLDATASIZE SUB DUP2 ADD SWAP1 PUSH2 0x34A SWAP2 SWAP1 PUSH2 0x2801 JUMP JUMPDEST PUSH2 0x94D JUMP JUMPDEST PUSH1 0x40 MLOAD PUSH2 0x35C SWAP2 SWAP1 PUSH2 0x283B JUMP JUMPDEST PUSH1 0x40 MLOAD DUP1 SWAP2 SUB SWAP1 RETURN JUMPDEST CALLVALUE DUP1 ISZERO PUSH2 0x370 JUMPI PUSH0 DUP1 REVERT JUMPDEST POP PUSH2 0x379 PUSH2 0x969 JUMP JUMPDEST PUSH1 0x40 MLOAD PUSH2 0x386 SWAP2 SWAP1 PUSH2 0x278D JUMP JUMPDEST PUSH1 0x40 MLOAD DUP1 SWAP2 SUB SWAP1 RETURN JUMPDEST CALLVALUE DUP1 ISZERO PUSH2 0x39A JUMPI PUSH0 DUP1 REVERT JUMPDEST POP PUSH2 0x3B5 PUSH1 0x4 DUP1 CALLDATASIZE SUB DUP2 ADD SWAP1 PUSH2 0x3B0 SWAP2 SWAP1 PUSH2 0x287E JUMP JUMPDEST PUSH2 0x98E JUMP JUMPDEST STOP JUMPDEST CALLVALUE DUP1 ISZERO PUSH2 0x3C2 JUMPI PUSH0 DUP1 REVERT JUMPDEST POP PUSH2 0x3DD PUSH1 0x4 DUP1 CALLDATASIZE SUB DUP2 ADD SWAP1 PUSH2 0x3D8 SWAP2 SWAP1 PUSH2 0x287E JUMP JUMPDEST PUSH2 0x9B0 JUMP JUMPDEST STOP JUMPDEST CALLVALUE DUP1 ISZERO PUSH2 0x3EA JUMPI PUSH0 DUP1 REVERT JUMPDEST POP PUSH2 0x3F3 PUSH2 0xA2B JUMP JUMPDEST PUSH1 0x40 MLOAD PUSH2 0x400 SWAP2 SWAP1 PUSH2 0x26D7 JUMP JUMPDEST PUSH1 0x40 MLOAD DUP1 SWAP2 SUB SWAP1 RETURN JUMPDEST CALLVALUE DUP1 ISZERO PUSH2 0x414 JUMPI PUSH0 DUP1 REVERT JUMPDEST POP PUSH2 0x42F PUSH1 0x4 DUP1 CALLDATASIZE SUB DUP2 ADD SWAP1 PUSH2 0x42A SWAP2 SWAP1 PUSH2 0x28BC JUMP JUMPDEST PUSH2 0xA3E JUMP JUMPDEST PUSH1 0x40 MLOAD PUSH2 0x43C SWAP2 SWAP1 PUSH2 0x27B5 JUMP JUMPDEST PUSH1 0x40 MLOAD DUP1 SWAP2 SUB SWAP1 RETURN JUMPDEST CALLVALUE DUP1 ISZERO PUSH2 0x450 JUMPI PUSH0 DUP1 REVERT JUMPDEST POP PUSH2 0x46B PUSH1 0x4 DUP1 CALLDATASIZE SUB DUP2 ADD SWAP1 PUSH2 0x466 SWAP2 SWAP1 PUSH2 0x2723 JUMP JUMPDEST PUSH2 0xA53 JUMP JUMPDEST STOP JUMPDEST CALLVALUE DUP1 ISZERO PUSH2 0x478 JUMPI PUSH0 DUP1 REVERT JUMPDEST POP PUSH2 0x481 PUSH2 0xB1E JUMP JUMPDEST STOP JUMPDEST CALLVALUE DUP1 ISZERO PUSH2 0x48E JUMPI PUSH0 DUP1 REVERT JUMPDEST POP PUSH2 0x497 PUSH2 0xC3F JUMP JUMPDEST PUSH1 0x40 MLOAD PUSH2 0x4A4 SWAP2 SWAP1 PUSH2 0x27B5 JUMP JUMPDEST PUSH1 0x40 MLOAD DUP1 SWAP2 SUB SWAP1 RETURN JUMPDEST CALLVALUE DUP1 ISZERO PUSH2 0x4B8 JUMPI PUSH0 DUP1 REVERT JUMPDEST POP PUSH2 0x4C1 PUSH2 0xC46 JUMP JUMPDEST PUSH1 0x40 MLOAD PUSH2 0x4CE SWAP2 SWAP1 PUSH2 0x26D7 JUMP JUMPDEST PUSH1 0x40 MLOAD DUP1 SWAP2 SUB SWAP1 RETURN JUMPDEST CALLVALUE DUP1 ISZERO PUSH2 0x4E2 JUMPI PUSH0 DUP1 REVERT JUMPDEST POP PUSH2 0x4EB PUSH2 0xC58 JUMP JUMPDEST PUSH1 0x40 MLOAD PUSH2 0x4F8 SWAP2 SWAP1 PUSH2 0x283B JUMP JUMPDEST PUSH1 0x40 MLOAD DUP1 SWAP2 SUB SWAP1 RETURN JUMPDEST CALLVALUE DUP1 ISZERO PUSH2 0x50C JUMPI PUSH0 DUP1 REVERT JUMPDEST POP PUSH2 0x515 PUSH2 0xC7C JUMP JUMPDEST PUSH1 0x40 MLOAD PUSH2 0x522 SWAP2 SWAP1 PUSH2 0x283B JUMP JUMPDEST PUSH1 0x40 MLOAD DUP1 SWAP2 SUB SWAP1 RETURN JUMPDEST CALLVALUE DUP1 ISZERO PUSH2 0x536 JUMPI PUSH0 DUP1 REVERT JUMPDEST POP PUSH2 0x551 PUSH1 0x4 DUP1 CALLDATASIZE SUB DUP2 ADD SWAP1 PUSH2 0x54C SWAP2 SWAP1 PUSH2 0x2723 JUMP JUMPDEST PUSH2 0xCA0 JUMP JUMPDEST STOP JUMPDEST CALLVALUE DUP1 ISZERO PUSH2 0x55E JUMPI PUSH0 DUP1 REVERT JUMPDEST POP PUSH2 0x567 PUSH2 0xD34 JUMP JUMPDEST PUSH1 0x40 MLOAD PUSH2 0x574 SWAP2 SWAP1 PUSH2 0x27B5 JUMP JUMPDEST PUSH1 0x40 MLOAD DUP1 SWAP2 SUB SWAP1 RETURN JUMPDEST CALLVALUE DUP1 ISZERO PUSH2 0x588 JUMPI PUSH0 DUP1 REVERT JUMPDEST POP PUSH2 0x5A3 PUSH1 0x4 DUP1 CALLDATASIZE SUB DUP2 ADD SWAP1 PUSH2 0x59E SWAP2 SWAP1 PUSH2 0x28BC JUMP JUMPDEST PUSH2 0xD3A JUMP JUMPDEST STOP JUMPDEST PUSH2 0x5AD PUSH2 0xE54 JUMP JUMPDEST STOP JUMPDEST CALLVALUE DUP1 ISZERO PUSH2 0x5BA JUMPI PUSH0 DUP1 REVERT JUMPDEST POP PUSH2 0x5C3 PUSH2 0x1962 JUMP JUMPDEST PUSH1 0x40 MLOAD PUSH2 0x5D0 SWAP2 SWAP1 PUSH2 0x27B5 JUMP JUMPDEST PUSH1 0x40 MLOAD DUP1 SWAP2 SUB SWAP1 RETURN JUMPDEST CALLVALUE DUP1 ISZERO PUSH2 0x5E4 JUMPI PUSH0 DUP1 REVERT JUMPDEST POP PUSH2 0x5FF PUSH1 0x4 DUP1 CALLDATASIZE SUB DUP2 ADD SWAP1 PUSH2 0x5FA SWAP2 SWAP1 PUSH2 0x287E JUMP JUMPDEST PUSH2 0x1968 JUMP JUMPDEST PUSH1 0x40 MLOAD PUSH2 0x60C SWAP2 SWAP1 PUSH2 0x26D7 JUMP JUMPDEST PUSH1 0x40 MLOAD DUP1 SWAP2 SUB SWAP1 RETURN JUMPDEST CALLVALUE DUP1 ISZERO PUSH2 0x620 JUMPI PUSH0 DUP1 REVERT JUMPDEST POP PUSH2 0x63B PUSH1 0x4 DUP1 CALLDATASIZE SUB DUP2 ADD SWAP1 PUSH2 0x636 SWAP2 SWAP1 PUSH2 0x28BC JUMP JUMPDEST PUSH2 0x19CB JUMP JUMPDEST PUSH1 0x40 MLOAD PUSH2 0x648 SWAP2 SWAP1 PUSH2 0x26D7 JUMP JUMPDEST PUSH1 0x40 MLOAD DUP1 SWAP2 SUB SWAP1 RETURN JUMPDEST CALLVALUE DUP1 ISZERO PUSH2 0x65C JUMPI PUSH0 DUP1 REVERT JUMPDEST POP PUSH2 0x665 PUSH2 0x19E8 JUMP JUMPDEST PUSH1 0x40 MLOAD PUSH2 0x672 SWAP2 SWAP1 PUSH2 0x283B JUMP JUMPDEST PUSH1 0x40 MLOAD DUP1 SWAP2 SUB SWAP1 RETURN JUMPDEST CALLVALUE DUP1 ISZERO PUSH2 0x686 JUMPI PUSH0 DUP1 REVERT JUMPDEST POP PUSH2 0x68F PUSH2 0x19EE JUMP JUMPDEST PUSH1 0x40 MLOAD PUSH2 0x69C SWAP2 SWAP1 PUSH2 0x27B5 JUMP JUMPDEST PUSH1 0x40 MLOAD DUP1 SWAP2 SUB SWAP1 RETURN JUMPDEST CALLVALUE DUP1 ISZERO PUSH2 0x6B0 JUMPI PUSH0 DUP1 REVERT JUMPDEST POP PUSH2 0x6CB PUSH1 0x4 DUP1 CALLDATASIZE SUB DUP2 ADD SWAP1 PUSH2 0x6C6 SWAP2 SWAP1 PUSH2 0x2723 JUMP JUMPDEST PUSH2 0x19F4 JUMP JUMPDEST STOP JUMPDEST CALLVALUE DUP1 ISZERO PUSH2 0x6D8 JUMPI PUSH0 DUP1 REVERT JUMPDEST POP PUSH2 0x6E1 PUSH2 0x1ABF JUMP JUMPDEST PUSH1 0x40 MLOAD PUSH2 0x6EE SWAP2 SWAP1 PUSH2 0x27B5 JUMP JUMPDEST PUSH1 0x40 MLOAD DUP1 SWAP2 SUB SWAP1 RETURN JUMPDEST CALLVALUE DUP1 ISZERO PUSH2 0x702 JUMPI PUSH0 DUP1 REVERT JUMPDEST POP PUSH2 0x71D PUSH1 0x4 DUP1 CALLDATASIZE SUB DUP2 ADD SWAP1 PUSH2 0x718 SWAP2 SWAP1 PUSH2 0x2723 JUMP JUMPDEST PUSH2 0x1AC5 JUMP JUMPDEST STOP JUMPDEST CALLVALUE DUP1 ISZERO PUSH2 0x72A JUMPI PUSH0 DUP1 REVERT JUMPDEST POP PUSH2 0x745 PUSH1 0x4 DUP1 CALLDATASIZE SUB DUP2 ADD SWAP1 PUSH2 0x740 SWAP2 SWAP1 PUSH2 0x287E JUMP JUMPDEST PUSH2 0x1B59 JUMP JUMPDEST STOP JUMPDEST PUSH2 0x74F PUSH2 0x1B7B JUMP JUMPDEST STOP JUMPDEST CALLVALUE DUP1 ISZERO PUSH2 0x75C JUMPI PUSH0 DUP1 REVERT JUMPDEST POP PUSH2 0x777 PUSH1 0x4 DUP1 CALLDATASIZE SUB DUP2 ADD SWAP1 PUSH2 0x772 SWAP2 SWAP1 PUSH2 0x28BC JUMP JUMPDEST PUSH2 0x1DC6 JUMP JUMPDEST STOP JUMPDEST CALLVALUE DUP1 ISZERO PUSH2 0x784 JUMPI PUSH0 DUP1 REVERT JUMPDEST POP PUSH2 0x78D PUSH2 0x1EE2 JUMP JUMPDEST PUSH1 0x40 MLOAD PUSH2 0x79A SWAP2 SWAP1 PUSH2 0x27B5 JUMP JUMPDEST PUSH1 0x40 MLOAD DUP1 SWAP2 SUB SWAP1 RETURN JUMPDEST PUSH0 PUSH32 0x7965DB0B00000000000000000000000000000000000000000000000000000000 PUSH28 0xFFFFFFFFFFFFFFFFFFFFFFFFFFFFFFFFFFFFFFFFFFFFFFFFFFFFFFFF NOT AND DUP3 PUSH28 0xFFFFFFFFFFFFFFFFFFFFFFFFFFFFFFFFFFFFFFFFFFFFFFFFFFFFFFFF NOT AND EQ DUP1 PUSH2 0x815 JUMPI POP PUSH2 0x814 DUP3 PUSH2 0x1EE8 JUMP JUMPDEST JUMPDEST SWAP1 POP SWAP2 SWAP1 POP JUMP JUMPDEST PUSH2 0x867 PUSH32 0xA49807205CE4D355092EF5A8A18F56E8913CF4A201FBE287825B095693C21775 PUSH1 0x3 PUSH0 SWAP1 SLOAD SWAP1 PUSH2 0x100 EXP SWAP1 DIV PUSH20 0xFFFFFFFFFFFFFFFFFFFFFFFFFFFFFFFFFFFFFFFF AND PUSH2 0x1968 JUMP JUMPDEST PUSH2 0x8A6 JUMPI PUSH1 0x40 MLOAD PUSH32 0x8C379A000000000000000000000000000000000000000000000000000000000 DUP2 MSTORE PUSH1 0x4 ADD PUSH2 0x89D SWAP1 PUSH2 0x2931 JUMP JUMPDEST PUSH1 0x40 MLOAD DUP1 SWAP2 SUB SWAP1 REVERT JUMPDEST DUP1 PUSH1 0x8 DUP2 SWAP1 SSTORE POP PUSH32 0x8645F88287B79F16D91266DA1D35B7ADC817D75A89A9577504B01FBC37ED5A6F DUP2 PUSH1 0x40 MLOAD PUSH2 0x8DC SWAP2 SWAP1 PUSH2 0x27B5 JUMP JUMPDEST PUSH1 0x40 MLOAD DUP1 SWAP2 SUB SWAP1 LOG1 POP JUMP JUMPDEST PUSH1 0xB DUP2 DUP2 SLOAD DUP2 LT PUSH2 0x8F6 JUMPI PUSH0 DUP1 REVERT JUMPDEST SWAP1 PUSH0 MSTORE PUSH1 0x20 PUSH0 KECCAK256 ADD PUSH0 SWAP2 POP SLOAD SWAP1 PUSH2 0x100 EXP SWAP1 DIV PUSH20 0xFFFFFFFFFFFFFFFFFFFFFFFFFFFFFFFFFFFFFFFF AND DUP2 JUMP JUMPDEST PUSH1 0xA SLOAD DUP2 JUMP JUMPDEST PUSH1 0x3 PUSH0 SWAP1 SLOAD SWAP1 PUSH2 0x100 EXP SWAP1 DIV PUSH20 0xFFFFFFFFFFFFFFFFFFFFFFFFFFFFFFFFFFFFFFFF AND DUP2 JUMP JUMPDEST PUSH0 DUP1 PUSH0 DUP4 DUP2 MSTORE PUSH1 0x20 ADD SWAP1 DUP2 MSTORE PUSH1 0x20 ADD PUSH0 KECCAK256 PUSH1 0x1 ADD SLOAD SWAP1 POP SWAP2 SWAP1 POP JUMP JUMPDEST PUSH1 0x2 PUSH0 SWAP1 SLOAD SWAP1 PUSH2 0x100 EXP SWAP1 DIV PUSH20 0xFFFFFFFFFFFFFFFFFFFFFFFFFFFFFFFFFFFFFFFF AND DUP2 JUMP JUMPDEST PUSH2 0x997 DUP3 PUSH2 0x94D JUMP JUMPDEST PUSH2 0x9A0 DUP2 PUSH2 0x1F51 JUMP JUMPDEST PUSH2 0x9AA DUP4 DUP4 PUSH2 0x1F65 JUMP JUMPDEST POP POP POP POP JUMP JUMPDEST PUSH2 0x9B8 PUSH2 0x204E JUMP JUMPDEST PUSH20 0xFFFFFFFFFFFFFFFFFFFFFFFFFFFFFFFFFFFFFFFF AND DUP2 PUSH20 0xFFFFFFFFFFFFFFFFFFFFFFFFFFFFFFFFFFFFFFFF AND EQ PUSH2 0xA1C JUMPI PUSH1 0x40 MLOAD PUSH32 0x6697B23200000000000000000000000000000000000000000000000000000000 DUP2 MSTORE PUSH1 0x4 ADD PUSH1 0x40 MLOAD DUP1 SWAP2 SUB SWAP1 REVERT JUMPDEST PUSH2 0xA26 DUP3 DUP3 PUSH2 0x2055 JUMP JUMPDEST POP POP POP JUMP JUMPDEST PUSH1 0x9 PUSH1 0x1 SWAP1 SLOAD SWAP1 PUSH2 0x100 EXP SWAP1 DIV PUSH1 0xFF AND DUP2 JUMP JUMPDEST PUSH1 0xC PUSH1 0x20 MSTORE DUP1 PUSH0 MSTORE PUSH1 0x40 PUSH0 KECCAK256 PUSH0 SWAP2 POP SWAP1 POP SLOAD DUP2 JUMP JUMPDEST PUSH2 0xA9E PUSH32 0xA49807205CE4D355092EF5A8A18F56E8913CF4A201FBE287825B095693C21775 PUSH1 0x3 PUSH0 SWAP1 SLOAD SWAP1 PUSH2 0x100 EXP SWAP1 DIV PUSH20 0xFFFFFFFFFFFFFFFFFFFFFFFFFFFFFFFFFFFFFFFF AND PUSH2 0x1968 JUMP JUMPDEST PUSH2 0xADD JUMPI PUSH1 0x40 MLOAD PUSH32 0x8C379A000000000000000000000000000000000000000000000000000000000 DUP2 MSTORE PUSH1 0x4 ADD PUSH2 0xAD4 SWAP1 PUSH2 0x2931 JUMP JUMPDEST PUSH1 0x40 MLOAD DUP1 SWAP2 SUB SWAP1 REVERT JUMPDEST DUP1 PUSH1 0x7 DUP2 SWAP1 SSTORE POP PUSH32 0x9E87CF72973CDB82F6A3C58FA8EF538FD3088801E3F3033AFD06FA390CA4876C DUP2 PUSH1 0x40 MLOAD PUSH2 0xB13 SWAP2 SWAP1 PUSH2 0x27B5 JUMP JUMPDEST PUSH1 0x40 MLOAD DUP1 SWAP2 SUB SWAP1 LOG1 POP JUMP JUMPDEST PUSH2 0xB69 PUSH32 0xA49807205CE4D355092EF5A8A18F56E8913CF4A201FBE287825B095693C21775 PUSH1 0x3 PUSH0 SWAP1 SLOAD SWAP1 PUSH2 0x100 EXP SWAP1 DIV PUSH20 0xFFFFFFFFFFFFFFFFFFFFFFFFFFFFFFFFFFFFFFFF AND PUSH2 0x1968 JUMP JUMPDEST PUSH2 0xBA8 JUMPI PUSH1 0x40 MLOAD PUSH32 0x8C379A000000000000000000000000000000000000000000000000000000000 DUP2 MSTORE PUSH1 0x4 ADD PUSH2 0xB9F SWAP1 PUSH2 0x2931 JUMP JUMPDEST PUSH1 0x40 MLOAD DUP1 SWAP2 SUB SWAP1 REVERT JUMPDEST PUSH1 0x9 PUSH0 SWAP1 SLOAD SWAP1 PUSH2 0x100 EXP SWAP1 DIV PUSH1 0xFF AND ISZERO PUSH2 0xBF7 JUMPI PUSH1 0x40 MLOAD PUSH32 0x8C379A000000000000000000000000000000000000000000000000000000000 DUP2 MSTORE PUSH1 0x4 ADD PUSH2 0xBEE SWAP1 PUSH2 0x2999 JUMP JUMPDEST PUSH1 0x40 MLOAD DUP1 SWAP2 SUB SWAP1 REVERT JUMPDEST PUSH1 0x1 PUSH1 0x9 PUSH0 PUSH2 0x100 EXP DUP2 SLOAD DUP2 PUSH1 0xFF MUL NOT AND SWAP1 DUP4 ISZERO ISZERO MUL OR SWAP1 SSTORE POP PUSH32 0x8CF55E5373CD35327ECD6E48F19A6101684947FD385C07FB95117B3695EC2E9B PUSH1 0x40 MLOAD PUSH1 0x40 MLOAD DUP1 SWAP2 SUB SWAP1 LOG1 JUMP JUMPDEST PUSH0 SELFBALANCE SWAP1 POP SWAP1 JUMP JUMPDEST PUSH1 0x9 PUSH0 SWAP1 SLOAD SWAP1 PUSH2 0x100 EXP SWAP1 DIV PUSH1 0xFF AND DUP2 JUMP JUMPDEST PUSH32 0xA49807205CE4D355092EF5A8A18F56E8913CF4A201FBE287825B095693C21775 DUP2 JUMP JUMPDEST PUSH32 0xD980155B32CF66E6AF51E0972D64B9D5EFE0E6F237DFAA4BDC83F990DD79E9C8 DUP2 JUMP JUMPDEST PUSH2 0xCEB PUSH32 0xA49807205CE4D355092EF5A8A18F56E8913CF4A201FBE287825B095693C21775 PUSH1 0x3 PUSH0 SWAP1 SLOAD SWAP1 PUSH2 0x100 EXP SWAP1 DIV PUSH20 0xFFFFFFFFFFFFFFFFFFFFFFFFFFFFFFFFFFFFFFFF AND PUSH2 0x1968 JUMP JUMPDEST PUSH2 0xD2A JUMPI PUSH1 0x40 MLOAD PUSH32 0x8C379A000000000000000000000000000000000000000000000000000000000 DUP2 MSTORE PUSH1 0x4 ADD PUSH2 0xD21 SWAP1 PUSH2 0x2931 JUMP JUMPDEST PUSH1 0x40 MLOAD DUP1 SWAP2 SUB SWAP1 REVERT JUMPDEST DUP1 PUSH1 0x5 DUP2 SWAP1 SSTORE POP POP JUMP JUMPDEST PUSH1 0x5 SLOAD DUP2 JUMP JUMPDEST PUSH2 0xD85 PUSH32 0xA49807205CE4D355092EF5A8A18F56E8913CF4A201FBE287825B095693C21775 PUSH1 0x3 PUSH0 SWAP1 SLOAD SWAP1 PUSH2 0x100 EXP SWAP1 DIV PUSH20 0xFFFFFFFFFFFFFFFFFFFFFFFFFFFFFFFFFFFFFFFF AND PUSH2 0x1968 JUMP JUMPDEST PUSH2 0xDC4 JUMPI PUSH1 0x40 MLOAD PUSH32 0x8C379A000000000000000000000000000000000000000000000000000000000 DUP2 MSTORE PUSH1 0x4 ADD PUSH2 0xDBB SWAP1 PUSH2 0x2931 JUMP JUMPDEST PUSH1 0x40 MLOAD DUP1 SWAP2 SUB SWAP1 REVERT JUMPDEST PUSH0 PUSH1 0xD PUSH0 DUP4 PUSH20 0xFFFFFFFFFFFFFFFFFFFFFFFFFFFFFFFFFFFFFFFF AND PUSH20 0xFFFFFFFFFFFFFFFFFFFFFFFFFFFFFFFFFFFFFFFF AND DUP2 MSTORE PUSH1 0x20 ADD SWAP1 DUP2 MSTORE PUSH1 0x20 ADD PUSH0 KECCAK256 PUSH0 PUSH2 0x100 EXP DUP2 SLOAD DUP2 PUSH1 0xFF MUL NOT AND SWAP1 DUP4 ISZERO ISZERO MUL OR SWAP1 SSTORE POP PUSH32 0xF93F9A76C1BF3444D22400A00CB9FE990E6ABE9DBB333FDA48859CFEE864543D DUP2 PUSH0 PUSH1 0x40 MLOAD PUSH2 0xE49 SWAP3 SWAP2 SWAP1 PUSH2 0x29B7 JUMP JUMPDEST PUSH1 0x40 MLOAD DUP1 SWAP2 SUB SWAP1 LOG1 POP JUMP JUMPDEST PUSH2 0xE9F PUSH32 0xA49807205CE4D355092EF5A8A18F56E8913CF4A201FBE287825B095693C21775 PUSH1 0x3 PUSH0 SWAP1 SLOAD SWAP1 PUSH2 0x100 EXP SWAP1 DIV PUSH20 0xFFFFFFFFFFFFFFFFFFFFFFFFFFFFFFFFFFFFFFFF AND PUSH2 0x1968 JUMP JUMPDEST DUP1 PUSH2 0xEF1 JUMPI POP PUSH2 0xEF0 PUSH32 0xD980155B32CF66E6AF51E0972D64B9D5EFE0E6F237DFAA4BDC83F990DD79E9C8 PUSH1 0x2 PUSH0 SWAP1 SLOAD SWAP1 PUSH2 0x100 EXP SWAP1 DIV PUSH20 0xFFFFFFFFFFFFFFFFFFFFFFFFFFFFFFFFFFFFFFFF AND PUSH2 0x1968 JUMP JUMPDEST JUMPDEST PUSH2 0xF30 JUMPI PUSH1 0x40 MLOAD PUSH32 0x8C379A000000000000000000000000000000000000000000000000000000000 DUP2 MSTORE PUSH1 0x4 ADD PUSH2 0xF27 SWAP1 PUSH2 0x2A28 JUMP JUMPDEST PUSH1 0x40 MLOAD DUP1 SWAP2 SUB SWAP1 REVERT JUMPDEST PUSH2 0xF38 PUSH2 0x213E JUMP JUMPDEST PUSH2 0xF40 PUSH2 0x218D JUMP JUMPDEST PUSH1 0x1 PUSH1 0x9 PUSH1 0x1 PUSH2 0x100 EXP DUP2 SLOAD DUP2 PUSH1 0xFF MUL NOT AND SWAP1 DUP4 ISZERO ISZERO MUL OR SWAP1 SSTORE PUSH2 0xF99 JUMPI PUSH1 0x40 MLOAD PUSH32 0x8C379A000000000000000000000000000000000000000000000000000000000 DUP2 MSTORE PUSH1 0x4 ADD PUSH2 0xF90 SWAP1 PUSH2 0x2A90 JUMP JUMPDEST PUSH1 0x40 MLOAD DUP1 SWAP2 SUB SWAP1 REVERT JUMPDEST PUSH0 PUSH1 0x4 SLOAD GT PUSH2 0xFDD JUMPI PUSH1 0x40 MLOAD PUSH32 0x8C379A000000000000000000000000000000000000000000000000000000000 DUP2 MSTORE PUSH1 0x4 ADD PUSH2 0xFD4 SWAP1 PUSH2 0x2AF8 JUMP JUMPDEST PUSH1 0x40 MLOAD DUP1 SWAP2 SUB SWAP1 REVERT JUMPDEST PUSH0 DUP1 PUSH1 0x6 SLOAD PUSH1 0x4 SLOAD LT ISZERO PUSH2 0x11EA JUMPI PUSH2 0x102C PUSH1 0x40 MLOAD DUP1 PUSH1 0x40 ADD PUSH1 0x40 MSTORE DUP1 PUSH1 0xB DUP2 MSTORE PUSH1 0x20 ADD PUSH32 0x546F74616C526169736564000000000000000000000000000000000000000000 DUP2 MSTORE POP PUSH1 0x4 SLOAD PUSH2 0x2226 JUMP JUMPDEST PUSH2 0x1056 PUSH1 0x64 PUSH2 0x1048 PUSH1 0x5 SLOAD PUSH1 0x4 SLOAD PUSH2 0x22C2 SWAP1 SWAP2 SWAP1 PUSH4 0xFFFFFFFF AND JUMP JUMPDEST PUSH2 0x22D7 SWAP1 SWAP2 SWAP1 PUSH4 0xFFFFFFFF AND JUMP JUMPDEST SWAP2 POP PUSH2 0x106D DUP3 PUSH1 0x4 SLOAD PUSH2 0x22EC SWAP1 SWAP2 SWAP1 PUSH4 0xFFFFFFFF AND JUMP JUMPDEST SWAP1 POP PUSH2 0x1091 PUSH1 0x40 MLOAD DUP1 PUSH1 0x60 ADD PUSH1 0x40 MSTORE DUP1 PUSH1 0x2A DUP2 MSTORE PUSH1 0x20 ADD PUSH2 0x339B PUSH1 0x2A SWAP2 CODECOPY DUP4 PUSH2 0x2226 JUMP JUMPDEST PUSH2 0x10B3 PUSH1 0x40 MLOAD DUP1 PUSH1 0x60 ADD PUSH1 0x40 MSTORE DUP1 PUSH1 0x27 DUP2 MSTORE PUSH1 0x20 ADD PUSH2 0x3321 PUSH1 0x27 SWAP2 CODECOPY DUP3 PUSH2 0x2226 JUMP JUMPDEST PUSH0 PUSH1 0x3 PUSH0 SWAP1 SLOAD SWAP1 PUSH2 0x100 EXP SWAP1 DIV PUSH20 0xFFFFFFFFFFFFFFFFFFFFFFFFFFFFFFFFFFFFFFFF AND PUSH20 0xFFFFFFFFFFFFFFFFFFFFFFFFFFFFFFFFFFFFFFFF AND PUSH2 0x8FC DUP4 SWAP1 DUP2 ISZERO MUL SWAP1 PUSH1 0x40 MLOAD PUSH0 PUSH1 0x40 MLOAD DUP1 DUP4 SUB DUP2 DUP6 DUP9 DUP9 CALL SWAP4 POP POP POP POP SWAP1 POP DUP1 PUSH2 0x114B JUMPI PUSH1 0x40 MLOAD PUSH32 0x8C379A000000000000000000000000000000000000000000000000000000000 DUP2 MSTORE PUSH1 0x4 ADD PUSH2 0x1142 SWAP1 PUSH2 0x2B86 JUMP JUMPDEST PUSH1 0x40 MLOAD DUP1 SWAP2 SUB SWAP1 REVERT JUMPDEST PUSH0 PUSH1 0x2 PUSH0 SWAP1 SLOAD SWAP1 PUSH2 0x100 EXP SWAP1 DIV PUSH20 0xFFFFFFFFFFFFFFFFFFFFFFFFFFFFFFFFFFFFFFFF AND PUSH20 0xFFFFFFFFFFFFFFFFFFFFFFFFFFFFFFFFFFFFFFFF AND PUSH2 0x8FC DUP6 SWAP1 DUP2 ISZERO MUL SWAP1 PUSH1 0x40 MLOAD PUSH0 PUSH1 0x40 MLOAD DUP1 DUP4 SUB DUP2 DUP6 DUP9 DUP9 CALL SWAP4 POP POP POP POP SWAP1 POP DUP1 PUSH2 0x11E3 JUMPI PUSH1 0x40 MLOAD PUSH32 0x8C379A000000000000000000000000000000000000000000000000000000000 DUP2 MSTORE PUSH1 0x4 ADD PUSH2 0x11DA SWAP1 PUSH2 0x2C14 JUMP JUMPDEST PUSH1 0x40 MLOAD DUP1 SWAP2 SUB SWAP1 REVERT JUMPDEST POP POP PUSH2 0x1914 JUMP JUMPDEST PUSH1 0x6 SLOAD PUSH1 0x4 SLOAD GT ISZERO PUSH2 0x170C JUMPI PUSH2 0x1237 PUSH1 0x40 MLOAD DUP1 PUSH1 0x40 ADD PUSH1 0x40 MSTORE DUP1 PUSH1 0xB DUP2 MSTORE PUSH1 0x20 ADD PUSH32 0x546F74616C526169736564000000000000000000000000000000000000000000 DUP2 MSTORE POP PUSH1 0x4 SLOAD PUSH2 0x2226 JUMP JUMPDEST PUSH2 0x1261 PUSH1 0x64 PUSH2 0x1253 PUSH1 0x5 SLOAD PUSH1 0x6 SLOAD PUSH2 0x22C2 SWAP1 SWAP2 SWAP1 PUSH4 0xFFFFFFFF AND JUMP JUMPDEST PUSH2 0x22D7 SWAP1 SWAP2 SWAP1 PUSH4 0xFFFFFFFF AND JUMP JUMPDEST SWAP2 POP PUSH2 0x1278 DUP3 PUSH1 0x6 SLOAD PUSH2 0x22EC SWAP1 SWAP2 SWAP1 PUSH4 0xFFFFFFFF AND JUMP JUMPDEST SWAP1 POP PUSH2 0x129C PUSH1 0x40 MLOAD DUP1 PUSH1 0x60 ADD PUSH1 0x40 MSTORE DUP1 PUSH1 0x2A DUP2 MSTORE PUSH1 0x20 ADD PUSH2 0x33E9 PUSH1 0x2A SWAP2 CODECOPY DUP4 PUSH2 0x2226 JUMP JUMPDEST PUSH2 0x12BE PUSH1 0x40 MLOAD DUP1 PUSH1 0x60 ADD PUSH1 0x40 MSTORE DUP1 PUSH1 0x27 DUP2 MSTORE PUSH1 0x20 ADD PUSH2 0x3413 PUSH1 0x27 SWAP2 CODECOPY DUP3 PUSH2 0x2226 JUMP JUMPDEST PUSH0 PUSH1 0x3 PUSH0 SWAP1 SLOAD SWAP1 PUSH2 0x100 EXP SWAP1 DIV PUSH20 0xFFFFFFFFFFFFFFFFFFFFFFFFFFFFFFFFFFFFFFFF AND PUSH20 0xFFFFFFFFFFFFFFFFFFFFFFFFFFFFFFFFFFFFFFFF AND PUSH2 0x8FC DUP4 SWAP1 DUP2 ISZERO MUL SWAP1 PUSH1 0x40 MLOAD PUSH0 PUSH1 0x40 MLOAD DUP1 DUP4 SUB DUP2 DUP6 DUP9 DUP9 CALL SWAP4 POP POP POP POP SWAP1 POP DUP1 PUSH2 0x1356 JUMPI PUSH1 0x40 MLOAD PUSH32 0x8C379A000000000000000000000000000000000000000000000000000000000 DUP2 MSTORE PUSH1 0x4 ADD PUSH2 0x134D SWAP1 PUSH2 0x2CA2 JUMP JUMPDEST PUSH1 0x40 MLOAD DUP1 SWAP2 SUB SWAP1 REVERT JUMPDEST PUSH0 PUSH1 0x2 PUSH0 SWAP1 SLOAD SWAP1 PUSH2 0x100 EXP SWAP1 DIV PUSH20 0xFFFFFFFFFFFFFFFFFFFFFFFFFFFFFFFFFFFFFFFF AND PUSH20 0xFFFFFFFFFFFFFFFFFFFFFFFFFFFFFFFFFFFFFFFF AND PUSH2 0x8FC DUP6 SWAP1 DUP2 ISZERO MUL SWAP1 PUSH1 0x40 MLOAD PUSH0 PUSH1 0x40 MLOAD DUP1 DUP4 SUB DUP2 DUP6 DUP9 DUP9 CALL SWAP4 POP POP POP POP SWAP1 POP DUP1 PUSH2 0x13EE JUMPI PUSH1 0x40 MLOAD PUSH32 0x8C379A000000000000000000000000000000000000000000000000000000000 DUP2 MSTORE PUSH1 0x4 ADD PUSH2 0x13E5 SWAP1 PUSH2 0x2CA2 JUMP JUMPDEST PUSH1 0x40 MLOAD DUP1 SWAP2 SUB SWAP1 REVERT JUMPDEST PUSH0 PUSH2 0x141A PUSH1 0xA SLOAD PUSH2 0x140C PUSH1 0x6 SLOAD PUSH1 0x4 SLOAD PUSH2 0x22EC SWAP1 SWAP2 SWAP1 PUSH4 0xFFFFFFFF AND JUMP JUMPDEST PUSH2 0x22D7 SWAP1 SWAP2 SWAP1 PUSH4 0xFFFFFFFF AND JUMP JUMPDEST SWAP1 POP PUSH2 0x145B PUSH1 0x40 MLOAD DUP1 PUSH1 0x40 ADD PUSH1 0x40 MSTORE DUP1 PUSH1 0x1A DUP2 MSTORE PUSH1 0x20 ADD PUSH32 0x726566756E64416D6F756E74506572436F6E7472696275746F72000000000000 DUP2 MSTORE POP DUP3 PUSH2 0x2226 JUMP JUMPDEST PUSH2 0x1499 PUSH1 0x40 MLOAD DUP1 PUSH1 0x40 ADD PUSH1 0x40 MSTORE DUP1 PUSH1 0x1A DUP2 MSTORE PUSH1 0x20 ADD PUSH32 0x436865636B696E6720657665727920636F6E7472696275746F72000000000000 DUP2 MSTORE POP PUSH2 0x2301 JUMP JUMPDEST PUSH0 JUMPDEST PUSH1 0xA SLOAD DUP2 LT ISZERO PUSH2 0x1703 JUMPI PUSH0 DUP2 SWAP1 POP PUSH2 0x14E8 PUSH1 0x40 MLOAD DUP1 PUSH1 0x40 ADD PUSH1 0x40 MSTORE DUP1 PUSH1 0x10 DUP2 MSTORE PUSH1 0x20 ADD PUSH32 0x636F6E7472696275746F72206C69737400000000000000000000000000000000 DUP2 MSTORE POP DUP3 PUSH2 0x239A JUMP JUMPDEST PUSH0 PUSH1 0xC PUSH0 DUP4 PUSH20 0xFFFFFFFFFFFFFFFFFFFFFFFFFFFFFFFFFFFFFFFF AND PUSH20 0xFFFFFFFFFFFFFFFFFFFFFFFFFFFFFFFFFFFFFFFF AND DUP2 MSTORE PUSH1 0x20 ADD SWAP1 DUP2 MSTORE PUSH1 0x20 ADD PUSH0 KECCAK256 SLOAD SWAP1 POP PUSH2 0x1567 PUSH1 0x40 MLOAD DUP1 PUSH1 0x40 ADD PUSH1 0x40 MSTORE DUP1 PUSH1 0x16 DUP2 MSTORE PUSH1 0x20 ADD PUSH32 0x48656C6C6F20686920686F7720646F20796F7520646F00000000000000000000 DUP2 MSTORE POP PUSH2 0x2301 JUMP JUMPDEST DUP4 DUP2 GT ISZERO PUSH2 0x16AF JUMPI PUSH0 PUSH20 0xFFFFFFFFFFFFFFFFFFFFFFFFFFFFFFFFFFFFFFFF AND DUP3 PUSH20 0xFFFFFFFFFFFFFFFFFFFFFFFFFFFFFFFFFFFFFFFF AND EQ ISZERO DUP1 PUSH2 0x15D6 JUMPI POP PUSH0 PUSH20 0xFFFFFFFFFFFFFFFFFFFFFFFFFFFFFFFFFFFFFFFF AND DUP3 PUSH20 0xFFFFFFFFFFFFFFFFFFFFFFFFFFFFFFFFFFFFFFFF AND EQ ISZERO JUMPDEST PUSH2 0x1615 JUMPI PUSH1 0x40 MLOAD PUSH32 0x8C379A000000000000000000000000000000000000000000000000000000000 DUP2 MSTORE PUSH1 0x4 ADD PUSH2 0x160C SWAP1 PUSH2 0x2D0A JUMP JUMPDEST PUSH1 0x40 MLOAD DUP1 SWAP2 SUB SWAP1 REVERT JUMPDEST PUSH2 0x1636 PUSH1 0x40 MLOAD DUP1 PUSH1 0x60 ADD PUSH1 0x40 MSTORE DUP1 PUSH1 0x24 DUP2 MSTORE PUSH1 0x20 ADD PUSH2 0x33C5 PUSH1 0x24 SWAP2 CODECOPY PUSH2 0x2301 JUMP JUMPDEST PUSH0 DUP3 PUSH20 0xFFFFFFFFFFFFFFFFFFFFFFFFFFFFFFFFFFFFFFFF AND PUSH2 0x8FC DUP7 SWAP1 DUP2 ISZERO MUL SWAP1 PUSH1 0x40 MLOAD PUSH0 PUSH1 0x40 MLOAD DUP1 DUP4 SUB DUP2 DUP6 DUP9 DUP9 CALL SWAP4 POP POP POP POP SWAP1 POP DUP1 PUSH2 0x16AD JUMPI PUSH1 0x40 MLOAD PUSH32 0x8C379A000000000000000000000000000000000000000000000000000000000 DUP2 MSTORE PUSH1 0x4 ADD PUSH2 0x16A4 SWAP1 PUSH2 0x2D98 JUMP JUMPDEST PUSH1 0x40 MLOAD DUP1 SWAP2 SUB SWAP1 REVERT JUMPDEST POP JUMPDEST PUSH2 0x16EE PUSH1 0x40 MLOAD DUP1 PUSH1 0x40 ADD PUSH1 0x40 MSTORE DUP1 PUSH1 0xD DUP2 MSTORE PUSH1 0x20 ADD PUSH32 0x72657475726E20416D6F756E7400000000000000000000000000000000000000 DUP2 MSTORE POP DUP6 PUSH2 0x2226 JUMP JUMPDEST POP POP DUP1 DUP1 PUSH2 0x16FB SWAP1 PUSH2 0x2DE3 JUMP JUMPDEST SWAP2 POP POP PUSH2 0x149B JUMP JUMPDEST POP POP POP POP PUSH2 0x1913 JUMP JUMPDEST PUSH1 0x6 SLOAD PUSH1 0x4 SLOAD SUB PUSH2 0x1912 JUMPI PUSH2 0x1758 PUSH1 0x40 MLOAD DUP1 PUSH1 0x40 ADD PUSH1 0x40 MSTORE DUP1 PUSH1 0xB DUP2 MSTORE PUSH1 0x20 ADD PUSH32 0x546F74616C526169736564000000000000000000000000000000000000000000 DUP2 MSTORE POP PUSH1 0x4 SLOAD PUSH2 0x2226 JUMP JUMPDEST PUSH2 0x1782 PUSH1 0x64 PUSH2 0x1774 PUSH1 0x5 SLOAD PUSH1 0x6 SLOAD PUSH2 0x22C2 SWAP1 SWAP2 SWAP1 PUSH4 0xFFFFFFFF AND JUMP JUMPDEST PUSH2 0x22D7 SWAP1 SWAP2 SWAP1 PUSH4 0xFFFFFFFF AND JUMP JUMPDEST SWAP2 POP PUSH2 0x1799 DUP3 PUSH1 0x6 SLOAD PUSH2 0x22EC SWAP1 SWAP2 SWAP1 PUSH4 0xFFFFFFFF AND JUMP JUMPDEST SWAP1 POP PUSH2 0x17BD PUSH1 0x40 MLOAD DUP1 PUSH1 0x60 ADD PUSH1 0x40 MSTORE DUP1 PUSH1 0x2B DUP2 MSTORE PUSH1 0x20 ADD PUSH2 0x3370 PUSH1 0x2B SWAP2 CODECOPY DUP4 PUSH2 0x2226 JUMP JUMPDEST PUSH2 0x17DF PUSH1 0x40 MLOAD DUP1 PUSH1 0x60 ADD PUSH1 0x40 MSTORE DUP1 PUSH1 0x28 DUP2 MSTORE PUSH1 0x20 ADD PUSH2 0x3348 PUSH1 0x28 SWAP2 CODECOPY DUP3 PUSH2 0x2226 JUMP JUMPDEST PUSH0 PUSH1 0x3 PUSH0 SWAP1 SLOAD SWAP1 PUSH2 0x100 EXP SWAP1 DIV PUSH20 0xFFFFFFFFFFFFFFFFFFFFFFFFFFFFFFFFFFFFFFFF AND PUSH20 0xFFFFFFFFFFFFFFFFFFFFFFFFFFFFFFFFFFFFFFFF AND PUSH2 0x8FC DUP4 SWAP1 DUP2 ISZERO MUL SWAP1 PUSH1 0x40 MLOAD PUSH0 PUSH1 0x40 MLOAD DUP1 DUP4 SUB DUP2 DUP6 DUP9 DUP9 CALL SWAP4 POP POP POP POP SWAP1 POP DUP1 PUSH2 0x1877 JUMPI PUSH1 0x40 MLOAD PUSH32 0x8C379A000000000000000000000000000000000000000000000000000000000 DUP2 MSTORE PUSH1 0x4 ADD PUSH2 0x186E SWAP1 PUSH2 0x2E9A JUMP JUMPDEST PUSH1 0x40 MLOAD DUP1 SWAP2 SUB SWAP1 REVERT JUMPDEST PUSH0 PUSH1 0x2 PUSH0 SWAP1 SLOAD SWAP1 PUSH2 0x100 EXP SWAP1 DIV PUSH20 0xFFFFFFFFFFFFFFFFFFFFFFFFFFFFFFFFFFFFFFFF AND PUSH20 0xFFFFFFFFFFFFFFFFFFFFFFFFFFFFFFFFFFFFFFFF AND PUSH2 0x8FC DUP6 SWAP1 DUP2 ISZERO MUL SWAP1 PUSH1 0x40 MLOAD PUSH0 PUSH1 0x40 MLOAD DUP1 DUP4 SUB DUP2 DUP6 DUP9 DUP9 CALL SWAP4 POP POP POP POP SWAP1 POP DUP1 PUSH2 0x190F JUMPI PUSH1 0x40 MLOAD PUSH32 0x8C379A000000000000000000000000000000000000000000000000000000000 DUP2 MSTORE PUSH1 0x4 ADD PUSH2 0x1906 SWAP1 PUSH2 0x2E9A JUMP JUMPDEST PUSH1 0x40 MLOAD DUP1 SWAP2 SUB SWAP1 REVERT JUMPDEST POP POP JUMPDEST JUMPDEST JUMPDEST PUSH0 PUSH1 0x4 DUP2 SWAP1 SSTORE POP PUSH0 PUSH1 0xA DUP2 SWAP1 SSTORE POP PUSH0 PUSH1 0x9 PUSH0 PUSH2 0x100 EXP DUP2 SLOAD DUP2 PUSH1 0xFF MUL NOT AND SWAP1 DUP4 ISZERO ISZERO MUL OR SWAP1 SSTORE POP PUSH1 0x1 PUSH1 0x9 PUSH1 0x1 PUSH2 0x100 EXP DUP2 SLOAD DUP2 PUSH1 0xFF MUL NOT AND SWAP1 DUP4 ISZERO ISZERO MUL OR SWAP1 SSTORE POP POP POP PUSH2 0x1960 PUSH2 0x2436 JUMP JUMPDEST JUMP JUMPDEST PUSH1 0x8 SLOAD DUP2 JUMP JUMPDEST PUSH0 DUP1 PUSH0 DUP5 DUP2 MSTORE PUSH1 0x20 ADD SWAP1 DUP2 MSTORE PUSH1 0x20 ADD PUSH0 KECCAK256 PUSH0 ADD PUSH0 DUP4 PUSH20 0xFFFFFFFFFFFFFFFFFFFFFFFFFFFFFFFFFFFFFFFF AND PUSH20 0xFFFFFFFFFFFFFFFFFFFFFFFFFFFFFFFFFFFFFFFF AND DUP2 MSTORE PUSH1 0x20 ADD SWAP1 DUP2 MSTORE PUSH1 0x20 ADD PUSH0 KECCAK256 PUSH0 SWAP1 SLOAD SWAP1 PUSH2 0x100 EXP SWAP1 DIV PUSH1 0xFF AND SWAP1 POP SWAP3 SWAP2 POP POP JUMP JUMPDEST PUSH1 0xD PUSH1 0x20 MSTORE DUP1 PUSH0 MSTORE PUSH1 0x40 PUSH0 KECCAK256 PUSH0 SWAP2 POP SLOAD SWAP1 PUSH2 0x100 EXP SWAP1 DIV PUSH1 0xFF AND DUP2 JUMP JUMPDEST PUSH0 DUP1 SHL DUP2 JUMP JUMPDEST PUSH1 0x7 SLOAD DUP2 JUMP JUMPDEST PUSH2 0x1A3F PUSH32 0xA49807205CE4D355092EF5A8A18F56E8913CF4A201FBE287825B095693C21775 PUSH1 0x3 PUSH0 SWAP1 SLOAD SWAP1 PUSH2 0x100 EXP SWAP1 DIV PUSH20 0xFFFFFFFFFFFFFFFFFFFFFFFFFFFFFFFFFFFFFFFF AND PUSH2 0x1968 JUMP JUMPDEST PUSH2 0x1A7E JUMPI PUSH1 0x40 MLOAD PUSH32 0x8C379A000000000000000000000000000000000000000000000000000000000 DUP2 MSTORE PUSH1 0x4 ADD PUSH2 0x1A75 SWAP1 PUSH2 0x2931 JUMP JUMPDEST PUSH1 0x40 MLOAD DUP1 SWAP2 SUB SWAP1 REVERT JUMPDEST DUP1 PUSH1 0x6 DUP2 SWAP1 SSTORE POP PUSH32 0xE65E8475AE8EBA2B732012A0734794875A0FDBDCCFED8398FFF4DA0C8E0FA00E DUP2 PUSH1 0x40 MLOAD PUSH2 0x1AB4 SWAP2 SWAP1 PUSH2 0x27B5 JUMP JUMPDEST PUSH1 0x40 MLOAD DUP1 SWAP2 SUB SWAP1 LOG1 POP JUMP JUMPDEST PUSH1 0x4 SLOAD DUP2 JUMP JUMPDEST PUSH2 0x1B10 PUSH32 0xA49807205CE4D355092EF5A8A18F56E8913CF4A201FBE287825B095693C21775 PUSH1 0x3 PUSH0 SWAP1 SLOAD SWAP1 PUSH2 0x100 EXP SWAP1 DIV PUSH20 0xFFFFFFFFFFFFFFFFFFFFFFFFFFFFFFFFFFFFFFFF AND PUSH2 0x1968 JUMP JUMPDEST PUSH2 0x1B4F JUMPI PUSH1 0x40 MLOAD PUSH32 0x8C379A000000000000000000000000000000000000000000000000000000000 DUP2 MSTORE PUSH1 0x4 ADD PUSH2 0x1B46 SWAP1 PUSH2 0x2931 JUMP JUMPDEST PUSH1 0x40 MLOAD DUP1 SWAP2 SUB SWAP1 REVERT JUMPDEST DUP1 PUSH1 0x6 DUP2 SWAP1 SSTORE POP POP JUMP JUMPDEST PUSH2 0x1B62 DUP3 PUSH2 0x94D JUMP JUMPDEST PUSH2 0x1B6B DUP2 PUSH2 0x1F51 JUMP JUMPDEST PUSH2 0x1B75 DUP4 DUP4 PUSH2 0x2055 JUMP JUMPDEST POP POP POP POP JUMP JUMPDEST PUSH2 0x1B83 PUSH2 0x213E JUMP JUMPDEST PUSH1 0x9 PUSH0 SWAP1 SLOAD SWAP1 PUSH2 0x100 EXP SWAP1 DIV PUSH1 0xFF AND DUP1 ISZERO PUSH2 0x1BAB JUMPI POP PUSH1 0x9 PUSH1 0x1 SWAP1 SLOAD SWAP1 PUSH2 0x100 EXP SWAP1 DIV PUSH1 0xFF AND ISZERO JUMPDEST PUSH2 0x1BEA JUMPI PUSH1 0x40 MLOAD PUSH32 0x8C379A000000000000000000000000000000000000000000000000000000000 DUP2 MSTORE PUSH1 0x4 ADD PUSH2 0x1BE1 SWAP1 PUSH2 0x2F02 JUMP JUMPDEST PUSH1 0x40 MLOAD DUP1 SWAP2 SUB SWAP1 REVERT JUMPDEST PUSH1 0x7 SLOAD CALLVALUE LT ISZERO DUP1 ISZERO PUSH2 0x1BFC JUMPI POP PUSH0 CALLVALUE EQ ISZERO JUMPDEST PUSH2 0x1C3B JUMPI PUSH1 0x40 MLOAD PUSH32 0x8C379A000000000000000000000000000000000000000000000000000000000 DUP2 MSTORE PUSH1 0x4 ADD PUSH2 0x1C32 SWAP1 PUSH2 0x2F90 JUMP JUMPDEST PUSH1 0x40 MLOAD DUP1 SWAP2 SUB SWAP1 REVERT JUMPDEST PUSH2 0x1C8B CALLVALUE PUSH1 0xC PUSH0 CALLER PUSH20 0xFFFFFFFFFFFFFFFFFFFFFFFFFFFFFFFFFFFFFFFF AND PUSH20 0xFFFFFFFFFFFFFFFFFFFFFFFFFFFFFFFFFFFFFFFF AND DUP2 MSTORE PUSH1 0x20 ADD SWAP1 DUP2 MSTORE PUSH1 0x20 ADD PUSH0 KECCAK256 SLOAD PUSH2 0x243F SWAP1 SWAP2 SWAP1 PUSH4 0xFFFFFFFF AND JUMP JUMPDEST PUSH1 0xC PUSH0 CALLER PUSH20 0xFFFFFFFFFFFFFFFFFFFFFFFFFFFFFFFFFFFFFFFF AND PUSH20 0xFFFFFFFFFFFFFFFFFFFFFFFFFFFFFFFFFFFFFFFF AND DUP2 MSTORE PUSH1 0x20 ADD SWAP1 DUP2 MSTORE PUSH1 0x20 ADD PUSH0 KECCAK256 DUP2 SWAP1 SSTORE POP PUSH2 0x1CE1 CALLVALUE PUSH1 0x4 SLOAD PUSH2 0x243F SWAP1 SWAP2 SWAP1 PUSH4 0xFFFFFFFF AND JUMP JUMPDEST PUSH1 0x4 DUP2 SWAP1 SSTORE POP PUSH1 0xA PUSH0 DUP2 SLOAD DUP1 SWAP3 SWAP2 SWAP1 PUSH2 0x1CF9 SWAP1 PUSH2 0x2DE3 JUMP JUMPDEST SWAP2 SWAP1 POP SSTORE POP PUSH2 0x1D07 CALLER PUSH2 0x2454 JUMP JUMPDEST PUSH2 0x1D6C JUMPI PUSH1 0xB CALLER SWAP1 DUP1 PUSH1 0x1 DUP2 SLOAD ADD DUP1 DUP3 SSTORE DUP1 SWAP2 POP POP PUSH1 0x1 SWAP1 SUB SWAP1 PUSH0 MSTORE PUSH1 0x20 PUSH0 KECCAK256 ADD PUSH0 SWAP1 SWAP2 SWAP1 SWAP2 SWAP1 SWAP2 PUSH2 0x100 EXP DUP2 SLOAD DUP2 PUSH20 0xFFFFFFFFFFFFFFFFFFFFFFFFFFFFFFFFFFFFFFFF MUL NOT AND SWAP1 DUP4 PUSH20 0xFFFFFFFFFFFFFFFFFFFFFFFFFFFFFFFFFFFFFFFF AND MUL OR SWAP1 SSTORE POP JUMPDEST CALLER PUSH20 0xFFFFFFFFFFFFFFFFFFFFFFFFFFFFFFFFFFFFFFFF AND PUSH32 0x1D5D67670FD52E22078BBAB523A5EAD8206C7991225DD63095E3D3D6B5BE3BAF CALLVALUE TIMESTAMP PUSH1 0x40 MLOAD PUSH2 0x1DB4 SWAP3 SWAP2 SWAP1 PUSH2 0x2FAE JUMP JUMPDEST PUSH1 0x40 MLOAD DUP1 SWAP2 SUB SWAP1 LOG2 PUSH2 0x1DC4 PUSH2 0x2436 JUMP JUMPDEST JUMP JUMPDEST PUSH2 0x1E11 PUSH32 0xA49807205CE4D355092EF5A8A18F56E8913CF4A201FBE287825B095693C21775 PUSH1 0x3 PUSH0 SWAP1 SLOAD SWAP1 PUSH2 0x100 EXP SWAP1 DIV PUSH20 0xFFFFFFFFFFFFFFFFFFFFFFFFFFFFFFFFFFFFFFFF AND PUSH2 0x1968 JUMP JUMPDEST PUSH2 0x1E50 JUMPI PUSH1 0x40 MLOAD PUSH32 0x8C379A000000000000000000000000000000000000000000000000000000000 DUP2 MSTORE PUSH1 0x4 ADD PUSH2 0x1E47 SWAP1 PUSH2 0x2931 JUMP JUMPDEST PUSH1 0x40 MLOAD DUP1 SWAP2 SUB SWAP1 REVERT JUMPDEST PUSH1 0x1 PUSH1 0xD PUSH0 DUP4 PUSH20 0xFFFFFFFFFFFFFFFFFFFFFFFFFFFFFFFFFFFFFFFF AND PUSH20 0xFFFFFFFFFFFFFFFFFFFFFFFFFFFFFFFFFFFFFFFF AND DUP2 MSTORE PUSH1 0x20 ADD SWAP1 DUP2 MSTORE PUSH1 0x20 ADD PUSH0 KECCAK256 PUSH0 PUSH2 0x100 EXP DUP2 SLOAD DUP2 PUSH1 0xFF MUL NOT AND SWAP1 DUP4 ISZERO ISZERO MUL OR SWAP1 SSTORE POP PUSH32 0xF93F9A76C1BF3444D22400A00CB9FE990E6ABE9DBB333FDA48859CFEE864543D DUP2 PUSH1 0x1 PUSH1 0x40 MLOAD PUSH2 0x1ED7 SWAP3 SWAP2 SWAP1 PUSH2 0x29B7 JUMP JUMPDEST PUSH1 0x40 MLOAD DUP1 SWAP2 SUB SWAP1 LOG1 POP JUMP JUMPDEST PUSH1 0x6 SLOAD DUP2 JUMP JUMPDEST PUSH0 PUSH32 0x1FFC9A700000000000000000000000000000000000000000000000000000000 PUSH28 0xFFFFFFFFFFFFFFFFFFFFFFFFFFFFFFFFFFFFFFFFFFFFFFFFFFFFFFFF NOT AND DUP3 PUSH28 0xFFFFFFFFFFFFFFFFFFFFFFFFFFFFFFFFFFFFFFFFFFFFFFFFFFFFFFFF NOT AND EQ SWAP1 POP SWAP2 SWAP1 POP JUMP JUMPDEST PUSH2 0x1F62 DUP2 PUSH2 0x1F5D PUSH2 0x204E JUMP JUMPDEST PUSH2 0x24FC JUMP JUMPDEST POP JUMP JUMPDEST PUSH0 PUSH2 0x1F70 DUP4 DUP4 PUSH2 0x1968 JUMP JUMPDEST PUSH2 0x2044 JUMPI PUSH1 0x1 PUSH0 DUP1 DUP6 DUP2 MSTORE PUSH1 0x20 ADD SWAP1 DUP2 MSTORE PUSH1 0x20 ADD PUSH0 KECCAK256 PUSH0 ADD PUSH0 DUP5 PUSH20 0xFFFFFFFFFFFFFFFFFFFFFFFFFFFFFFFFFFFFFFFF AND PUSH20 0xFFFFFFFFFFFFFFFFFFFFFFFFFFFFFFFFFFFFFFFF AND DUP2 MSTORE PUSH1 0x20 ADD SWAP1 DUP2 MSTORE PUSH1 0x20 ADD PUSH0 KECCAK256 PUSH0 PUSH2 0x100 EXP DUP2 SLOAD DUP2 PUSH1 0xFF MUL NOT AND SWAP1 DUP4 ISZERO ISZERO MUL OR SWAP1 SSTORE POP PUSH2 0x1FE1 PUSH2 0x204E JUMP JUMPDEST PUSH20 0xFFFFFFFFFFFFFFFFFFFFFFFFFFFFFFFFFFFFFFFF AND DUP3 PUSH20 0xFFFFFFFFFFFFFFFFFFFFFFFFFFFFFFFFFFFFFFFF AND DUP5 PUSH32 0x2F8788117E7EFF1D82E926EC794901D17C78024A50270940304540A733656F0D PUSH1 0x40 MLOAD PUSH1 0x40 MLOAD DUP1 SWAP2 SUB SWAP1 LOG4 PUSH1 0x1 SWAP1 POP PUSH2 0x2048 JUMP JUMPDEST PUSH0 SWAP1 POP JUMPDEST SWAP3 SWAP2 POP POP JUMP JUMPDEST PUSH0 CALLER SWAP1 POP SWAP1 JUMP JUMPDEST PUSH0 PUSH2 0x2060 DUP4 DUP4 PUSH2 0x1968 JUMP JUMPDEST ISZERO PUSH2 0x2134 JUMPI PUSH0 DUP1 PUSH0 DUP6 DUP2 MSTORE PUSH1 0x20 ADD SWAP1 DUP2 MSTORE PUSH1 0x20 ADD PUSH0 KECCAK256 PUSH0 ADD PUSH0 DUP5 PUSH20 0xFFFFFFFFFFFFFFFFFFFFFFFFFFFFFFFFFFFFFFFF AND PUSH20 0xFFFFFFFFFFFFFFFFFFFFFFFFFFFFFFFFFFFFFFFF AND DUP2 MSTORE PUSH1 0x20 ADD SWAP1 DUP2 MSTORE PUSH1 0x20 ADD PUSH0 KECCAK256 PUSH0 PUSH2 0x100 EXP DUP2 SLOAD DUP2 PUSH1 0xFF MUL NOT AND SWAP1 DUP4 ISZERO ISZERO MUL OR SWAP1 SSTORE POP PUSH2 0x20D1 PUSH2 0x204E JUMP JUMPDEST PUSH20 0xFFFFFFFFFFFFFFFFFFFFFFFFFFFFFFFFFFFFFFFF AND DUP3 PUSH20 0xFFFFFFFFFFFFFFFFFFFFFFFFFFFFFFFFFFFFFFFF AND DUP5 PUSH32 0xF6391F5C32D9C69D2A47EA670B442974B53935D1EDC7FD64EB21E047A839171B PUSH1 0x40 MLOAD PUSH1 0x40 MLOAD DUP1 SWAP2 SUB SWAP1 LOG4 PUSH1 0x1 SWAP1 POP PUSH2 0x2138 JUMP JUMPDEST PUSH0 SWAP1 POP JUMPDEST SWAP3 SWAP2 POP POP JUMP JUMPDEST PUSH1 0x2 PUSH1 0x1 SLOAD SUB PUSH2 0x2183 JUMPI PUSH1 0x40 MLOAD PUSH32 0x8C379A000000000000000000000000000000000000000000000000000000000 DUP2 MSTORE PUSH1 0x4 ADD PUSH2 0x217A SWAP1 PUSH2 0x301F JUMP JUMPDEST PUSH1 0x40 MLOAD DUP1 SWAP2 SUB SWAP1 REVERT JUMPDEST PUSH1 0x2 PUSH1 0x1 DUP2 SWAP1 SSTORE POP JUMP JUMPDEST PUSH1 0x9 PUSH1 0x1 SWAP1 SLOAD SWAP1 PUSH2 0x100 EXP SWAP1 DIV PUSH1 0xFF AND ISZERO PUSH2 0x21DD JUMPI PUSH1 0x40 MLOAD PUSH32 0x8C379A000000000000000000000000000000000000000000000000000000000 DUP2 MSTORE PUSH1 0x4 ADD PUSH2 0x21D4 SWAP1 PUSH2 0x3087 JUMP JUMPDEST PUSH1 0x40 MLOAD DUP1 SWAP2 SUB SWAP1 REVERT JUMPDEST PUSH1 0x1 PUSH1 0x9 PUSH1 0x1 PUSH2 0x100 EXP DUP2 SLOAD DUP2 PUSH1 0xFF MUL NOT AND SWAP1 DUP4 ISZERO ISZERO MUL OR SWAP1 SSTORE POP PUSH32 0x5B2AE23CD3AC75C4244AFECDE24848A0616CA7390C4C330A40A86D7E896D9462 PUSH1 0x40 MLOAD PUSH1 0x40 MLOAD DUP1 SWAP2 SUB SWAP1 LOG1 JUMP JUMPDEST PUSH2 0x22BE DUP3 DUP3 PUSH1 0x40 MLOAD PUSH1 0x24 ADD PUSH2 0x223C SWAP3 SWAP2 SWAP1 PUSH2 0x311F JUMP JUMPDEST PUSH1 0x40 MLOAD PUSH1 0x20 DUP2 DUP4 SUB SUB DUP2 MSTORE SWAP1 PUSH1 0x40 MSTORE PUSH32 0xB60E72CC00000000000000000000000000000000000000000000000000000000 PUSH28 0xFFFFFFFFFFFFFFFFFFFFFFFFFFFFFFFFFFFFFFFFFFFFFFFFFFFFFFFF NOT AND PUSH1 0x20 DUP3 ADD DUP1 MLOAD PUSH28 0xFFFFFFFFFFFFFFFFFFFFFFFFFFFFFFFFFFFFFFFFFFFFFFFFFFFFFFFF DUP4 DUP2 DUP4 AND OR DUP4 MSTORE POP POP POP POP PUSH2 0x254D JUMP JUMPDEST POP POP JUMP JUMPDEST PUSH0 DUP2 DUP4 PUSH2 0x22CF SWAP2 SWAP1 PUSH2 0x314D JUMP JUMPDEST SWAP1 POP SWAP3 SWAP2 POP POP JUMP JUMPDEST PUSH0 DUP2 DUP4 PUSH2 0x22E4 SWAP2 SWAP1 PUSH2 0x31BB JUMP JUMPDEST SWAP1 POP SWAP3 SWAP2 POP POP JUMP JUMPDEST PUSH0 DUP2 DUP4 PUSH2 0x22F9 SWAP2 SWAP1 PUSH2 0x31EB JUMP JUMPDEST SWAP1 POP SWAP3 SWAP2 POP POP JUMP JUMPDEST PUSH2 0x2397 DUP2 PUSH1 0x40 MLOAD PUSH1 0x24 ADD PUSH2 0x2315 SWAP2 SWAP1 PUSH2 0x321E JUMP JUMPDEST PUSH1 0x40 MLOAD PUSH1 0x20 DUP2 DUP4 SUB SUB DUP2 MSTORE SWAP1 PUSH1 0x40 MSTORE PUSH32 0x41304FAC00000000000000000000000000000000000000000000000000000000 PUSH28 0xFFFFFFFFFFFFFFFFFFFFFFFFFFFFFFFFFFFFFFFFFFFFFFFFFFFFFFFF NOT AND PUSH1 0x20 DUP3 ADD DUP1 MLOAD PUSH28 0xFFFFFFFFFFFFFFFFFFFFFFFFFFFFFFFFFFFFFFFFFFFFFFFFFFFFFFFF DUP4 DUP2 DUP4 AND OR DUP4 MSTORE POP POP POP POP PUSH2 0x254D JUMP JUMPDEST POP JUMP JUMPDEST PUSH2 0x2432 DUP3 DUP3 PUSH1 0x40 MLOAD PUSH1 0x24 ADD PUSH2 0x23B0 SWAP3 SWAP2 SWAP1 PUSH2 0x323E JUMP JUMPDEST PUSH1 0x40 MLOAD PUSH1 0x20 DUP2 DUP4 SUB SUB DUP2 MSTORE SWAP1 PUSH1 0x40 MSTORE PUSH32 0x319AF33300000000000000000000000000000000000000000000000000000000 PUSH28 0xFFFFFFFFFFFFFFFFFFFFFFFFFFFFFFFFFFFFFFFFFFFFFFFFFFFFFFFF NOT AND PUSH1 0x20 DUP3 ADD DUP1 MLOAD PUSH28 0xFFFFFFFFFFFFFFFFFFFFFFFFFFFFFFFFFFFFFFFFFFFFFFFFFFFFFFFF DUP4 DUP2 DUP4 AND OR DUP4 MSTORE POP POP POP POP PUSH2 0x254D JUMP JUMPDEST POP POP JUMP JUMPDEST PUSH1 0x1 DUP1 DUP2 SWAP1 SSTORE POP JUMP JUMPDEST PUSH0 DUP2 DUP4 PUSH2 0x244C SWAP2 SWAP1 PUSH2 0x326C JUMP JUMPDEST SWAP1 POP SWAP3 SWAP2 POP POP JUMP JUMPDEST PUSH0 DUP1 PUSH0 SWAP1 POP JUMPDEST PUSH1 0xB DUP1 SLOAD SWAP1 POP DUP2 LT ISZERO PUSH2 0x24F2 JUMPI DUP3 PUSH20 0xFFFFFFFFFFFFFFFFFFFFFFFFFFFFFFFFFFFFFFFF AND PUSH1 0xB DUP3 DUP2 SLOAD DUP2 LT PUSH2 0x2492 JUMPI PUSH2 0x2491 PUSH2 0x329F JUMP JUMPDEST JUMPDEST SWAP1 PUSH0 MSTORE PUSH1 0x20 PUSH0 KECCAK256 ADD PUSH0 SWAP1 SLOAD SWAP1 PUSH2 0x100 EXP SWAP1 DIV PUSH20 0xFFFFFFFFFFFFFFFFFFFFFFFFFFFFFFFFFFFFFFFF AND PUSH20 0xFFFFFFFFFFFFFFFFFFFFFFFFFFFFFFFFFFFFFFFF AND SUB PUSH2 0x24DF JUMPI PUSH1 0x1 SWAP2 POP POP PUSH2 0x24F7 JUMP JUMPDEST DUP1 DUP1 PUSH2 0x24EA SWAP1 PUSH2 0x2DE3 JUMP JUMPDEST SWAP2 POP POP PUSH2 0x245A JUMP JUMPDEST POP PUSH0 SWAP1 POP JUMPDEST SWAP2 SWAP1 POP JUMP JUMPDEST PUSH2 0x2506 DUP3 DUP3 PUSH2 0x1968 JUMP JUMPDEST PUSH2 0x2549 JUMPI DUP1 DUP3 PUSH1 0x40 MLOAD PUSH32 0xE2517D3F00000000000000000000000000000000000000000000000000000000 DUP2 MSTORE PUSH1 0x4 ADD PUSH2 0x2540 SWAP3 SWAP2 SWAP1 PUSH2 0x32CC JUMP JUMPDEST PUSH1 0x40 MLOAD DUP1 SWAP2 SUB SWAP1 REVERT JUMPDEST POP POP JUMP JUMPDEST PUSH2 0x2564 DUP2 PUSH2 0x255C PUSH2 0x2567 PUSH2 0x2586 JUMP JUMPDEST PUSH4 0xFFFFFFFF AND JUMP JUMPDEST POP JUMP JUMPDEST PUSH0 PUSH11 0x636F6E736F6C652E6C6F67 SWAP1 POP PUSH0 DUP1 DUP4 MLOAD PUSH1 0x20 DUP6 ADD DUP5 GAS STATICCALL POP POP POP JUMP JUMPDEST PUSH2 0x2591 DUP2 SWAP1 POP SWAP2 SWAP1 POP JUMP JUMPDEST PUSH2 0x2599 PUSH2 0x32F3 JUMP JUMPDEST JUMP JUMPDEST PUSH0 DUP3 DUP3 MSTORE PUSH1 0x20 DUP3 ADD SWAP1 POP SWAP3 SWAP2 POP POP JUMP JUMPDEST PUSH32 0x436F6E747261637420646F6573206E6F74206163636570742064697265637420 PUSH0 DUP3 ADD MSTORE PUSH32 0x7061796D656E7473000000000000000000000000000000000000000000000000 PUSH1 0x20 DUP3 ADD MSTORE POP JUMP JUMPDEST PUSH0 PUSH2 0x2605 PUSH1 0x28 DUP4 PUSH2 0x259B JUMP JUMPDEST SWAP2 POP PUSH2 0x2610 DUP3 PUSH2 0x25AB JUMP JUMPDEST PUSH1 0x40 DUP3 ADD SWAP1 POP SWAP2 SWAP1 POP JUMP JUMPDEST PUSH0 PUSH1 0x20 DUP3 ADD SWAP1 POP DUP2 DUP2 SUB PUSH0 DUP4 ADD MSTORE PUSH2 0x2632 DUP2 PUSH2 0x25F9 JUMP JUMPDEST SWAP1 POP SWAP2 SWAP1 POP JUMP JUMPDEST PUSH0 DUP1 REVERT JUMPDEST PUSH0 PUSH32 0xFFFFFFFF00000000000000000000000000000000000000000000000000000000 DUP3 AND SWAP1 POP SWAP2 SWAP1 POP JUMP JUMPDEST PUSH2 0x2671 DUP2 PUSH2 0x263D JUMP JUMPDEST DUP2 EQ PUSH2 0x267B JUMPI PUSH0 DUP1 REVERT JUMPDEST POP JUMP JUMPDEST PUSH0 DUP2 CALLDATALOAD SWAP1 POP PUSH2 0x268C DUP2 PUSH2 0x2668 JUMP JUMPDEST SWAP3 SWAP2 POP POP JUMP JUMPDEST PUSH0 PUSH1 0x20 DUP3 DUP5 SUB SLT ISZERO PUSH2 0x26A7 JUMPI PUSH2 0x26A6 PUSH2 0x2639 JUMP JUMPDEST JUMPDEST PUSH0 PUSH2 0x26B4 DUP5 DUP3 DUP6 ADD PUSH2 0x267E JUMP JUMPDEST SWAP2 POP POP SWAP3 SWAP2 POP POP JUMP JUMPDEST PUSH0 DUP2 ISZERO ISZERO SWAP1 POP SWAP2 SWAP1 POP JUMP JUMPDEST PUSH2 0x26D1 DUP2 PUSH2 0x26BD JUMP JUMPDEST DUP3 MSTORE POP POP JUMP JUMPDEST PUSH0 PUSH1 0x20 DUP3 ADD SWAP1 POP PUSH2 0x26EA PUSH0 DUP4 ADD DUP5 PUSH2 0x26C8 JUMP JUMPDEST SWAP3 SWAP2 POP POP JUMP JUMPDEST PUSH0 DUP2 SWAP1 POP SWAP2 SWAP1 POP JUMP JUMPDEST PUSH2 0x2702 DUP2 PUSH2 0x26F0 JUMP JUMPDEST DUP2 EQ PUSH2 0x270C JUMPI PUSH0 DUP1 REVERT JUMPDEST POP JUMP JUMPDEST PUSH0 DUP2 CALLDATALOAD SWAP1 POP PUSH2 0x271D DUP2 PUSH2 0x26F9 JUMP JUMPDEST SWAP3 SWAP2 POP POP JUMP JUMPDEST PUSH0 PUSH1 0x20 DUP3 DUP5 SUB SLT ISZERO PUSH2 0x2738 JUMPI PUSH2 0x2737 PUSH2 0x2639 JUMP JUMPDEST JUMPDEST PUSH0 PUSH2 0x2745 DUP5 DUP3 DUP6 ADD PUSH2 0x270F JUMP JUMPDEST SWAP2 POP POP SWAP3 SWAP2 POP POP JUMP JUMPDEST PUSH0 PUSH20 0xFFFFFFFFFFFFFFFFFFFFFFFFFFFFFFFFFFFFFFFF DUP3 AND SWAP1 POP SWAP2 SWAP1 POP JUMP JUMPDEST PUSH0 PUSH2 0x2777 DUP3 PUSH2 0x274E JUMP JUMPDEST SWAP1 POP SWAP2 SWAP1 POP JUMP JUMPDEST PUSH2 0x2787 DUP2 PUSH2 0x276D JUMP JUMPDEST DUP3 MSTORE POP POP JUMP JUMPDEST PUSH0 PUSH1 0x20 DUP3 ADD SWAP1 POP PUSH2 0x27A0 PUSH0 DUP4 ADD DUP5 PUSH2 0x277E JUMP JUMPDEST SWAP3 SWAP2 POP POP JUMP JUMPDEST PUSH2 0x27AF DUP2 PUSH2 0x26F0 JUMP JUMPDEST DUP3 MSTORE POP POP JUMP JUMPDEST PUSH0 PUSH1 0x20 DUP3 ADD SWAP1 POP PUSH2 0x27C8 PUSH0 DUP4 ADD DUP5 PUSH2 0x27A6 JUMP JUMPDEST SWAP3 SWAP2 POP POP JUMP JUMPDEST PUSH0 DUP2 SWAP1 POP SWAP2 SWAP1 POP JUMP JUMPDEST PUSH2 0x27E0 DUP2 PUSH2 0x27CE JUMP JUMPDEST DUP2 EQ PUSH2 0x27EA JUMPI PUSH0 DUP1 REVERT JUMPDEST POP JUMP JUMPDEST PUSH0 DUP2 CALLDATALOAD SWAP1 POP PUSH2 0x27FB DUP2 PUSH2 0x27D7 JUMP JUMPDEST SWAP3 SWAP2 POP POP JUMP JUMPDEST PUSH0 PUSH1 0x20 DUP3 DUP5 SUB SLT ISZERO PUSH2 0x2816 JUMPI PUSH2 0x2815 PUSH2 0x2639 JUMP JUMPDEST JUMPDEST PUSH0 PUSH2 0x2823 DUP5 DUP3 DUP6 ADD PUSH2 0x27ED JUMP JUMPDEST SWAP2 POP POP SWAP3 SWAP2 POP POP JUMP JUMPDEST PUSH2 0x2835 DUP2 PUSH2 0x27CE JUMP JUMPDEST DUP3 MSTORE POP POP JUMP JUMPDEST PUSH0 PUSH1 0x20 DUP3 ADD SWAP1 POP PUSH2 0x284E PUSH0 DUP4 ADD DUP5 PUSH2 0x282C JUMP JUMPDEST SWAP3 SWAP2 POP POP JUMP JUMPDEST PUSH2 0x285D DUP2 PUSH2 0x276D JUMP JUMPDEST DUP2 EQ PUSH2 0x2867 JUMPI PUSH0 DUP1 REVERT JUMPDEST POP JUMP JUMPDEST PUSH0 DUP2 CALLDATALOAD SWAP1 POP PUSH2 0x2878 DUP2 PUSH2 0x2854 JUMP JUMPDEST SWAP3 SWAP2 POP POP JUMP JUMPDEST PUSH0 DUP1 PUSH1 0x40 DUP4 DUP6 SUB SLT ISZERO PUSH2 0x2894 JUMPI PUSH2 0x2893 PUSH2 0x2639 JUMP JUMPDEST JUMPDEST PUSH0 PUSH2 0x28A1 DUP6 DUP3 DUP7 ADD PUSH2 0x27ED JUMP JUMPDEST SWAP3 POP POP PUSH1 0x20 PUSH2 0x28B2 DUP6 DUP3 DUP7 ADD PUSH2 0x286A JUMP JUMPDEST SWAP2 POP POP SWAP3 POP SWAP3 SWAP1 POP JUMP JUMPDEST PUSH0 PUSH1 0x20 DUP3 DUP5 SUB SLT ISZERO PUSH2 0x28D1 JUMPI PUSH2 0x28D0 PUSH2 0x2639 JUMP JUMPDEST JUMPDEST PUSH0 PUSH2 0x28DE DUP5 DUP3 DUP6 ADD PUSH2 0x286A JUMP JUMPDEST SWAP2 POP POP SWAP3 SWAP2 POP POP JUMP JUMPDEST PUSH32 0x4E6F74207468652061646D696E00000000000000000000000000000000000000 PUSH0 DUP3 ADD MSTORE POP JUMP JUMPDEST PUSH0 PUSH2 0x291B PUSH1 0xD DUP4 PUSH2 0x259B JUMP JUMPDEST SWAP2 POP PUSH2 0x2926 DUP3 PUSH2 0x28E7 JUMP JUMPDEST PUSH1 0x20 DUP3 ADD SWAP1 POP SWAP2 SWAP1 POP JUMP JUMPDEST PUSH0 PUSH1 0x20 DUP3 ADD SWAP1 POP DUP2 DUP2 SUB PUSH0 DUP4 ADD MSTORE PUSH2 0x2948 DUP2 PUSH2 0x290F JUMP JUMPDEST SWAP1 POP SWAP2 SWAP1 POP JUMP JUMPDEST PUSH32 0x526169736520616C726561647920737461727465640000000000000000000000 PUSH0 DUP3 ADD MSTORE POP JUMP JUMPDEST PUSH0 PUSH2 0x2983 PUSH1 0x15 DUP4 PUSH2 0x259B JUMP JUMPDEST SWAP2 POP PUSH2 0x298E DUP3 PUSH2 0x294F JUMP JUMPDEST PUSH1 0x20 DUP3 ADD SWAP1 POP SWAP2 SWAP1 POP JUMP JUMPDEST PUSH0 PUSH1 0x20 DUP3 ADD SWAP1 POP DUP2 DUP2 SUB PUSH0 DUP4 ADD MSTORE PUSH2 0x29B0 DUP2 PUSH2 0x2977 JUMP JUMPDEST SWAP1 POP SWAP2 SWAP1 POP JUMP JUMPDEST PUSH0 PUSH1 0x40 DUP3 ADD SWAP1 POP PUSH2 0x29CA PUSH0 DUP4 ADD DUP6 PUSH2 0x277E JUMP JUMPDEST PUSH2 0x29D7 PUSH1 0x20 DUP4 ADD DUP5 PUSH2 0x26C8 JUMP JUMPDEST SWAP4 SWAP3 POP POP POP JUMP JUMPDEST PUSH32 0x4D757374206861766520646566696E656420526F6C6573000000000000000000 PUSH0 DUP3 ADD MSTORE POP JUMP JUMPDEST PUSH0 PUSH2 0x2A12 PUSH1 0x17 DUP4 PUSH2 0x259B JUMP JUMPDEST SWAP2 POP PUSH2 0x2A1D DUP3 PUSH2 0x29DE JUMP JUMPDEST PUSH1 0x20 DUP3 ADD SWAP1 POP SWAP2 SWAP1 POP JUMP JUMPDEST PUSH0 PUSH1 0x20 DUP3 ADD SWAP1 POP DUP2 DUP2 SUB PUSH0 DUP4 ADD MSTORE PUSH2 0x2A3F DUP2 PUSH2 0x2A06 JUMP JUMPDEST SWAP1 POP SWAP2 SWAP1 POP JUMP JUMPDEST PUSH32 0x5261697365206E6F7420656E6465640000000000000000000000000000000000 PUSH0 DUP3 ADD MSTORE POP JUMP JUMPDEST PUSH0 PUSH2 0x2A7A PUSH1 0xF DUP4 PUSH2 0x259B JUMP JUMPDEST SWAP2 POP PUSH2 0x2A85 DUP3 PUSH2 0x2A46 JUMP JUMPDEST PUSH1 0x20 DUP3 ADD SWAP1 POP SWAP2 SWAP1 POP JUMP JUMPDEST PUSH0 PUSH1 0x20 DUP3 ADD SWAP1 POP DUP2 DUP2 SUB PUSH0 DUP4 ADD MSTORE PUSH2 0x2AA7 DUP2 PUSH2 0x2A6E JUMP JUMPDEST SWAP1 POP SWAP2 SWAP1 POP JUMP JUMPDEST PUSH32 0x526173696564416D6F75742073686F756C64206E6F74206265207A65726F0000 PUSH0 DUP3 ADD MSTORE POP JUMP JUMPDEST PUSH0 PUSH2 0x2AE2 PUSH1 0x1E DUP4 PUSH2 0x259B JUMP JUMPDEST SWAP2 POP PUSH2 0x2AED DUP3 PUSH2 0x2AAE JUMP JUMPDEST PUSH1 0x20 DUP3 ADD SWAP1 POP SWAP2 SWAP1 POP JUMP JUMPDEST PUSH0 PUSH1 0x20 DUP3 ADD SWAP1 POP DUP2 DUP2 SUB PUSH0 DUP4 ADD MSTORE PUSH2 0x2B0F DUP2 PUSH2 0x2AD6 JUMP JUMPDEST SWAP1 POP SWAP2 SWAP1 POP JUMP JUMPDEST PUSH32 0x54786E206661696C656420666F72207468652061646D696E207768656E20746F PUSH0 DUP3 ADD MSTORE PUSH32 0x74616C20726173696564203C2068617264636170000000000000000000000000 PUSH1 0x20 DUP3 ADD MSTORE POP JUMP JUMPDEST PUSH0 PUSH2 0x2B70 PUSH1 0x34 DUP4 PUSH2 0x259B JUMP JUMPDEST SWAP2 POP PUSH2 0x2B7B DUP3 PUSH2 0x2B16 JUMP JUMPDEST PUSH1 0x40 DUP3 ADD SWAP1 POP SWAP2 SWAP1 POP JUMP JUMPDEST PUSH0 PUSH1 0x20 DUP3 ADD SWAP1 POP DUP2 DUP2 SUB PUSH0 DUP4 ADD MSTORE PUSH2 0x2B9D DUP2 PUSH2 0x2B64 JUMP JUMPDEST SWAP1 POP SWAP2 SWAP1 POP JUMP JUMPDEST PUSH32 0x54786E206661696C656420666F72207468652053757065722041646D696E2077 PUSH0 DUP3 ADD MSTORE PUSH32 0x68656E20746F74616C20726173696564203C2068617264636170000000000000 PUSH1 0x20 DUP3 ADD MSTORE POP JUMP JUMPDEST PUSH0 PUSH2 0x2BFE PUSH1 0x3A DUP4 PUSH2 0x259B JUMP JUMPDEST SWAP2 POP PUSH2 0x2C09 DUP3 PUSH2 0x2BA4 JUMP JUMPDEST PUSH1 0x40 DUP3 ADD SWAP1 POP SWAP2 SWAP1 POP JUMP JUMPDEST PUSH0 PUSH1 0x20 DUP3 ADD SWAP1 POP DUP2 DUP2 SUB PUSH0 DUP4 ADD MSTORE PUSH2 0x2C2B DUP2 PUSH2 0x2BF2 JUMP JUMPDEST SWAP1 POP SWAP2 SWAP1 POP JUMP JUMPDEST PUSH32 0x54786E206661696C656420666F72207468652061646D696E207768656E20746F PUSH0 DUP3 ADD MSTORE PUSH32 0x74616C20726173696564203E2068617264636170000000000000000000000000 PUSH1 0x20 DUP3 ADD MSTORE POP JUMP JUMPDEST PUSH0 PUSH2 0x2C8C PUSH1 0x34 DUP4 PUSH2 0x259B JUMP JUMPDEST SWAP2 POP PUSH2 0x2C97 DUP3 PUSH2 0x2C32 JUMP JUMPDEST PUSH1 0x40 DUP3 ADD SWAP1 POP SWAP2 SWAP1 POP JUMP JUMPDEST PUSH0 PUSH1 0x20 DUP3 ADD SWAP1 POP DUP2 DUP2 SUB PUSH0 DUP4 ADD MSTORE PUSH2 0x2CB9 DUP2 PUSH2 0x2C80 JUMP JUMPDEST SWAP1 POP SWAP2 SWAP1 POP JUMP JUMPDEST PUSH32 0x4E6F7420612076616C6964206164647265737300000000000000000000000000 PUSH0 DUP3 ADD MSTORE POP JUMP JUMPDEST PUSH0 PUSH2 0x2CF4 PUSH1 0x13 DUP4 PUSH2 0x259B JUMP JUMPDEST SWAP2 POP PUSH2 0x2CFF DUP3 PUSH2 0x2CC0 JUMP JUMPDEST PUSH1 0x20 DUP3 ADD SWAP1 POP SWAP2 SWAP1 POP JUMP JUMPDEST PUSH0 PUSH1 0x20 DUP3 ADD SWAP1 POP DUP2 DUP2 SUB PUSH0 DUP4 ADD MSTORE PUSH2 0x2D21 DUP2 PUSH2 0x2CE8 JUMP JUMPDEST SWAP1 POP SWAP2 SWAP1 POP JUMP JUMPDEST PUSH32 0x54786E206661696C656420666F722074686520636F6E7472696275746F725365 PUSH0 DUP3 ADD MSTORE PUSH32 0x6E64000000000000000000000000000000000000000000000000000000000000 PUSH1 0x20 DUP3 ADD MSTORE POP JUMP JUMPDEST PUSH0 PUSH2 0x2D82 PUSH1 0x22 DUP4 PUSH2 0x259B JUMP JUMPDEST SWAP2 POP PUSH2 0x2D8D DUP3 PUSH2 0x2D28 JUMP JUMPDEST PUSH1 0x40 DUP3 ADD SWAP1 POP SWAP2 SWAP1 POP JUMP JUMPDEST PUSH0 PUSH1 0x20 DUP3 ADD SWAP1 POP DUP2 DUP2 SUB PUSH0 DUP4 ADD MSTORE PUSH2 0x2DAF DUP2 PUSH2 0x2D76 JUMP JUMPDEST SWAP1 POP SWAP2 SWAP1 POP JUMP JUMPDEST PUSH32 0x4E487B7100000000000000000000000000000000000000000000000000000000 PUSH0 MSTORE PUSH1 0x11 PUSH1 0x4 MSTORE PUSH1 0x24 PUSH0 REVERT JUMPDEST PUSH0 PUSH2 0x2DED DUP3 PUSH2 0x26F0 JUMP JUMPDEST SWAP2 POP PUSH32 0xFFFFFFFFFFFFFFFFFFFFFFFFFFFFFFFFFFFFFFFFFFFFFFFFFFFFFFFFFFFFFFFF DUP3 SUB PUSH2 0x2E1F JUMPI PUSH2 0x2E1E PUSH2 0x2DB6 JUMP JUMPDEST JUMPDEST PUSH1 0x1 DUP3 ADD SWAP1 POP SWAP2 SWAP1 POP JUMP JUMPDEST PUSH32 0x54786E206661696C656420666F72207468652061646D696E207768656E20746F PUSH0 DUP3 ADD MSTORE PUSH32 0x74616C20726173696564203D3D20686172646361700000000000000000000000 PUSH1 0x20 DUP3 ADD MSTORE POP JUMP JUMPDEST PUSH0 PUSH2 0x2E84 PUSH1 0x35 DUP4 PUSH2 0x259B JUMP JUMPDEST SWAP2 POP PUSH2 0x2E8F DUP3 PUSH2 0x2E2A JUMP JUMPDEST PUSH1 0x40 DUP3 ADD SWAP1 POP SWAP2 SWAP1 POP JUMP JUMPDEST PUSH0 PUSH1 0x20 DUP3 ADD SWAP1 POP DUP2 DUP2 SUB PUSH0 DUP4 ADD MSTORE PUSH2 0x2EB1 DUP2 PUSH2 0x2E78 JUMP JUMPDEST SWAP1 POP SWAP2 SWAP1 POP JUMP JUMPDEST PUSH32 0x5261736965206D757374206265206F6E676F696E670000000000000000000000 PUSH0 DUP3 ADD MSTORE POP JUMP JUMPDEST PUSH0 PUSH2 0x2EEC PUSH1 0x15 DUP4 PUSH2 0x259B JUMP JUMPDEST SWAP2 POP PUSH2 0x2EF7 DUP3 PUSH2 0x2EB8 JUMP JUMPDEST PUSH1 0x20 DUP3 ADD SWAP1 POP SWAP2 SWAP1 POP JUMP JUMPDEST PUSH0 PUSH1 0x20 DUP3 ADD SWAP1 POP DUP2 DUP2 SUB PUSH0 DUP4 ADD MSTORE PUSH2 0x2F19 DUP2 PUSH2 0x2EE0 JUMP JUMPDEST SWAP1 POP SWAP2 SWAP1 POP JUMP JUMPDEST PUSH32 0x436F6E747269627574696F6E2073686F756C6420626520677265617465722074 PUSH0 DUP3 ADD MSTORE PUSH32 0x68616E206D696E696D756D20436F6E747269627574696F6E0000000000000000 PUSH1 0x20 DUP3 ADD MSTORE POP JUMP JUMPDEST PUSH0 PUSH2 0x2F7A PUSH1 0x38 DUP4 PUSH2 0x259B JUMP JUMPDEST SWAP2 POP PUSH2 0x2F85 DUP3 PUSH2 0x2F20 JUMP JUMPDEST PUSH1 0x40 DUP3 ADD SWAP1 POP SWAP2 SWAP1 POP JUMP JUMPDEST PUSH0 PUSH1 0x20 DUP3 ADD SWAP1 POP DUP2 DUP2 SUB PUSH0 DUP4 ADD MSTORE PUSH2 0x2FA7 DUP2 PUSH2 0x2F6E JUMP JUMPDEST SWAP1 POP SWAP2 SWAP1 POP JUMP JUMPDEST PUSH0 PUSH1 0x40 DUP3 ADD SWAP1 POP PUSH2 0x2FC1 PUSH0 DUP4 ADD DUP6 PUSH2 0x27A6 JUMP JUMPDEST PUSH2 0x2FCE PUSH1 0x20 DUP4 ADD DUP5 PUSH2 0x27A6 JUMP JUMPDEST SWAP4 SWAP3 POP POP POP JUMP JUMPDEST PUSH32 0x5265656E7472616E637947756172643A207265656E7472616E742063616C6C00 PUSH0 DUP3 ADD MSTORE POP JUMP JUMPDEST PUSH0 PUSH2 0x3009 PUSH1 0x1F DUP4 PUSH2 0x259B JUMP JUMPDEST SWAP2 POP PUSH2 0x3014 DUP3 PUSH2 0x2FD5 JUMP JUMPDEST PUSH1 0x20 DUP3 ADD SWAP1 POP SWAP2 SWAP1 POP JUMP JUMPDEST PUSH0 PUSH1 0x20 DUP3 ADD SWAP1 POP DUP2 DUP2 SUB PUSH0 DUP4 ADD MSTORE PUSH2 0x3036 DUP2 PUSH2 0x2FFD JUMP JUMPDEST SWAP1 POP SWAP2 SWAP1 POP JUMP JUMPDEST PUSH32 0x526169736520616C726561647920656E64656400000000000000000000000000 PUSH0 DUP3 ADD MSTORE POP JUMP JUMPDEST PUSH0 PUSH2 0x3071 PUSH1 0x13 DUP4 PUSH2 0x259B JUMP JUMPDEST SWAP2 POP PUSH2 0x307C DUP3 PUSH2 0x303D JUMP JUMPDEST PUSH1 0x20 DUP3 ADD SWAP1 POP SWAP2 SWAP1 POP JUMP JUMPDEST PUSH0 PUSH1 0x20 DUP3 ADD SWAP1 POP DUP2 DUP2 SUB PUSH0 DUP4 ADD MSTORE PUSH2 0x309E DUP2 PUSH2 0x3065 JUMP JUMPDEST SWAP1 POP SWAP2 SWAP1 POP JUMP JUMPDEST PUSH0 DUP2 MLOAD SWAP1 POP SWAP2 SWAP1 POP JUMP JUMPDEST PUSH0 JUMPDEST DUP4 DUP2 LT ISZERO PUSH2 0x30CC JUMPI DUP1 DUP3 ADD MLOAD DUP2 DUP5 ADD MSTORE PUSH1 0x20 DUP2 ADD SWAP1 POP PUSH2 0x30B1 JUMP JUMPDEST PUSH0 DUP5 DUP5 ADD MSTORE POP POP POP POP JUMP JUMPDEST PUSH0 PUSH1 0x1F NOT PUSH1 0x1F DUP4 ADD AND SWAP1 POP SWAP2 SWAP1 POP JUMP JUMPDEST PUSH0 PUSH2 0x30F1 DUP3 PUSH2 0x30A5 JUMP JUMPDEST PUSH2 0x30FB DUP2 DUP6 PUSH2 0x259B JUMP JUMPDEST SWAP4 POP PUSH2 0x310B DUP2 DUP6 PUSH1 0x20 DUP7 ADD PUSH2 0x30AF JUMP JUMPDEST PUSH2 0x3114 DUP2 PUSH2 0x30D7 JUMP JUMPDEST DUP5 ADD SWAP2 POP POP SWAP3 SWAP2 POP POP JUMP JUMPDEST PUSH0 PUSH1 0x40 DUP3 ADD SWAP1 POP DUP2 DUP2 SUB PUSH0 DUP4 ADD MSTORE PUSH2 0x3137 DUP2 DUP6 PUSH2 0x30E7 JUMP JUMPDEST SWAP1 POP PUSH2 0x3146 PUSH1 0x20 DUP4 ADD DUP5 PUSH2 0x27A6 JUMP JUMPDEST SWAP4 SWAP3 POP POP POP JUMP JUMPDEST PUSH0 PUSH2 0x3157 DUP3 PUSH2 0x26F0 JUMP JUMPDEST SWAP2 POP PUSH2 0x3162 DUP4 PUSH2 0x26F0 JUMP JUMPDEST SWAP3 POP DUP3 DUP3 MUL PUSH2 0x3170 DUP2 PUSH2 0x26F0 JUMP JUMPDEST SWAP2 POP DUP3 DUP3 DIV DUP5 EQ DUP4 ISZERO OR PUSH2 0x3187 JUMPI PUSH2 0x3186 PUSH2 0x2DB6 JUMP JUMPDEST JUMPDEST POP SWAP3 SWAP2 POP POP JUMP JUMPDEST PUSH32 0x4E487B7100000000000000000000000000000000000000000000000000000000 PUSH0 MSTORE PUSH1 0x12 PUSH1 0x4 MSTORE PUSH1 0x24 PUSH0 REVERT JUMPDEST PUSH0 PUSH2 0x31C5 DUP3 PUSH2 0x26F0 JUMP JUMPDEST SWAP2 POP PUSH2 0x31D0 DUP4 PUSH2 0x26F0 JUMP JUMPDEST SWAP3 POP DUP3 PUSH2 0x31E0 JUMPI PUSH2 0x31DF PUSH2 0x318E JUMP JUMPDEST JUMPDEST DUP3 DUP3 DIV SWAP1 POP SWAP3 SWAP2 POP POP JUMP JUMPDEST PUSH0 PUSH2 0x31F5 DUP3 PUSH2 0x26F0 JUMP JUMPDEST SWAP2 POP PUSH2 0x3200 DUP4 PUSH2 0x26F0 JUMP JUMPDEST SWAP3 POP DUP3 DUP3 SUB SWAP1 POP DUP2 DUP2 GT ISZERO PUSH2 0x3218 JUMPI PUSH2 0x3217 PUSH2 0x2DB6 JUMP JUMPDEST JUMPDEST SWAP3 SWAP2 POP POP JUMP JUMPDEST PUSH0 PUSH1 0x20 DUP3 ADD SWAP1 POP DUP2 DUP2 SUB PUSH0 DUP4 ADD MSTORE PUSH2 0x3236 DUP2 DUP5 PUSH2 0x30E7 JUMP JUMPDEST SWAP1 POP SWAP3 SWAP2 POP POP JUMP JUMPDEST PUSH0 PUSH1 0x40 DUP3 ADD SWAP1 POP DUP2 DUP2 SUB PUSH0 DUP4 ADD MSTORE PUSH2 0x3256 DUP2 DUP6 PUSH2 0x30E7 JUMP JUMPDEST SWAP1 POP PUSH2 0x3265 PUSH1 0x20 DUP4 ADD DUP5 PUSH2 0x277E JUMP JUMPDEST SWAP4 SWAP3 POP POP POP JUMP JUMPDEST PUSH0 PUSH2 0x3276 DUP3 PUSH2 0x26F0 JUMP JUMPDEST SWAP2 POP PUSH2 0x3281 DUP4 PUSH2 0x26F0 JUMP JUMPDEST SWAP3 POP DUP3 DUP3 ADD SWAP1 POP DUP1 DUP3 GT ISZERO PUSH2 0x3299 JUMPI PUSH2 0x3298 PUSH2 0x2DB6 JUMP JUMPDEST JUMPDEST SWAP3 SWAP2 POP POP JUMP JUMPDEST PUSH32 0x4E487B7100000000000000000000000000000000000000000000000000000000 PUSH0 MSTORE PUSH1 0x32 PUSH1 0x4 MSTORE PUSH1 0x24 PUSH0 REVERT JUMPDEST PUSH0 PUSH1 0x40 DUP3 ADD SWAP1 POP PUSH2 0x32DF PUSH0 DUP4 ADD DUP6 PUSH2 0x277E JUMP JUMPDEST PUSH2 0x32EC PUSH1 0x20 DUP4 ADD DUP5 PUSH2 0x282C JUMP JUMPDEST SWAP4 SWAP3 POP POP POP JUMP JUMPDEST PUSH32 0x4E487B7100000000000000000000000000000000000000000000000000000000 PUSH0 MSTORE PUSH1 0x51 PUSH1 0x4 MSTORE PUSH1 0x24 PUSH0 REVERT INVALID PUSH2 0x646D PUSH10 0x6E416D6F756E74205768 PUSH6 0x6E20746F7461 PUSH13 0x20726173696564203C20686172 PUSH5 0x6361706164 PUSH14 0x696E416D6F756E74205768656E20 PUSH21 0x6F74616C20726173696564203D3D20686172646361 PUSH17 0x737570657241646D696E416D7420576865 PUSH15 0x20746F74616C20726173696564203D RETURNDATASIZE KECCAK256 PUSH9 0x617264636170207375 PUSH17 0x657241646D696E416D74205768656E2074 PUSH16 0x74616C20726173696564203C20686172 PUSH5 0x6361702041 PUSH19 0x65207765207265616C6C7920726566756E6469 PUSH15 0x6720746F2074686520757365727373 PUSH22 0x70657241646D696E416D74205768656E20746F74616C KECCAK256 PUSH19 0x6173696564203E20686172646361702061646D PUSH10 0x6E416D6F756E74205768 PUSH6 0x6E20746F7461 PUSH13 0x20726173696564203E20686172 PUSH5 0x636170A264 PUSH10 0x70667358221220F4CBE5 0xD9 PUSH19 0x9FCBAC92B720452EB956BC4C8A43D4B3057C02 DUP11 SWAP9 PUSH20 0xC6519A053064736F6C6343000814003300000000 "
		},
		"gasEstimates": {
			"creation": {
				"codeDepositCost": "2684600",
				"executionCost": "infinite",
				"totalCost": "infinite"
			},
			"external": {
				"ADMIN_ROLE()": "436",
				"DEFAULT_ADMIN_ROLE()": "375",
				"SUPER_ADMIN()": "371",
				"addToWhitelist(address)": "infinite",
				"contractCreator()": "2554",
				"contribute()": "infinite",
				"contributions(address)": "2892",
				"contributorsList(uint256)": "5035",
				"feePercent()": "2515",
				"finaliseRaise()": "infinite",
				"getContractBalance()": "401",
				"getRoleAdmin(bytes32)": "infinite",
				"grantRole(bytes32,address)": "infinite",
				"hardCap()": "2557",
				"hasRole(bytes32,address)": "3211",
				"increaseHardCap(uint256)": "infinite",
				"maxContribution()": "2492",
				"minContribution()": "2492",
				"numOfContributors()": "2538",
				"raiseEnded()": "2585",
				"raiseStarted()": "2555",
				"removeFromWhitelist(address)": "infinite",
				"renounceRole(bytes32,address)": "infinite",
				"revokeRole(bytes32,address)": "infinite",
				"setFeePercent(uint256)": "27086",
				"setHardCap(uint256)": "27062",
				"setMaxContribution(uint256)": "infinite",
				"setMinContribution(uint256)": "infinite",
				"startRaise()": "31889",
				"superAdmin()": "2598",
				"supportsInterface(bytes4)": "764",
				"totalRaised()": "2536",
				"whitelist(address)": "2944"
			},
			"internal": {
				"endRaise()": "infinite",
				"isContributor(address)": "infinite"
			}
		},
		"methodIdentifiers": {
			"ADMIN_ROLE()": "75b238fc",
			"DEFAULT_ADMIN_ROLE()": "a217fddf",
			"SUPER_ADMIN()": "7c7c7c3c",
			"addToWhitelist(address)": "e43252d7",
			"contractCreator()": "1e2f73b1",
			"contribute()": "d7bb99ba",
			"contributions(address)": "42e94c90",
			"contributorsList(uint256)": "0b9f2c4a",
			"feePercent()": "7fd6f15c",
			"finaliseRaise()": "8d070e75",
			"getContractBalance()": "6f9fb98a",
			"getRoleAdmin(bytes32)": "248a9ca3",
			"grantRole(bytes32,address)": "2f2ff15d",
			"hardCap()": "fb86a404",
			"hasRole(bytes32,address)": "91d14854",
			"increaseHardCap(uint256)": "b8e0d08d",
			"maxContribution()": "8d3d6576",
			"minContribution()": "aaffadf3",
			"numOfContributors()": "1e206f15",
			"raiseEnded()": "3e0498d2",
			"raiseStarted()": "708dee5e",
			"removeFromWhitelist(address)": "8ab1d681",
			"renounceRole(bytes32,address)": "36568abe",
			"revokeRole(bytes32,address)": "d547741f",
			"setFeePercent(uint256)": "7ce3489b",
			"setHardCap(uint256)": "d18d944b",
			"setMaxContribution(uint256)": "03ed9d21",
			"setMinContribution(uint256)": "473b0d46",
			"startRaise()": "6d66d2ce",
			"superAdmin()": "29575f6a",
			"supportsInterface(bytes4)": "01ffc9a7",
			"totalRaised()": "c5c4744c",
			"whitelist(address)": "9b19251a"
		}
	},
	"abi": [
		{
			"inputs": [
				{
					"internalType": "address",
					"name": "_admin",
					"type": "address"
				},
				{
					"internalType": "uint256",
					"name": "_hardcap",
					"type": "uint256"
				},
				{
					"internalType": "address",
					"name": "_superAdmin",
					"type": "address"
				},
				{
					"internalType": "uint256",
					"name": "_minContribution",
					"type": "uint256"
				}
			],
			"stateMutability": "nonpayable",
			"type": "constructor"
		},
		{
			"inputs": [],
			"name": "AccessControlBadConfirmation",
			"type": "error"
		},
		{
			"inputs": [
				{
					"internalType": "address",
					"name": "account",
					"type": "address"
				},
				{
					"internalType": "bytes32",
					"name": "neededRole",
					"type": "bytes32"
				}
			],
			"name": "AccessControlUnauthorizedAccount",
			"type": "error"
		},
		{
			"anonymous": false,
			"inputs": [
				{
					"indexed": false,
					"internalType": "uint256",
					"name": "_newHardCap",
					"type": "uint256"
				}
			],
			"name": "HardCapIncreased",
			"type": "event"
		},
		{
			"anonymous": false,
			"inputs": [
				{
					"indexed": false,
					"internalType": "uint256",
					"name": "_max",
					"type": "uint256"
				}
			],
			"name": "MaxContributionSet",
			"type": "event"
		},
		{
			"anonymous": false,
			"inputs": [
				{
					"indexed": false,
					"internalType": "uint256",
					"name": "_min",
					"type": "uint256"
				}
			],
			"name": "MinContributionSet",
			"type": "event"
		},
		{
			"anonymous": false,
			"inputs": [
				{
					"indexed": true,
					"internalType": "bytes32",
					"name": "role",
					"type": "bytes32"
				},
				{
					"indexed": true,
					"internalType": "bytes32",
					"name": "previousAdminRole",
					"type": "bytes32"
				},
				{
					"indexed": true,
					"internalType": "bytes32",
					"name": "newAdminRole",
					"type": "bytes32"
				}
			],
			"name": "RoleAdminChanged",
			"type": "event"
		},
		{
			"anonymous": false,
			"inputs": [
				{
					"indexed": true,
					"internalType": "bytes32",
					"name": "role",
					"type": "bytes32"
				},
				{
					"indexed": true,
					"internalType": "address",
					"name": "account",
					"type": "address"
				},
				{
					"indexed": true,
					"internalType": "address",
					"name": "sender",
					"type": "address"
				}
			],
			"name": "RoleGranted",
			"type": "event"
		},
		{
			"anonymous": false,
			"inputs": [
				{
					"indexed": true,
					"internalType": "bytes32",
					"name": "role",
					"type": "bytes32"
				},
				{
					"indexed": true,
					"internalType": "address",
					"name": "account",
					"type": "address"
				},
				{
					"indexed": true,
					"internalType": "address",
					"name": "sender",
					"type": "address"
				}
			],
			"name": "RoleRevoked",
			"type": "event"
		},
		{
			"anonymous": false,
			"inputs": [
				{
					"indexed": false,
					"internalType": "address",
					"name": "_account",
					"type": "address"
				},
				{
					"indexed": false,
					"internalType": "bool",
					"name": "_value",
					"type": "bool"
				}
			],
			"name": "WhitelistUpdated",
			"type": "event"
		},
		{
			"anonymous": false,
			"inputs": [],
			"name": "raiseEndedEvent",
			"type": "event"
		},
		{
			"anonymous": false,
			"inputs": [],
			"name": "raiseStartedEvent",
			"type": "event"
		},
		{
			"anonymous": false,
			"inputs": [
				{
					"indexed": true,
					"internalType": "address",
					"name": "_user",
					"type": "address"
				},
				{
					"indexed": false,
					"internalType": "uint256",
					"name": "_value",
					"type": "uint256"
				},
				{
					"indexed": false,
					"internalType": "uint256",
					"name": "_time",
					"type": "uint256"
				}
			],
			"name": "totalContributed",
			"type": "event"
		},
		{
			"inputs": [],
			"name": "ADMIN_ROLE",
			"outputs": [
				{
					"internalType": "bytes32",
					"name": "",
					"type": "bytes32"
				}
			],
			"stateMutability": "view",
			"type": "function"
		},
		{
			"inputs": [],
			"name": "DEFAULT_ADMIN_ROLE",
			"outputs": [
				{
					"internalType": "bytes32",
					"name": "",
					"type": "bytes32"
				}
			],
			"stateMutability": "view",
			"type": "function"
		},
		{
			"inputs": [],
			"name": "SUPER_ADMIN",
			"outputs": [
				{
					"internalType": "bytes32",
					"name": "",
					"type": "bytes32"
				}
			],
			"stateMutability": "view",
			"type": "function"
		},
		{
			"inputs": [
				{
					"internalType": "address",
					"name": "_account",
					"type": "address"
				}
			],
			"name": "addToWhitelist",
			"outputs": [],
			"stateMutability": "nonpayable",
			"type": "function"
		},
		{
			"inputs": [],
			"name": "contractCreator",
			"outputs": [
				{
					"internalType": "address",
					"name": "",
					"type": "address"
				}
			],
			"stateMutability": "view",
			"type": "function"
		},
		{
			"inputs": [],
			"name": "contribute",
			"outputs": [],
			"stateMutability": "payable",
			"type": "function"
		},
		{
			"inputs": [
				{
					"internalType": "address",
					"name": "",
					"type": "address"
				}
			],
			"name": "contributions",
			"outputs": [
				{
					"internalType": "uint256",
					"name": "",
					"type": "uint256"
				}
			],
			"stateMutability": "view",
			"type": "function"
		},
		{
			"inputs": [
				{
					"internalType": "uint256",
					"name": "",
					"type": "uint256"
				}
			],
			"name": "contributorsList",
			"outputs": [
				{
					"internalType": "address",
					"name": "",
					"type": "address"
				}
			],
			"stateMutability": "view",
			"type": "function"
		},
		{
			"inputs": [],
			"name": "feePercent",
			"outputs": [
				{
					"internalType": "uint256",
					"name": "",
					"type": "uint256"
				}
			],
			"stateMutability": "view",
			"type": "function"
		},
		{
			"inputs": [],
			"name": "finaliseRaise",
			"outputs": [],
			"stateMutability": "payable",
			"type": "function"
		},
		{
			"inputs": [],
			"name": "getContractBalance",
			"outputs": [
				{
					"internalType": "uint256",
					"name": "",
					"type": "uint256"
				}
			],
			"stateMutability": "view",
			"type": "function"
		},
		{
			"inputs": [
				{
					"internalType": "bytes32",
					"name": "role",
					"type": "bytes32"
				}
			],
			"name": "getRoleAdmin",
			"outputs": [
				{
					"internalType": "bytes32",
					"name": "",
					"type": "bytes32"
				}
			],
			"stateMutability": "view",
			"type": "function"
		},
		{
			"inputs": [
				{
					"internalType": "bytes32",
					"name": "role",
					"type": "bytes32"
				},
				{
					"internalType": "address",
					"name": "account",
					"type": "address"
				}
			],
			"name": "grantRole",
			"outputs": [],
			"stateMutability": "nonpayable",
			"type": "function"
		},
		{
			"inputs": [],
			"name": "hardCap",
			"outputs": [
				{
					"internalType": "uint256",
					"name": "",
					"type": "uint256"
				}
			],
			"stateMutability": "view",
			"type": "function"
		},
		{
			"inputs": [
				{
					"internalType": "bytes32",
					"name": "role",
					"type": "bytes32"
				},
				{
					"internalType": "address",
					"name": "account",
					"type": "address"
				}
			],
			"name": "hasRole",
			"outputs": [
				{
					"internalType": "bool",
					"name": "",
					"type": "bool"
				}
			],
			"stateMutability": "view",
			"type": "function"
		},
		{
			"inputs": [
				{
					"internalType": "uint256",
					"name": "_newHardCap",
					"type": "uint256"
				}
			],
			"name": "increaseHardCap",
			"outputs": [],
			"stateMutability": "nonpayable",
			"type": "function"
		},
		{
			"inputs": [],
			"name": "maxContribution",
			"outputs": [
				{
					"internalType": "uint256",
					"name": "",
					"type": "uint256"
				}
			],
			"stateMutability": "view",
			"type": "function"
		},
		{
			"inputs": [],
			"name": "minContribution",
			"outputs": [
				{
					"internalType": "uint256",
					"name": "",
					"type": "uint256"
				}
			],
			"stateMutability": "view",
			"type": "function"
		},
		{
			"inputs": [],
			"name": "numOfContributors",
			"outputs": [
				{
					"internalType": "uint256",
					"name": "",
					"type": "uint256"
				}
			],
			"stateMutability": "view",
			"type": "function"
		},
		{
			"inputs": [],
			"name": "raiseEnded",
			"outputs": [
				{
					"internalType": "bool",
					"name": "",
					"type": "bool"
				}
			],
			"stateMutability": "view",
			"type": "function"
		},
		{
			"inputs": [],
			"name": "raiseStarted",
			"outputs": [
				{
					"internalType": "bool",
					"name": "",
					"type": "bool"
				}
			],
			"stateMutability": "view",
			"type": "function"
		},
		{
			"inputs": [
				{
					"internalType": "address",
					"name": "_account",
					"type": "address"
				}
			],
			"name": "removeFromWhitelist",
			"outputs": [],
			"stateMutability": "nonpayable",
			"type": "function"
		},
		{
			"inputs": [
				{
					"internalType": "bytes32",
					"name": "role",
					"type": "bytes32"
				},
				{
					"internalType": "address",
					"name": "callerConfirmation",
					"type": "address"
				}
			],
			"name": "renounceRole",
			"outputs": [],
			"stateMutability": "nonpayable",
			"type": "function"
		},
		{
			"inputs": [
				{
					"internalType": "bytes32",
					"name": "role",
					"type": "bytes32"
				},
				{
					"internalType": "address",
					"name": "account",
					"type": "address"
				}
			],
			"name": "revokeRole",
			"outputs": [],
			"stateMutability": "nonpayable",
			"type": "function"
		},
		{
			"inputs": [
				{
					"internalType": "uint256",
					"name": "_feePercent",
					"type": "uint256"
				}
			],
			"name": "setFeePercent",
			"outputs": [],
			"stateMutability": "nonpayable",
			"type": "function"
		},
		{
			"inputs": [
				{
					"internalType": "uint256",
					"name": "_hardCap",
					"type": "uint256"
				}
			],
			"name": "setHardCap",
			"outputs": [],
			"stateMutability": "nonpayable",
			"type": "function"
		},
		{
			"inputs": [
				{
					"internalType": "uint256",
					"name": "_max",
					"type": "uint256"
				}
			],
			"name": "setMaxContribution",
			"outputs": [],
			"stateMutability": "nonpayable",
			"type": "function"
		},
		{
			"inputs": [
				{
					"internalType": "uint256",
					"name": "_min",
					"type": "uint256"
				}
			],
			"name": "setMinContribution",
			"outputs": [],
			"stateMutability": "nonpayable",
			"type": "function"
		},
		{
			"inputs": [],
			"name": "startRaise",
			"outputs": [],
			"stateMutability": "nonpayable",
			"type": "function"
		},
		{
			"inputs": [],
			"name": "superAdmin",
			"outputs": [
				{
					"internalType": "address",
					"name": "",
					"type": "address"
				}
			],
			"stateMutability": "view",
			"type": "function"
		},
		{
			"inputs": [
				{
					"internalType": "bytes4",
					"name": "interfaceId",
					"type": "bytes4"
				}
			],
			"name": "supportsInterface",
			"outputs": [
				{
					"internalType": "bool",
					"name": "",
					"type": "bool"
				}
			],
			"stateMutability": "view",
			"type": "function"
		},
		{
			"inputs": [],
			"name": "totalRaised",
			"outputs": [
				{
					"internalType": "uint256",
					"name": "",
					"type": "uint256"
				}
			],
			"stateMutability": "view",
			"type": "function"
		},
		{
			"inputs": [
				{
					"internalType": "address",
					"name": "",
					"type": "address"
				}
			],
			"name": "whitelist",
			"outputs": [
				{
					"internalType": "bool",
					"name": "",
					"type": "bool"
				}
			],
			"stateMutability": "view",
			"type": "function"
		},
		{
			"stateMutability": "payable",
			"type": "receive"
		}
	]
}