{
	"data": {
		"bytecode": {
			"linkReferences": {},
			"object": "6080604052600a600655348015610014575f80fd5b50604051614dc8380380614dc88339818101604052810190610036919061038b565b600180819055508360035f6101000a81548173ffffffffffffffffffffffffffffffffffffffff021916908373ffffffffffffffffffffffffffffffffffffffff1602179055508460045f6101000a81548173ffffffffffffffffffffffffffffffffffffffff021916908373ffffffffffffffffffffffffffffffffffffffff16021790555080600881905550816009819055508260025f6101000a81548173ffffffffffffffffffffffffffffffffffffffff021916908373ffffffffffffffffffffffffffffffffffffffff16021790555061015c7fa49807205ce4d355092ef5a8a18f56e8913cf4a201fbe287825b095693c2177560045f9054906101000a900473ffffffffffffffffffffffffffffffffffffffff1661019b60201b60201c565b506101905f801b60035f9054906101000a900473ffffffffffffffffffffffffffffffffffffffff1661019b60201b60201c565b505050505050610402565b5f6101ac838361029060201b60201c565b6102865760015f808581526020019081526020015f205f015f8473ffffffffffffffffffffffffffffffffffffffff1673ffffffffffffffffffffffffffffffffffffffff1681526020019081526020015f205f6101000a81548160ff0219169083151502179055506102236102f360201b60201c565b73ffffffffffffffffffffffffffffffffffffffff168273ffffffffffffffffffffffffffffffffffffffff16847f2f8788117e7eff1d82e926ec794901d17c78024a50270940304540a733656f0d60405160405180910390a46001905061028a565b5f90505b92915050565b5f805f8481526020019081526020015f205f015f8373ffffffffffffffffffffffffffffffffffffffff1673ffffffffffffffffffffffffffffffffffffffff1681526020019081526020015f205f9054906101000a900460ff16905092915050565b5f33905090565b5f80fd5b5f73ffffffffffffffffffffffffffffffffffffffff82169050919050565b5f610327826102fe565b9050919050565b6103378161031d565b8114610341575f80fd5b50565b5f815190506103528161032e565b92915050565b5f819050919050565b61036a81610358565b8114610374575f80fd5b50565b5f8151905061038581610361565b92915050565b5f805f805f60a086880312156103a4576103a36102fa565b5b5f6103b188828901610344565b95505060206103c288828901610344565b94505060406103d388828901610344565b93505060606103e488828901610377565b92505060806103f588828901610377565b9150509295509295909350565b6149b98061040f5f395ff3fe60806040526004361061021d575f3560e01c806375b238fc11610122578063a217fddf116100aa578063c5c4744c1161006e578063c5c4744c146107a3578063d547741f146107cd578063dbbddcb8146107f5578063f3e3eaee14610831578063fb86a4041461085b5761025d565b8063a217fddf146106e1578063a98ad46c1461070b578063aaffadf314610735578063b8e0d08d1461075f578063c1cbbca7146107875761025d565b80638ab1d681116100f15780638ab1d6811461060d5780638d070e75146106355780638d3d65761461063f57806391d14854146106695780639b19251a146106a55761025d565b806375b238fc146105695780637ce3489b146105935780637fd6f15c146105bb578063870670fc146105e55761025d565b80632b67b671116101a557806342e94c901161017457806342e94c901461049b578063473b0d46146104d757806351fb012d146104ff5780636d66d2ce14610529578063708dee5e1461053f5761025d565b80632b67b6711461040b5780632f2ff15d1461042157806336568abe146104495780633e0498d2146104715761025d565b80631e206f15116101ec5780631e206f15146103295780631e2f73b114610353578063214405fc1461037d578063248a9ca3146103a557806329575f6a146103e15761025d565b806301ffc9a71461026157806303ed9d211461029d5780630b9f2c4a146102c55780630d77c7df146103015761025d565b3661025d576040517f08c379a000000000000000000000000000000000000000000000000000000000815260040161025490613955565b60405180910390fd5b5f80fd5b34801561026c575f80fd5b50610287600480360381019061028291906139d0565b610885565b6040516102949190613a15565b60405180910390f35b3480156102a8575f80fd5b506102c360048036038101906102be9190613a61565b6108fe565b005b3480156102d0575f80fd5b506102eb60048036038101906102e69190613a61565b610a7b565b6040516102f89190613acb565b60405180910390f35b34801561030c575f80fd5b5061032760048036038101906103229190613a61565b610ab6565b005b348015610334575f80fd5b5061033d610c18565b60405161034a9190613af3565b60405180910390f35b34801561035e575f80fd5b50610367610c1e565b6040516103749190613acb565b60405180910390f35b348015610388575f80fd5b506103a3600480360381019061039e9190613b36565b610c43565b005b3480156103b0575f80fd5b506103cb60048036038101906103c69190613ba7565b610d43565b6040516103d89190613be1565b60405180910390f35b3480156103ec575f80fd5b506103f5610d5f565b6040516104029190613acb565b60405180910390f35b348015610416575f80fd5b5061041f610d84565b005b34801561042c575f80fd5b5061044760048036038101906104429190613bfa565b610f5e565b005b348015610454575f80fd5b5061046f600480360381019061046a9190613bfa565b610f80565b005b34801561047c575f80fd5b50610485610ffb565b6040516104929190613a15565b60405180910390f35b3480156104a6575f80fd5b506104c160048036038101906104bc9190613c38565b61100e565b6040516104ce9190613af3565b60405180910390f35b3480156104e2575f80fd5b506104fd60048036038101906104f89190613a61565b611023565b005b34801561050a575f80fd5b506105136111a0565b6040516105209190613a15565b60405180910390f35b348015610534575f80fd5b5061053d6111b2565b005b34801561054a575f80fd5b50610553611385565b6040516105609190613a15565b60405180910390f35b348015610574575f80fd5b5061057d611397565b60405161058a9190613be1565b60405180910390f35b34801561059e575f80fd5b506105b960048036038101906105b49190613a61565b6113bb565b005b3480156105c6575f80fd5b506105cf611501565b6040516105dc9190613af3565b60405180910390f35b3480156105f0575f80fd5b5061060b60048036038101906106069190613d19565b611507565b005b348015610618575f80fd5b50610633600480360381019061062e9190613c38565b61194f565b005b61063d611b1b565b005b34801561064a575f80fd5b5061065361279c565b6040516106609190613af3565b60405180910390f35b348015610674575f80fd5b5061068f600480360381019061068a9190613bfa565b6127a2565b60405161069c9190613a15565b60405180910390f35b3480156106b0575f80fd5b506106cb60048036038101906106c69190613c38565b612805565b6040516106d89190613a15565b60405180910390f35b3480156106ec575f80fd5b506106f5612822565b6040516107029190613be1565b60405180910390f35b348015610716575f80fd5b5061071f612828565b60405161072c9190613df2565b60405180910390f35b348015610740575f80fd5b5061074961284d565b6040516107569190613af3565b60405180910390f35b34801561076a575f80fd5b5061078560048036038101906107809190613a61565b612853565b005b6107a1600480360381019061079c9190613a61565b6129d0565b005b3480156107ae575f80fd5b506107b7613269565b6040516107c49190613af3565b60405180910390f35b3480156107d8575f80fd5b506107f360048036038101906107ee9190613bfa565b61326f565b005b348015610800575f80fd5b5061081b60048036038101906108169190613c38565b613291565b6040516108289190613af3565b60405180910390f35b34801561083c575f80fd5b506108456132a6565b6040516108529190613a15565b60405180910390f35b348015610866575f80fd5b5061086f6132b1565b60405161087c9190613af3565b60405180910390f35b5f7f7965db0b000000000000000000000000000000000000000000000000000000007bffffffffffffffffffffffffffffffffffffffffffffffffffffffff1916827bffffffffffffffffffffffffffffffffffffffffffffffffffffffff191614806108f757506108f6826132b7565b5b9050919050565b61095e6040518060400160405280601081526020017f436f6e74726163742043726561746f720000000000000000000000000000000081525060045f9054906101000a900473ffffffffffffffffffffffffffffffffffffffff16613320565b6109be6040518060400160405280600a81526020017f537570657241646d696e0000000000000000000000000000000000000000000081525060035f9054906101000a900473ffffffffffffffffffffffffffffffffffffffff16613320565b6109e87fa49807205ce4d355092ef5a8a18f56e8913cf4a201fbe287825b095693c21775336127a2565b806109fb57506109fa5f801b336127a2565b5b610a3a576040517f08c379a0000000000000000000000000000000000000000000000000000000008152600401610a3190613e55565b60405180910390fd5b806009819055507f8645f88287b79f16d91266da1d35b7adc817d75a89a9577504b01fbc37ed5a6f81604051610a709190613af3565b60405180910390a150565b600c8181548110610a8a575f80fd5b905f5260205f20015f915054906101000a900473ffffffffffffffffffffffffffffffffffffffff1681565b610b166040518060400160405280601081526020017f436f6e74726163742043726561746f720000000000000000000000000000000081525060045f9054906101000a900473ffffffffffffffffffffffffffffffffffffffff16613320565b610b766040518060400160405280600a81526020017f537570657241646d696e0000000000000000000000000000000000000000000081525060035f9054906101000a900473ffffffffffffffffffffffffffffffffffffffff16613320565b610ba07fa49807205ce4d355092ef5a8a18f56e8913cf4a201fbe287825b095693c21775336127a2565b80610bb35750610bb25f801b336127a2565b5b610bf2576040517f08c379a0000000000000000000000000000000000000000000000000000000008152600401610be990613e55565b60405180910390fd5b6001600f5f6101000a81548160ff021916908315150217905550610c15816133bc565b50565b600b5481565b60045f9054906101000a900473ffffffffffffffffffffffffffffffffffffffff1681565b7fa49807205ce4d355092ef5a8a18f56e8913cf4a201fbe287825b095693c21775610c6d816133c6565b6001600e5f8573ffffffffffffffffffffffffffffffffffffffff1673ffffffffffffffffffffffffffffffffffffffff1681526020019081526020015f205f6101000a81548160ff0219169083151502179055508160105f8573ffffffffffffffffffffffffffffffffffffffff1673ffffffffffffffffffffffffffffffffffffffff1681526020019081526020015f20819055507ff93f9a76c1bf3444d22400a00cb9fe990e6abe9dbb333fda48859cfee864543d836001604051610d36929190613e73565b60405180910390a1505050565b5f805f8381526020019081526020015f20600101549050919050565b60035f9054906101000a900473ffffffffffffffffffffffffffffffffffffffff1681565b60045f9054906101000a900473ffffffffffffffffffffffffffffffffffffffff1673ffffffffffffffffffffffffffffffffffffffff163373ffffffffffffffffffffffffffffffffffffffff161480610e2b575060035f9054906101000a900473ffffffffffffffffffffffffffffffffffffffff1673ffffffffffffffffffffffffffffffffffffffff163373ffffffffffffffffffffffffffffffffffffffff16145b610e6a576040517f08c379a0000000000000000000000000000000000000000000000000000000008152600401610e6190613ee4565b60405180910390fd5b5f60055414158015610e7e57505f600b5414155b610ebd576040517f08c379a0000000000000000000000000000000000000000000000000000000008152600401610eb490613f72565b60405180910390fd5b600a60019054906101000a900460ff1615610f0d576040517f08c379a0000000000000000000000000000000000000000000000000000000008152600401610f0490613fda565b60405180910390fd5b6001600a60016101000a81548160ff021916908315150217905550610f30611b1b565b7f5b2ae23cd3ac75c4244afecde24848a0616ca7390c4c330a40a86d7e896d946260405160405180910390a1565b610f6782610d43565b610f70816133c6565b610f7a83836133da565b50505050565b610f886134c3565b73ffffffffffffffffffffffffffffffffffffffff168173ffffffffffffffffffffffffffffffffffffffff1614610fec576040517f6697b23200000000000000000000000000000000000000000000000000000000815260040160405180910390fd5b610ff682826134ca565b505050565b600a60019054906101000a900460ff1681565b600d602052805f5260405f205f915090505481565b6110836040518060400160405280601081526020017f436f6e74726163742043726561746f720000000000000000000000000000000081525060045f9054906101000a900473ffffffffffffffffffffffffffffffffffffffff16613320565b6110e36040518060400160405280600a81526020017f537570657241646d696e0000000000000000000000000000000000000000000081525060035f9054906101000a900473ffffffffffffffffffffffffffffffffffffffff16613320565b61110d7fa49807205ce4d355092ef5a8a18f56e8913cf4a201fbe287825b095693c21775336127a2565b80611120575061111f5f801b336127a2565b5b61115f576040517f08c379a000000000000000000000000000000000000000000000000000000000815260040161115690613e55565b60405180910390fd5b806008819055507f9e87cf72973cdb82f6a3c58fa8ef538fd3088801e3f3033afd06fa390ca4876c816040516111959190613af3565b60405180910390a150565b600f5f9054906101000a900460ff1681565b6112126040518060400160405280601081526020017f436f6e74726163742043726561746f720000000000000000000000000000000081525060045f9054906101000a900473ffffffffffffffffffffffffffffffffffffffff16613320565b6112726040518060400160405280600a81526020017f537570657241646d696e0000000000000000000000000000000000000000000081525060035f9054906101000a900473ffffffffffffffffffffffffffffffffffffffff16613320565b61129c7fa49807205ce4d355092ef5a8a18f56e8913cf4a201fbe287825b095693c21775336127a2565b806112af57506112ae5f801b336127a2565b5b6112ee576040517f08c379a00000000000000000000000000000000000000000000000000000000081526004016112e590613e55565b60405180910390fd5b600a5f9054906101000a900460ff161561133d576040517f08c379a000000000000000000000000000000000000000000000000000000000815260040161133490614042565b60405180910390fd5b6001600a5f6101000a81548160ff0219169083151502179055507f8cf55e5373cd35327ecd6e48f19a6101684947fd385c07fb95117b3695ec2e9b60405160405180910390a1565b600a5f9054906101000a900460ff1681565b7fa49807205ce4d355092ef5a8a18f56e8913cf4a201fbe287825b095693c2177581565b61141b6040518060400160405280601081526020017f436f6e74726163742043726561746f720000000000000000000000000000000081525060045f9054906101000a900473ffffffffffffffffffffffffffffffffffffffff16613320565b61147b6040518060400160405280600a81526020017f537570657241646d696e0000000000000000000000000000000000000000000081525060035f9054906101000a900473ffffffffffffffffffffffffffffffffffffffff16613320565b6114a57fa49807205ce4d355092ef5a8a18f56e8913cf4a201fbe287825b095693c21775336127a2565b806114b857506114b75f801b336127a2565b5b6114f7576040517f08c379a00000000000000000000000000000000000000000000000000000000081526004016114ee90613e55565b60405180910390fd5b8060068190555050565b60065481565b6115676040518060400160405280601081526020017f436f6e74726163742043726561746f720000000000000000000000000000000081525060045f9054906101000a900473ffffffffffffffffffffffffffffffffffffffff16613320565b6115c76040518060400160405280600a81526020017f537570657241646d696e0000000000000000000000000000000000000000000081525060035f9054906101000a900473ffffffffffffffffffffffffffffffffffffffff16613320565b6115f17fa49807205ce4d355092ef5a8a18f56e8913cf4a201fbe287825b095693c21775336127a2565b8061160457506116035f801b336127a2565b5b611643576040517f08c379a000000000000000000000000000000000000000000000000000000000815260040161163a90613e55565b60405180910390fd5b81819050848490501461168b576040517f08c379a0000000000000000000000000000000000000000000000000000000008152600401611682906140aa565b60405180910390fd5b5f5b84849050811015611948575f8585838181106116ac576116ab6140c8565b5b90506020020160208101906116c19190613c38565b90505f8484848181106116d7576116d66140c8565b5b9050602002013590506001600e5f8473ffffffffffffffffffffffffffffffffffffffff1673ffffffffffffffffffffffffffffffffffffffff1681526020019081526020015f205f6101000a81548160ff0219169083151502179055507ff93f9a76c1bf3444d22400a00cb9fe990e6abe9dbb333fda48859cfee864543d826001604051611767929190613e73565b60405180910390a15f811115611939576117c781600d5f8573ffffffffffffffffffffffffffffffffffffffff1673ffffffffffffffffffffffffffffffffffffffff1681526020019081526020015f20546135b390919063ffffffff16565b600d5f8473ffffffffffffffffffffffffffffffffffffffff1673ffffffffffffffffffffffffffffffffffffffff1681526020019081526020015f208190555061181d816005546135b390919063ffffffff16565b600581905550600b5f81548092919061183590614122565b9190505550611843826135c8565b6118a857600c82908060018154018082558091505060019003905f5260205f20015f9091909190916101000a81548173ffffffffffffffffffffffffffffffffffffffff021916908373ffffffffffffffffffffffffffffffffffffffff1602179055505b8686848181106118bb576118ba6140c8565b5b90506020020160208101906118d09190613c38565b73ffffffffffffffffffffffffffffffffffffffff167f1d5d67670fd52e22078bbab523a5ead8206c7991225dd63095e3d3d6b5be3baf86868681811061191a576119196140c8565b5b9050602002013542604051611930929190614169565b60405180910390a25b5050808060010191505061168d565b5050505050565b6119af6040518060400160405280601081526020017f436f6e74726163742043726561746f720000000000000000000000000000000081525060045f9054906101000a900473ffffffffffffffffffffffffffffffffffffffff16613320565b611a0f6040518060400160405280600a81526020017f537570657241646d696e0000000000000000000000000000000000000000000081525060035f9054906101000a900473ffffffffffffffffffffffffffffffffffffffff16613320565b611a397fa49807205ce4d355092ef5a8a18f56e8913cf4a201fbe287825b095693c21775336127a2565b80611a4c5750611a4b5f801b336127a2565b5b611a8b576040517f08c379a0000000000000000000000000000000000000000000000000000000008152600401611a8290613e55565b60405180910390fd5b5f600e5f8373ffffffffffffffffffffffffffffffffffffffff1673ffffffffffffffffffffffffffffffffffffffff1681526020019081526020015f205f6101000a81548160ff0219169083151502179055507ff93f9a76c1bf3444d22400a00cb9fe990e6abe9dbb333fda48859cfee864543d815f604051611b10929190613e73565b60405180910390a150565b611b2361366a565b6001600a60016101000a81548160ff02191690831515021790555060045f9054906101000a900473ffffffffffffffffffffffffffffffffffffffff1673ffffffffffffffffffffffffffffffffffffffff163373ffffffffffffffffffffffffffffffffffffffff161480611be5575060035f9054906101000a900473ffffffffffffffffffffffffffffffffffffffff1673ffffffffffffffffffffffffffffffffffffffff163373ffffffffffffffffffffffffffffffffffffffff16145b611c24576040517f08c379a0000000000000000000000000000000000000000000000000000000008152600401611c1b90613ee4565b60405180910390fd5b600a60019054906101000a900460ff16611c73576040517f08c379a0000000000000000000000000000000000000000000000000000000008152600401611c6a906141da565b60405180910390fd5b5f600554118015611c8557505f600b54115b611cc4576040517f08c379a0000000000000000000000000000000000000000000000000000000008152600401611cbb90613f72565b60405180910390fd5b5f80600f5f9054906101000a900460ff168015611ce357505f60075414155b1561256b576007546005541015611eb857611d1e6064611d106006546005546136b990919063ffffffff16565b6136ce90919063ffffffff16565b9150611d35826005546136e390919063ffffffff16565b905060025f9054906101000a900473ffffffffffffffffffffffffffffffffffffffff1673ffffffffffffffffffffffffffffffffffffffff1663a9059cbb60045f9054906101000a900473ffffffffffffffffffffffffffffffffffffffff16836040518363ffffffff1660e01b8152600401611db49291906141f8565b6020604051808303815f875af1158015611dd0573d5f803e3d5ffd5b505050506040513d601f19601f82011682018060405250810190611df49190614249565b5060025f9054906101000a900473ffffffffffffffffffffffffffffffffffffffff1673ffffffffffffffffffffffffffffffffffffffff1663a9059cbb60035f9054906101000a900473ffffffffffffffffffffffffffffffffffffffff16846040518363ffffffff1660e01b8152600401611e729291906141f8565b6020604051808303815f875af1158015611e8e573d5f803e3d5ffd5b505050506040513d601f19601f82011682018060405250810190611eb29190614249565b50612566565b600754600554111561239957611f026040518060400160405280601a81526020017f5768656e20746f74616c526173696564203e20686172644361700000000000008152506136f8565b611f2c6064611f1e6006546007546136b990919063ffffffff16565b6136ce90919063ffffffff16565b9150611f43826007546136e390919063ffffffff16565b905060025f9054906101000a900473ffffffffffffffffffffffffffffffffffffffff1673ffffffffffffffffffffffffffffffffffffffff1663a9059cbb60045f9054906101000a900473ffffffffffffffffffffffffffffffffffffffff16836040518363ffffffff1660e01b8152600401611fc29291906141f8565b6020604051808303815f875af1158015611fde573d5f803e3d5ffd5b505050506040513d601f19601f820116820180604052508101906120029190614249565b5060025f9054906101000a900473ffffffffffffffffffffffffffffffffffffffff1673ffffffffffffffffffffffffffffffffffffffff1663a9059cbb60035f9054906101000a900473ffffffffffffffffffffffffffffffffffffffff16846040518363ffffffff1660e01b81526004016120809291906141f8565b6020604051808303815f875af115801561209c573d5f803e3d5ffd5b505050506040513d601f19601f820116820180604052508101906120c09190614249565b505f6120ed600b546120df6007546005546136e390919063ffffffff16565b6136ce90919063ffffffff16565b905061212d6040518060400160405280601a81526020017f436865636b696e6720657665727920636f6e7472696275746f720000000000008152506136f8565b5f5b600b54811015612392575f600c828154811061214e5761214d6140c8565b5b905f5260205f20015f9054906101000a900473ffffffffffffffffffffffffffffffffffffffff1690506121b76040518060400160405280601081526020017f636f6e7472696275746f72206c6973740000000000000000000000000000000081525082613320565b5f600d5f8373ffffffffffffffffffffffffffffffffffffffff1673ffffffffffffffffffffffffffffffffffffffff1681526020019081526020015f2054905083811115612344575f73ffffffffffffffffffffffffffffffffffffffff168273ffffffffffffffffffffffffffffffffffffffff1614158061226757505f73ffffffffffffffffffffffffffffffffffffffff168273ffffffffffffffffffffffffffffffffffffffff1614155b6122a6576040517f08c379a000000000000000000000000000000000000000000000000000000000815260040161229d906142be565b60405180910390fd5b60025f9054906101000a900473ffffffffffffffffffffffffffffffffffffffff1673ffffffffffffffffffffffffffffffffffffffff1663a9059cbb83866040518363ffffffff1660e01b81526004016123029291906141f8565b6020604051808303815f875af115801561231e573d5f803e3d5ffd5b505050506040513d601f19601f820116820180604052508101906123429190614249565b505b6123836040518060400160405280600d81526020017f72657475726e20416d6f756e740000000000000000000000000000000000000081525085613791565b5050808060010191505061212f565b5050612565565b60075460055403612564576123ce60646123c06006546007546136b990919063ffffffff16565b6136ce90919063ffffffff16565b91506123e5826007546136e390919063ffffffff16565b905060025f9054906101000a900473ffffffffffffffffffffffffffffffffffffffff1673ffffffffffffffffffffffffffffffffffffffff1663a9059cbb60045f9054906101000a900473ffffffffffffffffffffffffffffffffffffffff16836040518363ffffffff1660e01b81526004016124649291906141f8565b6020604051808303815f875af1158015612480573d5f803e3d5ffd5b505050506040513d601f19601f820116820180604052508101906124a49190614249565b5060025f9054906101000a900473ffffffffffffffffffffffffffffffffffffffff1673ffffffffffffffffffffffffffffffffffffffff1663a9059cbb60035f9054906101000a900473ffffffffffffffffffffffffffffffffffffffff16846040518363ffffffff1660e01b81526004016125229291906141f8565b6020604051808303815f875af115801561253e573d5f803e3d5ffd5b505050506040513d601f19601f820116820180604052508101906125629190614249565b505b5b5b61274e565b600f5f9054906101000a900460ff1615801561258857505f600754145b1561274d576125b760646125a96006546005546136b990919063ffffffff16565b6136ce90919063ffffffff16565b91506125ce826005546136e390919063ffffffff16565b905060025f9054906101000a900473ffffffffffffffffffffffffffffffffffffffff1673ffffffffffffffffffffffffffffffffffffffff1663a9059cbb60045f9054906101000a900473ffffffffffffffffffffffffffffffffffffffff16836040518363ffffffff1660e01b815260040161264d9291906141f8565b6020604051808303815f875af1158015612669573d5f803e3d5ffd5b505050506040513d601f19601f8201168201806040525081019061268d9190614249565b5060025f9054906101000a900473ffffffffffffffffffffffffffffffffffffffff1673ffffffffffffffffffffffffffffffffffffffff1663a9059cbb60035f9054906101000a900473ffffffffffffffffffffffffffffffffffffffff16846040518363ffffffff1660e01b815260040161270b9291906141f8565b6020604051808303815f875af1158015612727573d5f803e3d5ffd5b505050506040513d601f19601f8201168201806040525081019061274b9190614249565b505b5b5f6005819055505f600b819055505f600a5f6101000a81548160ff0219169083151502179055506001600a60016101000a81548160ff021916908315150217905550505061279a61382d565b565b60095481565b5f805f8481526020019081526020015f205f015f8373ffffffffffffffffffffffffffffffffffffffff1673ffffffffffffffffffffffffffffffffffffffff1681526020019081526020015f205f9054906101000a900460ff16905092915050565b600e602052805f5260405f205f915054906101000a900460ff1681565b5f801b81565b60025f9054906101000a900473ffffffffffffffffffffffffffffffffffffffff1681565b60085481565b6128b36040518060400160405280601081526020017f436f6e74726163742043726561746f720000000000000000000000000000000081525060045f9054906101000a900473ffffffffffffffffffffffffffffffffffffffff16613320565b6129136040518060400160405280600a81526020017f537570657241646d696e0000000000000000000000000000000000000000000081525060035f9054906101000a900473ffffffffffffffffffffffffffffffffffffffff16613320565b61293d7fa49807205ce4d355092ef5a8a18f56e8913cf4a201fbe287825b095693c21775336127a2565b80612950575061294f5f801b336127a2565b5b61298f576040517f08c379a000000000000000000000000000000000000000000000000000000000815260040161298690613e55565b60405180910390fd5b806007819055507fe65e8475ae8eba2b732012a0734794875a0fdbdccfed8398fff4da0c8e0fa00e816040516129c59190613af3565b60405180910390a150565b6129d861366a565b600a5f9054906101000a900460ff168015612a005750600a60019054906101000a900460ff16155b612a3f576040517f08c379a0000000000000000000000000000000000000000000000000000000008152600401612a3690614326565b60405180910390fd5b6008548110158015612a5157505f8114155b8015612a5f57506009548111155b612a9e576040517f08c379a0000000000000000000000000000000000000000000000000000000008152600401612a95906143b4565b60405180910390fd5b5f60025f9054906101000a900473ffffffffffffffffffffffffffffffffffffffff1673ffffffffffffffffffffffffffffffffffffffff166370a08231336040518263ffffffff1660e01b8152600401612af99190613acb565b602060405180830381865afa158015612b14573d5f803e3d5ffd5b505050506040513d601f19601f82011682018060405250810190612b3891906143e6565b905081811015612b7d576040517f08c379a0000000000000000000000000000000000000000000000000000000008152600401612b7490614481565b60405180910390fd5b5f60025f9054906101000a900473ffffffffffffffffffffffffffffffffffffffff1673ffffffffffffffffffffffffffffffffffffffff1663dd62ed3e33306040518363ffffffff1660e01b8152600401612bda92919061449f565b602060405180830381865afa158015612bf5573d5f803e3d5ffd5b505050506040513d601f19601f82011682018060405250810190612c1991906143e6565b905082811015612c5e576040517f08c379a0000000000000000000000000000000000000000000000000000000008152600401612c5590614536565b60405180910390fd5b600f5f9054906101000a900460ff1615612fe95760011515600e5f3373ffffffffffffffffffffffffffffffffffffffff1673ffffffffffffffffffffffffffffffffffffffff1681526020019081526020015f205f9054906101000a900460ff16151514612d02576040517f08c379a0000000000000000000000000000000000000000000000000000000008152600401612cf99061459e565b60405180910390fd5b5f612d5384600d5f3373ffffffffffffffffffffffffffffffffffffffff1673ffffffffffffffffffffffffffffffffffffffff1681526020019081526020015f20546135b390919063ffffffff16565b905060105f3373ffffffffffffffffffffffffffffffffffffffff1673ffffffffffffffffffffffffffffffffffffffff1681526020019081526020015f2054811115612dd5576040517f08c379a0000000000000000000000000000000000000000000000000000000008152600401612dcc9061462c565b60405180910390fd5b612e2584600d5f3373ffffffffffffffffffffffffffffffffffffffff1673ffffffffffffffffffffffffffffffffffffffff1681526020019081526020015f20546135b390919063ffffffff16565b600d5f3373ffffffffffffffffffffffffffffffffffffffff1673ffffffffffffffffffffffffffffffffffffffff1681526020019081526020015f2081905550612e7b846005546135b390919063ffffffff16565b600581905550600b5f815480929190612e9390614122565b919050555060025f9054906101000a900473ffffffffffffffffffffffffffffffffffffffff1673ffffffffffffffffffffffffffffffffffffffff166323b872dd3330876040518463ffffffff1660e01b8152600401612ef69392919061464a565b6020604051808303815f875af1158015612f12573d5f803e3d5ffd5b505050506040513d601f19601f82011682018060405250810190612f369190614249565b612f75576040517f08c379a0000000000000000000000000000000000000000000000000000000008152600401612f6c906146c9565b60405180910390fd5b612f7e336135c8565b612fe357600c33908060018154018082558091505060019003905f5260205f20015f9091909190916101000a81548173ffffffffffffffffffffffffffffffffffffffff021916908373ffffffffffffffffffffffffffffffffffffffff1602179055505b5061320c565b600f5f9054906101000a900460ff1661320b5761304c83600d5f3373ffffffffffffffffffffffffffffffffffffffff1673ffffffffffffffffffffffffffffffffffffffff1681526020019081526020015f20546135b390919063ffffffff16565b600d5f3373ffffffffffffffffffffffffffffffffffffffff1673ffffffffffffffffffffffffffffffffffffffff1681526020019081526020015f20819055506130a2836005546135b390919063ffffffff16565b600581905550600b5f8154809291906130ba90614122565b919050555060025f9054906101000a900473ffffffffffffffffffffffffffffffffffffffff1673ffffffffffffffffffffffffffffffffffffffff166323b872dd3330866040518463ffffffff1660e01b815260040161311d9392919061464a565b6020604051808303815f875af1158015613139573d5f803e3d5ffd5b505050506040513d601f19601f8201168201806040525081019061315d9190614249565b61319c576040517f08c379a0000000000000000000000000000000000000000000000000000000008152600401613193906146c9565b60405180910390fd5b6131a5336135c8565b61320a57600c33908060018154018082558091505060019003905f5260205f20015f9091909190916101000a81548173ffffffffffffffffffffffffffffffffffffffff021916908373ffffffffffffffffffffffffffffffffffffffff1602179055505b5b5b3373ffffffffffffffffffffffffffffffffffffffff167f1d5d67670fd52e22078bbab523a5ead8206c7991225dd63095e3d3d6b5be3baf8442604051613254929190614169565b60405180910390a2505061326661382d565b50565b60055481565b61327882610d43565b613281816133c6565b61328b83836134ca565b50505050565b6010602052805f5260405f205f915090505481565b5f8060075411905090565b60075481565b5f7f01ffc9a7000000000000000000000000000000000000000000000000000000007bffffffffffffffffffffffffffffffffffffffffffffffffffffffff1916827bffffffffffffffffffffffffffffffffffffffffffffffffffffffff1916149050919050565b6133b88282604051602401613336929190614747565b6040516020818303038152906040527f319af333000000000000000000000000000000000000000000000000000000007bffffffffffffffffffffffffffffffffffffffffffffffffffffffff19166020820180517bffffffffffffffffffffffffffffffffffffffffffffffffffffffff8381831617835250505050613836565b5050565b8060078190555050565b6133d7816133d26134c3565b613850565b50565b5f6133e583836127a2565b6134b95760015f808581526020019081526020015f205f015f8473ffffffffffffffffffffffffffffffffffffffff1673ffffffffffffffffffffffffffffffffffffffff1681526020019081526020015f205f6101000a81548160ff0219169083151502179055506134566134c3565b73ffffffffffffffffffffffffffffffffffffffff168273ffffffffffffffffffffffffffffffffffffffff16847f2f8788117e7eff1d82e926ec794901d17c78024a50270940304540a733656f0d60405160405180910390a4600190506134bd565b5f90505b92915050565b5f33905090565b5f6134d583836127a2565b156135a9575f805f8581526020019081526020015f205f015f8473ffffffffffffffffffffffffffffffffffffffff1673ffffffffffffffffffffffffffffffffffffffff1681526020019081526020015f205f6101000a81548160ff0219169083151502179055506135466134c3565b73ffffffffffffffffffffffffffffffffffffffff168273ffffffffffffffffffffffffffffffffffffffff16847ff6391f5c32d9c69d2a47ea670b442974b53935d1edc7fd64eb21e047a839171b60405160405180910390a4600190506135ad565b5f90505b92915050565b5f81836135c09190614775565b905092915050565b5f805f90505b600c80549050811015613660578273ffffffffffffffffffffffffffffffffffffffff16600c8281548110613606576136056140c8565b5b905f5260205f20015f9054906101000a900473ffffffffffffffffffffffffffffffffffffffff1673ffffffffffffffffffffffffffffffffffffffff1603613653576001915050613665565b80806001019150506135ce565b505f90505b919050565b6002600154036136af576040517f08c379a00000000000000000000000000000000000000000000000000000000081526004016136a6906147f2565b60405180910390fd5b6002600181905550565b5f81836136c69190614810565b905092915050565b5f81836136db919061487e565b905092915050565b5f81836136f091906148ae565b905092915050565b61378e8160405160240161370c91906148e1565b6040516020818303038152906040527f41304fac000000000000000000000000000000000000000000000000000000007bffffffffffffffffffffffffffffffffffffffffffffffffffffffff19166020820180517bffffffffffffffffffffffffffffffffffffffffffffffffffffffff8381831617835250505050613836565b50565b61382982826040516024016137a7929190614901565b6040516020818303038152906040527fb60e72cc000000000000000000000000000000000000000000000000000000007bffffffffffffffffffffffffffffffffffffffffffffffffffffffff19166020820180517bffffffffffffffffffffffffffffffffffffffffffffffffffffffff8381831617835250505050613836565b5050565b60018081905550565b61384d816138456138a16138c0565b63ffffffff16565b50565b61385a82826127a2565b61389d5780826040517fe2517d3f00000000000000000000000000000000000000000000000000000000815260040161389492919061492f565b60405180910390fd5b5050565b5f6a636f6e736f6c652e6c6f6790505f80835160208501845afa505050565b6138cb819050919050565b6138d3614956565b565b5f82825260208201905092915050565b7f436f6e747261637420646f6573206e6f742061636365707420646972656374205f8201527f7061796d656e7473000000000000000000000000000000000000000000000000602082015250565b5f61393f6028836138d5565b915061394a826138e5565b604082019050919050565b5f6020820190508181035f83015261396c81613933565b9050919050565b5f80fd5b5f80fd5b5f7fffffffff0000000000000000000000000000000000000000000000000000000082169050919050565b6139af8161397b565b81146139b9575f80fd5b50565b5f813590506139ca816139a6565b92915050565b5f602082840312156139e5576139e4613973565b5b5f6139f2848285016139bc565b91505092915050565b5f8115159050919050565b613a0f816139fb565b82525050565b5f602082019050613a285f830184613a06565b92915050565b5f819050919050565b613a4081613a2e565b8114613a4a575f80fd5b50565b5f81359050613a5b81613a37565b92915050565b5f60208284031215613a7657613a75613973565b5b5f613a8384828501613a4d565b91505092915050565b5f73ffffffffffffffffffffffffffffffffffffffff82169050919050565b5f613ab582613a8c565b9050919050565b613ac581613aab565b82525050565b5f602082019050613ade5f830184613abc565b92915050565b613aed81613a2e565b82525050565b5f602082019050613b065f830184613ae4565b92915050565b613b1581613aab565b8114613b1f575f80fd5b50565b5f81359050613b3081613b0c565b92915050565b5f8060408385031215613b4c57613b4b613973565b5b5f613b5985828601613b22565b9250506020613b6a85828601613a4d565b9150509250929050565b5f819050919050565b613b8681613b74565b8114613b90575f80fd5b50565b5f81359050613ba181613b7d565b92915050565b5f60208284031215613bbc57613bbb613973565b5b5f613bc984828501613b93565b91505092915050565b613bdb81613b74565b82525050565b5f602082019050613bf45f830184613bd2565b92915050565b5f8060408385031215613c1057613c0f613973565b5b5f613c1d85828601613b93565b9250506020613c2e85828601613b22565b9150509250929050565b5f60208284031215613c4d57613c4c613973565b5b5f613c5a84828501613b22565b91505092915050565b5f80fd5b5f80fd5b5f80fd5b5f8083601f840112613c8457613c83613c63565b5b8235905067ffffffffffffffff811115613ca157613ca0613c67565b5b602083019150836020820283011115613cbd57613cbc613c6b565b5b9250929050565b5f8083601f840112613cd957613cd8613c63565b5b8235905067ffffffffffffffff811115613cf657613cf5613c67565b5b602083019150836020820283011115613d1257613d11613c6b565b5b9250929050565b5f805f8060408587031215613d3157613d30613973565b5b5f85013567ffffffffffffffff811115613d4e57613d4d613977565b5b613d5a87828801613c6f565b9450945050602085013567ffffffffffffffff811115613d7d57613d7c613977565b5b613d8987828801613cc4565b925092505092959194509250565b5f819050919050565b5f613dba613db5613db084613a8c565b613d97565b613a8c565b9050919050565b5f613dcb82613da0565b9050919050565b5f613ddc82613dc1565b9050919050565b613dec81613dd2565b82525050565b5f602082019050613e055f830184613de3565b92915050565b7f4d757374206861766520646566696e656420526f6c65730000000000000000005f82015250565b5f613e3f6017836138d5565b9150613e4a82613e0b565b602082019050919050565b5f6020820190508181035f830152613e6c81613e33565b9050919050565b5f604082019050613e865f830185613abc565b613e936020830184613a06565b9392505050565b7f4e6f2064656665696e656420726f6c65732073657400000000000000000000005f82015250565b5f613ece6015836138d5565b9150613ed982613e9a565b602082019050919050565b5f6020820190508181035f830152613efb81613ec2565b9050919050565b7f526173696564416d6f757420616e64204e6f206f6620436f6e7472696275746f5f8201527f72732073686f756c64206265203e203000000000000000000000000000000000602082015250565b5f613f5c6030836138d5565b9150613f6782613f02565b604082019050919050565b5f6020820190508181035f830152613f8981613f50565b9050919050565b7f526169736520616c726561647920656e646564000000000000000000000000005f82015250565b5f613fc46013836138d5565b9150613fcf82613f90565b602082019050919050565b5f6020820190508181035f830152613ff181613fb8565b9050919050565b7f526169736520616c7265616479207374617274656400000000000000000000005f82015250565b5f61402c6015836138d5565b915061403782613ff8565b602082019050919050565b5f6020820190508181035f83015261405981614020565b9050919050565b7f417272617973206c656e677468206d69736d61746368000000000000000000005f82015250565b5f6140946016836138d5565b915061409f82614060565b602082019050919050565b5f6020820190508181035f8301526140c181614088565b9050919050565b7f4e487b71000000000000000000000000000000000000000000000000000000005f52603260045260245ffd5b7f4e487b71000000000000000000000000000000000000000000000000000000005f52601160045260245ffd5b5f61412c82613a2e565b91507fffffffffffffffffffffffffffffffffffffffffffffffffffffffffffffffff820361415e5761415d6140f5565b5b600182019050919050565b5f60408201905061417c5f830185613ae4565b6141896020830184613ae4565b9392505050565b7f5261697365206e6f7420656e64656400000000000000000000000000000000005f82015250565b5f6141c4600f836138d5565b91506141cf82614190565b602082019050919050565b5f6020820190508181035f8301526141f1816141b8565b9050919050565b5f60408201905061420b5f830185613abc565b6142186020830184613ae4565b9392505050565b614228816139fb565b8114614232575f80fd5b50565b5f815190506142438161421f565b92915050565b5f6020828403121561425e5761425d613973565b5b5f61426b84828501614235565b91505092915050565b7f4e6f7420612076616c69642061646472657373000000000000000000000000005f82015250565b5f6142a86013836138d5565b91506142b382614274565b602082019050919050565b5f6020820190508181035f8301526142d58161429c565b9050919050565b7f5261697365206d757374206265206f6e676f696e6700000000000000000000005f82015250565b5f6143106015836138d5565b915061431b826142dc565b602082019050919050565b5f6020820190508181035f83015261433d81614304565b9050919050565b7f436f6e747269627574696f6e2073686f756c6420626520696e206265747765655f8201527f6e206d696e20616e64206d617800000000000000000000000000000000000000602082015250565b5f61439e602d836138d5565b91506143a982614344565b604082019050919050565b5f6020820190508181035f8301526143cb81614392565b9050919050565b5f815190506143e081613a37565b92915050565b5f602082840312156143fb576143fa613973565b5b5f614408848285016143d2565b91505092915050565b7f436f6e7472627574696e67203a20496e73756666696369656e742075736572205f8201527f62616c616e636500000000000000000000000000000000000000000000000000602082015250565b5f61446b6027836138d5565b915061447682614411565b604082019050919050565b5f6020820190508181035f8301526144988161445f565b9050919050565b5f6040820190506144b25f830185613abc565b6144bf6020830184613abc565b9392505050565b7f436f6e7472627574696e67203a20417070726f76616c206e6f742070726f76695f8201527f6465642062792074686520757365720000000000000000000000000000000000602082015250565b5f614520602f836138d5565b915061452b826144c6565b604082019050919050565b5f6020820190508181035f83015261454d81614514565b9050919050565b7f4e6f7420612077686974654c69737420557365720000000000000000000000005f82015250565b5f6145886014836138d5565b915061459382614554565b602082019050919050565b5f6020820190508181035f8301526145b58161457c565b9050919050565b7f436f6e747269627574696f6e206578636565647320616c6c6f776564206d61785f8201527f696d756d20666f722077686974656c6973742075736572000000000000000000602082015250565b5f6146166037836138d5565b9150614621826145bc565b604082019050919050565b5f6020820190508181035f8301526146438161460a565b9050919050565b5f60608201905061465d5f830186613abc565b61466a6020830185613abc565b6146776040830184613ae4565b949350505050565b7f546f6b656e207472616e73666572206661696c656400000000000000000000005f82015250565b5f6146b36015836138d5565b91506146be8261467f565b602082019050919050565b5f6020820190508181035f8301526146e0816146a7565b9050919050565b5f81519050919050565b8281835e5f83830152505050565b5f601f19601f8301169050919050565b5f614719826146e7565b61472381856138d5565b93506147338185602086016146f1565b61473c816146ff565b840191505092915050565b5f6040820190508181035f83015261475f818561470f565b905061476e6020830184613abc565b9392505050565b5f61477f82613a2e565b915061478a83613a2e565b92508282019050808211156147a2576147a16140f5565b5b92915050565b7f5265656e7472616e637947756172643a207265656e7472616e742063616c6c005f82015250565b5f6147dc601f836138d5565b91506147e7826147a8565b602082019050919050565b5f6020820190508181035f830152614809816147d0565b9050919050565b5f61481a82613a2e565b915061482583613a2e565b925082820261483381613a2e565b9150828204841483151761484a576148496140f5565b5b5092915050565b7f4e487b71000000000000000000000000000000000000000000000000000000005f52601260045260245ffd5b5f61488882613a2e565b915061489383613a2e565b9250826148a3576148a2614851565b5b828204905092915050565b5f6148b882613a2e565b91506148c383613a2e565b92508282039050818111156148db576148da6140f5565b5b92915050565b5f6020820190508181035f8301526148f9818461470f565b905092915050565b5f6040820190508181035f830152614919818561470f565b90506149286020830184613ae4565b9392505050565b5f6040820190506149425f830185613abc565b61494f6020830184613bd2565b9392505050565b7f4e487b71000000000000000000000000000000000000000000000000000000005f52605160045260245ffdfea2646970667358221220062096378f47b0edf7e5d512eca7296c5c93b275c6bcc244c28f87073681fe5864736f6c63430008190033",
			"opcodes": "PUSH1 0x80 PUSH1 0x40 MSTORE PUSH1 0xA PUSH1 0x6 SSTORE CALLVALUE DUP1 ISZERO PUSH2 0x14 JUMPI PUSH0 DUP1 REVERT JUMPDEST POP PUSH1 0x40 MLOAD PUSH2 0x4DC8 CODESIZE SUB DUP1 PUSH2 0x4DC8 DUP4 CODECOPY DUP2 DUP2 ADD PUSH1 0x40 MSTORE DUP2 ADD SWAP1 PUSH2 0x36 SWAP2 SWAP1 PUSH2 0x38B JUMP JUMPDEST PUSH1 0x1 DUP1 DUP2 SWAP1 SSTORE POP DUP4 PUSH1 0x3 PUSH0 PUSH2 0x100 EXP DUP2 SLOAD DUP2 PUSH20 0xFFFFFFFFFFFFFFFFFFFFFFFFFFFFFFFFFFFFFFFF MUL NOT AND SWAP1 DUP4 PUSH20 0xFFFFFFFFFFFFFFFFFFFFFFFFFFFFFFFFFFFFFFFF AND MUL OR SWAP1 SSTORE POP DUP5 PUSH1 0x4 PUSH0 PUSH2 0x100 EXP DUP2 SLOAD DUP2 PUSH20 0xFFFFFFFFFFFFFFFFFFFFFFFFFFFFFFFFFFFFFFFF MUL NOT AND SWAP1 DUP4 PUSH20 0xFFFFFFFFFFFFFFFFFFFFFFFFFFFFFFFFFFFFFFFF AND MUL OR SWAP1 SSTORE POP DUP1 PUSH1 0x8 DUP2 SWAP1 SSTORE POP DUP2 PUSH1 0x9 DUP2 SWAP1 SSTORE POP DUP3 PUSH1 0x2 PUSH0 PUSH2 0x100 EXP DUP2 SLOAD DUP2 PUSH20 0xFFFFFFFFFFFFFFFFFFFFFFFFFFFFFFFFFFFFFFFF MUL NOT AND SWAP1 DUP4 PUSH20 0xFFFFFFFFFFFFFFFFFFFFFFFFFFFFFFFFFFFFFFFF AND MUL OR SWAP1 SSTORE POP PUSH2 0x15C PUSH32 0xA49807205CE4D355092EF5A8A18F56E8913CF4A201FBE287825B095693C21775 PUSH1 0x4 PUSH0 SWAP1 SLOAD SWAP1 PUSH2 0x100 EXP SWAP1 DIV PUSH20 0xFFFFFFFFFFFFFFFFFFFFFFFFFFFFFFFFFFFFFFFF AND PUSH2 0x19B PUSH1 0x20 SHL PUSH1 0x20 SHR JUMP JUMPDEST POP PUSH2 0x190 PUSH0 DUP1 SHL PUSH1 0x3 PUSH0 SWAP1 SLOAD SWAP1 PUSH2 0x100 EXP SWAP1 DIV PUSH20 0xFFFFFFFFFFFFFFFFFFFFFFFFFFFFFFFFFFFFFFFF AND PUSH2 0x19B PUSH1 0x20 SHL PUSH1 0x20 SHR JUMP JUMPDEST POP POP POP POP POP POP PUSH2 0x402 JUMP JUMPDEST PUSH0 PUSH2 0x1AC DUP4 DUP4 PUSH2 0x290 PUSH1 0x20 SHL PUSH1 0x20 SHR JUMP JUMPDEST PUSH2 0x286 JUMPI PUSH1 0x1 PUSH0 DUP1 DUP6 DUP2 MSTORE PUSH1 0x20 ADD SWAP1 DUP2 MSTORE PUSH1 0x20 ADD PUSH0 KECCAK256 PUSH0 ADD PUSH0 DUP5 PUSH20 0xFFFFFFFFFFFFFFFFFFFFFFFFFFFFFFFFFFFFFFFF AND PUSH20 0xFFFFFFFFFFFFFFFFFFFFFFFFFFFFFFFFFFFFFFFF AND DUP2 MSTORE PUSH1 0x20 ADD SWAP1 DUP2 MSTORE PUSH1 0x20 ADD PUSH0 KECCAK256 PUSH0 PUSH2 0x100 EXP DUP2 SLOAD DUP2 PUSH1 0xFF MUL NOT AND SWAP1 DUP4 ISZERO ISZERO MUL OR SWAP1 SSTORE POP PUSH2 0x223 PUSH2 0x2F3 PUSH1 0x20 SHL PUSH1 0x20 SHR JUMP JUMPDEST PUSH20 0xFFFFFFFFFFFFFFFFFFFFFFFFFFFFFFFFFFFFFFFF AND DUP3 PUSH20 0xFFFFFFFFFFFFFFFFFFFFFFFFFFFFFFFFFFFFFFFF AND DUP5 PUSH32 0x2F8788117E7EFF1D82E926EC794901D17C78024A50270940304540A733656F0D PUSH1 0x40 MLOAD PUSH1 0x40 MLOAD DUP1 SWAP2 SUB SWAP1 LOG4 PUSH1 0x1 SWAP1 POP PUSH2 0x28A JUMP JUMPDEST PUSH0 SWAP1 POP JUMPDEST SWAP3 SWAP2 POP POP JUMP JUMPDEST PUSH0 DUP1 PUSH0 DUP5 DUP2 MSTORE PUSH1 0x20 ADD SWAP1 DUP2 MSTORE PUSH1 0x20 ADD PUSH0 KECCAK256 PUSH0 ADD PUSH0 DUP4 PUSH20 0xFFFFFFFFFFFFFFFFFFFFFFFFFFFFFFFFFFFFFFFF AND PUSH20 0xFFFFFFFFFFFFFFFFFFFFFFFFFFFFFFFFFFFFFFFF AND DUP2 MSTORE PUSH1 0x20 ADD SWAP1 DUP2 MSTORE PUSH1 0x20 ADD PUSH0 KECCAK256 PUSH0 SWAP1 SLOAD SWAP1 PUSH2 0x100 EXP SWAP1 DIV PUSH1 0xFF AND SWAP1 POP SWAP3 SWAP2 POP POP JUMP JUMPDEST PUSH0 CALLER SWAP1 POP SWAP1 JUMP JUMPDEST PUSH0 DUP1 REVERT JUMPDEST PUSH0 PUSH20 0xFFFFFFFFFFFFFFFFFFFFFFFFFFFFFFFFFFFFFFFF DUP3 AND SWAP1 POP SWAP2 SWAP1 POP JUMP JUMPDEST PUSH0 PUSH2 0x327 DUP3 PUSH2 0x2FE JUMP JUMPDEST SWAP1 POP SWAP2 SWAP1 POP JUMP JUMPDEST PUSH2 0x337 DUP2 PUSH2 0x31D JUMP JUMPDEST DUP2 EQ PUSH2 0x341 JUMPI PUSH0 DUP1 REVERT JUMPDEST POP JUMP JUMPDEST PUSH0 DUP2 MLOAD SWAP1 POP PUSH2 0x352 DUP2 PUSH2 0x32E JUMP JUMPDEST SWAP3 SWAP2 POP POP JUMP JUMPDEST PUSH0 DUP2 SWAP1 POP SWAP2 SWAP1 POP JUMP JUMPDEST PUSH2 0x36A DUP2 PUSH2 0x358 JUMP JUMPDEST DUP2 EQ PUSH2 0x374 JUMPI PUSH0 DUP1 REVERT JUMPDEST POP JUMP JUMPDEST PUSH0 DUP2 MLOAD SWAP1 POP PUSH2 0x385 DUP2 PUSH2 0x361 JUMP JUMPDEST SWAP3 SWAP2 POP POP JUMP JUMPDEST PUSH0 DUP1 PUSH0 DUP1 PUSH0 PUSH1 0xA0 DUP7 DUP9 SUB SLT ISZERO PUSH2 0x3A4 JUMPI PUSH2 0x3A3 PUSH2 0x2FA JUMP JUMPDEST JUMPDEST PUSH0 PUSH2 0x3B1 DUP9 DUP3 DUP10 ADD PUSH2 0x344 JUMP JUMPDEST SWAP6 POP POP PUSH1 0x20 PUSH2 0x3C2 DUP9 DUP3 DUP10 ADD PUSH2 0x344 JUMP JUMPDEST SWAP5 POP POP PUSH1 0x40 PUSH2 0x3D3 DUP9 DUP3 DUP10 ADD PUSH2 0x344 JUMP JUMPDEST SWAP4 POP POP PUSH1 0x60 PUSH2 0x3E4 DUP9 DUP3 DUP10 ADD PUSH2 0x377 JUMP JUMPDEST SWAP3 POP POP PUSH1 0x80 PUSH2 0x3F5 DUP9 DUP3 DUP10 ADD PUSH2 0x377 JUMP JUMPDEST SWAP2 POP POP SWAP3 SWAP6 POP SWAP3 SWAP6 SWAP1 SWAP4 POP JUMP JUMPDEST PUSH2 0x49B9 DUP1 PUSH2 0x40F PUSH0 CODECOPY PUSH0 RETURN INVALID PUSH1 0x80 PUSH1 0x40 MSTORE PUSH1 0x4 CALLDATASIZE LT PUSH2 0x21D JUMPI PUSH0 CALLDATALOAD PUSH1 0xE0 SHR DUP1 PUSH4 0x75B238FC GT PUSH2 0x122 JUMPI DUP1 PUSH4 0xA217FDDF GT PUSH2 0xAA JUMPI DUP1 PUSH4 0xC5C4744C GT PUSH2 0x6E JUMPI DUP1 PUSH4 0xC5C4744C EQ PUSH2 0x7A3 JUMPI DUP1 PUSH4 0xD547741F EQ PUSH2 0x7CD JUMPI DUP1 PUSH4 0xDBBDDCB8 EQ PUSH2 0x7F5 JUMPI DUP1 PUSH4 0xF3E3EAEE EQ PUSH2 0x831 JUMPI DUP1 PUSH4 0xFB86A404 EQ PUSH2 0x85B JUMPI PUSH2 0x25D JUMP JUMPDEST DUP1 PUSH4 0xA217FDDF EQ PUSH2 0x6E1 JUMPI DUP1 PUSH4 0xA98AD46C EQ PUSH2 0x70B JUMPI DUP1 PUSH4 0xAAFFADF3 EQ PUSH2 0x735 JUMPI DUP1 PUSH4 0xB8E0D08D EQ PUSH2 0x75F JUMPI DUP1 PUSH4 0xC1CBBCA7 EQ PUSH2 0x787 JUMPI PUSH2 0x25D JUMP JUMPDEST DUP1 PUSH4 0x8AB1D681 GT PUSH2 0xF1 JUMPI DUP1 PUSH4 0x8AB1D681 EQ PUSH2 0x60D JUMPI DUP1 PUSH4 0x8D070E75 EQ PUSH2 0x635 JUMPI DUP1 PUSH4 0x8D3D6576 EQ PUSH2 0x63F JUMPI DUP1 PUSH4 0x91D14854 EQ PUSH2 0x669 JUMPI DUP1 PUSH4 0x9B19251A EQ PUSH2 0x6A5 JUMPI PUSH2 0x25D JUMP JUMPDEST DUP1 PUSH4 0x75B238FC EQ PUSH2 0x569 JUMPI DUP1 PUSH4 0x7CE3489B EQ PUSH2 0x593 JUMPI DUP1 PUSH4 0x7FD6F15C EQ PUSH2 0x5BB JUMPI DUP1 PUSH4 0x870670FC EQ PUSH2 0x5E5 JUMPI PUSH2 0x25D JUMP JUMPDEST DUP1 PUSH4 0x2B67B671 GT PUSH2 0x1A5 JUMPI DUP1 PUSH4 0x42E94C90 GT PUSH2 0x174 JUMPI DUP1 PUSH4 0x42E94C90 EQ PUSH2 0x49B JUMPI DUP1 PUSH4 0x473B0D46 EQ PUSH2 0x4D7 JUMPI DUP1 PUSH4 0x51FB012D EQ PUSH2 0x4FF JUMPI DUP1 PUSH4 0x6D66D2CE EQ PUSH2 0x529 JUMPI DUP1 PUSH4 0x708DEE5E EQ PUSH2 0x53F JUMPI PUSH2 0x25D JUMP JUMPDEST DUP1 PUSH4 0x2B67B671 EQ PUSH2 0x40B JUMPI DUP1 PUSH4 0x2F2FF15D EQ PUSH2 0x421 JUMPI DUP1 PUSH4 0x36568ABE EQ PUSH2 0x449 JUMPI DUP1 PUSH4 0x3E0498D2 EQ PUSH2 0x471 JUMPI PUSH2 0x25D JUMP JUMPDEST DUP1 PUSH4 0x1E206F15 GT PUSH2 0x1EC JUMPI DUP1 PUSH4 0x1E206F15 EQ PUSH2 0x329 JUMPI DUP1 PUSH4 0x1E2F73B1 EQ PUSH2 0x353 JUMPI DUP1 PUSH4 0x214405FC EQ PUSH2 0x37D JUMPI DUP1 PUSH4 0x248A9CA3 EQ PUSH2 0x3A5 JUMPI DUP1 PUSH4 0x29575F6A EQ PUSH2 0x3E1 JUMPI PUSH2 0x25D JUMP JUMPDEST DUP1 PUSH4 0x1FFC9A7 EQ PUSH2 0x261 JUMPI DUP1 PUSH4 0x3ED9D21 EQ PUSH2 0x29D JUMPI DUP1 PUSH4 0xB9F2C4A EQ PUSH2 0x2C5 JUMPI DUP1 PUSH4 0xD77C7DF EQ PUSH2 0x301 JUMPI PUSH2 0x25D JUMP JUMPDEST CALLDATASIZE PUSH2 0x25D JUMPI PUSH1 0x40 MLOAD PUSH32 0x8C379A000000000000000000000000000000000000000000000000000000000 DUP2 MSTORE PUSH1 0x4 ADD PUSH2 0x254 SWAP1 PUSH2 0x3955 JUMP JUMPDEST PUSH1 0x40 MLOAD DUP1 SWAP2 SUB SWAP1 REVERT JUMPDEST PUSH0 DUP1 REVERT JUMPDEST CALLVALUE DUP1 ISZERO PUSH2 0x26C JUMPI PUSH0 DUP1 REVERT JUMPDEST POP PUSH2 0x287 PUSH1 0x4 DUP1 CALLDATASIZE SUB DUP2 ADD SWAP1 PUSH2 0x282 SWAP2 SWAP1 PUSH2 0x39D0 JUMP JUMPDEST PUSH2 0x885 JUMP JUMPDEST PUSH1 0x40 MLOAD PUSH2 0x294 SWAP2 SWAP1 PUSH2 0x3A15 JUMP JUMPDEST PUSH1 0x40 MLOAD DUP1 SWAP2 SUB SWAP1 RETURN JUMPDEST CALLVALUE DUP1 ISZERO PUSH2 0x2A8 JUMPI PUSH0 DUP1 REVERT JUMPDEST POP PUSH2 0x2C3 PUSH1 0x4 DUP1 CALLDATASIZE SUB DUP2 ADD SWAP1 PUSH2 0x2BE SWAP2 SWAP1 PUSH2 0x3A61 JUMP JUMPDEST PUSH2 0x8FE JUMP JUMPDEST STOP JUMPDEST CALLVALUE DUP1 ISZERO PUSH2 0x2D0 JUMPI PUSH0 DUP1 REVERT JUMPDEST POP PUSH2 0x2EB PUSH1 0x4 DUP1 CALLDATASIZE SUB DUP2 ADD SWAP1 PUSH2 0x2E6 SWAP2 SWAP1 PUSH2 0x3A61 JUMP JUMPDEST PUSH2 0xA7B JUMP JUMPDEST PUSH1 0x40 MLOAD PUSH2 0x2F8 SWAP2 SWAP1 PUSH2 0x3ACB JUMP JUMPDEST PUSH1 0x40 MLOAD DUP1 SWAP2 SUB SWAP1 RETURN JUMPDEST CALLVALUE DUP1 ISZERO PUSH2 0x30C JUMPI PUSH0 DUP1 REVERT JUMPDEST POP PUSH2 0x327 PUSH1 0x4 DUP1 CALLDATASIZE SUB DUP2 ADD SWAP1 PUSH2 0x322 SWAP2 SWAP1 PUSH2 0x3A61 JUMP JUMPDEST PUSH2 0xAB6 JUMP JUMPDEST STOP JUMPDEST CALLVALUE DUP1 ISZERO PUSH2 0x334 JUMPI PUSH0 DUP1 REVERT JUMPDEST POP PUSH2 0x33D PUSH2 0xC18 JUMP JUMPDEST PUSH1 0x40 MLOAD PUSH2 0x34A SWAP2 SWAP1 PUSH2 0x3AF3 JUMP JUMPDEST PUSH1 0x40 MLOAD DUP1 SWAP2 SUB SWAP1 RETURN JUMPDEST CALLVALUE DUP1 ISZERO PUSH2 0x35E JUMPI PUSH0 DUP1 REVERT JUMPDEST POP PUSH2 0x367 PUSH2 0xC1E JUMP JUMPDEST PUSH1 0x40 MLOAD PUSH2 0x374 SWAP2 SWAP1 PUSH2 0x3ACB JUMP JUMPDEST PUSH1 0x40 MLOAD DUP1 SWAP2 SUB SWAP1 RETURN JUMPDEST CALLVALUE DUP1 ISZERO PUSH2 0x388 JUMPI PUSH0 DUP1 REVERT JUMPDEST POP PUSH2 0x3A3 PUSH1 0x4 DUP1 CALLDATASIZE SUB DUP2 ADD SWAP1 PUSH2 0x39E SWAP2 SWAP1 PUSH2 0x3B36 JUMP JUMPDEST PUSH2 0xC43 JUMP JUMPDEST STOP JUMPDEST CALLVALUE DUP1 ISZERO PUSH2 0x3B0 JUMPI PUSH0 DUP1 REVERT JUMPDEST POP PUSH2 0x3CB PUSH1 0x4 DUP1 CALLDATASIZE SUB DUP2 ADD SWAP1 PUSH2 0x3C6 SWAP2 SWAP1 PUSH2 0x3BA7 JUMP JUMPDEST PUSH2 0xD43 JUMP JUMPDEST PUSH1 0x40 MLOAD PUSH2 0x3D8 SWAP2 SWAP1 PUSH2 0x3BE1 JUMP JUMPDEST PUSH1 0x40 MLOAD DUP1 SWAP2 SUB SWAP1 RETURN JUMPDEST CALLVALUE DUP1 ISZERO PUSH2 0x3EC JUMPI PUSH0 DUP1 REVERT JUMPDEST POP PUSH2 0x3F5 PUSH2 0xD5F JUMP JUMPDEST PUSH1 0x40 MLOAD PUSH2 0x402 SWAP2 SWAP1 PUSH2 0x3ACB JUMP JUMPDEST PUSH1 0x40 MLOAD DUP1 SWAP2 SUB SWAP1 RETURN JUMPDEST CALLVALUE DUP1 ISZERO PUSH2 0x416 JUMPI PUSH0 DUP1 REVERT JUMPDEST POP PUSH2 0x41F PUSH2 0xD84 JUMP JUMPDEST STOP JUMPDEST CALLVALUE DUP1 ISZERO PUSH2 0x42C JUMPI PUSH0 DUP1 REVERT JUMPDEST POP PUSH2 0x447 PUSH1 0x4 DUP1 CALLDATASIZE SUB DUP2 ADD SWAP1 PUSH2 0x442 SWAP2 SWAP1 PUSH2 0x3BFA JUMP JUMPDEST PUSH2 0xF5E JUMP JUMPDEST STOP JUMPDEST CALLVALUE DUP1 ISZERO PUSH2 0x454 JUMPI PUSH0 DUP1 REVERT JUMPDEST POP PUSH2 0x46F PUSH1 0x4 DUP1 CALLDATASIZE SUB DUP2 ADD SWAP1 PUSH2 0x46A SWAP2 SWAP1 PUSH2 0x3BFA JUMP JUMPDEST PUSH2 0xF80 JUMP JUMPDEST STOP JUMPDEST CALLVALUE DUP1 ISZERO PUSH2 0x47C JUMPI PUSH0 DUP1 REVERT JUMPDEST POP PUSH2 0x485 PUSH2 0xFFB JUMP JUMPDEST PUSH1 0x40 MLOAD PUSH2 0x492 SWAP2 SWAP1 PUSH2 0x3A15 JUMP JUMPDEST PUSH1 0x40 MLOAD DUP1 SWAP2 SUB SWAP1 RETURN JUMPDEST CALLVALUE DUP1 ISZERO PUSH2 0x4A6 JUMPI PUSH0 DUP1 REVERT JUMPDEST POP PUSH2 0x4C1 PUSH1 0x4 DUP1 CALLDATASIZE SUB DUP2 ADD SWAP1 PUSH2 0x4BC SWAP2 SWAP1 PUSH2 0x3C38 JUMP JUMPDEST PUSH2 0x100E JUMP JUMPDEST PUSH1 0x40 MLOAD PUSH2 0x4CE SWAP2 SWAP1 PUSH2 0x3AF3 JUMP JUMPDEST PUSH1 0x40 MLOAD DUP1 SWAP2 SUB SWAP1 RETURN JUMPDEST CALLVALUE DUP1 ISZERO PUSH2 0x4E2 JUMPI PUSH0 DUP1 REVERT JUMPDEST POP PUSH2 0x4FD PUSH1 0x4 DUP1 CALLDATASIZE SUB DUP2 ADD SWAP1 PUSH2 0x4F8 SWAP2 SWAP1 PUSH2 0x3A61 JUMP JUMPDEST PUSH2 0x1023 JUMP JUMPDEST STOP JUMPDEST CALLVALUE DUP1 ISZERO PUSH2 0x50A JUMPI PUSH0 DUP1 REVERT JUMPDEST POP PUSH2 0x513 PUSH2 0x11A0 JUMP JUMPDEST PUSH1 0x40 MLOAD PUSH2 0x520 SWAP2 SWAP1 PUSH2 0x3A15 JUMP JUMPDEST PUSH1 0x40 MLOAD DUP1 SWAP2 SUB SWAP1 RETURN JUMPDEST CALLVALUE DUP1 ISZERO PUSH2 0x534 JUMPI PUSH0 DUP1 REVERT JUMPDEST POP PUSH2 0x53D PUSH2 0x11B2 JUMP JUMPDEST STOP JUMPDEST CALLVALUE DUP1 ISZERO PUSH2 0x54A JUMPI PUSH0 DUP1 REVERT JUMPDEST POP PUSH2 0x553 PUSH2 0x1385 JUMP JUMPDEST PUSH1 0x40 MLOAD PUSH2 0x560 SWAP2 SWAP1 PUSH2 0x3A15 JUMP JUMPDEST PUSH1 0x40 MLOAD DUP1 SWAP2 SUB SWAP1 RETURN JUMPDEST CALLVALUE DUP1 ISZERO PUSH2 0x574 JUMPI PUSH0 DUP1 REVERT JUMPDEST POP PUSH2 0x57D PUSH2 0x1397 JUMP JUMPDEST PUSH1 0x40 MLOAD PUSH2 0x58A SWAP2 SWAP1 PUSH2 0x3BE1 JUMP JUMPDEST PUSH1 0x40 MLOAD DUP1 SWAP2 SUB SWAP1 RETURN JUMPDEST CALLVALUE DUP1 ISZERO PUSH2 0x59E JUMPI PUSH0 DUP1 REVERT JUMPDEST POP PUSH2 0x5B9 PUSH1 0x4 DUP1 CALLDATASIZE SUB DUP2 ADD SWAP1 PUSH2 0x5B4 SWAP2 SWAP1 PUSH2 0x3A61 JUMP JUMPDEST PUSH2 0x13BB JUMP JUMPDEST STOP JUMPDEST CALLVALUE DUP1 ISZERO PUSH2 0x5C6 JUMPI PUSH0 DUP1 REVERT JUMPDEST POP PUSH2 0x5CF PUSH2 0x1501 JUMP JUMPDEST PUSH1 0x40 MLOAD PUSH2 0x5DC SWAP2 SWAP1 PUSH2 0x3AF3 JUMP JUMPDEST PUSH1 0x40 MLOAD DUP1 SWAP2 SUB SWAP1 RETURN JUMPDEST CALLVALUE DUP1 ISZERO PUSH2 0x5F0 JUMPI PUSH0 DUP1 REVERT JUMPDEST POP PUSH2 0x60B PUSH1 0x4 DUP1 CALLDATASIZE SUB DUP2 ADD SWAP1 PUSH2 0x606 SWAP2 SWAP1 PUSH2 0x3D19 JUMP JUMPDEST PUSH2 0x1507 JUMP JUMPDEST STOP JUMPDEST CALLVALUE DUP1 ISZERO PUSH2 0x618 JUMPI PUSH0 DUP1 REVERT JUMPDEST POP PUSH2 0x633 PUSH1 0x4 DUP1 CALLDATASIZE SUB DUP2 ADD SWAP1 PUSH2 0x62E SWAP2 SWAP1 PUSH2 0x3C38 JUMP JUMPDEST PUSH2 0x194F JUMP JUMPDEST STOP JUMPDEST PUSH2 0x63D PUSH2 0x1B1B JUMP JUMPDEST STOP JUMPDEST CALLVALUE DUP1 ISZERO PUSH2 0x64A JUMPI PUSH0 DUP1 REVERT JUMPDEST POP PUSH2 0x653 PUSH2 0x279C JUMP JUMPDEST PUSH1 0x40 MLOAD PUSH2 0x660 SWAP2 SWAP1 PUSH2 0x3AF3 JUMP JUMPDEST PUSH1 0x40 MLOAD DUP1 SWAP2 SUB SWAP1 RETURN JUMPDEST CALLVALUE DUP1 ISZERO PUSH2 0x674 JUMPI PUSH0 DUP1 REVERT JUMPDEST POP PUSH2 0x68F PUSH1 0x4 DUP1 CALLDATASIZE SUB DUP2 ADD SWAP1 PUSH2 0x68A SWAP2 SWAP1 PUSH2 0x3BFA JUMP JUMPDEST PUSH2 0x27A2 JUMP JUMPDEST PUSH1 0x40 MLOAD PUSH2 0x69C SWAP2 SWAP1 PUSH2 0x3A15 JUMP JUMPDEST PUSH1 0x40 MLOAD DUP1 SWAP2 SUB SWAP1 RETURN JUMPDEST CALLVALUE DUP1 ISZERO PUSH2 0x6B0 JUMPI PUSH0 DUP1 REVERT JUMPDEST POP PUSH2 0x6CB PUSH1 0x4 DUP1 CALLDATASIZE SUB DUP2 ADD SWAP1 PUSH2 0x6C6 SWAP2 SWAP1 PUSH2 0x3C38 JUMP JUMPDEST PUSH2 0x2805 JUMP JUMPDEST PUSH1 0x40 MLOAD PUSH2 0x6D8 SWAP2 SWAP1 PUSH2 0x3A15 JUMP JUMPDEST PUSH1 0x40 MLOAD DUP1 SWAP2 SUB SWAP1 RETURN JUMPDEST CALLVALUE DUP1 ISZERO PUSH2 0x6EC JUMPI PUSH0 DUP1 REVERT JUMPDEST POP PUSH2 0x6F5 PUSH2 0x2822 JUMP JUMPDEST PUSH1 0x40 MLOAD PUSH2 0x702 SWAP2 SWAP1 PUSH2 0x3BE1 JUMP JUMPDEST PUSH1 0x40 MLOAD DUP1 SWAP2 SUB SWAP1 RETURN JUMPDEST CALLVALUE DUP1 ISZERO PUSH2 0x716 JUMPI PUSH0 DUP1 REVERT JUMPDEST POP PUSH2 0x71F PUSH2 0x2828 JUMP JUMPDEST PUSH1 0x40 MLOAD PUSH2 0x72C SWAP2 SWAP1 PUSH2 0x3DF2 JUMP JUMPDEST PUSH1 0x40 MLOAD DUP1 SWAP2 SUB SWAP1 RETURN JUMPDEST CALLVALUE DUP1 ISZERO PUSH2 0x740 JUMPI PUSH0 DUP1 REVERT JUMPDEST POP PUSH2 0x749 PUSH2 0x284D JUMP JUMPDEST PUSH1 0x40 MLOAD PUSH2 0x756 SWAP2 SWAP1 PUSH2 0x3AF3 JUMP JUMPDEST PUSH1 0x40 MLOAD DUP1 SWAP2 SUB SWAP1 RETURN JUMPDEST CALLVALUE DUP1 ISZERO PUSH2 0x76A JUMPI PUSH0 DUP1 REVERT JUMPDEST POP PUSH2 0x785 PUSH1 0x4 DUP1 CALLDATASIZE SUB DUP2 ADD SWAP1 PUSH2 0x780 SWAP2 SWAP1 PUSH2 0x3A61 JUMP JUMPDEST PUSH2 0x2853 JUMP JUMPDEST STOP JUMPDEST PUSH2 0x7A1 PUSH1 0x4 DUP1 CALLDATASIZE SUB DUP2 ADD SWAP1 PUSH2 0x79C SWAP2 SWAP1 PUSH2 0x3A61 JUMP JUMPDEST PUSH2 0x29D0 JUMP JUMPDEST STOP JUMPDEST CALLVALUE DUP1 ISZERO PUSH2 0x7AE JUMPI PUSH0 DUP1 REVERT JUMPDEST POP PUSH2 0x7B7 PUSH2 0x3269 JUMP JUMPDEST PUSH1 0x40 MLOAD PUSH2 0x7C4 SWAP2 SWAP1 PUSH2 0x3AF3 JUMP JUMPDEST PUSH1 0x40 MLOAD DUP1 SWAP2 SUB SWAP1 RETURN JUMPDEST CALLVALUE DUP1 ISZERO PUSH2 0x7D8 JUMPI PUSH0 DUP1 REVERT JUMPDEST POP PUSH2 0x7F3 PUSH1 0x4 DUP1 CALLDATASIZE SUB DUP2 ADD SWAP1 PUSH2 0x7EE SWAP2 SWAP1 PUSH2 0x3BFA JUMP JUMPDEST PUSH2 0x326F JUMP JUMPDEST STOP JUMPDEST CALLVALUE DUP1 ISZERO PUSH2 0x800 JUMPI PUSH0 DUP1 REVERT JUMPDEST POP PUSH2 0x81B PUSH1 0x4 DUP1 CALLDATASIZE SUB DUP2 ADD SWAP1 PUSH2 0x816 SWAP2 SWAP1 PUSH2 0x3C38 JUMP JUMPDEST PUSH2 0x3291 JUMP JUMPDEST PUSH1 0x40 MLOAD PUSH2 0x828 SWAP2 SWAP1 PUSH2 0x3AF3 JUMP JUMPDEST PUSH1 0x40 MLOAD DUP1 SWAP2 SUB SWAP1 RETURN JUMPDEST CALLVALUE DUP1 ISZERO PUSH2 0x83C JUMPI PUSH0 DUP1 REVERT JUMPDEST POP PUSH2 0x845 PUSH2 0x32A6 JUMP JUMPDEST PUSH1 0x40 MLOAD PUSH2 0x852 SWAP2 SWAP1 PUSH2 0x3A15 JUMP JUMPDEST PUSH1 0x40 MLOAD DUP1 SWAP2 SUB SWAP1 RETURN JUMPDEST CALLVALUE DUP1 ISZERO PUSH2 0x866 JUMPI PUSH0 DUP1 REVERT JUMPDEST POP PUSH2 0x86F PUSH2 0x32B1 JUMP JUMPDEST PUSH1 0x40 MLOAD PUSH2 0x87C SWAP2 SWAP1 PUSH2 0x3AF3 JUMP JUMPDEST PUSH1 0x40 MLOAD DUP1 SWAP2 SUB SWAP1 RETURN JUMPDEST PUSH0 PUSH32 0x7965DB0B00000000000000000000000000000000000000000000000000000000 PUSH28 0xFFFFFFFFFFFFFFFFFFFFFFFFFFFFFFFFFFFFFFFFFFFFFFFFFFFFFFFF NOT AND DUP3 PUSH28 0xFFFFFFFFFFFFFFFFFFFFFFFFFFFFFFFFFFFFFFFFFFFFFFFFFFFFFFFF NOT AND EQ DUP1 PUSH2 0x8F7 JUMPI POP PUSH2 0x8F6 DUP3 PUSH2 0x32B7 JUMP JUMPDEST JUMPDEST SWAP1 POP SWAP2 SWAP1 POP JUMP JUMPDEST PUSH2 0x95E PUSH1 0x40 MLOAD DUP1 PUSH1 0x40 ADD PUSH1 0x40 MSTORE DUP1 PUSH1 0x10 DUP2 MSTORE PUSH1 0x20 ADD PUSH32 0x436F6E74726163742043726561746F7200000000000000000000000000000000 DUP2 MSTORE POP PUSH1 0x4 PUSH0 SWAP1 SLOAD SWAP1 PUSH2 0x100 EXP SWAP1 DIV PUSH20 0xFFFFFFFFFFFFFFFFFFFFFFFFFFFFFFFFFFFFFFFF AND PUSH2 0x3320 JUMP JUMPDEST PUSH2 0x9BE PUSH1 0x40 MLOAD DUP1 PUSH1 0x40 ADD PUSH1 0x40 MSTORE DUP1 PUSH1 0xA DUP2 MSTORE PUSH1 0x20 ADD PUSH32 0x537570657241646D696E00000000000000000000000000000000000000000000 DUP2 MSTORE POP PUSH1 0x3 PUSH0 SWAP1 SLOAD SWAP1 PUSH2 0x100 EXP SWAP1 DIV PUSH20 0xFFFFFFFFFFFFFFFFFFFFFFFFFFFFFFFFFFFFFFFF AND PUSH2 0x3320 JUMP JUMPDEST PUSH2 0x9E8 PUSH32 0xA49807205CE4D355092EF5A8A18F56E8913CF4A201FBE287825B095693C21775 CALLER PUSH2 0x27A2 JUMP JUMPDEST DUP1 PUSH2 0x9FB JUMPI POP PUSH2 0x9FA PUSH0 DUP1 SHL CALLER PUSH2 0x27A2 JUMP JUMPDEST JUMPDEST PUSH2 0xA3A JUMPI PUSH1 0x40 MLOAD PUSH32 0x8C379A000000000000000000000000000000000000000000000000000000000 DUP2 MSTORE PUSH1 0x4 ADD PUSH2 0xA31 SWAP1 PUSH2 0x3E55 JUMP JUMPDEST PUSH1 0x40 MLOAD DUP1 SWAP2 SUB SWAP1 REVERT JUMPDEST DUP1 PUSH1 0x9 DUP2 SWAP1 SSTORE POP PUSH32 0x8645F88287B79F16D91266DA1D35B7ADC817D75A89A9577504B01FBC37ED5A6F DUP2 PUSH1 0x40 MLOAD PUSH2 0xA70 SWAP2 SWAP1 PUSH2 0x3AF3 JUMP JUMPDEST PUSH1 0x40 MLOAD DUP1 SWAP2 SUB SWAP1 LOG1 POP JUMP JUMPDEST PUSH1 0xC DUP2 DUP2 SLOAD DUP2 LT PUSH2 0xA8A JUMPI PUSH0 DUP1 REVERT JUMPDEST SWAP1 PUSH0 MSTORE PUSH1 0x20 PUSH0 KECCAK256 ADD PUSH0 SWAP2 POP SLOAD SWAP1 PUSH2 0x100 EXP SWAP1 DIV PUSH20 0xFFFFFFFFFFFFFFFFFFFFFFFFFFFFFFFFFFFFFFFF AND DUP2 JUMP JUMPDEST PUSH2 0xB16 PUSH1 0x40 MLOAD DUP1 PUSH1 0x40 ADD PUSH1 0x40 MSTORE DUP1 PUSH1 0x10 DUP2 MSTORE PUSH1 0x20 ADD PUSH32 0x436F6E74726163742043726561746F7200000000000000000000000000000000 DUP2 MSTORE POP PUSH1 0x4 PUSH0 SWAP1 SLOAD SWAP1 PUSH2 0x100 EXP SWAP1 DIV PUSH20 0xFFFFFFFFFFFFFFFFFFFFFFFFFFFFFFFFFFFFFFFF AND PUSH2 0x3320 JUMP JUMPDEST PUSH2 0xB76 PUSH1 0x40 MLOAD DUP1 PUSH1 0x40 ADD PUSH1 0x40 MSTORE DUP1 PUSH1 0xA DUP2 MSTORE PUSH1 0x20 ADD PUSH32 0x537570657241646D696E00000000000000000000000000000000000000000000 DUP2 MSTORE POP PUSH1 0x3 PUSH0 SWAP1 SLOAD SWAP1 PUSH2 0x100 EXP SWAP1 DIV PUSH20 0xFFFFFFFFFFFFFFFFFFFFFFFFFFFFFFFFFFFFFFFF AND PUSH2 0x3320 JUMP JUMPDEST PUSH2 0xBA0 PUSH32 0xA49807205CE4D355092EF5A8A18F56E8913CF4A201FBE287825B095693C21775 CALLER PUSH2 0x27A2 JUMP JUMPDEST DUP1 PUSH2 0xBB3 JUMPI POP PUSH2 0xBB2 PUSH0 DUP1 SHL CALLER PUSH2 0x27A2 JUMP JUMPDEST JUMPDEST PUSH2 0xBF2 JUMPI PUSH1 0x40 MLOAD PUSH32 0x8C379A000000000000000000000000000000000000000000000000000000000 DUP2 MSTORE PUSH1 0x4 ADD PUSH2 0xBE9 SWAP1 PUSH2 0x3E55 JUMP JUMPDEST PUSH1 0x40 MLOAD DUP1 SWAP2 SUB SWAP1 REVERT JUMPDEST PUSH1 0x1 PUSH1 0xF PUSH0 PUSH2 0x100 EXP DUP2 SLOAD DUP2 PUSH1 0xFF MUL NOT AND SWAP1 DUP4 ISZERO ISZERO MUL OR SWAP1 SSTORE POP PUSH2 0xC15 DUP2 PUSH2 0x33BC JUMP JUMPDEST POP JUMP JUMPDEST PUSH1 0xB SLOAD DUP2 JUMP JUMPDEST PUSH1 0x4 PUSH0 SWAP1 SLOAD SWAP1 PUSH2 0x100 EXP SWAP1 DIV PUSH20 0xFFFFFFFFFFFFFFFFFFFFFFFFFFFFFFFFFFFFFFFF AND DUP2 JUMP JUMPDEST PUSH32 0xA49807205CE4D355092EF5A8A18F56E8913CF4A201FBE287825B095693C21775 PUSH2 0xC6D DUP2 PUSH2 0x33C6 JUMP JUMPDEST PUSH1 0x1 PUSH1 0xE PUSH0 DUP6 PUSH20 0xFFFFFFFFFFFFFFFFFFFFFFFFFFFFFFFFFFFFFFFF AND PUSH20 0xFFFFFFFFFFFFFFFFFFFFFFFFFFFFFFFFFFFFFFFF AND DUP2 MSTORE PUSH1 0x20 ADD SWAP1 DUP2 MSTORE PUSH1 0x20 ADD PUSH0 KECCAK256 PUSH0 PUSH2 0x100 EXP DUP2 SLOAD DUP2 PUSH1 0xFF MUL NOT AND SWAP1 DUP4 ISZERO ISZERO MUL OR SWAP1 SSTORE POP DUP2 PUSH1 0x10 PUSH0 DUP6 PUSH20 0xFFFFFFFFFFFFFFFFFFFFFFFFFFFFFFFFFFFFFFFF AND PUSH20 0xFFFFFFFFFFFFFFFFFFFFFFFFFFFFFFFFFFFFFFFF AND DUP2 MSTORE PUSH1 0x20 ADD SWAP1 DUP2 MSTORE PUSH1 0x20 ADD PUSH0 KECCAK256 DUP2 SWAP1 SSTORE POP PUSH32 0xF93F9A76C1BF3444D22400A00CB9FE990E6ABE9DBB333FDA48859CFEE864543D DUP4 PUSH1 0x1 PUSH1 0x40 MLOAD PUSH2 0xD36 SWAP3 SWAP2 SWAP1 PUSH2 0x3E73 JUMP JUMPDEST PUSH1 0x40 MLOAD DUP1 SWAP2 SUB SWAP1 LOG1 POP POP POP JUMP JUMPDEST PUSH0 DUP1 PUSH0 DUP4 DUP2 MSTORE PUSH1 0x20 ADD SWAP1 DUP2 MSTORE PUSH1 0x20 ADD PUSH0 KECCAK256 PUSH1 0x1 ADD SLOAD SWAP1 POP SWAP2 SWAP1 POP JUMP JUMPDEST PUSH1 0x3 PUSH0 SWAP1 SLOAD SWAP1 PUSH2 0x100 EXP SWAP1 DIV PUSH20 0xFFFFFFFFFFFFFFFFFFFFFFFFFFFFFFFFFFFFFFFF AND DUP2 JUMP JUMPDEST PUSH1 0x4 PUSH0 SWAP1 SLOAD SWAP1 PUSH2 0x100 EXP SWAP1 DIV PUSH20 0xFFFFFFFFFFFFFFFFFFFFFFFFFFFFFFFFFFFFFFFF AND PUSH20 0xFFFFFFFFFFFFFFFFFFFFFFFFFFFFFFFFFFFFFFFF AND CALLER PUSH20 0xFFFFFFFFFFFFFFFFFFFFFFFFFFFFFFFFFFFFFFFF AND EQ DUP1 PUSH2 0xE2B JUMPI POP PUSH1 0x3 PUSH0 SWAP1 SLOAD SWAP1 PUSH2 0x100 EXP SWAP1 DIV PUSH20 0xFFFFFFFFFFFFFFFFFFFFFFFFFFFFFFFFFFFFFFFF AND PUSH20 0xFFFFFFFFFFFFFFFFFFFFFFFFFFFFFFFFFFFFFFFF AND CALLER PUSH20 0xFFFFFFFFFFFFFFFFFFFFFFFFFFFFFFFFFFFFFFFF AND EQ JUMPDEST PUSH2 0xE6A JUMPI PUSH1 0x40 MLOAD PUSH32 0x8C379A000000000000000000000000000000000000000000000000000000000 DUP2 MSTORE PUSH1 0x4 ADD PUSH2 0xE61 SWAP1 PUSH2 0x3EE4 JUMP JUMPDEST PUSH1 0x40 MLOAD DUP1 SWAP2 SUB SWAP1 REVERT JUMPDEST PUSH0 PUSH1 0x5 SLOAD EQ ISZERO DUP1 ISZERO PUSH2 0xE7E JUMPI POP PUSH0 PUSH1 0xB SLOAD EQ ISZERO JUMPDEST PUSH2 0xEBD JUMPI PUSH1 0x40 MLOAD PUSH32 0x8C379A000000000000000000000000000000000000000000000000000000000 DUP2 MSTORE PUSH1 0x4 ADD PUSH2 0xEB4 SWAP1 PUSH2 0x3F72 JUMP JUMPDEST PUSH1 0x40 MLOAD DUP1 SWAP2 SUB SWAP1 REVERT JUMPDEST PUSH1 0xA PUSH1 0x1 SWAP1 SLOAD SWAP1 PUSH2 0x100 EXP SWAP1 DIV PUSH1 0xFF AND ISZERO PUSH2 0xF0D JUMPI PUSH1 0x40 MLOAD PUSH32 0x8C379A000000000000000000000000000000000000000000000000000000000 DUP2 MSTORE PUSH1 0x4 ADD PUSH2 0xF04 SWAP1 PUSH2 0x3FDA JUMP JUMPDEST PUSH1 0x40 MLOAD DUP1 SWAP2 SUB SWAP1 REVERT JUMPDEST PUSH1 0x1 PUSH1 0xA PUSH1 0x1 PUSH2 0x100 EXP DUP2 SLOAD DUP2 PUSH1 0xFF MUL NOT AND SWAP1 DUP4 ISZERO ISZERO MUL OR SWAP1 SSTORE POP PUSH2 0xF30 PUSH2 0x1B1B JUMP JUMPDEST PUSH32 0x5B2AE23CD3AC75C4244AFECDE24848A0616CA7390C4C330A40A86D7E896D9462 PUSH1 0x40 MLOAD PUSH1 0x40 MLOAD DUP1 SWAP2 SUB SWAP1 LOG1 JUMP JUMPDEST PUSH2 0xF67 DUP3 PUSH2 0xD43 JUMP JUMPDEST PUSH2 0xF70 DUP2 PUSH2 0x33C6 JUMP JUMPDEST PUSH2 0xF7A DUP4 DUP4 PUSH2 0x33DA JUMP JUMPDEST POP POP POP POP JUMP JUMPDEST PUSH2 0xF88 PUSH2 0x34C3 JUMP JUMPDEST PUSH20 0xFFFFFFFFFFFFFFFFFFFFFFFFFFFFFFFFFFFFFFFF AND DUP2 PUSH20 0xFFFFFFFFFFFFFFFFFFFFFFFFFFFFFFFFFFFFFFFF AND EQ PUSH2 0xFEC JUMPI PUSH1 0x40 MLOAD PUSH32 0x6697B23200000000000000000000000000000000000000000000000000000000 DUP2 MSTORE PUSH1 0x4 ADD PUSH1 0x40 MLOAD DUP1 SWAP2 SUB SWAP1 REVERT JUMPDEST PUSH2 0xFF6 DUP3 DUP3 PUSH2 0x34CA JUMP JUMPDEST POP POP POP JUMP JUMPDEST PUSH1 0xA PUSH1 0x1 SWAP1 SLOAD SWAP1 PUSH2 0x100 EXP SWAP1 DIV PUSH1 0xFF AND DUP2 JUMP JUMPDEST PUSH1 0xD PUSH1 0x20 MSTORE DUP1 PUSH0 MSTORE PUSH1 0x40 PUSH0 KECCAK256 PUSH0 SWAP2 POP SWAP1 POP SLOAD DUP2 JUMP JUMPDEST PUSH2 0x1083 PUSH1 0x40 MLOAD DUP1 PUSH1 0x40 ADD PUSH1 0x40 MSTORE DUP1 PUSH1 0x10 DUP2 MSTORE PUSH1 0x20 ADD PUSH32 0x436F6E74726163742043726561746F7200000000000000000000000000000000 DUP2 MSTORE POP PUSH1 0x4 PUSH0 SWAP1 SLOAD SWAP1 PUSH2 0x100 EXP SWAP1 DIV PUSH20 0xFFFFFFFFFFFFFFFFFFFFFFFFFFFFFFFFFFFFFFFF AND PUSH2 0x3320 JUMP JUMPDEST PUSH2 0x10E3 PUSH1 0x40 MLOAD DUP1 PUSH1 0x40 ADD PUSH1 0x40 MSTORE DUP1 PUSH1 0xA DUP2 MSTORE PUSH1 0x20 ADD PUSH32 0x537570657241646D696E00000000000000000000000000000000000000000000 DUP2 MSTORE POP PUSH1 0x3 PUSH0 SWAP1 SLOAD SWAP1 PUSH2 0x100 EXP SWAP1 DIV PUSH20 0xFFFFFFFFFFFFFFFFFFFFFFFFFFFFFFFFFFFFFFFF AND PUSH2 0x3320 JUMP JUMPDEST PUSH2 0x110D PUSH32 0xA49807205CE4D355092EF5A8A18F56E8913CF4A201FBE287825B095693C21775 CALLER PUSH2 0x27A2 JUMP JUMPDEST DUP1 PUSH2 0x1120 JUMPI POP PUSH2 0x111F PUSH0 DUP1 SHL CALLER PUSH2 0x27A2 JUMP JUMPDEST JUMPDEST PUSH2 0x115F JUMPI PUSH1 0x40 MLOAD PUSH32 0x8C379A000000000000000000000000000000000000000000000000000000000 DUP2 MSTORE PUSH1 0x4 ADD PUSH2 0x1156 SWAP1 PUSH2 0x3E55 JUMP JUMPDEST PUSH1 0x40 MLOAD DUP1 SWAP2 SUB SWAP1 REVERT JUMPDEST DUP1 PUSH1 0x8 DUP2 SWAP1 SSTORE POP PUSH32 0x9E87CF72973CDB82F6A3C58FA8EF538FD3088801E3F3033AFD06FA390CA4876C DUP2 PUSH1 0x40 MLOAD PUSH2 0x1195 SWAP2 SWAP1 PUSH2 0x3AF3 JUMP JUMPDEST PUSH1 0x40 MLOAD DUP1 SWAP2 SUB SWAP1 LOG1 POP JUMP JUMPDEST PUSH1 0xF PUSH0 SWAP1 SLOAD SWAP1 PUSH2 0x100 EXP SWAP1 DIV PUSH1 0xFF AND DUP2 JUMP JUMPDEST PUSH2 0x1212 PUSH1 0x40 MLOAD DUP1 PUSH1 0x40 ADD PUSH1 0x40 MSTORE DUP1 PUSH1 0x10 DUP2 MSTORE PUSH1 0x20 ADD PUSH32 0x436F6E74726163742043726561746F7200000000000000000000000000000000 DUP2 MSTORE POP PUSH1 0x4 PUSH0 SWAP1 SLOAD SWAP1 PUSH2 0x100 EXP SWAP1 DIV PUSH20 0xFFFFFFFFFFFFFFFFFFFFFFFFFFFFFFFFFFFFFFFF AND PUSH2 0x3320 JUMP JUMPDEST PUSH2 0x1272 PUSH1 0x40 MLOAD DUP1 PUSH1 0x40 ADD PUSH1 0x40 MSTORE DUP1 PUSH1 0xA DUP2 MSTORE PUSH1 0x20 ADD PUSH32 0x537570657241646D696E00000000000000000000000000000000000000000000 DUP2 MSTORE POP PUSH1 0x3 PUSH0 SWAP1 SLOAD SWAP1 PUSH2 0x100 EXP SWAP1 DIV PUSH20 0xFFFFFFFFFFFFFFFFFFFFFFFFFFFFFFFFFFFFFFFF AND PUSH2 0x3320 JUMP JUMPDEST PUSH2 0x129C PUSH32 0xA49807205CE4D355092EF5A8A18F56E8913CF4A201FBE287825B095693C21775 CALLER PUSH2 0x27A2 JUMP JUMPDEST DUP1 PUSH2 0x12AF JUMPI POP PUSH2 0x12AE PUSH0 DUP1 SHL CALLER PUSH2 0x27A2 JUMP JUMPDEST JUMPDEST PUSH2 0x12EE JUMPI PUSH1 0x40 MLOAD PUSH32 0x8C379A000000000000000000000000000000000000000000000000000000000 DUP2 MSTORE PUSH1 0x4 ADD PUSH2 0x12E5 SWAP1 PUSH2 0x3E55 JUMP JUMPDEST PUSH1 0x40 MLOAD DUP1 SWAP2 SUB SWAP1 REVERT JUMPDEST PUSH1 0xA PUSH0 SWAP1 SLOAD SWAP1 PUSH2 0x100 EXP SWAP1 DIV PUSH1 0xFF AND ISZERO PUSH2 0x133D JUMPI PUSH1 0x40 MLOAD PUSH32 0x8C379A000000000000000000000000000000000000000000000000000000000 DUP2 MSTORE PUSH1 0x4 ADD PUSH2 0x1334 SWAP1 PUSH2 0x4042 JUMP JUMPDEST PUSH1 0x40 MLOAD DUP1 SWAP2 SUB SWAP1 REVERT JUMPDEST PUSH1 0x1 PUSH1 0xA PUSH0 PUSH2 0x100 EXP DUP2 SLOAD DUP2 PUSH1 0xFF MUL NOT AND SWAP1 DUP4 ISZERO ISZERO MUL OR SWAP1 SSTORE POP PUSH32 0x8CF55E5373CD35327ECD6E48F19A6101684947FD385C07FB95117B3695EC2E9B PUSH1 0x40 MLOAD PUSH1 0x40 MLOAD DUP1 SWAP2 SUB SWAP1 LOG1 JUMP JUMPDEST PUSH1 0xA PUSH0 SWAP1 SLOAD SWAP1 PUSH2 0x100 EXP SWAP1 DIV PUSH1 0xFF AND DUP2 JUMP JUMPDEST PUSH32 0xA49807205CE4D355092EF5A8A18F56E8913CF4A201FBE287825B095693C21775 DUP2 JUMP JUMPDEST PUSH2 0x141B PUSH1 0x40 MLOAD DUP1 PUSH1 0x40 ADD PUSH1 0x40 MSTORE DUP1 PUSH1 0x10 DUP2 MSTORE PUSH1 0x20 ADD PUSH32 0x436F6E74726163742043726561746F7200000000000000000000000000000000 DUP2 MSTORE POP PUSH1 0x4 PUSH0 SWAP1 SLOAD SWAP1 PUSH2 0x100 EXP SWAP1 DIV PUSH20 0xFFFFFFFFFFFFFFFFFFFFFFFFFFFFFFFFFFFFFFFF AND PUSH2 0x3320 JUMP JUMPDEST PUSH2 0x147B PUSH1 0x40 MLOAD DUP1 PUSH1 0x40 ADD PUSH1 0x40 MSTORE DUP1 PUSH1 0xA DUP2 MSTORE PUSH1 0x20 ADD PUSH32 0x537570657241646D696E00000000000000000000000000000000000000000000 DUP2 MSTORE POP PUSH1 0x3 PUSH0 SWAP1 SLOAD SWAP1 PUSH2 0x100 EXP SWAP1 DIV PUSH20 0xFFFFFFFFFFFFFFFFFFFFFFFFFFFFFFFFFFFFFFFF AND PUSH2 0x3320 JUMP JUMPDEST PUSH2 0x14A5 PUSH32 0xA49807205CE4D355092EF5A8A18F56E8913CF4A201FBE287825B095693C21775 CALLER PUSH2 0x27A2 JUMP JUMPDEST DUP1 PUSH2 0x14B8 JUMPI POP PUSH2 0x14B7 PUSH0 DUP1 SHL CALLER PUSH2 0x27A2 JUMP JUMPDEST JUMPDEST PUSH2 0x14F7 JUMPI PUSH1 0x40 MLOAD PUSH32 0x8C379A000000000000000000000000000000000000000000000000000000000 DUP2 MSTORE PUSH1 0x4 ADD PUSH2 0x14EE SWAP1 PUSH2 0x3E55 JUMP JUMPDEST PUSH1 0x40 MLOAD DUP1 SWAP2 SUB SWAP1 REVERT JUMPDEST DUP1 PUSH1 0x6 DUP2 SWAP1 SSTORE POP POP JUMP JUMPDEST PUSH1 0x6 SLOAD DUP2 JUMP JUMPDEST PUSH2 0x1567 PUSH1 0x40 MLOAD DUP1 PUSH1 0x40 ADD PUSH1 0x40 MSTORE DUP1 PUSH1 0x10 DUP2 MSTORE PUSH1 0x20 ADD PUSH32 0x436F6E74726163742043726561746F7200000000000000000000000000000000 DUP2 MSTORE POP PUSH1 0x4 PUSH0 SWAP1 SLOAD SWAP1 PUSH2 0x100 EXP SWAP1 DIV PUSH20 0xFFFFFFFFFFFFFFFFFFFFFFFFFFFFFFFFFFFFFFFF AND PUSH2 0x3320 JUMP JUMPDEST PUSH2 0x15C7 PUSH1 0x40 MLOAD DUP1 PUSH1 0x40 ADD PUSH1 0x40 MSTORE DUP1 PUSH1 0xA DUP2 MSTORE PUSH1 0x20 ADD PUSH32 0x537570657241646D696E00000000000000000000000000000000000000000000 DUP2 MSTORE POP PUSH1 0x3 PUSH0 SWAP1 SLOAD SWAP1 PUSH2 0x100 EXP SWAP1 DIV PUSH20 0xFFFFFFFFFFFFFFFFFFFFFFFFFFFFFFFFFFFFFFFF AND PUSH2 0x3320 JUMP JUMPDEST PUSH2 0x15F1 PUSH32 0xA49807205CE4D355092EF5A8A18F56E8913CF4A201FBE287825B095693C21775 CALLER PUSH2 0x27A2 JUMP JUMPDEST DUP1 PUSH2 0x1604 JUMPI POP PUSH2 0x1603 PUSH0 DUP1 SHL CALLER PUSH2 0x27A2 JUMP JUMPDEST JUMPDEST PUSH2 0x1643 JUMPI PUSH1 0x40 MLOAD PUSH32 0x8C379A000000000000000000000000000000000000000000000000000000000 DUP2 MSTORE PUSH1 0x4 ADD PUSH2 0x163A SWAP1 PUSH2 0x3E55 JUMP JUMPDEST PUSH1 0x40 MLOAD DUP1 SWAP2 SUB SWAP1 REVERT JUMPDEST DUP2 DUP2 SWAP1 POP DUP5 DUP5 SWAP1 POP EQ PUSH2 0x168B JUMPI PUSH1 0x40 MLOAD PUSH32 0x8C379A000000000000000000000000000000000000000000000000000000000 DUP2 MSTORE PUSH1 0x4 ADD PUSH2 0x1682 SWAP1 PUSH2 0x40AA JUMP JUMPDEST PUSH1 0x40 MLOAD DUP1 SWAP2 SUB SWAP1 REVERT JUMPDEST PUSH0 JUMPDEST DUP5 DUP5 SWAP1 POP DUP2 LT ISZERO PUSH2 0x1948 JUMPI PUSH0 DUP6 DUP6 DUP4 DUP2 DUP2 LT PUSH2 0x16AC JUMPI PUSH2 0x16AB PUSH2 0x40C8 JUMP JUMPDEST JUMPDEST SWAP1 POP PUSH1 0x20 MUL ADD PUSH1 0x20 DUP2 ADD SWAP1 PUSH2 0x16C1 SWAP2 SWAP1 PUSH2 0x3C38 JUMP JUMPDEST SWAP1 POP PUSH0 DUP5 DUP5 DUP5 DUP2 DUP2 LT PUSH2 0x16D7 JUMPI PUSH2 0x16D6 PUSH2 0x40C8 JUMP JUMPDEST JUMPDEST SWAP1 POP PUSH1 0x20 MUL ADD CALLDATALOAD SWAP1 POP PUSH1 0x1 PUSH1 0xE PUSH0 DUP5 PUSH20 0xFFFFFFFFFFFFFFFFFFFFFFFFFFFFFFFFFFFFFFFF AND PUSH20 0xFFFFFFFFFFFFFFFFFFFFFFFFFFFFFFFFFFFFFFFF AND DUP2 MSTORE PUSH1 0x20 ADD SWAP1 DUP2 MSTORE PUSH1 0x20 ADD PUSH0 KECCAK256 PUSH0 PUSH2 0x100 EXP DUP2 SLOAD DUP2 PUSH1 0xFF MUL NOT AND SWAP1 DUP4 ISZERO ISZERO MUL OR SWAP1 SSTORE POP PUSH32 0xF93F9A76C1BF3444D22400A00CB9FE990E6ABE9DBB333FDA48859CFEE864543D DUP3 PUSH1 0x1 PUSH1 0x40 MLOAD PUSH2 0x1767 SWAP3 SWAP2 SWAP1 PUSH2 0x3E73 JUMP JUMPDEST PUSH1 0x40 MLOAD DUP1 SWAP2 SUB SWAP1 LOG1 PUSH0 DUP2 GT ISZERO PUSH2 0x1939 JUMPI PUSH2 0x17C7 DUP2 PUSH1 0xD PUSH0 DUP6 PUSH20 0xFFFFFFFFFFFFFFFFFFFFFFFFFFFFFFFFFFFFFFFF AND PUSH20 0xFFFFFFFFFFFFFFFFFFFFFFFFFFFFFFFFFFFFFFFF AND DUP2 MSTORE PUSH1 0x20 ADD SWAP1 DUP2 MSTORE PUSH1 0x20 ADD PUSH0 KECCAK256 SLOAD PUSH2 0x35B3 SWAP1 SWAP2 SWAP1 PUSH4 0xFFFFFFFF AND JUMP JUMPDEST PUSH1 0xD PUSH0 DUP5 PUSH20 0xFFFFFFFFFFFFFFFFFFFFFFFFFFFFFFFFFFFFFFFF AND PUSH20 0xFFFFFFFFFFFFFFFFFFFFFFFFFFFFFFFFFFFFFFFF AND DUP2 MSTORE PUSH1 0x20 ADD SWAP1 DUP2 MSTORE PUSH1 0x20 ADD PUSH0 KECCAK256 DUP2 SWAP1 SSTORE POP PUSH2 0x181D DUP2 PUSH1 0x5 SLOAD PUSH2 0x35B3 SWAP1 SWAP2 SWAP1 PUSH4 0xFFFFFFFF AND JUMP JUMPDEST PUSH1 0x5 DUP2 SWAP1 SSTORE POP PUSH1 0xB PUSH0 DUP2 SLOAD DUP1 SWAP3 SWAP2 SWAP1 PUSH2 0x1835 SWAP1 PUSH2 0x4122 JUMP JUMPDEST SWAP2 SWAP1 POP SSTORE POP PUSH2 0x1843 DUP3 PUSH2 0x35C8 JUMP JUMPDEST PUSH2 0x18A8 JUMPI PUSH1 0xC DUP3 SWAP1 DUP1 PUSH1 0x1 DUP2 SLOAD ADD DUP1 DUP3 SSTORE DUP1 SWAP2 POP POP PUSH1 0x1 SWAP1 SUB SWAP1 PUSH0 MSTORE PUSH1 0x20 PUSH0 KECCAK256 ADD PUSH0 SWAP1 SWAP2 SWAP1 SWAP2 SWAP1 SWAP2 PUSH2 0x100 EXP DUP2 SLOAD DUP2 PUSH20 0xFFFFFFFFFFFFFFFFFFFFFFFFFFFFFFFFFFFFFFFF MUL NOT AND SWAP1 DUP4 PUSH20 0xFFFFFFFFFFFFFFFFFFFFFFFFFFFFFFFFFFFFFFFF AND MUL OR SWAP1 SSTORE POP JUMPDEST DUP7 DUP7 DUP5 DUP2 DUP2 LT PUSH2 0x18BB JUMPI PUSH2 0x18BA PUSH2 0x40C8 JUMP JUMPDEST JUMPDEST SWAP1 POP PUSH1 0x20 MUL ADD PUSH1 0x20 DUP2 ADD SWAP1 PUSH2 0x18D0 SWAP2 SWAP1 PUSH2 0x3C38 JUMP JUMPDEST PUSH20 0xFFFFFFFFFFFFFFFFFFFFFFFFFFFFFFFFFFFFFFFF AND PUSH32 0x1D5D67670FD52E22078BBAB523A5EAD8206C7991225DD63095E3D3D6B5BE3BAF DUP7 DUP7 DUP7 DUP2 DUP2 LT PUSH2 0x191A JUMPI PUSH2 0x1919 PUSH2 0x40C8 JUMP JUMPDEST JUMPDEST SWAP1 POP PUSH1 0x20 MUL ADD CALLDATALOAD TIMESTAMP PUSH1 0x40 MLOAD PUSH2 0x1930 SWAP3 SWAP2 SWAP1 PUSH2 0x4169 JUMP JUMPDEST PUSH1 0x40 MLOAD DUP1 SWAP2 SUB SWAP1 LOG2 JUMPDEST POP POP DUP1 DUP1 PUSH1 0x1 ADD SWAP2 POP POP PUSH2 0x168D JUMP JUMPDEST POP POP POP POP POP JUMP JUMPDEST PUSH2 0x19AF PUSH1 0x40 MLOAD DUP1 PUSH1 0x40 ADD PUSH1 0x40 MSTORE DUP1 PUSH1 0x10 DUP2 MSTORE PUSH1 0x20 ADD PUSH32 0x436F6E74726163742043726561746F7200000000000000000000000000000000 DUP2 MSTORE POP PUSH1 0x4 PUSH0 SWAP1 SLOAD SWAP1 PUSH2 0x100 EXP SWAP1 DIV PUSH20 0xFFFFFFFFFFFFFFFFFFFFFFFFFFFFFFFFFFFFFFFF AND PUSH2 0x3320 JUMP JUMPDEST PUSH2 0x1A0F PUSH1 0x40 MLOAD DUP1 PUSH1 0x40 ADD PUSH1 0x40 MSTORE DUP1 PUSH1 0xA DUP2 MSTORE PUSH1 0x20 ADD PUSH32 0x537570657241646D696E00000000000000000000000000000000000000000000 DUP2 MSTORE POP PUSH1 0x3 PUSH0 SWAP1 SLOAD SWAP1 PUSH2 0x100 EXP SWAP1 DIV PUSH20 0xFFFFFFFFFFFFFFFFFFFFFFFFFFFFFFFFFFFFFFFF AND PUSH2 0x3320 JUMP JUMPDEST PUSH2 0x1A39 PUSH32 0xA49807205CE4D355092EF5A8A18F56E8913CF4A201FBE287825B095693C21775 CALLER PUSH2 0x27A2 JUMP JUMPDEST DUP1 PUSH2 0x1A4C JUMPI POP PUSH2 0x1A4B PUSH0 DUP1 SHL CALLER PUSH2 0x27A2 JUMP JUMPDEST JUMPDEST PUSH2 0x1A8B JUMPI PUSH1 0x40 MLOAD PUSH32 0x8C379A000000000000000000000000000000000000000000000000000000000 DUP2 MSTORE PUSH1 0x4 ADD PUSH2 0x1A82 SWAP1 PUSH2 0x3E55 JUMP JUMPDEST PUSH1 0x40 MLOAD DUP1 SWAP2 SUB SWAP1 REVERT JUMPDEST PUSH0 PUSH1 0xE PUSH0 DUP4 PUSH20 0xFFFFFFFFFFFFFFFFFFFFFFFFFFFFFFFFFFFFFFFF AND PUSH20 0xFFFFFFFFFFFFFFFFFFFFFFFFFFFFFFFFFFFFFFFF AND DUP2 MSTORE PUSH1 0x20 ADD SWAP1 DUP2 MSTORE PUSH1 0x20 ADD PUSH0 KECCAK256 PUSH0 PUSH2 0x100 EXP DUP2 SLOAD DUP2 PUSH1 0xFF MUL NOT AND SWAP1 DUP4 ISZERO ISZERO MUL OR SWAP1 SSTORE POP PUSH32 0xF93F9A76C1BF3444D22400A00CB9FE990E6ABE9DBB333FDA48859CFEE864543D DUP2 PUSH0 PUSH1 0x40 MLOAD PUSH2 0x1B10 SWAP3 SWAP2 SWAP1 PUSH2 0x3E73 JUMP JUMPDEST PUSH1 0x40 MLOAD DUP1 SWAP2 SUB SWAP1 LOG1 POP JUMP JUMPDEST PUSH2 0x1B23 PUSH2 0x366A JUMP JUMPDEST PUSH1 0x1 PUSH1 0xA PUSH1 0x1 PUSH2 0x100 EXP DUP2 SLOAD DUP2 PUSH1 0xFF MUL NOT AND SWAP1 DUP4 ISZERO ISZERO MUL OR SWAP1 SSTORE POP PUSH1 0x4 PUSH0 SWAP1 SLOAD SWAP1 PUSH2 0x100 EXP SWAP1 DIV PUSH20 0xFFFFFFFFFFFFFFFFFFFFFFFFFFFFFFFFFFFFFFFF AND PUSH20 0xFFFFFFFFFFFFFFFFFFFFFFFFFFFFFFFFFFFFFFFF AND CALLER PUSH20 0xFFFFFFFFFFFFFFFFFFFFFFFFFFFFFFFFFFFFFFFF AND EQ DUP1 PUSH2 0x1BE5 JUMPI POP PUSH1 0x3 PUSH0 SWAP1 SLOAD SWAP1 PUSH2 0x100 EXP SWAP1 DIV PUSH20 0xFFFFFFFFFFFFFFFFFFFFFFFFFFFFFFFFFFFFFFFF AND PUSH20 0xFFFFFFFFFFFFFFFFFFFFFFFFFFFFFFFFFFFFFFFF AND CALLER PUSH20 0xFFFFFFFFFFFFFFFFFFFFFFFFFFFFFFFFFFFFFFFF AND EQ JUMPDEST PUSH2 0x1C24 JUMPI PUSH1 0x40 MLOAD PUSH32 0x8C379A000000000000000000000000000000000000000000000000000000000 DUP2 MSTORE PUSH1 0x4 ADD PUSH2 0x1C1B SWAP1 PUSH2 0x3EE4 JUMP JUMPDEST PUSH1 0x40 MLOAD DUP1 SWAP2 SUB SWAP1 REVERT JUMPDEST PUSH1 0xA PUSH1 0x1 SWAP1 SLOAD SWAP1 PUSH2 0x100 EXP SWAP1 DIV PUSH1 0xFF AND PUSH2 0x1C73 JUMPI PUSH1 0x40 MLOAD PUSH32 0x8C379A000000000000000000000000000000000000000000000000000000000 DUP2 MSTORE PUSH1 0x4 ADD PUSH2 0x1C6A SWAP1 PUSH2 0x41DA JUMP JUMPDEST PUSH1 0x40 MLOAD DUP1 SWAP2 SUB SWAP1 REVERT JUMPDEST PUSH0 PUSH1 0x5 SLOAD GT DUP1 ISZERO PUSH2 0x1C85 JUMPI POP PUSH0 PUSH1 0xB SLOAD GT JUMPDEST PUSH2 0x1CC4 JUMPI PUSH1 0x40 MLOAD PUSH32 0x8C379A000000000000000000000000000000000000000000000000000000000 DUP2 MSTORE PUSH1 0x4 ADD PUSH2 0x1CBB SWAP1 PUSH2 0x3F72 JUMP JUMPDEST PUSH1 0x40 MLOAD DUP1 SWAP2 SUB SWAP1 REVERT JUMPDEST PUSH0 DUP1 PUSH1 0xF PUSH0 SWAP1 SLOAD SWAP1 PUSH2 0x100 EXP SWAP1 DIV PUSH1 0xFF AND DUP1 ISZERO PUSH2 0x1CE3 JUMPI POP PUSH0 PUSH1 0x7 SLOAD EQ ISZERO JUMPDEST ISZERO PUSH2 0x256B JUMPI PUSH1 0x7 SLOAD PUSH1 0x5 SLOAD LT ISZERO PUSH2 0x1EB8 JUMPI PUSH2 0x1D1E PUSH1 0x64 PUSH2 0x1D10 PUSH1 0x6 SLOAD PUSH1 0x5 SLOAD PUSH2 0x36B9 SWAP1 SWAP2 SWAP1 PUSH4 0xFFFFFFFF AND JUMP JUMPDEST PUSH2 0x36CE SWAP1 SWAP2 SWAP1 PUSH4 0xFFFFFFFF AND JUMP JUMPDEST SWAP2 POP PUSH2 0x1D35 DUP3 PUSH1 0x5 SLOAD PUSH2 0x36E3 SWAP1 SWAP2 SWAP1 PUSH4 0xFFFFFFFF AND JUMP JUMPDEST SWAP1 POP PUSH1 0x2 PUSH0 SWAP1 SLOAD SWAP1 PUSH2 0x100 EXP SWAP1 DIV PUSH20 0xFFFFFFFFFFFFFFFFFFFFFFFFFFFFFFFFFFFFFFFF AND PUSH20 0xFFFFFFFFFFFFFFFFFFFFFFFFFFFFFFFFFFFFFFFF AND PUSH4 0xA9059CBB PUSH1 0x4 PUSH0 SWAP1 SLOAD SWAP1 PUSH2 0x100 EXP SWAP1 DIV PUSH20 0xFFFFFFFFFFFFFFFFFFFFFFFFFFFFFFFFFFFFFFFF AND DUP4 PUSH1 0x40 MLOAD DUP4 PUSH4 0xFFFFFFFF AND PUSH1 0xE0 SHL DUP2 MSTORE PUSH1 0x4 ADD PUSH2 0x1DB4 SWAP3 SWAP2 SWAP1 PUSH2 0x41F8 JUMP JUMPDEST PUSH1 0x20 PUSH1 0x40 MLOAD DUP1 DUP4 SUB DUP2 PUSH0 DUP8 GAS CALL ISZERO DUP1 ISZERO PUSH2 0x1DD0 JUMPI RETURNDATASIZE PUSH0 DUP1 RETURNDATACOPY RETURNDATASIZE PUSH0 REVERT JUMPDEST POP POP POP POP PUSH1 0x40 MLOAD RETURNDATASIZE PUSH1 0x1F NOT PUSH1 0x1F DUP3 ADD AND DUP3 ADD DUP1 PUSH1 0x40 MSTORE POP DUP2 ADD SWAP1 PUSH2 0x1DF4 SWAP2 SWAP1 PUSH2 0x4249 JUMP JUMPDEST POP PUSH1 0x2 PUSH0 SWAP1 SLOAD SWAP1 PUSH2 0x100 EXP SWAP1 DIV PUSH20 0xFFFFFFFFFFFFFFFFFFFFFFFFFFFFFFFFFFFFFFFF AND PUSH20 0xFFFFFFFFFFFFFFFFFFFFFFFFFFFFFFFFFFFFFFFF AND PUSH4 0xA9059CBB PUSH1 0x3 PUSH0 SWAP1 SLOAD SWAP1 PUSH2 0x100 EXP SWAP1 DIV PUSH20 0xFFFFFFFFFFFFFFFFFFFFFFFFFFFFFFFFFFFFFFFF AND DUP5 PUSH1 0x40 MLOAD DUP4 PUSH4 0xFFFFFFFF AND PUSH1 0xE0 SHL DUP2 MSTORE PUSH1 0x4 ADD PUSH2 0x1E72 SWAP3 SWAP2 SWAP1 PUSH2 0x41F8 JUMP JUMPDEST PUSH1 0x20 PUSH1 0x40 MLOAD DUP1 DUP4 SUB DUP2 PUSH0 DUP8 GAS CALL ISZERO DUP1 ISZERO PUSH2 0x1E8E JUMPI RETURNDATASIZE PUSH0 DUP1 RETURNDATACOPY RETURNDATASIZE PUSH0 REVERT JUMPDEST POP POP POP POP PUSH1 0x40 MLOAD RETURNDATASIZE PUSH1 0x1F NOT PUSH1 0x1F DUP3 ADD AND DUP3 ADD DUP1 PUSH1 0x40 MSTORE POP DUP2 ADD SWAP1 PUSH2 0x1EB2 SWAP2 SWAP1 PUSH2 0x4249 JUMP JUMPDEST POP PUSH2 0x2566 JUMP JUMPDEST PUSH1 0x7 SLOAD PUSH1 0x5 SLOAD GT ISZERO PUSH2 0x2399 JUMPI PUSH2 0x1F02 PUSH1 0x40 MLOAD DUP1 PUSH1 0x40 ADD PUSH1 0x40 MSTORE DUP1 PUSH1 0x1A DUP2 MSTORE PUSH1 0x20 ADD PUSH32 0x5768656E20746F74616C526173696564203E2068617264436170000000000000 DUP2 MSTORE POP PUSH2 0x36F8 JUMP JUMPDEST PUSH2 0x1F2C PUSH1 0x64 PUSH2 0x1F1E PUSH1 0x6 SLOAD PUSH1 0x7 SLOAD PUSH2 0x36B9 SWAP1 SWAP2 SWAP1 PUSH4 0xFFFFFFFF AND JUMP JUMPDEST PUSH2 0x36CE SWAP1 SWAP2 SWAP1 PUSH4 0xFFFFFFFF AND JUMP JUMPDEST SWAP2 POP PUSH2 0x1F43 DUP3 PUSH1 0x7 SLOAD PUSH2 0x36E3 SWAP1 SWAP2 SWAP1 PUSH4 0xFFFFFFFF AND JUMP JUMPDEST SWAP1 POP PUSH1 0x2 PUSH0 SWAP1 SLOAD SWAP1 PUSH2 0x100 EXP SWAP1 DIV PUSH20 0xFFFFFFFFFFFFFFFFFFFFFFFFFFFFFFFFFFFFFFFF AND PUSH20 0xFFFFFFFFFFFFFFFFFFFFFFFFFFFFFFFFFFFFFFFF AND PUSH4 0xA9059CBB PUSH1 0x4 PUSH0 SWAP1 SLOAD SWAP1 PUSH2 0x100 EXP SWAP1 DIV PUSH20 0xFFFFFFFFFFFFFFFFFFFFFFFFFFFFFFFFFFFFFFFF AND DUP4 PUSH1 0x40 MLOAD DUP4 PUSH4 0xFFFFFFFF AND PUSH1 0xE0 SHL DUP2 MSTORE PUSH1 0x4 ADD PUSH2 0x1FC2 SWAP3 SWAP2 SWAP1 PUSH2 0x41F8 JUMP JUMPDEST PUSH1 0x20 PUSH1 0x40 MLOAD DUP1 DUP4 SUB DUP2 PUSH0 DUP8 GAS CALL ISZERO DUP1 ISZERO PUSH2 0x1FDE JUMPI RETURNDATASIZE PUSH0 DUP1 RETURNDATACOPY RETURNDATASIZE PUSH0 REVERT JUMPDEST POP POP POP POP PUSH1 0x40 MLOAD RETURNDATASIZE PUSH1 0x1F NOT PUSH1 0x1F DUP3 ADD AND DUP3 ADD DUP1 PUSH1 0x40 MSTORE POP DUP2 ADD SWAP1 PUSH2 0x2002 SWAP2 SWAP1 PUSH2 0x4249 JUMP JUMPDEST POP PUSH1 0x2 PUSH0 SWAP1 SLOAD SWAP1 PUSH2 0x100 EXP SWAP1 DIV PUSH20 0xFFFFFFFFFFFFFFFFFFFFFFFFFFFFFFFFFFFFFFFF AND PUSH20 0xFFFFFFFFFFFFFFFFFFFFFFFFFFFFFFFFFFFFFFFF AND PUSH4 0xA9059CBB PUSH1 0x3 PUSH0 SWAP1 SLOAD SWAP1 PUSH2 0x100 EXP SWAP1 DIV PUSH20 0xFFFFFFFFFFFFFFFFFFFFFFFFFFFFFFFFFFFFFFFF AND DUP5 PUSH1 0x40 MLOAD DUP4 PUSH4 0xFFFFFFFF AND PUSH1 0xE0 SHL DUP2 MSTORE PUSH1 0x4 ADD PUSH2 0x2080 SWAP3 SWAP2 SWAP1 PUSH2 0x41F8 JUMP JUMPDEST PUSH1 0x20 PUSH1 0x40 MLOAD DUP1 DUP4 SUB DUP2 PUSH0 DUP8 GAS CALL ISZERO DUP1 ISZERO PUSH2 0x209C JUMPI RETURNDATASIZE PUSH0 DUP1 RETURNDATACOPY RETURNDATASIZE PUSH0 REVERT JUMPDEST POP POP POP POP PUSH1 0x40 MLOAD RETURNDATASIZE PUSH1 0x1F NOT PUSH1 0x1F DUP3 ADD AND DUP3 ADD DUP1 PUSH1 0x40 MSTORE POP DUP2 ADD SWAP1 PUSH2 0x20C0 SWAP2 SWAP1 PUSH2 0x4249 JUMP JUMPDEST POP PUSH0 PUSH2 0x20ED PUSH1 0xB SLOAD PUSH2 0x20DF PUSH1 0x7 SLOAD PUSH1 0x5 SLOAD PUSH2 0x36E3 SWAP1 SWAP2 SWAP1 PUSH4 0xFFFFFFFF AND JUMP JUMPDEST PUSH2 0x36CE SWAP1 SWAP2 SWAP1 PUSH4 0xFFFFFFFF AND JUMP JUMPDEST SWAP1 POP PUSH2 0x212D PUSH1 0x40 MLOAD DUP1 PUSH1 0x40 ADD PUSH1 0x40 MSTORE DUP1 PUSH1 0x1A DUP2 MSTORE PUSH1 0x20 ADD PUSH32 0x436865636B696E6720657665727920636F6E7472696275746F72000000000000 DUP2 MSTORE POP PUSH2 0x36F8 JUMP JUMPDEST PUSH0 JUMPDEST PUSH1 0xB SLOAD DUP2 LT ISZERO PUSH2 0x2392 JUMPI PUSH0 PUSH1 0xC DUP3 DUP2 SLOAD DUP2 LT PUSH2 0x214E JUMPI PUSH2 0x214D PUSH2 0x40C8 JUMP JUMPDEST JUMPDEST SWAP1 PUSH0 MSTORE PUSH1 0x20 PUSH0 KECCAK256 ADD PUSH0 SWAP1 SLOAD SWAP1 PUSH2 0x100 EXP SWAP1 DIV PUSH20 0xFFFFFFFFFFFFFFFFFFFFFFFFFFFFFFFFFFFFFFFF AND SWAP1 POP PUSH2 0x21B7 PUSH1 0x40 MLOAD DUP1 PUSH1 0x40 ADD PUSH1 0x40 MSTORE DUP1 PUSH1 0x10 DUP2 MSTORE PUSH1 0x20 ADD PUSH32 0x636F6E7472696275746F72206C69737400000000000000000000000000000000 DUP2 MSTORE POP DUP3 PUSH2 0x3320 JUMP JUMPDEST PUSH0 PUSH1 0xD PUSH0 DUP4 PUSH20 0xFFFFFFFFFFFFFFFFFFFFFFFFFFFFFFFFFFFFFFFF AND PUSH20 0xFFFFFFFFFFFFFFFFFFFFFFFFFFFFFFFFFFFFFFFF AND DUP2 MSTORE PUSH1 0x20 ADD SWAP1 DUP2 MSTORE PUSH1 0x20 ADD PUSH0 KECCAK256 SLOAD SWAP1 POP DUP4 DUP2 GT ISZERO PUSH2 0x2344 JUMPI PUSH0 PUSH20 0xFFFFFFFFFFFFFFFFFFFFFFFFFFFFFFFFFFFFFFFF AND DUP3 PUSH20 0xFFFFFFFFFFFFFFFFFFFFFFFFFFFFFFFFFFFFFFFF AND EQ ISZERO DUP1 PUSH2 0x2267 JUMPI POP PUSH0 PUSH20 0xFFFFFFFFFFFFFFFFFFFFFFFFFFFFFFFFFFFFFFFF AND DUP3 PUSH20 0xFFFFFFFFFFFFFFFFFFFFFFFFFFFFFFFFFFFFFFFF AND EQ ISZERO JUMPDEST PUSH2 0x22A6 JUMPI PUSH1 0x40 MLOAD PUSH32 0x8C379A000000000000000000000000000000000000000000000000000000000 DUP2 MSTORE PUSH1 0x4 ADD PUSH2 0x229D SWAP1 PUSH2 0x42BE JUMP JUMPDEST PUSH1 0x40 MLOAD DUP1 SWAP2 SUB SWAP1 REVERT JUMPDEST PUSH1 0x2 PUSH0 SWAP1 SLOAD SWAP1 PUSH2 0x100 EXP SWAP1 DIV PUSH20 0xFFFFFFFFFFFFFFFFFFFFFFFFFFFFFFFFFFFFFFFF AND PUSH20 0xFFFFFFFFFFFFFFFFFFFFFFFFFFFFFFFFFFFFFFFF AND PUSH4 0xA9059CBB DUP4 DUP7 PUSH1 0x40 MLOAD DUP4 PUSH4 0xFFFFFFFF AND PUSH1 0xE0 SHL DUP2 MSTORE PUSH1 0x4 ADD PUSH2 0x2302 SWAP3 SWAP2 SWAP1 PUSH2 0x41F8 JUMP JUMPDEST PUSH1 0x20 PUSH1 0x40 MLOAD DUP1 DUP4 SUB DUP2 PUSH0 DUP8 GAS CALL ISZERO DUP1 ISZERO PUSH2 0x231E JUMPI RETURNDATASIZE PUSH0 DUP1 RETURNDATACOPY RETURNDATASIZE PUSH0 REVERT JUMPDEST POP POP POP POP PUSH1 0x40 MLOAD RETURNDATASIZE PUSH1 0x1F NOT PUSH1 0x1F DUP3 ADD AND DUP3 ADD DUP1 PUSH1 0x40 MSTORE POP DUP2 ADD SWAP1 PUSH2 0x2342 SWAP2 SWAP1 PUSH2 0x4249 JUMP JUMPDEST POP JUMPDEST PUSH2 0x2383 PUSH1 0x40 MLOAD DUP1 PUSH1 0x40 ADD PUSH1 0x40 MSTORE DUP1 PUSH1 0xD DUP2 MSTORE PUSH1 0x20 ADD PUSH32 0x72657475726E20416D6F756E7400000000000000000000000000000000000000 DUP2 MSTORE POP DUP6 PUSH2 0x3791 JUMP JUMPDEST POP POP DUP1 DUP1 PUSH1 0x1 ADD SWAP2 POP POP PUSH2 0x212F JUMP JUMPDEST POP POP PUSH2 0x2565 JUMP JUMPDEST PUSH1 0x7 SLOAD PUSH1 0x5 SLOAD SUB PUSH2 0x2564 JUMPI PUSH2 0x23CE PUSH1 0x64 PUSH2 0x23C0 PUSH1 0x6 SLOAD PUSH1 0x7 SLOAD PUSH2 0x36B9 SWAP1 SWAP2 SWAP1 PUSH4 0xFFFFFFFF AND JUMP JUMPDEST PUSH2 0x36CE SWAP1 SWAP2 SWAP1 PUSH4 0xFFFFFFFF AND JUMP JUMPDEST SWAP2 POP PUSH2 0x23E5 DUP3 PUSH1 0x7 SLOAD PUSH2 0x36E3 SWAP1 SWAP2 SWAP1 PUSH4 0xFFFFFFFF AND JUMP JUMPDEST SWAP1 POP PUSH1 0x2 PUSH0 SWAP1 SLOAD SWAP1 PUSH2 0x100 EXP SWAP1 DIV PUSH20 0xFFFFFFFFFFFFFFFFFFFFFFFFFFFFFFFFFFFFFFFF AND PUSH20 0xFFFFFFFFFFFFFFFFFFFFFFFFFFFFFFFFFFFFFFFF AND PUSH4 0xA9059CBB PUSH1 0x4 PUSH0 SWAP1 SLOAD SWAP1 PUSH2 0x100 EXP SWAP1 DIV PUSH20 0xFFFFFFFFFFFFFFFFFFFFFFFFFFFFFFFFFFFFFFFF AND DUP4 PUSH1 0x40 MLOAD DUP4 PUSH4 0xFFFFFFFF AND PUSH1 0xE0 SHL DUP2 MSTORE PUSH1 0x4 ADD PUSH2 0x2464 SWAP3 SWAP2 SWAP1 PUSH2 0x41F8 JUMP JUMPDEST PUSH1 0x20 PUSH1 0x40 MLOAD DUP1 DUP4 SUB DUP2 PUSH0 DUP8 GAS CALL ISZERO DUP1 ISZERO PUSH2 0x2480 JUMPI RETURNDATASIZE PUSH0 DUP1 RETURNDATACOPY RETURNDATASIZE PUSH0 REVERT JUMPDEST POP POP POP POP PUSH1 0x40 MLOAD RETURNDATASIZE PUSH1 0x1F NOT PUSH1 0x1F DUP3 ADD AND DUP3 ADD DUP1 PUSH1 0x40 MSTORE POP DUP2 ADD SWAP1 PUSH2 0x24A4 SWAP2 SWAP1 PUSH2 0x4249 JUMP JUMPDEST POP PUSH1 0x2 PUSH0 SWAP1 SLOAD SWAP1 PUSH2 0x100 EXP SWAP1 DIV PUSH20 0xFFFFFFFFFFFFFFFFFFFFFFFFFFFFFFFFFFFFFFFF AND PUSH20 0xFFFFFFFFFFFFFFFFFFFFFFFFFFFFFFFFFFFFFFFF AND PUSH4 0xA9059CBB PUSH1 0x3 PUSH0 SWAP1 SLOAD SWAP1 PUSH2 0x100 EXP SWAP1 DIV PUSH20 0xFFFFFFFFFFFFFFFFFFFFFFFFFFFFFFFFFFFFFFFF AND DUP5 PUSH1 0x40 MLOAD DUP4 PUSH4 0xFFFFFFFF AND PUSH1 0xE0 SHL DUP2 MSTORE PUSH1 0x4 ADD PUSH2 0x2522 SWAP3 SWAP2 SWAP1 PUSH2 0x41F8 JUMP JUMPDEST PUSH1 0x20 PUSH1 0x40 MLOAD DUP1 DUP4 SUB DUP2 PUSH0 DUP8 GAS CALL ISZERO DUP1 ISZERO PUSH2 0x253E JUMPI RETURNDATASIZE PUSH0 DUP1 RETURNDATACOPY RETURNDATASIZE PUSH0 REVERT JUMPDEST POP POP POP POP PUSH1 0x40 MLOAD RETURNDATASIZE PUSH1 0x1F NOT PUSH1 0x1F DUP3 ADD AND DUP3 ADD DUP1 PUSH1 0x40 MSTORE POP DUP2 ADD SWAP1 PUSH2 0x2562 SWAP2 SWAP1 PUSH2 0x4249 JUMP JUMPDEST POP JUMPDEST JUMPDEST JUMPDEST PUSH2 0x274E JUMP JUMPDEST PUSH1 0xF PUSH0 SWAP1 SLOAD SWAP1 PUSH2 0x100 EXP SWAP1 DIV PUSH1 0xFF AND ISZERO DUP1 ISZERO PUSH2 0x2588 JUMPI POP PUSH0 PUSH1 0x7 SLOAD EQ JUMPDEST ISZERO PUSH2 0x274D JUMPI PUSH2 0x25B7 PUSH1 0x64 PUSH2 0x25A9 PUSH1 0x6 SLOAD PUSH1 0x5 SLOAD PUSH2 0x36B9 SWAP1 SWAP2 SWAP1 PUSH4 0xFFFFFFFF AND JUMP JUMPDEST PUSH2 0x36CE SWAP1 SWAP2 SWAP1 PUSH4 0xFFFFFFFF AND JUMP JUMPDEST SWAP2 POP PUSH2 0x25CE DUP3 PUSH1 0x5 SLOAD PUSH2 0x36E3 SWAP1 SWAP2 SWAP1 PUSH4 0xFFFFFFFF AND JUMP JUMPDEST SWAP1 POP PUSH1 0x2 PUSH0 SWAP1 SLOAD SWAP1 PUSH2 0x100 EXP SWAP1 DIV PUSH20 0xFFFFFFFFFFFFFFFFFFFFFFFFFFFFFFFFFFFFFFFF AND PUSH20 0xFFFFFFFFFFFFFFFFFFFFFFFFFFFFFFFFFFFFFFFF AND PUSH4 0xA9059CBB PUSH1 0x4 PUSH0 SWAP1 SLOAD SWAP1 PUSH2 0x100 EXP SWAP1 DIV PUSH20 0xFFFFFFFFFFFFFFFFFFFFFFFFFFFFFFFFFFFFFFFF AND DUP4 PUSH1 0x40 MLOAD DUP4 PUSH4 0xFFFFFFFF AND PUSH1 0xE0 SHL DUP2 MSTORE PUSH1 0x4 ADD PUSH2 0x264D SWAP3 SWAP2 SWAP1 PUSH2 0x41F8 JUMP JUMPDEST PUSH1 0x20 PUSH1 0x40 MLOAD DUP1 DUP4 SUB DUP2 PUSH0 DUP8 GAS CALL ISZERO DUP1 ISZERO PUSH2 0x2669 JUMPI RETURNDATASIZE PUSH0 DUP1 RETURNDATACOPY RETURNDATASIZE PUSH0 REVERT JUMPDEST POP POP POP POP PUSH1 0x40 MLOAD RETURNDATASIZE PUSH1 0x1F NOT PUSH1 0x1F DUP3 ADD AND DUP3 ADD DUP1 PUSH1 0x40 MSTORE POP DUP2 ADD SWAP1 PUSH2 0x268D SWAP2 SWAP1 PUSH2 0x4249 JUMP JUMPDEST POP PUSH1 0x2 PUSH0 SWAP1 SLOAD SWAP1 PUSH2 0x100 EXP SWAP1 DIV PUSH20 0xFFFFFFFFFFFFFFFFFFFFFFFFFFFFFFFFFFFFFFFF AND PUSH20 0xFFFFFFFFFFFFFFFFFFFFFFFFFFFFFFFFFFFFFFFF AND PUSH4 0xA9059CBB PUSH1 0x3 PUSH0 SWAP1 SLOAD SWAP1 PUSH2 0x100 EXP SWAP1 DIV PUSH20 0xFFFFFFFFFFFFFFFFFFFFFFFFFFFFFFFFFFFFFFFF AND DUP5 PUSH1 0x40 MLOAD DUP4 PUSH4 0xFFFFFFFF AND PUSH1 0xE0 SHL DUP2 MSTORE PUSH1 0x4 ADD PUSH2 0x270B SWAP3 SWAP2 SWAP1 PUSH2 0x41F8 JUMP JUMPDEST PUSH1 0x20 PUSH1 0x40 MLOAD DUP1 DUP4 SUB DUP2 PUSH0 DUP8 GAS CALL ISZERO DUP1 ISZERO PUSH2 0x2727 JUMPI RETURNDATASIZE PUSH0 DUP1 RETURNDATACOPY RETURNDATASIZE PUSH0 REVERT JUMPDEST POP POP POP POP PUSH1 0x40 MLOAD RETURNDATASIZE PUSH1 0x1F NOT PUSH1 0x1F DUP3 ADD AND DUP3 ADD DUP1 PUSH1 0x40 MSTORE POP DUP2 ADD SWAP1 PUSH2 0x274B SWAP2 SWAP1 PUSH2 0x4249 JUMP JUMPDEST POP JUMPDEST JUMPDEST PUSH0 PUSH1 0x5 DUP2 SWAP1 SSTORE POP PUSH0 PUSH1 0xB DUP2 SWAP1 SSTORE POP PUSH0 PUSH1 0xA PUSH0 PUSH2 0x100 EXP DUP2 SLOAD DUP2 PUSH1 0xFF MUL NOT AND SWAP1 DUP4 ISZERO ISZERO MUL OR SWAP1 SSTORE POP PUSH1 0x1 PUSH1 0xA PUSH1 0x1 PUSH2 0x100 EXP DUP2 SLOAD DUP2 PUSH1 0xFF MUL NOT AND SWAP1 DUP4 ISZERO ISZERO MUL OR SWAP1 SSTORE POP POP POP PUSH2 0x279A PUSH2 0x382D JUMP JUMPDEST JUMP JUMPDEST PUSH1 0x9 SLOAD DUP2 JUMP JUMPDEST PUSH0 DUP1 PUSH0 DUP5 DUP2 MSTORE PUSH1 0x20 ADD SWAP1 DUP2 MSTORE PUSH1 0x20 ADD PUSH0 KECCAK256 PUSH0 ADD PUSH0 DUP4 PUSH20 0xFFFFFFFFFFFFFFFFFFFFFFFFFFFFFFFFFFFFFFFF AND PUSH20 0xFFFFFFFFFFFFFFFFFFFFFFFFFFFFFFFFFFFFFFFF AND DUP2 MSTORE PUSH1 0x20 ADD SWAP1 DUP2 MSTORE PUSH1 0x20 ADD PUSH0 KECCAK256 PUSH0 SWAP1 SLOAD SWAP1 PUSH2 0x100 EXP SWAP1 DIV PUSH1 0xFF AND SWAP1 POP SWAP3 SWAP2 POP POP JUMP JUMPDEST PUSH1 0xE PUSH1 0x20 MSTORE DUP1 PUSH0 MSTORE PUSH1 0x40 PUSH0 KECCAK256 PUSH0 SWAP2 POP SLOAD SWAP1 PUSH2 0x100 EXP SWAP1 DIV PUSH1 0xFF AND DUP2 JUMP JUMPDEST PUSH0 DUP1 SHL DUP2 JUMP JUMPDEST PUSH1 0x2 PUSH0 SWAP1 SLOAD SWAP1 PUSH2 0x100 EXP SWAP1 DIV PUSH20 0xFFFFFFFFFFFFFFFFFFFFFFFFFFFFFFFFFFFFFFFF AND DUP2 JUMP JUMPDEST PUSH1 0x8 SLOAD DUP2 JUMP JUMPDEST PUSH2 0x28B3 PUSH1 0x40 MLOAD DUP1 PUSH1 0x40 ADD PUSH1 0x40 MSTORE DUP1 PUSH1 0x10 DUP2 MSTORE PUSH1 0x20 ADD PUSH32 0x436F6E74726163742043726561746F7200000000000000000000000000000000 DUP2 MSTORE POP PUSH1 0x4 PUSH0 SWAP1 SLOAD SWAP1 PUSH2 0x100 EXP SWAP1 DIV PUSH20 0xFFFFFFFFFFFFFFFFFFFFFFFFFFFFFFFFFFFFFFFF AND PUSH2 0x3320 JUMP JUMPDEST PUSH2 0x2913 PUSH1 0x40 MLOAD DUP1 PUSH1 0x40 ADD PUSH1 0x40 MSTORE DUP1 PUSH1 0xA DUP2 MSTORE PUSH1 0x20 ADD PUSH32 0x537570657241646D696E00000000000000000000000000000000000000000000 DUP2 MSTORE POP PUSH1 0x3 PUSH0 SWAP1 SLOAD SWAP1 PUSH2 0x100 EXP SWAP1 DIV PUSH20 0xFFFFFFFFFFFFFFFFFFFFFFFFFFFFFFFFFFFFFFFF AND PUSH2 0x3320 JUMP JUMPDEST PUSH2 0x293D PUSH32 0xA49807205CE4D355092EF5A8A18F56E8913CF4A201FBE287825B095693C21775 CALLER PUSH2 0x27A2 JUMP JUMPDEST DUP1 PUSH2 0x2950 JUMPI POP PUSH2 0x294F PUSH0 DUP1 SHL CALLER PUSH2 0x27A2 JUMP JUMPDEST JUMPDEST PUSH2 0x298F JUMPI PUSH1 0x40 MLOAD PUSH32 0x8C379A000000000000000000000000000000000000000000000000000000000 DUP2 MSTORE PUSH1 0x4 ADD PUSH2 0x2986 SWAP1 PUSH2 0x3E55 JUMP JUMPDEST PUSH1 0x40 MLOAD DUP1 SWAP2 SUB SWAP1 REVERT JUMPDEST DUP1 PUSH1 0x7 DUP2 SWAP1 SSTORE POP PUSH32 0xE65E8475AE8EBA2B732012A0734794875A0FDBDCCFED8398FFF4DA0C8E0FA00E DUP2 PUSH1 0x40 MLOAD PUSH2 0x29C5 SWAP2 SWAP1 PUSH2 0x3AF3 JUMP JUMPDEST PUSH1 0x40 MLOAD DUP1 SWAP2 SUB SWAP1 LOG1 POP JUMP JUMPDEST PUSH2 0x29D8 PUSH2 0x366A JUMP JUMPDEST PUSH1 0xA PUSH0 SWAP1 SLOAD SWAP1 PUSH2 0x100 EXP SWAP1 DIV PUSH1 0xFF AND DUP1 ISZERO PUSH2 0x2A00 JUMPI POP PUSH1 0xA PUSH1 0x1 SWAP1 SLOAD SWAP1 PUSH2 0x100 EXP SWAP1 DIV PUSH1 0xFF AND ISZERO JUMPDEST PUSH2 0x2A3F JUMPI PUSH1 0x40 MLOAD PUSH32 0x8C379A000000000000000000000000000000000000000000000000000000000 DUP2 MSTORE PUSH1 0x4 ADD PUSH2 0x2A36 SWAP1 PUSH2 0x4326 JUMP JUMPDEST PUSH1 0x40 MLOAD DUP1 SWAP2 SUB SWAP1 REVERT JUMPDEST PUSH1 0x8 SLOAD DUP2 LT ISZERO DUP1 ISZERO PUSH2 0x2A51 JUMPI POP PUSH0 DUP2 EQ ISZERO JUMPDEST DUP1 ISZERO PUSH2 0x2A5F JUMPI POP PUSH1 0x9 SLOAD DUP2 GT ISZERO JUMPDEST PUSH2 0x2A9E JUMPI PUSH1 0x40 MLOAD PUSH32 0x8C379A000000000000000000000000000000000000000000000000000000000 DUP2 MSTORE PUSH1 0x4 ADD PUSH2 0x2A95 SWAP1 PUSH2 0x43B4 JUMP JUMPDEST PUSH1 0x40 MLOAD DUP1 SWAP2 SUB SWAP1 REVERT JUMPDEST PUSH0 PUSH1 0x2 PUSH0 SWAP1 SLOAD SWAP1 PUSH2 0x100 EXP SWAP1 DIV PUSH20 0xFFFFFFFFFFFFFFFFFFFFFFFFFFFFFFFFFFFFFFFF AND PUSH20 0xFFFFFFFFFFFFFFFFFFFFFFFFFFFFFFFFFFFFFFFF AND PUSH4 0x70A08231 CALLER PUSH1 0x40 MLOAD DUP3 PUSH4 0xFFFFFFFF AND PUSH1 0xE0 SHL DUP2 MSTORE PUSH1 0x4 ADD PUSH2 0x2AF9 SWAP2 SWAP1 PUSH2 0x3ACB JUMP JUMPDEST PUSH1 0x20 PUSH1 0x40 MLOAD DUP1 DUP4 SUB DUP2 DUP7 GAS STATICCALL ISZERO DUP1 ISZERO PUSH2 0x2B14 JUMPI RETURNDATASIZE PUSH0 DUP1 RETURNDATACOPY RETURNDATASIZE PUSH0 REVERT JUMPDEST POP POP POP POP PUSH1 0x40 MLOAD RETURNDATASIZE PUSH1 0x1F NOT PUSH1 0x1F DUP3 ADD AND DUP3 ADD DUP1 PUSH1 0x40 MSTORE POP DUP2 ADD SWAP1 PUSH2 0x2B38 SWAP2 SWAP1 PUSH2 0x43E6 JUMP JUMPDEST SWAP1 POP DUP2 DUP2 LT ISZERO PUSH2 0x2B7D JUMPI PUSH1 0x40 MLOAD PUSH32 0x8C379A000000000000000000000000000000000000000000000000000000000 DUP2 MSTORE PUSH1 0x4 ADD PUSH2 0x2B74 SWAP1 PUSH2 0x4481 JUMP JUMPDEST PUSH1 0x40 MLOAD DUP1 SWAP2 SUB SWAP1 REVERT JUMPDEST PUSH0 PUSH1 0x2 PUSH0 SWAP1 SLOAD SWAP1 PUSH2 0x100 EXP SWAP1 DIV PUSH20 0xFFFFFFFFFFFFFFFFFFFFFFFFFFFFFFFFFFFFFFFF AND PUSH20 0xFFFFFFFFFFFFFFFFFFFFFFFFFFFFFFFFFFFFFFFF AND PUSH4 0xDD62ED3E CALLER ADDRESS PUSH1 0x40 MLOAD DUP4 PUSH4 0xFFFFFFFF AND PUSH1 0xE0 SHL DUP2 MSTORE PUSH1 0x4 ADD PUSH2 0x2BDA SWAP3 SWAP2 SWAP1 PUSH2 0x449F JUMP JUMPDEST PUSH1 0x20 PUSH1 0x40 MLOAD DUP1 DUP4 SUB DUP2 DUP7 GAS STATICCALL ISZERO DUP1 ISZERO PUSH2 0x2BF5 JUMPI RETURNDATASIZE PUSH0 DUP1 RETURNDATACOPY RETURNDATASIZE PUSH0 REVERT JUMPDEST POP POP POP POP PUSH1 0x40 MLOAD RETURNDATASIZE PUSH1 0x1F NOT PUSH1 0x1F DUP3 ADD AND DUP3 ADD DUP1 PUSH1 0x40 MSTORE POP DUP2 ADD SWAP1 PUSH2 0x2C19 SWAP2 SWAP1 PUSH2 0x43E6 JUMP JUMPDEST SWAP1 POP DUP3 DUP2 LT ISZERO PUSH2 0x2C5E JUMPI PUSH1 0x40 MLOAD PUSH32 0x8C379A000000000000000000000000000000000000000000000000000000000 DUP2 MSTORE PUSH1 0x4 ADD PUSH2 0x2C55 SWAP1 PUSH2 0x4536 JUMP JUMPDEST PUSH1 0x40 MLOAD DUP1 SWAP2 SUB SWAP1 REVERT JUMPDEST PUSH1 0xF PUSH0 SWAP1 SLOAD SWAP1 PUSH2 0x100 EXP SWAP1 DIV PUSH1 0xFF AND ISZERO PUSH2 0x2FE9 JUMPI PUSH1 0x1 ISZERO ISZERO PUSH1 0xE PUSH0 CALLER PUSH20 0xFFFFFFFFFFFFFFFFFFFFFFFFFFFFFFFFFFFFFFFF AND PUSH20 0xFFFFFFFFFFFFFFFFFFFFFFFFFFFFFFFFFFFFFFFF AND DUP2 MSTORE PUSH1 0x20 ADD SWAP1 DUP2 MSTORE PUSH1 0x20 ADD PUSH0 KECCAK256 PUSH0 SWAP1 SLOAD SWAP1 PUSH2 0x100 EXP SWAP1 DIV PUSH1 0xFF AND ISZERO ISZERO EQ PUSH2 0x2D02 JUMPI PUSH1 0x40 MLOAD PUSH32 0x8C379A000000000000000000000000000000000000000000000000000000000 DUP2 MSTORE PUSH1 0x4 ADD PUSH2 0x2CF9 SWAP1 PUSH2 0x459E JUMP JUMPDEST PUSH1 0x40 MLOAD DUP1 SWAP2 SUB SWAP1 REVERT JUMPDEST PUSH0 PUSH2 0x2D53 DUP5 PUSH1 0xD PUSH0 CALLER PUSH20 0xFFFFFFFFFFFFFFFFFFFFFFFFFFFFFFFFFFFFFFFF AND PUSH20 0xFFFFFFFFFFFFFFFFFFFFFFFFFFFFFFFFFFFFFFFF AND DUP2 MSTORE PUSH1 0x20 ADD SWAP1 DUP2 MSTORE PUSH1 0x20 ADD PUSH0 KECCAK256 SLOAD PUSH2 0x35B3 SWAP1 SWAP2 SWAP1 PUSH4 0xFFFFFFFF AND JUMP JUMPDEST SWAP1 POP PUSH1 0x10 PUSH0 CALLER PUSH20 0xFFFFFFFFFFFFFFFFFFFFFFFFFFFFFFFFFFFFFFFF AND PUSH20 0xFFFFFFFFFFFFFFFFFFFFFFFFFFFFFFFFFFFFFFFF AND DUP2 MSTORE PUSH1 0x20 ADD SWAP1 DUP2 MSTORE PUSH1 0x20 ADD PUSH0 KECCAK256 SLOAD DUP2 GT ISZERO PUSH2 0x2DD5 JUMPI PUSH1 0x40 MLOAD PUSH32 0x8C379A000000000000000000000000000000000000000000000000000000000 DUP2 MSTORE PUSH1 0x4 ADD PUSH2 0x2DCC SWAP1 PUSH2 0x462C JUMP JUMPDEST PUSH1 0x40 MLOAD DUP1 SWAP2 SUB SWAP1 REVERT JUMPDEST PUSH2 0x2E25 DUP5 PUSH1 0xD PUSH0 CALLER PUSH20 0xFFFFFFFFFFFFFFFFFFFFFFFFFFFFFFFFFFFFFFFF AND PUSH20 0xFFFFFFFFFFFFFFFFFFFFFFFFFFFFFFFFFFFFFFFF AND DUP2 MSTORE PUSH1 0x20 ADD SWAP1 DUP2 MSTORE PUSH1 0x20 ADD PUSH0 KECCAK256 SLOAD PUSH2 0x35B3 SWAP1 SWAP2 SWAP1 PUSH4 0xFFFFFFFF AND JUMP JUMPDEST PUSH1 0xD PUSH0 CALLER PUSH20 0xFFFFFFFFFFFFFFFFFFFFFFFFFFFFFFFFFFFFFFFF AND PUSH20 0xFFFFFFFFFFFFFFFFFFFFFFFFFFFFFFFFFFFFFFFF AND DUP2 MSTORE PUSH1 0x20 ADD SWAP1 DUP2 MSTORE PUSH1 0x20 ADD PUSH0 KECCAK256 DUP2 SWAP1 SSTORE POP PUSH2 0x2E7B DUP5 PUSH1 0x5 SLOAD PUSH2 0x35B3 SWAP1 SWAP2 SWAP1 PUSH4 0xFFFFFFFF AND JUMP JUMPDEST PUSH1 0x5 DUP2 SWAP1 SSTORE POP PUSH1 0xB PUSH0 DUP2 SLOAD DUP1 SWAP3 SWAP2 SWAP1 PUSH2 0x2E93 SWAP1 PUSH2 0x4122 JUMP JUMPDEST SWAP2 SWAP1 POP SSTORE POP PUSH1 0x2 PUSH0 SWAP1 SLOAD SWAP1 PUSH2 0x100 EXP SWAP1 DIV PUSH20 0xFFFFFFFFFFFFFFFFFFFFFFFFFFFFFFFFFFFFFFFF AND PUSH20 0xFFFFFFFFFFFFFFFFFFFFFFFFFFFFFFFFFFFFFFFF AND PUSH4 0x23B872DD CALLER ADDRESS DUP8 PUSH1 0x40 MLOAD DUP5 PUSH4 0xFFFFFFFF AND PUSH1 0xE0 SHL DUP2 MSTORE PUSH1 0x4 ADD PUSH2 0x2EF6 SWAP4 SWAP3 SWAP2 SWAP1 PUSH2 0x464A JUMP JUMPDEST PUSH1 0x20 PUSH1 0x40 MLOAD DUP1 DUP4 SUB DUP2 PUSH0 DUP8 GAS CALL ISZERO DUP1 ISZERO PUSH2 0x2F12 JUMPI RETURNDATASIZE PUSH0 DUP1 RETURNDATACOPY RETURNDATASIZE PUSH0 REVERT JUMPDEST POP POP POP POP PUSH1 0x40 MLOAD RETURNDATASIZE PUSH1 0x1F NOT PUSH1 0x1F DUP3 ADD AND DUP3 ADD DUP1 PUSH1 0x40 MSTORE POP DUP2 ADD SWAP1 PUSH2 0x2F36 SWAP2 SWAP1 PUSH2 0x4249 JUMP JUMPDEST PUSH2 0x2F75 JUMPI PUSH1 0x40 MLOAD PUSH32 0x8C379A000000000000000000000000000000000000000000000000000000000 DUP2 MSTORE PUSH1 0x4 ADD PUSH2 0x2F6C SWAP1 PUSH2 0x46C9 JUMP JUMPDEST PUSH1 0x40 MLOAD DUP1 SWAP2 SUB SWAP1 REVERT JUMPDEST PUSH2 0x2F7E CALLER PUSH2 0x35C8 JUMP JUMPDEST PUSH2 0x2FE3 JUMPI PUSH1 0xC CALLER SWAP1 DUP1 PUSH1 0x1 DUP2 SLOAD ADD DUP1 DUP3 SSTORE DUP1 SWAP2 POP POP PUSH1 0x1 SWAP1 SUB SWAP1 PUSH0 MSTORE PUSH1 0x20 PUSH0 KECCAK256 ADD PUSH0 SWAP1 SWAP2 SWAP1 SWAP2 SWAP1 SWAP2 PUSH2 0x100 EXP DUP2 SLOAD DUP2 PUSH20 0xFFFFFFFFFFFFFFFFFFFFFFFFFFFFFFFFFFFFFFFF MUL NOT AND SWAP1 DUP4 PUSH20 0xFFFFFFFFFFFFFFFFFFFFFFFFFFFFFFFFFFFFFFFF AND MUL OR SWAP1 SSTORE POP JUMPDEST POP PUSH2 0x320C JUMP JUMPDEST PUSH1 0xF PUSH0 SWAP1 SLOAD SWAP1 PUSH2 0x100 EXP SWAP1 DIV PUSH1 0xFF AND PUSH2 0x320B JUMPI PUSH2 0x304C DUP4 PUSH1 0xD PUSH0 CALLER PUSH20 0xFFFFFFFFFFFFFFFFFFFFFFFFFFFFFFFFFFFFFFFF AND PUSH20 0xFFFFFFFFFFFFFFFFFFFFFFFFFFFFFFFFFFFFFFFF AND DUP2 MSTORE PUSH1 0x20 ADD SWAP1 DUP2 MSTORE PUSH1 0x20 ADD PUSH0 KECCAK256 SLOAD PUSH2 0x35B3 SWAP1 SWAP2 SWAP1 PUSH4 0xFFFFFFFF AND JUMP JUMPDEST PUSH1 0xD PUSH0 CALLER PUSH20 0xFFFFFFFFFFFFFFFFFFFFFFFFFFFFFFFFFFFFFFFF AND PUSH20 0xFFFFFFFFFFFFFFFFFFFFFFFFFFFFFFFFFFFFFFFF AND DUP2 MSTORE PUSH1 0x20 ADD SWAP1 DUP2 MSTORE PUSH1 0x20 ADD PUSH0 KECCAK256 DUP2 SWAP1 SSTORE POP PUSH2 0x30A2 DUP4 PUSH1 0x5 SLOAD PUSH2 0x35B3 SWAP1 SWAP2 SWAP1 PUSH4 0xFFFFFFFF AND JUMP JUMPDEST PUSH1 0x5 DUP2 SWAP1 SSTORE POP PUSH1 0xB PUSH0 DUP2 SLOAD DUP1 SWAP3 SWAP2 SWAP1 PUSH2 0x30BA SWAP1 PUSH2 0x4122 JUMP JUMPDEST SWAP2 SWAP1 POP SSTORE POP PUSH1 0x2 PUSH0 SWAP1 SLOAD SWAP1 PUSH2 0x100 EXP SWAP1 DIV PUSH20 0xFFFFFFFFFFFFFFFFFFFFFFFFFFFFFFFFFFFFFFFF AND PUSH20 0xFFFFFFFFFFFFFFFFFFFFFFFFFFFFFFFFFFFFFFFF AND PUSH4 0x23B872DD CALLER ADDRESS DUP7 PUSH1 0x40 MLOAD DUP5 PUSH4 0xFFFFFFFF AND PUSH1 0xE0 SHL DUP2 MSTORE PUSH1 0x4 ADD PUSH2 0x311D SWAP4 SWAP3 SWAP2 SWAP1 PUSH2 0x464A JUMP JUMPDEST PUSH1 0x20 PUSH1 0x40 MLOAD DUP1 DUP4 SUB DUP2 PUSH0 DUP8 GAS CALL ISZERO DUP1 ISZERO PUSH2 0x3139 JUMPI RETURNDATASIZE PUSH0 DUP1 RETURNDATACOPY RETURNDATASIZE PUSH0 REVERT JUMPDEST POP POP POP POP PUSH1 0x40 MLOAD RETURNDATASIZE PUSH1 0x1F NOT PUSH1 0x1F DUP3 ADD AND DUP3 ADD DUP1 PUSH1 0x40 MSTORE POP DUP2 ADD SWAP1 PUSH2 0x315D SWAP2 SWAP1 PUSH2 0x4249 JUMP JUMPDEST PUSH2 0x319C JUMPI PUSH1 0x40 MLOAD PUSH32 0x8C379A000000000000000000000000000000000000000000000000000000000 DUP2 MSTORE PUSH1 0x4 ADD PUSH2 0x3193 SWAP1 PUSH2 0x46C9 JUMP JUMPDEST PUSH1 0x40 MLOAD DUP1 SWAP2 SUB SWAP1 REVERT JUMPDEST PUSH2 0x31A5 CALLER PUSH2 0x35C8 JUMP JUMPDEST PUSH2 0x320A JUMPI PUSH1 0xC CALLER SWAP1 DUP1 PUSH1 0x1 DUP2 SLOAD ADD DUP1 DUP3 SSTORE DUP1 SWAP2 POP POP PUSH1 0x1 SWAP1 SUB SWAP1 PUSH0 MSTORE PUSH1 0x20 PUSH0 KECCAK256 ADD PUSH0 SWAP1 SWAP2 SWAP1 SWAP2 SWAP1 SWAP2 PUSH2 0x100 EXP DUP2 SLOAD DUP2 PUSH20 0xFFFFFFFFFFFFFFFFFFFFFFFFFFFFFFFFFFFFFFFF MUL NOT AND SWAP1 DUP4 PUSH20 0xFFFFFFFFFFFFFFFFFFFFFFFFFFFFFFFFFFFFFFFF AND MUL OR SWAP1 SSTORE POP JUMPDEST JUMPDEST JUMPDEST CALLER PUSH20 0xFFFFFFFFFFFFFFFFFFFFFFFFFFFFFFFFFFFFFFFF AND PUSH32 0x1D5D67670FD52E22078BBAB523A5EAD8206C7991225DD63095E3D3D6B5BE3BAF DUP5 TIMESTAMP PUSH1 0x40 MLOAD PUSH2 0x3254 SWAP3 SWAP2 SWAP1 PUSH2 0x4169 JUMP JUMPDEST PUSH1 0x40 MLOAD DUP1 SWAP2 SUB SWAP1 LOG2 POP POP PUSH2 0x3266 PUSH2 0x382D JUMP JUMPDEST POP JUMP JUMPDEST PUSH1 0x5 SLOAD DUP2 JUMP JUMPDEST PUSH2 0x3278 DUP3 PUSH2 0xD43 JUMP JUMPDEST PUSH2 0x3281 DUP2 PUSH2 0x33C6 JUMP JUMPDEST PUSH2 0x328B DUP4 DUP4 PUSH2 0x34CA JUMP JUMPDEST POP POP POP POP JUMP JUMPDEST PUSH1 0x10 PUSH1 0x20 MSTORE DUP1 PUSH0 MSTORE PUSH1 0x40 PUSH0 KECCAK256 PUSH0 SWAP2 POP SWAP1 POP SLOAD DUP2 JUMP JUMPDEST PUSH0 DUP1 PUSH1 0x7 SLOAD GT SWAP1 POP SWAP1 JUMP JUMPDEST PUSH1 0x7 SLOAD DUP2 JUMP JUMPDEST PUSH0 PUSH32 0x1FFC9A700000000000000000000000000000000000000000000000000000000 PUSH28 0xFFFFFFFFFFFFFFFFFFFFFFFFFFFFFFFFFFFFFFFFFFFFFFFFFFFFFFFF NOT AND DUP3 PUSH28 0xFFFFFFFFFFFFFFFFFFFFFFFFFFFFFFFFFFFFFFFFFFFFFFFFFFFFFFFF NOT AND EQ SWAP1 POP SWAP2 SWAP1 POP JUMP JUMPDEST PUSH2 0x33B8 DUP3 DUP3 PUSH1 0x40 MLOAD PUSH1 0x24 ADD PUSH2 0x3336 SWAP3 SWAP2 SWAP1 PUSH2 0x4747 JUMP JUMPDEST PUSH1 0x40 MLOAD PUSH1 0x20 DUP2 DUP4 SUB SUB DUP2 MSTORE SWAP1 PUSH1 0x40 MSTORE PUSH32 0x319AF33300000000000000000000000000000000000000000000000000000000 PUSH28 0xFFFFFFFFFFFFFFFFFFFFFFFFFFFFFFFFFFFFFFFFFFFFFFFFFFFFFFFF NOT AND PUSH1 0x20 DUP3 ADD DUP1 MLOAD PUSH28 0xFFFFFFFFFFFFFFFFFFFFFFFFFFFFFFFFFFFFFFFFFFFFFFFFFFFFFFFF DUP4 DUP2 DUP4 AND OR DUP4 MSTORE POP POP POP POP PUSH2 0x3836 JUMP JUMPDEST POP POP JUMP JUMPDEST DUP1 PUSH1 0x7 DUP2 SWAP1 SSTORE POP POP JUMP JUMPDEST PUSH2 0x33D7 DUP2 PUSH2 0x33D2 PUSH2 0x34C3 JUMP JUMPDEST PUSH2 0x3850 JUMP JUMPDEST POP JUMP JUMPDEST PUSH0 PUSH2 0x33E5 DUP4 DUP4 PUSH2 0x27A2 JUMP JUMPDEST PUSH2 0x34B9 JUMPI PUSH1 0x1 PUSH0 DUP1 DUP6 DUP2 MSTORE PUSH1 0x20 ADD SWAP1 DUP2 MSTORE PUSH1 0x20 ADD PUSH0 KECCAK256 PUSH0 ADD PUSH0 DUP5 PUSH20 0xFFFFFFFFFFFFFFFFFFFFFFFFFFFFFFFFFFFFFFFF AND PUSH20 0xFFFFFFFFFFFFFFFFFFFFFFFFFFFFFFFFFFFFFFFF AND DUP2 MSTORE PUSH1 0x20 ADD SWAP1 DUP2 MSTORE PUSH1 0x20 ADD PUSH0 KECCAK256 PUSH0 PUSH2 0x100 EXP DUP2 SLOAD DUP2 PUSH1 0xFF MUL NOT AND SWAP1 DUP4 ISZERO ISZERO MUL OR SWAP1 SSTORE POP PUSH2 0x3456 PUSH2 0x34C3 JUMP JUMPDEST PUSH20 0xFFFFFFFFFFFFFFFFFFFFFFFFFFFFFFFFFFFFFFFF AND DUP3 PUSH20 0xFFFFFFFFFFFFFFFFFFFFFFFFFFFFFFFFFFFFFFFF AND DUP5 PUSH32 0x2F8788117E7EFF1D82E926EC794901D17C78024A50270940304540A733656F0D PUSH1 0x40 MLOAD PUSH1 0x40 MLOAD DUP1 SWAP2 SUB SWAP1 LOG4 PUSH1 0x1 SWAP1 POP PUSH2 0x34BD JUMP JUMPDEST PUSH0 SWAP1 POP JUMPDEST SWAP3 SWAP2 POP POP JUMP JUMPDEST PUSH0 CALLER SWAP1 POP SWAP1 JUMP JUMPDEST PUSH0 PUSH2 0x34D5 DUP4 DUP4 PUSH2 0x27A2 JUMP JUMPDEST ISZERO PUSH2 0x35A9 JUMPI PUSH0 DUP1 PUSH0 DUP6 DUP2 MSTORE PUSH1 0x20 ADD SWAP1 DUP2 MSTORE PUSH1 0x20 ADD PUSH0 KECCAK256 PUSH0 ADD PUSH0 DUP5 PUSH20 0xFFFFFFFFFFFFFFFFFFFFFFFFFFFFFFFFFFFFFFFF AND PUSH20 0xFFFFFFFFFFFFFFFFFFFFFFFFFFFFFFFFFFFFFFFF AND DUP2 MSTORE PUSH1 0x20 ADD SWAP1 DUP2 MSTORE PUSH1 0x20 ADD PUSH0 KECCAK256 PUSH0 PUSH2 0x100 EXP DUP2 SLOAD DUP2 PUSH1 0xFF MUL NOT AND SWAP1 DUP4 ISZERO ISZERO MUL OR SWAP1 SSTORE POP PUSH2 0x3546 PUSH2 0x34C3 JUMP JUMPDEST PUSH20 0xFFFFFFFFFFFFFFFFFFFFFFFFFFFFFFFFFFFFFFFF AND DUP3 PUSH20 0xFFFFFFFFFFFFFFFFFFFFFFFFFFFFFFFFFFFFFFFF AND DUP5 PUSH32 0xF6391F5C32D9C69D2A47EA670B442974B53935D1EDC7FD64EB21E047A839171B PUSH1 0x40 MLOAD PUSH1 0x40 MLOAD DUP1 SWAP2 SUB SWAP1 LOG4 PUSH1 0x1 SWAP1 POP PUSH2 0x35AD JUMP JUMPDEST PUSH0 SWAP1 POP JUMPDEST SWAP3 SWAP2 POP POP JUMP JUMPDEST PUSH0 DUP2 DUP4 PUSH2 0x35C0 SWAP2 SWAP1 PUSH2 0x4775 JUMP JUMPDEST SWAP1 POP SWAP3 SWAP2 POP POP JUMP JUMPDEST PUSH0 DUP1 PUSH0 SWAP1 POP JUMPDEST PUSH1 0xC DUP1 SLOAD SWAP1 POP DUP2 LT ISZERO PUSH2 0x3660 JUMPI DUP3 PUSH20 0xFFFFFFFFFFFFFFFFFFFFFFFFFFFFFFFFFFFFFFFF AND PUSH1 0xC DUP3 DUP2 SLOAD DUP2 LT PUSH2 0x3606 JUMPI PUSH2 0x3605 PUSH2 0x40C8 JUMP JUMPDEST JUMPDEST SWAP1 PUSH0 MSTORE PUSH1 0x20 PUSH0 KECCAK256 ADD PUSH0 SWAP1 SLOAD SWAP1 PUSH2 0x100 EXP SWAP1 DIV PUSH20 0xFFFFFFFFFFFFFFFFFFFFFFFFFFFFFFFFFFFFFFFF AND PUSH20 0xFFFFFFFFFFFFFFFFFFFFFFFFFFFFFFFFFFFFFFFF AND SUB PUSH2 0x3653 JUMPI PUSH1 0x1 SWAP2 POP POP PUSH2 0x3665 JUMP JUMPDEST DUP1 DUP1 PUSH1 0x1 ADD SWAP2 POP POP PUSH2 0x35CE JUMP JUMPDEST POP PUSH0 SWAP1 POP JUMPDEST SWAP2 SWAP1 POP JUMP JUMPDEST PUSH1 0x2 PUSH1 0x1 SLOAD SUB PUSH2 0x36AF JUMPI PUSH1 0x40 MLOAD PUSH32 0x8C379A000000000000000000000000000000000000000000000000000000000 DUP2 MSTORE PUSH1 0x4 ADD PUSH2 0x36A6 SWAP1 PUSH2 0x47F2 JUMP JUMPDEST PUSH1 0x40 MLOAD DUP1 SWAP2 SUB SWAP1 REVERT JUMPDEST PUSH1 0x2 PUSH1 0x1 DUP2 SWAP1 SSTORE POP JUMP JUMPDEST PUSH0 DUP2 DUP4 PUSH2 0x36C6 SWAP2 SWAP1 PUSH2 0x4810 JUMP JUMPDEST SWAP1 POP SWAP3 SWAP2 POP POP JUMP JUMPDEST PUSH0 DUP2 DUP4 PUSH2 0x36DB SWAP2 SWAP1 PUSH2 0x487E JUMP JUMPDEST SWAP1 POP SWAP3 SWAP2 POP POP JUMP JUMPDEST PUSH0 DUP2 DUP4 PUSH2 0x36F0 SWAP2 SWAP1 PUSH2 0x48AE JUMP JUMPDEST SWAP1 POP SWAP3 SWAP2 POP POP JUMP JUMPDEST PUSH2 0x378E DUP2 PUSH1 0x40 MLOAD PUSH1 0x24 ADD PUSH2 0x370C SWAP2 SWAP1 PUSH2 0x48E1 JUMP JUMPDEST PUSH1 0x40 MLOAD PUSH1 0x20 DUP2 DUP4 SUB SUB DUP2 MSTORE SWAP1 PUSH1 0x40 MSTORE PUSH32 0x41304FAC00000000000000000000000000000000000000000000000000000000 PUSH28 0xFFFFFFFFFFFFFFFFFFFFFFFFFFFFFFFFFFFFFFFFFFFFFFFFFFFFFFFF NOT AND PUSH1 0x20 DUP3 ADD DUP1 MLOAD PUSH28 0xFFFFFFFFFFFFFFFFFFFFFFFFFFFFFFFFFFFFFFFFFFFFFFFFFFFFFFFF DUP4 DUP2 DUP4 AND OR DUP4 MSTORE POP POP POP POP PUSH2 0x3836 JUMP JUMPDEST POP JUMP JUMPDEST PUSH2 0x3829 DUP3 DUP3 PUSH1 0x40 MLOAD PUSH1 0x24 ADD PUSH2 0x37A7 SWAP3 SWAP2 SWAP1 PUSH2 0x4901 JUMP JUMPDEST PUSH1 0x40 MLOAD PUSH1 0x20 DUP2 DUP4 SUB SUB DUP2 MSTORE SWAP1 PUSH1 0x40 MSTORE PUSH32 0xB60E72CC00000000000000000000000000000000000000000000000000000000 PUSH28 0xFFFFFFFFFFFFFFFFFFFFFFFFFFFFFFFFFFFFFFFFFFFFFFFFFFFFFFFF NOT AND PUSH1 0x20 DUP3 ADD DUP1 MLOAD PUSH28 0xFFFFFFFFFFFFFFFFFFFFFFFFFFFFFFFFFFFFFFFFFFFFFFFFFFFFFFFF DUP4 DUP2 DUP4 AND OR DUP4 MSTORE POP POP POP POP PUSH2 0x3836 JUMP JUMPDEST POP POP JUMP JUMPDEST PUSH1 0x1 DUP1 DUP2 SWAP1 SSTORE POP JUMP JUMPDEST PUSH2 0x384D DUP2 PUSH2 0x3845 PUSH2 0x38A1 PUSH2 0x38C0 JUMP JUMPDEST PUSH4 0xFFFFFFFF AND JUMP JUMPDEST POP JUMP JUMPDEST PUSH2 0x385A DUP3 DUP3 PUSH2 0x27A2 JUMP JUMPDEST PUSH2 0x389D JUMPI DUP1 DUP3 PUSH1 0x40 MLOAD PUSH32 0xE2517D3F00000000000000000000000000000000000000000000000000000000 DUP2 MSTORE PUSH1 0x4 ADD PUSH2 0x3894 SWAP3 SWAP2 SWAP1 PUSH2 0x492F JUMP JUMPDEST PUSH1 0x40 MLOAD DUP1 SWAP2 SUB SWAP1 REVERT JUMPDEST POP POP JUMP JUMPDEST PUSH0 PUSH11 0x636F6E736F6C652E6C6F67 SWAP1 POP PUSH0 DUP1 DUP4 MLOAD PUSH1 0x20 DUP6 ADD DUP5 GAS STATICCALL POP POP POP JUMP JUMPDEST PUSH2 0x38CB DUP2 SWAP1 POP SWAP2 SWAP1 POP JUMP JUMPDEST PUSH2 0x38D3 PUSH2 0x4956 JUMP JUMPDEST JUMP JUMPDEST PUSH0 DUP3 DUP3 MSTORE PUSH1 0x20 DUP3 ADD SWAP1 POP SWAP3 SWAP2 POP POP JUMP JUMPDEST PUSH32 0x436F6E747261637420646F6573206E6F74206163636570742064697265637420 PUSH0 DUP3 ADD MSTORE PUSH32 0x7061796D656E7473000000000000000000000000000000000000000000000000 PUSH1 0x20 DUP3 ADD MSTORE POP JUMP JUMPDEST PUSH0 PUSH2 0x393F PUSH1 0x28 DUP4 PUSH2 0x38D5 JUMP JUMPDEST SWAP2 POP PUSH2 0x394A DUP3 PUSH2 0x38E5 JUMP JUMPDEST PUSH1 0x40 DUP3 ADD SWAP1 POP SWAP2 SWAP1 POP JUMP JUMPDEST PUSH0 PUSH1 0x20 DUP3 ADD SWAP1 POP DUP2 DUP2 SUB PUSH0 DUP4 ADD MSTORE PUSH2 0x396C DUP2 PUSH2 0x3933 JUMP JUMPDEST SWAP1 POP SWAP2 SWAP1 POP JUMP JUMPDEST PUSH0 DUP1 REVERT JUMPDEST PUSH0 DUP1 REVERT JUMPDEST PUSH0 PUSH32 0xFFFFFFFF00000000000000000000000000000000000000000000000000000000 DUP3 AND SWAP1 POP SWAP2 SWAP1 POP JUMP JUMPDEST PUSH2 0x39AF DUP2 PUSH2 0x397B JUMP JUMPDEST DUP2 EQ PUSH2 0x39B9 JUMPI PUSH0 DUP1 REVERT JUMPDEST POP JUMP JUMPDEST PUSH0 DUP2 CALLDATALOAD SWAP1 POP PUSH2 0x39CA DUP2 PUSH2 0x39A6 JUMP JUMPDEST SWAP3 SWAP2 POP POP JUMP JUMPDEST PUSH0 PUSH1 0x20 DUP3 DUP5 SUB SLT ISZERO PUSH2 0x39E5 JUMPI PUSH2 0x39E4 PUSH2 0x3973 JUMP JUMPDEST JUMPDEST PUSH0 PUSH2 0x39F2 DUP5 DUP3 DUP6 ADD PUSH2 0x39BC JUMP JUMPDEST SWAP2 POP POP SWAP3 SWAP2 POP POP JUMP JUMPDEST PUSH0 DUP2 ISZERO ISZERO SWAP1 POP SWAP2 SWAP1 POP JUMP JUMPDEST PUSH2 0x3A0F DUP2 PUSH2 0x39FB JUMP JUMPDEST DUP3 MSTORE POP POP JUMP JUMPDEST PUSH0 PUSH1 0x20 DUP3 ADD SWAP1 POP PUSH2 0x3A28 PUSH0 DUP4 ADD DUP5 PUSH2 0x3A06 JUMP JUMPDEST SWAP3 SWAP2 POP POP JUMP JUMPDEST PUSH0 DUP2 SWAP1 POP SWAP2 SWAP1 POP JUMP JUMPDEST PUSH2 0x3A40 DUP2 PUSH2 0x3A2E JUMP JUMPDEST DUP2 EQ PUSH2 0x3A4A JUMPI PUSH0 DUP1 REVERT JUMPDEST POP JUMP JUMPDEST PUSH0 DUP2 CALLDATALOAD SWAP1 POP PUSH2 0x3A5B DUP2 PUSH2 0x3A37 JUMP JUMPDEST SWAP3 SWAP2 POP POP JUMP JUMPDEST PUSH0 PUSH1 0x20 DUP3 DUP5 SUB SLT ISZERO PUSH2 0x3A76 JUMPI PUSH2 0x3A75 PUSH2 0x3973 JUMP JUMPDEST JUMPDEST PUSH0 PUSH2 0x3A83 DUP5 DUP3 DUP6 ADD PUSH2 0x3A4D JUMP JUMPDEST SWAP2 POP POP SWAP3 SWAP2 POP POP JUMP JUMPDEST PUSH0 PUSH20 0xFFFFFFFFFFFFFFFFFFFFFFFFFFFFFFFFFFFFFFFF DUP3 AND SWAP1 POP SWAP2 SWAP1 POP JUMP JUMPDEST PUSH0 PUSH2 0x3AB5 DUP3 PUSH2 0x3A8C JUMP JUMPDEST SWAP1 POP SWAP2 SWAP1 POP JUMP JUMPDEST PUSH2 0x3AC5 DUP2 PUSH2 0x3AAB JUMP JUMPDEST DUP3 MSTORE POP POP JUMP JUMPDEST PUSH0 PUSH1 0x20 DUP3 ADD SWAP1 POP PUSH2 0x3ADE PUSH0 DUP4 ADD DUP5 PUSH2 0x3ABC JUMP JUMPDEST SWAP3 SWAP2 POP POP JUMP JUMPDEST PUSH2 0x3AED DUP2 PUSH2 0x3A2E JUMP JUMPDEST DUP3 MSTORE POP POP JUMP JUMPDEST PUSH0 PUSH1 0x20 DUP3 ADD SWAP1 POP PUSH2 0x3B06 PUSH0 DUP4 ADD DUP5 PUSH2 0x3AE4 JUMP JUMPDEST SWAP3 SWAP2 POP POP JUMP JUMPDEST PUSH2 0x3B15 DUP2 PUSH2 0x3AAB JUMP JUMPDEST DUP2 EQ PUSH2 0x3B1F JUMPI PUSH0 DUP1 REVERT JUMPDEST POP JUMP JUMPDEST PUSH0 DUP2 CALLDATALOAD SWAP1 POP PUSH2 0x3B30 DUP2 PUSH2 0x3B0C JUMP JUMPDEST SWAP3 SWAP2 POP POP JUMP JUMPDEST PUSH0 DUP1 PUSH1 0x40 DUP4 DUP6 SUB SLT ISZERO PUSH2 0x3B4C JUMPI PUSH2 0x3B4B PUSH2 0x3973 JUMP JUMPDEST JUMPDEST PUSH0 PUSH2 0x3B59 DUP6 DUP3 DUP7 ADD PUSH2 0x3B22 JUMP JUMPDEST SWAP3 POP POP PUSH1 0x20 PUSH2 0x3B6A DUP6 DUP3 DUP7 ADD PUSH2 0x3A4D JUMP JUMPDEST SWAP2 POP POP SWAP3 POP SWAP3 SWAP1 POP JUMP JUMPDEST PUSH0 DUP2 SWAP1 POP SWAP2 SWAP1 POP JUMP JUMPDEST PUSH2 0x3B86 DUP2 PUSH2 0x3B74 JUMP JUMPDEST DUP2 EQ PUSH2 0x3B90 JUMPI PUSH0 DUP1 REVERT JUMPDEST POP JUMP JUMPDEST PUSH0 DUP2 CALLDATALOAD SWAP1 POP PUSH2 0x3BA1 DUP2 PUSH2 0x3B7D JUMP JUMPDEST SWAP3 SWAP2 POP POP JUMP JUMPDEST PUSH0 PUSH1 0x20 DUP3 DUP5 SUB SLT ISZERO PUSH2 0x3BBC JUMPI PUSH2 0x3BBB PUSH2 0x3973 JUMP JUMPDEST JUMPDEST PUSH0 PUSH2 0x3BC9 DUP5 DUP3 DUP6 ADD PUSH2 0x3B93 JUMP JUMPDEST SWAP2 POP POP SWAP3 SWAP2 POP POP JUMP JUMPDEST PUSH2 0x3BDB DUP2 PUSH2 0x3B74 JUMP JUMPDEST DUP3 MSTORE POP POP JUMP JUMPDEST PUSH0 PUSH1 0x20 DUP3 ADD SWAP1 POP PUSH2 0x3BF4 PUSH0 DUP4 ADD DUP5 PUSH2 0x3BD2 JUMP JUMPDEST SWAP3 SWAP2 POP POP JUMP JUMPDEST PUSH0 DUP1 PUSH1 0x40 DUP4 DUP6 SUB SLT ISZERO PUSH2 0x3C10 JUMPI PUSH2 0x3C0F PUSH2 0x3973 JUMP JUMPDEST JUMPDEST PUSH0 PUSH2 0x3C1D DUP6 DUP3 DUP7 ADD PUSH2 0x3B93 JUMP JUMPDEST SWAP3 POP POP PUSH1 0x20 PUSH2 0x3C2E DUP6 DUP3 DUP7 ADD PUSH2 0x3B22 JUMP JUMPDEST SWAP2 POP POP SWAP3 POP SWAP3 SWAP1 POP JUMP JUMPDEST PUSH0 PUSH1 0x20 DUP3 DUP5 SUB SLT ISZERO PUSH2 0x3C4D JUMPI PUSH2 0x3C4C PUSH2 0x3973 JUMP JUMPDEST JUMPDEST PUSH0 PUSH2 0x3C5A DUP5 DUP3 DUP6 ADD PUSH2 0x3B22 JUMP JUMPDEST SWAP2 POP POP SWAP3 SWAP2 POP POP JUMP JUMPDEST PUSH0 DUP1 REVERT JUMPDEST PUSH0 DUP1 REVERT JUMPDEST PUSH0 DUP1 REVERT JUMPDEST PUSH0 DUP1 DUP4 PUSH1 0x1F DUP5 ADD SLT PUSH2 0x3C84 JUMPI PUSH2 0x3C83 PUSH2 0x3C63 JUMP JUMPDEST JUMPDEST DUP3 CALLDATALOAD SWAP1 POP PUSH8 0xFFFFFFFFFFFFFFFF DUP2 GT ISZERO PUSH2 0x3CA1 JUMPI PUSH2 0x3CA0 PUSH2 0x3C67 JUMP JUMPDEST JUMPDEST PUSH1 0x20 DUP4 ADD SWAP2 POP DUP4 PUSH1 0x20 DUP3 MUL DUP4 ADD GT ISZERO PUSH2 0x3CBD JUMPI PUSH2 0x3CBC PUSH2 0x3C6B JUMP JUMPDEST JUMPDEST SWAP3 POP SWAP3 SWAP1 POP JUMP JUMPDEST PUSH0 DUP1 DUP4 PUSH1 0x1F DUP5 ADD SLT PUSH2 0x3CD9 JUMPI PUSH2 0x3CD8 PUSH2 0x3C63 JUMP JUMPDEST JUMPDEST DUP3 CALLDATALOAD SWAP1 POP PUSH8 0xFFFFFFFFFFFFFFFF DUP2 GT ISZERO PUSH2 0x3CF6 JUMPI PUSH2 0x3CF5 PUSH2 0x3C67 JUMP JUMPDEST JUMPDEST PUSH1 0x20 DUP4 ADD SWAP2 POP DUP4 PUSH1 0x20 DUP3 MUL DUP4 ADD GT ISZERO PUSH2 0x3D12 JUMPI PUSH2 0x3D11 PUSH2 0x3C6B JUMP JUMPDEST JUMPDEST SWAP3 POP SWAP3 SWAP1 POP JUMP JUMPDEST PUSH0 DUP1 PUSH0 DUP1 PUSH1 0x40 DUP6 DUP8 SUB SLT ISZERO PUSH2 0x3D31 JUMPI PUSH2 0x3D30 PUSH2 0x3973 JUMP JUMPDEST JUMPDEST PUSH0 DUP6 ADD CALLDATALOAD PUSH8 0xFFFFFFFFFFFFFFFF DUP2 GT ISZERO PUSH2 0x3D4E JUMPI PUSH2 0x3D4D PUSH2 0x3977 JUMP JUMPDEST JUMPDEST PUSH2 0x3D5A DUP8 DUP3 DUP9 ADD PUSH2 0x3C6F JUMP JUMPDEST SWAP5 POP SWAP5 POP POP PUSH1 0x20 DUP6 ADD CALLDATALOAD PUSH8 0xFFFFFFFFFFFFFFFF DUP2 GT ISZERO PUSH2 0x3D7D JUMPI PUSH2 0x3D7C PUSH2 0x3977 JUMP JUMPDEST JUMPDEST PUSH2 0x3D89 DUP8 DUP3 DUP9 ADD PUSH2 0x3CC4 JUMP JUMPDEST SWAP3 POP SWAP3 POP POP SWAP3 SWAP6 SWAP2 SWAP5 POP SWAP3 POP JUMP JUMPDEST PUSH0 DUP2 SWAP1 POP SWAP2 SWAP1 POP JUMP JUMPDEST PUSH0 PUSH2 0x3DBA PUSH2 0x3DB5 PUSH2 0x3DB0 DUP5 PUSH2 0x3A8C JUMP JUMPDEST PUSH2 0x3D97 JUMP JUMPDEST PUSH2 0x3A8C JUMP JUMPDEST SWAP1 POP SWAP2 SWAP1 POP JUMP JUMPDEST PUSH0 PUSH2 0x3DCB DUP3 PUSH2 0x3DA0 JUMP JUMPDEST SWAP1 POP SWAP2 SWAP1 POP JUMP JUMPDEST PUSH0 PUSH2 0x3DDC DUP3 PUSH2 0x3DC1 JUMP JUMPDEST SWAP1 POP SWAP2 SWAP1 POP JUMP JUMPDEST PUSH2 0x3DEC DUP2 PUSH2 0x3DD2 JUMP JUMPDEST DUP3 MSTORE POP POP JUMP JUMPDEST PUSH0 PUSH1 0x20 DUP3 ADD SWAP1 POP PUSH2 0x3E05 PUSH0 DUP4 ADD DUP5 PUSH2 0x3DE3 JUMP JUMPDEST SWAP3 SWAP2 POP POP JUMP JUMPDEST PUSH32 0x4D757374206861766520646566696E656420526F6C6573000000000000000000 PUSH0 DUP3 ADD MSTORE POP JUMP JUMPDEST PUSH0 PUSH2 0x3E3F PUSH1 0x17 DUP4 PUSH2 0x38D5 JUMP JUMPDEST SWAP2 POP PUSH2 0x3E4A DUP3 PUSH2 0x3E0B JUMP JUMPDEST PUSH1 0x20 DUP3 ADD SWAP1 POP SWAP2 SWAP1 POP JUMP JUMPDEST PUSH0 PUSH1 0x20 DUP3 ADD SWAP1 POP DUP2 DUP2 SUB PUSH0 DUP4 ADD MSTORE PUSH2 0x3E6C DUP2 PUSH2 0x3E33 JUMP JUMPDEST SWAP1 POP SWAP2 SWAP1 POP JUMP JUMPDEST PUSH0 PUSH1 0x40 DUP3 ADD SWAP1 POP PUSH2 0x3E86 PUSH0 DUP4 ADD DUP6 PUSH2 0x3ABC JUMP JUMPDEST PUSH2 0x3E93 PUSH1 0x20 DUP4 ADD DUP5 PUSH2 0x3A06 JUMP JUMPDEST SWAP4 SWAP3 POP POP POP JUMP JUMPDEST PUSH32 0x4E6F2064656665696E656420726F6C6573207365740000000000000000000000 PUSH0 DUP3 ADD MSTORE POP JUMP JUMPDEST PUSH0 PUSH2 0x3ECE PUSH1 0x15 DUP4 PUSH2 0x38D5 JUMP JUMPDEST SWAP2 POP PUSH2 0x3ED9 DUP3 PUSH2 0x3E9A JUMP JUMPDEST PUSH1 0x20 DUP3 ADD SWAP1 POP SWAP2 SWAP1 POP JUMP JUMPDEST PUSH0 PUSH1 0x20 DUP3 ADD SWAP1 POP DUP2 DUP2 SUB PUSH0 DUP4 ADD MSTORE PUSH2 0x3EFB DUP2 PUSH2 0x3EC2 JUMP JUMPDEST SWAP1 POP SWAP2 SWAP1 POP JUMP JUMPDEST PUSH32 0x526173696564416D6F757420616E64204E6F206F6620436F6E7472696275746F PUSH0 DUP3 ADD MSTORE PUSH32 0x72732073686F756C64206265203E203000000000000000000000000000000000 PUSH1 0x20 DUP3 ADD MSTORE POP JUMP JUMPDEST PUSH0 PUSH2 0x3F5C PUSH1 0x30 DUP4 PUSH2 0x38D5 JUMP JUMPDEST SWAP2 POP PUSH2 0x3F67 DUP3 PUSH2 0x3F02 JUMP JUMPDEST PUSH1 0x40 DUP3 ADD SWAP1 POP SWAP2 SWAP1 POP JUMP JUMPDEST PUSH0 PUSH1 0x20 DUP3 ADD SWAP1 POP DUP2 DUP2 SUB PUSH0 DUP4 ADD MSTORE PUSH2 0x3F89 DUP2 PUSH2 0x3F50 JUMP JUMPDEST SWAP1 POP SWAP2 SWAP1 POP JUMP JUMPDEST PUSH32 0x526169736520616C726561647920656E64656400000000000000000000000000 PUSH0 DUP3 ADD MSTORE POP JUMP JUMPDEST PUSH0 PUSH2 0x3FC4 PUSH1 0x13 DUP4 PUSH2 0x38D5 JUMP JUMPDEST SWAP2 POP PUSH2 0x3FCF DUP3 PUSH2 0x3F90 JUMP JUMPDEST PUSH1 0x20 DUP3 ADD SWAP1 POP SWAP2 SWAP1 POP JUMP JUMPDEST PUSH0 PUSH1 0x20 DUP3 ADD SWAP1 POP DUP2 DUP2 SUB PUSH0 DUP4 ADD MSTORE PUSH2 0x3FF1 DUP2 PUSH2 0x3FB8 JUMP JUMPDEST SWAP1 POP SWAP2 SWAP1 POP JUMP JUMPDEST PUSH32 0x526169736520616C726561647920737461727465640000000000000000000000 PUSH0 DUP3 ADD MSTORE POP JUMP JUMPDEST PUSH0 PUSH2 0x402C PUSH1 0x15 DUP4 PUSH2 0x38D5 JUMP JUMPDEST SWAP2 POP PUSH2 0x4037 DUP3 PUSH2 0x3FF8 JUMP JUMPDEST PUSH1 0x20 DUP3 ADD SWAP1 POP SWAP2 SWAP1 POP JUMP JUMPDEST PUSH0 PUSH1 0x20 DUP3 ADD SWAP1 POP DUP2 DUP2 SUB PUSH0 DUP4 ADD MSTORE PUSH2 0x4059 DUP2 PUSH2 0x4020 JUMP JUMPDEST SWAP1 POP SWAP2 SWAP1 POP JUMP JUMPDEST PUSH32 0x417272617973206C656E677468206D69736D6174636800000000000000000000 PUSH0 DUP3 ADD MSTORE POP JUMP JUMPDEST PUSH0 PUSH2 0x4094 PUSH1 0x16 DUP4 PUSH2 0x38D5 JUMP JUMPDEST SWAP2 POP PUSH2 0x409F DUP3 PUSH2 0x4060 JUMP JUMPDEST PUSH1 0x20 DUP3 ADD SWAP1 POP SWAP2 SWAP1 POP JUMP JUMPDEST PUSH0 PUSH1 0x20 DUP3 ADD SWAP1 POP DUP2 DUP2 SUB PUSH0 DUP4 ADD MSTORE PUSH2 0x40C1 DUP2 PUSH2 0x4088 JUMP JUMPDEST SWAP1 POP SWAP2 SWAP1 POP JUMP JUMPDEST PUSH32 0x4E487B7100000000000000000000000000000000000000000000000000000000 PUSH0 MSTORE PUSH1 0x32 PUSH1 0x4 MSTORE PUSH1 0x24 PUSH0 REVERT JUMPDEST PUSH32 0x4E487B7100000000000000000000000000000000000000000000000000000000 PUSH0 MSTORE PUSH1 0x11 PUSH1 0x4 MSTORE PUSH1 0x24 PUSH0 REVERT JUMPDEST PUSH0 PUSH2 0x412C DUP3 PUSH2 0x3A2E JUMP JUMPDEST SWAP2 POP PUSH32 0xFFFFFFFFFFFFFFFFFFFFFFFFFFFFFFFFFFFFFFFFFFFFFFFFFFFFFFFFFFFFFFFF DUP3 SUB PUSH2 0x415E JUMPI PUSH2 0x415D PUSH2 0x40F5 JUMP JUMPDEST JUMPDEST PUSH1 0x1 DUP3 ADD SWAP1 POP SWAP2 SWAP1 POP JUMP JUMPDEST PUSH0 PUSH1 0x40 DUP3 ADD SWAP1 POP PUSH2 0x417C PUSH0 DUP4 ADD DUP6 PUSH2 0x3AE4 JUMP JUMPDEST PUSH2 0x4189 PUSH1 0x20 DUP4 ADD DUP5 PUSH2 0x3AE4 JUMP JUMPDEST SWAP4 SWAP3 POP POP POP JUMP JUMPDEST PUSH32 0x5261697365206E6F7420656E6465640000000000000000000000000000000000 PUSH0 DUP3 ADD MSTORE POP JUMP JUMPDEST PUSH0 PUSH2 0x41C4 PUSH1 0xF DUP4 PUSH2 0x38D5 JUMP JUMPDEST SWAP2 POP PUSH2 0x41CF DUP3 PUSH2 0x4190 JUMP JUMPDEST PUSH1 0x20 DUP3 ADD SWAP1 POP SWAP2 SWAP1 POP JUMP JUMPDEST PUSH0 PUSH1 0x20 DUP3 ADD SWAP1 POP DUP2 DUP2 SUB PUSH0 DUP4 ADD MSTORE PUSH2 0x41F1 DUP2 PUSH2 0x41B8 JUMP JUMPDEST SWAP1 POP SWAP2 SWAP1 POP JUMP JUMPDEST PUSH0 PUSH1 0x40 DUP3 ADD SWAP1 POP PUSH2 0x420B PUSH0 DUP4 ADD DUP6 PUSH2 0x3ABC JUMP JUMPDEST PUSH2 0x4218 PUSH1 0x20 DUP4 ADD DUP5 PUSH2 0x3AE4 JUMP JUMPDEST SWAP4 SWAP3 POP POP POP JUMP JUMPDEST PUSH2 0x4228 DUP2 PUSH2 0x39FB JUMP JUMPDEST DUP2 EQ PUSH2 0x4232 JUMPI PUSH0 DUP1 REVERT JUMPDEST POP JUMP JUMPDEST PUSH0 DUP2 MLOAD SWAP1 POP PUSH2 0x4243 DUP2 PUSH2 0x421F JUMP JUMPDEST SWAP3 SWAP2 POP POP JUMP JUMPDEST PUSH0 PUSH1 0x20 DUP3 DUP5 SUB SLT ISZERO PUSH2 0x425E JUMPI PUSH2 0x425D PUSH2 0x3973 JUMP JUMPDEST JUMPDEST PUSH0 PUSH2 0x426B DUP5 DUP3 DUP6 ADD PUSH2 0x4235 JUMP JUMPDEST SWAP2 POP POP SWAP3 SWAP2 POP POP JUMP JUMPDEST PUSH32 0x4E6F7420612076616C6964206164647265737300000000000000000000000000 PUSH0 DUP3 ADD MSTORE POP JUMP JUMPDEST PUSH0 PUSH2 0x42A8 PUSH1 0x13 DUP4 PUSH2 0x38D5 JUMP JUMPDEST SWAP2 POP PUSH2 0x42B3 DUP3 PUSH2 0x4274 JUMP JUMPDEST PUSH1 0x20 DUP3 ADD SWAP1 POP SWAP2 SWAP1 POP JUMP JUMPDEST PUSH0 PUSH1 0x20 DUP3 ADD SWAP1 POP DUP2 DUP2 SUB PUSH0 DUP4 ADD MSTORE PUSH2 0x42D5 DUP2 PUSH2 0x429C JUMP JUMPDEST SWAP1 POP SWAP2 SWAP1 POP JUMP JUMPDEST PUSH32 0x5261697365206D757374206265206F6E676F696E670000000000000000000000 PUSH0 DUP3 ADD MSTORE POP JUMP JUMPDEST PUSH0 PUSH2 0x4310 PUSH1 0x15 DUP4 PUSH2 0x38D5 JUMP JUMPDEST SWAP2 POP PUSH2 0x431B DUP3 PUSH2 0x42DC JUMP JUMPDEST PUSH1 0x20 DUP3 ADD SWAP1 POP SWAP2 SWAP1 POP JUMP JUMPDEST PUSH0 PUSH1 0x20 DUP3 ADD SWAP1 POP DUP2 DUP2 SUB PUSH0 DUP4 ADD MSTORE PUSH2 0x433D DUP2 PUSH2 0x4304 JUMP JUMPDEST SWAP1 POP SWAP2 SWAP1 POP JUMP JUMPDEST PUSH32 0x436F6E747269627574696F6E2073686F756C6420626520696E20626574776565 PUSH0 DUP3 ADD MSTORE PUSH32 0x6E206D696E20616E64206D617800000000000000000000000000000000000000 PUSH1 0x20 DUP3 ADD MSTORE POP JUMP JUMPDEST PUSH0 PUSH2 0x439E PUSH1 0x2D DUP4 PUSH2 0x38D5 JUMP JUMPDEST SWAP2 POP PUSH2 0x43A9 DUP3 PUSH2 0x4344 JUMP JUMPDEST PUSH1 0x40 DUP3 ADD SWAP1 POP SWAP2 SWAP1 POP JUMP JUMPDEST PUSH0 PUSH1 0x20 DUP3 ADD SWAP1 POP DUP2 DUP2 SUB PUSH0 DUP4 ADD MSTORE PUSH2 0x43CB DUP2 PUSH2 0x4392 JUMP JUMPDEST SWAP1 POP SWAP2 SWAP1 POP JUMP JUMPDEST PUSH0 DUP2 MLOAD SWAP1 POP PUSH2 0x43E0 DUP2 PUSH2 0x3A37 JUMP JUMPDEST SWAP3 SWAP2 POP POP JUMP JUMPDEST PUSH0 PUSH1 0x20 DUP3 DUP5 SUB SLT ISZERO PUSH2 0x43FB JUMPI PUSH2 0x43FA PUSH2 0x3973 JUMP JUMPDEST JUMPDEST PUSH0 PUSH2 0x4408 DUP5 DUP3 DUP6 ADD PUSH2 0x43D2 JUMP JUMPDEST SWAP2 POP POP SWAP3 SWAP2 POP POP JUMP JUMPDEST PUSH32 0x436F6E7472627574696E67203A20496E73756666696369656E74207573657220 PUSH0 DUP3 ADD MSTORE PUSH32 0x62616C616E636500000000000000000000000000000000000000000000000000 PUSH1 0x20 DUP3 ADD MSTORE POP JUMP JUMPDEST PUSH0 PUSH2 0x446B PUSH1 0x27 DUP4 PUSH2 0x38D5 JUMP JUMPDEST SWAP2 POP PUSH2 0x4476 DUP3 PUSH2 0x4411 JUMP JUMPDEST PUSH1 0x40 DUP3 ADD SWAP1 POP SWAP2 SWAP1 POP JUMP JUMPDEST PUSH0 PUSH1 0x20 DUP3 ADD SWAP1 POP DUP2 DUP2 SUB PUSH0 DUP4 ADD MSTORE PUSH2 0x4498 DUP2 PUSH2 0x445F JUMP JUMPDEST SWAP1 POP SWAP2 SWAP1 POP JUMP JUMPDEST PUSH0 PUSH1 0x40 DUP3 ADD SWAP1 POP PUSH2 0x44B2 PUSH0 DUP4 ADD DUP6 PUSH2 0x3ABC JUMP JUMPDEST PUSH2 0x44BF PUSH1 0x20 DUP4 ADD DUP5 PUSH2 0x3ABC JUMP JUMPDEST SWAP4 SWAP3 POP POP POP JUMP JUMPDEST PUSH32 0x436F6E7472627574696E67203A20417070726F76616C206E6F742070726F7669 PUSH0 DUP3 ADD MSTORE PUSH32 0x6465642062792074686520757365720000000000000000000000000000000000 PUSH1 0x20 DUP3 ADD MSTORE POP JUMP JUMPDEST PUSH0 PUSH2 0x4520 PUSH1 0x2F DUP4 PUSH2 0x38D5 JUMP JUMPDEST SWAP2 POP PUSH2 0x452B DUP3 PUSH2 0x44C6 JUMP JUMPDEST PUSH1 0x40 DUP3 ADD SWAP1 POP SWAP2 SWAP1 POP JUMP JUMPDEST PUSH0 PUSH1 0x20 DUP3 ADD SWAP1 POP DUP2 DUP2 SUB PUSH0 DUP4 ADD MSTORE PUSH2 0x454D DUP2 PUSH2 0x4514 JUMP JUMPDEST SWAP1 POP SWAP2 SWAP1 POP JUMP JUMPDEST PUSH32 0x4E6F7420612077686974654C6973742055736572000000000000000000000000 PUSH0 DUP3 ADD MSTORE POP JUMP JUMPDEST PUSH0 PUSH2 0x4588 PUSH1 0x14 DUP4 PUSH2 0x38D5 JUMP JUMPDEST SWAP2 POP PUSH2 0x4593 DUP3 PUSH2 0x4554 JUMP JUMPDEST PUSH1 0x20 DUP3 ADD SWAP1 POP SWAP2 SWAP1 POP JUMP JUMPDEST PUSH0 PUSH1 0x20 DUP3 ADD SWAP1 POP DUP2 DUP2 SUB PUSH0 DUP4 ADD MSTORE PUSH2 0x45B5 DUP2 PUSH2 0x457C JUMP JUMPDEST SWAP1 POP SWAP2 SWAP1 POP JUMP JUMPDEST PUSH32 0x436F6E747269627574696F6E206578636565647320616C6C6F776564206D6178 PUSH0 DUP3 ADD MSTORE PUSH32 0x696D756D20666F722077686974656C6973742075736572000000000000000000 PUSH1 0x20 DUP3 ADD MSTORE POP JUMP JUMPDEST PUSH0 PUSH2 0x4616 PUSH1 0x37 DUP4 PUSH2 0x38D5 JUMP JUMPDEST SWAP2 POP PUSH2 0x4621 DUP3 PUSH2 0x45BC JUMP JUMPDEST PUSH1 0x40 DUP3 ADD SWAP1 POP SWAP2 SWAP1 POP JUMP JUMPDEST PUSH0 PUSH1 0x20 DUP3 ADD SWAP1 POP DUP2 DUP2 SUB PUSH0 DUP4 ADD MSTORE PUSH2 0x4643 DUP2 PUSH2 0x460A JUMP JUMPDEST SWAP1 POP SWAP2 SWAP1 POP JUMP JUMPDEST PUSH0 PUSH1 0x60 DUP3 ADD SWAP1 POP PUSH2 0x465D PUSH0 DUP4 ADD DUP7 PUSH2 0x3ABC JUMP JUMPDEST PUSH2 0x466A PUSH1 0x20 DUP4 ADD DUP6 PUSH2 0x3ABC JUMP JUMPDEST PUSH2 0x4677 PUSH1 0x40 DUP4 ADD DUP5 PUSH2 0x3AE4 JUMP JUMPDEST SWAP5 SWAP4 POP POP POP POP JUMP JUMPDEST PUSH32 0x546F6B656E207472616E73666572206661696C65640000000000000000000000 PUSH0 DUP3 ADD MSTORE POP JUMP JUMPDEST PUSH0 PUSH2 0x46B3 PUSH1 0x15 DUP4 PUSH2 0x38D5 JUMP JUMPDEST SWAP2 POP PUSH2 0x46BE DUP3 PUSH2 0x467F JUMP JUMPDEST PUSH1 0x20 DUP3 ADD SWAP1 POP SWAP2 SWAP1 POP JUMP JUMPDEST PUSH0 PUSH1 0x20 DUP3 ADD SWAP1 POP DUP2 DUP2 SUB PUSH0 DUP4 ADD MSTORE PUSH2 0x46E0 DUP2 PUSH2 0x46A7 JUMP JUMPDEST SWAP1 POP SWAP2 SWAP1 POP JUMP JUMPDEST PUSH0 DUP2 MLOAD SWAP1 POP SWAP2 SWAP1 POP JUMP JUMPDEST DUP3 DUP2 DUP4 MCOPY PUSH0 DUP4 DUP4 ADD MSTORE POP POP POP JUMP JUMPDEST PUSH0 PUSH1 0x1F NOT PUSH1 0x1F DUP4 ADD AND SWAP1 POP SWAP2 SWAP1 POP JUMP JUMPDEST PUSH0 PUSH2 0x4719 DUP3 PUSH2 0x46E7 JUMP JUMPDEST PUSH2 0x4723 DUP2 DUP6 PUSH2 0x38D5 JUMP JUMPDEST SWAP4 POP PUSH2 0x4733 DUP2 DUP6 PUSH1 0x20 DUP7 ADD PUSH2 0x46F1 JUMP JUMPDEST PUSH2 0x473C DUP2 PUSH2 0x46FF JUMP JUMPDEST DUP5 ADD SWAP2 POP POP SWAP3 SWAP2 POP POP JUMP JUMPDEST PUSH0 PUSH1 0x40 DUP3 ADD SWAP1 POP DUP2 DUP2 SUB PUSH0 DUP4 ADD MSTORE PUSH2 0x475F DUP2 DUP6 PUSH2 0x470F JUMP JUMPDEST SWAP1 POP PUSH2 0x476E PUSH1 0x20 DUP4 ADD DUP5 PUSH2 0x3ABC JUMP JUMPDEST SWAP4 SWAP3 POP POP POP JUMP JUMPDEST PUSH0 PUSH2 0x477F DUP3 PUSH2 0x3A2E JUMP JUMPDEST SWAP2 POP PUSH2 0x478A DUP4 PUSH2 0x3A2E JUMP JUMPDEST SWAP3 POP DUP3 DUP3 ADD SWAP1 POP DUP1 DUP3 GT ISZERO PUSH2 0x47A2 JUMPI PUSH2 0x47A1 PUSH2 0x40F5 JUMP JUMPDEST JUMPDEST SWAP3 SWAP2 POP POP JUMP JUMPDEST PUSH32 0x5265656E7472616E637947756172643A207265656E7472616E742063616C6C00 PUSH0 DUP3 ADD MSTORE POP JUMP JUMPDEST PUSH0 PUSH2 0x47DC PUSH1 0x1F DUP4 PUSH2 0x38D5 JUMP JUMPDEST SWAP2 POP PUSH2 0x47E7 DUP3 PUSH2 0x47A8 JUMP JUMPDEST PUSH1 0x20 DUP3 ADD SWAP1 POP SWAP2 SWAP1 POP JUMP JUMPDEST PUSH0 PUSH1 0x20 DUP3 ADD SWAP1 POP DUP2 DUP2 SUB PUSH0 DUP4 ADD MSTORE PUSH2 0x4809 DUP2 PUSH2 0x47D0 JUMP JUMPDEST SWAP1 POP SWAP2 SWAP1 POP JUMP JUMPDEST PUSH0 PUSH2 0x481A DUP3 PUSH2 0x3A2E JUMP JUMPDEST SWAP2 POP PUSH2 0x4825 DUP4 PUSH2 0x3A2E JUMP JUMPDEST SWAP3 POP DUP3 DUP3 MUL PUSH2 0x4833 DUP2 PUSH2 0x3A2E JUMP JUMPDEST SWAP2 POP DUP3 DUP3 DIV DUP5 EQ DUP4 ISZERO OR PUSH2 0x484A JUMPI PUSH2 0x4849 PUSH2 0x40F5 JUMP JUMPDEST JUMPDEST POP SWAP3 SWAP2 POP POP JUMP JUMPDEST PUSH32 0x4E487B7100000000000000000000000000000000000000000000000000000000 PUSH0 MSTORE PUSH1 0x12 PUSH1 0x4 MSTORE PUSH1 0x24 PUSH0 REVERT JUMPDEST PUSH0 PUSH2 0x4888 DUP3 PUSH2 0x3A2E JUMP JUMPDEST SWAP2 POP PUSH2 0x4893 DUP4 PUSH2 0x3A2E JUMP JUMPDEST SWAP3 POP DUP3 PUSH2 0x48A3 JUMPI PUSH2 0x48A2 PUSH2 0x4851 JUMP JUMPDEST JUMPDEST DUP3 DUP3 DIV SWAP1 POP SWAP3 SWAP2 POP POP JUMP JUMPDEST PUSH0 PUSH2 0x48B8 DUP3 PUSH2 0x3A2E JUMP JUMPDEST SWAP2 POP PUSH2 0x48C3 DUP4 PUSH2 0x3A2E JUMP JUMPDEST SWAP3 POP DUP3 DUP3 SUB SWAP1 POP DUP2 DUP2 GT ISZERO PUSH2 0x48DB JUMPI PUSH2 0x48DA PUSH2 0x40F5 JUMP JUMPDEST JUMPDEST SWAP3 SWAP2 POP POP JUMP JUMPDEST PUSH0 PUSH1 0x20 DUP3 ADD SWAP1 POP DUP2 DUP2 SUB PUSH0 DUP4 ADD MSTORE PUSH2 0x48F9 DUP2 DUP5 PUSH2 0x470F JUMP JUMPDEST SWAP1 POP SWAP3 SWAP2 POP POP JUMP JUMPDEST PUSH0 PUSH1 0x40 DUP3 ADD SWAP1 POP DUP2 DUP2 SUB PUSH0 DUP4 ADD MSTORE PUSH2 0x4919 DUP2 DUP6 PUSH2 0x470F JUMP JUMPDEST SWAP1 POP PUSH2 0x4928 PUSH1 0x20 DUP4 ADD DUP5 PUSH2 0x3AE4 JUMP JUMPDEST SWAP4 SWAP3 POP POP POP JUMP JUMPDEST PUSH0 PUSH1 0x40 DUP3 ADD SWAP1 POP PUSH2 0x4942 PUSH0 DUP4 ADD DUP6 PUSH2 0x3ABC JUMP JUMPDEST PUSH2 0x494F PUSH1 0x20 DUP4 ADD DUP5 PUSH2 0x3BD2 JUMP JUMPDEST SWAP4 SWAP3 POP POP POP JUMP JUMPDEST PUSH32 0x4E487B7100000000000000000000000000000000000000000000000000000000 PUSH0 MSTORE PUSH1 0x51 PUSH1 0x4 MSTORE PUSH1 0x24 PUSH0 REVERT INVALID LOG2 PUSH5 0x6970667358 0x22 SLT KECCAK256 MOD KECCAK256 SWAP7 CALLDATACOPY DUP16 SELFBALANCE 0xB0 0xED 0xF7 0xE5 0xD5 SLT 0xEC 0xA7 0x29 PUSH13 0x5C93B275C6BCC244C28F870736 DUP2 INVALID PC PUSH5 0x736F6C6343 STOP ADDMOD NOT STOP CALLER "
		},
		"gasEstimates": {
			"creation": {
				"codeDepositCost": "3774600",
				"executionCost": "infinite",
				"totalCost": "infinite"
			},
			"external": {
				"ADMIN_ROLE()": "371",
				"DEFAULT_ADMIN_ROLE()": "375",
				"WhitelistAmount(address)": "2890",
				"addMultipleToWhitelist(address[],uint256[])": "infinite",
				"addToWhitelist(address,uint256)": "infinite",
				"contractCreator()": "2576",
				"contribute(uint256)": "infinite",
				"contributions(address)": "2847",
				"contributorsList(uint256)": "5035",
				"enableWhitelist(uint256)": "infinite",
				"endRaise()": "infinite",
				"feePercent()": "2515",
				"finaliseRaise()": "infinite",
				"getRoleAdmin(bytes32)": "infinite",
				"grantRole(bytes32,address)": "infinite",
				"hardCap()": "2557",
				"hasRole(bytes32,address)": "3233",
				"increaseHardCap(uint256)": "infinite",
				"isHardCapSet()": "2554",
				"maxContribution()": "2514",
				"minContribution()": "2514",
				"numOfContributors()": "2471",
				"raiseEnded()": "2629",
				"raiseStarted()": "2599",
				"removeFromWhitelist(address)": "infinite",
				"renounceRole(bytes32,address)": "infinite",
				"revokeRole(bytes32,address)": "infinite",
				"setFeePercent(uint256)": "infinite",
				"setMaxContribution(uint256)": "infinite",
				"setMinContribution(uint256)": "infinite",
				"startRaise()": "infinite",
				"superAdmin()": "2642",
				"supportsInterface(bytes4)": "764",
				"totalRaised()": "2469",
				"usdtToken()": "infinite",
				"whitelist(address)": "2966",
				"whitelistEnabled()": "2555"
			},
			"internal": {
				"isContributor(address)": "infinite",
				"setHardCap(uint256)": "22125"
			}
		},
		"methodIdentifiers": {
			"ADMIN_ROLE()": "75b238fc",
			"DEFAULT_ADMIN_ROLE()": "a217fddf",
			"WhitelistAmount(address)": "dbbddcb8",
			"addMultipleToWhitelist(address[],uint256[])": "870670fc",
			"addToWhitelist(address,uint256)": "214405fc",
			"contractCreator()": "1e2f73b1",
			"contribute(uint256)": "c1cbbca7",
			"contributions(address)": "42e94c90",
			"contributorsList(uint256)": "0b9f2c4a",
			"enableWhitelist(uint256)": "0d77c7df",
			"endRaise()": "2b67b671",
			"feePercent()": "7fd6f15c",
			"finaliseRaise()": "8d070e75",
			"getRoleAdmin(bytes32)": "248a9ca3",
			"grantRole(bytes32,address)": "2f2ff15d",
			"hardCap()": "fb86a404",
			"hasRole(bytes32,address)": "91d14854",
			"increaseHardCap(uint256)": "b8e0d08d",
			"isHardCapSet()": "f3e3eaee",
			"maxContribution()": "8d3d6576",
			"minContribution()": "aaffadf3",
			"numOfContributors()": "1e206f15",
			"raiseEnded()": "3e0498d2",
			"raiseStarted()": "708dee5e",
			"removeFromWhitelist(address)": "8ab1d681",
			"renounceRole(bytes32,address)": "36568abe",
			"revokeRole(bytes32,address)": "d547741f",
			"setFeePercent(uint256)": "7ce3489b",
			"setMaxContribution(uint256)": "03ed9d21",
			"setMinContribution(uint256)": "473b0d46",
			"startRaise()": "6d66d2ce",
			"superAdmin()": "29575f6a",
			"supportsInterface(bytes4)": "01ffc9a7",
			"totalRaised()": "c5c4744c",
			"usdtToken()": "a98ad46c",
			"whitelist(address)": "9b19251a",
			"whitelistEnabled()": "51fb012d"
		}
	},
	"abi": [
		{
			"inputs": [
				{
					"internalType": "address",
					"name": "_admin",
					"type": "address"
				},
				{
					"internalType": "address",
					"name": "_superAdmin",
					"type": "address"
				},
				{
					"internalType": "address",
					"name": "stableCoin",
					"type": "address"
				},
				{
					"internalType": "uint256",
					"name": "_maxContribution",
					"type": "uint256"
				},
				{
					"internalType": "uint256",
					"name": "_minContribution",
					"type": "uint256"
				}
			],
			"stateMutability": "nonpayable",
			"type": "constructor"
		},
		{
			"inputs": [],
			"name": "AccessControlBadConfirmation",
			"type": "error"
		},
		{
			"inputs": [
				{
					"internalType": "address",
					"name": "account",
					"type": "address"
				},
				{
					"internalType": "bytes32",
					"name": "neededRole",
					"type": "bytes32"
				}
			],
			"name": "AccessControlUnauthorizedAccount",
			"type": "error"
		},
		{
			"anonymous": false,
			"inputs": [
				{
					"indexed": false,
					"internalType": "uint256",
					"name": "_endTime",
					"type": "uint256"
				}
			],
			"name": "EndTimeSet",
			"type": "event"
		},
		{
			"anonymous": false,
			"inputs": [
				{
					"indexed": false,
					"internalType": "uint256",
					"name": "_newHardCap",
					"type": "uint256"
				}
			],
			"name": "HardCapIncreased",
			"type": "event"
		},
		{
			"anonymous": false,
			"inputs": [
				{
					"indexed": false,
					"internalType": "uint256",
					"name": "_max",
					"type": "uint256"
				}
			],
			"name": "MaxContributionSet",
			"type": "event"
		},
		{
			"anonymous": false,
			"inputs": [
				{
					"indexed": false,
					"internalType": "uint256",
					"name": "_min",
					"type": "uint256"
				}
			],
			"name": "MinContributionSet",
			"type": "event"
		},
		{
			"anonymous": false,
			"inputs": [
				{
					"indexed": true,
					"internalType": "bytes32",
					"name": "role",
					"type": "bytes32"
				},
				{
					"indexed": true,
					"internalType": "bytes32",
					"name": "previousAdminRole",
					"type": "bytes32"
				},
				{
					"indexed": true,
					"internalType": "bytes32",
					"name": "newAdminRole",
					"type": "bytes32"
				}
			],
			"name": "RoleAdminChanged",
			"type": "event"
		},
		{
			"anonymous": false,
			"inputs": [
				{
					"indexed": true,
					"internalType": "bytes32",
					"name": "role",
					"type": "bytes32"
				},
				{
					"indexed": true,
					"internalType": "address",
					"name": "account",
					"type": "address"
				},
				{
					"indexed": true,
					"internalType": "address",
					"name": "sender",
					"type": "address"
				}
			],
			"name": "RoleGranted",
			"type": "event"
		},
		{
			"anonymous": false,
			"inputs": [
				{
					"indexed": true,
					"internalType": "bytes32",
					"name": "role",
					"type": "bytes32"
				},
				{
					"indexed": true,
					"internalType": "address",
					"name": "account",
					"type": "address"
				},
				{
					"indexed": true,
					"internalType": "address",
					"name": "sender",
					"type": "address"
				}
			],
			"name": "RoleRevoked",
			"type": "event"
		},
		{
			"anonymous": false,
			"inputs": [
				{
					"indexed": false,
					"internalType": "uint256",
					"name": "_startTime",
					"type": "uint256"
				}
			],
			"name": "StartTimeSet",
			"type": "event"
		},
		{
			"anonymous": false,
			"inputs": [
				{
					"indexed": false,
					"internalType": "address",
					"name": "_account",
					"type": "address"
				},
				{
					"indexed": false,
					"internalType": "bool",
					"name": "_value",
					"type": "bool"
				}
			],
			"name": "WhitelistUpdated",
			"type": "event"
		},
		{
			"anonymous": false,
			"inputs": [],
			"name": "raiseEndedEvent",
			"type": "event"
		},
		{
			"anonymous": false,
			"inputs": [],
			"name": "raiseStartedEvent",
			"type": "event"
		},
		{
			"anonymous": false,
			"inputs": [
				{
					"indexed": true,
					"internalType": "address",
					"name": "_user",
					"type": "address"
				},
				{
					"indexed": false,
					"internalType": "uint256",
					"name": "_value",
					"type": "uint256"
				},
				{
					"indexed": false,
					"internalType": "uint256",
					"name": "_time",
					"type": "uint256"
				}
			],
			"name": "totalContributed",
			"type": "event"
		},
		{
			"inputs": [],
			"name": "ADMIN_ROLE",
			"outputs": [
				{
					"internalType": "bytes32",
					"name": "",
					"type": "bytes32"
				}
			],
			"stateMutability": "view",
			"type": "function"
		},
		{
			"inputs": [],
			"name": "DEFAULT_ADMIN_ROLE",
			"outputs": [
				{
					"internalType": "bytes32",
					"name": "",
					"type": "bytes32"
				}
			],
			"stateMutability": "view",
			"type": "function"
		},
		{
			"inputs": [
				{
					"internalType": "address",
					"name": "",
					"type": "address"
				}
			],
			"name": "WhitelistAmount",
			"outputs": [
				{
					"internalType": "uint256",
					"name": "",
					"type": "uint256"
				}
			],
			"stateMutability": "view",
			"type": "function"
		},
		{
			"inputs": [
				{
					"internalType": "address[]",
					"name": "_accounts",
					"type": "address[]"
				},
				{
					"internalType": "uint256[]",
					"name": "_contributions",
					"type": "uint256[]"
				}
			],
			"name": "addMultipleToWhitelist",
			"outputs": [],
			"stateMutability": "nonpayable",
			"type": "function"
		},
		{
			"inputs": [
				{
					"internalType": "address",
					"name": "_account",
					"type": "address"
				},
				{
					"internalType": "uint256",
					"name": "_amount",
					"type": "uint256"
				}
			],
			"name": "addToWhitelist",
			"outputs": [],
			"stateMutability": "nonpayable",
			"type": "function"
		},
		{
			"inputs": [],
			"name": "contractCreator",
			"outputs": [
				{
					"internalType": "address",
					"name": "",
					"type": "address"
				}
			],
			"stateMutability": "view",
			"type": "function"
		},
		{
			"inputs": [
				{
					"internalType": "uint256",
					"name": "amount",
					"type": "uint256"
				}
			],
			"name": "contribute",
			"outputs": [],
			"stateMutability": "payable",
			"type": "function"
		},
		{
			"inputs": [
				{
					"internalType": "address",
					"name": "",
					"type": "address"
				}
			],
			"name": "contributions",
			"outputs": [
				{
					"internalType": "uint256",
					"name": "",
					"type": "uint256"
				}
			],
			"stateMutability": "view",
			"type": "function"
		},
		{
			"inputs": [
				{
					"internalType": "uint256",
					"name": "",
					"type": "uint256"
				}
			],
			"name": "contributorsList",
			"outputs": [
				{
					"internalType": "address",
					"name": "",
					"type": "address"
				}
			],
			"stateMutability": "view",
			"type": "function"
		},
		{
			"inputs": [
				{
					"internalType": "uint256",
					"name": "_setHardCap",
					"type": "uint256"
				}
			],
			"name": "enableWhitelist",
			"outputs": [],
			"stateMutability": "nonpayable",
			"type": "function"
		},
		{
			"inputs": [],
			"name": "endRaise",
			"outputs": [],
			"stateMutability": "nonpayable",
			"type": "function"
		},
		{
			"inputs": [],
			"name": "feePercent",
			"outputs": [
				{
					"internalType": "uint256",
					"name": "",
					"type": "uint256"
				}
			],
			"stateMutability": "view",
			"type": "function"
		},
		{
			"inputs": [],
			"name": "finaliseRaise",
			"outputs": [],
			"stateMutability": "payable",
			"type": "function"
		},
		{
			"inputs": [
				{
					"internalType": "bytes32",
					"name": "role",
					"type": "bytes32"
				}
			],
			"name": "getRoleAdmin",
			"outputs": [
				{
					"internalType": "bytes32",
					"name": "",
					"type": "bytes32"
				}
			],
			"stateMutability": "view",
			"type": "function"
		},
		{
			"inputs": [
				{
					"internalType": "bytes32",
					"name": "role",
					"type": "bytes32"
				},
				{
					"internalType": "address",
					"name": "account",
					"type": "address"
				}
			],
			"name": "grantRole",
			"outputs": [],
			"stateMutability": "nonpayable",
			"type": "function"
		},
		{
			"inputs": [],
			"name": "hardCap",
			"outputs": [
				{
					"internalType": "uint256",
					"name": "",
					"type": "uint256"
				}
			],
			"stateMutability": "view",
			"type": "function"
		},
		{
			"inputs": [
				{
					"internalType": "bytes32",
					"name": "role",
					"type": "bytes32"
				},
				{
					"internalType": "address",
					"name": "account",
					"type": "address"
				}
			],
			"name": "hasRole",
			"outputs": [
				{
					"internalType": "bool",
					"name": "",
					"type": "bool"
				}
			],
			"stateMutability": "view",
			"type": "function"
		},
		{
			"inputs": [
				{
					"internalType": "uint256",
					"name": "_newHardCap",
					"type": "uint256"
				}
			],
			"name": "increaseHardCap",
			"outputs": [],
			"stateMutability": "nonpayable",
			"type": "function"
		},
		{
			"inputs": [],
			"name": "isHardCapSet",
			"outputs": [
				{
					"internalType": "bool",
					"name": "",
					"type": "bool"
				}
			],
			"stateMutability": "view",
			"type": "function"
		},
		{
			"inputs": [],
			"name": "maxContribution",
			"outputs": [
				{
					"internalType": "uint256",
					"name": "",
					"type": "uint256"
				}
			],
			"stateMutability": "view",
			"type": "function"
		},
		{
			"inputs": [],
			"name": "minContribution",
			"outputs": [
				{
					"internalType": "uint256",
					"name": "",
					"type": "uint256"
				}
			],
			"stateMutability": "view",
			"type": "function"
		},
		{
			"inputs": [],
			"name": "numOfContributors",
			"outputs": [
				{
					"internalType": "uint256",
					"name": "",
					"type": "uint256"
				}
			],
			"stateMutability": "view",
			"type": "function"
		},
		{
			"inputs": [],
			"name": "raiseEnded",
			"outputs": [
				{
					"internalType": "bool",
					"name": "",
					"type": "bool"
				}
			],
			"stateMutability": "view",
			"type": "function"
		},
		{
			"inputs": [],
			"name": "raiseStarted",
			"outputs": [
				{
					"internalType": "bool",
					"name": "",
					"type": "bool"
				}
			],
			"stateMutability": "view",
			"type": "function"
		},
		{
			"inputs": [
				{
					"internalType": "address",
					"name": "_account",
					"type": "address"
				}
			],
			"name": "removeFromWhitelist",
			"outputs": [],
			"stateMutability": "nonpayable",
			"type": "function"
		},
		{
			"inputs": [
				{
					"internalType": "bytes32",
					"name": "role",
					"type": "bytes32"
				},
				{
					"internalType": "address",
					"name": "callerConfirmation",
					"type": "address"
				}
			],
			"name": "renounceRole",
			"outputs": [],
			"stateMutability": "nonpayable",
			"type": "function"
		},
		{
			"inputs": [
				{
					"internalType": "bytes32",
					"name": "role",
					"type": "bytes32"
				},
				{
					"internalType": "address",
					"name": "account",
					"type": "address"
				}
			],
			"name": "revokeRole",
			"outputs": [],
			"stateMutability": "nonpayable",
			"type": "function"
		},
		{
			"inputs": [
				{
					"internalType": "uint256",
					"name": "_feePercent",
					"type": "uint256"
				}
			],
			"name": "setFeePercent",
			"outputs": [],
			"stateMutability": "nonpayable",
			"type": "function"
		},
		{
			"inputs": [
				{
					"internalType": "uint256",
					"name": "_max",
					"type": "uint256"
				}
			],
			"name": "setMaxContribution",
			"outputs": [],
			"stateMutability": "nonpayable",
			"type": "function"
		},
		{
			"inputs": [
				{
					"internalType": "uint256",
					"name": "_min",
					"type": "uint256"
				}
			],
			"name": "setMinContribution",
			"outputs": [],
			"stateMutability": "nonpayable",
			"type": "function"
		},
		{
			"inputs": [],
			"name": "startRaise",
			"outputs": [],
			"stateMutability": "nonpayable",
			"type": "function"
		},
		{
			"inputs": [],
			"name": "superAdmin",
			"outputs": [
				{
					"internalType": "address",
					"name": "",
					"type": "address"
				}
			],
			"stateMutability": "view",
			"type": "function"
		},
		{
			"inputs": [
				{
					"internalType": "bytes4",
					"name": "interfaceId",
					"type": "bytes4"
				}
			],
			"name": "supportsInterface",
			"outputs": [
				{
					"internalType": "bool",
					"name": "",
					"type": "bool"
				}
			],
			"stateMutability": "view",
			"type": "function"
		},
		{
			"inputs": [],
			"name": "totalRaised",
			"outputs": [
				{
					"internalType": "uint256",
					"name": "",
					"type": "uint256"
				}
			],
			"stateMutability": "view",
			"type": "function"
		},
		{
			"inputs": [],
			"name": "usdtToken",
			"outputs": [
				{
					"internalType": "contract IERC20",
					"name": "",
					"type": "address"
				}
			],
			"stateMutability": "view",
			"type": "function"
		},
		{
			"inputs": [
				{
					"internalType": "address",
					"name": "",
					"type": "address"
				}
			],
			"name": "whitelist",
			"outputs": [
				{
					"internalType": "bool",
					"name": "",
					"type": "bool"
				}
			],
			"stateMutability": "view",
			"type": "function"
		},
		{
			"inputs": [],
			"name": "whitelistEnabled",
			"outputs": [
				{
					"internalType": "bool",
					"name": "",
					"type": "bool"
				}
			],
			"stateMutability": "view",
			"type": "function"
		},
		{
			"stateMutability": "payable",
			"type": "receive"
		}
	]
}