{
	"data": {
		"bytecode": {
			"linkReferences": {},
			"object": "60a06040523073ffffffffffffffffffffffffffffffffffffffff1660809073ffffffffffffffffffffffffffffffffffffffff16815250348015610042575f80fd5b50608051614dd26100695f395f81816129aa015281816129ff0152612bbe0152614dd25ff3fe608060405260043610610292575f3560e01c80638129fc1c11610159578063ac9de2a4116100c0578063d547741f11610079578063d547741f146109ff578063d610bc3514610a27578063db187d3714610a4f578063ec9b5cb214610a79578063f4ab292814610aa3578063fc44c5c414610acd57610292565b8063ac9de2a4146108f7578063ad3cb1cc1461091f578063bea65da814610949578063c0e0db1514610985578063c4ae3168146109c1578063cbcf1536146109d757610292565b80638dedf009116101125780638dedf009146107c05780638e96ad4f1461080157806390a99c2d1461083d57806391d148541461086757806395d89b41146108a3578063a217fddf146108cd57610292565b80638129fc1c146106ee578063833b16c11461070457806384a1931f1461072c57806386643e1a1461075657806386d1a69f1461078057806387ceff091461079657610292565b806351e2460e116101fd5780636386c1c7116101b65780636386c1c7146105be578063651a26d1146105fa57806370a082311461062457806374fba3301461066057806375d3cdd2146106765780637704cb0b146106b257610292565b806351e2460e146104a057806352d1902d146104ca57806356158a7e146104f45780635698ff0f146105305780635a0f40741461055a5780635cc45a701461058257610292565b80632f2ff15d1161024f5780632f2ff15d146103b6578063313ce567146103de5780633145c50d146104085780633360caa01461043257806336568abe1461045c5780634f1ef2861461048457610292565b806301ffc9a714610296578063038ff17a146102d257806306fdde03146102fc57806314359e1014610326578063248a9ca314610350578063254800d41461038c575b5f80fd5b3480156102a1575f80fd5b506102bc60048036038101906102b791906138c7565b610b09565b6040516102c9919061390c565b60405180910390f35b3480156102dd575f80fd5b506102e6610b82565b6040516102f39190613940565b60405180910390f35b348015610307575f80fd5b50610310610b94565b60405161031d91906139e3565b60405180910390f35b348015610331575f80fd5b5061033a610c24565b604051610347919061390c565b60405180910390f35b34801561035b575f80fd5b5061037660048036038101906103719190613a36565b610c37565b6040516103839190613a70565b60405180910390f35b348015610397575f80fd5b506103a0610c61565b6040516103ad9190613aa1565b60405180910390f35b3480156103c1575f80fd5b506103dc60048036038101906103d79190613b14565b610c67565b005b3480156103e9575f80fd5b506103f2610c89565b6040516103ff9190613aa1565b60405180910390f35b348015610413575f80fd5b5061041c610c91565b6040516104299190613aa1565b60405180910390f35b34801561043d575f80fd5b50610446610c97565b6040516104539190613aa1565b60405180910390f35b348015610467575f80fd5b50610482600480360381019061047d9190613b14565b610c9d565b005b61049e60048036038101906104999190613c7e565b610d18565b005b3480156104ab575f80fd5b506104b4610d37565b6040516104c19190613aa1565b60405180910390f35b3480156104d5575f80fd5b506104de610d3d565b6040516104eb9190613a70565b60405180910390f35b3480156104ff575f80fd5b5061051a60048036038101906105159190613d02565b610d6e565b604051610527919061390c565b60405180910390f35b34801561053b575f80fd5b50610544610d98565b6040516105519190613e09565b60405180910390f35b348015610565575f80fd5b50610580600480360381019061057b9190613e29565b610e23565b005b34801561058d575f80fd5b506105a860048036038101906105a39190613e67565b611284565b6040516105b59190613fde565b60405180910390f35b3480156105c9575f80fd5b506105e460048036038101906105df9190613e67565b6113b6565b6040516105f191906140d1565b60405180910390f35b348015610605575f80fd5b5061060e6114ae565b60405161061b9190613aa1565b60405180910390f35b34801561062f575f80fd5b5061064a60048036038101906106459190613e67565b6114db565b6040516106579190613aa1565b60405180910390f35b34801561066b575f80fd5b50610674611523565b005b348015610681575f80fd5b5061069c600480360381019061069791906140eb565b61155c565b6040516106a99190613aa1565b60405180910390f35b3480156106bd575f80fd5b506106d860048036038101906106d391906141de565b61158b565b6040516106e5919061390c565b60405180910390f35b3480156106f9575f80fd5b50610702611acf565b005b34801561070f575f80fd5b5061072a60048036038101906107259190613e67565b611f65565b005b348015610737575f80fd5b50610740611fa0565b60405161074d9190613aa1565b60405180910390f35b348015610761575f80fd5b5061076a611fa6565b6040516107779190613a70565b60405180910390f35b34801561078b575f80fd5b50610794611fca565b005b3480156107a1575f80fd5b506107aa612063565b6040516107b79190613aa1565b60405180910390f35b3480156107cb575f80fd5b506107e660048036038101906107e19190613e67565b61206c565b6040516107f89695949392919061425e565b60405180910390f35b34801561080c575f80fd5b5061082760048036038101906108229190613e67565b6121a4565b6040516108349190613aa1565b60405180910390f35b348015610848575f80fd5b506108516121ed565b60405161085e9190613aa1565b60405180910390f35b348015610872575f80fd5b5061088d60048036038101906108889190613b14565b612206565b60405161089a919061390c565b60405180910390f35b3480156108ae575f80fd5b506108b7612277565b6040516108c491906139e3565b60405180910390f35b3480156108d8575f80fd5b506108e1612307565b6040516108ee9190613a70565b60405180910390f35b348015610902575f80fd5b5061091d60048036038101906109189190613d02565b61230d565b005b34801561092a575f80fd5b50610933612323565b60405161094091906139e3565b60405180910390f35b348015610954575f80fd5b5061096f600480360381019061096a91906140eb565b61235c565b60405161097c9190613aa1565b60405180910390f35b348015610990575f80fd5b506109ab60048036038101906109a69190613e67565b612375565b6040516109b89190613aa1565b60405180910390f35b3480156109cc575f80fd5b506109d5612399565b005b3480156109e2575f80fd5b506109fd60048036038101906109f89190613e67565b6123d0565b005b348015610a0a575f80fd5b50610a256004803603810190610a209190613b14565b612617565b005b348015610a32575f80fd5b50610a4d6004803603810190610a4891906142e7565b612639565b005b348015610a5a575f80fd5b50610a636126c5565b604051610a709190613aa1565b60405180910390f35b348015610a84575f80fd5b50610a8d6126cb565b604051610a9a9190613aa1565b60405180910390f35b348015610aae575f80fd5b50610ab76126d1565b604051610ac4919061390c565b60405180910390f35b348015610ad8575f80fd5b50610af36004803603810190610aee9190613d02565b6126e3565b604051610b00919061390c565b60405180910390f35b5f7f7965db0b000000000000000000000000000000000000000000000000000000007bffffffffffffffffffffffffffffffffffffffffffffffffffffffff1916827bffffffffffffffffffffffffffffffffffffffffffffffffffffffff19161480610b7b5750610b7a8261270d565b5b9050919050565b600c5f9054906101000a900460ff1681565b606060088054610ba39061438b565b80601f0160208091040260200160405190810160405280929190818152602001828054610bcf9061438b565b8015610c1a5780601f10610bf157610100808354040283529160200191610c1a565b820191905f5260205f20905b815481529060010190602001808311610bfd57829003601f168201915b5050505050905090565b600e60019054906101000a900460ff1681565b5f80610c41612776565b9050805f015f8481526020019081526020015f2060010154915050919050565b60025481565b610c7082610c37565b610c798161279d565b610c8383836127b1565b50505050565b5f6012905090565b600d5481565b60045481565b610ca56128a9565b73ffffffffffffffffffffffffffffffffffffffff168173ffffffffffffffffffffffffffffffffffffffff1614610d09576040517f6697b23200000000000000000000000000000000000000000000000000000000815260040160405180910390fd5b610d1382826128b0565b505050565b610d206129a8565b610d2982612a8e565b610d338282612a9e565b5050565b60075481565b5f610d46612bbc565b7f360894a13ba1a3210667c828492db98dca3e2076cc3735a920a3ca505d382bbc5f1b905090565b5f805f1b610d7b8161279d565b610d86858585612c43565b60078190555060019150509392505050565b6060600b805480602002602001604051908101604052809291908181526020018280548015610e1957602002820191905f5260205f20905b815f9054906101000a900473ffffffffffffffffffffffffffffffffffffffff1673ffffffffffffffffffffffffffffffffffffffff1681526020019060010190808311610dd0575b5050505050905090565b5f801b610e2f8161279d565b5f73ffffffffffffffffffffffffffffffffffffffff168273ffffffffffffffffffffffffffffffffffffffff1603610e9d576040517f08c379a0000000000000000000000000000000000000000000000000000000008152600401610e949061442b565b60405180910390fd5b5f60205f8573ffffffffffffffffffffffffffffffffffffffff1673ffffffffffffffffffffffffffffffffffffffff1681526020019081526020015f20604051806101200160405290815f820154815260200160018201548152602001600282015481526020016003820154815260200160048201548152602001600582015f9054906101000a900460ff161515151581526020016005820160019054906101000a900460ff1660ff1660ff1681526020016005820160029054906101000a900460ff1660ff1660ff1681526020016005820160039054906101000a900460ff16151515158152505090508060205f8573ffffffffffffffffffffffffffffffffffffffff1673ffffffffffffffffffffffffffffffffffffffff1681526020019081526020015f205f820151815f01556020820151816001015560408201518160020155606082015181600301556080820151816004015560a0820151816005015f6101000a81548160ff02191690831515021790555060c08201518160050160016101000a81548160ff021916908360ff16021790555060e08201518160050160026101000a81548160ff021916908360ff1602179055506101008201518160050160036101000a81548160ff0219169083151502179055509050505f5b600a805490508110156111cc575f600a82815481106110a05761109f614449565b5b905f5260205f20015f9054906101000a900473ffffffffffffffffffffffffffffffffffffffff169050600b86908060018154018082558091505060019003905f5260205f20015f9091909190916101000a81548173ffffffffffffffffffffffffffffffffffffffff021916908373ffffffffffffffffffffffffffffffffffffffff1602179055508573ffffffffffffffffffffffffffffffffffffffff168173ffffffffffffffffffffffffffffffffffffffff16036111b85784600a838154811061117257611171614449565b5b905f5260205f20015f6101000a81548173ffffffffffffffffffffffffffffffffffffffff021916908373ffffffffffffffffffffffffffffffffffffffff1602179055505b5080806111c4906144a3565b91505061107e565b5060205f8573ffffffffffffffffffffffffffffffffffffffff1673ffffffffffffffffffffffffffffffffffffffff1681526020019081526020015f205f8082015f9055600182015f9055600282015f9055600382015f9055600482015f9055600582015f6101000a81549060ff02191690556005820160016101000a81549060ff02191690556005820160026101000a81549060ff02191690556005820160036101000a81549060ff0219169055505050505050565b606060015f8373ffffffffffffffffffffffffffffffffffffffff1673ffffffffffffffffffffffffffffffffffffffff1681526020019081526020015f20805480602002602001604051908101604052809291908181526020015f905b828210156113ab578382905f5260205f2090600202016040518060400160405290815f820154815260200160018201805461131c9061438b565b80601f01602080910402602001604051908101604052809291908181526020018280546113489061438b565b80156113935780601f1061136a57610100808354040283529160200191611393565b820191905f5260205f20905b81548152906001019060200180831161137657829003601f168201915b505050505081525050815260200190600101906112e2565b505050509050919050565b6113be6137af565b60205f8373ffffffffffffffffffffffffffffffffffffffff1673ffffffffffffffffffffffffffffffffffffffff1681526020019081526020015f20604051806101200160405290815f820154815260200160018201548152602001600282015481526020016003820154815260200160048201548152602001600582015f9054906101000a900460ff161515151581526020016005820160019054906101000a900460ff1660ff1660ff1681526020016005820160029054906101000a900460ff1660ff1660ff1681526020016005820160039054906101000a900460ff1615151515815250509050919050565b5f805f1b6114bb8161279d565b6114c3612c66565b600c5f9054906101000a900460ff1660ff1691505090565b5f60205f8373ffffffffffffffffffffffffffffffffffffffff1673ffffffffffffffffffffffffffffffffffffffff1681526020019081526020015f205f01549050919050565b5f801b61152f8161279d565b600e60019054906101000a900460ff1615600e60016101000a81548160ff02191690831515021790555050565b5f81600e61156a91906144ea565b601054600f5461157a91906144ea565b611584919061454a565b9050919050565b5f600e5f9054906101000a900460ff16156115db576040517f08c379a00000000000000000000000000000000000000000000000000000000081526004016115d2906145c4565b60405180910390fd5b7f48e5fdd69e4b589d17e7c305de95d4b0add4d0e03e1845ddf8daddec4bb0617b6116058161279d565b5f73ffffffffffffffffffffffffffffffffffffffff168673ffffffffffffffffffffffffffffffffffffffff1603611673576040517f08c379a000000000000000000000000000000000000000000000000000000000815260040161166a9061462c565b60405180910390fd5b61167b612c66565b5f60205f8873ffffffffffffffffffffffffffffffffffffffff1673ffffffffffffffffffffffffffffffffffffffff1681526020019081526020015f209050806005015f9054906101000a900460ff16611832576116d8612063565b81600301819055506001816005015f6101000a81548160ff021916908315150217905550600a87908060018154018082558091505060019003905f5260205f20015f9091909190916101000a81548173ffffffffffffffffffffffffffffffffffffffff021916908373ffffffffffffffffffffffffffffffffffffffff16021790555084156117be575f8160050160026101000a81548160ff021916908360ff1602179055505f8160050160016101000a81548160ff021916908360ff16021790555060018160050160036101000a81548160ff021916908315150217905550611831565b600c5f9054906101000a900460ff168160050160026101000a81548160ff021916908360ff160217905550600c5f9054906101000a900460ff168160050160016101000a81548160ff021916908360ff1602179055505f8160050160036101000a81548160ff0219169083151502179055505b5b84156118d0576064606287611847919061464a565b611851919061454a565b815f015f828254611862919061468b565b925050819055506064600287611878919061464a565b611882919061454a565b816001015f828254611894919061468b565b9250508190555060646062876118aa919061464a565b6118b4919061454a565b600f5f8282546118c4919061468b565b925050819055506119d7565b5f6006546118dc612063565b1180156118f157506007546118ef612063565b105b15611940575f6064600289611906919061464a565b611910919061454a565b905080836001015f828254611925919061468b565b92505081905550808861193891906144ea565b915050611944565b8690505b5f8260050160019054906101000a900460ff1660ff16600e83611967919061454a565b611971919061464a565b905080836001015f828254611986919061468b565b92505081905550808261199991906144ea565b835f015f8282546119aa919061468b565b9250508190555080826119bd91906144ea565b600f5f8282546119cd919061468b565b9250508190555050505b60015f8873ffffffffffffffffffffffffffffffffffffffff1673ffffffffffffffffffffffffffffffffffffffff1681526020019081526020015f20604051806040016040528088815260200186815250908060018154018082558091505060019003905f5260205f2090600202015f909190919091505f820151815f01556020820151816001019081611a6c919061485b565b5050508673ffffffffffffffffffffffffffffffffffffffff167f2c6e3df7a6dc07523667e913299465c2d89fcb003039bf78a016a810ace60dab878787604051611ab99392919061492a565b60405180910390a2600192505050949350505050565b5f611ad8612de5565b90505f815f0160089054906101000a900460ff161590505f825f015f9054906101000a900467ffffffffffffffff1690505f808267ffffffffffffffff16148015611b205750825b90505f60018367ffffffffffffffff16148015611b5357505f3073ffffffffffffffffffffffffffffffffffffffff163b145b905081158015611b61575080155b15611b98576040517ff92ee8a900000000000000000000000000000000000000000000000000000000815260040160405180910390fd5b6001855f015f6101000a81548167ffffffffffffffff021916908367ffffffffffffffff1602179055508315611be5576001855f0160086101000a81548160ff0219169083151502179055505b611bed612e0c565b6040518060400160405280600a81526020017f766573746564434946440000000000000000000000000000000000000000000081525060089081611c31919061485b565b506040518060400160405280600581526020017f564349464400000000000000000000000000000000000000000000000000000081525060099081611c76919061485b565b50604051806101c00160405280611c926107e7600b6010612c43565b8152602001611ca66107e7600c6010612c43565b8152602001611cba6107e860016010612c43565b8152602001611cce6107e860026010612c43565b8152602001611ce26107e860036010612c43565b8152602001611cf66107e860046010612c43565b8152602001611d0a6107e860056010612c43565b8152602001611d1e6107e860066010612c43565b8152602001611d326107e860076010612c43565b8152602001611d466107e860086010612c43565b8152602001611d5a6107e860096010612c43565b8152602001611d6e6107e8600a6010612c43565b8152602001611d826107e8600b6010612c43565b8152602001611d966107e8600c6010612c43565b815250601290600e611da99291906137fc565b50611db96107e7600b6010612c43565b600281905550611dce6107e8600c6010612c43565b600381905550611de36107e76009600f612c43565b600681905550611df86107e860016012612c43565b600781905550611e0d6107e76009600f612c43565b600481905550611e226107e860016012612c43565b60058190555042600d819055503360115f6101000a81548173ffffffffffffffffffffffffffffffffffffffff021916908373ffffffffffffffffffffffffffffffffffffffff1602179055506001600e60016101000a81548160ff021916908315150217905550611eb75f801b60115f9054906101000a900473ffffffffffffffffffffffffffffffffffffffff166127b1565b50611f037f48e5fdd69e4b589d17e7c305de95d4b0add4d0e03e1845ddf8daddec4bb0617b60115f9054906101000a900473ffffffffffffffffffffffffffffffffffffffff166127b1565b508315611f5e575f855f0160086101000a81548160ff0219169083151502179055507fc7f505b2f371ae2175ee4913f4499e1f2633a7b5936321eed1cdaeb6115181d26001604051611f5591906149b2565b60405180910390a15b5050505050565b5f801b611f718161279d565b611f9b7f48e5fdd69e4b589d17e7c305de95d4b0add4d0e03e1845ddf8daddec4bb0617b836127b1565b505050565b60035481565b7f48e5fdd69e4b589d17e7c305de95d4b0add4d0e03e1845ddf8daddec4bb0617b81565b7f48e5fdd69e4b589d17e7c305de95d4b0add4d0e03e1845ddf8daddec4bb0617b611ff48161279d565b5f600a8054905090505f5b8181101561205e5761204b600a828154811061201e5761201d614449565b5b905f5260205f20015f9054906101000a900473ffffffffffffffffffffffffffffffffffffffff166123d0565b8080612056906144a3565b915050611fff565b505050565b5f600d54905090565b5f805f805f805f60205f8973ffffffffffffffffffffffffffffffffffffffff1673ffffffffffffffffffffffffffffffffffffffff1681526020019081526020015f20604051806101200160405290815f820154815260200160018201548152602001600282015481526020016003820154815260200160048201548152602001600582015f9054906101000a900460ff161515151581526020016005820160019054906101000a900460ff1660ff1660ff1681526020016005820160029054906101000a900460ff1660ff1660ff1681526020016005820160039054906101000a900460ff16151515158152505090508060c0015160ff16965080602001519450806040015193508060e0015160ff169250805f015195508060a00151612195575f612198565b60015b91505091939550919395565b5f60205f8373ffffffffffffffffffffffffffffffffffffffff1673ffffffffffffffffffffffffffffffffffffffff1681526020019081526020015f20600201549050919050565b5f805f1b6121fa8161279d565b600a8054905091505090565b5f80612210612776565b9050805f015f8581526020019081526020015f205f015f8473ffffffffffffffffffffffffffffffffffffffff1673ffffffffffffffffffffffffffffffffffffffff1681526020019081526020015f205f9054906101000a900460ff1691505092915050565b6060600980546122869061438b565b80601f01602080910402602001604051908101604052809291908181526020018280546122b29061438b565b80156122fd5780601f106122d4576101008083540402835291602001916122fd565b820191905f5260205f20905b8154815290600101906020018083116122e057829003601f168201915b5050505050905090565b5f801b81565b612318838383612c43565b600d81905550505050565b6040518060400160405280600581526020017f352e302e3000000000000000000000000000000000000000000000000000000081525081565b601281600e811061236b575f80fd5b015f915090505481565b5f61237f82612e16565b61238883612f49565b612392919061468b565b9050919050565b5f801b6123a58161279d565b600e5f9054906101000a900460ff1615600e5f6101000a81548160ff02191690831515021790555050565b600e5f9054906101000a900460ff161561241f576040517f08c379a0000000000000000000000000000000000000000000000000000000008152600401612416906145c4565b60405180910390fd5b5f801b61242b8161279d565b5f60205f8473ffffffffffffffffffffffffffffffffffffffff1673ffffffffffffffffffffffffffffffffffffffff1681526020019081526020015f209050806005015f9054906101000a900460ff166124bb576040517f08c379a00000000000000000000000000000000000000000000000000000000081526004016124b290614a15565b60405180910390fd5b6124c3612c66565b5f6124cc612063565b90505f600e600c5f9054906101000a900460ff1660ff16146124f8576124f185612f49565b90506124ff565b825f015490505b80835f015f82825461251191906144ea565b925050819055508060105f828254612529919061468b565b925050819055505f61253a86612e16565b90505f81111561255c578082612550919061468b565b91505f84600101819055505b61259b826040518060400160405280601c81526020017f636c61696d61626c6520616d6f756e74206f6620746865207573657200000000815250613107565b828460040181905550600c5f9054906101000a900460ff168460050160016101000a81548160ff021916908360ff16021790555081846002015f8282546125e2919061468b565b925050819055505f845f01541161260f575f846005015f6101000a81548160ff0219169083151502179055505b505050505050565b61262082610c37565b6126298161279d565b61263383836128b0565b50505050565b5f801b6126458161279d565b5f60205f8873ffffffffffffffffffffffffffffffffffffffff1673ffffffffffffffffffffffffffffffffffffffff1681526020019081526020015f209050838160020181905550858160050160016101000a81548160ff021916908360ff16021790555084815f018190555082816001018190555050505050505050565b60065481565b60055481565b600e5f9054906101000a900460ff1681565b5f805f1b6126f08161279d565b6126fb858585612c43565b60058190555060019150509392505050565b5f7f01ffc9a7000000000000000000000000000000000000000000000000000000007bffffffffffffffffffffffffffffffffffffffffffffffffffffffff1916827bffffffffffffffffffffffffffffffffffffffffffffffffffffffff1916149050919050565b5f7f02dd7bc7dec4dceedda775e58dd541e08a116c6c53815c0bd028192f7b626800905090565b6127ae816127a96128a9565b6131a3565b50565b5f806127bb612776565b90506127c78484612206565b61289e576001815f015f8681526020019081526020015f205f015f8573ffffffffffffffffffffffffffffffffffffffff1673ffffffffffffffffffffffffffffffffffffffff1681526020019081526020015f205f6101000a81548160ff02191690831515021790555061283a6128a9565b73ffffffffffffffffffffffffffffffffffffffff168373ffffffffffffffffffffffffffffffffffffffff16857f2f8788117e7eff1d82e926ec794901d17c78024a50270940304540a733656f0d60405160405180910390a460019150506128a3565b5f9150505b92915050565b5f33905090565b5f806128ba612776565b90506128c68484612206565b1561299d575f815f015f8681526020019081526020015f205f015f8573ffffffffffffffffffffffffffffffffffffffff1673ffffffffffffffffffffffffffffffffffffffff1681526020019081526020015f205f6101000a81548160ff0219169083151502179055506129396128a9565b73ffffffffffffffffffffffffffffffffffffffff168373ffffffffffffffffffffffffffffffffffffffff16857ff6391f5c32d9c69d2a47ea670b442974b53935d1edc7fd64eb21e047a839171b60405160405180910390a460019150506129a2565b5f9150505b92915050565b7f000000000000000000000000000000000000000000000000000000000000000073ffffffffffffffffffffffffffffffffffffffff163073ffffffffffffffffffffffffffffffffffffffff161480612a5557507f000000000000000000000000000000000000000000000000000000000000000073ffffffffffffffffffffffffffffffffffffffff16612a3c6131f4565b73ffffffffffffffffffffffffffffffffffffffff1614155b15612a8c576040517fe07c8dba00000000000000000000000000000000000000000000000000000000815260040160405180910390fd5b565b5f801b612a9a8161279d565b5050565b8173ffffffffffffffffffffffffffffffffffffffff166352d1902d6040518163ffffffff1660e01b8152600401602060405180830381865afa925050508015612b0657506040513d601f19601f82011682018060405250810190612b039190614a47565b60015b612b4757816040517f4c9c8ce3000000000000000000000000000000000000000000000000000000008152600401612b3e9190614a81565b60405180910390fd5b7f360894a13ba1a3210667c828492db98dca3e2076cc3735a920a3ca505d382bbc5f1b8114612bad57806040517faa1d49a4000000000000000000000000000000000000000000000000000000008152600401612ba49190613a70565b60405180910390fd5b612bb78383613247565b505050565b7f000000000000000000000000000000000000000000000000000000000000000073ffffffffffffffffffffffffffffffffffffffff163073ffffffffffffffffffffffffffffffffffffffff1614612c41576040517fe07c8dba00000000000000000000000000000000000000000000000000000000815260040160405180910390fd5b565b5f62015180612c538585856132b9565b612c5d919061464a565b90509392505050565b5f600c5f9054906101000a900460ff1690505f5b600e8160ff161015612d3e5760128160ff16600e8110612c9d57612c9c614449565b5b0154612ca7612063565b10612cc057600181612cb99190614a9a565b9150612ce9565b60125f600e8110612cd457612cd3614449565b5b0154612cde612063565b1015612ce8575f91505b5b612d2b6040518060400160405280601581526020017f63757272656e742076657374696e67206379636c6500000000000000000000008152508360ff16613412565b8080612d3690614ace565b915050612c7a565b50600c5f9054906101000a900460ff1660ff168160ff1614612de257600e8160ff161115612d8257600e600c5f6101000a81548160ff021916908360ff1602179055505b80600c5f6101000a81548160ff021916908360ff1602179055507fae3d52e508cbd1ea5bc31391f7e35b3b98e8037342eaf181e2f0644b50dbe7ca600c5f9054906101000a900460ff16604051612dd99190613940565b60405180910390a15b50565b5f7ff0c57e16840df040f15088dc2f81fe391c3923bec73e23a9662efc9c229c6a00905090565b612e146134ae565b565b5f8060205f8473ffffffffffffffffffffffffffffffffffffffff1673ffffffffffffffffffffffffffffffffffffffff1681526020019081526020015f20604051806101200160405290815f820154815260200160018201548152602001600282015481526020016003820154815260200160048201548152602001600582015f9054906101000a900460ff161515151581526020016005820160019054906101000a900460ff1660ff1660ff1681526020016005820160029054906101000a900460ff1660ff1660ff1681526020016005820160039054906101000a900460ff16151515158152505090505f8160200151118015612f2d575062015180600454612f2291906144ea565b612f2a612063565b10155b15612f3f578060200151915050612f44565b5f9150505b919050565b5f8060205f8473ffffffffffffffffffffffffffffffffffffffff1673ffffffffffffffffffffffffffffffffffffffff1681526020019081526020015f20604051806101200160405290815f820154815260200160018201548152602001600282015481526020016003820154815260200160048201548152602001600582015f9054906101000a900460ff161515151581526020016005820160019054906101000a900460ff1660ff1660ff1681526020016005820160029054906101000a900460ff1660ff1660ff1681526020016005820160039054906101000a900460ff16151515158152505090505f8160c00151600e6130489190614af6565b90505f8260c00151600c5f9054906101000a900460ff166130699190614af6565b90505f8260ff161115801561308157505f835f015111155b801561309057505f8160ff1611155b156130a0575f9350505050613102565b5f8260ff16670de0b6b3a7640000855f015102816130c1576130c061451d565b5b049050670de0b6b3a76400008260ff16826130dc919061464a565b6130e6919061454a565b9050835f01518111156130fa57835f015190505b809450505050505b919050565b61319f828260405160240161311d929190614b2a565b6040516020818303038152906040527f643fd0df000000000000000000000000000000000000000000000000000000007bffffffffffffffffffffffffffffffffffffffffffffffffffffffff19166020820180517bffffffffffffffffffffffffffffffffffffffffffffffffffffffff83818316178352505050506134ee565b5050565b6131ad8282612206565b6131f05780826040517fe2517d3f0000000000000000000000000000000000000000000000000000000081526004016131e7929190614b58565b60405180910390fd5b5050565b5f6132207f360894a13ba1a3210667c828492db98dca3e2076cc3735a920a3ca505d382bbc5f1b613508565b5f015f9054906101000a900473ffffffffffffffffffffffffffffffffffffffff16905090565b61325082613511565b8173ffffffffffffffffffffffffffffffffffffffff167fbc7cd75a20ee27fd9adebab32041f755214dbc6bffa90cc0225b39da2e5c2d3b60405160405180910390a25f815111156132ac576132a682826135da565b506132b5565b6132b461365a565b5b5050565b5f6107b28410156132c8575f80fd5b5f8490505f8490505f8490505f62253d8c60046064600c600e876132ec9190614b88565b6132f69190614bc8565b611324886133049190614c30565b61330e9190614c30565b6133189190614bc8565b60036133249190614c71565b61332e9190614bc8565b600c80600c600e886133409190614b88565b61334a9190614bc8565b6133549190614c71565b6002876133619190614b88565b61336b9190614b88565b61016f6133789190614c71565b6133829190614bc8565b6004600c600e886133939190614b88565b61339d9190614bc8565b6112c0896133ab9190614c30565b6133b59190614c30565b6105b56133c29190614c71565b6133cc9190614bc8565b617d4b866133da9190614b88565b6133e49190614c30565b6133ee9190614c30565b6133f89190614b88565b6134029190614b88565b9050809450505050509392505050565b6134aa8282604051602401613428929190614ce7565b6040516020818303038152906040527fb60e72cc000000000000000000000000000000000000000000000000000000007bffffffffffffffffffffffffffffffffffffffffffffffffffffffff19166020820180517bffffffffffffffffffffffffffffffffffffffffffffffffffffffff83818316178352505050506134ee565b5050565b6134b6613696565b6134ec576040517fd7e6bcf800000000000000000000000000000000000000000000000000000000815260040160405180910390fd5b565b613505816134fd6136b46136d3565b63ffffffff16565b50565b5f819050919050565b5f8173ffffffffffffffffffffffffffffffffffffffff163b0361356c57806040517f4c9c8ce30000000000000000000000000000000000000000000000000000000081526004016135639190614a81565b60405180910390fd5b806135987f360894a13ba1a3210667c828492db98dca3e2076cc3735a920a3ca505d382bbc5f1b613508565b5f015f6101000a81548173ffffffffffffffffffffffffffffffffffffffff021916908373ffffffffffffffffffffffffffffffffffffffff16021790555050565b60605f808473ffffffffffffffffffffffffffffffffffffffff16846040516136039190614d59565b5f60405180830381855af49150503d805f811461363b576040519150601f19603f3d011682016040523d82523d5f602084013e613640565b606091505b50915091506136508583836136de565b9250505092915050565b5f341115613694576040517fb398979f00000000000000000000000000000000000000000000000000000000815260040160405180910390fd5b565b5f61369f612de5565b5f0160089054906101000a900460ff16905090565b5f6a636f6e736f6c652e6c6f6790505f80835160208501845afa505050565b61383c819050919050565b6060826136f3576136ee8261376b565b613763565b5f825114801561371957505f8473ffffffffffffffffffffffffffffffffffffffff163b145b1561375b57836040517f9996b3150000000000000000000000000000000000000000000000000000000081526004016137529190614a81565b60405180910390fd5b819050613764565b5b9392505050565b5f8151111561377d5780518082602001fd5b6040517f1425ea4200000000000000000000000000000000000000000000000000000000815260040160405180910390fd5b6040518061012001604052805f81526020015f81526020015f81526020015f81526020015f81526020015f151581526020015f60ff1681526020015f60ff1681526020015f151581525090565b82600e810192821561382b579160200282015b8281111561382a57825182559160200191906001019061380f565b5b5090506138389190613846565b5090565b613844614d6f565b565b5b8082111561385d575f815f905550600101613847565b5090565b5f604051905090565b5f80fd5b5f80fd5b5f7fffffffff0000000000000000000000000000000000000000000000000000000082169050919050565b6138a681613872565b81146138b0575f80fd5b50565b5f813590506138c18161389d565b92915050565b5f602082840312156138dc576138db61386a565b5b5f6138e9848285016138b3565b91505092915050565b5f8115159050919050565b613906816138f2565b82525050565b5f60208201905061391f5f8301846138fd565b92915050565b5f60ff82169050919050565b61393a81613925565b82525050565b5f6020820190506139535f830184613931565b92915050565b5f81519050919050565b5f82825260208201905092915050565b5f5b83811015613990578082015181840152602081019050613975565b5f8484015250505050565b5f601f19601f8301169050919050565b5f6139b582613959565b6139bf8185613963565b93506139cf818560208601613973565b6139d88161399b565b840191505092915050565b5f6020820190508181035f8301526139fb81846139ab565b905092915050565b5f819050919050565b613a1581613a03565b8114613a1f575f80fd5b50565b5f81359050613a3081613a0c565b92915050565b5f60208284031215613a4b57613a4a61386a565b5b5f613a5884828501613a22565b91505092915050565b613a6a81613a03565b82525050565b5f602082019050613a835f830184613a61565b92915050565b5f819050919050565b613a9b81613a89565b82525050565b5f602082019050613ab45f830184613a92565b92915050565b5f73ffffffffffffffffffffffffffffffffffffffff82169050919050565b5f613ae382613aba565b9050919050565b613af381613ad9565b8114613afd575f80fd5b50565b5f81359050613b0e81613aea565b92915050565b5f8060408385031215613b2a57613b2961386a565b5b5f613b3785828601613a22565b9250506020613b4885828601613b00565b9150509250929050565b5f80fd5b5f80fd5b7f4e487b71000000000000000000000000000000000000000000000000000000005f52604160045260245ffd5b613b908261399b565b810181811067ffffffffffffffff82111715613baf57613bae613b5a565b5b80604052505050565b5f613bc1613861565b9050613bcd8282613b87565b919050565b5f67ffffffffffffffff821115613bec57613beb613b5a565b5b613bf58261399b565b9050602081019050919050565b828183375f83830152505050565b5f613c22613c1d84613bd2565b613bb8565b905082815260208101848484011115613c3e57613c3d613b56565b5b613c49848285613c02565b509392505050565b5f82601f830112613c6557613c64613b52565b5b8135613c75848260208601613c10565b91505092915050565b5f8060408385031215613c9457613c9361386a565b5b5f613ca185828601613b00565b925050602083013567ffffffffffffffff811115613cc257613cc161386e565b5b613cce85828601613c51565b9150509250929050565b613ce181613a89565b8114613ceb575f80fd5b50565b5f81359050613cfc81613cd8565b92915050565b5f805f60608486031215613d1957613d1861386a565b5b5f613d2686828701613cee565b9350506020613d3786828701613cee565b9250506040613d4886828701613cee565b9150509250925092565b5f81519050919050565b5f82825260208201905092915050565b5f819050602082019050919050565b613d8481613ad9565b82525050565b5f613d958383613d7b565b60208301905092915050565b5f602082019050919050565b5f613db782613d52565b613dc18185613d5c565b9350613dcc83613d6c565b805f5b83811015613dfc578151613de38882613d8a565b9750613dee83613da1565b925050600181019050613dcf565b5085935050505092915050565b5f6020820190508181035f830152613e218184613dad565b905092915050565b5f8060408385031215613e3f57613e3e61386a565b5b5f613e4c85828601613b00565b9250506020613e5d85828601613b00565b9150509250929050565b5f60208284031215613e7c57613e7b61386a565b5b5f613e8984828501613b00565b91505092915050565b5f81519050919050565b5f82825260208201905092915050565b5f819050602082019050919050565b613ec481613a89565b82525050565b5f82825260208201905092915050565b5f613ee482613959565b613eee8185613eca565b9350613efe818560208601613973565b613f078161399b565b840191505092915050565b5f604083015f830151613f275f860182613ebb565b5060208301518482036020860152613f3f8282613eda565b9150508091505092915050565b5f613f578383613f12565b905092915050565b5f602082019050919050565b5f613f7582613e92565b613f7f8185613e9c565b935083602082028501613f9185613eac565b805f5b85811015613fcc5784840389528151613fad8582613f4c565b9450613fb883613f5f565b925060208a01995050600181019050613f94565b50829750879550505050505092915050565b5f6020820190508181035f830152613ff68184613f6b565b905092915050565b614007816138f2565b82525050565b61401681613925565b82525050565b61012082015f8201516140315f850182613ebb565b5060208201516140446020850182613ebb565b5060408201516140576040850182613ebb565b50606082015161406a6060850182613ebb565b50608082015161407d6080850182613ebb565b5060a082015161409060a0850182613ffe565b5060c08201516140a360c085018261400d565b5060e08201516140b660e085018261400d565b506101008201516140cb610100850182613ffe565b50505050565b5f610120820190506140e55f83018461401c565b92915050565b5f60208284031215614100576140ff61386a565b5b5f61410d84828501613cee565b91505092915050565b61411f816138f2565b8114614129575f80fd5b50565b5f8135905061413a81614116565b92915050565b5f67ffffffffffffffff82111561415a57614159613b5a565b5b6141638261399b565b9050602081019050919050565b5f61418261417d84614140565b613bb8565b90508281526020810184848401111561419e5761419d613b56565b5b6141a9848285613c02565b509392505050565b5f82601f8301126141c5576141c4613b52565b5b81356141d5848260208601614170565b91505092915050565b5f805f80608085870312156141f6576141f561386a565b5b5f61420387828801613b00565b945050602061421487828801613cee565b93505060406142258782880161412c565b925050606085013567ffffffffffffffff8111156142465761424561386e565b5b614252878288016141b1565b91505092959194509250565b5f60c0820190506142715f830189613a92565b61427e6020830188613a92565b61428b6040830187613a92565b6142986060830186613a92565b6142a56080830185613a92565b6142b260a08301846138fd565b979650505050505050565b6142c681613925565b81146142d0575f80fd5b50565b5f813590506142e1816142bd565b92915050565b5f805f805f60a08688031215614300576142ff61386a565b5b5f61430d88828901613b00565b955050602061431e888289016142d3565b945050604061432f88828901613cee565b935050606061434088828901613cee565b925050608061435188828901613cee565b9150509295509295909350565b7f4e487b71000000000000000000000000000000000000000000000000000000005f52602260045260245ffd5b5f60028204905060018216806143a257607f821691505b6020821081036143b5576143b461435e565b5b50919050565b7f63616e2774206368616e6765206164647265737320746f207a65726f206164645f8201527f7265737300000000000000000000000000000000000000000000000000000000602082015250565b5f614415602483613963565b9150614420826143bb565b604082019050919050565b5f6020820190508181035f83015261444281614409565b9050919050565b7f4e487b71000000000000000000000000000000000000000000000000000000005f52603260045260245ffd5b7f4e487b71000000000000000000000000000000000000000000000000000000005f52601160045260245ffd5b5f6144ad82613a89565b91507fffffffffffffffffffffffffffffffffffffffffffffffffffffffffffffffff82036144df576144de614476565b5b600182019050919050565b5f6144f482613a89565b91506144ff83613a89565b925082820390508181111561451757614516614476565b5b92915050565b7f4e487b71000000000000000000000000000000000000000000000000000000005f52601260045260245ffd5b5f61455482613a89565b915061455f83613a89565b92508261456f5761456e61451d565b5b828204905092915050565b7f436f6e74726163742069732070617573656400000000000000000000000000005f82015250565b5f6145ae601283613963565b91506145b98261457a565b602082019050919050565b5f6020820190508181035f8301526145db816145a2565b9050919050565b7f63616e2774207265676973746572207a65726f206164647265737300000000005f82015250565b5f614616601b83613963565b9150614621826145e2565b602082019050919050565b5f6020820190508181035f8301526146438161460a565b9050919050565b5f61465482613a89565b915061465f83613a89565b925082820261466d81613a89565b9150828204841483151761468457614683614476565b5b5092915050565b5f61469582613a89565b91506146a083613a89565b92508282019050808211156146b8576146b7614476565b5b92915050565b5f819050815f5260205f209050919050565b5f6020601f8301049050919050565b5f82821b905092915050565b5f6008830261471a7fffffffffffffffffffffffffffffffffffffffffffffffffffffffffffffffff826146df565b61472486836146df565b95508019841693508086168417925050509392505050565b5f819050919050565b5f61475f61475a61475584613a89565b61473c565b613a89565b9050919050565b5f819050919050565b61477883614745565b61478c61478482614766565b8484546146eb565b825550505050565b5f90565b6147a0614794565b6147ab81848461476f565b505050565b5b818110156147ce576147c35f82614798565b6001810190506147b1565b5050565b601f821115614813576147e4816146be565b6147ed846146d0565b810160208510156147fc578190505b614810614808856146d0565b8301826147b0565b50505b505050565b5f82821c905092915050565b5f6148335f1984600802614818565b1980831691505092915050565b5f61484b8383614824565b9150826002028217905092915050565b61486482613959565b67ffffffffffffffff81111561487d5761487c613b5a565b5b614887825461438b565b6148928282856147d2565b5f60209050601f8311600181146148c3575f84156148b1578287015190505b6148bb8582614840565b865550614922565b601f1984166148d1866146be565b5f5b828110156148f8578489015182556001820191506020850194506020810190506148d3565b868310156149155784890151614911601f891682614824565b8355505b6001600288020188555050505b505050505050565b5f60608201905061493d5f830186613a92565b61494a60208301856138fd565b818103604083015261495c81846139ab565b9050949350505050565b5f819050919050565b5f67ffffffffffffffff82169050919050565b5f61499c61499761499284614966565b61473c565b61496f565b9050919050565b6149ac81614982565b82525050565b5f6020820190506149c55f8301846149a3565b92915050565b7f55736572206e6f7420666f756e64206f7220696e6163746976650000000000005f82015250565b5f6149ff601a83613963565b9150614a0a826149cb565b602082019050919050565b5f6020820190508181035f830152614a2c816149f3565b9050919050565b5f81519050614a4181613a0c565b92915050565b5f60208284031215614a5c57614a5b61386a565b5b5f614a6984828501614a33565b91505092915050565b614a7b81613ad9565b82525050565b5f602082019050614a945f830184614a72565b92915050565b5f614aa482613925565b9150614aaf83613925565b9250828201905060ff811115614ac857614ac7614476565b5b92915050565b5f614ad882613925565b915060ff8203614aeb57614aea614476565b5b600182019050919050565b5f614b0082613925565b9150614b0b83613925565b9250828203905060ff811115614b2457614b23614476565b5b92915050565b5f604082019050614b3d5f830185613a92565b8181036020830152614b4f81846139ab565b90509392505050565b5f604082019050614b6b5f830185614a72565b614b786020830184613a61565b9392505050565b5f819050919050565b5f614b9282614b7f565b9150614b9d83614b7f565b925082820390508181125f8412168282135f851215161715614bc257614bc1614476565b5b92915050565b5f614bd282614b7f565b9150614bdd83614b7f565b925082614bed57614bec61451d565b5b60015f0383147f800000000000000000000000000000000000000000000000000000000000000083141615614c2557614c24614476565b5b828205905092915050565b5f614c3a82614b7f565b9150614c4583614b7f565b92508282019050828112155f8312168382125f841215161715614c6b57614c6a614476565b5b92915050565b5f614c7b82614b7f565b9150614c8683614b7f565b9250828202614c9481614b7f565b91507f800000000000000000000000000000000000000000000000000000000000000084145f84121615614ccb57614cca614476565b5b8282058414831517614ce057614cdf614476565b5b5092915050565b5f6040820190508181035f830152614cff81856139ab565b9050614d0e6020830184613a92565b9392505050565b5f81519050919050565b5f81905092915050565b5f614d3382614d15565b614d3d8185614d1f565b9350614d4d818560208601613973565b80840191505092915050565b5f614d648284614d29565b915081905092915050565b7f4e487b71000000000000000000000000000000000000000000000000000000005f52605160045260245ffdfea26469706673582212201168aeb0b199ef79bf2e8ed18dd808b4a471018ad6c113867f07831544d6737764736f6c63430008140033",
			"opcodes": "PUSH1 0xA0 PUSH1 0x40 MSTORE ADDRESS PUSH20 0xFFFFFFFFFFFFFFFFFFFFFFFFFFFFFFFFFFFFFFFF AND PUSH1 0x80 SWAP1 PUSH20 0xFFFFFFFFFFFFFFFFFFFFFFFFFFFFFFFFFFFFFFFF AND DUP2 MSTORE POP CALLVALUE DUP1 ISZERO PUSH2 0x42 JUMPI PUSH0 DUP1 REVERT JUMPDEST POP PUSH1 0x80 MLOAD PUSH2 0x4DD2 PUSH2 0x69 PUSH0 CODECOPY PUSH0 DUP2 DUP2 PUSH2 0x29AA ADD MSTORE DUP2 DUP2 PUSH2 0x29FF ADD MSTORE PUSH2 0x2BBE ADD MSTORE PUSH2 0x4DD2 PUSH0 RETURN INVALID PUSH1 0x80 PUSH1 0x40 MSTORE PUSH1 0x4 CALLDATASIZE LT PUSH2 0x292 JUMPI PUSH0 CALLDATALOAD PUSH1 0xE0 SHR DUP1 PUSH4 0x8129FC1C GT PUSH2 0x159 JUMPI DUP1 PUSH4 0xAC9DE2A4 GT PUSH2 0xC0 JUMPI DUP1 PUSH4 0xD547741F GT PUSH2 0x79 JUMPI DUP1 PUSH4 0xD547741F EQ PUSH2 0x9FF JUMPI DUP1 PUSH4 0xD610BC35 EQ PUSH2 0xA27 JUMPI DUP1 PUSH4 0xDB187D37 EQ PUSH2 0xA4F JUMPI DUP1 PUSH4 0xEC9B5CB2 EQ PUSH2 0xA79 JUMPI DUP1 PUSH4 0xF4AB2928 EQ PUSH2 0xAA3 JUMPI DUP1 PUSH4 0xFC44C5C4 EQ PUSH2 0xACD JUMPI PUSH2 0x292 JUMP JUMPDEST DUP1 PUSH4 0xAC9DE2A4 EQ PUSH2 0x8F7 JUMPI DUP1 PUSH4 0xAD3CB1CC EQ PUSH2 0x91F JUMPI DUP1 PUSH4 0xBEA65DA8 EQ PUSH2 0x949 JUMPI DUP1 PUSH4 0xC0E0DB15 EQ PUSH2 0x985 JUMPI DUP1 PUSH4 0xC4AE3168 EQ PUSH2 0x9C1 JUMPI DUP1 PUSH4 0xCBCF1536 EQ PUSH2 0x9D7 JUMPI PUSH2 0x292 JUMP JUMPDEST DUP1 PUSH4 0x8DEDF009 GT PUSH2 0x112 JUMPI DUP1 PUSH4 0x8DEDF009 EQ PUSH2 0x7C0 JUMPI DUP1 PUSH4 0x8E96AD4F EQ PUSH2 0x801 JUMPI DUP1 PUSH4 0x90A99C2D EQ PUSH2 0x83D JUMPI DUP1 PUSH4 0x91D14854 EQ PUSH2 0x867 JUMPI DUP1 PUSH4 0x95D89B41 EQ PUSH2 0x8A3 JUMPI DUP1 PUSH4 0xA217FDDF EQ PUSH2 0x8CD JUMPI PUSH2 0x292 JUMP JUMPDEST DUP1 PUSH4 0x8129FC1C EQ PUSH2 0x6EE JUMPI DUP1 PUSH4 0x833B16C1 EQ PUSH2 0x704 JUMPI DUP1 PUSH4 0x84A1931F EQ PUSH2 0x72C JUMPI DUP1 PUSH4 0x86643E1A EQ PUSH2 0x756 JUMPI DUP1 PUSH4 0x86D1A69F EQ PUSH2 0x780 JUMPI DUP1 PUSH4 0x87CEFF09 EQ PUSH2 0x796 JUMPI PUSH2 0x292 JUMP JUMPDEST DUP1 PUSH4 0x51E2460E GT PUSH2 0x1FD JUMPI DUP1 PUSH4 0x6386C1C7 GT PUSH2 0x1B6 JUMPI DUP1 PUSH4 0x6386C1C7 EQ PUSH2 0x5BE JUMPI DUP1 PUSH4 0x651A26D1 EQ PUSH2 0x5FA JUMPI DUP1 PUSH4 0x70A08231 EQ PUSH2 0x624 JUMPI DUP1 PUSH4 0x74FBA330 EQ PUSH2 0x660 JUMPI DUP1 PUSH4 0x75D3CDD2 EQ PUSH2 0x676 JUMPI DUP1 PUSH4 0x7704CB0B EQ PUSH2 0x6B2 JUMPI PUSH2 0x292 JUMP JUMPDEST DUP1 PUSH4 0x51E2460E EQ PUSH2 0x4A0 JUMPI DUP1 PUSH4 0x52D1902D EQ PUSH2 0x4CA JUMPI DUP1 PUSH4 0x56158A7E EQ PUSH2 0x4F4 JUMPI DUP1 PUSH4 0x5698FF0F EQ PUSH2 0x530 JUMPI DUP1 PUSH4 0x5A0F4074 EQ PUSH2 0x55A JUMPI DUP1 PUSH4 0x5CC45A70 EQ PUSH2 0x582 JUMPI PUSH2 0x292 JUMP JUMPDEST DUP1 PUSH4 0x2F2FF15D GT PUSH2 0x24F JUMPI DUP1 PUSH4 0x2F2FF15D EQ PUSH2 0x3B6 JUMPI DUP1 PUSH4 0x313CE567 EQ PUSH2 0x3DE JUMPI DUP1 PUSH4 0x3145C50D EQ PUSH2 0x408 JUMPI DUP1 PUSH4 0x3360CAA0 EQ PUSH2 0x432 JUMPI DUP1 PUSH4 0x36568ABE EQ PUSH2 0x45C JUMPI DUP1 PUSH4 0x4F1EF286 EQ PUSH2 0x484 JUMPI PUSH2 0x292 JUMP JUMPDEST DUP1 PUSH4 0x1FFC9A7 EQ PUSH2 0x296 JUMPI DUP1 PUSH4 0x38FF17A EQ PUSH2 0x2D2 JUMPI DUP1 PUSH4 0x6FDDE03 EQ PUSH2 0x2FC JUMPI DUP1 PUSH4 0x14359E10 EQ PUSH2 0x326 JUMPI DUP1 PUSH4 0x248A9CA3 EQ PUSH2 0x350 JUMPI DUP1 PUSH4 0x254800D4 EQ PUSH2 0x38C JUMPI JUMPDEST PUSH0 DUP1 REVERT JUMPDEST CALLVALUE DUP1 ISZERO PUSH2 0x2A1 JUMPI PUSH0 DUP1 REVERT JUMPDEST POP PUSH2 0x2BC PUSH1 0x4 DUP1 CALLDATASIZE SUB DUP2 ADD SWAP1 PUSH2 0x2B7 SWAP2 SWAP1 PUSH2 0x38C7 JUMP JUMPDEST PUSH2 0xB09 JUMP JUMPDEST PUSH1 0x40 MLOAD PUSH2 0x2C9 SWAP2 SWAP1 PUSH2 0x390C JUMP JUMPDEST PUSH1 0x40 MLOAD DUP1 SWAP2 SUB SWAP1 RETURN JUMPDEST CALLVALUE DUP1 ISZERO PUSH2 0x2DD JUMPI PUSH0 DUP1 REVERT JUMPDEST POP PUSH2 0x2E6 PUSH2 0xB82 JUMP JUMPDEST PUSH1 0x40 MLOAD PUSH2 0x2F3 SWAP2 SWAP1 PUSH2 0x3940 JUMP JUMPDEST PUSH1 0x40 MLOAD DUP1 SWAP2 SUB SWAP1 RETURN JUMPDEST CALLVALUE DUP1 ISZERO PUSH2 0x307 JUMPI PUSH0 DUP1 REVERT JUMPDEST POP PUSH2 0x310 PUSH2 0xB94 JUMP JUMPDEST PUSH1 0x40 MLOAD PUSH2 0x31D SWAP2 SWAP1 PUSH2 0x39E3 JUMP JUMPDEST PUSH1 0x40 MLOAD DUP1 SWAP2 SUB SWAP1 RETURN JUMPDEST CALLVALUE DUP1 ISZERO PUSH2 0x331 JUMPI PUSH0 DUP1 REVERT JUMPDEST POP PUSH2 0x33A PUSH2 0xC24 JUMP JUMPDEST PUSH1 0x40 MLOAD PUSH2 0x347 SWAP2 SWAP1 PUSH2 0x390C JUMP JUMPDEST PUSH1 0x40 MLOAD DUP1 SWAP2 SUB SWAP1 RETURN JUMPDEST CALLVALUE DUP1 ISZERO PUSH2 0x35B JUMPI PUSH0 DUP1 REVERT JUMPDEST POP PUSH2 0x376 PUSH1 0x4 DUP1 CALLDATASIZE SUB DUP2 ADD SWAP1 PUSH2 0x371 SWAP2 SWAP1 PUSH2 0x3A36 JUMP JUMPDEST PUSH2 0xC37 JUMP JUMPDEST PUSH1 0x40 MLOAD PUSH2 0x383 SWAP2 SWAP1 PUSH2 0x3A70 JUMP JUMPDEST PUSH1 0x40 MLOAD DUP1 SWAP2 SUB SWAP1 RETURN JUMPDEST CALLVALUE DUP1 ISZERO PUSH2 0x397 JUMPI PUSH0 DUP1 REVERT JUMPDEST POP PUSH2 0x3A0 PUSH2 0xC61 JUMP JUMPDEST PUSH1 0x40 MLOAD PUSH2 0x3AD SWAP2 SWAP1 PUSH2 0x3AA1 JUMP JUMPDEST PUSH1 0x40 MLOAD DUP1 SWAP2 SUB SWAP1 RETURN JUMPDEST CALLVALUE DUP1 ISZERO PUSH2 0x3C1 JUMPI PUSH0 DUP1 REVERT JUMPDEST POP PUSH2 0x3DC PUSH1 0x4 DUP1 CALLDATASIZE SUB DUP2 ADD SWAP1 PUSH2 0x3D7 SWAP2 SWAP1 PUSH2 0x3B14 JUMP JUMPDEST PUSH2 0xC67 JUMP JUMPDEST STOP JUMPDEST CALLVALUE DUP1 ISZERO PUSH2 0x3E9 JUMPI PUSH0 DUP1 REVERT JUMPDEST POP PUSH2 0x3F2 PUSH2 0xC89 JUMP JUMPDEST PUSH1 0x40 MLOAD PUSH2 0x3FF SWAP2 SWAP1 PUSH2 0x3AA1 JUMP JUMPDEST PUSH1 0x40 MLOAD DUP1 SWAP2 SUB SWAP1 RETURN JUMPDEST CALLVALUE DUP1 ISZERO PUSH2 0x413 JUMPI PUSH0 DUP1 REVERT JUMPDEST POP PUSH2 0x41C PUSH2 0xC91 JUMP JUMPDEST PUSH1 0x40 MLOAD PUSH2 0x429 SWAP2 SWAP1 PUSH2 0x3AA1 JUMP JUMPDEST PUSH1 0x40 MLOAD DUP1 SWAP2 SUB SWAP1 RETURN JUMPDEST CALLVALUE DUP1 ISZERO PUSH2 0x43D JUMPI PUSH0 DUP1 REVERT JUMPDEST POP PUSH2 0x446 PUSH2 0xC97 JUMP JUMPDEST PUSH1 0x40 MLOAD PUSH2 0x453 SWAP2 SWAP1 PUSH2 0x3AA1 JUMP JUMPDEST PUSH1 0x40 MLOAD DUP1 SWAP2 SUB SWAP1 RETURN JUMPDEST CALLVALUE DUP1 ISZERO PUSH2 0x467 JUMPI PUSH0 DUP1 REVERT JUMPDEST POP PUSH2 0x482 PUSH1 0x4 DUP1 CALLDATASIZE SUB DUP2 ADD SWAP1 PUSH2 0x47D SWAP2 SWAP1 PUSH2 0x3B14 JUMP JUMPDEST PUSH2 0xC9D JUMP JUMPDEST STOP JUMPDEST PUSH2 0x49E PUSH1 0x4 DUP1 CALLDATASIZE SUB DUP2 ADD SWAP1 PUSH2 0x499 SWAP2 SWAP1 PUSH2 0x3C7E JUMP JUMPDEST PUSH2 0xD18 JUMP JUMPDEST STOP JUMPDEST CALLVALUE DUP1 ISZERO PUSH2 0x4AB JUMPI PUSH0 DUP1 REVERT JUMPDEST POP PUSH2 0x4B4 PUSH2 0xD37 JUMP JUMPDEST PUSH1 0x40 MLOAD PUSH2 0x4C1 SWAP2 SWAP1 PUSH2 0x3AA1 JUMP JUMPDEST PUSH1 0x40 MLOAD DUP1 SWAP2 SUB SWAP1 RETURN JUMPDEST CALLVALUE DUP1 ISZERO PUSH2 0x4D5 JUMPI PUSH0 DUP1 REVERT JUMPDEST POP PUSH2 0x4DE PUSH2 0xD3D JUMP JUMPDEST PUSH1 0x40 MLOAD PUSH2 0x4EB SWAP2 SWAP1 PUSH2 0x3A70 JUMP JUMPDEST PUSH1 0x40 MLOAD DUP1 SWAP2 SUB SWAP1 RETURN JUMPDEST CALLVALUE DUP1 ISZERO PUSH2 0x4FF JUMPI PUSH0 DUP1 REVERT JUMPDEST POP PUSH2 0x51A PUSH1 0x4 DUP1 CALLDATASIZE SUB DUP2 ADD SWAP1 PUSH2 0x515 SWAP2 SWAP1 PUSH2 0x3D02 JUMP JUMPDEST PUSH2 0xD6E JUMP JUMPDEST PUSH1 0x40 MLOAD PUSH2 0x527 SWAP2 SWAP1 PUSH2 0x390C JUMP JUMPDEST PUSH1 0x40 MLOAD DUP1 SWAP2 SUB SWAP1 RETURN JUMPDEST CALLVALUE DUP1 ISZERO PUSH2 0x53B JUMPI PUSH0 DUP1 REVERT JUMPDEST POP PUSH2 0x544 PUSH2 0xD98 JUMP JUMPDEST PUSH1 0x40 MLOAD PUSH2 0x551 SWAP2 SWAP1 PUSH2 0x3E09 JUMP JUMPDEST PUSH1 0x40 MLOAD DUP1 SWAP2 SUB SWAP1 RETURN JUMPDEST CALLVALUE DUP1 ISZERO PUSH2 0x565 JUMPI PUSH0 DUP1 REVERT JUMPDEST POP PUSH2 0x580 PUSH1 0x4 DUP1 CALLDATASIZE SUB DUP2 ADD SWAP1 PUSH2 0x57B SWAP2 SWAP1 PUSH2 0x3E29 JUMP JUMPDEST PUSH2 0xE23 JUMP JUMPDEST STOP JUMPDEST CALLVALUE DUP1 ISZERO PUSH2 0x58D JUMPI PUSH0 DUP1 REVERT JUMPDEST POP PUSH2 0x5A8 PUSH1 0x4 DUP1 CALLDATASIZE SUB DUP2 ADD SWAP1 PUSH2 0x5A3 SWAP2 SWAP1 PUSH2 0x3E67 JUMP JUMPDEST PUSH2 0x1284 JUMP JUMPDEST PUSH1 0x40 MLOAD PUSH2 0x5B5 SWAP2 SWAP1 PUSH2 0x3FDE JUMP JUMPDEST PUSH1 0x40 MLOAD DUP1 SWAP2 SUB SWAP1 RETURN JUMPDEST CALLVALUE DUP1 ISZERO PUSH2 0x5C9 JUMPI PUSH0 DUP1 REVERT JUMPDEST POP PUSH2 0x5E4 PUSH1 0x4 DUP1 CALLDATASIZE SUB DUP2 ADD SWAP1 PUSH2 0x5DF SWAP2 SWAP1 PUSH2 0x3E67 JUMP JUMPDEST PUSH2 0x13B6 JUMP JUMPDEST PUSH1 0x40 MLOAD PUSH2 0x5F1 SWAP2 SWAP1 PUSH2 0x40D1 JUMP JUMPDEST PUSH1 0x40 MLOAD DUP1 SWAP2 SUB SWAP1 RETURN JUMPDEST CALLVALUE DUP1 ISZERO PUSH2 0x605 JUMPI PUSH0 DUP1 REVERT JUMPDEST POP PUSH2 0x60E PUSH2 0x14AE JUMP JUMPDEST PUSH1 0x40 MLOAD PUSH2 0x61B SWAP2 SWAP1 PUSH2 0x3AA1 JUMP JUMPDEST PUSH1 0x40 MLOAD DUP1 SWAP2 SUB SWAP1 RETURN JUMPDEST CALLVALUE DUP1 ISZERO PUSH2 0x62F JUMPI PUSH0 DUP1 REVERT JUMPDEST POP PUSH2 0x64A PUSH1 0x4 DUP1 CALLDATASIZE SUB DUP2 ADD SWAP1 PUSH2 0x645 SWAP2 SWAP1 PUSH2 0x3E67 JUMP JUMPDEST PUSH2 0x14DB JUMP JUMPDEST PUSH1 0x40 MLOAD PUSH2 0x657 SWAP2 SWAP1 PUSH2 0x3AA1 JUMP JUMPDEST PUSH1 0x40 MLOAD DUP1 SWAP2 SUB SWAP1 RETURN JUMPDEST CALLVALUE DUP1 ISZERO PUSH2 0x66B JUMPI PUSH0 DUP1 REVERT JUMPDEST POP PUSH2 0x674 PUSH2 0x1523 JUMP JUMPDEST STOP JUMPDEST CALLVALUE DUP1 ISZERO PUSH2 0x681 JUMPI PUSH0 DUP1 REVERT JUMPDEST POP PUSH2 0x69C PUSH1 0x4 DUP1 CALLDATASIZE SUB DUP2 ADD SWAP1 PUSH2 0x697 SWAP2 SWAP1 PUSH2 0x40EB JUMP JUMPDEST PUSH2 0x155C JUMP JUMPDEST PUSH1 0x40 MLOAD PUSH2 0x6A9 SWAP2 SWAP1 PUSH2 0x3AA1 JUMP JUMPDEST PUSH1 0x40 MLOAD DUP1 SWAP2 SUB SWAP1 RETURN JUMPDEST CALLVALUE DUP1 ISZERO PUSH2 0x6BD JUMPI PUSH0 DUP1 REVERT JUMPDEST POP PUSH2 0x6D8 PUSH1 0x4 DUP1 CALLDATASIZE SUB DUP2 ADD SWAP1 PUSH2 0x6D3 SWAP2 SWAP1 PUSH2 0x41DE JUMP JUMPDEST PUSH2 0x158B JUMP JUMPDEST PUSH1 0x40 MLOAD PUSH2 0x6E5 SWAP2 SWAP1 PUSH2 0x390C JUMP JUMPDEST PUSH1 0x40 MLOAD DUP1 SWAP2 SUB SWAP1 RETURN JUMPDEST CALLVALUE DUP1 ISZERO PUSH2 0x6F9 JUMPI PUSH0 DUP1 REVERT JUMPDEST POP PUSH2 0x702 PUSH2 0x1ACF JUMP JUMPDEST STOP JUMPDEST CALLVALUE DUP1 ISZERO PUSH2 0x70F JUMPI PUSH0 DUP1 REVERT JUMPDEST POP PUSH2 0x72A PUSH1 0x4 DUP1 CALLDATASIZE SUB DUP2 ADD SWAP1 PUSH2 0x725 SWAP2 SWAP1 PUSH2 0x3E67 JUMP JUMPDEST PUSH2 0x1F65 JUMP JUMPDEST STOP JUMPDEST CALLVALUE DUP1 ISZERO PUSH2 0x737 JUMPI PUSH0 DUP1 REVERT JUMPDEST POP PUSH2 0x740 PUSH2 0x1FA0 JUMP JUMPDEST PUSH1 0x40 MLOAD PUSH2 0x74D SWAP2 SWAP1 PUSH2 0x3AA1 JUMP JUMPDEST PUSH1 0x40 MLOAD DUP1 SWAP2 SUB SWAP1 RETURN JUMPDEST CALLVALUE DUP1 ISZERO PUSH2 0x761 JUMPI PUSH0 DUP1 REVERT JUMPDEST POP PUSH2 0x76A PUSH2 0x1FA6 JUMP JUMPDEST PUSH1 0x40 MLOAD PUSH2 0x777 SWAP2 SWAP1 PUSH2 0x3A70 JUMP JUMPDEST PUSH1 0x40 MLOAD DUP1 SWAP2 SUB SWAP1 RETURN JUMPDEST CALLVALUE DUP1 ISZERO PUSH2 0x78B JUMPI PUSH0 DUP1 REVERT JUMPDEST POP PUSH2 0x794 PUSH2 0x1FCA JUMP JUMPDEST STOP JUMPDEST CALLVALUE DUP1 ISZERO PUSH2 0x7A1 JUMPI PUSH0 DUP1 REVERT JUMPDEST POP PUSH2 0x7AA PUSH2 0x2063 JUMP JUMPDEST PUSH1 0x40 MLOAD PUSH2 0x7B7 SWAP2 SWAP1 PUSH2 0x3AA1 JUMP JUMPDEST PUSH1 0x40 MLOAD DUP1 SWAP2 SUB SWAP1 RETURN JUMPDEST CALLVALUE DUP1 ISZERO PUSH2 0x7CB JUMPI PUSH0 DUP1 REVERT JUMPDEST POP PUSH2 0x7E6 PUSH1 0x4 DUP1 CALLDATASIZE SUB DUP2 ADD SWAP1 PUSH2 0x7E1 SWAP2 SWAP1 PUSH2 0x3E67 JUMP JUMPDEST PUSH2 0x206C JUMP JUMPDEST PUSH1 0x40 MLOAD PUSH2 0x7F8 SWAP7 SWAP6 SWAP5 SWAP4 SWAP3 SWAP2 SWAP1 PUSH2 0x425E JUMP JUMPDEST PUSH1 0x40 MLOAD DUP1 SWAP2 SUB SWAP1 RETURN JUMPDEST CALLVALUE DUP1 ISZERO PUSH2 0x80C JUMPI PUSH0 DUP1 REVERT JUMPDEST POP PUSH2 0x827 PUSH1 0x4 DUP1 CALLDATASIZE SUB DUP2 ADD SWAP1 PUSH2 0x822 SWAP2 SWAP1 PUSH2 0x3E67 JUMP JUMPDEST PUSH2 0x21A4 JUMP JUMPDEST PUSH1 0x40 MLOAD PUSH2 0x834 SWAP2 SWAP1 PUSH2 0x3AA1 JUMP JUMPDEST PUSH1 0x40 MLOAD DUP1 SWAP2 SUB SWAP1 RETURN JUMPDEST CALLVALUE DUP1 ISZERO PUSH2 0x848 JUMPI PUSH0 DUP1 REVERT JUMPDEST POP PUSH2 0x851 PUSH2 0x21ED JUMP JUMPDEST PUSH1 0x40 MLOAD PUSH2 0x85E SWAP2 SWAP1 PUSH2 0x3AA1 JUMP JUMPDEST PUSH1 0x40 MLOAD DUP1 SWAP2 SUB SWAP1 RETURN JUMPDEST CALLVALUE DUP1 ISZERO PUSH2 0x872 JUMPI PUSH0 DUP1 REVERT JUMPDEST POP PUSH2 0x88D PUSH1 0x4 DUP1 CALLDATASIZE SUB DUP2 ADD SWAP1 PUSH2 0x888 SWAP2 SWAP1 PUSH2 0x3B14 JUMP JUMPDEST PUSH2 0x2206 JUMP JUMPDEST PUSH1 0x40 MLOAD PUSH2 0x89A SWAP2 SWAP1 PUSH2 0x390C JUMP JUMPDEST PUSH1 0x40 MLOAD DUP1 SWAP2 SUB SWAP1 RETURN JUMPDEST CALLVALUE DUP1 ISZERO PUSH2 0x8AE JUMPI PUSH0 DUP1 REVERT JUMPDEST POP PUSH2 0x8B7 PUSH2 0x2277 JUMP JUMPDEST PUSH1 0x40 MLOAD PUSH2 0x8C4 SWAP2 SWAP1 PUSH2 0x39E3 JUMP JUMPDEST PUSH1 0x40 MLOAD DUP1 SWAP2 SUB SWAP1 RETURN JUMPDEST CALLVALUE DUP1 ISZERO PUSH2 0x8D8 JUMPI PUSH0 DUP1 REVERT JUMPDEST POP PUSH2 0x8E1 PUSH2 0x2307 JUMP JUMPDEST PUSH1 0x40 MLOAD PUSH2 0x8EE SWAP2 SWAP1 PUSH2 0x3A70 JUMP JUMPDEST PUSH1 0x40 MLOAD DUP1 SWAP2 SUB SWAP1 RETURN JUMPDEST CALLVALUE DUP1 ISZERO PUSH2 0x902 JUMPI PUSH0 DUP1 REVERT JUMPDEST POP PUSH2 0x91D PUSH1 0x4 DUP1 CALLDATASIZE SUB DUP2 ADD SWAP1 PUSH2 0x918 SWAP2 SWAP1 PUSH2 0x3D02 JUMP JUMPDEST PUSH2 0x230D JUMP JUMPDEST STOP JUMPDEST CALLVALUE DUP1 ISZERO PUSH2 0x92A JUMPI PUSH0 DUP1 REVERT JUMPDEST POP PUSH2 0x933 PUSH2 0x2323 JUMP JUMPDEST PUSH1 0x40 MLOAD PUSH2 0x940 SWAP2 SWAP1 PUSH2 0x39E3 JUMP JUMPDEST PUSH1 0x40 MLOAD DUP1 SWAP2 SUB SWAP1 RETURN JUMPDEST CALLVALUE DUP1 ISZERO PUSH2 0x954 JUMPI PUSH0 DUP1 REVERT JUMPDEST POP PUSH2 0x96F PUSH1 0x4 DUP1 CALLDATASIZE SUB DUP2 ADD SWAP1 PUSH2 0x96A SWAP2 SWAP1 PUSH2 0x40EB JUMP JUMPDEST PUSH2 0x235C JUMP JUMPDEST PUSH1 0x40 MLOAD PUSH2 0x97C SWAP2 SWAP1 PUSH2 0x3AA1 JUMP JUMPDEST PUSH1 0x40 MLOAD DUP1 SWAP2 SUB SWAP1 RETURN JUMPDEST CALLVALUE DUP1 ISZERO PUSH2 0x990 JUMPI PUSH0 DUP1 REVERT JUMPDEST POP PUSH2 0x9AB PUSH1 0x4 DUP1 CALLDATASIZE SUB DUP2 ADD SWAP1 PUSH2 0x9A6 SWAP2 SWAP1 PUSH2 0x3E67 JUMP JUMPDEST PUSH2 0x2375 JUMP JUMPDEST PUSH1 0x40 MLOAD PUSH2 0x9B8 SWAP2 SWAP1 PUSH2 0x3AA1 JUMP JUMPDEST PUSH1 0x40 MLOAD DUP1 SWAP2 SUB SWAP1 RETURN JUMPDEST CALLVALUE DUP1 ISZERO PUSH2 0x9CC JUMPI PUSH0 DUP1 REVERT JUMPDEST POP PUSH2 0x9D5 PUSH2 0x2399 JUMP JUMPDEST STOP JUMPDEST CALLVALUE DUP1 ISZERO PUSH2 0x9E2 JUMPI PUSH0 DUP1 REVERT JUMPDEST POP PUSH2 0x9FD PUSH1 0x4 DUP1 CALLDATASIZE SUB DUP2 ADD SWAP1 PUSH2 0x9F8 SWAP2 SWAP1 PUSH2 0x3E67 JUMP JUMPDEST PUSH2 0x23D0 JUMP JUMPDEST STOP JUMPDEST CALLVALUE DUP1 ISZERO PUSH2 0xA0A JUMPI PUSH0 DUP1 REVERT JUMPDEST POP PUSH2 0xA25 PUSH1 0x4 DUP1 CALLDATASIZE SUB DUP2 ADD SWAP1 PUSH2 0xA20 SWAP2 SWAP1 PUSH2 0x3B14 JUMP JUMPDEST PUSH2 0x2617 JUMP JUMPDEST STOP JUMPDEST CALLVALUE DUP1 ISZERO PUSH2 0xA32 JUMPI PUSH0 DUP1 REVERT JUMPDEST POP PUSH2 0xA4D PUSH1 0x4 DUP1 CALLDATASIZE SUB DUP2 ADD SWAP1 PUSH2 0xA48 SWAP2 SWAP1 PUSH2 0x42E7 JUMP JUMPDEST PUSH2 0x2639 JUMP JUMPDEST STOP JUMPDEST CALLVALUE DUP1 ISZERO PUSH2 0xA5A JUMPI PUSH0 DUP1 REVERT JUMPDEST POP PUSH2 0xA63 PUSH2 0x26C5 JUMP JUMPDEST PUSH1 0x40 MLOAD PUSH2 0xA70 SWAP2 SWAP1 PUSH2 0x3AA1 JUMP JUMPDEST PUSH1 0x40 MLOAD DUP1 SWAP2 SUB SWAP1 RETURN JUMPDEST CALLVALUE DUP1 ISZERO PUSH2 0xA84 JUMPI PUSH0 DUP1 REVERT JUMPDEST POP PUSH2 0xA8D PUSH2 0x26CB JUMP JUMPDEST PUSH1 0x40 MLOAD PUSH2 0xA9A SWAP2 SWAP1 PUSH2 0x3AA1 JUMP JUMPDEST PUSH1 0x40 MLOAD DUP1 SWAP2 SUB SWAP1 RETURN JUMPDEST CALLVALUE DUP1 ISZERO PUSH2 0xAAE JUMPI PUSH0 DUP1 REVERT JUMPDEST POP PUSH2 0xAB7 PUSH2 0x26D1 JUMP JUMPDEST PUSH1 0x40 MLOAD PUSH2 0xAC4 SWAP2 SWAP1 PUSH2 0x390C JUMP JUMPDEST PUSH1 0x40 MLOAD DUP1 SWAP2 SUB SWAP1 RETURN JUMPDEST CALLVALUE DUP1 ISZERO PUSH2 0xAD8 JUMPI PUSH0 DUP1 REVERT JUMPDEST POP PUSH2 0xAF3 PUSH1 0x4 DUP1 CALLDATASIZE SUB DUP2 ADD SWAP1 PUSH2 0xAEE SWAP2 SWAP1 PUSH2 0x3D02 JUMP JUMPDEST PUSH2 0x26E3 JUMP JUMPDEST PUSH1 0x40 MLOAD PUSH2 0xB00 SWAP2 SWAP1 PUSH2 0x390C JUMP JUMPDEST PUSH1 0x40 MLOAD DUP1 SWAP2 SUB SWAP1 RETURN JUMPDEST PUSH0 PUSH32 0x7965DB0B00000000000000000000000000000000000000000000000000000000 PUSH28 0xFFFFFFFFFFFFFFFFFFFFFFFFFFFFFFFFFFFFFFFFFFFFFFFFFFFFFFFF NOT AND DUP3 PUSH28 0xFFFFFFFFFFFFFFFFFFFFFFFFFFFFFFFFFFFFFFFFFFFFFFFFFFFFFFFF NOT AND EQ DUP1 PUSH2 0xB7B JUMPI POP PUSH2 0xB7A DUP3 PUSH2 0x270D JUMP JUMPDEST JUMPDEST SWAP1 POP SWAP2 SWAP1 POP JUMP JUMPDEST PUSH1 0xC PUSH0 SWAP1 SLOAD SWAP1 PUSH2 0x100 EXP SWAP1 DIV PUSH1 0xFF AND DUP2 JUMP JUMPDEST PUSH1 0x60 PUSH1 0x8 DUP1 SLOAD PUSH2 0xBA3 SWAP1 PUSH2 0x438B JUMP JUMPDEST DUP1 PUSH1 0x1F ADD PUSH1 0x20 DUP1 SWAP2 DIV MUL PUSH1 0x20 ADD PUSH1 0x40 MLOAD SWAP1 DUP2 ADD PUSH1 0x40 MSTORE DUP1 SWAP3 SWAP2 SWAP1 DUP2 DUP2 MSTORE PUSH1 0x20 ADD DUP3 DUP1 SLOAD PUSH2 0xBCF SWAP1 PUSH2 0x438B JUMP JUMPDEST DUP1 ISZERO PUSH2 0xC1A JUMPI DUP1 PUSH1 0x1F LT PUSH2 0xBF1 JUMPI PUSH2 0x100 DUP1 DUP4 SLOAD DIV MUL DUP4 MSTORE SWAP2 PUSH1 0x20 ADD SWAP2 PUSH2 0xC1A JUMP JUMPDEST DUP3 ADD SWAP2 SWAP1 PUSH0 MSTORE PUSH1 0x20 PUSH0 KECCAK256 SWAP1 JUMPDEST DUP2 SLOAD DUP2 MSTORE SWAP1 PUSH1 0x1 ADD SWAP1 PUSH1 0x20 ADD DUP1 DUP4 GT PUSH2 0xBFD JUMPI DUP3 SWAP1 SUB PUSH1 0x1F AND DUP3 ADD SWAP2 JUMPDEST POP POP POP POP POP SWAP1 POP SWAP1 JUMP JUMPDEST PUSH1 0xE PUSH1 0x1 SWAP1 SLOAD SWAP1 PUSH2 0x100 EXP SWAP1 DIV PUSH1 0xFF AND DUP2 JUMP JUMPDEST PUSH0 DUP1 PUSH2 0xC41 PUSH2 0x2776 JUMP JUMPDEST SWAP1 POP DUP1 PUSH0 ADD PUSH0 DUP5 DUP2 MSTORE PUSH1 0x20 ADD SWAP1 DUP2 MSTORE PUSH1 0x20 ADD PUSH0 KECCAK256 PUSH1 0x1 ADD SLOAD SWAP2 POP POP SWAP2 SWAP1 POP JUMP JUMPDEST PUSH1 0x2 SLOAD DUP2 JUMP JUMPDEST PUSH2 0xC70 DUP3 PUSH2 0xC37 JUMP JUMPDEST PUSH2 0xC79 DUP2 PUSH2 0x279D JUMP JUMPDEST PUSH2 0xC83 DUP4 DUP4 PUSH2 0x27B1 JUMP JUMPDEST POP POP POP POP JUMP JUMPDEST PUSH0 PUSH1 0x12 SWAP1 POP SWAP1 JUMP JUMPDEST PUSH1 0xD SLOAD DUP2 JUMP JUMPDEST PUSH1 0x4 SLOAD DUP2 JUMP JUMPDEST PUSH2 0xCA5 PUSH2 0x28A9 JUMP JUMPDEST PUSH20 0xFFFFFFFFFFFFFFFFFFFFFFFFFFFFFFFFFFFFFFFF AND DUP2 PUSH20 0xFFFFFFFFFFFFFFFFFFFFFFFFFFFFFFFFFFFFFFFF AND EQ PUSH2 0xD09 JUMPI PUSH1 0x40 MLOAD PUSH32 0x6697B23200000000000000000000000000000000000000000000000000000000 DUP2 MSTORE PUSH1 0x4 ADD PUSH1 0x40 MLOAD DUP1 SWAP2 SUB SWAP1 REVERT JUMPDEST PUSH2 0xD13 DUP3 DUP3 PUSH2 0x28B0 JUMP JUMPDEST POP POP POP JUMP JUMPDEST PUSH2 0xD20 PUSH2 0x29A8 JUMP JUMPDEST PUSH2 0xD29 DUP3 PUSH2 0x2A8E JUMP JUMPDEST PUSH2 0xD33 DUP3 DUP3 PUSH2 0x2A9E JUMP JUMPDEST POP POP JUMP JUMPDEST PUSH1 0x7 SLOAD DUP2 JUMP JUMPDEST PUSH0 PUSH2 0xD46 PUSH2 0x2BBC JUMP JUMPDEST PUSH32 0x360894A13BA1A3210667C828492DB98DCA3E2076CC3735A920A3CA505D382BBC PUSH0 SHL SWAP1 POP SWAP1 JUMP JUMPDEST PUSH0 DUP1 PUSH0 SHL PUSH2 0xD7B DUP2 PUSH2 0x279D JUMP JUMPDEST PUSH2 0xD86 DUP6 DUP6 DUP6 PUSH2 0x2C43 JUMP JUMPDEST PUSH1 0x7 DUP2 SWAP1 SSTORE POP PUSH1 0x1 SWAP2 POP POP SWAP4 SWAP3 POP POP POP JUMP JUMPDEST PUSH1 0x60 PUSH1 0xB DUP1 SLOAD DUP1 PUSH1 0x20 MUL PUSH1 0x20 ADD PUSH1 0x40 MLOAD SWAP1 DUP2 ADD PUSH1 0x40 MSTORE DUP1 SWAP3 SWAP2 SWAP1 DUP2 DUP2 MSTORE PUSH1 0x20 ADD DUP3 DUP1 SLOAD DUP1 ISZERO PUSH2 0xE19 JUMPI PUSH1 0x20 MUL DUP3 ADD SWAP2 SWAP1 PUSH0 MSTORE PUSH1 0x20 PUSH0 KECCAK256 SWAP1 JUMPDEST DUP2 PUSH0 SWAP1 SLOAD SWAP1 PUSH2 0x100 EXP SWAP1 DIV PUSH20 0xFFFFFFFFFFFFFFFFFFFFFFFFFFFFFFFFFFFFFFFF AND PUSH20 0xFFFFFFFFFFFFFFFFFFFFFFFFFFFFFFFFFFFFFFFF AND DUP2 MSTORE PUSH1 0x20 ADD SWAP1 PUSH1 0x1 ADD SWAP1 DUP1 DUP4 GT PUSH2 0xDD0 JUMPI JUMPDEST POP POP POP POP POP SWAP1 POP SWAP1 JUMP JUMPDEST PUSH0 DUP1 SHL PUSH2 0xE2F DUP2 PUSH2 0x279D JUMP JUMPDEST PUSH0 PUSH20 0xFFFFFFFFFFFFFFFFFFFFFFFFFFFFFFFFFFFFFFFF AND DUP3 PUSH20 0xFFFFFFFFFFFFFFFFFFFFFFFFFFFFFFFFFFFFFFFF AND SUB PUSH2 0xE9D JUMPI PUSH1 0x40 MLOAD PUSH32 0x8C379A000000000000000000000000000000000000000000000000000000000 DUP2 MSTORE PUSH1 0x4 ADD PUSH2 0xE94 SWAP1 PUSH2 0x442B JUMP JUMPDEST PUSH1 0x40 MLOAD DUP1 SWAP2 SUB SWAP1 REVERT JUMPDEST PUSH0 PUSH1 0x20 PUSH0 DUP6 PUSH20 0xFFFFFFFFFFFFFFFFFFFFFFFFFFFFFFFFFFFFFFFF AND PUSH20 0xFFFFFFFFFFFFFFFFFFFFFFFFFFFFFFFFFFFFFFFF AND DUP2 MSTORE PUSH1 0x20 ADD SWAP1 DUP2 MSTORE PUSH1 0x20 ADD PUSH0 KECCAK256 PUSH1 0x40 MLOAD DUP1 PUSH2 0x120 ADD PUSH1 0x40 MSTORE SWAP1 DUP2 PUSH0 DUP3 ADD SLOAD DUP2 MSTORE PUSH1 0x20 ADD PUSH1 0x1 DUP3 ADD SLOAD DUP2 MSTORE PUSH1 0x20 ADD PUSH1 0x2 DUP3 ADD SLOAD DUP2 MSTORE PUSH1 0x20 ADD PUSH1 0x3 DUP3 ADD SLOAD DUP2 MSTORE PUSH1 0x20 ADD PUSH1 0x4 DUP3 ADD SLOAD DUP2 MSTORE PUSH1 0x20 ADD PUSH1 0x5 DUP3 ADD PUSH0 SWAP1 SLOAD SWAP1 PUSH2 0x100 EXP SWAP1 DIV PUSH1 0xFF AND ISZERO ISZERO ISZERO ISZERO DUP2 MSTORE PUSH1 0x20 ADD PUSH1 0x5 DUP3 ADD PUSH1 0x1 SWAP1 SLOAD SWAP1 PUSH2 0x100 EXP SWAP1 DIV PUSH1 0xFF AND PUSH1 0xFF AND PUSH1 0xFF AND DUP2 MSTORE PUSH1 0x20 ADD PUSH1 0x5 DUP3 ADD PUSH1 0x2 SWAP1 SLOAD SWAP1 PUSH2 0x100 EXP SWAP1 DIV PUSH1 0xFF AND PUSH1 0xFF AND PUSH1 0xFF AND DUP2 MSTORE PUSH1 0x20 ADD PUSH1 0x5 DUP3 ADD PUSH1 0x3 SWAP1 SLOAD SWAP1 PUSH2 0x100 EXP SWAP1 DIV PUSH1 0xFF AND ISZERO ISZERO ISZERO ISZERO DUP2 MSTORE POP POP SWAP1 POP DUP1 PUSH1 0x20 PUSH0 DUP6 PUSH20 0xFFFFFFFFFFFFFFFFFFFFFFFFFFFFFFFFFFFFFFFF AND PUSH20 0xFFFFFFFFFFFFFFFFFFFFFFFFFFFFFFFFFFFFFFFF AND DUP2 MSTORE PUSH1 0x20 ADD SWAP1 DUP2 MSTORE PUSH1 0x20 ADD PUSH0 KECCAK256 PUSH0 DUP3 ADD MLOAD DUP2 PUSH0 ADD SSTORE PUSH1 0x20 DUP3 ADD MLOAD DUP2 PUSH1 0x1 ADD SSTORE PUSH1 0x40 DUP3 ADD MLOAD DUP2 PUSH1 0x2 ADD SSTORE PUSH1 0x60 DUP3 ADD MLOAD DUP2 PUSH1 0x3 ADD SSTORE PUSH1 0x80 DUP3 ADD MLOAD DUP2 PUSH1 0x4 ADD SSTORE PUSH1 0xA0 DUP3 ADD MLOAD DUP2 PUSH1 0x5 ADD PUSH0 PUSH2 0x100 EXP DUP2 SLOAD DUP2 PUSH1 0xFF MUL NOT AND SWAP1 DUP4 ISZERO ISZERO MUL OR SWAP1 SSTORE POP PUSH1 0xC0 DUP3 ADD MLOAD DUP2 PUSH1 0x5 ADD PUSH1 0x1 PUSH2 0x100 EXP DUP2 SLOAD DUP2 PUSH1 0xFF MUL NOT AND SWAP1 DUP4 PUSH1 0xFF AND MUL OR SWAP1 SSTORE POP PUSH1 0xE0 DUP3 ADD MLOAD DUP2 PUSH1 0x5 ADD PUSH1 0x2 PUSH2 0x100 EXP DUP2 SLOAD DUP2 PUSH1 0xFF MUL NOT AND SWAP1 DUP4 PUSH1 0xFF AND MUL OR SWAP1 SSTORE POP PUSH2 0x100 DUP3 ADD MLOAD DUP2 PUSH1 0x5 ADD PUSH1 0x3 PUSH2 0x100 EXP DUP2 SLOAD DUP2 PUSH1 0xFF MUL NOT AND SWAP1 DUP4 ISZERO ISZERO MUL OR SWAP1 SSTORE POP SWAP1 POP POP PUSH0 JUMPDEST PUSH1 0xA DUP1 SLOAD SWAP1 POP DUP2 LT ISZERO PUSH2 0x11CC JUMPI PUSH0 PUSH1 0xA DUP3 DUP2 SLOAD DUP2 LT PUSH2 0x10A0 JUMPI PUSH2 0x109F PUSH2 0x4449 JUMP JUMPDEST JUMPDEST SWAP1 PUSH0 MSTORE PUSH1 0x20 PUSH0 KECCAK256 ADD PUSH0 SWAP1 SLOAD SWAP1 PUSH2 0x100 EXP SWAP1 DIV PUSH20 0xFFFFFFFFFFFFFFFFFFFFFFFFFFFFFFFFFFFFFFFF AND SWAP1 POP PUSH1 0xB DUP7 SWAP1 DUP1 PUSH1 0x1 DUP2 SLOAD ADD DUP1 DUP3 SSTORE DUP1 SWAP2 POP POP PUSH1 0x1 SWAP1 SUB SWAP1 PUSH0 MSTORE PUSH1 0x20 PUSH0 KECCAK256 ADD PUSH0 SWAP1 SWAP2 SWAP1 SWAP2 SWAP1 SWAP2 PUSH2 0x100 EXP DUP2 SLOAD DUP2 PUSH20 0xFFFFFFFFFFFFFFFFFFFFFFFFFFFFFFFFFFFFFFFF MUL NOT AND SWAP1 DUP4 PUSH20 0xFFFFFFFFFFFFFFFFFFFFFFFFFFFFFFFFFFFFFFFF AND MUL OR SWAP1 SSTORE POP DUP6 PUSH20 0xFFFFFFFFFFFFFFFFFFFFFFFFFFFFFFFFFFFFFFFF AND DUP2 PUSH20 0xFFFFFFFFFFFFFFFFFFFFFFFFFFFFFFFFFFFFFFFF AND SUB PUSH2 0x11B8 JUMPI DUP5 PUSH1 0xA DUP4 DUP2 SLOAD DUP2 LT PUSH2 0x1172 JUMPI PUSH2 0x1171 PUSH2 0x4449 JUMP JUMPDEST JUMPDEST SWAP1 PUSH0 MSTORE PUSH1 0x20 PUSH0 KECCAK256 ADD PUSH0 PUSH2 0x100 EXP DUP2 SLOAD DUP2 PUSH20 0xFFFFFFFFFFFFFFFFFFFFFFFFFFFFFFFFFFFFFFFF MUL NOT AND SWAP1 DUP4 PUSH20 0xFFFFFFFFFFFFFFFFFFFFFFFFFFFFFFFFFFFFFFFF AND MUL OR SWAP1 SSTORE POP JUMPDEST POP DUP1 DUP1 PUSH2 0x11C4 SWAP1 PUSH2 0x44A3 JUMP JUMPDEST SWAP2 POP POP PUSH2 0x107E JUMP JUMPDEST POP PUSH1 0x20 PUSH0 DUP6 PUSH20 0xFFFFFFFFFFFFFFFFFFFFFFFFFFFFFFFFFFFFFFFF AND PUSH20 0xFFFFFFFFFFFFFFFFFFFFFFFFFFFFFFFFFFFFFFFF AND DUP2 MSTORE PUSH1 0x20 ADD SWAP1 DUP2 MSTORE PUSH1 0x20 ADD PUSH0 KECCAK256 PUSH0 DUP1 DUP3 ADD PUSH0 SWAP1 SSTORE PUSH1 0x1 DUP3 ADD PUSH0 SWAP1 SSTORE PUSH1 0x2 DUP3 ADD PUSH0 SWAP1 SSTORE PUSH1 0x3 DUP3 ADD PUSH0 SWAP1 SSTORE PUSH1 0x4 DUP3 ADD PUSH0 SWAP1 SSTORE PUSH1 0x5 DUP3 ADD PUSH0 PUSH2 0x100 EXP DUP2 SLOAD SWAP1 PUSH1 0xFF MUL NOT AND SWAP1 SSTORE PUSH1 0x5 DUP3 ADD PUSH1 0x1 PUSH2 0x100 EXP DUP2 SLOAD SWAP1 PUSH1 0xFF MUL NOT AND SWAP1 SSTORE PUSH1 0x5 DUP3 ADD PUSH1 0x2 PUSH2 0x100 EXP DUP2 SLOAD SWAP1 PUSH1 0xFF MUL NOT AND SWAP1 SSTORE PUSH1 0x5 DUP3 ADD PUSH1 0x3 PUSH2 0x100 EXP DUP2 SLOAD SWAP1 PUSH1 0xFF MUL NOT AND SWAP1 SSTORE POP POP POP POP POP POP JUMP JUMPDEST PUSH1 0x60 PUSH1 0x1 PUSH0 DUP4 PUSH20 0xFFFFFFFFFFFFFFFFFFFFFFFFFFFFFFFFFFFFFFFF AND PUSH20 0xFFFFFFFFFFFFFFFFFFFFFFFFFFFFFFFFFFFFFFFF AND DUP2 MSTORE PUSH1 0x20 ADD SWAP1 DUP2 MSTORE PUSH1 0x20 ADD PUSH0 KECCAK256 DUP1 SLOAD DUP1 PUSH1 0x20 MUL PUSH1 0x20 ADD PUSH1 0x40 MLOAD SWAP1 DUP2 ADD PUSH1 0x40 MSTORE DUP1 SWAP3 SWAP2 SWAP1 DUP2 DUP2 MSTORE PUSH1 0x20 ADD PUSH0 SWAP1 JUMPDEST DUP3 DUP3 LT ISZERO PUSH2 0x13AB JUMPI DUP4 DUP3 SWAP1 PUSH0 MSTORE PUSH1 0x20 PUSH0 KECCAK256 SWAP1 PUSH1 0x2 MUL ADD PUSH1 0x40 MLOAD DUP1 PUSH1 0x40 ADD PUSH1 0x40 MSTORE SWAP1 DUP2 PUSH0 DUP3 ADD SLOAD DUP2 MSTORE PUSH1 0x20 ADD PUSH1 0x1 DUP3 ADD DUP1 SLOAD PUSH2 0x131C SWAP1 PUSH2 0x438B JUMP JUMPDEST DUP1 PUSH1 0x1F ADD PUSH1 0x20 DUP1 SWAP2 DIV MUL PUSH1 0x20 ADD PUSH1 0x40 MLOAD SWAP1 DUP2 ADD PUSH1 0x40 MSTORE DUP1 SWAP3 SWAP2 SWAP1 DUP2 DUP2 MSTORE PUSH1 0x20 ADD DUP3 DUP1 SLOAD PUSH2 0x1348 SWAP1 PUSH2 0x438B JUMP JUMPDEST DUP1 ISZERO PUSH2 0x1393 JUMPI DUP1 PUSH1 0x1F LT PUSH2 0x136A JUMPI PUSH2 0x100 DUP1 DUP4 SLOAD DIV MUL DUP4 MSTORE SWAP2 PUSH1 0x20 ADD SWAP2 PUSH2 0x1393 JUMP JUMPDEST DUP3 ADD SWAP2 SWAP1 PUSH0 MSTORE PUSH1 0x20 PUSH0 KECCAK256 SWAP1 JUMPDEST DUP2 SLOAD DUP2 MSTORE SWAP1 PUSH1 0x1 ADD SWAP1 PUSH1 0x20 ADD DUP1 DUP4 GT PUSH2 0x1376 JUMPI DUP3 SWAP1 SUB PUSH1 0x1F AND DUP3 ADD SWAP2 JUMPDEST POP POP POP POP POP DUP2 MSTORE POP POP DUP2 MSTORE PUSH1 0x20 ADD SWAP1 PUSH1 0x1 ADD SWAP1 PUSH2 0x12E2 JUMP JUMPDEST POP POP POP POP SWAP1 POP SWAP2 SWAP1 POP JUMP JUMPDEST PUSH2 0x13BE PUSH2 0x37AF JUMP JUMPDEST PUSH1 0x20 PUSH0 DUP4 PUSH20 0xFFFFFFFFFFFFFFFFFFFFFFFFFFFFFFFFFFFFFFFF AND PUSH20 0xFFFFFFFFFFFFFFFFFFFFFFFFFFFFFFFFFFFFFFFF AND DUP2 MSTORE PUSH1 0x20 ADD SWAP1 DUP2 MSTORE PUSH1 0x20 ADD PUSH0 KECCAK256 PUSH1 0x40 MLOAD DUP1 PUSH2 0x120 ADD PUSH1 0x40 MSTORE SWAP1 DUP2 PUSH0 DUP3 ADD SLOAD DUP2 MSTORE PUSH1 0x20 ADD PUSH1 0x1 DUP3 ADD SLOAD DUP2 MSTORE PUSH1 0x20 ADD PUSH1 0x2 DUP3 ADD SLOAD DUP2 MSTORE PUSH1 0x20 ADD PUSH1 0x3 DUP3 ADD SLOAD DUP2 MSTORE PUSH1 0x20 ADD PUSH1 0x4 DUP3 ADD SLOAD DUP2 MSTORE PUSH1 0x20 ADD PUSH1 0x5 DUP3 ADD PUSH0 SWAP1 SLOAD SWAP1 PUSH2 0x100 EXP SWAP1 DIV PUSH1 0xFF AND ISZERO ISZERO ISZERO ISZERO DUP2 MSTORE PUSH1 0x20 ADD PUSH1 0x5 DUP3 ADD PUSH1 0x1 SWAP1 SLOAD SWAP1 PUSH2 0x100 EXP SWAP1 DIV PUSH1 0xFF AND PUSH1 0xFF AND PUSH1 0xFF AND DUP2 MSTORE PUSH1 0x20 ADD PUSH1 0x5 DUP3 ADD PUSH1 0x2 SWAP1 SLOAD SWAP1 PUSH2 0x100 EXP SWAP1 DIV PUSH1 0xFF AND PUSH1 0xFF AND PUSH1 0xFF AND DUP2 MSTORE PUSH1 0x20 ADD PUSH1 0x5 DUP3 ADD PUSH1 0x3 SWAP1 SLOAD SWAP1 PUSH2 0x100 EXP SWAP1 DIV PUSH1 0xFF AND ISZERO ISZERO ISZERO ISZERO DUP2 MSTORE POP POP SWAP1 POP SWAP2 SWAP1 POP JUMP JUMPDEST PUSH0 DUP1 PUSH0 SHL PUSH2 0x14BB DUP2 PUSH2 0x279D JUMP JUMPDEST PUSH2 0x14C3 PUSH2 0x2C66 JUMP JUMPDEST PUSH1 0xC PUSH0 SWAP1 SLOAD SWAP1 PUSH2 0x100 EXP SWAP1 DIV PUSH1 0xFF AND PUSH1 0xFF AND SWAP2 POP POP SWAP1 JUMP JUMPDEST PUSH0 PUSH1 0x20 PUSH0 DUP4 PUSH20 0xFFFFFFFFFFFFFFFFFFFFFFFFFFFFFFFFFFFFFFFF AND PUSH20 0xFFFFFFFFFFFFFFFFFFFFFFFFFFFFFFFFFFFFFFFF AND DUP2 MSTORE PUSH1 0x20 ADD SWAP1 DUP2 MSTORE PUSH1 0x20 ADD PUSH0 KECCAK256 PUSH0 ADD SLOAD SWAP1 POP SWAP2 SWAP1 POP JUMP JUMPDEST PUSH0 DUP1 SHL PUSH2 0x152F DUP2 PUSH2 0x279D JUMP JUMPDEST PUSH1 0xE PUSH1 0x1 SWAP1 SLOAD SWAP1 PUSH2 0x100 EXP SWAP1 DIV PUSH1 0xFF AND ISZERO PUSH1 0xE PUSH1 0x1 PUSH2 0x100 EXP DUP2 SLOAD DUP2 PUSH1 0xFF MUL NOT AND SWAP1 DUP4 ISZERO ISZERO MUL OR SWAP1 SSTORE POP POP JUMP JUMPDEST PUSH0 DUP2 PUSH1 0xE PUSH2 0x156A SWAP2 SWAP1 PUSH2 0x44EA JUMP JUMPDEST PUSH1 0x10 SLOAD PUSH1 0xF SLOAD PUSH2 0x157A SWAP2 SWAP1 PUSH2 0x44EA JUMP JUMPDEST PUSH2 0x1584 SWAP2 SWAP1 PUSH2 0x454A JUMP JUMPDEST SWAP1 POP SWAP2 SWAP1 POP JUMP JUMPDEST PUSH0 PUSH1 0xE PUSH0 SWAP1 SLOAD SWAP1 PUSH2 0x100 EXP SWAP1 DIV PUSH1 0xFF AND ISZERO PUSH2 0x15DB JUMPI PUSH1 0x40 MLOAD PUSH32 0x8C379A000000000000000000000000000000000000000000000000000000000 DUP2 MSTORE PUSH1 0x4 ADD PUSH2 0x15D2 SWAP1 PUSH2 0x45C4 JUMP JUMPDEST PUSH1 0x40 MLOAD DUP1 SWAP2 SUB SWAP1 REVERT JUMPDEST PUSH32 0x48E5FDD69E4B589D17E7C305DE95D4B0ADD4D0E03E1845DDF8DADDEC4BB0617B PUSH2 0x1605 DUP2 PUSH2 0x279D JUMP JUMPDEST PUSH0 PUSH20 0xFFFFFFFFFFFFFFFFFFFFFFFFFFFFFFFFFFFFFFFF AND DUP7 PUSH20 0xFFFFFFFFFFFFFFFFFFFFFFFFFFFFFFFFFFFFFFFF AND SUB PUSH2 0x1673 JUMPI PUSH1 0x40 MLOAD PUSH32 0x8C379A000000000000000000000000000000000000000000000000000000000 DUP2 MSTORE PUSH1 0x4 ADD PUSH2 0x166A SWAP1 PUSH2 0x462C JUMP JUMPDEST PUSH1 0x40 MLOAD DUP1 SWAP2 SUB SWAP1 REVERT JUMPDEST PUSH2 0x167B PUSH2 0x2C66 JUMP JUMPDEST PUSH0 PUSH1 0x20 PUSH0 DUP9 PUSH20 0xFFFFFFFFFFFFFFFFFFFFFFFFFFFFFFFFFFFFFFFF AND PUSH20 0xFFFFFFFFFFFFFFFFFFFFFFFFFFFFFFFFFFFFFFFF AND DUP2 MSTORE PUSH1 0x20 ADD SWAP1 DUP2 MSTORE PUSH1 0x20 ADD PUSH0 KECCAK256 SWAP1 POP DUP1 PUSH1 0x5 ADD PUSH0 SWAP1 SLOAD SWAP1 PUSH2 0x100 EXP SWAP1 DIV PUSH1 0xFF AND PUSH2 0x1832 JUMPI PUSH2 0x16D8 PUSH2 0x2063 JUMP JUMPDEST DUP2 PUSH1 0x3 ADD DUP2 SWAP1 SSTORE POP PUSH1 0x1 DUP2 PUSH1 0x5 ADD PUSH0 PUSH2 0x100 EXP DUP2 SLOAD DUP2 PUSH1 0xFF MUL NOT AND SWAP1 DUP4 ISZERO ISZERO MUL OR SWAP1 SSTORE POP PUSH1 0xA DUP8 SWAP1 DUP1 PUSH1 0x1 DUP2 SLOAD ADD DUP1 DUP3 SSTORE DUP1 SWAP2 POP POP PUSH1 0x1 SWAP1 SUB SWAP1 PUSH0 MSTORE PUSH1 0x20 PUSH0 KECCAK256 ADD PUSH0 SWAP1 SWAP2 SWAP1 SWAP2 SWAP1 SWAP2 PUSH2 0x100 EXP DUP2 SLOAD DUP2 PUSH20 0xFFFFFFFFFFFFFFFFFFFFFFFFFFFFFFFFFFFFFFFF MUL NOT AND SWAP1 DUP4 PUSH20 0xFFFFFFFFFFFFFFFFFFFFFFFFFFFFFFFFFFFFFFFF AND MUL OR SWAP1 SSTORE POP DUP5 ISZERO PUSH2 0x17BE JUMPI PUSH0 DUP2 PUSH1 0x5 ADD PUSH1 0x2 PUSH2 0x100 EXP DUP2 SLOAD DUP2 PUSH1 0xFF MUL NOT AND SWAP1 DUP4 PUSH1 0xFF AND MUL OR SWAP1 SSTORE POP PUSH0 DUP2 PUSH1 0x5 ADD PUSH1 0x1 PUSH2 0x100 EXP DUP2 SLOAD DUP2 PUSH1 0xFF MUL NOT AND SWAP1 DUP4 PUSH1 0xFF AND MUL OR SWAP1 SSTORE POP PUSH1 0x1 DUP2 PUSH1 0x5 ADD PUSH1 0x3 PUSH2 0x100 EXP DUP2 SLOAD DUP2 PUSH1 0xFF MUL NOT AND SWAP1 DUP4 ISZERO ISZERO MUL OR SWAP1 SSTORE POP PUSH2 0x1831 JUMP JUMPDEST PUSH1 0xC PUSH0 SWAP1 SLOAD SWAP1 PUSH2 0x100 EXP SWAP1 DIV PUSH1 0xFF AND DUP2 PUSH1 0x5 ADD PUSH1 0x2 PUSH2 0x100 EXP DUP2 SLOAD DUP2 PUSH1 0xFF MUL NOT AND SWAP1 DUP4 PUSH1 0xFF AND MUL OR SWAP1 SSTORE POP PUSH1 0xC PUSH0 SWAP1 SLOAD SWAP1 PUSH2 0x100 EXP SWAP1 DIV PUSH1 0xFF AND DUP2 PUSH1 0x5 ADD PUSH1 0x1 PUSH2 0x100 EXP DUP2 SLOAD DUP2 PUSH1 0xFF MUL NOT AND SWAP1 DUP4 PUSH1 0xFF AND MUL OR SWAP1 SSTORE POP PUSH0 DUP2 PUSH1 0x5 ADD PUSH1 0x3 PUSH2 0x100 EXP DUP2 SLOAD DUP2 PUSH1 0xFF MUL NOT AND SWAP1 DUP4 ISZERO ISZERO MUL OR SWAP1 SSTORE POP JUMPDEST JUMPDEST DUP5 ISZERO PUSH2 0x18D0 JUMPI PUSH1 0x64 PUSH1 0x62 DUP8 PUSH2 0x1847 SWAP2 SWAP1 PUSH2 0x464A JUMP JUMPDEST PUSH2 0x1851 SWAP2 SWAP1 PUSH2 0x454A JUMP JUMPDEST DUP2 PUSH0 ADD PUSH0 DUP3 DUP3 SLOAD PUSH2 0x1862 SWAP2 SWAP1 PUSH2 0x468B JUMP JUMPDEST SWAP3 POP POP DUP2 SWAP1 SSTORE POP PUSH1 0x64 PUSH1 0x2 DUP8 PUSH2 0x1878 SWAP2 SWAP1 PUSH2 0x464A JUMP JUMPDEST PUSH2 0x1882 SWAP2 SWAP1 PUSH2 0x454A JUMP JUMPDEST DUP2 PUSH1 0x1 ADD PUSH0 DUP3 DUP3 SLOAD PUSH2 0x1894 SWAP2 SWAP1 PUSH2 0x468B JUMP JUMPDEST SWAP3 POP POP DUP2 SWAP1 SSTORE POP PUSH1 0x64 PUSH1 0x62 DUP8 PUSH2 0x18AA SWAP2 SWAP1 PUSH2 0x464A JUMP JUMPDEST PUSH2 0x18B4 SWAP2 SWAP1 PUSH2 0x454A JUMP JUMPDEST PUSH1 0xF PUSH0 DUP3 DUP3 SLOAD PUSH2 0x18C4 SWAP2 SWAP1 PUSH2 0x468B JUMP JUMPDEST SWAP3 POP POP DUP2 SWAP1 SSTORE POP PUSH2 0x19D7 JUMP JUMPDEST PUSH0 PUSH1 0x6 SLOAD PUSH2 0x18DC PUSH2 0x2063 JUMP JUMPDEST GT DUP1 ISZERO PUSH2 0x18F1 JUMPI POP PUSH1 0x7 SLOAD PUSH2 0x18EF PUSH2 0x2063 JUMP JUMPDEST LT JUMPDEST ISZERO PUSH2 0x1940 JUMPI PUSH0 PUSH1 0x64 PUSH1 0x2 DUP10 PUSH2 0x1906 SWAP2 SWAP1 PUSH2 0x464A JUMP JUMPDEST PUSH2 0x1910 SWAP2 SWAP1 PUSH2 0x454A JUMP JUMPDEST SWAP1 POP DUP1 DUP4 PUSH1 0x1 ADD PUSH0 DUP3 DUP3 SLOAD PUSH2 0x1925 SWAP2 SWAP1 PUSH2 0x468B JUMP JUMPDEST SWAP3 POP POP DUP2 SWAP1 SSTORE POP DUP1 DUP9 PUSH2 0x1938 SWAP2 SWAP1 PUSH2 0x44EA JUMP JUMPDEST SWAP2 POP POP PUSH2 0x1944 JUMP JUMPDEST DUP7 SWAP1 POP JUMPDEST PUSH0 DUP3 PUSH1 0x5 ADD PUSH1 0x1 SWAP1 SLOAD SWAP1 PUSH2 0x100 EXP SWAP1 DIV PUSH1 0xFF AND PUSH1 0xFF AND PUSH1 0xE DUP4 PUSH2 0x1967 SWAP2 SWAP1 PUSH2 0x454A JUMP JUMPDEST PUSH2 0x1971 SWAP2 SWAP1 PUSH2 0x464A JUMP JUMPDEST SWAP1 POP DUP1 DUP4 PUSH1 0x1 ADD PUSH0 DUP3 DUP3 SLOAD PUSH2 0x1986 SWAP2 SWAP1 PUSH2 0x468B JUMP JUMPDEST SWAP3 POP POP DUP2 SWAP1 SSTORE POP DUP1 DUP3 PUSH2 0x1999 SWAP2 SWAP1 PUSH2 0x44EA JUMP JUMPDEST DUP4 PUSH0 ADD PUSH0 DUP3 DUP3 SLOAD PUSH2 0x19AA SWAP2 SWAP1 PUSH2 0x468B JUMP JUMPDEST SWAP3 POP POP DUP2 SWAP1 SSTORE POP DUP1 DUP3 PUSH2 0x19BD SWAP2 SWAP1 PUSH2 0x44EA JUMP JUMPDEST PUSH1 0xF PUSH0 DUP3 DUP3 SLOAD PUSH2 0x19CD SWAP2 SWAP1 PUSH2 0x468B JUMP JUMPDEST SWAP3 POP POP DUP2 SWAP1 SSTORE POP POP POP JUMPDEST PUSH1 0x1 PUSH0 DUP9 PUSH20 0xFFFFFFFFFFFFFFFFFFFFFFFFFFFFFFFFFFFFFFFF AND PUSH20 0xFFFFFFFFFFFFFFFFFFFFFFFFFFFFFFFFFFFFFFFF AND DUP2 MSTORE PUSH1 0x20 ADD SWAP1 DUP2 MSTORE PUSH1 0x20 ADD PUSH0 KECCAK256 PUSH1 0x40 MLOAD DUP1 PUSH1 0x40 ADD PUSH1 0x40 MSTORE DUP1 DUP9 DUP2 MSTORE PUSH1 0x20 ADD DUP7 DUP2 MSTORE POP SWAP1 DUP1 PUSH1 0x1 DUP2 SLOAD ADD DUP1 DUP3 SSTORE DUP1 SWAP2 POP POP PUSH1 0x1 SWAP1 SUB SWAP1 PUSH0 MSTORE PUSH1 0x20 PUSH0 KECCAK256 SWAP1 PUSH1 0x2 MUL ADD PUSH0 SWAP1 SWAP2 SWAP1 SWAP2 SWAP1 SWAP2 POP PUSH0 DUP3 ADD MLOAD DUP2 PUSH0 ADD SSTORE PUSH1 0x20 DUP3 ADD MLOAD DUP2 PUSH1 0x1 ADD SWAP1 DUP2 PUSH2 0x1A6C SWAP2 SWAP1 PUSH2 0x485B JUMP JUMPDEST POP POP POP DUP7 PUSH20 0xFFFFFFFFFFFFFFFFFFFFFFFFFFFFFFFFFFFFFFFF AND PUSH32 0x2C6E3DF7A6DC07523667E913299465C2D89FCB003039BF78A016A810ACE60DAB DUP8 DUP8 DUP8 PUSH1 0x40 MLOAD PUSH2 0x1AB9 SWAP4 SWAP3 SWAP2 SWAP1 PUSH2 0x492A JUMP JUMPDEST PUSH1 0x40 MLOAD DUP1 SWAP2 SUB SWAP1 LOG2 PUSH1 0x1 SWAP3 POP POP POP SWAP5 SWAP4 POP POP POP POP JUMP JUMPDEST PUSH0 PUSH2 0x1AD8 PUSH2 0x2DE5 JUMP JUMPDEST SWAP1 POP PUSH0 DUP2 PUSH0 ADD PUSH1 0x8 SWAP1 SLOAD SWAP1 PUSH2 0x100 EXP SWAP1 DIV PUSH1 0xFF AND ISZERO SWAP1 POP PUSH0 DUP3 PUSH0 ADD PUSH0 SWAP1 SLOAD SWAP1 PUSH2 0x100 EXP SWAP1 DIV PUSH8 0xFFFFFFFFFFFFFFFF AND SWAP1 POP PUSH0 DUP1 DUP3 PUSH8 0xFFFFFFFFFFFFFFFF AND EQ DUP1 ISZERO PUSH2 0x1B20 JUMPI POP DUP3 JUMPDEST SWAP1 POP PUSH0 PUSH1 0x1 DUP4 PUSH8 0xFFFFFFFFFFFFFFFF AND EQ DUP1 ISZERO PUSH2 0x1B53 JUMPI POP PUSH0 ADDRESS PUSH20 0xFFFFFFFFFFFFFFFFFFFFFFFFFFFFFFFFFFFFFFFF AND EXTCODESIZE EQ JUMPDEST SWAP1 POP DUP2 ISZERO DUP1 ISZERO PUSH2 0x1B61 JUMPI POP DUP1 ISZERO JUMPDEST ISZERO PUSH2 0x1B98 JUMPI PUSH1 0x40 MLOAD PUSH32 0xF92EE8A900000000000000000000000000000000000000000000000000000000 DUP2 MSTORE PUSH1 0x4 ADD PUSH1 0x40 MLOAD DUP1 SWAP2 SUB SWAP1 REVERT JUMPDEST PUSH1 0x1 DUP6 PUSH0 ADD PUSH0 PUSH2 0x100 EXP DUP2 SLOAD DUP2 PUSH8 0xFFFFFFFFFFFFFFFF MUL NOT AND SWAP1 DUP4 PUSH8 0xFFFFFFFFFFFFFFFF AND MUL OR SWAP1 SSTORE POP DUP4 ISZERO PUSH2 0x1BE5 JUMPI PUSH1 0x1 DUP6 PUSH0 ADD PUSH1 0x8 PUSH2 0x100 EXP DUP2 SLOAD DUP2 PUSH1 0xFF MUL NOT AND SWAP1 DUP4 ISZERO ISZERO MUL OR SWAP1 SSTORE POP JUMPDEST PUSH2 0x1BED PUSH2 0x2E0C JUMP JUMPDEST PUSH1 0x40 MLOAD DUP1 PUSH1 0x40 ADD PUSH1 0x40 MSTORE DUP1 PUSH1 0xA DUP2 MSTORE PUSH1 0x20 ADD PUSH32 0x7665737465644349464400000000000000000000000000000000000000000000 DUP2 MSTORE POP PUSH1 0x8 SWAP1 DUP2 PUSH2 0x1C31 SWAP2 SWAP1 PUSH2 0x485B JUMP JUMPDEST POP PUSH1 0x40 MLOAD DUP1 PUSH1 0x40 ADD PUSH1 0x40 MSTORE DUP1 PUSH1 0x5 DUP2 MSTORE PUSH1 0x20 ADD PUSH32 0x5643494644000000000000000000000000000000000000000000000000000000 DUP2 MSTORE POP PUSH1 0x9 SWAP1 DUP2 PUSH2 0x1C76 SWAP2 SWAP1 PUSH2 0x485B JUMP JUMPDEST POP PUSH1 0x40 MLOAD DUP1 PUSH2 0x1C0 ADD PUSH1 0x40 MSTORE DUP1 PUSH2 0x1C92 PUSH2 0x7E7 PUSH1 0xB PUSH1 0x10 PUSH2 0x2C43 JUMP JUMPDEST DUP2 MSTORE PUSH1 0x20 ADD PUSH2 0x1CA6 PUSH2 0x7E7 PUSH1 0xC PUSH1 0x10 PUSH2 0x2C43 JUMP JUMPDEST DUP2 MSTORE PUSH1 0x20 ADD PUSH2 0x1CBA PUSH2 0x7E8 PUSH1 0x1 PUSH1 0x10 PUSH2 0x2C43 JUMP JUMPDEST DUP2 MSTORE PUSH1 0x20 ADD PUSH2 0x1CCE PUSH2 0x7E8 PUSH1 0x2 PUSH1 0x10 PUSH2 0x2C43 JUMP JUMPDEST DUP2 MSTORE PUSH1 0x20 ADD PUSH2 0x1CE2 PUSH2 0x7E8 PUSH1 0x3 PUSH1 0x10 PUSH2 0x2C43 JUMP JUMPDEST DUP2 MSTORE PUSH1 0x20 ADD PUSH2 0x1CF6 PUSH2 0x7E8 PUSH1 0x4 PUSH1 0x10 PUSH2 0x2C43 JUMP JUMPDEST DUP2 MSTORE PUSH1 0x20 ADD PUSH2 0x1D0A PUSH2 0x7E8 PUSH1 0x5 PUSH1 0x10 PUSH2 0x2C43 JUMP JUMPDEST DUP2 MSTORE PUSH1 0x20 ADD PUSH2 0x1D1E PUSH2 0x7E8 PUSH1 0x6 PUSH1 0x10 PUSH2 0x2C43 JUMP JUMPDEST DUP2 MSTORE PUSH1 0x20 ADD PUSH2 0x1D32 PUSH2 0x7E8 PUSH1 0x7 PUSH1 0x10 PUSH2 0x2C43 JUMP JUMPDEST DUP2 MSTORE PUSH1 0x20 ADD PUSH2 0x1D46 PUSH2 0x7E8 PUSH1 0x8 PUSH1 0x10 PUSH2 0x2C43 JUMP JUMPDEST DUP2 MSTORE PUSH1 0x20 ADD PUSH2 0x1D5A PUSH2 0x7E8 PUSH1 0x9 PUSH1 0x10 PUSH2 0x2C43 JUMP JUMPDEST DUP2 MSTORE PUSH1 0x20 ADD PUSH2 0x1D6E PUSH2 0x7E8 PUSH1 0xA PUSH1 0x10 PUSH2 0x2C43 JUMP JUMPDEST DUP2 MSTORE PUSH1 0x20 ADD PUSH2 0x1D82 PUSH2 0x7E8 PUSH1 0xB PUSH1 0x10 PUSH2 0x2C43 JUMP JUMPDEST DUP2 MSTORE PUSH1 0x20 ADD PUSH2 0x1D96 PUSH2 0x7E8 PUSH1 0xC PUSH1 0x10 PUSH2 0x2C43 JUMP JUMPDEST DUP2 MSTORE POP PUSH1 0x12 SWAP1 PUSH1 0xE PUSH2 0x1DA9 SWAP3 SWAP2 SWAP1 PUSH2 0x37FC JUMP JUMPDEST POP PUSH2 0x1DB9 PUSH2 0x7E7 PUSH1 0xB PUSH1 0x10 PUSH2 0x2C43 JUMP JUMPDEST PUSH1 0x2 DUP2 SWAP1 SSTORE POP PUSH2 0x1DCE PUSH2 0x7E8 PUSH1 0xC PUSH1 0x10 PUSH2 0x2C43 JUMP JUMPDEST PUSH1 0x3 DUP2 SWAP1 SSTORE POP PUSH2 0x1DE3 PUSH2 0x7E7 PUSH1 0x9 PUSH1 0xF PUSH2 0x2C43 JUMP JUMPDEST PUSH1 0x6 DUP2 SWAP1 SSTORE POP PUSH2 0x1DF8 PUSH2 0x7E8 PUSH1 0x1 PUSH1 0x12 PUSH2 0x2C43 JUMP JUMPDEST PUSH1 0x7 DUP2 SWAP1 SSTORE POP PUSH2 0x1E0D PUSH2 0x7E7 PUSH1 0x9 PUSH1 0xF PUSH2 0x2C43 JUMP JUMPDEST PUSH1 0x4 DUP2 SWAP1 SSTORE POP PUSH2 0x1E22 PUSH2 0x7E8 PUSH1 0x1 PUSH1 0x12 PUSH2 0x2C43 JUMP JUMPDEST PUSH1 0x5 DUP2 SWAP1 SSTORE POP TIMESTAMP PUSH1 0xD DUP2 SWAP1 SSTORE POP CALLER PUSH1 0x11 PUSH0 PUSH2 0x100 EXP DUP2 SLOAD DUP2 PUSH20 0xFFFFFFFFFFFFFFFFFFFFFFFFFFFFFFFFFFFFFFFF MUL NOT AND SWAP1 DUP4 PUSH20 0xFFFFFFFFFFFFFFFFFFFFFFFFFFFFFFFFFFFFFFFF AND MUL OR SWAP1 SSTORE POP PUSH1 0x1 PUSH1 0xE PUSH1 0x1 PUSH2 0x100 EXP DUP2 SLOAD DUP2 PUSH1 0xFF MUL NOT AND SWAP1 DUP4 ISZERO ISZERO MUL OR SWAP1 SSTORE POP PUSH2 0x1EB7 PUSH0 DUP1 SHL PUSH1 0x11 PUSH0 SWAP1 SLOAD SWAP1 PUSH2 0x100 EXP SWAP1 DIV PUSH20 0xFFFFFFFFFFFFFFFFFFFFFFFFFFFFFFFFFFFFFFFF AND PUSH2 0x27B1 JUMP JUMPDEST POP PUSH2 0x1F03 PUSH32 0x48E5FDD69E4B589D17E7C305DE95D4B0ADD4D0E03E1845DDF8DADDEC4BB0617B PUSH1 0x11 PUSH0 SWAP1 SLOAD SWAP1 PUSH2 0x100 EXP SWAP1 DIV PUSH20 0xFFFFFFFFFFFFFFFFFFFFFFFFFFFFFFFFFFFFFFFF AND PUSH2 0x27B1 JUMP JUMPDEST POP DUP4 ISZERO PUSH2 0x1F5E JUMPI PUSH0 DUP6 PUSH0 ADD PUSH1 0x8 PUSH2 0x100 EXP DUP2 SLOAD DUP2 PUSH1 0xFF MUL NOT AND SWAP1 DUP4 ISZERO ISZERO MUL OR SWAP1 SSTORE POP PUSH32 0xC7F505B2F371AE2175EE4913F4499E1F2633A7B5936321EED1CDAEB6115181D2 PUSH1 0x1 PUSH1 0x40 MLOAD PUSH2 0x1F55 SWAP2 SWAP1 PUSH2 0x49B2 JUMP JUMPDEST PUSH1 0x40 MLOAD DUP1 SWAP2 SUB SWAP1 LOG1 JUMPDEST POP POP POP POP POP JUMP JUMPDEST PUSH0 DUP1 SHL PUSH2 0x1F71 DUP2 PUSH2 0x279D JUMP JUMPDEST PUSH2 0x1F9B PUSH32 0x48E5FDD69E4B589D17E7C305DE95D4B0ADD4D0E03E1845DDF8DADDEC4BB0617B DUP4 PUSH2 0x27B1 JUMP JUMPDEST POP POP POP JUMP JUMPDEST PUSH1 0x3 SLOAD DUP2 JUMP JUMPDEST PUSH32 0x48E5FDD69E4B589D17E7C305DE95D4B0ADD4D0E03E1845DDF8DADDEC4BB0617B DUP2 JUMP JUMPDEST PUSH32 0x48E5FDD69E4B589D17E7C305DE95D4B0ADD4D0E03E1845DDF8DADDEC4BB0617B PUSH2 0x1FF4 DUP2 PUSH2 0x279D JUMP JUMPDEST PUSH0 PUSH1 0xA DUP1 SLOAD SWAP1 POP SWAP1 POP PUSH0 JUMPDEST DUP2 DUP2 LT ISZERO PUSH2 0x205E JUMPI PUSH2 0x204B PUSH1 0xA DUP3 DUP2 SLOAD DUP2 LT PUSH2 0x201E JUMPI PUSH2 0x201D PUSH2 0x4449 JUMP JUMPDEST JUMPDEST SWAP1 PUSH0 MSTORE PUSH1 0x20 PUSH0 KECCAK256 ADD PUSH0 SWAP1 SLOAD SWAP1 PUSH2 0x100 EXP SWAP1 DIV PUSH20 0xFFFFFFFFFFFFFFFFFFFFFFFFFFFFFFFFFFFFFFFF AND PUSH2 0x23D0 JUMP JUMPDEST DUP1 DUP1 PUSH2 0x2056 SWAP1 PUSH2 0x44A3 JUMP JUMPDEST SWAP2 POP POP PUSH2 0x1FFF JUMP JUMPDEST POP POP POP JUMP JUMPDEST PUSH0 PUSH1 0xD SLOAD SWAP1 POP SWAP1 JUMP JUMPDEST PUSH0 DUP1 PUSH0 DUP1 PUSH0 DUP1 PUSH0 PUSH1 0x20 PUSH0 DUP10 PUSH20 0xFFFFFFFFFFFFFFFFFFFFFFFFFFFFFFFFFFFFFFFF AND PUSH20 0xFFFFFFFFFFFFFFFFFFFFFFFFFFFFFFFFFFFFFFFF AND DUP2 MSTORE PUSH1 0x20 ADD SWAP1 DUP2 MSTORE PUSH1 0x20 ADD PUSH0 KECCAK256 PUSH1 0x40 MLOAD DUP1 PUSH2 0x120 ADD PUSH1 0x40 MSTORE SWAP1 DUP2 PUSH0 DUP3 ADD SLOAD DUP2 MSTORE PUSH1 0x20 ADD PUSH1 0x1 DUP3 ADD SLOAD DUP2 MSTORE PUSH1 0x20 ADD PUSH1 0x2 DUP3 ADD SLOAD DUP2 MSTORE PUSH1 0x20 ADD PUSH1 0x3 DUP3 ADD SLOAD DUP2 MSTORE PUSH1 0x20 ADD PUSH1 0x4 DUP3 ADD SLOAD DUP2 MSTORE PUSH1 0x20 ADD PUSH1 0x5 DUP3 ADD PUSH0 SWAP1 SLOAD SWAP1 PUSH2 0x100 EXP SWAP1 DIV PUSH1 0xFF AND ISZERO ISZERO ISZERO ISZERO DUP2 MSTORE PUSH1 0x20 ADD PUSH1 0x5 DUP3 ADD PUSH1 0x1 SWAP1 SLOAD SWAP1 PUSH2 0x100 EXP SWAP1 DIV PUSH1 0xFF AND PUSH1 0xFF AND PUSH1 0xFF AND DUP2 MSTORE PUSH1 0x20 ADD PUSH1 0x5 DUP3 ADD PUSH1 0x2 SWAP1 SLOAD SWAP1 PUSH2 0x100 EXP SWAP1 DIV PUSH1 0xFF AND PUSH1 0xFF AND PUSH1 0xFF AND DUP2 MSTORE PUSH1 0x20 ADD PUSH1 0x5 DUP3 ADD PUSH1 0x3 SWAP1 SLOAD SWAP1 PUSH2 0x100 EXP SWAP1 DIV PUSH1 0xFF AND ISZERO ISZERO ISZERO ISZERO DUP2 MSTORE POP POP SWAP1 POP DUP1 PUSH1 0xC0 ADD MLOAD PUSH1 0xFF AND SWAP7 POP DUP1 PUSH1 0x20 ADD MLOAD SWAP5 POP DUP1 PUSH1 0x40 ADD MLOAD SWAP4 POP DUP1 PUSH1 0xE0 ADD MLOAD PUSH1 0xFF AND SWAP3 POP DUP1 PUSH0 ADD MLOAD SWAP6 POP DUP1 PUSH1 0xA0 ADD MLOAD PUSH2 0x2195 JUMPI PUSH0 PUSH2 0x2198 JUMP JUMPDEST PUSH1 0x1 JUMPDEST SWAP2 POP POP SWAP2 SWAP4 SWAP6 POP SWAP2 SWAP4 SWAP6 JUMP JUMPDEST PUSH0 PUSH1 0x20 PUSH0 DUP4 PUSH20 0xFFFFFFFFFFFFFFFFFFFFFFFFFFFFFFFFFFFFFFFF AND PUSH20 0xFFFFFFFFFFFFFFFFFFFFFFFFFFFFFFFFFFFFFFFF AND DUP2 MSTORE PUSH1 0x20 ADD SWAP1 DUP2 MSTORE PUSH1 0x20 ADD PUSH0 KECCAK256 PUSH1 0x2 ADD SLOAD SWAP1 POP SWAP2 SWAP1 POP JUMP JUMPDEST PUSH0 DUP1 PUSH0 SHL PUSH2 0x21FA DUP2 PUSH2 0x279D JUMP JUMPDEST PUSH1 0xA DUP1 SLOAD SWAP1 POP SWAP2 POP POP SWAP1 JUMP JUMPDEST PUSH0 DUP1 PUSH2 0x2210 PUSH2 0x2776 JUMP JUMPDEST SWAP1 POP DUP1 PUSH0 ADD PUSH0 DUP6 DUP2 MSTORE PUSH1 0x20 ADD SWAP1 DUP2 MSTORE PUSH1 0x20 ADD PUSH0 KECCAK256 PUSH0 ADD PUSH0 DUP5 PUSH20 0xFFFFFFFFFFFFFFFFFFFFFFFFFFFFFFFFFFFFFFFF AND PUSH20 0xFFFFFFFFFFFFFFFFFFFFFFFFFFFFFFFFFFFFFFFF AND DUP2 MSTORE PUSH1 0x20 ADD SWAP1 DUP2 MSTORE PUSH1 0x20 ADD PUSH0 KECCAK256 PUSH0 SWAP1 SLOAD SWAP1 PUSH2 0x100 EXP SWAP1 DIV PUSH1 0xFF AND SWAP2 POP POP SWAP3 SWAP2 POP POP JUMP JUMPDEST PUSH1 0x60 PUSH1 0x9 DUP1 SLOAD PUSH2 0x2286 SWAP1 PUSH2 0x438B JUMP JUMPDEST DUP1 PUSH1 0x1F ADD PUSH1 0x20 DUP1 SWAP2 DIV MUL PUSH1 0x20 ADD PUSH1 0x40 MLOAD SWAP1 DUP2 ADD PUSH1 0x40 MSTORE DUP1 SWAP3 SWAP2 SWAP1 DUP2 DUP2 MSTORE PUSH1 0x20 ADD DUP3 DUP1 SLOAD PUSH2 0x22B2 SWAP1 PUSH2 0x438B JUMP JUMPDEST DUP1 ISZERO PUSH2 0x22FD JUMPI DUP1 PUSH1 0x1F LT PUSH2 0x22D4 JUMPI PUSH2 0x100 DUP1 DUP4 SLOAD DIV MUL DUP4 MSTORE SWAP2 PUSH1 0x20 ADD SWAP2 PUSH2 0x22FD JUMP JUMPDEST DUP3 ADD SWAP2 SWAP1 PUSH0 MSTORE PUSH1 0x20 PUSH0 KECCAK256 SWAP1 JUMPDEST DUP2 SLOAD DUP2 MSTORE SWAP1 PUSH1 0x1 ADD SWAP1 PUSH1 0x20 ADD DUP1 DUP4 GT PUSH2 0x22E0 JUMPI DUP3 SWAP1 SUB PUSH1 0x1F AND DUP3 ADD SWAP2 JUMPDEST POP POP POP POP POP SWAP1 POP SWAP1 JUMP JUMPDEST PUSH0 DUP1 SHL DUP2 JUMP JUMPDEST PUSH2 0x2318 DUP4 DUP4 DUP4 PUSH2 0x2C43 JUMP JUMPDEST PUSH1 0xD DUP2 SWAP1 SSTORE POP POP POP POP JUMP JUMPDEST PUSH1 0x40 MLOAD DUP1 PUSH1 0x40 ADD PUSH1 0x40 MSTORE DUP1 PUSH1 0x5 DUP2 MSTORE PUSH1 0x20 ADD PUSH32 0x352E302E30000000000000000000000000000000000000000000000000000000 DUP2 MSTORE POP DUP2 JUMP JUMPDEST PUSH1 0x12 DUP2 PUSH1 0xE DUP2 LT PUSH2 0x236B JUMPI PUSH0 DUP1 REVERT JUMPDEST ADD PUSH0 SWAP2 POP SWAP1 POP SLOAD DUP2 JUMP JUMPDEST PUSH0 PUSH2 0x237F DUP3 PUSH2 0x2E16 JUMP JUMPDEST PUSH2 0x2388 DUP4 PUSH2 0x2F49 JUMP JUMPDEST PUSH2 0x2392 SWAP2 SWAP1 PUSH2 0x468B JUMP JUMPDEST SWAP1 POP SWAP2 SWAP1 POP JUMP JUMPDEST PUSH0 DUP1 SHL PUSH2 0x23A5 DUP2 PUSH2 0x279D JUMP JUMPDEST PUSH1 0xE PUSH0 SWAP1 SLOAD SWAP1 PUSH2 0x100 EXP SWAP1 DIV PUSH1 0xFF AND ISZERO PUSH1 0xE PUSH0 PUSH2 0x100 EXP DUP2 SLOAD DUP2 PUSH1 0xFF MUL NOT AND SWAP1 DUP4 ISZERO ISZERO MUL OR SWAP1 SSTORE POP POP JUMP JUMPDEST PUSH1 0xE PUSH0 SWAP1 SLOAD SWAP1 PUSH2 0x100 EXP SWAP1 DIV PUSH1 0xFF AND ISZERO PUSH2 0x241F JUMPI PUSH1 0x40 MLOAD PUSH32 0x8C379A000000000000000000000000000000000000000000000000000000000 DUP2 MSTORE PUSH1 0x4 ADD PUSH2 0x2416 SWAP1 PUSH2 0x45C4 JUMP JUMPDEST PUSH1 0x40 MLOAD DUP1 SWAP2 SUB SWAP1 REVERT JUMPDEST PUSH0 DUP1 SHL PUSH2 0x242B DUP2 PUSH2 0x279D JUMP JUMPDEST PUSH0 PUSH1 0x20 PUSH0 DUP5 PUSH20 0xFFFFFFFFFFFFFFFFFFFFFFFFFFFFFFFFFFFFFFFF AND PUSH20 0xFFFFFFFFFFFFFFFFFFFFFFFFFFFFFFFFFFFFFFFF AND DUP2 MSTORE PUSH1 0x20 ADD SWAP1 DUP2 MSTORE PUSH1 0x20 ADD PUSH0 KECCAK256 SWAP1 POP DUP1 PUSH1 0x5 ADD PUSH0 SWAP1 SLOAD SWAP1 PUSH2 0x100 EXP SWAP1 DIV PUSH1 0xFF AND PUSH2 0x24BB JUMPI PUSH1 0x40 MLOAD PUSH32 0x8C379A000000000000000000000000000000000000000000000000000000000 DUP2 MSTORE PUSH1 0x4 ADD PUSH2 0x24B2 SWAP1 PUSH2 0x4A15 JUMP JUMPDEST PUSH1 0x40 MLOAD DUP1 SWAP2 SUB SWAP1 REVERT JUMPDEST PUSH2 0x24C3 PUSH2 0x2C66 JUMP JUMPDEST PUSH0 PUSH2 0x24CC PUSH2 0x2063 JUMP JUMPDEST SWAP1 POP PUSH0 PUSH1 0xE PUSH1 0xC PUSH0 SWAP1 SLOAD SWAP1 PUSH2 0x100 EXP SWAP1 DIV PUSH1 0xFF AND PUSH1 0xFF AND EQ PUSH2 0x24F8 JUMPI PUSH2 0x24F1 DUP6 PUSH2 0x2F49 JUMP JUMPDEST SWAP1 POP PUSH2 0x24FF JUMP JUMPDEST DUP3 PUSH0 ADD SLOAD SWAP1 POP JUMPDEST DUP1 DUP4 PUSH0 ADD PUSH0 DUP3 DUP3 SLOAD PUSH2 0x2511 SWAP2 SWAP1 PUSH2 0x44EA JUMP JUMPDEST SWAP3 POP POP DUP2 SWAP1 SSTORE POP DUP1 PUSH1 0x10 PUSH0 DUP3 DUP3 SLOAD PUSH2 0x2529 SWAP2 SWAP1 PUSH2 0x468B JUMP JUMPDEST SWAP3 POP POP DUP2 SWAP1 SSTORE POP PUSH0 PUSH2 0x253A DUP7 PUSH2 0x2E16 JUMP JUMPDEST SWAP1 POP PUSH0 DUP2 GT ISZERO PUSH2 0x255C JUMPI DUP1 DUP3 PUSH2 0x2550 SWAP2 SWAP1 PUSH2 0x468B JUMP JUMPDEST SWAP2 POP PUSH0 DUP5 PUSH1 0x1 ADD DUP2 SWAP1 SSTORE POP JUMPDEST PUSH2 0x259B DUP3 PUSH1 0x40 MLOAD DUP1 PUSH1 0x40 ADD PUSH1 0x40 MSTORE DUP1 PUSH1 0x1C DUP2 MSTORE PUSH1 0x20 ADD PUSH32 0x636C61696D61626C6520616D6F756E74206F6620746865207573657200000000 DUP2 MSTORE POP PUSH2 0x3107 JUMP JUMPDEST DUP3 DUP5 PUSH1 0x4 ADD DUP2 SWAP1 SSTORE POP PUSH1 0xC PUSH0 SWAP1 SLOAD SWAP1 PUSH2 0x100 EXP SWAP1 DIV PUSH1 0xFF AND DUP5 PUSH1 0x5 ADD PUSH1 0x1 PUSH2 0x100 EXP DUP2 SLOAD DUP2 PUSH1 0xFF MUL NOT AND SWAP1 DUP4 PUSH1 0xFF AND MUL OR SWAP1 SSTORE POP DUP2 DUP5 PUSH1 0x2 ADD PUSH0 DUP3 DUP3 SLOAD PUSH2 0x25E2 SWAP2 SWAP1 PUSH2 0x468B JUMP JUMPDEST SWAP3 POP POP DUP2 SWAP1 SSTORE POP PUSH0 DUP5 PUSH0 ADD SLOAD GT PUSH2 0x260F JUMPI PUSH0 DUP5 PUSH1 0x5 ADD PUSH0 PUSH2 0x100 EXP DUP2 SLOAD DUP2 PUSH1 0xFF MUL NOT AND SWAP1 DUP4 ISZERO ISZERO MUL OR SWAP1 SSTORE POP JUMPDEST POP POP POP POP POP POP JUMP JUMPDEST PUSH2 0x2620 DUP3 PUSH2 0xC37 JUMP JUMPDEST PUSH2 0x2629 DUP2 PUSH2 0x279D JUMP JUMPDEST PUSH2 0x2633 DUP4 DUP4 PUSH2 0x28B0 JUMP JUMPDEST POP POP POP POP JUMP JUMPDEST PUSH0 DUP1 SHL PUSH2 0x2645 DUP2 PUSH2 0x279D JUMP JUMPDEST PUSH0 PUSH1 0x20 PUSH0 DUP9 PUSH20 0xFFFFFFFFFFFFFFFFFFFFFFFFFFFFFFFFFFFFFFFF AND PUSH20 0xFFFFFFFFFFFFFFFFFFFFFFFFFFFFFFFFFFFFFFFF AND DUP2 MSTORE PUSH1 0x20 ADD SWAP1 DUP2 MSTORE PUSH1 0x20 ADD PUSH0 KECCAK256 SWAP1 POP DUP4 DUP2 PUSH1 0x2 ADD DUP2 SWAP1 SSTORE POP DUP6 DUP2 PUSH1 0x5 ADD PUSH1 0x1 PUSH2 0x100 EXP DUP2 SLOAD DUP2 PUSH1 0xFF MUL NOT AND SWAP1 DUP4 PUSH1 0xFF AND MUL OR SWAP1 SSTORE POP DUP5 DUP2 PUSH0 ADD DUP2 SWAP1 SSTORE POP DUP3 DUP2 PUSH1 0x1 ADD DUP2 SWAP1 SSTORE POP POP POP POP POP POP POP POP JUMP JUMPDEST PUSH1 0x6 SLOAD DUP2 JUMP JUMPDEST PUSH1 0x5 SLOAD DUP2 JUMP JUMPDEST PUSH1 0xE PUSH0 SWAP1 SLOAD SWAP1 PUSH2 0x100 EXP SWAP1 DIV PUSH1 0xFF AND DUP2 JUMP JUMPDEST PUSH0 DUP1 PUSH0 SHL PUSH2 0x26F0 DUP2 PUSH2 0x279D JUMP JUMPDEST PUSH2 0x26FB DUP6 DUP6 DUP6 PUSH2 0x2C43 JUMP JUMPDEST PUSH1 0x5 DUP2 SWAP1 SSTORE POP PUSH1 0x1 SWAP2 POP POP SWAP4 SWAP3 POP POP POP JUMP JUMPDEST PUSH0 PUSH32 0x1FFC9A700000000000000000000000000000000000000000000000000000000 PUSH28 0xFFFFFFFFFFFFFFFFFFFFFFFFFFFFFFFFFFFFFFFFFFFFFFFFFFFFFFFF NOT AND DUP3 PUSH28 0xFFFFFFFFFFFFFFFFFFFFFFFFFFFFFFFFFFFFFFFFFFFFFFFFFFFFFFFF NOT AND EQ SWAP1 POP SWAP2 SWAP1 POP JUMP JUMPDEST PUSH0 PUSH32 0x2DD7BC7DEC4DCEEDDA775E58DD541E08A116C6C53815C0BD028192F7B626800 SWAP1 POP SWAP1 JUMP JUMPDEST PUSH2 0x27AE DUP2 PUSH2 0x27A9 PUSH2 0x28A9 JUMP JUMPDEST PUSH2 0x31A3 JUMP JUMPDEST POP JUMP JUMPDEST PUSH0 DUP1 PUSH2 0x27BB PUSH2 0x2776 JUMP JUMPDEST SWAP1 POP PUSH2 0x27C7 DUP5 DUP5 PUSH2 0x2206 JUMP JUMPDEST PUSH2 0x289E JUMPI PUSH1 0x1 DUP2 PUSH0 ADD PUSH0 DUP7 DUP2 MSTORE PUSH1 0x20 ADD SWAP1 DUP2 MSTORE PUSH1 0x20 ADD PUSH0 KECCAK256 PUSH0 ADD PUSH0 DUP6 PUSH20 0xFFFFFFFFFFFFFFFFFFFFFFFFFFFFFFFFFFFFFFFF AND PUSH20 0xFFFFFFFFFFFFFFFFFFFFFFFFFFFFFFFFFFFFFFFF AND DUP2 MSTORE PUSH1 0x20 ADD SWAP1 DUP2 MSTORE PUSH1 0x20 ADD PUSH0 KECCAK256 PUSH0 PUSH2 0x100 EXP DUP2 SLOAD DUP2 PUSH1 0xFF MUL NOT AND SWAP1 DUP4 ISZERO ISZERO MUL OR SWAP1 SSTORE POP PUSH2 0x283A PUSH2 0x28A9 JUMP JUMPDEST PUSH20 0xFFFFFFFFFFFFFFFFFFFFFFFFFFFFFFFFFFFFFFFF AND DUP4 PUSH20 0xFFFFFFFFFFFFFFFFFFFFFFFFFFFFFFFFFFFFFFFF AND DUP6 PUSH32 0x2F8788117E7EFF1D82E926EC794901D17C78024A50270940304540A733656F0D PUSH1 0x40 MLOAD PUSH1 0x40 MLOAD DUP1 SWAP2 SUB SWAP1 LOG4 PUSH1 0x1 SWAP2 POP POP PUSH2 0x28A3 JUMP JUMPDEST PUSH0 SWAP2 POP POP JUMPDEST SWAP3 SWAP2 POP POP JUMP JUMPDEST PUSH0 CALLER SWAP1 POP SWAP1 JUMP JUMPDEST PUSH0 DUP1 PUSH2 0x28BA PUSH2 0x2776 JUMP JUMPDEST SWAP1 POP PUSH2 0x28C6 DUP5 DUP5 PUSH2 0x2206 JUMP JUMPDEST ISZERO PUSH2 0x299D JUMPI PUSH0 DUP2 PUSH0 ADD PUSH0 DUP7 DUP2 MSTORE PUSH1 0x20 ADD SWAP1 DUP2 MSTORE PUSH1 0x20 ADD PUSH0 KECCAK256 PUSH0 ADD PUSH0 DUP6 PUSH20 0xFFFFFFFFFFFFFFFFFFFFFFFFFFFFFFFFFFFFFFFF AND PUSH20 0xFFFFFFFFFFFFFFFFFFFFFFFFFFFFFFFFFFFFFFFF AND DUP2 MSTORE PUSH1 0x20 ADD SWAP1 DUP2 MSTORE PUSH1 0x20 ADD PUSH0 KECCAK256 PUSH0 PUSH2 0x100 EXP DUP2 SLOAD DUP2 PUSH1 0xFF MUL NOT AND SWAP1 DUP4 ISZERO ISZERO MUL OR SWAP1 SSTORE POP PUSH2 0x2939 PUSH2 0x28A9 JUMP JUMPDEST PUSH20 0xFFFFFFFFFFFFFFFFFFFFFFFFFFFFFFFFFFFFFFFF AND DUP4 PUSH20 0xFFFFFFFFFFFFFFFFFFFFFFFFFFFFFFFFFFFFFFFF AND DUP6 PUSH32 0xF6391F5C32D9C69D2A47EA670B442974B53935D1EDC7FD64EB21E047A839171B PUSH1 0x40 MLOAD PUSH1 0x40 MLOAD DUP1 SWAP2 SUB SWAP1 LOG4 PUSH1 0x1 SWAP2 POP POP PUSH2 0x29A2 JUMP JUMPDEST PUSH0 SWAP2 POP POP JUMPDEST SWAP3 SWAP2 POP POP JUMP JUMPDEST PUSH32 0x0 PUSH20 0xFFFFFFFFFFFFFFFFFFFFFFFFFFFFFFFFFFFFFFFF AND ADDRESS PUSH20 0xFFFFFFFFFFFFFFFFFFFFFFFFFFFFFFFFFFFFFFFF AND EQ DUP1 PUSH2 0x2A55 JUMPI POP PUSH32 0x0 PUSH20 0xFFFFFFFFFFFFFFFFFFFFFFFFFFFFFFFFFFFFFFFF AND PUSH2 0x2A3C PUSH2 0x31F4 JUMP JUMPDEST PUSH20 0xFFFFFFFFFFFFFFFFFFFFFFFFFFFFFFFFFFFFFFFF AND EQ ISZERO JUMPDEST ISZERO PUSH2 0x2A8C JUMPI PUSH1 0x40 MLOAD PUSH32 0xE07C8DBA00000000000000000000000000000000000000000000000000000000 DUP2 MSTORE PUSH1 0x4 ADD PUSH1 0x40 MLOAD DUP1 SWAP2 SUB SWAP1 REVERT JUMPDEST JUMP JUMPDEST PUSH0 DUP1 SHL PUSH2 0x2A9A DUP2 PUSH2 0x279D JUMP JUMPDEST POP POP JUMP JUMPDEST DUP2 PUSH20 0xFFFFFFFFFFFFFFFFFFFFFFFFFFFFFFFFFFFFFFFF AND PUSH4 0x52D1902D PUSH1 0x40 MLOAD DUP2 PUSH4 0xFFFFFFFF AND PUSH1 0xE0 SHL DUP2 MSTORE PUSH1 0x4 ADD PUSH1 0x20 PUSH1 0x40 MLOAD DUP1 DUP4 SUB DUP2 DUP7 GAS STATICCALL SWAP3 POP POP POP DUP1 ISZERO PUSH2 0x2B06 JUMPI POP PUSH1 0x40 MLOAD RETURNDATASIZE PUSH1 0x1F NOT PUSH1 0x1F DUP3 ADD AND DUP3 ADD DUP1 PUSH1 0x40 MSTORE POP DUP2 ADD SWAP1 PUSH2 0x2B03 SWAP2 SWAP1 PUSH2 0x4A47 JUMP JUMPDEST PUSH1 0x1 JUMPDEST PUSH2 0x2B47 JUMPI DUP2 PUSH1 0x40 MLOAD PUSH32 0x4C9C8CE300000000000000000000000000000000000000000000000000000000 DUP2 MSTORE PUSH1 0x4 ADD PUSH2 0x2B3E SWAP2 SWAP1 PUSH2 0x4A81 JUMP JUMPDEST PUSH1 0x40 MLOAD DUP1 SWAP2 SUB SWAP1 REVERT JUMPDEST PUSH32 0x360894A13BA1A3210667C828492DB98DCA3E2076CC3735A920A3CA505D382BBC PUSH0 SHL DUP2 EQ PUSH2 0x2BAD JUMPI DUP1 PUSH1 0x40 MLOAD PUSH32 0xAA1D49A400000000000000000000000000000000000000000000000000000000 DUP2 MSTORE PUSH1 0x4 ADD PUSH2 0x2BA4 SWAP2 SWAP1 PUSH2 0x3A70 JUMP JUMPDEST PUSH1 0x40 MLOAD DUP1 SWAP2 SUB SWAP1 REVERT JUMPDEST PUSH2 0x2BB7 DUP4 DUP4 PUSH2 0x3247 JUMP JUMPDEST POP POP POP JUMP JUMPDEST PUSH32 0x0 PUSH20 0xFFFFFFFFFFFFFFFFFFFFFFFFFFFFFFFFFFFFFFFF AND ADDRESS PUSH20 0xFFFFFFFFFFFFFFFFFFFFFFFFFFFFFFFFFFFFFFFF AND EQ PUSH2 0x2C41 JUMPI PUSH1 0x40 MLOAD PUSH32 0xE07C8DBA00000000000000000000000000000000000000000000000000000000 DUP2 MSTORE PUSH1 0x4 ADD PUSH1 0x40 MLOAD DUP1 SWAP2 SUB SWAP1 REVERT JUMPDEST JUMP JUMPDEST PUSH0 PUSH3 0x15180 PUSH2 0x2C53 DUP6 DUP6 DUP6 PUSH2 0x32B9 JUMP JUMPDEST PUSH2 0x2C5D SWAP2 SWAP1 PUSH2 0x464A JUMP JUMPDEST SWAP1 POP SWAP4 SWAP3 POP POP POP JUMP JUMPDEST PUSH0 PUSH1 0xC PUSH0 SWAP1 SLOAD SWAP1 PUSH2 0x100 EXP SWAP1 DIV PUSH1 0xFF AND SWAP1 POP PUSH0 JUMPDEST PUSH1 0xE DUP2 PUSH1 0xFF AND LT ISZERO PUSH2 0x2D3E JUMPI PUSH1 0x12 DUP2 PUSH1 0xFF AND PUSH1 0xE DUP2 LT PUSH2 0x2C9D JUMPI PUSH2 0x2C9C PUSH2 0x4449 JUMP JUMPDEST JUMPDEST ADD SLOAD PUSH2 0x2CA7 PUSH2 0x2063 JUMP JUMPDEST LT PUSH2 0x2CC0 JUMPI PUSH1 0x1 DUP2 PUSH2 0x2CB9 SWAP2 SWAP1 PUSH2 0x4A9A JUMP JUMPDEST SWAP2 POP PUSH2 0x2CE9 JUMP JUMPDEST PUSH1 0x12 PUSH0 PUSH1 0xE DUP2 LT PUSH2 0x2CD4 JUMPI PUSH2 0x2CD3 PUSH2 0x4449 JUMP JUMPDEST JUMPDEST ADD SLOAD PUSH2 0x2CDE PUSH2 0x2063 JUMP JUMPDEST LT ISZERO PUSH2 0x2CE8 JUMPI PUSH0 SWAP2 POP JUMPDEST JUMPDEST PUSH2 0x2D2B PUSH1 0x40 MLOAD DUP1 PUSH1 0x40 ADD PUSH1 0x40 MSTORE DUP1 PUSH1 0x15 DUP2 MSTORE PUSH1 0x20 ADD PUSH32 0x63757272656E742076657374696E67206379636C650000000000000000000000 DUP2 MSTORE POP DUP4 PUSH1 0xFF AND PUSH2 0x3412 JUMP JUMPDEST DUP1 DUP1 PUSH2 0x2D36 SWAP1 PUSH2 0x4ACE JUMP JUMPDEST SWAP2 POP POP PUSH2 0x2C7A JUMP JUMPDEST POP PUSH1 0xC PUSH0 SWAP1 SLOAD SWAP1 PUSH2 0x100 EXP SWAP1 DIV PUSH1 0xFF AND PUSH1 0xFF AND DUP2 PUSH1 0xFF AND EQ PUSH2 0x2DE2 JUMPI PUSH1 0xE DUP2 PUSH1 0xFF AND GT ISZERO PUSH2 0x2D82 JUMPI PUSH1 0xE PUSH1 0xC PUSH0 PUSH2 0x100 EXP DUP2 SLOAD DUP2 PUSH1 0xFF MUL NOT AND SWAP1 DUP4 PUSH1 0xFF AND MUL OR SWAP1 SSTORE POP JUMPDEST DUP1 PUSH1 0xC PUSH0 PUSH2 0x100 EXP DUP2 SLOAD DUP2 PUSH1 0xFF MUL NOT AND SWAP1 DUP4 PUSH1 0xFF AND MUL OR SWAP1 SSTORE POP PUSH32 0xAE3D52E508CBD1EA5BC31391F7E35B3B98E8037342EAF181E2F0644B50DBE7CA PUSH1 0xC PUSH0 SWAP1 SLOAD SWAP1 PUSH2 0x100 EXP SWAP1 DIV PUSH1 0xFF AND PUSH1 0x40 MLOAD PUSH2 0x2DD9 SWAP2 SWAP1 PUSH2 0x3940 JUMP JUMPDEST PUSH1 0x40 MLOAD DUP1 SWAP2 SUB SWAP1 LOG1 JUMPDEST POP JUMP JUMPDEST PUSH0 PUSH32 0xF0C57E16840DF040F15088DC2F81FE391C3923BEC73E23A9662EFC9C229C6A00 SWAP1 POP SWAP1 JUMP JUMPDEST PUSH2 0x2E14 PUSH2 0x34AE JUMP JUMPDEST JUMP JUMPDEST PUSH0 DUP1 PUSH1 0x20 PUSH0 DUP5 PUSH20 0xFFFFFFFFFFFFFFFFFFFFFFFFFFFFFFFFFFFFFFFF AND PUSH20 0xFFFFFFFFFFFFFFFFFFFFFFFFFFFFFFFFFFFFFFFF AND DUP2 MSTORE PUSH1 0x20 ADD SWAP1 DUP2 MSTORE PUSH1 0x20 ADD PUSH0 KECCAK256 PUSH1 0x40 MLOAD DUP1 PUSH2 0x120 ADD PUSH1 0x40 MSTORE SWAP1 DUP2 PUSH0 DUP3 ADD SLOAD DUP2 MSTORE PUSH1 0x20 ADD PUSH1 0x1 DUP3 ADD SLOAD DUP2 MSTORE PUSH1 0x20 ADD PUSH1 0x2 DUP3 ADD SLOAD DUP2 MSTORE PUSH1 0x20 ADD PUSH1 0x3 DUP3 ADD SLOAD DUP2 MSTORE PUSH1 0x20 ADD PUSH1 0x4 DUP3 ADD SLOAD DUP2 MSTORE PUSH1 0x20 ADD PUSH1 0x5 DUP3 ADD PUSH0 SWAP1 SLOAD SWAP1 PUSH2 0x100 EXP SWAP1 DIV PUSH1 0xFF AND ISZERO ISZERO ISZERO ISZERO DUP2 MSTORE PUSH1 0x20 ADD PUSH1 0x5 DUP3 ADD PUSH1 0x1 SWAP1 SLOAD SWAP1 PUSH2 0x100 EXP SWAP1 DIV PUSH1 0xFF AND PUSH1 0xFF AND PUSH1 0xFF AND DUP2 MSTORE PUSH1 0x20 ADD PUSH1 0x5 DUP3 ADD PUSH1 0x2 SWAP1 SLOAD SWAP1 PUSH2 0x100 EXP SWAP1 DIV PUSH1 0xFF AND PUSH1 0xFF AND PUSH1 0xFF AND DUP2 MSTORE PUSH1 0x20 ADD PUSH1 0x5 DUP3 ADD PUSH1 0x3 SWAP1 SLOAD SWAP1 PUSH2 0x100 EXP SWAP1 DIV PUSH1 0xFF AND ISZERO ISZERO ISZERO ISZERO DUP2 MSTORE POP POP SWAP1 POP PUSH0 DUP2 PUSH1 0x20 ADD MLOAD GT DUP1 ISZERO PUSH2 0x2F2D JUMPI POP PUSH3 0x15180 PUSH1 0x4 SLOAD PUSH2 0x2F22 SWAP2 SWAP1 PUSH2 0x44EA JUMP JUMPDEST PUSH2 0x2F2A PUSH2 0x2063 JUMP JUMPDEST LT ISZERO JUMPDEST ISZERO PUSH2 0x2F3F JUMPI DUP1 PUSH1 0x20 ADD MLOAD SWAP2 POP POP PUSH2 0x2F44 JUMP JUMPDEST PUSH0 SWAP2 POP POP JUMPDEST SWAP2 SWAP1 POP JUMP JUMPDEST PUSH0 DUP1 PUSH1 0x20 PUSH0 DUP5 PUSH20 0xFFFFFFFFFFFFFFFFFFFFFFFFFFFFFFFFFFFFFFFF AND PUSH20 0xFFFFFFFFFFFFFFFFFFFFFFFFFFFFFFFFFFFFFFFF AND DUP2 MSTORE PUSH1 0x20 ADD SWAP1 DUP2 MSTORE PUSH1 0x20 ADD PUSH0 KECCAK256 PUSH1 0x40 MLOAD DUP1 PUSH2 0x120 ADD PUSH1 0x40 MSTORE SWAP1 DUP2 PUSH0 DUP3 ADD SLOAD DUP2 MSTORE PUSH1 0x20 ADD PUSH1 0x1 DUP3 ADD SLOAD DUP2 MSTORE PUSH1 0x20 ADD PUSH1 0x2 DUP3 ADD SLOAD DUP2 MSTORE PUSH1 0x20 ADD PUSH1 0x3 DUP3 ADD SLOAD DUP2 MSTORE PUSH1 0x20 ADD PUSH1 0x4 DUP3 ADD SLOAD DUP2 MSTORE PUSH1 0x20 ADD PUSH1 0x5 DUP3 ADD PUSH0 SWAP1 SLOAD SWAP1 PUSH2 0x100 EXP SWAP1 DIV PUSH1 0xFF AND ISZERO ISZERO ISZERO ISZERO DUP2 MSTORE PUSH1 0x20 ADD PUSH1 0x5 DUP3 ADD PUSH1 0x1 SWAP1 SLOAD SWAP1 PUSH2 0x100 EXP SWAP1 DIV PUSH1 0xFF AND PUSH1 0xFF AND PUSH1 0xFF AND DUP2 MSTORE PUSH1 0x20 ADD PUSH1 0x5 DUP3 ADD PUSH1 0x2 SWAP1 SLOAD SWAP1 PUSH2 0x100 EXP SWAP1 DIV PUSH1 0xFF AND PUSH1 0xFF AND PUSH1 0xFF AND DUP2 MSTORE PUSH1 0x20 ADD PUSH1 0x5 DUP3 ADD PUSH1 0x3 SWAP1 SLOAD SWAP1 PUSH2 0x100 EXP SWAP1 DIV PUSH1 0xFF AND ISZERO ISZERO ISZERO ISZERO DUP2 MSTORE POP POP SWAP1 POP PUSH0 DUP2 PUSH1 0xC0 ADD MLOAD PUSH1 0xE PUSH2 0x3048 SWAP2 SWAP1 PUSH2 0x4AF6 JUMP JUMPDEST SWAP1 POP PUSH0 DUP3 PUSH1 0xC0 ADD MLOAD PUSH1 0xC PUSH0 SWAP1 SLOAD SWAP1 PUSH2 0x100 EXP SWAP1 DIV PUSH1 0xFF AND PUSH2 0x3069 SWAP2 SWAP1 PUSH2 0x4AF6 JUMP JUMPDEST SWAP1 POP PUSH0 DUP3 PUSH1 0xFF AND GT ISZERO DUP1 ISZERO PUSH2 0x3081 JUMPI POP PUSH0 DUP4 PUSH0 ADD MLOAD GT ISZERO JUMPDEST DUP1 ISZERO PUSH2 0x3090 JUMPI POP PUSH0 DUP2 PUSH1 0xFF AND GT ISZERO JUMPDEST ISZERO PUSH2 0x30A0 JUMPI PUSH0 SWAP4 POP POP POP POP PUSH2 0x3102 JUMP JUMPDEST PUSH0 DUP3 PUSH1 0xFF AND PUSH8 0xDE0B6B3A7640000 DUP6 PUSH0 ADD MLOAD MUL DUP2 PUSH2 0x30C1 JUMPI PUSH2 0x30C0 PUSH2 0x451D JUMP JUMPDEST JUMPDEST DIV SWAP1 POP PUSH8 0xDE0B6B3A7640000 DUP3 PUSH1 0xFF AND DUP3 PUSH2 0x30DC SWAP2 SWAP1 PUSH2 0x464A JUMP JUMPDEST PUSH2 0x30E6 SWAP2 SWAP1 PUSH2 0x454A JUMP JUMPDEST SWAP1 POP DUP4 PUSH0 ADD MLOAD DUP2 GT ISZERO PUSH2 0x30FA JUMPI DUP4 PUSH0 ADD MLOAD SWAP1 POP JUMPDEST DUP1 SWAP5 POP POP POP POP POP JUMPDEST SWAP2 SWAP1 POP JUMP JUMPDEST PUSH2 0x319F DUP3 DUP3 PUSH1 0x40 MLOAD PUSH1 0x24 ADD PUSH2 0x311D SWAP3 SWAP2 SWAP1 PUSH2 0x4B2A JUMP JUMPDEST PUSH1 0x40 MLOAD PUSH1 0x20 DUP2 DUP4 SUB SUB DUP2 MSTORE SWAP1 PUSH1 0x40 MSTORE PUSH32 0x643FD0DF00000000000000000000000000000000000000000000000000000000 PUSH28 0xFFFFFFFFFFFFFFFFFFFFFFFFFFFFFFFFFFFFFFFFFFFFFFFFFFFFFFFF NOT AND PUSH1 0x20 DUP3 ADD DUP1 MLOAD PUSH28 0xFFFFFFFFFFFFFFFFFFFFFFFFFFFFFFFFFFFFFFFFFFFFFFFFFFFFFFFF DUP4 DUP2 DUP4 AND OR DUP4 MSTORE POP POP POP POP PUSH2 0x34EE JUMP JUMPDEST POP POP JUMP JUMPDEST PUSH2 0x31AD DUP3 DUP3 PUSH2 0x2206 JUMP JUMPDEST PUSH2 0x31F0 JUMPI DUP1 DUP3 PUSH1 0x40 MLOAD PUSH32 0xE2517D3F00000000000000000000000000000000000000000000000000000000 DUP2 MSTORE PUSH1 0x4 ADD PUSH2 0x31E7 SWAP3 SWAP2 SWAP1 PUSH2 0x4B58 JUMP JUMPDEST PUSH1 0x40 MLOAD DUP1 SWAP2 SUB SWAP1 REVERT JUMPDEST POP POP JUMP JUMPDEST PUSH0 PUSH2 0x3220 PUSH32 0x360894A13BA1A3210667C828492DB98DCA3E2076CC3735A920A3CA505D382BBC PUSH0 SHL PUSH2 0x3508 JUMP JUMPDEST PUSH0 ADD PUSH0 SWAP1 SLOAD SWAP1 PUSH2 0x100 EXP SWAP1 DIV PUSH20 0xFFFFFFFFFFFFFFFFFFFFFFFFFFFFFFFFFFFFFFFF AND SWAP1 POP SWAP1 JUMP JUMPDEST PUSH2 0x3250 DUP3 PUSH2 0x3511 JUMP JUMPDEST DUP2 PUSH20 0xFFFFFFFFFFFFFFFFFFFFFFFFFFFFFFFFFFFFFFFF AND PUSH32 0xBC7CD75A20EE27FD9ADEBAB32041F755214DBC6BFFA90CC0225B39DA2E5C2D3B PUSH1 0x40 MLOAD PUSH1 0x40 MLOAD DUP1 SWAP2 SUB SWAP1 LOG2 PUSH0 DUP2 MLOAD GT ISZERO PUSH2 0x32AC JUMPI PUSH2 0x32A6 DUP3 DUP3 PUSH2 0x35DA JUMP JUMPDEST POP PUSH2 0x32B5 JUMP JUMPDEST PUSH2 0x32B4 PUSH2 0x365A JUMP JUMPDEST JUMPDEST POP POP JUMP JUMPDEST PUSH0 PUSH2 0x7B2 DUP5 LT ISZERO PUSH2 0x32C8 JUMPI PUSH0 DUP1 REVERT JUMPDEST PUSH0 DUP5 SWAP1 POP PUSH0 DUP5 SWAP1 POP PUSH0 DUP5 SWAP1 POP PUSH0 PUSH3 0x253D8C PUSH1 0x4 PUSH1 0x64 PUSH1 0xC PUSH1 0xE DUP8 PUSH2 0x32EC SWAP2 SWAP1 PUSH2 0x4B88 JUMP JUMPDEST PUSH2 0x32F6 SWAP2 SWAP1 PUSH2 0x4BC8 JUMP JUMPDEST PUSH2 0x1324 DUP9 PUSH2 0x3304 SWAP2 SWAP1 PUSH2 0x4C30 JUMP JUMPDEST PUSH2 0x330E SWAP2 SWAP1 PUSH2 0x4C30 JUMP JUMPDEST PUSH2 0x3318 SWAP2 SWAP1 PUSH2 0x4BC8 JUMP JUMPDEST PUSH1 0x3 PUSH2 0x3324 SWAP2 SWAP1 PUSH2 0x4C71 JUMP JUMPDEST PUSH2 0x332E SWAP2 SWAP1 PUSH2 0x4BC8 JUMP JUMPDEST PUSH1 0xC DUP1 PUSH1 0xC PUSH1 0xE DUP9 PUSH2 0x3340 SWAP2 SWAP1 PUSH2 0x4B88 JUMP JUMPDEST PUSH2 0x334A SWAP2 SWAP1 PUSH2 0x4BC8 JUMP JUMPDEST PUSH2 0x3354 SWAP2 SWAP1 PUSH2 0x4C71 JUMP JUMPDEST PUSH1 0x2 DUP8 PUSH2 0x3361 SWAP2 SWAP1 PUSH2 0x4B88 JUMP JUMPDEST PUSH2 0x336B SWAP2 SWAP1 PUSH2 0x4B88 JUMP JUMPDEST PUSH2 0x16F PUSH2 0x3378 SWAP2 SWAP1 PUSH2 0x4C71 JUMP JUMPDEST PUSH2 0x3382 SWAP2 SWAP1 PUSH2 0x4BC8 JUMP JUMPDEST PUSH1 0x4 PUSH1 0xC PUSH1 0xE DUP9 PUSH2 0x3393 SWAP2 SWAP1 PUSH2 0x4B88 JUMP JUMPDEST PUSH2 0x339D SWAP2 SWAP1 PUSH2 0x4BC8 JUMP JUMPDEST PUSH2 0x12C0 DUP10 PUSH2 0x33AB SWAP2 SWAP1 PUSH2 0x4C30 JUMP JUMPDEST PUSH2 0x33B5 SWAP2 SWAP1 PUSH2 0x4C30 JUMP JUMPDEST PUSH2 0x5B5 PUSH2 0x33C2 SWAP2 SWAP1 PUSH2 0x4C71 JUMP JUMPDEST PUSH2 0x33CC SWAP2 SWAP1 PUSH2 0x4BC8 JUMP JUMPDEST PUSH2 0x7D4B DUP7 PUSH2 0x33DA SWAP2 SWAP1 PUSH2 0x4B88 JUMP JUMPDEST PUSH2 0x33E4 SWAP2 SWAP1 PUSH2 0x4C30 JUMP JUMPDEST PUSH2 0x33EE SWAP2 SWAP1 PUSH2 0x4C30 JUMP JUMPDEST PUSH2 0x33F8 SWAP2 SWAP1 PUSH2 0x4B88 JUMP JUMPDEST PUSH2 0x3402 SWAP2 SWAP1 PUSH2 0x4B88 JUMP JUMPDEST SWAP1 POP DUP1 SWAP5 POP POP POP POP POP SWAP4 SWAP3 POP POP POP JUMP JUMPDEST PUSH2 0x34AA DUP3 DUP3 PUSH1 0x40 MLOAD PUSH1 0x24 ADD PUSH2 0x3428 SWAP3 SWAP2 SWAP1 PUSH2 0x4CE7 JUMP JUMPDEST PUSH1 0x40 MLOAD PUSH1 0x20 DUP2 DUP4 SUB SUB DUP2 MSTORE SWAP1 PUSH1 0x40 MSTORE PUSH32 0xB60E72CC00000000000000000000000000000000000000000000000000000000 PUSH28 0xFFFFFFFFFFFFFFFFFFFFFFFFFFFFFFFFFFFFFFFFFFFFFFFFFFFFFFFF NOT AND PUSH1 0x20 DUP3 ADD DUP1 MLOAD PUSH28 0xFFFFFFFFFFFFFFFFFFFFFFFFFFFFFFFFFFFFFFFFFFFFFFFFFFFFFFFF DUP4 DUP2 DUP4 AND OR DUP4 MSTORE POP POP POP POP PUSH2 0x34EE JUMP JUMPDEST POP POP JUMP JUMPDEST PUSH2 0x34B6 PUSH2 0x3696 JUMP JUMPDEST PUSH2 0x34EC JUMPI PUSH1 0x40 MLOAD PUSH32 0xD7E6BCF800000000000000000000000000000000000000000000000000000000 DUP2 MSTORE PUSH1 0x4 ADD PUSH1 0x40 MLOAD DUP1 SWAP2 SUB SWAP1 REVERT JUMPDEST JUMP JUMPDEST PUSH2 0x3505 DUP2 PUSH2 0x34FD PUSH2 0x36B4 PUSH2 0x36D3 JUMP JUMPDEST PUSH4 0xFFFFFFFF AND JUMP JUMPDEST POP JUMP JUMPDEST PUSH0 DUP2 SWAP1 POP SWAP2 SWAP1 POP JUMP JUMPDEST PUSH0 DUP2 PUSH20 0xFFFFFFFFFFFFFFFFFFFFFFFFFFFFFFFFFFFFFFFF AND EXTCODESIZE SUB PUSH2 0x356C JUMPI DUP1 PUSH1 0x40 MLOAD PUSH32 0x4C9C8CE300000000000000000000000000000000000000000000000000000000 DUP2 MSTORE PUSH1 0x4 ADD PUSH2 0x3563 SWAP2 SWAP1 PUSH2 0x4A81 JUMP JUMPDEST PUSH1 0x40 MLOAD DUP1 SWAP2 SUB SWAP1 REVERT JUMPDEST DUP1 PUSH2 0x3598 PUSH32 0x360894A13BA1A3210667C828492DB98DCA3E2076CC3735A920A3CA505D382BBC PUSH0 SHL PUSH2 0x3508 JUMP JUMPDEST PUSH0 ADD PUSH0 PUSH2 0x100 EXP DUP2 SLOAD DUP2 PUSH20 0xFFFFFFFFFFFFFFFFFFFFFFFFFFFFFFFFFFFFFFFF MUL NOT AND SWAP1 DUP4 PUSH20 0xFFFFFFFFFFFFFFFFFFFFFFFFFFFFFFFFFFFFFFFF AND MUL OR SWAP1 SSTORE POP POP JUMP JUMPDEST PUSH1 0x60 PUSH0 DUP1 DUP5 PUSH20 0xFFFFFFFFFFFFFFFFFFFFFFFFFFFFFFFFFFFFFFFF AND DUP5 PUSH1 0x40 MLOAD PUSH2 0x3603 SWAP2 SWAP1 PUSH2 0x4D59 JUMP JUMPDEST PUSH0 PUSH1 0x40 MLOAD DUP1 DUP4 SUB DUP2 DUP6 GAS DELEGATECALL SWAP2 POP POP RETURNDATASIZE DUP1 PUSH0 DUP2 EQ PUSH2 0x363B JUMPI PUSH1 0x40 MLOAD SWAP2 POP PUSH1 0x1F NOT PUSH1 0x3F RETURNDATASIZE ADD AND DUP3 ADD PUSH1 0x40 MSTORE RETURNDATASIZE DUP3 MSTORE RETURNDATASIZE PUSH0 PUSH1 0x20 DUP5 ADD RETURNDATACOPY PUSH2 0x3640 JUMP JUMPDEST PUSH1 0x60 SWAP2 POP JUMPDEST POP SWAP2 POP SWAP2 POP PUSH2 0x3650 DUP6 DUP4 DUP4 PUSH2 0x36DE JUMP JUMPDEST SWAP3 POP POP POP SWAP3 SWAP2 POP POP JUMP JUMPDEST PUSH0 CALLVALUE GT ISZERO PUSH2 0x3694 JUMPI PUSH1 0x40 MLOAD PUSH32 0xB398979F00000000000000000000000000000000000000000000000000000000 DUP2 MSTORE PUSH1 0x4 ADD PUSH1 0x40 MLOAD DUP1 SWAP2 SUB SWAP1 REVERT JUMPDEST JUMP JUMPDEST PUSH0 PUSH2 0x369F PUSH2 0x2DE5 JUMP JUMPDEST PUSH0 ADD PUSH1 0x8 SWAP1 SLOAD SWAP1 PUSH2 0x100 EXP SWAP1 DIV PUSH1 0xFF AND SWAP1 POP SWAP1 JUMP JUMPDEST PUSH0 PUSH11 0x636F6E736F6C652E6C6F67 SWAP1 POP PUSH0 DUP1 DUP4 MLOAD PUSH1 0x20 DUP6 ADD DUP5 GAS STATICCALL POP POP POP JUMP JUMPDEST PUSH2 0x383C DUP2 SWAP1 POP SWAP2 SWAP1 POP JUMP JUMPDEST PUSH1 0x60 DUP3 PUSH2 0x36F3 JUMPI PUSH2 0x36EE DUP3 PUSH2 0x376B JUMP JUMPDEST PUSH2 0x3763 JUMP JUMPDEST PUSH0 DUP3 MLOAD EQ DUP1 ISZERO PUSH2 0x3719 JUMPI POP PUSH0 DUP5 PUSH20 0xFFFFFFFFFFFFFFFFFFFFFFFFFFFFFFFFFFFFFFFF AND EXTCODESIZE EQ JUMPDEST ISZERO PUSH2 0x375B JUMPI DUP4 PUSH1 0x40 MLOAD PUSH32 0x9996B31500000000000000000000000000000000000000000000000000000000 DUP2 MSTORE PUSH1 0x4 ADD PUSH2 0x3752 SWAP2 SWAP1 PUSH2 0x4A81 JUMP JUMPDEST PUSH1 0x40 MLOAD DUP1 SWAP2 SUB SWAP1 REVERT JUMPDEST DUP2 SWAP1 POP PUSH2 0x3764 JUMP JUMPDEST JUMPDEST SWAP4 SWAP3 POP POP POP JUMP JUMPDEST PUSH0 DUP2 MLOAD GT ISZERO PUSH2 0x377D JUMPI DUP1 MLOAD DUP1 DUP3 PUSH1 0x20 ADD REVERT JUMPDEST PUSH1 0x40 MLOAD PUSH32 0x1425EA4200000000000000000000000000000000000000000000000000000000 DUP2 MSTORE PUSH1 0x4 ADD PUSH1 0x40 MLOAD DUP1 SWAP2 SUB SWAP1 REVERT JUMPDEST PUSH1 0x40 MLOAD DUP1 PUSH2 0x120 ADD PUSH1 0x40 MSTORE DUP1 PUSH0 DUP2 MSTORE PUSH1 0x20 ADD PUSH0 DUP2 MSTORE PUSH1 0x20 ADD PUSH0 DUP2 MSTORE PUSH1 0x20 ADD PUSH0 DUP2 MSTORE PUSH1 0x20 ADD PUSH0 DUP2 MSTORE PUSH1 0x20 ADD PUSH0 ISZERO ISZERO DUP2 MSTORE PUSH1 0x20 ADD PUSH0 PUSH1 0xFF AND DUP2 MSTORE PUSH1 0x20 ADD PUSH0 PUSH1 0xFF AND DUP2 MSTORE PUSH1 0x20 ADD PUSH0 ISZERO ISZERO DUP2 MSTORE POP SWAP1 JUMP JUMPDEST DUP3 PUSH1 0xE DUP2 ADD SWAP3 DUP3 ISZERO PUSH2 0x382B JUMPI SWAP2 PUSH1 0x20 MUL DUP3 ADD JUMPDEST DUP3 DUP2 GT ISZERO PUSH2 0x382A JUMPI DUP3 MLOAD DUP3 SSTORE SWAP2 PUSH1 0x20 ADD SWAP2 SWAP1 PUSH1 0x1 ADD SWAP1 PUSH2 0x380F JUMP JUMPDEST JUMPDEST POP SWAP1 POP PUSH2 0x3838 SWAP2 SWAP1 PUSH2 0x3846 JUMP JUMPDEST POP SWAP1 JUMP JUMPDEST PUSH2 0x3844 PUSH2 0x4D6F JUMP JUMPDEST JUMP JUMPDEST JUMPDEST DUP1 DUP3 GT ISZERO PUSH2 0x385D JUMPI PUSH0 DUP2 PUSH0 SWAP1 SSTORE POP PUSH1 0x1 ADD PUSH2 0x3847 JUMP JUMPDEST POP SWAP1 JUMP JUMPDEST PUSH0 PUSH1 0x40 MLOAD SWAP1 POP SWAP1 JUMP JUMPDEST PUSH0 DUP1 REVERT JUMPDEST PUSH0 DUP1 REVERT JUMPDEST PUSH0 PUSH32 0xFFFFFFFF00000000000000000000000000000000000000000000000000000000 DUP3 AND SWAP1 POP SWAP2 SWAP1 POP JUMP JUMPDEST PUSH2 0x38A6 DUP2 PUSH2 0x3872 JUMP JUMPDEST DUP2 EQ PUSH2 0x38B0 JUMPI PUSH0 DUP1 REVERT JUMPDEST POP JUMP JUMPDEST PUSH0 DUP2 CALLDATALOAD SWAP1 POP PUSH2 0x38C1 DUP2 PUSH2 0x389D JUMP JUMPDEST SWAP3 SWAP2 POP POP JUMP JUMPDEST PUSH0 PUSH1 0x20 DUP3 DUP5 SUB SLT ISZERO PUSH2 0x38DC JUMPI PUSH2 0x38DB PUSH2 0x386A JUMP JUMPDEST JUMPDEST PUSH0 PUSH2 0x38E9 DUP5 DUP3 DUP6 ADD PUSH2 0x38B3 JUMP JUMPDEST SWAP2 POP POP SWAP3 SWAP2 POP POP JUMP JUMPDEST PUSH0 DUP2 ISZERO ISZERO SWAP1 POP SWAP2 SWAP1 POP JUMP JUMPDEST PUSH2 0x3906 DUP2 PUSH2 0x38F2 JUMP JUMPDEST DUP3 MSTORE POP POP JUMP JUMPDEST PUSH0 PUSH1 0x20 DUP3 ADD SWAP1 POP PUSH2 0x391F PUSH0 DUP4 ADD DUP5 PUSH2 0x38FD JUMP JUMPDEST SWAP3 SWAP2 POP POP JUMP JUMPDEST PUSH0 PUSH1 0xFF DUP3 AND SWAP1 POP SWAP2 SWAP1 POP JUMP JUMPDEST PUSH2 0x393A DUP2 PUSH2 0x3925 JUMP JUMPDEST DUP3 MSTORE POP POP JUMP JUMPDEST PUSH0 PUSH1 0x20 DUP3 ADD SWAP1 POP PUSH2 0x3953 PUSH0 DUP4 ADD DUP5 PUSH2 0x3931 JUMP JUMPDEST SWAP3 SWAP2 POP POP JUMP JUMPDEST PUSH0 DUP2 MLOAD SWAP1 POP SWAP2 SWAP1 POP JUMP JUMPDEST PUSH0 DUP3 DUP3 MSTORE PUSH1 0x20 DUP3 ADD SWAP1 POP SWAP3 SWAP2 POP POP JUMP JUMPDEST PUSH0 JUMPDEST DUP4 DUP2 LT ISZERO PUSH2 0x3990 JUMPI DUP1 DUP3 ADD MLOAD DUP2 DUP5 ADD MSTORE PUSH1 0x20 DUP2 ADD SWAP1 POP PUSH2 0x3975 JUMP JUMPDEST PUSH0 DUP5 DUP5 ADD MSTORE POP POP POP POP JUMP JUMPDEST PUSH0 PUSH1 0x1F NOT PUSH1 0x1F DUP4 ADD AND SWAP1 POP SWAP2 SWAP1 POP JUMP JUMPDEST PUSH0 PUSH2 0x39B5 DUP3 PUSH2 0x3959 JUMP JUMPDEST PUSH2 0x39BF DUP2 DUP6 PUSH2 0x3963 JUMP JUMPDEST SWAP4 POP PUSH2 0x39CF DUP2 DUP6 PUSH1 0x20 DUP7 ADD PUSH2 0x3973 JUMP JUMPDEST PUSH2 0x39D8 DUP2 PUSH2 0x399B JUMP JUMPDEST DUP5 ADD SWAP2 POP POP SWAP3 SWAP2 POP POP JUMP JUMPDEST PUSH0 PUSH1 0x20 DUP3 ADD SWAP1 POP DUP2 DUP2 SUB PUSH0 DUP4 ADD MSTORE PUSH2 0x39FB DUP2 DUP5 PUSH2 0x39AB JUMP JUMPDEST SWAP1 POP SWAP3 SWAP2 POP POP JUMP JUMPDEST PUSH0 DUP2 SWAP1 POP SWAP2 SWAP1 POP JUMP JUMPDEST PUSH2 0x3A15 DUP2 PUSH2 0x3A03 JUMP JUMPDEST DUP2 EQ PUSH2 0x3A1F JUMPI PUSH0 DUP1 REVERT JUMPDEST POP JUMP JUMPDEST PUSH0 DUP2 CALLDATALOAD SWAP1 POP PUSH2 0x3A30 DUP2 PUSH2 0x3A0C JUMP JUMPDEST SWAP3 SWAP2 POP POP JUMP JUMPDEST PUSH0 PUSH1 0x20 DUP3 DUP5 SUB SLT ISZERO PUSH2 0x3A4B JUMPI PUSH2 0x3A4A PUSH2 0x386A JUMP JUMPDEST JUMPDEST PUSH0 PUSH2 0x3A58 DUP5 DUP3 DUP6 ADD PUSH2 0x3A22 JUMP JUMPDEST SWAP2 POP POP SWAP3 SWAP2 POP POP JUMP JUMPDEST PUSH2 0x3A6A DUP2 PUSH2 0x3A03 JUMP JUMPDEST DUP3 MSTORE POP POP JUMP JUMPDEST PUSH0 PUSH1 0x20 DUP3 ADD SWAP1 POP PUSH2 0x3A83 PUSH0 DUP4 ADD DUP5 PUSH2 0x3A61 JUMP JUMPDEST SWAP3 SWAP2 POP POP JUMP JUMPDEST PUSH0 DUP2 SWAP1 POP SWAP2 SWAP1 POP JUMP JUMPDEST PUSH2 0x3A9B DUP2 PUSH2 0x3A89 JUMP JUMPDEST DUP3 MSTORE POP POP JUMP JUMPDEST PUSH0 PUSH1 0x20 DUP3 ADD SWAP1 POP PUSH2 0x3AB4 PUSH0 DUP4 ADD DUP5 PUSH2 0x3A92 JUMP JUMPDEST SWAP3 SWAP2 POP POP JUMP JUMPDEST PUSH0 PUSH20 0xFFFFFFFFFFFFFFFFFFFFFFFFFFFFFFFFFFFFFFFF DUP3 AND SWAP1 POP SWAP2 SWAP1 POP JUMP JUMPDEST PUSH0 PUSH2 0x3AE3 DUP3 PUSH2 0x3ABA JUMP JUMPDEST SWAP1 POP SWAP2 SWAP1 POP JUMP JUMPDEST PUSH2 0x3AF3 DUP2 PUSH2 0x3AD9 JUMP JUMPDEST DUP2 EQ PUSH2 0x3AFD JUMPI PUSH0 DUP1 REVERT JUMPDEST POP JUMP JUMPDEST PUSH0 DUP2 CALLDATALOAD SWAP1 POP PUSH2 0x3B0E DUP2 PUSH2 0x3AEA JUMP JUMPDEST SWAP3 SWAP2 POP POP JUMP JUMPDEST PUSH0 DUP1 PUSH1 0x40 DUP4 DUP6 SUB SLT ISZERO PUSH2 0x3B2A JUMPI PUSH2 0x3B29 PUSH2 0x386A JUMP JUMPDEST JUMPDEST PUSH0 PUSH2 0x3B37 DUP6 DUP3 DUP7 ADD PUSH2 0x3A22 JUMP JUMPDEST SWAP3 POP POP PUSH1 0x20 PUSH2 0x3B48 DUP6 DUP3 DUP7 ADD PUSH2 0x3B00 JUMP JUMPDEST SWAP2 POP POP SWAP3 POP SWAP3 SWAP1 POP JUMP JUMPDEST PUSH0 DUP1 REVERT JUMPDEST PUSH0 DUP1 REVERT JUMPDEST PUSH32 0x4E487B7100000000000000000000000000000000000000000000000000000000 PUSH0 MSTORE PUSH1 0x41 PUSH1 0x4 MSTORE PUSH1 0x24 PUSH0 REVERT JUMPDEST PUSH2 0x3B90 DUP3 PUSH2 0x399B JUMP JUMPDEST DUP2 ADD DUP2 DUP2 LT PUSH8 0xFFFFFFFFFFFFFFFF DUP3 GT OR ISZERO PUSH2 0x3BAF JUMPI PUSH2 0x3BAE PUSH2 0x3B5A JUMP JUMPDEST JUMPDEST DUP1 PUSH1 0x40 MSTORE POP POP POP JUMP JUMPDEST PUSH0 PUSH2 0x3BC1 PUSH2 0x3861 JUMP JUMPDEST SWAP1 POP PUSH2 0x3BCD DUP3 DUP3 PUSH2 0x3B87 JUMP JUMPDEST SWAP2 SWAP1 POP JUMP JUMPDEST PUSH0 PUSH8 0xFFFFFFFFFFFFFFFF DUP3 GT ISZERO PUSH2 0x3BEC JUMPI PUSH2 0x3BEB PUSH2 0x3B5A JUMP JUMPDEST JUMPDEST PUSH2 0x3BF5 DUP3 PUSH2 0x399B JUMP JUMPDEST SWAP1 POP PUSH1 0x20 DUP2 ADD SWAP1 POP SWAP2 SWAP1 POP JUMP JUMPDEST DUP3 DUP2 DUP4 CALLDATACOPY PUSH0 DUP4 DUP4 ADD MSTORE POP POP POP JUMP JUMPDEST PUSH0 PUSH2 0x3C22 PUSH2 0x3C1D DUP5 PUSH2 0x3BD2 JUMP JUMPDEST PUSH2 0x3BB8 JUMP JUMPDEST SWAP1 POP DUP3 DUP2 MSTORE PUSH1 0x20 DUP2 ADD DUP5 DUP5 DUP5 ADD GT ISZERO PUSH2 0x3C3E JUMPI PUSH2 0x3C3D PUSH2 0x3B56 JUMP JUMPDEST JUMPDEST PUSH2 0x3C49 DUP5 DUP3 DUP6 PUSH2 0x3C02 JUMP JUMPDEST POP SWAP4 SWAP3 POP POP POP JUMP JUMPDEST PUSH0 DUP3 PUSH1 0x1F DUP4 ADD SLT PUSH2 0x3C65 JUMPI PUSH2 0x3C64 PUSH2 0x3B52 JUMP JUMPDEST JUMPDEST DUP2 CALLDATALOAD PUSH2 0x3C75 DUP5 DUP3 PUSH1 0x20 DUP7 ADD PUSH2 0x3C10 JUMP JUMPDEST SWAP2 POP POP SWAP3 SWAP2 POP POP JUMP JUMPDEST PUSH0 DUP1 PUSH1 0x40 DUP4 DUP6 SUB SLT ISZERO PUSH2 0x3C94 JUMPI PUSH2 0x3C93 PUSH2 0x386A JUMP JUMPDEST JUMPDEST PUSH0 PUSH2 0x3CA1 DUP6 DUP3 DUP7 ADD PUSH2 0x3B00 JUMP JUMPDEST SWAP3 POP POP PUSH1 0x20 DUP4 ADD CALLDATALOAD PUSH8 0xFFFFFFFFFFFFFFFF DUP2 GT ISZERO PUSH2 0x3CC2 JUMPI PUSH2 0x3CC1 PUSH2 0x386E JUMP JUMPDEST JUMPDEST PUSH2 0x3CCE DUP6 DUP3 DUP7 ADD PUSH2 0x3C51 JUMP JUMPDEST SWAP2 POP POP SWAP3 POP SWAP3 SWAP1 POP JUMP JUMPDEST PUSH2 0x3CE1 DUP2 PUSH2 0x3A89 JUMP JUMPDEST DUP2 EQ PUSH2 0x3CEB JUMPI PUSH0 DUP1 REVERT JUMPDEST POP JUMP JUMPDEST PUSH0 DUP2 CALLDATALOAD SWAP1 POP PUSH2 0x3CFC DUP2 PUSH2 0x3CD8 JUMP JUMPDEST SWAP3 SWAP2 POP POP JUMP JUMPDEST PUSH0 DUP1 PUSH0 PUSH1 0x60 DUP5 DUP7 SUB SLT ISZERO PUSH2 0x3D19 JUMPI PUSH2 0x3D18 PUSH2 0x386A JUMP JUMPDEST JUMPDEST PUSH0 PUSH2 0x3D26 DUP7 DUP3 DUP8 ADD PUSH2 0x3CEE JUMP JUMPDEST SWAP4 POP POP PUSH1 0x20 PUSH2 0x3D37 DUP7 DUP3 DUP8 ADD PUSH2 0x3CEE JUMP JUMPDEST SWAP3 POP POP PUSH1 0x40 PUSH2 0x3D48 DUP7 DUP3 DUP8 ADD PUSH2 0x3CEE JUMP JUMPDEST SWAP2 POP POP SWAP3 POP SWAP3 POP SWAP3 JUMP JUMPDEST PUSH0 DUP2 MLOAD SWAP1 POP SWAP2 SWAP1 POP JUMP JUMPDEST PUSH0 DUP3 DUP3 MSTORE PUSH1 0x20 DUP3 ADD SWAP1 POP SWAP3 SWAP2 POP POP JUMP JUMPDEST PUSH0 DUP2 SWAP1 POP PUSH1 0x20 DUP3 ADD SWAP1 POP SWAP2 SWAP1 POP JUMP JUMPDEST PUSH2 0x3D84 DUP2 PUSH2 0x3AD9 JUMP JUMPDEST DUP3 MSTORE POP POP JUMP JUMPDEST PUSH0 PUSH2 0x3D95 DUP4 DUP4 PUSH2 0x3D7B JUMP JUMPDEST PUSH1 0x20 DUP4 ADD SWAP1 POP SWAP3 SWAP2 POP POP JUMP JUMPDEST PUSH0 PUSH1 0x20 DUP3 ADD SWAP1 POP SWAP2 SWAP1 POP JUMP JUMPDEST PUSH0 PUSH2 0x3DB7 DUP3 PUSH2 0x3D52 JUMP JUMPDEST PUSH2 0x3DC1 DUP2 DUP6 PUSH2 0x3D5C JUMP JUMPDEST SWAP4 POP PUSH2 0x3DCC DUP4 PUSH2 0x3D6C JUMP JUMPDEST DUP1 PUSH0 JUMPDEST DUP4 DUP2 LT ISZERO PUSH2 0x3DFC JUMPI DUP2 MLOAD PUSH2 0x3DE3 DUP9 DUP3 PUSH2 0x3D8A JUMP JUMPDEST SWAP8 POP PUSH2 0x3DEE DUP4 PUSH2 0x3DA1 JUMP JUMPDEST SWAP3 POP POP PUSH1 0x1 DUP2 ADD SWAP1 POP PUSH2 0x3DCF JUMP JUMPDEST POP DUP6 SWAP4 POP POP POP POP SWAP3 SWAP2 POP POP JUMP JUMPDEST PUSH0 PUSH1 0x20 DUP3 ADD SWAP1 POP DUP2 DUP2 SUB PUSH0 DUP4 ADD MSTORE PUSH2 0x3E21 DUP2 DUP5 PUSH2 0x3DAD JUMP JUMPDEST SWAP1 POP SWAP3 SWAP2 POP POP JUMP JUMPDEST PUSH0 DUP1 PUSH1 0x40 DUP4 DUP6 SUB SLT ISZERO PUSH2 0x3E3F JUMPI PUSH2 0x3E3E PUSH2 0x386A JUMP JUMPDEST JUMPDEST PUSH0 PUSH2 0x3E4C DUP6 DUP3 DUP7 ADD PUSH2 0x3B00 JUMP JUMPDEST SWAP3 POP POP PUSH1 0x20 PUSH2 0x3E5D DUP6 DUP3 DUP7 ADD PUSH2 0x3B00 JUMP JUMPDEST SWAP2 POP POP SWAP3 POP SWAP3 SWAP1 POP JUMP JUMPDEST PUSH0 PUSH1 0x20 DUP3 DUP5 SUB SLT ISZERO PUSH2 0x3E7C JUMPI PUSH2 0x3E7B PUSH2 0x386A JUMP JUMPDEST JUMPDEST PUSH0 PUSH2 0x3E89 DUP5 DUP3 DUP6 ADD PUSH2 0x3B00 JUMP JUMPDEST SWAP2 POP POP SWAP3 SWAP2 POP POP JUMP JUMPDEST PUSH0 DUP2 MLOAD SWAP1 POP SWAP2 SWAP1 POP JUMP JUMPDEST PUSH0 DUP3 DUP3 MSTORE PUSH1 0x20 DUP3 ADD SWAP1 POP SWAP3 SWAP2 POP POP JUMP JUMPDEST PUSH0 DUP2 SWAP1 POP PUSH1 0x20 DUP3 ADD SWAP1 POP SWAP2 SWAP1 POP JUMP JUMPDEST PUSH2 0x3EC4 DUP2 PUSH2 0x3A89 JUMP JUMPDEST DUP3 MSTORE POP POP JUMP JUMPDEST PUSH0 DUP3 DUP3 MSTORE PUSH1 0x20 DUP3 ADD SWAP1 POP SWAP3 SWAP2 POP POP JUMP JUMPDEST PUSH0 PUSH2 0x3EE4 DUP3 PUSH2 0x3959 JUMP JUMPDEST PUSH2 0x3EEE DUP2 DUP6 PUSH2 0x3ECA JUMP JUMPDEST SWAP4 POP PUSH2 0x3EFE DUP2 DUP6 PUSH1 0x20 DUP7 ADD PUSH2 0x3973 JUMP JUMPDEST PUSH2 0x3F07 DUP2 PUSH2 0x399B JUMP JUMPDEST DUP5 ADD SWAP2 POP POP SWAP3 SWAP2 POP POP JUMP JUMPDEST PUSH0 PUSH1 0x40 DUP4 ADD PUSH0 DUP4 ADD MLOAD PUSH2 0x3F27 PUSH0 DUP7 ADD DUP3 PUSH2 0x3EBB JUMP JUMPDEST POP PUSH1 0x20 DUP4 ADD MLOAD DUP5 DUP3 SUB PUSH1 0x20 DUP7 ADD MSTORE PUSH2 0x3F3F DUP3 DUP3 PUSH2 0x3EDA JUMP JUMPDEST SWAP2 POP POP DUP1 SWAP2 POP POP SWAP3 SWAP2 POP POP JUMP JUMPDEST PUSH0 PUSH2 0x3F57 DUP4 DUP4 PUSH2 0x3F12 JUMP JUMPDEST SWAP1 POP SWAP3 SWAP2 POP POP JUMP JUMPDEST PUSH0 PUSH1 0x20 DUP3 ADD SWAP1 POP SWAP2 SWAP1 POP JUMP JUMPDEST PUSH0 PUSH2 0x3F75 DUP3 PUSH2 0x3E92 JUMP JUMPDEST PUSH2 0x3F7F DUP2 DUP6 PUSH2 0x3E9C JUMP JUMPDEST SWAP4 POP DUP4 PUSH1 0x20 DUP3 MUL DUP6 ADD PUSH2 0x3F91 DUP6 PUSH2 0x3EAC JUMP JUMPDEST DUP1 PUSH0 JUMPDEST DUP6 DUP2 LT ISZERO PUSH2 0x3FCC JUMPI DUP5 DUP5 SUB DUP10 MSTORE DUP2 MLOAD PUSH2 0x3FAD DUP6 DUP3 PUSH2 0x3F4C JUMP JUMPDEST SWAP5 POP PUSH2 0x3FB8 DUP4 PUSH2 0x3F5F JUMP JUMPDEST SWAP3 POP PUSH1 0x20 DUP11 ADD SWAP10 POP POP PUSH1 0x1 DUP2 ADD SWAP1 POP PUSH2 0x3F94 JUMP JUMPDEST POP DUP3 SWAP8 POP DUP8 SWAP6 POP POP POP POP POP POP SWAP3 SWAP2 POP POP JUMP JUMPDEST PUSH0 PUSH1 0x20 DUP3 ADD SWAP1 POP DUP2 DUP2 SUB PUSH0 DUP4 ADD MSTORE PUSH2 0x3FF6 DUP2 DUP5 PUSH2 0x3F6B JUMP JUMPDEST SWAP1 POP SWAP3 SWAP2 POP POP JUMP JUMPDEST PUSH2 0x4007 DUP2 PUSH2 0x38F2 JUMP JUMPDEST DUP3 MSTORE POP POP JUMP JUMPDEST PUSH2 0x4016 DUP2 PUSH2 0x3925 JUMP JUMPDEST DUP3 MSTORE POP POP JUMP JUMPDEST PUSH2 0x120 DUP3 ADD PUSH0 DUP3 ADD MLOAD PUSH2 0x4031 PUSH0 DUP6 ADD DUP3 PUSH2 0x3EBB JUMP JUMPDEST POP PUSH1 0x20 DUP3 ADD MLOAD PUSH2 0x4044 PUSH1 0x20 DUP6 ADD DUP3 PUSH2 0x3EBB JUMP JUMPDEST POP PUSH1 0x40 DUP3 ADD MLOAD PUSH2 0x4057 PUSH1 0x40 DUP6 ADD DUP3 PUSH2 0x3EBB JUMP JUMPDEST POP PUSH1 0x60 DUP3 ADD MLOAD PUSH2 0x406A PUSH1 0x60 DUP6 ADD DUP3 PUSH2 0x3EBB JUMP JUMPDEST POP PUSH1 0x80 DUP3 ADD MLOAD PUSH2 0x407D PUSH1 0x80 DUP6 ADD DUP3 PUSH2 0x3EBB JUMP JUMPDEST POP PUSH1 0xA0 DUP3 ADD MLOAD PUSH2 0x4090 PUSH1 0xA0 DUP6 ADD DUP3 PUSH2 0x3FFE JUMP JUMPDEST POP PUSH1 0xC0 DUP3 ADD MLOAD PUSH2 0x40A3 PUSH1 0xC0 DUP6 ADD DUP3 PUSH2 0x400D JUMP JUMPDEST POP PUSH1 0xE0 DUP3 ADD MLOAD PUSH2 0x40B6 PUSH1 0xE0 DUP6 ADD DUP3 PUSH2 0x400D JUMP JUMPDEST POP PUSH2 0x100 DUP3 ADD MLOAD PUSH2 0x40CB PUSH2 0x100 DUP6 ADD DUP3 PUSH2 0x3FFE JUMP JUMPDEST POP POP POP POP JUMP JUMPDEST PUSH0 PUSH2 0x120 DUP3 ADD SWAP1 POP PUSH2 0x40E5 PUSH0 DUP4 ADD DUP5 PUSH2 0x401C JUMP JUMPDEST SWAP3 SWAP2 POP POP JUMP JUMPDEST PUSH0 PUSH1 0x20 DUP3 DUP5 SUB SLT ISZERO PUSH2 0x4100 JUMPI PUSH2 0x40FF PUSH2 0x386A JUMP JUMPDEST JUMPDEST PUSH0 PUSH2 0x410D DUP5 DUP3 DUP6 ADD PUSH2 0x3CEE JUMP JUMPDEST SWAP2 POP POP SWAP3 SWAP2 POP POP JUMP JUMPDEST PUSH2 0x411F DUP2 PUSH2 0x38F2 JUMP JUMPDEST DUP2 EQ PUSH2 0x4129 JUMPI PUSH0 DUP1 REVERT JUMPDEST POP JUMP JUMPDEST PUSH0 DUP2 CALLDATALOAD SWAP1 POP PUSH2 0x413A DUP2 PUSH2 0x4116 JUMP JUMPDEST SWAP3 SWAP2 POP POP JUMP JUMPDEST PUSH0 PUSH8 0xFFFFFFFFFFFFFFFF DUP3 GT ISZERO PUSH2 0x415A JUMPI PUSH2 0x4159 PUSH2 0x3B5A JUMP JUMPDEST JUMPDEST PUSH2 0x4163 DUP3 PUSH2 0x399B JUMP JUMPDEST SWAP1 POP PUSH1 0x20 DUP2 ADD SWAP1 POP SWAP2 SWAP1 POP JUMP JUMPDEST PUSH0 PUSH2 0x4182 PUSH2 0x417D DUP5 PUSH2 0x4140 JUMP JUMPDEST PUSH2 0x3BB8 JUMP JUMPDEST SWAP1 POP DUP3 DUP2 MSTORE PUSH1 0x20 DUP2 ADD DUP5 DUP5 DUP5 ADD GT ISZERO PUSH2 0x419E JUMPI PUSH2 0x419D PUSH2 0x3B56 JUMP JUMPDEST JUMPDEST PUSH2 0x41A9 DUP5 DUP3 DUP6 PUSH2 0x3C02 JUMP JUMPDEST POP SWAP4 SWAP3 POP POP POP JUMP JUMPDEST PUSH0 DUP3 PUSH1 0x1F DUP4 ADD SLT PUSH2 0x41C5 JUMPI PUSH2 0x41C4 PUSH2 0x3B52 JUMP JUMPDEST JUMPDEST DUP2 CALLDATALOAD PUSH2 0x41D5 DUP5 DUP3 PUSH1 0x20 DUP7 ADD PUSH2 0x4170 JUMP JUMPDEST SWAP2 POP POP SWAP3 SWAP2 POP POP JUMP JUMPDEST PUSH0 DUP1 PUSH0 DUP1 PUSH1 0x80 DUP6 DUP8 SUB SLT ISZERO PUSH2 0x41F6 JUMPI PUSH2 0x41F5 PUSH2 0x386A JUMP JUMPDEST JUMPDEST PUSH0 PUSH2 0x4203 DUP8 DUP3 DUP9 ADD PUSH2 0x3B00 JUMP JUMPDEST SWAP5 POP POP PUSH1 0x20 PUSH2 0x4214 DUP8 DUP3 DUP9 ADD PUSH2 0x3CEE JUMP JUMPDEST SWAP4 POP POP PUSH1 0x40 PUSH2 0x4225 DUP8 DUP3 DUP9 ADD PUSH2 0x412C JUMP JUMPDEST SWAP3 POP POP PUSH1 0x60 DUP6 ADD CALLDATALOAD PUSH8 0xFFFFFFFFFFFFFFFF DUP2 GT ISZERO PUSH2 0x4246 JUMPI PUSH2 0x4245 PUSH2 0x386E JUMP JUMPDEST JUMPDEST PUSH2 0x4252 DUP8 DUP3 DUP9 ADD PUSH2 0x41B1 JUMP JUMPDEST SWAP2 POP POP SWAP3 SWAP6 SWAP2 SWAP5 POP SWAP3 POP JUMP JUMPDEST PUSH0 PUSH1 0xC0 DUP3 ADD SWAP1 POP PUSH2 0x4271 PUSH0 DUP4 ADD DUP10 PUSH2 0x3A92 JUMP JUMPDEST PUSH2 0x427E PUSH1 0x20 DUP4 ADD DUP9 PUSH2 0x3A92 JUMP JUMPDEST PUSH2 0x428B PUSH1 0x40 DUP4 ADD DUP8 PUSH2 0x3A92 JUMP JUMPDEST PUSH2 0x4298 PUSH1 0x60 DUP4 ADD DUP7 PUSH2 0x3A92 JUMP JUMPDEST PUSH2 0x42A5 PUSH1 0x80 DUP4 ADD DUP6 PUSH2 0x3A92 JUMP JUMPDEST PUSH2 0x42B2 PUSH1 0xA0 DUP4 ADD DUP5 PUSH2 0x38FD JUMP JUMPDEST SWAP8 SWAP7 POP POP POP POP POP POP POP JUMP JUMPDEST PUSH2 0x42C6 DUP2 PUSH2 0x3925 JUMP JUMPDEST DUP2 EQ PUSH2 0x42D0 JUMPI PUSH0 DUP1 REVERT JUMPDEST POP JUMP JUMPDEST PUSH0 DUP2 CALLDATALOAD SWAP1 POP PUSH2 0x42E1 DUP2 PUSH2 0x42BD JUMP JUMPDEST SWAP3 SWAP2 POP POP JUMP JUMPDEST PUSH0 DUP1 PUSH0 DUP1 PUSH0 PUSH1 0xA0 DUP7 DUP9 SUB SLT ISZERO PUSH2 0x4300 JUMPI PUSH2 0x42FF PUSH2 0x386A JUMP JUMPDEST JUMPDEST PUSH0 PUSH2 0x430D DUP9 DUP3 DUP10 ADD PUSH2 0x3B00 JUMP JUMPDEST SWAP6 POP POP PUSH1 0x20 PUSH2 0x431E DUP9 DUP3 DUP10 ADD PUSH2 0x42D3 JUMP JUMPDEST SWAP5 POP POP PUSH1 0x40 PUSH2 0x432F DUP9 DUP3 DUP10 ADD PUSH2 0x3CEE JUMP JUMPDEST SWAP4 POP POP PUSH1 0x60 PUSH2 0x4340 DUP9 DUP3 DUP10 ADD PUSH2 0x3CEE JUMP JUMPDEST SWAP3 POP POP PUSH1 0x80 PUSH2 0x4351 DUP9 DUP3 DUP10 ADD PUSH2 0x3CEE JUMP JUMPDEST SWAP2 POP POP SWAP3 SWAP6 POP SWAP3 SWAP6 SWAP1 SWAP4 POP JUMP JUMPDEST PUSH32 0x4E487B7100000000000000000000000000000000000000000000000000000000 PUSH0 MSTORE PUSH1 0x22 PUSH1 0x4 MSTORE PUSH1 0x24 PUSH0 REVERT JUMPDEST PUSH0 PUSH1 0x2 DUP3 DIV SWAP1 POP PUSH1 0x1 DUP3 AND DUP1 PUSH2 0x43A2 JUMPI PUSH1 0x7F DUP3 AND SWAP2 POP JUMPDEST PUSH1 0x20 DUP3 LT DUP2 SUB PUSH2 0x43B5 JUMPI PUSH2 0x43B4 PUSH2 0x435E JUMP JUMPDEST JUMPDEST POP SWAP2 SWAP1 POP JUMP JUMPDEST PUSH32 0x63616E2774206368616E6765206164647265737320746F207A65726F20616464 PUSH0 DUP3 ADD MSTORE PUSH32 0x7265737300000000000000000000000000000000000000000000000000000000 PUSH1 0x20 DUP3 ADD MSTORE POP JUMP JUMPDEST PUSH0 PUSH2 0x4415 PUSH1 0x24 DUP4 PUSH2 0x3963 JUMP JUMPDEST SWAP2 POP PUSH2 0x4420 DUP3 PUSH2 0x43BB JUMP JUMPDEST PUSH1 0x40 DUP3 ADD SWAP1 POP SWAP2 SWAP1 POP JUMP JUMPDEST PUSH0 PUSH1 0x20 DUP3 ADD SWAP1 POP DUP2 DUP2 SUB PUSH0 DUP4 ADD MSTORE PUSH2 0x4442 DUP2 PUSH2 0x4409 JUMP JUMPDEST SWAP1 POP SWAP2 SWAP1 POP JUMP JUMPDEST PUSH32 0x4E487B7100000000000000000000000000000000000000000000000000000000 PUSH0 MSTORE PUSH1 0x32 PUSH1 0x4 MSTORE PUSH1 0x24 PUSH0 REVERT JUMPDEST PUSH32 0x4E487B7100000000000000000000000000000000000000000000000000000000 PUSH0 MSTORE PUSH1 0x11 PUSH1 0x4 MSTORE PUSH1 0x24 PUSH0 REVERT JUMPDEST PUSH0 PUSH2 0x44AD DUP3 PUSH2 0x3A89 JUMP JUMPDEST SWAP2 POP PUSH32 0xFFFFFFFFFFFFFFFFFFFFFFFFFFFFFFFFFFFFFFFFFFFFFFFFFFFFFFFFFFFFFFFF DUP3 SUB PUSH2 0x44DF JUMPI PUSH2 0x44DE PUSH2 0x4476 JUMP JUMPDEST JUMPDEST PUSH1 0x1 DUP3 ADD SWAP1 POP SWAP2 SWAP1 POP JUMP JUMPDEST PUSH0 PUSH2 0x44F4 DUP3 PUSH2 0x3A89 JUMP JUMPDEST SWAP2 POP PUSH2 0x44FF DUP4 PUSH2 0x3A89 JUMP JUMPDEST SWAP3 POP DUP3 DUP3 SUB SWAP1 POP DUP2 DUP2 GT ISZERO PUSH2 0x4517 JUMPI PUSH2 0x4516 PUSH2 0x4476 JUMP JUMPDEST JUMPDEST SWAP3 SWAP2 POP POP JUMP JUMPDEST PUSH32 0x4E487B7100000000000000000000000000000000000000000000000000000000 PUSH0 MSTORE PUSH1 0x12 PUSH1 0x4 MSTORE PUSH1 0x24 PUSH0 REVERT JUMPDEST PUSH0 PUSH2 0x4554 DUP3 PUSH2 0x3A89 JUMP JUMPDEST SWAP2 POP PUSH2 0x455F DUP4 PUSH2 0x3A89 JUMP JUMPDEST SWAP3 POP DUP3 PUSH2 0x456F JUMPI PUSH2 0x456E PUSH2 0x451D JUMP JUMPDEST JUMPDEST DUP3 DUP3 DIV SWAP1 POP SWAP3 SWAP2 POP POP JUMP JUMPDEST PUSH32 0x436F6E7472616374206973207061757365640000000000000000000000000000 PUSH0 DUP3 ADD MSTORE POP JUMP JUMPDEST PUSH0 PUSH2 0x45AE PUSH1 0x12 DUP4 PUSH2 0x3963 JUMP JUMPDEST SWAP2 POP PUSH2 0x45B9 DUP3 PUSH2 0x457A JUMP JUMPDEST PUSH1 0x20 DUP3 ADD SWAP1 POP SWAP2 SWAP1 POP JUMP JUMPDEST PUSH0 PUSH1 0x20 DUP3 ADD SWAP1 POP DUP2 DUP2 SUB PUSH0 DUP4 ADD MSTORE PUSH2 0x45DB DUP2 PUSH2 0x45A2 JUMP JUMPDEST SWAP1 POP SWAP2 SWAP1 POP JUMP JUMPDEST PUSH32 0x63616E2774207265676973746572207A65726F20616464726573730000000000 PUSH0 DUP3 ADD MSTORE POP JUMP JUMPDEST PUSH0 PUSH2 0x4616 PUSH1 0x1B DUP4 PUSH2 0x3963 JUMP JUMPDEST SWAP2 POP PUSH2 0x4621 DUP3 PUSH2 0x45E2 JUMP JUMPDEST PUSH1 0x20 DUP3 ADD SWAP1 POP SWAP2 SWAP1 POP JUMP JUMPDEST PUSH0 PUSH1 0x20 DUP3 ADD SWAP1 POP DUP2 DUP2 SUB PUSH0 DUP4 ADD MSTORE PUSH2 0x4643 DUP2 PUSH2 0x460A JUMP JUMPDEST SWAP1 POP SWAP2 SWAP1 POP JUMP JUMPDEST PUSH0 PUSH2 0x4654 DUP3 PUSH2 0x3A89 JUMP JUMPDEST SWAP2 POP PUSH2 0x465F DUP4 PUSH2 0x3A89 JUMP JUMPDEST SWAP3 POP DUP3 DUP3 MUL PUSH2 0x466D DUP2 PUSH2 0x3A89 JUMP JUMPDEST SWAP2 POP DUP3 DUP3 DIV DUP5 EQ DUP4 ISZERO OR PUSH2 0x4684 JUMPI PUSH2 0x4683 PUSH2 0x4476 JUMP JUMPDEST JUMPDEST POP SWAP3 SWAP2 POP POP JUMP JUMPDEST PUSH0 PUSH2 0x4695 DUP3 PUSH2 0x3A89 JUMP JUMPDEST SWAP2 POP PUSH2 0x46A0 DUP4 PUSH2 0x3A89 JUMP JUMPDEST SWAP3 POP DUP3 DUP3 ADD SWAP1 POP DUP1 DUP3 GT ISZERO PUSH2 0x46B8 JUMPI PUSH2 0x46B7 PUSH2 0x4476 JUMP JUMPDEST JUMPDEST SWAP3 SWAP2 POP POP JUMP JUMPDEST PUSH0 DUP2 SWAP1 POP DUP2 PUSH0 MSTORE PUSH1 0x20 PUSH0 KECCAK256 SWAP1 POP SWAP2 SWAP1 POP JUMP JUMPDEST PUSH0 PUSH1 0x20 PUSH1 0x1F DUP4 ADD DIV SWAP1 POP SWAP2 SWAP1 POP JUMP JUMPDEST PUSH0 DUP3 DUP3 SHL SWAP1 POP SWAP3 SWAP2 POP POP JUMP JUMPDEST PUSH0 PUSH1 0x8 DUP4 MUL PUSH2 0x471A PUSH32 0xFFFFFFFFFFFFFFFFFFFFFFFFFFFFFFFFFFFFFFFFFFFFFFFFFFFFFFFFFFFFFFFF DUP3 PUSH2 0x46DF JUMP JUMPDEST PUSH2 0x4724 DUP7 DUP4 PUSH2 0x46DF JUMP JUMPDEST SWAP6 POP DUP1 NOT DUP5 AND SWAP4 POP DUP1 DUP7 AND DUP5 OR SWAP3 POP POP POP SWAP4 SWAP3 POP POP POP JUMP JUMPDEST PUSH0 DUP2 SWAP1 POP SWAP2 SWAP1 POP JUMP JUMPDEST PUSH0 PUSH2 0x475F PUSH2 0x475A PUSH2 0x4755 DUP5 PUSH2 0x3A89 JUMP JUMPDEST PUSH2 0x473C JUMP JUMPDEST PUSH2 0x3A89 JUMP JUMPDEST SWAP1 POP SWAP2 SWAP1 POP JUMP JUMPDEST PUSH0 DUP2 SWAP1 POP SWAP2 SWAP1 POP JUMP JUMPDEST PUSH2 0x4778 DUP4 PUSH2 0x4745 JUMP JUMPDEST PUSH2 0x478C PUSH2 0x4784 DUP3 PUSH2 0x4766 JUMP JUMPDEST DUP5 DUP5 SLOAD PUSH2 0x46EB JUMP JUMPDEST DUP3 SSTORE POP POP POP POP JUMP JUMPDEST PUSH0 SWAP1 JUMP JUMPDEST PUSH2 0x47A0 PUSH2 0x4794 JUMP JUMPDEST PUSH2 0x47AB DUP2 DUP5 DUP5 PUSH2 0x476F JUMP JUMPDEST POP POP POP JUMP JUMPDEST JUMPDEST DUP2 DUP2 LT ISZERO PUSH2 0x47CE JUMPI PUSH2 0x47C3 PUSH0 DUP3 PUSH2 0x4798 JUMP JUMPDEST PUSH1 0x1 DUP2 ADD SWAP1 POP PUSH2 0x47B1 JUMP JUMPDEST POP POP JUMP JUMPDEST PUSH1 0x1F DUP3 GT ISZERO PUSH2 0x4813 JUMPI PUSH2 0x47E4 DUP2 PUSH2 0x46BE JUMP JUMPDEST PUSH2 0x47ED DUP5 PUSH2 0x46D0 JUMP JUMPDEST DUP2 ADD PUSH1 0x20 DUP6 LT ISZERO PUSH2 0x47FC JUMPI DUP2 SWAP1 POP JUMPDEST PUSH2 0x4810 PUSH2 0x4808 DUP6 PUSH2 0x46D0 JUMP JUMPDEST DUP4 ADD DUP3 PUSH2 0x47B0 JUMP JUMPDEST POP POP JUMPDEST POP POP POP JUMP JUMPDEST PUSH0 DUP3 DUP3 SHR SWAP1 POP SWAP3 SWAP2 POP POP JUMP JUMPDEST PUSH0 PUSH2 0x4833 PUSH0 NOT DUP5 PUSH1 0x8 MUL PUSH2 0x4818 JUMP JUMPDEST NOT DUP1 DUP4 AND SWAP2 POP POP SWAP3 SWAP2 POP POP JUMP JUMPDEST PUSH0 PUSH2 0x484B DUP4 DUP4 PUSH2 0x4824 JUMP JUMPDEST SWAP2 POP DUP3 PUSH1 0x2 MUL DUP3 OR SWAP1 POP SWAP3 SWAP2 POP POP JUMP JUMPDEST PUSH2 0x4864 DUP3 PUSH2 0x3959 JUMP JUMPDEST PUSH8 0xFFFFFFFFFFFFFFFF DUP2 GT ISZERO PUSH2 0x487D JUMPI PUSH2 0x487C PUSH2 0x3B5A JUMP JUMPDEST JUMPDEST PUSH2 0x4887 DUP3 SLOAD PUSH2 0x438B JUMP JUMPDEST PUSH2 0x4892 DUP3 DUP3 DUP6 PUSH2 0x47D2 JUMP JUMPDEST PUSH0 PUSH1 0x20 SWAP1 POP PUSH1 0x1F DUP4 GT PUSH1 0x1 DUP2 EQ PUSH2 0x48C3 JUMPI PUSH0 DUP5 ISZERO PUSH2 0x48B1 JUMPI DUP3 DUP8 ADD MLOAD SWAP1 POP JUMPDEST PUSH2 0x48BB DUP6 DUP3 PUSH2 0x4840 JUMP JUMPDEST DUP7 SSTORE POP PUSH2 0x4922 JUMP JUMPDEST PUSH1 0x1F NOT DUP5 AND PUSH2 0x48D1 DUP7 PUSH2 0x46BE JUMP JUMPDEST PUSH0 JUMPDEST DUP3 DUP2 LT ISZERO PUSH2 0x48F8 JUMPI DUP5 DUP10 ADD MLOAD DUP3 SSTORE PUSH1 0x1 DUP3 ADD SWAP2 POP PUSH1 0x20 DUP6 ADD SWAP5 POP PUSH1 0x20 DUP2 ADD SWAP1 POP PUSH2 0x48D3 JUMP JUMPDEST DUP7 DUP4 LT ISZERO PUSH2 0x4915 JUMPI DUP5 DUP10 ADD MLOAD PUSH2 0x4911 PUSH1 0x1F DUP10 AND DUP3 PUSH2 0x4824 JUMP JUMPDEST DUP4 SSTORE POP JUMPDEST PUSH1 0x1 PUSH1 0x2 DUP9 MUL ADD DUP9 SSTORE POP POP POP JUMPDEST POP POP POP POP POP POP JUMP JUMPDEST PUSH0 PUSH1 0x60 DUP3 ADD SWAP1 POP PUSH2 0x493D PUSH0 DUP4 ADD DUP7 PUSH2 0x3A92 JUMP JUMPDEST PUSH2 0x494A PUSH1 0x20 DUP4 ADD DUP6 PUSH2 0x38FD JUMP JUMPDEST DUP2 DUP2 SUB PUSH1 0x40 DUP4 ADD MSTORE PUSH2 0x495C DUP2 DUP5 PUSH2 0x39AB JUMP JUMPDEST SWAP1 POP SWAP5 SWAP4 POP POP POP POP JUMP JUMPDEST PUSH0 DUP2 SWAP1 POP SWAP2 SWAP1 POP JUMP JUMPDEST PUSH0 PUSH8 0xFFFFFFFFFFFFFFFF DUP3 AND SWAP1 POP SWAP2 SWAP1 POP JUMP JUMPDEST PUSH0 PUSH2 0x499C PUSH2 0x4997 PUSH2 0x4992 DUP5 PUSH2 0x4966 JUMP JUMPDEST PUSH2 0x473C JUMP JUMPDEST PUSH2 0x496F JUMP JUMPDEST SWAP1 POP SWAP2 SWAP1 POP JUMP JUMPDEST PUSH2 0x49AC DUP2 PUSH2 0x4982 JUMP JUMPDEST DUP3 MSTORE POP POP JUMP JUMPDEST PUSH0 PUSH1 0x20 DUP3 ADD SWAP1 POP PUSH2 0x49C5 PUSH0 DUP4 ADD DUP5 PUSH2 0x49A3 JUMP JUMPDEST SWAP3 SWAP2 POP POP JUMP JUMPDEST PUSH32 0x55736572206E6F7420666F756E64206F7220696E616374697665000000000000 PUSH0 DUP3 ADD MSTORE POP JUMP JUMPDEST PUSH0 PUSH2 0x49FF PUSH1 0x1A DUP4 PUSH2 0x3963 JUMP JUMPDEST SWAP2 POP PUSH2 0x4A0A DUP3 PUSH2 0x49CB JUMP JUMPDEST PUSH1 0x20 DUP3 ADD SWAP1 POP SWAP2 SWAP1 POP JUMP JUMPDEST PUSH0 PUSH1 0x20 DUP3 ADD SWAP1 POP DUP2 DUP2 SUB PUSH0 DUP4 ADD MSTORE PUSH2 0x4A2C DUP2 PUSH2 0x49F3 JUMP JUMPDEST SWAP1 POP SWAP2 SWAP1 POP JUMP JUMPDEST PUSH0 DUP2 MLOAD SWAP1 POP PUSH2 0x4A41 DUP2 PUSH2 0x3A0C JUMP JUMPDEST SWAP3 SWAP2 POP POP JUMP JUMPDEST PUSH0 PUSH1 0x20 DUP3 DUP5 SUB SLT ISZERO PUSH2 0x4A5C JUMPI PUSH2 0x4A5B PUSH2 0x386A JUMP JUMPDEST JUMPDEST PUSH0 PUSH2 0x4A69 DUP5 DUP3 DUP6 ADD PUSH2 0x4A33 JUMP JUMPDEST SWAP2 POP POP SWAP3 SWAP2 POP POP JUMP JUMPDEST PUSH2 0x4A7B DUP2 PUSH2 0x3AD9 JUMP JUMPDEST DUP3 MSTORE POP POP JUMP JUMPDEST PUSH0 PUSH1 0x20 DUP3 ADD SWAP1 POP PUSH2 0x4A94 PUSH0 DUP4 ADD DUP5 PUSH2 0x4A72 JUMP JUMPDEST SWAP3 SWAP2 POP POP JUMP JUMPDEST PUSH0 PUSH2 0x4AA4 DUP3 PUSH2 0x3925 JUMP JUMPDEST SWAP2 POP PUSH2 0x4AAF DUP4 PUSH2 0x3925 JUMP JUMPDEST SWAP3 POP DUP3 DUP3 ADD SWAP1 POP PUSH1 0xFF DUP2 GT ISZERO PUSH2 0x4AC8 JUMPI PUSH2 0x4AC7 PUSH2 0x4476 JUMP JUMPDEST JUMPDEST SWAP3 SWAP2 POP POP JUMP JUMPDEST PUSH0 PUSH2 0x4AD8 DUP3 PUSH2 0x3925 JUMP JUMPDEST SWAP2 POP PUSH1 0xFF DUP3 SUB PUSH2 0x4AEB JUMPI PUSH2 0x4AEA PUSH2 0x4476 JUMP JUMPDEST JUMPDEST PUSH1 0x1 DUP3 ADD SWAP1 POP SWAP2 SWAP1 POP JUMP JUMPDEST PUSH0 PUSH2 0x4B00 DUP3 PUSH2 0x3925 JUMP JUMPDEST SWAP2 POP PUSH2 0x4B0B DUP4 PUSH2 0x3925 JUMP JUMPDEST SWAP3 POP DUP3 DUP3 SUB SWAP1 POP PUSH1 0xFF DUP2 GT ISZERO PUSH2 0x4B24 JUMPI PUSH2 0x4B23 PUSH2 0x4476 JUMP JUMPDEST JUMPDEST SWAP3 SWAP2 POP POP JUMP JUMPDEST PUSH0 PUSH1 0x40 DUP3 ADD SWAP1 POP PUSH2 0x4B3D PUSH0 DUP4 ADD DUP6 PUSH2 0x3A92 JUMP JUMPDEST DUP2 DUP2 SUB PUSH1 0x20 DUP4 ADD MSTORE PUSH2 0x4B4F DUP2 DUP5 PUSH2 0x39AB JUMP JUMPDEST SWAP1 POP SWAP4 SWAP3 POP POP POP JUMP JUMPDEST PUSH0 PUSH1 0x40 DUP3 ADD SWAP1 POP PUSH2 0x4B6B PUSH0 DUP4 ADD DUP6 PUSH2 0x4A72 JUMP JUMPDEST PUSH2 0x4B78 PUSH1 0x20 DUP4 ADD DUP5 PUSH2 0x3A61 JUMP JUMPDEST SWAP4 SWAP3 POP POP POP JUMP JUMPDEST PUSH0 DUP2 SWAP1 POP SWAP2 SWAP1 POP JUMP JUMPDEST PUSH0 PUSH2 0x4B92 DUP3 PUSH2 0x4B7F JUMP JUMPDEST SWAP2 POP PUSH2 0x4B9D DUP4 PUSH2 0x4B7F JUMP JUMPDEST SWAP3 POP DUP3 DUP3 SUB SWAP1 POP DUP2 DUP2 SLT PUSH0 DUP5 SLT AND DUP3 DUP3 SGT PUSH0 DUP6 SLT ISZERO AND OR ISZERO PUSH2 0x4BC2 JUMPI PUSH2 0x4BC1 PUSH2 0x4476 JUMP JUMPDEST JUMPDEST SWAP3 SWAP2 POP POP JUMP JUMPDEST PUSH0 PUSH2 0x4BD2 DUP3 PUSH2 0x4B7F JUMP JUMPDEST SWAP2 POP PUSH2 0x4BDD DUP4 PUSH2 0x4B7F JUMP JUMPDEST SWAP3 POP DUP3 PUSH2 0x4BED JUMPI PUSH2 0x4BEC PUSH2 0x451D JUMP JUMPDEST JUMPDEST PUSH1 0x1 PUSH0 SUB DUP4 EQ PUSH32 0x8000000000000000000000000000000000000000000000000000000000000000 DUP4 EQ AND ISZERO PUSH2 0x4C25 JUMPI PUSH2 0x4C24 PUSH2 0x4476 JUMP JUMPDEST JUMPDEST DUP3 DUP3 SDIV SWAP1 POP SWAP3 SWAP2 POP POP JUMP JUMPDEST PUSH0 PUSH2 0x4C3A DUP3 PUSH2 0x4B7F JUMP JUMPDEST SWAP2 POP PUSH2 0x4C45 DUP4 PUSH2 0x4B7F JUMP JUMPDEST SWAP3 POP DUP3 DUP3 ADD SWAP1 POP DUP3 DUP2 SLT ISZERO PUSH0 DUP4 SLT AND DUP4 DUP3 SLT PUSH0 DUP5 SLT ISZERO AND OR ISZERO PUSH2 0x4C6B JUMPI PUSH2 0x4C6A PUSH2 0x4476 JUMP JUMPDEST JUMPDEST SWAP3 SWAP2 POP POP JUMP JUMPDEST PUSH0 PUSH2 0x4C7B DUP3 PUSH2 0x4B7F JUMP JUMPDEST SWAP2 POP PUSH2 0x4C86 DUP4 PUSH2 0x4B7F JUMP JUMPDEST SWAP3 POP DUP3 DUP3 MUL PUSH2 0x4C94 DUP2 PUSH2 0x4B7F JUMP JUMPDEST SWAP2 POP PUSH32 0x8000000000000000000000000000000000000000000000000000000000000000 DUP5 EQ PUSH0 DUP5 SLT AND ISZERO PUSH2 0x4CCB JUMPI PUSH2 0x4CCA PUSH2 0x4476 JUMP JUMPDEST JUMPDEST DUP3 DUP3 SDIV DUP5 EQ DUP4 ISZERO OR PUSH2 0x4CE0 JUMPI PUSH2 0x4CDF PUSH2 0x4476 JUMP JUMPDEST JUMPDEST POP SWAP3 SWAP2 POP POP JUMP JUMPDEST PUSH0 PUSH1 0x40 DUP3 ADD SWAP1 POP DUP2 DUP2 SUB PUSH0 DUP4 ADD MSTORE PUSH2 0x4CFF DUP2 DUP6 PUSH2 0x39AB JUMP JUMPDEST SWAP1 POP PUSH2 0x4D0E PUSH1 0x20 DUP4 ADD DUP5 PUSH2 0x3A92 JUMP JUMPDEST SWAP4 SWAP3 POP POP POP JUMP JUMPDEST PUSH0 DUP2 MLOAD SWAP1 POP SWAP2 SWAP1 POP JUMP JUMPDEST PUSH0 DUP2 SWAP1 POP SWAP3 SWAP2 POP POP JUMP JUMPDEST PUSH0 PUSH2 0x4D33 DUP3 PUSH2 0x4D15 JUMP JUMPDEST PUSH2 0x4D3D DUP2 DUP6 PUSH2 0x4D1F JUMP JUMPDEST SWAP4 POP PUSH2 0x4D4D DUP2 DUP6 PUSH1 0x20 DUP7 ADD PUSH2 0x3973 JUMP JUMPDEST DUP1 DUP5 ADD SWAP2 POP POP SWAP3 SWAP2 POP POP JUMP JUMPDEST PUSH0 PUSH2 0x4D64 DUP3 DUP5 PUSH2 0x4D29 JUMP JUMPDEST SWAP2 POP DUP2 SWAP1 POP SWAP3 SWAP2 POP POP JUMP JUMPDEST PUSH32 0x4E487B7100000000000000000000000000000000000000000000000000000000 PUSH0 MSTORE PUSH1 0x51 PUSH1 0x4 MSTORE PUSH1 0x24 PUSH0 REVERT INVALID LOG2 PUSH5 0x6970667358 0x22 SLT KECCAK256 GT PUSH9 0xAEB0B199EF79BF2E8E 0xD1 DUP14 0xD8 ADDMOD 0xB4 LOG4 PUSH18 0x18AD6C113867F07831544D6737764736F6C PUSH4 0x43000814 STOP CALLER "
		},
		"gasEstimates": {
			"creation": {
				"codeDepositCost": "3984400",
				"executionCost": "infinite",
				"totalCost": "infinite"
			},
			"external": {
				"DEFAULT_ADMIN_ROLE()": "485",
				"UPGRADE_INTERFACE_VERSION()": "infinite",
				"balanceOf(address)": "2923",
				"calcUserInitClaimableAmount(address)": "infinite",
				"changeWalletAddress(address,address)": "infinite",
				"checkAndUpdateCurrentVestingCycle()": "infinite",
				"claimReleasedAmount(address)": "infinite",
				"currentVestingCycle()": "2535",
				"dataAdd_ROLE_Forvesting()": "437",
				"decimals()": "400",
				"futureDate()": "2515",
				"getAllTheBuyers()": "5055",
				"getBlockTime()": "2588",
				"getOldUserWalletArray()": "infinite",
				"getRoleAdmin(bytes32)": "infinite",
				"getTransactionDetails(address)": "infinite",
				"getUserClaimedAmount(address)": "2902",
				"getUserInfo(address)": "infinite",
				"getVestingDetails(address)": "infinite",
				"grantRole(bytes32,address)": "infinite",
				"grantRoleTo(address)": "infinite",
				"hasRole(bytes32,address)": "3285",
				"initialize()": "infinite",
				"isContractPaused()": "2598",
				"isVestedTransferAllowed()": "2630",
				"name()": "infinite",
				"proxiableUUID()": "infinite",
				"publicSaleEnd()": "2535",
				"publicSaleStart()": "2537",
				"release()": "infinite",
				"renounceRole(bytes32,address)": "infinite",
				"revokeRole(bytes32,address)": "infinite",
				"setFutureDate(uint256,uint256,uint256)": "infinite",
				"setPublicSaleEndDate(uint256,uint256,uint256)": "infinite",
				"setTwoPerRelEndDate(uint256,uint256,uint256)": "infinite",
				"supportsInterface(bytes4)": "764",
				"symbol()": "infinite",
				"togglePause()": "29206",
				"toggleVestedAmountTransfer()": "29286",
				"totalFundRequiredToRelease(uint256)": "infinite",
				"twoPerReleaseEnd()": "2471",
				"twoPerReleaseStart()": "2513",
				"updateUserForVesting(address,uint256,bool,string)": "infinite",
				"updateUserInfo(address,uint8,uint256,uint256,uint256)": "infinite",
				"upgradeToAndCall(address,bytes)": "infinite",
				"vestingEnd()": "2515",
				"vestingReleaseSchedule(uint256)": "infinite",
				"vestingStart()": "2582"
			},
			"internal": {
				"_authorizeUpgrade(address)": "infinite",
				"_calculateClaimableAmount(address)": "infinite",
				"getTwoPercent(address)": "infinite",
				"updateVestingCycle()": "infinite"
			}
		},
		"methodIdentifiers": {
			"DEFAULT_ADMIN_ROLE()": "a217fddf",
			"UPGRADE_INTERFACE_VERSION()": "ad3cb1cc",
			"balanceOf(address)": "70a08231",
			"calcUserInitClaimableAmount(address)": "c0e0db15",
			"changeWalletAddress(address,address)": "5a0f4074",
			"checkAndUpdateCurrentVestingCycle()": "651a26d1",
			"claimReleasedAmount(address)": "cbcf1536",
			"currentVestingCycle()": "038ff17a",
			"dataAdd_ROLE_Forvesting()": "86643e1a",
			"decimals()": "313ce567",
			"futureDate()": "3145c50d",
			"getAllTheBuyers()": "90a99c2d",
			"getBlockTime()": "87ceff09",
			"getOldUserWalletArray()": "5698ff0f",
			"getRoleAdmin(bytes32)": "248a9ca3",
			"getTransactionDetails(address)": "5cc45a70",
			"getUserClaimedAmount(address)": "8e96ad4f",
			"getUserInfo(address)": "6386c1c7",
			"getVestingDetails(address)": "8dedf009",
			"grantRole(bytes32,address)": "2f2ff15d",
			"grantRoleTo(address)": "833b16c1",
			"hasRole(bytes32,address)": "91d14854",
			"initialize()": "8129fc1c",
			"isContractPaused()": "f4ab2928",
			"isVestedTransferAllowed()": "14359e10",
			"name()": "06fdde03",
			"proxiableUUID()": "52d1902d",
			"publicSaleEnd()": "ec9b5cb2",
			"publicSaleStart()": "3360caa0",
			"release()": "86d1a69f",
			"renounceRole(bytes32,address)": "36568abe",
			"revokeRole(bytes32,address)": "d547741f",
			"setFutureDate(uint256,uint256,uint256)": "ac9de2a4",
			"setPublicSaleEndDate(uint256,uint256,uint256)": "fc44c5c4",
			"setTwoPerRelEndDate(uint256,uint256,uint256)": "56158a7e",
			"supportsInterface(bytes4)": "01ffc9a7",
			"symbol()": "95d89b41",
			"togglePause()": "c4ae3168",
			"toggleVestedAmountTransfer()": "74fba330",
			"totalFundRequiredToRelease(uint256)": "75d3cdd2",
			"twoPerReleaseEnd()": "51e2460e",
			"twoPerReleaseStart()": "db187d37",
			"updateUserForVesting(address,uint256,bool,string)": "7704cb0b",
			"updateUserInfo(address,uint8,uint256,uint256,uint256)": "d610bc35",
			"upgradeToAndCall(address,bytes)": "4f1ef286",
			"vestingEnd()": "84a1931f",
			"vestingReleaseSchedule(uint256)": "bea65da8",
			"vestingStart()": "254800d4"
		}
	},
	"abi": [
		{
			"inputs": [],
			"name": "AccessControlBadConfirmation",
			"type": "error"
		},
		{
			"inputs": [
				{
					"internalType": "address",
					"name": "account",
					"type": "address"
				},
				{
					"internalType": "bytes32",
					"name": "neededRole",
					"type": "bytes32"
				}
			],
			"name": "AccessControlUnauthorizedAccount",
			"type": "error"
		},
		{
			"inputs": [
				{
					"internalType": "address",
					"name": "target",
					"type": "address"
				}
			],
			"name": "AddressEmptyCode",
			"type": "error"
		},
		{
			"inputs": [
				{
					"internalType": "address",
					"name": "implementation",
					"type": "address"
				}
			],
			"name": "ERC1967InvalidImplementation",
			"type": "error"
		},
		{
			"inputs": [],
			"name": "ERC1967NonPayable",
			"type": "error"
		},
		{
			"inputs": [],
			"name": "FailedInnerCall",
			"type": "error"
		},
		{
			"inputs": [],
			"name": "InvalidInitialization",
			"type": "error"
		},
		{
			"inputs": [],
			"name": "NotInitializing",
			"type": "error"
		},
		{
			"inputs": [],
			"name": "UUPSUnauthorizedCallContext",
			"type": "error"
		},
		{
			"inputs": [
				{
					"internalType": "bytes32",
					"name": "slot",
					"type": "bytes32"
				}
			],
			"name": "UUPSUnsupportedProxiableUUID",
			"type": "error"
		},
		{
			"anonymous": false,
			"inputs": [
				{
					"indexed": false,
					"internalType": "uint64",
					"name": "version",
					"type": "uint64"
				}
			],
			"name": "Initialized",
			"type": "event"
		},
		{
			"anonymous": false,
			"inputs": [
				{
					"indexed": true,
					"internalType": "bytes32",
					"name": "role",
					"type": "bytes32"
				},
				{
					"indexed": true,
					"internalType": "bytes32",
					"name": "previousAdminRole",
					"type": "bytes32"
				},
				{
					"indexed": true,
					"internalType": "bytes32",
					"name": "newAdminRole",
					"type": "bytes32"
				}
			],
			"name": "RoleAdminChanged",
			"type": "event"
		},
		{
			"anonymous": false,
			"inputs": [
				{
					"indexed": true,
					"internalType": "bytes32",
					"name": "role",
					"type": "bytes32"
				},
				{
					"indexed": true,
					"internalType": "address",
					"name": "account",
					"type": "address"
				},
				{
					"indexed": true,
					"internalType": "address",
					"name": "sender",
					"type": "address"
				}
			],
			"name": "RoleGranted",
			"type": "event"
		},
		{
			"anonymous": false,
			"inputs": [
				{
					"indexed": true,
					"internalType": "bytes32",
					"name": "role",
					"type": "bytes32"
				},
				{
					"indexed": true,
					"internalType": "address",
					"name": "account",
					"type": "address"
				},
				{
					"indexed": true,
					"internalType": "address",
					"name": "sender",
					"type": "address"
				}
			],
			"name": "RoleRevoked",
			"type": "event"
		},
		{
			"anonymous": false,
			"inputs": [
				{
					"indexed": true,
					"internalType": "address",
					"name": "implementation",
					"type": "address"
				}
			],
			"name": "Upgraded",
			"type": "event"
		},
		{
			"anonymous": false,
			"inputs": [
				{
					"indexed": false,
					"internalType": "uint8",
					"name": "cycle",
					"type": "uint8"
				}
			],
			"name": "VestingCycleUpdated",
			"type": "event"
		},
		{
			"anonymous": false,
			"inputs": [
				{
					"indexed": true,
					"internalType": "address",
					"name": "_userAdd",
					"type": "address"
				},
				{
					"indexed": false,
					"internalType": "uint256",
					"name": "_purchasedAmt",
					"type": "uint256"
				},
				{
					"indexed": false,
					"internalType": "bool",
					"name": "_isPrivateOrSeedUser",
					"type": "bool"
				},
				{
					"indexed": false,
					"internalType": "string",
					"name": "_cifdPrice",
					"type": "string"
				}
			],
			"name": "updatedUserForVesting",
			"type": "event"
		},
		{
			"inputs": [],
			"name": "DEFAULT_ADMIN_ROLE",
			"outputs": [
				{
					"internalType": "bytes32",
					"name": "",
					"type": "bytes32"
				}
			],
			"stateMutability": "view",
			"type": "function"
		},
		{
			"inputs": [],
			"name": "UPGRADE_INTERFACE_VERSION",
			"outputs": [
				{
					"internalType": "string",
					"name": "",
					"type": "string"
				}
			],
			"stateMutability": "view",
			"type": "function"
		},
		{
			"inputs": [
				{
					"internalType": "address",
					"name": "_userAdd",
					"type": "address"
				}
			],
			"name": "balanceOf",
			"outputs": [
				{
					"internalType": "uint256",
					"name": "",
					"type": "uint256"
				}
			],
			"stateMutability": "view",
			"type": "function"
		},
		{
			"inputs": [
				{
					"internalType": "address",
					"name": "_userAdd",
					"type": "address"
				}
			],
			"name": "calcUserInitClaimableAmount",
			"outputs": [
				{
					"internalType": "uint256",
					"name": "",
					"type": "uint256"
				}
			],
			"stateMutability": "view",
			"type": "function"
		},
		{
			"inputs": [
				{
					"internalType": "address",
					"name": "_oldAddress",
					"type": "address"
				},
				{
					"internalType": "address",
					"name": "_newAddress",
					"type": "address"
				}
			],
			"name": "changeWalletAddress",
			"outputs": [],
			"stateMutability": "nonpayable",
			"type": "function"
		},
		{
			"inputs": [],
			"name": "checkAndUpdateCurrentVestingCycle",
			"outputs": [
				{
					"internalType": "uint256",
					"name": "",
					"type": "uint256"
				}
			],
			"stateMutability": "nonpayable",
			"type": "function"
		},
		{
			"inputs": [
				{
					"internalType": "address",
					"name": "_userAddr",
					"type": "address"
				}
			],
			"name": "claimReleasedAmount",
			"outputs": [],
			"stateMutability": "nonpayable",
			"type": "function"
		},
		{
			"inputs": [],
			"name": "currentVestingCycle",
			"outputs": [
				{
					"internalType": "uint8",
					"name": "",
					"type": "uint8"
				}
			],
			"stateMutability": "view",
			"type": "function"
		},
		{
			"inputs": [],
			"name": "dataAdd_ROLE_Forvesting",
			"outputs": [
				{
					"internalType": "bytes32",
					"name": "",
					"type": "bytes32"
				}
			],
			"stateMutability": "view",
			"type": "function"
		},
		{
			"inputs": [],
			"name": "decimals",
			"outputs": [
				{
					"internalType": "uint256",
					"name": "",
					"type": "uint256"
				}
			],
			"stateMutability": "pure",
			"type": "function"
		},
		{
			"inputs": [],
			"name": "futureDate",
			"outputs": [
				{
					"internalType": "uint256",
					"name": "",
					"type": "uint256"
				}
			],
			"stateMutability": "view",
			"type": "function"
		},
		{
			"inputs": [],
			"name": "getAllTheBuyers",
			"outputs": [
				{
					"internalType": "uint256",
					"name": "",
					"type": "uint256"
				}
			],
			"stateMutability": "view",
			"type": "function"
		},
		{
			"inputs": [],
			"name": "getBlockTime",
			"outputs": [
				{
					"internalType": "uint256",
					"name": "",
					"type": "uint256"
				}
			],
			"stateMutability": "view",
			"type": "function"
		},
		{
			"inputs": [],
			"name": "getOldUserWalletArray",
			"outputs": [
				{
					"internalType": "address[]",
					"name": "",
					"type": "address[]"
				}
			],
			"stateMutability": "view",
			"type": "function"
		},
		{
			"inputs": [
				{
					"internalType": "bytes32",
					"name": "role",
					"type": "bytes32"
				}
			],
			"name": "getRoleAdmin",
			"outputs": [
				{
					"internalType": "bytes32",
					"name": "",
					"type": "bytes32"
				}
			],
			"stateMutability": "view",
			"type": "function"
		},
		{
			"inputs": [
				{
					"internalType": "address",
					"name": "_userAdd",
					"type": "address"
				}
			],
			"name": "getTransactionDetails",
			"outputs": [
				{
					"components": [
						{
							"internalType": "uint256",
							"name": "amountOfCifd",
							"type": "uint256"
						},
						{
							"internalType": "string",
							"name": "priceOfCifd",
							"type": "string"
						}
					],
					"internalType": "struct VestingContractUpdatedV1.amountAndPriceInfo[]",
					"name": "",
					"type": "tuple[]"
				}
			],
			"stateMutability": "view",
			"type": "function"
		},
		{
			"inputs": [
				{
					"internalType": "address",
					"name": "_userAddr",
					"type": "address"
				}
			],
			"name": "getUserClaimedAmount",
			"outputs": [
				{
					"internalType": "uint256",
					"name": "",
					"type": "uint256"
				}
			],
			"stateMutability": "view",
			"type": "function"
		},
		{
			"inputs": [
				{
					"internalType": "address",
					"name": "_userAddr",
					"type": "address"
				}
			],
			"name": "getUserInfo",
			"outputs": [
				{
					"components": [
						{
							"internalType": "uint256",
							"name": "tokensUnderVesting",
							"type": "uint256"
						},
						{
							"internalType": "uint256",
							"name": "twoPercentInitialClaimAmount",
							"type": "uint256"
						},
						{
							"internalType": "uint256",
							"name": "claimedAmount",
							"type": "uint256"
						},
						{
							"internalType": "uint256",
							"name": "timeOfEntry",
							"type": "uint256"
						},
						{
							"internalType": "uint256",
							"name": "lastClaimedT",
							"type": "uint256"
						},
						{
							"internalType": "bool",
							"name": "isOldAndActive",
							"type": "bool"
						},
						{
							"internalType": "uint8",
							"name": "claimedVestingCycle",
							"type": "uint8"
						},
						{
							"internalType": "uint8",
							"name": "joinedVestingCycle",
							"type": "uint8"
						},
						{
							"internalType": "bool",
							"name": "isPrivateOrSeedUser",
							"type": "bool"
						}
					],
					"internalType": "struct VestingContractUpdatedV1.UserInfo",
					"name": "",
					"type": "tuple"
				}
			],
			"stateMutability": "view",
			"type": "function"
		},
		{
			"inputs": [
				{
					"internalType": "address",
					"name": "_userAddress",
					"type": "address"
				}
			],
			"name": "getVestingDetails",
			"outputs": [
				{
					"internalType": "uint256",
					"name": "claimedVestingCycle",
					"type": "uint256"
				},
				{
					"internalType": "uint256",
					"name": "tokensUnderVesting",
					"type": "uint256"
				},
				{
					"internalType": "uint256",
					"name": "twoPercentInitialClaimAmount",
					"type": "uint256"
				},
				{
					"internalType": "uint256",
					"name": "claimedAmount",
					"type": "uint256"
				},
				{
					"internalType": "uint256",
					"name": "joinedVestingCycle",
					"type": "uint256"
				},
				{
					"internalType": "bool",
					"name": "isUserActive",
					"type": "bool"
				}
			],
			"stateMutability": "view",
			"type": "function"
		},
		{
			"inputs": [
				{
					"internalType": "bytes32",
					"name": "role",
					"type": "bytes32"
				},
				{
					"internalType": "address",
					"name": "account",
					"type": "address"
				}
			],
			"name": "grantRole",
			"outputs": [],
			"stateMutability": "nonpayable",
			"type": "function"
		},
		{
			"inputs": [
				{
					"internalType": "address",
					"name": "_add",
					"type": "address"
				}
			],
			"name": "grantRoleTo",
			"outputs": [],
			"stateMutability": "nonpayable",
			"type": "function"
		},
		{
			"inputs": [
				{
					"internalType": "bytes32",
					"name": "role",
					"type": "bytes32"
				},
				{
					"internalType": "address",
					"name": "account",
					"type": "address"
				}
			],
			"name": "hasRole",
			"outputs": [
				{
					"internalType": "bool",
					"name": "",
					"type": "bool"
				}
			],
			"stateMutability": "view",
			"type": "function"
		},
		{
			"inputs": [],
			"name": "initialize",
			"outputs": [],
			"stateMutability": "nonpayable",
			"type": "function"
		},
		{
			"inputs": [],
			"name": "isContractPaused",
			"outputs": [
				{
					"internalType": "bool",
					"name": "",
					"type": "bool"
				}
			],
			"stateMutability": "view",
			"type": "function"
		},
		{
			"inputs": [],
			"name": "isVestedTransferAllowed",
			"outputs": [
				{
					"internalType": "bool",
					"name": "",
					"type": "bool"
				}
			],
			"stateMutability": "view",
			"type": "function"
		},
		{
			"inputs": [],
			"name": "name",
			"outputs": [
				{
					"internalType": "string",
					"name": "",
					"type": "string"
				}
			],
			"stateMutability": "view",
			"type": "function"
		},
		{
			"inputs": [],
			"name": "proxiableUUID",
			"outputs": [
				{
					"internalType": "bytes32",
					"name": "",
					"type": "bytes32"
				}
			],
			"stateMutability": "view",
			"type": "function"
		},
		{
			"inputs": [],
			"name": "publicSaleEnd",
			"outputs": [
				{
					"internalType": "uint256",
					"name": "",
					"type": "uint256"
				}
			],
			"stateMutability": "view",
			"type": "function"
		},
		{
			"inputs": [],
			"name": "publicSaleStart",
			"outputs": [
				{
					"internalType": "uint256",
					"name": "",
					"type": "uint256"
				}
			],
			"stateMutability": "view",
			"type": "function"
		},
		{
			"inputs": [],
			"name": "release",
			"outputs": [],
			"stateMutability": "nonpayable",
			"type": "function"
		},
		{
			"inputs": [
				{
					"internalType": "bytes32",
					"name": "role",
					"type": "bytes32"
				},
				{
					"internalType": "address",
					"name": "callerConfirmation",
					"type": "address"
				}
			],
			"name": "renounceRole",
			"outputs": [],
			"stateMutability": "nonpayable",
			"type": "function"
		},
		{
			"inputs": [
				{
					"internalType": "bytes32",
					"name": "role",
					"type": "bytes32"
				},
				{
					"internalType": "address",
					"name": "account",
					"type": "address"
				}
			],
			"name": "revokeRole",
			"outputs": [],
			"stateMutability": "nonpayable",
			"type": "function"
		},
		{
			"inputs": [
				{
					"internalType": "uint256",
					"name": "year",
					"type": "uint256"
				},
				{
					"internalType": "uint256",
					"name": "month",
					"type": "uint256"
				},
				{
					"internalType": "uint256",
					"name": "day",
					"type": "uint256"
				}
			],
			"name": "setFutureDate",
			"outputs": [],
			"stateMutability": "nonpayable",
			"type": "function"
		},
		{
			"inputs": [
				{
					"internalType": "uint256",
					"name": "year",
					"type": "uint256"
				},
				{
					"internalType": "uint256",
					"name": "month",
					"type": "uint256"
				},
				{
					"internalType": "uint256",
					"name": "day",
					"type": "uint256"
				}
			],
			"name": "setPublicSaleEndDate",
			"outputs": [
				{
					"internalType": "bool",
					"name": "",
					"type": "bool"
				}
			],
			"stateMutability": "nonpayable",
			"type": "function"
		},
		{
			"inputs": [
				{
					"internalType": "uint256",
					"name": "year",
					"type": "uint256"
				},
				{
					"internalType": "uint256",
					"name": "month",
					"type": "uint256"
				},
				{
					"internalType": "uint256",
					"name": "day",
					"type": "uint256"
				}
			],
			"name": "setTwoPerRelEndDate",
			"outputs": [
				{
					"internalType": "bool",
					"name": "",
					"type": "bool"
				}
			],
			"stateMutability": "nonpayable",
			"type": "function"
		},
		{
			"inputs": [
				{
					"internalType": "bytes4",
					"name": "interfaceId",
					"type": "bytes4"
				}
			],
			"name": "supportsInterface",
			"outputs": [
				{
					"internalType": "bool",
					"name": "",
					"type": "bool"
				}
			],
			"stateMutability": "view",
			"type": "function"
		},
		{
			"inputs": [],
			"name": "symbol",
			"outputs": [
				{
					"internalType": "string",
					"name": "",
					"type": "string"
				}
			],
			"stateMutability": "view",
			"type": "function"
		},
		{
			"inputs": [],
			"name": "togglePause",
			"outputs": [],
			"stateMutability": "nonpayable",
			"type": "function"
		},
		{
			"inputs": [],
			"name": "toggleVestedAmountTransfer",
			"outputs": [],
			"stateMutability": "nonpayable",
			"type": "function"
		},
		{
			"inputs": [
				{
					"internalType": "uint256",
					"name": "_vestingCycle",
					"type": "uint256"
				}
			],
			"name": "totalFundRequiredToRelease",
			"outputs": [
				{
					"internalType": "uint256",
					"name": "",
					"type": "uint256"
				}
			],
			"stateMutability": "view",
			"type": "function"
		},
		{
			"inputs": [],
			"name": "twoPerReleaseEnd",
			"outputs": [
				{
					"internalType": "uint256",
					"name": "",
					"type": "uint256"
				}
			],
			"stateMutability": "view",
			"type": "function"
		},
		{
			"inputs": [],
			"name": "twoPerReleaseStart",
			"outputs": [
				{
					"internalType": "uint256",
					"name": "",
					"type": "uint256"
				}
			],
			"stateMutability": "view",
			"type": "function"
		},
		{
			"inputs": [
				{
					"internalType": "address",
					"name": "_userAdd",
					"type": "address"
				},
				{
					"internalType": "uint256",
					"name": "_purchasedAmt",
					"type": "uint256"
				},
				{
					"internalType": "bool",
					"name": "_isPrivateOrSeedUser",
					"type": "bool"
				},
				{
					"internalType": "string",
					"name": "_cifdPrice",
					"type": "string"
				}
			],
			"name": "updateUserForVesting",
			"outputs": [
				{
					"internalType": "bool",
					"name": "",
					"type": "bool"
				}
			],
			"stateMutability": "nonpayable",
			"type": "function"
		},
		{
			"inputs": [
				{
					"internalType": "address",
					"name": "_userAdd",
					"type": "address"
				},
				{
					"internalType": "uint8",
					"name": "_claimedCycle",
					"type": "uint8"
				},
				{
					"internalType": "uint256",
					"name": "_vestedAmt",
					"type": "uint256"
				},
				{
					"internalType": "uint256",
					"name": "_claimedAmt",
					"type": "uint256"
				},
				{
					"internalType": "uint256",
					"name": "_twoPercent",
					"type": "uint256"
				}
			],
			"name": "updateUserInfo",
			"outputs": [],
			"stateMutability": "nonpayable",
			"type": "function"
		},
		{
			"inputs": [
				{
					"internalType": "address",
					"name": "newImplementation",
					"type": "address"
				},
				{
					"internalType": "bytes",
					"name": "data",
					"type": "bytes"
				}
			],
			"name": "upgradeToAndCall",
			"outputs": [],
			"stateMutability": "payable",
			"type": "function"
		},
		{
			"inputs": [],
			"name": "vestingEnd",
			"outputs": [
				{
					"internalType": "uint256",
					"name": "",
					"type": "uint256"
				}
			],
			"stateMutability": "view",
			"type": "function"
		},
		{
			"inputs": [
				{
					"internalType": "uint256",
					"name": "",
					"type": "uint256"
				}
			],
			"name": "vestingReleaseSchedule",
			"outputs": [
				{
					"internalType": "uint256",
					"name": "",
					"type": "uint256"
				}
			],
			"stateMutability": "view",
			"type": "function"
		},
		{
			"inputs": [],
			"name": "vestingStart",
			"outputs": [
				{
					"internalType": "uint256",
					"name": "",
					"type": "uint256"
				}
			],
			"stateMutability": "view",
			"type": "function"
		}
	]
}